:020000040800F2
:1000000000500020556100087D1D00087F1D00087C
:10001000811D0008831D0008851D000800000000E8
:10002000000000000000000000000000871D000824
:10003000891D0008000000008B1D00088D1D0008B0
:100040009D6100089D6100089D6100089D61000898
:100050009D6100089D6100089D6100089D61000888
:100060009D6100089D6100089D6100089D61000878
:100070009D610008B51D0008E51D0008F51D00087C
:100080009D610008A51D00089D6100089D61000894
:100090009D6100089D6100089D6100089D61000848
:1000A0009D610008E54C00089D6100089D61000805
:1000B000F54C00089D6100089D6100089D610008E5
:1000C0009D6100089D6100089D6100089D61000818
:1000D0009D6100089D610008D51D0008C51D000830
:1000E0009D6100089D6100089D61000800000000FE
:1000F0000000000000000000000000000000000000
:0C01000000000000000000005FF808F1A3
:1001100010B5054C237833B9044B13B10448AFF341
:1001200000800123237010BDE802002000000000C1
:10013000D87D000808B5034B1BB103490348AFF352
:10014000008008BD00000000EC020020D87D0008FF
:1001500081F0004102E000BF83F0004330B54FEA78
:1001600041044FEA430594EA050F08BF90EA020FE5
:100170001FBF54EA000C55EA020C7FEA645C7FEA78
:10018000655C00F0E2804FEA5454D4EB5555B8BF9B
:100190006D420CDD2C4480EA020281EA030382EA0C
:1001A000000083EA010180EA020281EA0303362D9E
:1001B00088BF30BD11F0004F4FEA01314FF4801C71
:1001C0004CEA113102D0404261EB410113F0004F83
:1001D0004FEA03334CEA133302D0524263EB43033A
:1001E00094EA050F00F0A780A4F10104D5F1200ED8
:1001F0000DDB02FA0EFC22FA05F2801841F1000133
:1002000003FA0EF2801843FA05F359410EE0A5F106
:1002100020050EF1200E012A03FA0EFC28BF4CF037
:10022000020C43FA05F3C01851EBE37101F00045ED
:1002300007D54FF0000EDCF1000C7EEB00006EEBFA
:100240000101B1F5801F1BD3B1F5001F0CD3490884
:100250005FEA30004FEA3C0C04F101044FEA4452DB
:1002600012F5800F80F09A80BCF1004F08BF5FEA62
:10027000500C50F1000041EB045141EA050130BD42
:100280005FEA4C0C404141EB010111F4801FA4F1E5
:100290000104E9D191F0000F04BF01460020B1FA3A
:1002A00081F308BF2033A3F10B03B3F120020CDA72
:1002B0000C3208DD02F1140CC2F10C0201FA0CF050
:1002C00021FA02F10CE002F11402D8BFC2F1200CB5
:1002D00001FA02F120FA0CFCDCBF41EA0C0190406B
:1002E000E41AA2BF01EB0451294330BD6FEA0404B4
:1002F0001F3C1CDA0C340EDC04F11404C4F120029F
:1003000020FA04F001FA02F340EA030021FA04F3B0
:1003100045EA030130BDC4F10C04C4F1200220FA07
:1003200002F001FA04F340EA0300294630BD21FA45
:1003300004F0294630BD94F0000F83F4801306BF0B
:1003400081F480110134013D4EE77FEA645C18BFFF
:100350007FEA655C29D094EA050F08BF90EA020F96
:1003600005D054EA000C04BF1946104630BD91EA8E
:10037000030F1EBF0021002030BD5FEA545C05D191
:100380004000494128BF41F0004130BD14F58004D0
:100390003CBF01F5801130BD01F0004545F0FE4144
:1003A00041F470014FF0000030BD7FEA645C1ABF79
:1003B000194610467FEA655C1CBF0B46024650EAB0
:1003C000013406BF52EA033591EA030F41F40021DC
:1003D00030BD00BF90F0000F04BF0021704730B562
:1003E0004FF4806404F132044FF000054FF0000137
:1003F00050E700BF90F0000F04BF0021704730B5F8
:100400004FF4806404F1320410F0004548BF4042CC
:100410004FF000013EE700BF42004FEAE2014FEA21
:1004200031014FEA02701FBF12F07F4393F07F4FFC
:1004300081F06051704732F07F4208BF704793F0FF
:100440007F4F04BF41F40021704730B54FF4607412
:1004500001F0004521F000411CE700BF50EA010215
:1004600008BF704730B54FF000050AE050EA0102BE
:1004700008BF704730B511F0004502D5404261EB2E
:1004800041014FF4806404F132045FEA915C3FF46F
:10049000D8AE4FF003025FEADC0C18BF03325FEA0C
:1004A000DC0C18BF033202EBDC02C2F1200300FABD
:1004B00003FC20FA02F001FA03FE40EA0E0021FAE2
:1004C00002F11444BDE600BF70B54FF0FF0C4CF4D0
:1004D000E06C1CEA11541DBF1CEA135594EA0C0F82
:1004E00095EA0C0F00F0DEF82C4481EA030621EABD
:1004F0004C5123EA4C5350EA013518BF52EA0335F8
:1005000041F4801143F4801338D0A0FB02CE4FF0A9
:100510000005E1FB02E506F00042E0FB03E54FF0D9
:100520000006E1FB03569CF0000F18BF4EF0010ED1
:10053000A4F1FF04B6F5007F64F5407404D25FEACD
:100540004E0E6D4146EB060642EAC62141EA555180
:100550004FEAC52040EA5E504FEACE2EB4F1FD0CC2
:1005600088BFBCF5E06F1ED8BEF1004F08BF5FEA40
:10057000500E50F1000041EB045170BD06F00046F2
:1005800046EA010140EA020081EA0301B4EB5C049F
:10059000C2BFD4EB0C0541EA045170BD41F4801197
:1005A0004FF0000E013C00F3AB8014F1360FDEBFBC
:1005B000002001F0004170BDC4F10004203C35DA98
:1005C0000C341BDC04F11404C4F1200500FA05F31B
:1005D00020FA04F001FA05F240EA020001F00042BC
:1005E00021F0004110EBD37021FA04F642EB060132
:1005F0005EEA430E08BF20EAD37070BDC4F10C045C
:10060000C4F1200500FA04F320FA05F001FA04F21F
:1006100040EA020001F0004110EBD37041F100010B
:100620005EEA430E08BF20EAD37070BDC4F1200516
:1006300000FA05F24EEA020E20FA04F301FA05F27E
:1006400043EA020321FA04F001F0004121FA04F226
:1006500020EA020000EBD3705EEA430E08BF20EAF6
:10066000D37070BD94F0000F0FD101F00046400030
:1006700041EB010111F4801F08BF013CF7D041EAB2
:10068000060195F0000F18BF704703F000465200B6
:1006900043EB030313F4801F08BF013DF7D043EA87
:1006A0000603704794EA0C0F0CEA135518BF95EA3D
:1006B0000C0F0CD050EA410618BF52EA4306D1D1C4
:1006C00081EA030101F000414FF0000070BD50EAE3
:1006D000410606BF1046194652EA430619D094EA6D
:1006E0000C0F02D150EA013613D195EA0C0F05D157
:1006F00052EA03361CBF104619460AD181EA0301AB
:1007000001F0004141F0FE4141F470014FF0000062
:1007100070BD41F0FE4141F4780170BD70B54FF0FD
:10072000FF0C4CF4E06C1CEA11541DBF1CEA13557D
:1007300094EA0C0F95EA0C0F00F0A7F8A4EB05045F
:1007400081EA030E52EA03354FEA013100F0888056
:100750004FEA03334FF0805545EA131343EA12631F
:100760004FEA022245EA111545EA10654FEA0026D4
:100770000EF000419D4208BF964244F1FD0404F58D
:10078000407402D25B084FEA3202B61A65EB0305E9
:100790005B084FEA32024FF480104FF4002CB6EBA6
:1007A000020E75EB030E22BFB61A754640EA0C0026
:1007B0005B084FEA3202B6EB020E75EB030E22BF66
:1007C000B61A754640EA5C005B084FEA3202B6EBA7
:1007D000020E75EB030E22BFB61A754640EA9C0066
:1007E0005B084FEA3202B6EB020E75EB030E22BF36
:1007F000B61A754640EADC0055EA060E18D04FEAF4
:10080000051545EA16754FEA06164FEAC30343EA93
:1008100052734FEAC2025FEA1C1CC0D111F4801F60
:100820000BD141EA00014FF000004FF0004CB6E759
:1008300011F4801F04BF01430020B4F1FD0C88BFF8
:10084000BCF5E06F3FF6AFAEB5EB030C04BFB6EB03
:10085000020C5FEA500C50F1000041EB045170BDF6
:100860000EF0004E4EEA113114EB5C04C2BFD4EB23
:100870000C0541EA045170BD41F480114FF0000EA7
:10088000013C90E645EA060E8DE60CEA135594EA23
:100890000C0F08BF95EA0C0F3FF43BAF94EA0C0F26
:1008A0000AD150EA01347FF434AF95EA0C0F7FF49B
:1008B00025AF104619462CE795EA0C0F06D152EAEF
:1008C00003353FF4FDAE1046194622E750EA4106D3
:1008D00018BF52EA43067FF4C5AE50EA41047FF4E4
:1008E0000DAF52EA43057FF4EBAE12E74FF0FF3C49
:1008F00006E000BF4FF0010C02E000BF4FF0010C1A
:100900004DF804CD4FEA410C7FEA6C5C4FEA430C92
:1009100018BF7FEA6C5C1BD001B050EA410C0CBFE1
:1009200052EA430C91EA030F02BF90EA020F002043
:10093000704710F1000F91EA030F58BF994208BFAA
:1009400090422CBFD8176FEAE37040F00100704767
:100950004FEA410C7FEA6C5C02D150EA013C07D1BE
:100960004FEA430C7FEA6C5CD6D152EA033CD3D009
:100970005DF8040B704700BF8446104662468C4603
:100980001946634600E000BF01B5FFF7B7FF002836
:1009900048BF10F1000F01BD4DF808EDFFF7F4FF5F
:1009A0000CBF012000205DF808FB00BF4DF808EDEA
:1009B000FFF7EAFF34BF012000205DF808FB00BF0D
:1009C0004DF808EDFFF7E0FF94BF012000205DF82F
:1009D00008FB00BF4DF808EDFFF7CEFF94BF0120E4
:1009E00000205DF808FB00BF4DF808EDFFF7C4FFDD
:1009F00034BF012000205DF808FB00BF4FEA410230
:100A000012F5001215D211D56FF47873B3EB625260
:100A100012D94FEAC12343F0004343EA505311F087
:100A2000004F23FA02F018BF404270474FF0000019
:100A3000704750EA013005D111F0004008BF6FF057
:100A4000004070474FF00000704700BF4FEA410C74
:100A50007FEA6C5C02D150EA013C0AD14FEA430CB8
:100A60007FEA6C5C02D152EA033C02D14FF00000F5
:100A700070474FF00100704710B402EBD2735B1067
:100A80005C422144401A824203DC90FBF2F302FBF9
:100A90001300002802DB204410BC70470028B8BFB8
:100AA0004042101AF7E700001F4B9B7803F0030346
:100AB000032B04D01C4B9B7813F0010F02D11B4B6E
:100AC00001221A70194B1B78DBB1174B9B7803F08E
:100AD0000303032B15D0144B9B7813F0010F10D098
:100AE000124B00221A7012480368D9B2114A517190
:100AF0009171D171117201330360152B01DD002258
:100B00000260094B9B7803F00303032B0AD0064BCA
:100B10009B7813F0020F05D0064B00225A719A7190
:100B2000DA711A7200207047240B002000000020A8
:100B30007C0300202800002000207047002309E0EB
:100B4000590019444800054A0244002151800321FC
:100B500011710133052BF3DD0020704734000020B4
:100B6000F0B4002407E0E300C5180B44D3E90067A4
:100B7000C5E9006701349442F5DBF0BC7047000022
:100B800070B582B00D4603287ED8DFE800F0022160
:100B9000405F584A537B917B03EB0123D17B03EBEE
:100BA0000143127C03EB0263534A14681C44002D7A
:100BB0006DD0012D03D0022D06D0064668E05B42C1
:100BC00013600646044663E04C4B1E68A61B5FE0BC
:100BD000484A537C917C03EB0123D17C03EB014316
:100BE000127D03EB0263444A54681C44002D6BD011
:100BF000012D03D0022D06D0002649E05B42536050
:100C00000026344644E03D4B5E68A61B40E0394A6E
:100C10009378D17803EB0123117903EB01435279E7
:100C200003EB0263344A94681C44002D4ED0012D1E
:100C300003D0022D06D000262AE05B4293600026F6
:100C4000344625E02D4B9E68A61B21E0294A937966
:100C5000D17903EB0123117A03EB0143527A03EBC1
:100C60000263254AD4681C4495B3012D03D0022D9C
:100C700006D000260CE05B42D3600026344607E035
:100C80001E4BDE68A61B03E00026344600E0064645
:100C90001A4B43F820401A4B1A681A4BA3FB021355
:100CA0005B09642101FB1323092B08D8012D06D011
:100CB000154B1B68022B0DDC0133134A1360022D08
:100CC00015D0204602B070BD0026E1E70026DFE720
:100CD0000026DDE70948836842680168C068009023
:100CE0000A4804F099F8084B00221A60E7E73446F6
:100CF000E7E700BF5800002004030020C0030020E5
:100D0000200B00201F85EB5184030020947E0008F7
:100D100010B50221002003F03DFF40B1084B002434
:100D20001C8103229A7204F025FA204610BD044B60
:100D300040F252321A8101229A724FF0FF30F5E7E9
:100D40003400002010B50121002003F023FF40B142
:100D5000084B00245C8003221A7104F005FA204637
:100D600010BD044B4FF461725A8001221A714FF08A
:100D7000FF30F5E7340000202DE9F043A7B08046AE
:100D80008946694C48252A46214614A807F018F8D8
:100D90002A46611902A807F013F800230093019373
:100DA00000E00133082BFCDDB9F1000F03D1022371
:100DB0000193009C40E0B9F1010F07D0B9F1020F97
:100DC000F7D10123009302230193F2E7012301935A
:100DD000EFE704F0BDF9064635E004F0BFF906463A
:100DE00031E0002DB8BF6D42C5F500653EE004EB73
:100DF000C4031A440CEB820252F8907C00285ADD9E
:100E000004EB44035A00494B13445F80002F4AD13E
:100E1000464B134403221A71454B1A68454BA3FBFA
:100E200002135B09642101FB1323092B03D8002C57
:100E300055D0012C61D00134019BA3426BDD002C05
:100E4000C7D0012CC9D07342C6F30A05C3F30A0305
:100E500058BF5D424046FFF7CDFA31A3D3E90023E6
:100E6000FFF732FBFFF7CAFD002DBADB4FF400623B
:100E70002946FFF701FE002200E00132082ABDDC0E
:100E800080EAE071A1EBE07104EBC40313440DF1BF
:100E9000980C0CEB830353F8483C9942A7DA082AD4
:100EA000EBD10027E9E704EB44035A001F4B13443E
:100EB00001221A71B0E704EB44035A001B4B1344A0
:100EC0005F8027B9194B134403221A71A4E704EB7E
:100ED00044035A00154B134402221A719CE728461A
:100EE000FFF788FA0022144BFFF7EEFAFFF786FDB2
:100EF0000146124803F090FF9DE72846FFF77AFA73
:100F000000220D4BFFF7E0FAFFF778FD01460C4891
:100F100003F082FF8FE727B0BDE8F083AFF30080D6
:100F2000176CC1166CC11640F07D0008340000201B
:100F3000200B00201F85EB510080C63F787F000802
:100F4000887F0008000000002DE970430024012C78
:100F50007ADC454D284604F086FB0646284604F018
:100F600071FB74B1012C72D1404203255EB93F4A36
:100F70006B00581941001144002008714880013469
:100F8000E5E70225F2E7002E35DD1CB1012C2AD061
:100F900001205AE005EB45035A00344B134401226B
:100FA0001A71002EB8BF76429C2303FB06F603FBA2
:100FB00000F0FFF71FFA28A3D3E90023FFF784FA14
:100FC000804689463046FFF715FA42464B46FFF702
:100FD000C5F8FFF713FD42F20F73984220DC00289A
:100FE00020DA00201EE005EB45035A001F4B134496
:100FF00002221A71D5E71CB1012C09D0012024E08E
:1010000005EB45035A00194B134402221A71C8E735
:1010100005EB45035A00154B134401221A71C0E732
:1010200042F20F70012C08D1FFF7E4F90CA3D3E9C9
:101030000023FFF749FAFFF7E1FC05EB45056A00DD
:101040000A4B134458809AE70020BDE870830120C2
:10105000FBE700BFAFF300809A9999999999D93F1E
:10106000CDCCCCCCCCCCEC3F240B002034000020E9
:101070002DE9F04FA1B001293BD0A14B1B78002BEB
:1010800034D1A04B8AA5D5E90045C3E900458AA51E
:10109000D5E90045C3E9024589A5D5E90045C3E97D
:1010A000044589A5D5E90045C3E906450026964FC4
:1010B000C3E9086700240025C3E90A45C3E90C67B2
:1010C000C3E90E4582A5D5E90045C3E9104582A5CF
:1010D000D5E90045C3E9124581A7D7E90067C3E90F
:1010E0001467C3E91645864B01221A700446002591
:1010F0001BE00021022900F34981CA008318002463
:101100000025C3E90045814B1344C3E90045013183
:10111000F0E702212846FFF733FDFFF76BF920AB1C
:1011200003EBC50343E91A010135032DF1DD002767
:101130001CE005EB8703734901EBC30120AB03EB14
:10114000C50353E91A23D1E90001FFF7BDF90246AF
:101150000B4620A901EBC70656E90601FEF7FEFF84
:1011600046E906010135032DE3DD0137022F08DCD6
:101170000020002120AB03EBC70343E90601002553
:10118000F1E7624BD3E90467DDE91E2330463946B7
:10119000FEF7E4FFCDE9180153A3D3E9002330465D
:1011A0003946FFF791F952A3D3E90023FFF78CF9F1
:1011B00051A3D3E9002305F015FA814688464CA3D4
:1011C000D3E90023484628F00041FFF703FC80B133
:1011D0000022002348464146FFF7FCFB00285CD074
:1011E00045A3D3E9002348464146FEF7B5FF8146B3
:1011F0008846464DD5E90067DDE91AAB48464146C9
:1012000005F05CF9CDE9000102460B46504659460F
:10121000FFF75AF902460B4630463946FEF79EFF65
:10122000CDE90401DDE91C674846414605F092F925
:1012300002460B46CDE9022330463946FFF744F912
:1012400002460B46DDE90401FEF788FFCDE91401F3
:10125000D5E90289DDE9022350465946FFF734F902
:1012600002460B4640464946FEF776FF80468946D1
:1012700032463B46DDE90001FFF726F902460B4600
:1012800040464946FEF76AFFCDE91601032214A93C
:101290002846FFF765FC002547E017A3D3E90023A4
:1012A00048464146FEF75AFF81468846A1E700BFFF
:1012B0000A5D4647DB93ACBF7362E6D02773E1BF9C
:1012C0000A5D4647DB93AC3F1A3B335EB019DD3F06
:1012D000CD7E4F03344AD33F4A1B3DA0F550CF3F4C
:1012E000CD7E4F03344AD3BF682FA1BD84F6F23EB2
:1012F000182D4454FB210940182D4454FB2119405A
:1013000083030020180300200000E0BFA803002092
:1013100020AB03EBC50624A3D3E9002356E90C0157
:10132000FFF7D2F846E912010135012DF0DD20A3C7
:10133000D3E90023DDE91801FFF7C6F8CDE9120172
:1013400000221D4B05F04EF906460D4602460B469F
:10135000CDE912230022194B304625F00041FFF75A
:1013600039FB70B10022002330462946FFF732FBDB
:1013700080B10022104B30462946FEF7EDFECDE944
:10138000120103220EA92046FFF7EAFB002021B03C
:10139000BDE8F08F0022084B30462946FEF7DEFEFE
:1013A000CDE91201EDE700BFD221337F7CD9923F16
:1013B000ABAAAAAAAAAA6A3F00807640008066402B
:1013C00008B500F081FA002008BD00000000000010
:1013D0002DE9F0479C4B9B7813F0400F02D19B4BBB
:1013E00001221A70984B9A785A789A789B7803F071
:1013F0000303032B01D0944B9B78934B9B7803F012
:101400000303032B01D0904B9B788F4B9B7803F009
:101410000C030C2B04D08C4B9B7813F0040F02D1DF
:101420008B4B01221A70884B9B7803F00C030C2B1A
:1014300004D0854B9B7813F0080F02D1854B012215
:101440001A70814B5A785A785A785A789B7803F0F8
:101450000C030C2B11D07C4B9B7813F0040F0CD099
:101460007B4B1B784BB17C4B1B78032B24D0013377
:10147000794A1370764B00221A70734B9B7803F0F5
:101480000C030C2B10D0704B9B7813F0080F0BD073
:10149000704B1B7843B1704B1B788BB96E4B03229A
:1014A0001A706C4B00221A706B4B1B78032B0DD8F3
:1014B000DFE803F043290A26674B00221A70D9E7B8
:1014C000013B654A1370ECE7FFF738FB00216348E6
:1014D000FFF7CEFD054680B95B4B5B7813F0080F34
:1014E00005D0594B5B7813F0020F40F03381FFF7C2
:1014F00023FB0546002800F041812846BDE8F0871F
:10150000FFF71CFBE2E7504B9B7813F0400F05D030
:101510004E4B1B7813B1524B01221A704A4B9B78E9
:1015200013F0200F02D04E4B00221A704C4B1B7848
:10153000002BCBD1FFF702FBC8E7434C204604F059
:10154000A3F880EAE075A5EBE075204604F09CF86E
:101550000028B8BF404200FB05F5204604F0A5F87E
:1015600080EAE076A6EBE076204604F09EF80028BC
:10157000B8BF404200FB0650FEF73CFF05F092F872
:101580000022384BFFF712FA002834D0364B1C6883
:10159000354B1C60354B1B78002B00F09880344B8A
:1015A0001B78002B00F09C80314B1B7823B12F4B14
:1015B0001B78002B40F09D80FFF7C6FC05460028F5
:1015C0009BD1214B5B7813F0080F00F09D80294BD5
:1015D000012283F8222040F6B8321A841A4B5B7835
:1015E00013F0020F00F0A480224B01221A7741F27F
:1015F00088325A836AE7144804F046F800283BDB37
:10160000114C204604F051F8FEF7F4FE06460F4652
:10161000204604F039F8FEF7EDFE02460B46304650
:101620003946FFF77BF804F0BBFD05A3D3E900239F
:10163000FEF74AFFFFF7E2F9C0F58774A8E700BF9D
:1016400046DF617EDCA54C40240B0020780300209F
:10165000D00300208203002001000020900300201E
:10166000D103002000804640880300208103002031
:1016700080030020340000206B4C204604F015F855
:10168000FEF7B8FE06460F46204603F0FDFFFEF7C4
:10169000B1FE02460B4630463946FFF73FF804F0EC
:1016A0007FFD5FA3D3E90023FEF70EFF02460B4642
:1016B000104603F10041FFF7A1F9041E04DBC4F555
:1016C0008774C4F5B47463E7C4F58774F9E7FFF76A
:1016D0001FFB00287FF463AF544B01221A705EE7B2
:1016E000FFF730FB00287FF45FAF514B01221A70E7
:1016F0005AE7012104F1B400FFF73EFB022104F197
:10170000AF00FFF739FB57E7474B5B7813F0100F3B
:1017100007D0484B022283F8222040F6B8321A84C0
:101720005CE7444B032283F8222000221A8455E709
:101730003D4B5B7813F0040F06D03E4B02221A7724
:1017400041F288325A83C1E63A4B03221A770022CB
:101750005A83BBE60121FFF713FA01210846FFF780
:101760000FFA01210220FFF70BFA01210320FFF7F6
:1017700007FA01213048FFF77BFCB8E6FFF794F940
:10178000054600287FF4B9AE2C4B1A682C4BA3FBFE
:1017900002135B09642101FB1323092B3FF6ADAE55
:1017A000284B1A78284B53F82210284803F034FBB2
:1017B0002149D1E90067D1E902890022244BD1E90E
:1017C0000401FEF781FEFFF719F9824640464946BB
:1017D000FFF714F9804630463946FFF70FF95346B4
:1017E000424601461B4803F017FB21461A4803F006
:1017F00013FB0F4B1B784BB1184803F00DFB0B4B41
:101800001B783BB9164803F007FB76E6154803F052
:1018100003FBF4E7144803F0FFFA6EE6AFF3008031
:1018200046DF617EDCA54C40240B002081030020B4
:10183000800300203400002090030020200B0020B3
:101840001F85EB5101000020D87F0008C47E0008EE
:1018500000005940D47E0008007F0008187F00086F
:10186000607F0008307F0008487F0008FEE7000026
:1018700008B54FF4A2720249024806F0A1FA08BD69
:10188000E87F0008D4030020002209E0930003F160
:10189000006303F5FE331968094B43F82210013247
:1018A0000C2AF3DD002307E0064A52F823200449FE
:1018B00051F8231011600133082BF5DD704700BF8C
:1018C000180500200400002008B5FFF7D1FFFFF73E
:1018D000DBFF08BD00B583B01C4B9A6942F00102E2
:1018E0009A619B6903F001030193019B032000F0BF
:1018F000F1FA002211466FF00B0000F009FB002204
:1019000011466FF00A0000F003FB002211466FF051
:10191000090000F0FDFA002211466FF0040000F00B
:10192000F7FA002211466FF0030000F0F1FA0022EE
:1019300011466FF0010000F0EBFA002211464FF063
:10194000FF3000F0E5FA03B05DF804FB0010024040
:10195000F0B589B003685E4A934205D005465D4AFA
:10196000934255D009B0F0BD5B4B9A6942F0080232
:101970009A619B6903F008030093009B544A136823
:10198000C3F30E0313604FF44073049311230593C4
:1019900002230793514C04A9204600F073FDE3682D
:1019A00043F44073E3604D4B9B6803F44073B3F51D
:1019B000407FF8D1494AD36823F44073D360474B42
:1019C0009B6813F4407FFAD14FF4407304931223C1
:1019D00005930323079304A9404800F053FD404AB0
:1019E000536843F0020353603B4BDA6942F4001240
:1019F000DA61DB6903F400130193019B344B1A682D
:101A000042F400421A601A68C2F30E021A60A9E793
:101A10004FF440630493122305930323079304A90F
:101A20002E4800F02FFD2C4BDA6942F48002DA6177
:101A3000DA6902F480020292029A5A6942F00102C3
:101A40005A615B6903F001030393039B254E264B08
:101A5000336000247460B4608027F760346174617F
:101A6000B461F461304600F0F9FA2E6375621F4EDE
:101A70001F4B336010237360B460F760346174618E
:101A8000B461F461304600F0E9FAEE627562012259
:101A900021460E2000F03CFA0E2000F07FFA0122D1
:101AA00021460F2000F034FA0F2000F077FA22468A
:101AB0002146212000F02CFA212000F06FFA224666
:101AC0002146222000F024FA222000F067FA49E79C
:101AD000005400400058004000100240000C01403B
:101AE00000000140600500205800024098050020D9
:101AF0004400024000B587B003681B4A934205D0FA
:101B00001A4A93421BD007B05DF804FB184BDA6900
:101B100042F00202DA61DB6903F002030093009BEA
:101B2000C023029300230393049302A9114800F0F9
:101B3000A9FC114A536843F440635360E3E70C4B3C
:101B4000DA6942F00402DA61DB6903F0040301930D
:101B5000019BC023029300230393049302A9074827
:101B600000F090FCCFE700BF0004004000080040F8
:101B7000001002400010014000000140000C014034
:101B8000F0B58DB00368724A934209D00446714A99
:101B900093422FD0704A934200F086800DB0F0BD82
:101BA0006E4B9A6942F480429A619A6902F48042CB
:101BB0000192019A9A6942F004029A619B6903F0CA
:101BC00004030293029B4FF40073089302230993CA
:101BD00003230B93624C08A9204600F053FC4FF4FA
:101BE00080630893002309930A9308A9204600F014
:101BF00049FCD3E7594EF36943F40033F361F369C9
:101C000003F400330393039BB36943F00403B3610C
:101C1000B36903F004030493049B04230893022391
:101C2000099303230B934E4F08A9384600F02AFC72
:101C300008230893002509950A9508A9384600F05D
:101C400021FC736943F001037361736903F00103BD
:101C50000593059B434E444B336010277760B56076
:101C60008023F36035617561B561F561304600F040
:101C7000F5F92663746201222946112000F048F923
:101C8000112000F08BF92A462946384600F040F929
:101C9000384600F083F901222946262000F038F961
:101CA000262000F07BF979E72C4BDA6942F4802298
:101CB000DA61DA6902F480220692069A9A6942F0A1
:101CC00010029A619B6903F010030793079B4FF47E
:101CD000806308930223099303230B93234D08A9E0
:101CE000284600F0CFFB4FF40063089300260996C6
:101CF0000A9608A9284600F0C5FB1D4A536823F040
:101D0000300343F0100353601A4D1B4B2B606E6081
:101D1000AE608023EB602E616E61AE614FF40053C4
:101D2000EB61284600F09AF965636C6232463146F1
:101D30000D2000F0EDF80D2000F030F901223146C1
:101D4000272000F0E5F8272000F028F926E700BF5B
:101D500000380140004400400048004000100240AC
:101D600000080140080600208000024000100140E9
:101D700000000140D0050020300002407047FEE71F
:101D8000FEE7FEE7FEE770477047704708B500F0D2
:101D900085F800F04EF9024A13680133136008BD5C
:101DA000200B002008B5024B186B00F033FA08BD79
:101DB000F401002008B5024B586B00F02BFA08BD67
:101DC0003402002008B5024802F0D9FD08BD00BF6A
:101DD0003402002008B5024802F0D1FD08BD00BF62
:101DE000F401002008B5024BD86A00F013FA08BDD0
:101DF0002C01002008B5024B186B00F00BFA08BD4F
:101E00002C0100200F4B1A6842F001021A60596839
:101E10000D4A0A405A601A6822F0847222F4803215
:101E20001A601A6822F480221A605A6822F4FE02AC
:101E30005A604FF41F029A60044B4FF000629A60A0
:101E4000704700BF001002400000FFF800ED00E006
:101E500010B5044601F026FF064BA3FB00308009B5
:101E600000F0B2F8002221464FF0FF3000F050F8A9
:101E7000002010BDD34D621008B5074A136843F027
:101E800010031360032000F025F80020FFF7E0FFA7
:101E9000FFF720FD002008BD00200240024A136821
:101EA00001331360704700BF40060020014B1868E3
:101EB000704700BF4006002010B582B00190FFF7C8
:101EC000F5FF0446FFF7F2FF001B019B9842F9D390
:101ED00002B010BD10B50446C31E042B0FD80A4A29
:101EE000D36823F4E0631B041B0C240204F4E064B5
:101EF000234343F0BF6343F40033D36010BDBA21E2
:101F00000248FFF7B3FCEAE700ED00E04481000877
:101F100070B505460C4616460F2A25D80F2C28D832
:101F20001B4BDB68C3F30223C3F10702042A28BF5B
:101F30000422191D062921D9033B4FF0FF3101FA74
:101F400002F224EA02049C4001FA03F326EA0306A3
:101F50003443002D14DB2401E4B205F1604505F59E
:101F6000614585F8004370BDD2210A48FFF77EFC29
:101F7000D4E7D3210748FFF779FCD1E70023DCE75A
:101F800005F00F052401E4B2034B5C55EBE700BFFD
:101F900000ED00E04481000814ED00E010B5041EDF
:101FA00008DB04F01F02640901239340044A42F84D
:101FB000243010BDE6210348FFF758FCF1E700BFCD
:101FC00000E100E0448100080138B0F1807F0AD2CE
:101FD000064B5860064AF02182F8231000209860D2
:101FE00007221A6070470120704700BF10E000E030
:101FF00000ED00E010B50446042800D038B9042CE8
:102000000BD0094A136823F00403136010BD4FF48A
:10201000DF710648FFF72AFCF1E7034A136843F033
:1020200004031360F2E700BF10E000E04481000801
:10203000704708B5FFF7FCFF08BD10B40468636083
:102040004368102B05D0036899600368DA6010BC00
:10205000704703689A600368D960F8E7002800F0C9
:10206000928010B504460368484A934215D0143252
:10207000934212D0143293420FD0143293420CD0B8
:102080001432934209D01432934206D01432934250
:1020900003D0B5213E48FFF7E9FB636823B1102B5D
:1020A00002D0B3F5804F4BD1A368402B01D0002B59
:1020B0004BD1E368802B01D0002B4BD123692BB18E
:1020C000B3F5807F02D0B3F5007F48D163692BB1AF
:1020D000B3F5806F02D0B3F5006F45D1A3690BB1A2
:1020E000202B46D1E36943B1B3F5805F05D0B3F54A
:1020F000005F02D0B3F5405F40D194F821300BB9B6
:1021000084F82030022384F8213021680A6822F400
:102110007F5222F030026368A0680343E068034303
:102120002069034360690343A0690343E0690343F3
:1021300013430B6000206063012384F8213010BD3D
:10214000B6211348FFF792FBAEE7B7211048FFF71F
:102150008DFBAEE7B8210E48FFF788FBAEE7B9214B
:102160000B48FFF783FBB1E7BA210948FFF77EFB75
:10217000B4E7BB210648FFF779FBB3E7BC2104486D
:10218000FFF774FBB9E70120704700BF0800024069
:102190007C810008F8B590F82040012C35D01D4610
:1021A00016460F460446012380F82030022380F8AB
:1021B00021306A1E4FF6FE739A4220D820680368C9
:1021C00023F0010303602B46324639462046FFF7D1
:1021D00034FF2268136843F0020313602268136817
:1021E00043F0040313602268136843F0080313608C
:1021F0002268136843F0010313600020F8BD40F229
:1022000061110348FFF732FBD8E70220F6E700BF71
:102210007C81000810B50446984B1A6803689849F9
:102220008B4214D014318B4232D014318B4231D0D6
:1022300014318B4231D014318B4231D014318B4266
:1022400002D04FF0006103E04FF4000100E00821EC
:102250000A423CD01A6812F0080F38D01A6822F0EF
:1022600008021A602368864A93421FD014329342B0
:1022700045D01432934244D01432934244D01432A5
:10228000934244D0143293420DD04FF000620EE0DE
:102290008021DDE74FF40061DAE74FF40041D7E732
:1022A0004FF40021D4E74FF4000200E00822734B02
:1022B0005A60636B43F001036363042384F82130A5
:1022C000002384F82030236B0BB1204698476B4BDA
:1022D0001A6823686A498B421FD014318B4241D05F
:1022E00014318B4240D014318B4240D014318B4298
:1022F00040D014318B420DD04FF080610EE080222F
:10230000D5E74FF40062D2E74FF40042CFE74FF435
:102310000022CCE74FF4800100E004210A4239D0CA
:102320001A6812F0040F35D01A6812F0200F03D18A
:102330001A6822F004021A602368514A93421FD09F
:10234000143293423ED0143293423DD01432934221
:102350003DD0143293423DD0143293420DD04FF011
:1023600080620EE04021D9E74FF48061D6E74FF458
:102370008041D3E74FF48021D0E74FF4800200E0A2
:1023800004223E4B5A60112384F82130E36A0BB1DA
:1023900020469847394B1A68236839498B421FD029
:1023A00014318B4241D014318B4240D014318B42D6
:1023B00040D014318B4240D014318B420DD04FF0BD
:1023C00000710EE04022DCE74FF48062D9E74FF461
:1023D0008042D6E74FF48022D3E74FF4001100E0AB
:1023E00002210A423ED01A6812F0020F3AD01A684F
:1023F00012F0200F03D11A6822F002021A6023683B
:102400001F4A93421FD0143293422CD0143293426D
:102410002BD0143293422BD0143293422BD014324F
:1024200093420DD04FF000720EE02021D9E74FF417
:102430000071D6E74FF40051D3E74FF40031D0E7F5
:102440004FF4001200E002220C4B5A60636B63638E
:10245000012384F82130002384F82030A36A0BB1D3
:102460002046984710BD2022EEE74FF40072EBE7BC
:102470004FF40052E8E74FF40032E5E70000024075
:10248000080002402DE9F04383B080460F46B54B6B
:10249000984213D003F5806398420FD003F5806310
:1024A00098420BD003F58063984207D003F5806310
:1024B000984203D0CF21AC48FFF7D8F93B882BB323
:1024C0007B68012B1ED9112B1CD0022B1AD0122B8A
:1024D00018D0A64A934215D002F58012934211D02B
:1024E00002F5801293420DD0A2F5F812934209D062
:1024F00002F58012934205D002F58012934201D07A
:10250000032B08D14FF000094E46DDE0D02196485C
:10251000FFF7ACF9D4E7D1219348FFF7A7F9F1E72A
:10252000002B5ED0012B05D1FB68013B022B65D847
:10253000D7F80C90FF2C00F296804046FF2C00F25A
:102540009580B20003680F21914023EA010309FA44
:1025500002F2134303607B6813F0805F00F0B380E6
:10256000834B9A6942F001029A619B6903F001036F
:102570000193019BB208911C7E4B53F8210006F099
:10258000030399000F238B4020EA0300754B984505
:1025900072D003F58063984500F0CD8003F5806329
:1025A000984500F0CA8003F58063984562D0042303
:1025B00063E0714A934214D00BD9704A934210D011
:1025C00002F5803293420CD0A2F580129342B1D131
:1025D00007E0A2F58012934203D002F580329342C5
:1025E000A8D1BB68022B2DD8BB68002B38D0012B9B
:1025F0002ED0C8F814504FF008099BE7E7215A483D
:10260000FFF734F994E7EE215748FFF72FF98EE0F2
:10261000FB68013B022B03D8FB6803F1080989E73B
:10262000F5215148FFF722F9F6E7FB68013B022B41
:1026300003D8FB6803F10C097CE7FC214A48FFF74B
:1026400015F9F6E740F209114748FFF70FF9CBE714
:10265000C8F810504FF008096CE74FF0000969E71F
:102660004FF0040966E708F1040067E7A6F10802E5
:10267000920067E7032300E000238B40034302320C
:102680003C4941F822307B6813F4803F57D03C4AE4
:102690001368234313607B6813F4003F55D0384A16
:1026A0005368234353607B6813F4801F53D0344A2C
:1026B0009368234393607B6813F4001F62D0304A11
:1026C000D3681C43D46001360F2E61D80125B54074
:1026D0003C682C40A542F6D1224B984513D003F517
:1026E000806398450FD003F5806398450BD003F5C0
:1026F0008063984507D003F58063984503D0DF21B8
:102700001948FFF7B3F87B68122B8ED03FF651AF14
:10271000022B3FF47DAF7FF603AF032B9DD0112B2F
:102720007FF408AFFB68013B022B3FF66CAFFB6800
:1027300003F10409FEE601239FE702239DE7104A07
:10274000136823EA04031360A5E70D4A536823EADC
:1027500004035360A7E70A4A936823EA04039360DB
:10276000A9E700BF00080140B48100080000111073
:102770000010024000000140000021100000311054
:1027800000040140044AD36823EA0404D4609AE7B1
:1027900003B0BDE8F08300BF0004014038B5054632
:1027A0000C4621B1AB681C4207D1002038BD4FF464
:1027B000E2710348FFF75AF8F4E70120F6E700BF9B
:1027C000B481000870B5064615460C4629B1012DA6
:1027D00009D875B92404346170BD4FF4F27106480C
:1027E000FFF744F8F3E740F2E5110348FFF73EF83E
:1027F000EFE73461F0E700BFB48100084368124A94
:10280000934209D85800B1FBF0F0C0F30B03032B3F
:1028100000D970470420704782685AB903EB43001F
:10282000B1FBF0F040F40040C0F30B03002BF0D1FB
:102830000120EEE703EB830000EB8000B1FBF0F03A
:1028400040F44040F0E700BFA086010003685A69E9
:1028500012F4806F0DD05A6922F480625A61042309
:102860008363202380F83530002380F83430012042
:102870007047002070472DE9F04106460C4690460F
:102880001D46FFF713FB0746B8F1000F1AD043E0CF
:1028900025B1FFF70BFBC01BA84213D9202386F8F4
:1028A0003530002386F83430032019E033685B6943
:1028B00024EA03039BB2003318BF01237BB1B5F1B7
:1028C000FF3FE5D1C4F30743012BEFD033689B6989
:1028D00024EA03039BB2003318BF0123EEE7002074
:1028E000BDE8F08125B1FFF7E1FAC01BA84213D97A
:1028F000202386F83530002386F834300320EFE7B4
:1029000033685B6924EA03039BB2B3FA83F35B0980
:102910007BB1B5F1FF3FE5D1C4F30743012BEFD005
:1029200033689B6924EA03039BB2B3FA83F35B0920
:10293000EEE70020D4E7F8B504460D461646FFF74B
:10294000B5FA074631E01A6842F400721A6022684C
:10295000536923F4806353610423A363202384F821
:102960003530002384F8343001202CE026B1FFF705
:102970009DFAC01BB04218D9202384F835300023BB
:1029800084F8343003201EE023685B6925EA0303E2
:102990009BB2003318BF0123A3B123685A6912F414
:1029A000806FD0D1B6F1FF3FE0D1C5F30743012BD3
:1029B000EAD023689B6925EA03039BB2003318BF62
:1029C0000123E9E70020F8BD70B504460D46164620
:1029D0000268136843F480731360334600224FF09B
:1029E0000111FFF748FF48BB2369B3F5804F0FD1B2
:1029F000236805F0FE051D61324614492046FFF7A5
:102A00009AFF0346D8B1A36B042B1CD1012316E017
:102A1000EB11226803F0060343F0F0031361324622
:102A20000B492046FFF787FF20B1A36B042B08D189
:102A3000012304E02368EDB21D61DDE7032318469E
:102A400070BD0323FBE70323F9E700BF0200010089
:102A500008000100F0B583B004460D461646026832
:102A6000136843F4806313600268136843F480734F
:102A70001360334600224FF00111FFF7FCFE0028DF
:102A80004CD12369B3F5804F11D1236845F001057E
:102A9000EDB21D61324627492046FFF74CFF034641
:102AA00000283CD0A36B042B42D1012337E0EF1167
:102AB00007F00607236847F0F0021A6132461E4904
:102AC0002046FFF738FF20B1A36B042B2AD1012346
:102AD00025E02368EDB21D61324616492046FFF716
:102AE0002AFF20B1A36B042B1ED1012317E023681A
:102AF0005A6901929A690192019A1A6842F48072A5
:102B00001A60334600224FF001112046FFF7B3FE52
:102B100060B9236847F0F1071F61BBE7032318463C
:102B200003B0F0BD0323FAE70323F8E70323F6E736
:102B30000323F4E7020001000800010070B5044619
:102B40000D46FFF7B3F9064623685B6913F0800F63
:102B500018D12046FFF77AFEB0B9B5F1FF3FF3D0A8
:102B600025B1FFF7A3F9801BA842EDD9A36B43F071
:102B70002003A363202384F83530002384F8343005
:102B8000032000E0002070BD0120FCE770B5044682
:102B90000D46FFF78BF9064623685B6913F0040FB7
:102BA00018D12046FFF752FEB0B9B5F1FF3FF3D080
:102BB00025B1FFF77BF9801BA842EDD9A36B43F049
:102BC0002003A363202384F83530002384F83430B5
:102BD000032000E0002070BD0120FCE7002800F089
:102BE000B38038B504460368584A934208D002F5CA
:102BF0008062934204D04FF4A5715548FEF736FE2B
:102C00006368013B534A93425ED8A36813B1B3F59E
:102C1000804F5FD1E36823F47F7323F00303002B1D
:102C20005ED12369B3F5804F02D0B3F5404F5DD13B
:102C30006369012B60D8A36933F0FE0362D1E369B5
:102C40000BB1402B64D1236A0BB1802B66D194F871
:102C50003530002B68D0242384F83530226813687F
:102C600023F00103136001F023F801463A4BA3FB64
:102C700000239B0C226853606068384A904259D800
:102C800001332268136225682046FFF7B7FDE8612B
:102C9000E369216A22680B4313602369E1682268B3
:102CA0000B4393606369A16922680B43D360226878
:102CB000136843F0010313600020A063202384F80D
:102CC000353084F8360038BD40F24B112048FEF70D
:102CD000CDFD9AE74FF4A6711D48FEF7C7FD99E7B1
:102CE00040F24D111A48FEF7C1FD9AE74FF4A77163
:102CF0001748FEF7BBFD9BE740F24F111448FEF763
:102D0000B5FD98E74FF4A8711148FEF7AFFD96E7BF
:102D100040F251110E48FEF7A9FD94E74FF4A97156
:102D20000B48FEF7A3FD92E784F834302046FEF707
:102D30000FFE90E74FF4967202FB03F3084AA2FBE2
:102D400003239B0901339CE7012070470054004096
:102D5000EC8100087F1A060083DE1B43A086010079
:102D6000D34D6210F0B583B01E4690F83530DBB21B
:102D7000202B7FD104460F461546002A7ED00EB97F
:102D8000012378E042F2107301224149FFF773FDFD
:102D9000002875D194F83430012B73D0012384F8C6
:102DA00034302268136823F400631360212384F80D
:102DB0003530102384F836300023A363089A39464F
:102DC0002046FFF701FE60B1A36B042B04D1002362
:102DD00084F8343001234EE0002384F83430032398
:102DE00049E023685A6901929B690193019B0BE0BA
:102DF000A36B042B48D12268136843F4007313605B
:102E0000012338E01E461546C6B108992046FFF753
:102E100095FE0028ECD16A1C236829781961731E7D
:102E20009BB22168486910F0040FEBD0002BE9D069
:102E3000AA1C6B780B61023EB3B2E3E70899204607
:102E4000FFF7A4FE034648B1A36B042B1ED12268F2
:102E5000136843F40073136001230CE021680A68CF
:102E600042F400720A60202284F83520002284F89F
:102E7000342000E00223184603B0F0BD0123FAE736
:102E80000223F8E70223F6E70323F4E70323F2E73C
:102E900002001000F0B583B090F83540E4B2202C69
:102EA00057D1002A59D00BB9012353E01E461546CD
:102EB0000F46044642F2107301222B49FFF7DBFC58
:102EC00000284CD194F83430012B4AD0012384F8E7
:102ED00034302268136823F400631360212384F8DC
:102EE0003530102384F836300023A36365622685CD
:102EF0006685E36A1D4A9A62E36A1D4A1A6322687C
:102F0000334610322946E06AFFF744F92322394656
:102F10002046FFF759FD034660B1A36B042B04D193
:102F2000002384F83430012314E0002384F8343083
:102F300003230FE021684A6842F400624A60226875
:102F40005169019192690192019A002284F834201A
:102F500000E00223184603B0F0BD0123FAE7022384
:102F6000F8E70223F6E700BF0200100099300008DE
:102F70006F300008F0B583B090F83540E4B2202CF3
:102F800064D1002A66D00BB9012260E01E461546C6
:102F90000F46044642F2107301223149FFF76BFCE1
:102FA000002859D194F83430012B57D0012384F8EC
:102FB00034302268136823F400631360222384F8FA
:102FC0003530102384F836300023A36365622685EC
:102FD0006685236B234A9A62236B234A1A6321680E
:102FE00033462A461031206BFFF7D4F823223946A6
:102FF0002046FFF72FFD024660B1A36B042B04D1DE
:10300000002384F83430012221E0002384F8343096
:1030100003221CE0012E13D021684B6843F4805337
:103020004B6021684B6843F400634B602368596927
:1030300001919B690193019B002384F8343006E0E1
:1030400021680B6823F480630B60EAE702221046D4
:1030500003B0F0BD0122FAE70222F8E70222F6E708
:1030600002001000ED3000086F300008704708B50E
:10307000406A0268136823F4806313600023438569
:10308000202280F8352080F83630836B43F010031F
:103090008363FFF7EBFF08BD10B5446A23230022CA
:1030A00011492046FFF7E7FB18B1A36B43F020035B
:1030B000A3632268136843F40073136022685368A3
:1030C00023F40063536000236385202284F83520B5
:1030D00084F83630A36B1BB9204603F02FF810BDDF
:1030E0002046FFF7C3FFFAE70400010008B5406A75
:1030F0000268136823F4806313600268136843F462
:10310000007313600268536823F4805353600268AD
:10311000536823F40063536000234385202280F822
:10312000352080F83630836B13B903F00DF808BDF5
:10313000FFF79CFFFBE77047002844D010B504461A
:103140000268234B9A4203D0A6212248FEF78EFB49
:103150006368062B28D8A368B3F5805F29D223685B
:10316000DA6812F0010F03D0DB6813F0020F2CD1E4
:10317000637B1BB302236373236845F255521A60C5
:103180002268536823F0070361680B435360226889
:10319000936823F47F6323F00F03A1680B439360CC
:1031A00001236373002010BDA7210A48FEF75EFBD0
:1031B000D1E7A8210748FEF759FBD0E72373204643
:1031C000FFF7B9FFD6E7012070470120EBE700BF0A
:1031D0000030004024820008037B012B0FD0022323
:1031E000437303684CF6CC421A6003684AF6AA227D
:1031F0001A600123437300230373184670470220AB
:10320000704738B5037B012B1FD00446012303739D
:1032100002234373FEF74AFE05462368DA6812F07C
:10322000020F0AD0FEF742FE401BB0F57A7FF4D9B8
:10323000032060730023237306E04AF6AA221A6073
:10324000012363730020207338BD0220FCE70000D7
:1032500030B583B0044688B3236813B113F00F0F61
:1032600032D0236813F0010F56D063682BB1B3F549
:10327000803F02D0B3F5A02F2CD1C64B5B6803F082
:103280000C03042B31D0C34B5B6803F00C03082BF9
:1032900026D06368B3F5803F00F08380002B40F0B8
:1032A000A58003F1804303F504331A6822F48032C9
:1032B0001A601A6822F480221A6077E04FF487714E
:1032C000B548FEF7D3FAC7E740F20F11B248FEF750
:1032D000CDFAC6E740F21511AF48FEF7C7FACCE7C2
:1032E000AC4B5B6813F4803FD3D04FF4003393FAB8
:1032F000A3F3A84B1A684FF4003393FAA3F3B3FA7D
:1033000083F303F01F0322FA03F313F0010F03D03A
:103310006368002B00F02083236813F0020F00F095
:10332000D3802369012B00F2998063691F2B00F27F
:103330009B80984B5B6813F00C0F00F0A180954BBD
:103340005B6803F00C03082B00F094802369002BCA
:1033500000F0F880012292FAA2F3B3FA83F39B0003
:1033600003F1844303F584031A60FEF79FFD0546CD
:10337000022393FAA3F3874B1A68022393FAA3F369
:10338000B3FA83F303F01F0322FA03F313F0010FE0
:1033900040F0C980FEF78AFD401B0228E8D90320CF
:1033A000E1E27C4A136843F4803313606368002BC6
:1033B00036D0FEF77BFD05464FF4003393FAA3F3B6
:1033C000744B1A684FF4003393FAA3F3B3FA83F300
:1033D00003F01F0322FA03F313F0010F9CD1FEF751
:1033E00065FD401B6428E7D90320BCE2B3F5A02F9C
:1033F00009D0684B1A6822F480321A601A6822F4E5
:1034000080221A60D2E703F18043A3F53C331A68A7
:1034100042F480221A601A6842F480321A60C5E7CA
:10342000FEF744FD05464FF4003393FAA3F3594BDE
:103430001A684FF4003393FAA3F3B3FA83F303F05B
:103440001F0322FA03F313F0010F3FF465AFFEF7F9
:103450002DFD401B6428E6D9032084E240F2491187
:103460004D48FEF703FA60E74FF4A5714A48FEF7AE
:10347000FDF95EE7474B5B6813F4803F7FF466AF6E
:10348000022393FAA3F3434B1A68022393FAA3F39C
:10349000B3FA83F303F01F0322FA03F313F0010FCF
:1034A00004D02369012B01D001205CE23948036874
:1034B00023F0F8036169F82292FAA2F2B2FA82F2DA
:1034C00001FA02F213430360236813F0080F70D06F
:1034D000A369012B64D8A369002B00F0928001221C
:1034E00092FAA2F3B3FA83F32C4941F82320FEF7B2
:1034F000DDFC0546022393FAA3F293FAA3F2254AD0
:10350000526A93FAA3F3B3FA83F303F01F0322FA88
:1035100003F313F0010F49D1FEF7C8FC401B02284A
:10352000E8D903201FE21B48036823F0F803616910
:10353000F82292FAA2F2B2FA82F201FA02F21343EC
:103540000360C1E7012393FAA3F3B3FA83F39B006B
:1035500003F1844303F5840300221A60FEF7A6FCFE
:103560000546022393FAA3F30A4B1A68022393FA3F
:10357000A3F3B3FA83F303F01F0322FA03F313F068
:10358000010FA1D0FEF792FC401B0228E9D90320CD
:10359000E9E100BF001002405C8200088004424262
:1035A0004FF4C571AC48FEF761F994E70120FEF7CE
:1035B00083FC236813F0040F00F0CF80E368012B35
:1035C00001D9052B42D1A54BDA6942F08052DA616C
:1035D000DB6903F080530193019BA14A136843F414
:1035E00080731360FEF762FC05469D4B1B6813F465
:1035F000807F31D1FEF75AFC401B6428F5D90320A7
:10360000B1E1012393FAA3F3B3FA83F3954A0021BE
:1036100042F82310FEF74AFC0546022393FAA3F270
:1036200093FAA3F28D4A526A93FAA3F3B3FA83F39F
:1036300003F01F0322FA03F313F0010FB9D0FEF7D2
:1036400035FC401B0228E8D903208CE140F2B71179
:103650008148FEF70BF9B6E7E368012B0DD0C3B93B
:1036600003F1804303F504331A6A22F001021A625F
:103670001A6A22F004021A6204E0784A136A43F0DC
:1036800001031362E368002B3ED0FEF70FFC0546F2
:103690002BE0052B09D0714B1A6A22F001021A6245
:1036A0001A6A22F004021A62ECE76C4B1A6A42F0C2
:1036B00004021A621A6A42F001021A62E2E7674BD8
:1036C0001A6A022393FAA3F3B3FA83F303F01F03F6
:1036D00022FA03F313F0010F3FD1FEF7E7FB401B83
:1036E00041F28833984200F23981022393FAA3F21F
:1036F00093FAA3F3B3FA83F35B0943F00203022BBB
:10370000DDD0564B5A6ADCE7FEF7D0FB054615E0E4
:10371000524B1A6A022393FAA3F3B3FA83F303F02A
:103720001F0322FA03F313F0010F16D0FEF7BEFBBE
:10373000401B41F28833984200F21281022393FA2F
:10374000A3F293FAA3F3B3FA83F35B0943F0020302
:10375000022BDDD0414B5A6ADCE7E369022B68D8C3
:10376000E369002B00F0FE803C4A526802F00C0234
:10377000082A00F0FA80022B40F0C280236A13B1BD
:10378000B3F5803F5BD1636A4BB3B3F5802F26D08E
:10379000B3F5002F23D0B3F5402F20D0B3F5801F11
:1037A0001DD0B3F5A01F1AD0B3F5C01F17D0B3F5C5
:1037B000E01F14D0B3F5001F11D0B3F5101F0ED0C9
:1037C000B3F5201F0BD0B3F5301F08D0B3F5401F61
:1037D00005D0B3F5501F02D0B3F5601F35D14FF0BF
:1037E000807393FAA3F3B3FA83F39B0003F184434A
:1037F00003F5840300221A60FEF758FB05464FF0DC
:10380000007393FAA3F3154B1A684FF0007393FA01
:10381000A3F3B3FA83F303F01F0322FA03F313F0C5
:10382000010F21D0FEF742FB401B0228E7D90320FD
:1038300099E040F247210848FEF718F890E74FF466
:1038400014710548FEF712F89DE740F25121024835
:10385000FEF70CF8C3E700BF5C82000800100240CE
:103860000070004080044242236AB3F5803F32D0AA
:103870003F494B6823F47413226A606A024313437E
:103880004B604FF0807393FAA3F3B3FA83F39B007A
:1038900003F1844303F5840301221A60FEF706FB5B
:1038A00004464FF0007393FAA3F3314B1A684FF0BC
:1038B000007393FAA3F3B3FA83F303F01F0322FA1E
:1038C00003F313F0010F19D1FEF7F0FA001B0228E1
:1038D000E7D9032047E0A36813B1B3F5003F07D150
:1038E000234A536823F40033A1680B435360BFE7B6
:1038F00040F267211F48FDF7B9FFF1E7002032E0F1
:103900004FF0807393FAA3F3B3FA83F39B0003F1B0
:10391000844303F5840300221A60FEF7C7FA0446C5
:103920004FF0007393FAA3F3114B1A684FF0007332
:1039300093FAA3F3B3FA83F303F01F0322FA03F31A
:1039400013F0010F06D0FEF7B1FA001B0228E7D9E9
:10395000032008E0002006E0012004E0032002E04C
:10396000032000E0002003B030BD0120FBE700BFD2
:10397000001002405C82000810B487B01D4C94E82F
:103980000F000DF1180C0CE90F00238AADF804307C
:10399000194B596801F00C03082B28D101F470135E
:1039A0004FF4701292FAA2F2B2FA82F2D340634458
:1039B00013F8100C11F4803F05D1104B03FB00F0FD
:1039C00007B010BC70470C4B5B6803F400334FF436
:1039D000003292FAA2F2B2FA82F2D340634413F8B0
:1039E000142C074BB3FBF2F300FB03F0E8E70448A9
:1039F000E6E700BF807E00080010024000093D009D
:103A000000127A0070B50D460446C0B1236813F069
:103A10000F0F1AD0022D1ED89D4B1B6803F0070311
:103A2000AB421ED29A4A136823F007032B4313605C
:103A3000136803F00703AB4213D0012070BD4FF4AD
:103A40002F719448FDF712FFE0E740F2BD21914845
:103A5000FDF70CFFDEE740F2BE218E48FDF706FFC2
:103A6000DAE7236813F0020F18D0A3687BB1802B2C
:103A70000DD0902B0BD0A02B09D0B02B07D0C02B92
:103A800005D0D02B03D0E02B01D0F02B41D1824ABE
:103A9000536823F0F003A1680B435360236813F0CD
:103AA000010F00F08A806368022B38D86368012B0D
:103AB0003BD0022B4ED0022292FAA2F2764A116833
:103AC000022292FAA2F2B2FA82F202F01F0221FA64
:103AD00002F212F0010F00F0D8806F494A6822F01C
:103AE000030213434B60FEF7E1F906466368012BBE
:103AF00045D0022B52D0684B5B6813F00C0F5CD0A2
:103B0000FEF7D4F9801B41F288339842F3D90320A1
:103B100094E740F2D7215F48FDF7A8FEB7E740F2EF
:103B2000DE215C48FDF7A2FEC0E74FF4003292FAB6
:103B3000A2F2594A11684FF4003292FAA2F2B2FA94
:103B400082F202F01F0221FA02F212F0010FC4D138
:103B5000012073E74FF0007292FAA2F24E4A116808
:103B60004FF0007292FAA2F2B2FA82F202F01F0251
:103B700021FA02F212F0010FAFD101205EE7464BAD
:103B80005B6803F00C03042B17D0FEF78FF9801B42
:103B900041F288339842F2D903204FE73E4B5B68ED
:103BA00003F00C03082B08D0FEF780F9801B41F2CC
:103BB00088339842F2D9032040E7354B1B6803F065
:103BC0000703AB420CD9324A136823F007032B4397
:103BD0001360136803F00703AB4201D001202DE707
:103BE000236813F0040F14D0E3685BB1B3F5806F62
:103BF00008D0B3F5A06F05D0B3F5C06F02D0B3F510
:103C0000E06F36D1244A536823F4E063E1680B4344
:103C10005360236813F0080F15D023695BB1B3F527
:103C2000806F08D0B3F5A06F05D0B3F5C06F02D098
:103C3000B3F5E06F23D1184A536823F46053216928
:103C400043EAC1035360FFF797FE134B5B6803F031
:103C5000F003F02292FAA2F2B2FA82F2D3400F4AB3
:103C6000D35CD8400E4B18600020FEF7F1F800201E
:103C7000E4E640F232310748FDF7F8FDC2E740F2D2
:103C800039310448FDF7F2FDD5E70120D6E600BF43
:103C9000002002405C820008001002402C810008D5
:103CA00070000020014B1868704700BF70000020B2
:103CB00008B5FFF7F7FF074B5B6803F4E0634FF4C9
:103CC000E06292FAA2F2B2FA82F2D340024AD35CE4
:103CD000D84008BD001002403C81000808B5FFF73D
:103CE000E1FF074B5B6803F460534FF4605292FAB4
:103CF000A2F2B2FA82F2D340024AD35CD84008BDA5
:103D0000001002403C810008F0B583B0044603680F
:103D100013F0130F2CD0236813F0010F5CD06368ED
:103D200043B1B3F5807F05D0B3F5007F02D0B3F582
:103D3000407F22D1594BDA6942F08052DA61DB6967
:103D400003F080530193019B554A136843F4807339
:103D50001360FEF7ABF80546514B1B6813F4807FE8
:103D600010D1FEF7A3F8401B6428F5D903205BE0CF
:103D70007E214C48FDF77AFDCDE784214948FDF7C7
:103D800075FDD7E7454B1B6A13F440731DD062687D
:103D900002F440729A4218D04048016A21F44076F9
:103DA0004FF4803393FAA3F2B2FA82F23E4D012728
:103DB00045F8227093FAA3F3B3FA83F3002245F88F
:103DC0002320066211F0010F30D1344A136A23F424
:103DD000407361680B431362236813F0020F11D024
:103DE000A36843B1B3F5804F05D0B3F5004F02D0BF
:103DF000B3F5404F42D1294A536823F44043A168A8
:103E00000B435360236813F0100F44D0E368B3F5FD
:103E1000800F01D0002B36D1204A536823F4800351
:103E2000E1680B435360002003B0F0BDFEF73EF89D
:103E3000054614E0194B1A6A022393FAA3F3B3FA66
:103E400083F303F01F0322FA03F313F0010FBCD135
:103E5000FEF72CF8401B41F28833984219D8022310
:103E600093FAA3F293FAA3F3B3FA83F35B0943F053
:103E70000203022BDED0094B5A6ADDE7BA2109485A
:103E8000FDF7F4FCB7E74FF48B710648FDF7EEFC45
:103E9000C2E70320C8E70020C6E700BF00100240C9
:103EA00000700040948200080004424210B50446AD
:103EB0000368104A93420FD0B3F1804F0CD0A2F5A3
:103EC0009432934208D002F58062934204D04FF4BA
:103ED00098710948FDF7CAFC022384F8393022683A
:103EE000136843F001031360012384F83930002084
:103EF00010BD00BF002C0140CC8200087047704705
:103F000070477047704710B5044603681A6912F08D
:103F1000020F11D0DA6812F0020F0DD06FF002021A
:103F20001A610123037603689B6913F0030F70D0B5
:103F3000FFF7E6FF0023237623681A6912F0040FC7
:103F400012D0DA6812F0040F0ED06FF004021A617A
:103F50000223237623689B6913F4407F5FD02046B9
:103F6000FFF7CEFF0023237623681A6912F0080FAB
:103F700012D0DA6812F0080F0ED06FF008021A6142
:103F8000042323762368DB6913F0030F4ED0204609
:103F9000FFF7B6FF0023237623681A6912F0100F8B
:103FA00012D0DA6812F0100F0ED06FF010021A6102
:103FB000082323762368DB6913F4407F3DD0204635
:103FC000FFF79EFF0023237623681A6912F0010F82
:103FD00003D0DA6812F0010F36D123681A6912F0A3
:103FE000800F03D0DA6812F0800F34D123681A6989
:103FF00012F0400F03D0DA6812F0400F32D123687C
:104000001A6912F0200F03D0DA6812F0200F30D1B5
:1040100010BDFFF774FF2046FFF773FF8AE72046C5
:10402000FFF76DFF2046FFF76CFF9BE72046FFF789
:1040300066FF2046FFF765FFACE72046FFF75FFF0E
:104040002046FFF75EFFBDE76FF001021A612046D0
:10405000FFF754FFC1E76FF080021A61204600F0BD
:1040600072F9C3E76FF040021A612046FFF74AFF7A
:10407000C5E76FF020021A61204600F063F9C7E738
:104080000368194A90420AD0B0F1804F07D0A2F5D8
:104090009432904203D002F58062904203D123F023
:1040A00070034A681343104A90420AD0B0F1804F1F
:1040B00007D0A2F59432904203D002F5806290427C
:1040C00003D123F44073CA68134303608B68C3624F
:1040D0000B688362044B984202D00123436170470E
:1040E0000B690363F9E700BF002C0140002800F0D2
:1040F000C180F8B505460C4603685F4A93420FD06D
:10410000B3F1804F0CD0A2F59432934208D002F55F
:104110008062934204D040F6CC015848FDF7A6FBDC
:104120002368013B022B69D8A368013B022B6BD8A3
:10413000A369013B022B6DD863681BB1022B01D030
:104140000A2B6DD163691BB1022B01D00A2B6DD1F3
:10415000E3682BB1042B03D0082B01D00C2B6BD1BF
:10416000E3692BB1042B03D0082B01D00C2B69D1B0
:1041700023690F2B6CD8236A0F2B6FD895F8393031
:10418000002B71D0022385F83930294651F8042BD1
:10419000936823F0070393602868FFF771FF29688D
:1041A0008A688E690F6A2068104326F4407626F0EC
:1041B0000306A268A36942EA0323334323F47C4342
:1041C00023F0FC03E668E26946EA02261E43226AFF
:1041D0001303226943EA0213334327F0AA076268F4
:1041E000646942EA04123A43886029688B612B684B
:1041F0001A62012385F839300020F8BD40F6CD0160
:104200001E48FDF733FB8FE740F6CE011B48FDF754
:104210002DFB8DE740F6CF011848FDF727FB8BE714
:104220004FF40D611548FDF721FB8BE740F6D101F6
:104230001248FDF71BFB8BE740F6D2010F48FDF754
:1042400015FB8DE740F6D3010C48FDF70FFB8FE718
:1042500040F6D4010948FDF709FB8CE740F6D5018B
:104260000648FDF703FB89E785F838302846FDF757
:1042700041FC87E701207047002C0140CC820008F8
:1042800038B504460D4603682C4A93420FD0B3F16B
:10429000804F0CD0A2F59432934208D002F5806290
:1042A000934204D040F28C612548FDF7DFFA2B6879
:1042B0006BB1102B0BD0202B09D0302B07D0402B0B
:1042C00005D0502B03D0602B01D0702B27D16B6809
:1042D000802B00D04BBB94F83830012B2BD001221F
:1042E00084F83820022384F8393021684B6823F0A1
:1042F00070034B6021684B68286803434B6021685A
:104300008B6823F080038B6021688B6868680343A7
:104310008B6084F83920002084F8380038BD40F2E2
:104320008D610748FDF7A2FAD1E740F28E6104489B
:10433000FDF79CFACFE70220F0E700BF002C014018
:10434000048300087047704790F83930DBB2122BB5
:1043500001D0322B2AD18368B3F5805F16D0036A6F
:104360005A1C02621A7803685A60C38C013B9BB2E4
:10437000C384EBB90268D36823F08003D36002687A
:10438000D36843F04003D36000207047036A1B8862
:104390000268C3F30803536003691BB9036A02335D
:1043A0000362E2E7036A01330362DEE7022070473B
:1043B000002070472DE9F843044642687E4B9A423C
:1043C00000F29080E3681BB1B3F5005F40F090808D
:1043D000236933B1B3F5806F03D0B3F5C06F40F0FC
:1043E0008D80636933F00C0200D123B940F255711E
:1043F0007248FDF73BFA2268136923F44053E168E1
:104400000B431361A3682269134362691A4321684D
:10441000CB6823F4B05323F00C031343CB60226822
:10442000536923F44073A1690B4353612268644BC1
:104430009A4269D0FFF73CFC00EB800000EB800063
:104440006568AD00B0FBF5F55E4FA7FB05356D095E
:104450002E01FFF72DFC00EB800000EB800065686B
:10446000AD00B0FBF5F9FFF723FC00EB800000EB9B
:1044700080006568AD00B0FBF5F5A7FB05356D095B
:104480004FF0640808FB15952D013235A7FB053563
:104490006D0905F0F0053544FFF70AFC00EB8000DC
:1044A00000EB80006668B600B0FBF6F6FFF700FC94
:1044B00000EB800000EB800063689B00B0FBF3F032
:1044C000A7FB0030400908FB10684FEA081808F104
:1044D0003208A7FB0837C7F3431723682F449F60B0
:1044E000BDE8F88340F252713448FDF7BFF969E73F
:1044F00040F253713148FDF7B9F969E740F2547160
:104500002E48FDF7B3F96CE7FFF7E8FB00EB8000FE
:1045100000EB80006568AD00B0FBF5F5294FA7FB07
:1045200005356D092E01FFF7D9FB00EB800000EB8C
:1045300080006568AD00B0FBF5F9FFF7CFFB00EB3D
:10454000800000EB80006568AD00B0FBF5F5A7FBCF
:1045500005356D094FF0640808FB15952D013235BE
:10456000A7FB05356D0905F0F0053544FFF7B6FBEF
:1045700000EB800000EB80006668B600B0FBF6F64A
:10458000FFF7ACFB00EB800000EB800063689B0052
:10459000B0FBF3F0A7FB0030400908FB10684FEABE
:1045A000081808F13208A7FB0837C7F34317236838
:1045B0002F449F6094E700BF20AA44003C8300087A
:1045C000003801401F85EB51002872D010B5044619
:1045D00083690BB30368384A93420CD0A2F5744246
:1045E000934208D002F58062934204D040F2071152
:1045F0003248FDF73BF9A369FBB1B3F5807F1CD0CE
:10460000B3F5007F19D0B3F5407F16D04FF4847115
:104610002A48FDF72BF910E00368274A93420CD093
:10462000A2F57442934208D002F58062934204D00E
:104630004FF486712148FDF719F9A36813B1B3F55A
:10464000805F24D1E36943BB94F839305BB3022324
:1046500084F839302268D36823F40053D3602046AD
:10466000FFF7A8FE2268136923F4904313612268C0
:10467000536923F02A0353612268D36843F400533B
:10468000D3600020E063012384F8393010BD4FF47B
:1046900087710A48FDF7EAF8D4E740F20F1107489E
:1046A000FDF7E4F8D0E784F838302046FDF768FAE3
:1046B000CDE70120704700BF003801403C8300086F
:1046C00010B590F83940E4B2012C01D0222C38D139
:1046D000002938D0002A38D090F83830012B36D055
:1046E000012380F8383001628284C2840023C363CE
:1046F00090F83930DBB2222B1FD0122380F83930EA
:1047000013460446026B13489062226B1248D06233
:10471000226B1248106322680432206BFDF73AFDC9
:1047200023686FF040021A602268536943F08003E7
:104730005361002084F8380004E0322380F83930D7
:10474000DEE7022010BD0120FCE70120FAE702208D
:10475000F8E700BFF947000857480008614900081A
:1047600010B590F83940E4B2012C01D0122C34D1AC
:10477000002934D0002A34D090F83830012B32D0C0
:10478000012380F83830816282850023C36390F86A
:104790003930DBB2122B1CD0222380F8393013467B
:1047A0000A460446416B11488862616B1048C86232
:1047B000616B1048086321680431606BFDF7EAFC07
:1047C0002268536943F040035361002084F83800A5
:1047D00004E0322380F83930E1E7022010BD0120E7
:1047E000FCE70120FAE70220F8E700BF6148000873
:1047F000554900086149000808B5436A0268126813
:1048000012F0200F0CD10022DA8419684A6922F0D4
:1048100080024A611A68D36843F04003D36008BD40
:10482000184601F087FCFAE708B50268D36823F060
:104830004003D36090F83930DBB2322B06D001232D
:1048400080F8393001F076FC002008BD222380F882
:104850003930F7E7704708B5406AFFF7FBFF08BD3E
:1048600008B5436A0268126812F0200F0ED10022C8
:10487000DA8519684A6922F040024A6193F83920C2
:10488000D2B2322A06D0012283F83920184601F02C
:1048900033FC08BD122283F83920F7E708B590F8F9
:1048A0003930DBB2222B01D0322B4ED18368B3F5E5
:1048B000805F29D00369002B3AD103685A68836A64
:1048C000591C81621A70C38D013B9BB2C385002BBA
:1048D0003DD10268D36823F02003D36090F83930CB
:1048E000DBB2322B2DD00268D36823F48073D360FF
:1048F0000268536923F001035361012380F83930C2
:1049000001F0FAFB002008BD826A036943B903681D
:104910005B68C3F308031380836A02338362D2E7C0
:1049200003685B68DBB21380836A01338362CAE782
:1049300003685B68826A511C816203F07F03137015
:10494000C1E7122380F83930DAE70220DBE70020E4
:10495000D9E7704708B5406AFFF7FBFF08BD70470D
:1049600008B5406A0023C385C384012380F8393029
:10497000C36B43F01003C363FFF7F1FF08BD10B52D
:1049800082B0044603681968DA6811F0010F06D096
:1049900002F480721AB1C26B42F00102C26319685C
:1049A0005A6902F0010211F0020F04D01AB1E16B52
:1049B00041F00401E163196811F0040F04D01AB149
:1049C000E16B41F00201E163196811F0080F04D0B6
:1049D0001AB1E26B42F00802E2631A68DB6803F086
:1049E000200312F0200F00D0ABB923681A68DB68EF
:1049F00003F0800312F0800F00D083B923681A6897
:104A0000DB6803F0400312F0400F00D05BB9E36BAA
:104A10006BB902B010BD2046FFF740FFE5E7204626
:104A2000FFF792FCEAE72046FFF7FEFEEFE7236878
:104A30001A6801925B680193019B012384F8393065
:104A40002046FFF78CFFE4E710B58CB00446012840
:104A500015D80323039300230493012205920693A0
:104A60000793089309920A930B9303A9104B53F8E9
:104A70002400FFF73BFB38B101200CB010BD26210C
:104A80000C48FCF7F3FEE4E700230193029301A92D
:104A9000074B53F82400FFF7F3FB08B10120ECE7C4
:104AA000034B53F82400FFF701FA0020E5E700BFAD
:104AB000A48300087483000810B50446012803D9B4
:104AC00048210548FCF7D2FE044B53F824301B68FC
:104AD000586A00B210BD00BF74830008A4830008A8
:104AE00038B504460D46012803D94D210448FCF78A
:104AF000BDFE044B53F824301B685D6238BD00BF17
:104B000074830008A4830008014B1860704700BF3D
:104B100044060020014B5860704700BF4406002047
:104B2000014B9860704700BF44060020014BD860DD
:104B3000704700BF4406002010B50446032806D87D
:104B40000549064B53F82400FDF79CFC10BD2321BA
:104B50000348FCF78BFEF3E744060020D4830008EB
:104B6000AC83000870B504460D461646032807D8E6
:104B7000F2B22946054B53F82400FDF723FE70BD21
:104B800028210348FCF772FEF2E700BFD483000837
:104B9000AC83000838B504460D46032806D82946DC
:104BA000054B53F82400FDF7F9FD38BD2D210348CE
:104BB000FCF75CFEF3E700BFD4830008AC83000879
:104BC00038B504460D46012803D92B210348FCF7CC
:104BD0004DFE034B53F824305D6038BDE48300087C
:104BE0000C84000808B5054B53F82000FDF7F6FFCC
:104BF00008B9002008BD0120FCE700BF0C840008B4
:104C000000B583B00A23009313460A4641000548C5
:104C1000FEF7A8F818B9002003B05DF804FB4FF0C8
:104C2000FF30F9E7F000002008B5094B1B780BB9FD
:104C3000002008BD13460A4641000648FEF72AF93F
:104C400010B9034B1870F4E74FF0FF30F1E700BFE5
:104C5000ED0000202C01002008B5094B1B780BB992
:104C6000002008BD13460A4641000648FEF782F9B7
:104C700010B9034B1870F4E74FF0FF30F1E700BFB5
:104C8000EC0000202C010020014B01221A7070471B
:104C9000ED000020014B01221A707047EC0000204B
:104CA000014B5860704700BF68010020014B9860BD
:104CB000704700BF6801002008B50548FEF73CFAC0
:104CC00008B1012008BD0248FEF786FA0020F9E786
:104CD0006801002008B50248FEF793FA08BD00BF3E
:104CE0006801002008B50248FFF70DF908BD00BFB4
:104CF0007801002008B50248FFF705F908BD00BF9C
:104D00007801002038B504460D46022804D8054B2A
:104D100053F824305D6038BD38210348FCF7A6FD08
:104D2000F5E700BF408400081484000808B5054B6F
:104D300053F82000FFF748FC08B9002008BD012007
:104D4000FCE700BF4084000808B50A460146044855
:104D5000FFF7B6FC08B9002008BD4FF0FF30FBE7B5
:104D6000F401002008B582B20448FFF7F9FC08B945
:104D7000002008BD4FF0FF30FBE700BF34020020E9
:104D80000FB400B583B004A951F8040B019100F0F1
:104D9000B7F803B05DF804EB04B0704738B50546CA
:104DA0000B4B1C6802E0012001F090F9094B1B78C5
:104DB00023B96319064A12689342F4D82C44044B71
:104DC0001B689C4201D9002038BD0120FCE700BFD0
:104DD000200B00207402002008B56420FFF7DEFFDE
:104DE00098B90A4B1B686BB1084A591C11600A211B
:104DF000197007481168091A89B2FFF7A5FF054B1A
:104E000000221A70014B024A1A6008BD540A0020A1
:104E100054060020740200200FB430B583B006ACF5
:104E200054F8045B6420FFF7B9FF0194214628463B
:104E300000F066F8074B1B68074A9B1AB3F5617FC1
:104E400004DC03B0BDE8304004B07047FFF7C4FF96
:104E5000F7E700BF540A00205406002008B42DE9EB
:104E6000F04183B080460E46174609AC54F8045B07
:104E70006420FFF793FF43463A4631460848FFF760
:104E80007FFF01942146284600F03AF80548FFF7D5
:104E900077FFFFF7A1FF03B0BDE8F04101B0704715
:104EA0004C840008EC880008014B01221A707047FE
:104EB0007402002010B504460A2807D0094B1B686D
:104EC00043B1591C074A11601C7010BD0D20FFF73B
:104ED000F1FFF3E7044B1B68002BF6D02046984700
:104EE000F3E700BF540A0020580A002010B504461A
:104EF00002E00134FFF7DEFF20780028F9D110BD71
:104F00002DE9F04786B00646019102E0FFF7D2FF97
:104F10002646741C3078002800F0EC802528F5D156
:104F2000B21C7078302804D02D2806D0002500242B
:104F30000FE0F21CB0780125F9E7F21CB0780225E9
:104F4000F5E704EB840463001844A0F13004107802
:104F50000132A0F13003DBB2092BF2D96C2803D067
:104F60004C2801D0164603E045F00405561C107885
:104F7000002800F0BF80602814D9A0F12003DBB224
:104F8000A3F14202162A41D8DFE802F043333A4047
:104F9000404040404040404040464040400E403A43
:104FA00040403D000346EBE7019B1A1D0192D3F8F8
:104FB0000090002700E0013719F80730002BFAD1E4
:104FC00003E02020FFF776FF474615F0020F04D1DB
:104FD00007F10108A742F4D347464846FFF786FF8A
:104FE00003E02020FFF766FF2F467D1CA742F8D381
:104FF0008FE7019B1A1D01921878FFF75BFF88E786
:105000004FF00A0E0AE04FF0100E07E0FFF752FFD4
:105010007FE74FF0020E01E04FF0080E15F0040F8D
:1050200008D0019A111D01911168442B0ED04FF048
:10503000000C20E0442B04D0019A111D019111684D
:10504000F3E7019A111D01911168EEE70029EEDAEC
:10505000494245F00805EAE727273B44DBB20CF15B
:10506000010730330DF11808E04408F8103C72B124
:105070000F2F0CD8BC46B1FBFEF20EFB1213DBB2B5
:105080001146092BEBD97828E6D00727E5E715F07C
:10509000080F06D006AB1F442D2307F8103C0CF177
:1050A000020715F0010F03D04FF0300AB84606E0B2
:1050B0004FF0200AFAE75046FFF7FCFEC84615F00D
:1050C000020F04D108F10109A045F4D3C846013FFD
:1050D00006AB3B4413F8100CFFF7ECFE002FF6D1A3
:1050E00003E02020FFF7E6FEA84608F10105A045F1
:1050F000F7D30EE706B0BDE8F08708B50020FFF74C
:10510000A3FC08BD08B50120FFF79EFC08BD000008
:1051100008B50020FFF7D0FC044A1368184410605B
:1051200000210846FFF7DCFC002008BD5C0A0020D7
:1051300008B50120FFF7C0FC044A1368184410604A
:1051400000210120FFF7CCFC002008BD600A0020F0
:10515000014B1868704700BF5C0A0020014B1868BB
:10516000704700BF600A00200020014B18607047A4
:105170005C0A00200020014B18607047600A002084
:1051800008B5044B1A68044B19680448FFF744FE3D
:10519000002008BD600A00205C0A00205C84000832
:1051A000F0B585B006460F461446FFF729FD0546C3
:1051B00010B9284605B0F0BD3B78029301940096E3
:1051C000034B1B2203490448FFF748FEF1E700BFE9
:1051D0006C840008A0850008A4840008F0B585B0A0
:1051E00006460F461546FFF71FFD04460C4B1B787D
:1051F0001BB14CB9204605B0F0BD0A4B20220A492C
:105200000A48FFF72BFEF4E73B78029301950096DE
:10521000074B212204490748FFF720FEEAE700BFB9
:105220007602002000850008AC8500082085000873
:1052300028850008A4840008F0B585B006460F460E
:105240001546FFF709FD04460C4B1B781BB14CB902
:10525000204605B0F0BD0A4B2B220A490A48FFF749
:10526000FDFDF4E73B78029301950096074B2C2255
:1052700004490748FFF7F2FDEAE700BF7502002086
:10528000A8840008B885000820850008C8840008A4
:10529000A484000810B50024052C0ADC04EB4402A9
:1052A00053001548184400F0D5F80346F0B901340E
:1052B000F2E70024002C09DD0024012C10DCE0B210
:1052C00000F08EFB034688B90134F6E704EBC40016
:1052D0000A4B184400F08CF8034638B90134E9E76A
:1052E00000F0FEFBFFF714FF034608B1184610BD9F
:1052F000FFF71EFF0346F9E73400002028000020D6
:1053000010B5002407E004EB440253001048184491
:1053100000F0CCF80134052CF5DD0024002C01DD73
:10532000002410E004EBC4030A48184400F068F8B5
:105330000134F3E704EB840304EB43030648184409
:1053400000F010FB0134012CF4DDFFF719FF10BD54
:1053500034000020280000205800002038B51E49E5
:105360000020FFF72DFC0020FFF73CFC10B10124CA
:10537000204638BD18490120FFF722FC0120FFF725
:1053800031FC08B10124F3E7FFF7B7FE28B9FFF7B6
:10539000B9FE044648B9054610E0104BA222104958
:1053A0001048FFF75BFD0124E2E70F4BA9220C49EF
:1053B0000C48FFF753FD0124DAE70135012DD7DC56
:1053C00005EB850305EB43030848184400F006FB92
:1053D0000028F2D00124CBE7A086010060850008F8
:1053E000C88500087C8500088485000858000020D6
:1053F00008B50822411C0078FFF7D2FE08BD000066
:1054000038B5054601780F48FFF706FD002409E08E
:105410002B195A780C4B53F82220611C0B48FFF7CC
:10542000FBFC0134072C0BDC002CF1D02B195A7833
:10543000054B53F82220611C0548FFF7EDFCF0E70F
:1054400038BD00BFD885000808860008E48500083C
:10545000F485000830B585B0054643880F4CA4FBA1
:105460000324E408B4F57A7F0ED22A79230A43EAAA
:1054700082038DF80C308DF80D40022203A92878A4
:10548000FFF78EFE05B030BD027801930092044B09
:10549000202204490448FFF7E1FCE6E7CDCCCCCC60
:1054A0008C870008A4870008A484000810B504466F
:1054B00001780F48FFF7B0FC2379032B06D8DFE80B
:1054C00003F0020A0E120B48FFF7A6FC61880A4897
:1054D000FFF7A2FC10BD0948FFF79EFCF6E708485D
:1054E000FFF79AFCF2E70748FFF796FCEEE700BFEC
:1054F00064870008708700088087000874870008A8
:10550000788700087C870008F8B505460F464FF4F9
:1055100016510220FFF7F6FB0220FFF707FC0646B4
:1055200008B13046F8BD164B1C683C44294608209B
:10553000FFF718FC07E01348FFF76EFC1248FFF76F
:105540006BFCFFF749FC0E4B1B68A34203D20F4BC9
:105550001B68002BEFD10D4B1B6873B9334602E07B
:105560000022EA540133022BFADD032302E0402239
:10557000EA540133062BFADDD3E70126D1E700BF59
:10558000200B0020A8890008B087000878020020BE
:1055900010B4802806D0174B1B68062B1CDC164A5B
:1055A000D05402E0134B00221A60124B1B68082BE8
:1055B0001EDC01330F4A1360002010BC70470E4CF4
:1055C000A45C2344DBB20132062AF8DD434013F029
:1055D0007F0F04D1002308E001220023F4E702201A
:1055E000EBE7054AD25CCA540133072BF9DDDCE74F
:1055F0000320E2E7640A0020680A0020F8B50646A6
:105600000F4B1B68002B0BDC0F460024072C11DC12
:105610003946305DFFF7BCFF054658B90134F5E760
:10562000074A1368013B136001460820FFF79AFB05
:10563000002004E031460820FFF794FB2846F8BD1F
:1056400078020020C378403B3F2B07DCC378403B07
:1056500013F13F0F04DBC07840387047402070479B
:105660006FF03F0070470379403B3F2B07DC037925
:10567000403B13F13F0F04DB007940387047402076
:1056800070476FF03F0070474379403B3F2B07DC8A
:105690004379403B13F13F0F04DB407940387047BA
:1056A000402070476FF03F0070478379403B3F2BAD
:1056B00007DC8379403B13F13F0F04DB80794038EE
:1056C0007047402070476FF03F007047F0B583B0DF
:1056D0000446837803F00303032B00F0BB80837838
:1056E00013F0010F40F0B18000258E48FFF794FBC6
:1056F000002D40F0B180A37803F00303032B00F0EA
:10570000B480A37813F0020F40F0AA8000258648E9
:10571000FFF782FB002D40F0AA80A37803F00C0372
:105720000C2B00F0AD80A37813F0040F40F0A380A1
:1057300000257E48FFF770FB002D40F0A380A37882
:1057400003F00C030C2B00F0A680A37813F0080FD5
:1057500040F09C8000257648FFF75EFB002D40F06E
:105760009C80637813F0010540F09B807148FFF73F
:1057700053FB002D40F09980A37813F0200540F0F2
:1057800098806D48FFF748FB002D40F09680A37885
:1057900013F0400540F095806848FFF73DFB002D71
:1057A00040F09380A37813F0100540F09280644895
:1057B000FFF732FB002D40F09080637813F0020574
:1057C00040F08F805F48FFF727FB002D40F08D8071
:1057D000637813F0040540F08C805B48FFF71CFBF6
:1057E000002D40F08A80637813F0080540F089802E
:1057F0005648FFF711FB002D40F08780637813F0C7
:10580000100540F086805248FFF706FB002D40F05F
:1058100084805048FFF700FB2046FFF713FF054642
:105820002046FFF720FF06462046FFF72DFF0746DC
:105830002046FFF73AFF00903B463246294646484D
:10584000FFF7EAFA002003B0F0BD4448FFF7E4FA9E
:1058500001254AE7002548E74148FFF7DDFA4AE716
:105860003E48FFF7D9FA012551E700254FE73C48AC
:10587000FFF7D2FA51E73948FFF7CEFA012558E78A
:10588000002556E73648FFF7C7FA58E73348FFF7D1
:10589000C3FA01255FE700255DE73148FFF7BCFA51
:1058A0005FE72E48FFF7B8FA60E72D48FFF7B4FA34
:1058B00062E72A48FFF7B0FA63E72948FFF7ACFA36
:1058C00065E72648FFF7A8FA66E72548FFF7A4FA38
:1058D00068E72248FFF7A0FA69E72148FFF79CFA3A
:1058E0006BE71E48FFF798FA6CE71D48FFF794FA3C
:1058F0006EE71A48FFF790FA6FE71948FFF78CFA3E
:1059000071E71648FFF788FA72E71548FFF784FA3F
:1059100074E71248FFF780FA75E71148FFF77CFA41
:1059200077E700BFC4870008DC870008E487000829
:10593000EC870008F4870008FC870008008800084E
:1059400008880008108800081888000820880008C7
:1059500028880008EC88000830880008B487000810
:10596000CC87000838B50446427801781648FFF71E
:1059700053FAA37A042B0FD0D3B1002520E063198A
:1059800099781248FFF748FA01356378AB42F6DCA4
:105990000F48FFF741FA38BD0025F6E763199978FB
:1059A0000C48FFF739FA01356378AB42F6DCEFE7D4
:1059B0000025F9E7631999780748FFF72DFA0135B3
:1059C0006378AB42F6DCE3E74888000858880008B3
:1059D000EC8800086088000868880008002070478C
:1059E0000B4B19684B1C5A4203F01F0302F01F02B5
:1059F00058BF5342074A12689A4206D0064A42F8F4
:105A00002100034A1360002070474FF0FF307047B9
:105A1000F40A0020700A0020740A00200A4B1B6858
:105A20000A4A126893420DD0094A52F823200270A4
:105A300001335A4203F01F0302F01F0258BF5342C2
:105A4000014A136000207047700A0020F40A002009
:105A5000740A0020054B1A68054B1B689A4201D056
:105A6000002070474FF0FF30704700BFF40A00205D
:105A7000700A002008B50346014611F8020B5A7857
:105A8000FFF7DAFB08BD08B50346014611F8020B23
:105A90005A78FFF7D1FB08BD08B50346014611F857
:105AA000020B5A78FFF7C8FB08BD08B5034601464C
:105AB00011F8020B5A78FFF7BFFB08BD08B5034683
:105AC000014611F8020B5A78FFF788FB08BD08B5AC
:105AD0000346014611F8020B5A78FFF7ADFB08BDEB
