:020000040800F2
:1000000000500020918F00084D4B00084F4B000816
:10001000514B0008534B0008554B000800000000EE
:10002000000000000000000000000000574B000826
:10003000594B0008000000005B4B00085D4B0008B6
:10004000D98F0008D98F0008D98F0008D98F0008F0
:10005000D98F0008D98F0008D98F0008D98F0008E0
:10006000D98F0008D98F0008D98F0008D98F0008D0
:10007000D98F0008854B0008B54B0008C54B000818
:10008000D98F0008754B0008D98F0008D98F000858
:10009000D98F0008D98F0008D98F0008D98F0008A0
:1000A000D98F0008B57A0008D98F0008D98F0008C9
:1000B000C57A0008D98F0008D98F0008D98F0008A9
:1000C000D98F0008D98F0008D98F0008D98F000870
:1000D000D98F0008D98F0008A54B0008954B000860
:1000E000D98F0008D98F0008D98F000800000000C0
:1000F0000000000000000000000000000000000000
:0C01000000000000000000005FF808F1A3
:1001100010B5054C237833B9044B13B10448AFF341
:1001200000800123237010BDF802002000000000B1
:10013000B0AC000808B5034B1BB103490348AFF34B
:10014000008008BD00000000FC020020B0AC0008E8
:1001500081F0004102E000BF83F0004330B54FEA78
:1001600041044FEA430594EA050F08BF90EA020FE5
:100170001FBF54EA000C55EA020C7FEA645C7FEA78
:10018000655C00F0E2804FEA5454D4EB5555B8BF9B
:100190006D420CDD2C4480EA020281EA030382EA0C
:1001A000000083EA010180EA020281EA0303362D9E
:1001B00088BF30BD11F0004F4FEA01314FF4801C71
:1001C0004CEA113102D0404261EB410113F0004F83
:1001D0004FEA03334CEA133302D0524263EB43033A
:1001E00094EA050F00F0A780A4F10104D5F1200ED8
:1001F0000DDB02FA0EFC22FA05F2801841F1000133
:1002000003FA0EF2801843FA05F359410EE0A5F106
:1002100020050EF1200E012A03FA0EFC28BF4CF037
:10022000020C43FA05F3C01851EBE37101F00045ED
:1002300007D54FF0000EDCF1000C7EEB00006EEBFA
:100240000101B1F5801F1BD3B1F5001F0CD3490884
:100250005FEA30004FEA3C0C04F101044FEA4452DB
:1002600012F5800F80F09A80BCF1004F08BF5FEA62
:10027000500C50F1000041EB045141EA050130BD42
:100280005FEA4C0C404141EB010111F4801FA4F1E5
:100290000104E9D191F0000F04BF01460020B1FA3A
:1002A00081F308BF2033A3F10B03B3F120020CDA72
:1002B0000C3208DD02F1140CC2F10C0201FA0CF050
:1002C00021FA02F10CE002F11402D8BFC2F1200CB5
:1002D00001FA02F120FA0CFCDCBF41EA0C0190406B
:1002E000E41AA2BF01EB0451294330BD6FEA0404B4
:1002F0001F3C1CDA0C340EDC04F11404C4F120029F
:1003000020FA04F001FA02F340EA030021FA04F3B0
:1003100045EA030130BDC4F10C04C4F1200220FA07
:1003200002F001FA04F340EA0300294630BD21FA45
:1003300004F0294630BD94F0000F83F4801306BF0B
:1003400081F480110134013D4EE77FEA645C18BFFF
:100350007FEA655C29D094EA050F08BF90EA020F96
:1003600005D054EA000C04BF1946104630BD91EA8E
:10037000030F1EBF0021002030BD5FEA545C05D191
:100380004000494128BF41F0004130BD14F58004D0
:100390003CBF01F5801130BD01F0004545F0FE4144
:1003A00041F470014FF0000030BD7FEA645C1ABF79
:1003B000194610467FEA655C1CBF0B46024650EAB0
:1003C000013406BF52EA033591EA030F41F40021DC
:1003D00030BD00BF90F0000F04BF0021704730B562
:1003E0004FF4806404F132044FF000054FF0000137
:1003F00050E700BF90F0000F04BF0021704730B5F8
:100400004FF4806404F1320410F0004548BF4042CC
:100410004FF000013EE700BF42004FEAE2014FEA21
:1004200031014FEA02701FBF12F07F4393F07F4FFC
:1004300081F06051704732F07F4208BF704793F0FF
:100440007F4F04BF41F40021704730B54FF4607412
:1004500001F0004521F000411CE700BF50EA010215
:1004600008BF704730B54FF000050AE050EA0102BE
:1004700008BF704730B511F0004502D5404261EB2E
:1004800041014FF4806404F132045FEA915C3FF46F
:10049000D8AE4FF003025FEADC0C18BF03325FEA0C
:1004A000DC0C18BF033202EBDC02C2F1200300FABD
:1004B00003FC20FA02F001FA03FE40EA0E0021FAE2
:1004C00002F11444BDE600BF70B54FF0FF0C4CF4D0
:1004D000E06C1CEA11541DBF1CEA135594EA0C0F82
:1004E00095EA0C0F00F0DEF82C4481EA030621EABD
:1004F0004C5123EA4C5350EA013518BF52EA0335F8
:1005000041F4801143F4801338D0A0FB02CE4FF0A9
:100510000005E1FB02E506F00042E0FB03E54FF0D9
:100520000006E1FB03569CF0000F18BF4EF0010ED1
:10053000A4F1FF04B6F5007F64F5407404D25FEACD
:100540004E0E6D4146EB060642EAC62141EA555180
:100550004FEAC52040EA5E504FEACE2EB4F1FD0CC2
:1005600088BFBCF5E06F1ED8BEF1004F08BF5FEA40
:10057000500E50F1000041EB045170BD06F00046F2
:1005800046EA010140EA020081EA0301B4EB5C049F
:10059000C2BFD4EB0C0541EA045170BD41F4801197
:1005A0004FF0000E013C00F3AB8014F1360FDEBFBC
:1005B000002001F0004170BDC4F10004203C35DA98
:1005C0000C341BDC04F11404C4F1200500FA05F31B
:1005D00020FA04F001FA05F240EA020001F00042BC
:1005E00021F0004110EBD37021FA04F642EB060132
:1005F0005EEA430E08BF20EAD37070BDC4F10C045C
:10060000C4F1200500FA04F320FA05F001FA04F21F
:1006100040EA020001F0004110EBD37041F100010B
:100620005EEA430E08BF20EAD37070BDC4F1200516
:1006300000FA05F24EEA020E20FA04F301FA05F27E
:1006400043EA020321FA04F001F0004121FA04F226
:1006500020EA020000EBD3705EEA430E08BF20EAF6
:10066000D37070BD94F0000F0FD101F00046400030
:1006700041EB010111F4801F08BF013CF7D041EAB2
:10068000060195F0000F18BF704703F000465200B6
:1006900043EB030313F4801F08BF013DF7D043EA87
:1006A0000603704794EA0C0F0CEA135518BF95EA3D
:1006B0000C0F0CD050EA410618BF52EA4306D1D1C4
:1006C00081EA030101F000414FF0000070BD50EAE3
:1006D000410606BF1046194652EA430619D094EA6D
:1006E0000C0F02D150EA013613D195EA0C0F05D157
:1006F00052EA03361CBF104619460AD181EA0301AB
:1007000001F0004141F0FE4141F470014FF0000062
:1007100070BD41F0FE4141F4780170BD70B54FF0FD
:10072000FF0C4CF4E06C1CEA11541DBF1CEA13557D
:1007300094EA0C0F95EA0C0F00F0A7F8A4EB05045F
:1007400081EA030E52EA03354FEA013100F0888056
:100750004FEA03334FF0805545EA131343EA12631F
:100760004FEA022245EA111545EA10654FEA0026D4
:100770000EF000419D4208BF964244F1FD0404F58D
:10078000407402D25B084FEA3202B61A65EB0305E9
:100790005B084FEA32024FF480104FF4002CB6EBA6
:1007A000020E75EB030E22BFB61A754640EA0C0026
:1007B0005B084FEA3202B6EB020E75EB030E22BF66
:1007C000B61A754640EA5C005B084FEA3202B6EBA7
:1007D000020E75EB030E22BFB61A754640EA9C0066
:1007E0005B084FEA3202B6EB020E75EB030E22BF36
:1007F000B61A754640EADC0055EA060E18D04FEAF4
:10080000051545EA16754FEA06164FEAC30343EA93
:1008100052734FEAC2025FEA1C1CC0D111F4801F60
:100820000BD141EA00014FF000004FF0004CB6E759
:1008300011F4801F04BF01430020B4F1FD0C88BFF8
:10084000BCF5E06F3FF6AFAEB5EB030C04BFB6EB03
:10085000020C5FEA500C50F1000041EB045170BDF6
:100860000EF0004E4EEA113114EB5C04C2BFD4EB23
:100870000C0541EA045170BD41F480114FF0000EA7
:10088000013C90E645EA060E8DE60CEA135594EA23
:100890000C0F08BF95EA0C0F3FF43BAF94EA0C0F26
:1008A0000AD150EA01347FF434AF95EA0C0F7FF49B
:1008B00025AF104619462CE795EA0C0F06D152EAEF
:1008C00003353FF4FDAE1046194622E750EA4106D3
:1008D00018BF52EA43067FF4C5AE50EA41047FF4E4
:1008E0000DAF52EA43057FF4EBAE12E74FF0FF3C49
:1008F00006E000BF4FF0010C02E000BF4FF0010C1A
:100900004DF804CD4FEA410C7FEA6C5C4FEA430C92
:1009100018BF7FEA6C5C1BD001B050EA410C0CBFE1
:1009200052EA430C91EA030F02BF90EA020F002043
:10093000704710F1000F91EA030F58BF994208BFAA
:1009400090422CBFD8176FEAE37040F00100704767
:100950004FEA410C7FEA6C5C02D150EA013C07D1BE
:100960004FEA430C7FEA6C5CD6D152EA033CD3D009
:100970005DF8040B704700BF8446104662468C4603
:100980001946634600E000BF01B5FFF7B7FF002836
:1009900048BF10F1000F01BD4DF808EDFFF7F4FF5F
:1009A0000CBF012000205DF808FB00BF4DF808EDEA
:1009B000FFF7EAFF34BF012000205DF808FB00BF0D
:1009C0004DF808EDFFF7E0FF94BF012000205DF82F
:1009D00008FB00BF4DF808EDFFF7CEFF94BF0120E4
:1009E00000205DF808FB00BF4DF808EDFFF7C4FFDD
:1009F00034BF012000205DF808FB00BF4FEA410230
:100A000012F5001215D211D56FF47873B3EB625260
:100A100012D94FEAC12343F0004343EA505311F087
:100A2000004F23FA02F018BF404270474FF0000019
:100A3000704750EA013005D111F0004008BF6FF057
:100A4000004070474FF00000704700BF4FEA410C74
:100A50007FEA6C5C02D150EA013C0AD14FEA430CB8
:100A60007FEA6C5C02D152EA033C02D14FF00000F5
:100A700070474FF0010070472DE9F04F85B0814677
:100A80000D4614469B460E9F0F9E9DF840A09DF874
:100A90004480D1E90023CDE90223A149D1E9000135
:100AA000FFF77AFFB8B1D5E902239D49D1E90201E8
:100AB000FFF772FF78B1D4E900239A49D1E9000128
:100AC000FFF76AFF38B1D4E902239649D1E9020160
:100AD000FFF762FFA0B9944B01221A709049DDE93B
:100AE0000223C1E90023D5E90223C1E90223D4E9A5
:100AF00000238C49C1E90023D4E90223C1E9022380
:100B0000B8F1030F0BD8DFE808F002717A83DBE954
:100B10000023D4E90001FFF71FFBCDE90001824B60
:100B20001B783BB1814BDDE90012C3E900127E4B1B
:100B300000221A70BAF1000F00F0D880DDE900AB96
:100B400052465B467949D1E90001FFF705FB0446AF
:100B500021F000450022764B50465946FFF744FFEE
:100B6000002879D00022724B20462946FFF728FF43
:100B7000002856D000226E4B20462946FFF7CEFDB6
:100B800000226C4BFFF7E8FA04460D463A4633461E
:100B9000FFF79AFC02460B4620462946FFF794FCD5
:100BA00002460B465AA1D1E90001FFF7D5FA3A46B1
:100BB0003346FFF7D3FAC9E9000155A3D3E900236F
:100BC000FFF7FEFE20B152A3D3E90023C9E90023B9
:100BD0003A463346D9E90001FFF706FF002874D0F2
:100BE0003A463346C9E9002300241FE0D4E9002334
:100BF000DBE90001FFF7B0FACDE900018FE7DBE99F
:100C00000223D4E90201FFF7A7FACDE9000186E744
:100C1000D4E90223DBE90201FFF79EFACDE90001E6
:100C20007DE73A463346C9E9002301240022424BBE
:100C300038463146FFF7CEFE00284AD000223F4B0F
:100C4000DDE90001FFF7BCFE00285BD00022002395
:100C5000C9E90023032455E006F100480022344B83
:100C6000DDE90001FFF75AFD2BA3D3E90023FFF7CD
:100C700073FA04460D4602460B4638464146FFF7D6
:100C800023FC02460B4620462946FFF71DFC3A4648
:100C90003346FFF763FAC9E900011DA3D3E9002336
:100CA000FFF78EFE20B11AA3D3E90023C9E9002380
:100CB0003A463346D9E90001FFF796FE38B13A4685
:100CC0003346C9E900230224B0E70024AEE702243A
:100CD000ACE700221A4BDDE90001FFF771FE88B195
:100CE00000220023C9E9002303240BE00022154B56
:100CF000DDE90001FFF764FE30BB3A463346C9E93F
:100D000000230124204605B0BDE8F08FAFF300803A
:100D10000000000000CCA040666666666666F23F92
:100D2000600400208004002000000020A0030020B8
:100D300000408F400000F03F0040AF4000005440B2
:100D4000000049400000244000220023C9E900239C
:100D50000324D7E710B402EBD2735B105C4221444A
:100D6000401A824203DC90FBF2F302FB13000028DE
:100D700002DB204410BC70470028B8BF4042101A64
:100D8000F7E70000254B5B7813F0040F3FD0234BAF
:100D90005B7813F0020F3AD0204B9B7813F0100FC2
:100DA00004D01F4A537843F0080353701B4B9B78C1
:100DB00013F0400F19D01A4A537843F020035370B0
:100DC000164B9B7813F0200F15D0154A537843F03B
:100DD00004035370114B5B7813F0010F11D0104ACC
:100DE000537843F01003537016E00D4A537823F004
:100DF00020035370E4E70A4A537823F00403537046
:100E0000E8E7074A537823F01003537004E0044ADC
:100E1000537803F0C303537000207047380C002050
:100E20002C000020002309E0590019444800054A1D
:100E3000024400215180032111710133062BF3DD9F
:100E4000002070473C000020034B0020D881032283
:100E50001A7498829A7570473C000020F0B4002400
:100E600007E0E300C5180B44D3E90067C5E9006754
:100E700001349442F5DBF0BC7047000010B5044625
:100E8000012819D018B102282AD000202DE04FF4F3
:100E90008051012006F066FD38B1144B01221A770B
:100EA00041F288325A8320461FE0104B03221A7702
:100EB00000225A83022018E00421012006F052FD8E
:100EC00038B10A4B02221A7741F288325A832046FF
:100ED0000BE0064B03221A7700225A83022004E01B
:100EE000024B03221A7700225A8310BD3C000020D7
:100EF000012920D010B504460221012006F032FD60
:100F000010B11F4B01221A701D4B1B78C3B984EA24
:100F1000E472A2EBE4721B4B1B689A421ED0002CB9
:100F200028DD194B022283F82820174B41F2883222
:100F3000DA84002010BD134B00221A600220704793
:100F40000221012006F00EFD0028E0D10D4A1368B1
:100F5000013313600A4B00221A70D8E70A4A0323B0
:100F600082F828300023D384064A1360044A1370A1
:100F70000120DFE7044B012283F82820D5E700BFDA
:100F8000E0030020900400203C00002008B5012967
:100F90000AD09F4A1278042A10D8DFE812F0110014
:100FA000670092000D0145010223994A1370994A86
:100FB0001170002298490A6098490A70184608BDC5
:100FC000022821D00428F9D1924B1B7833B1944BDD
:100FD0001A68914B1A608F4B00221A70904B1B6855
:100FE0008D4A12689B1A41F65832934235D98D4B7F
:100FF000032283F8222000221A84854B04221A70CF
:101000000123844A1370D9E7824B1B7833B1844B98
:101010001A68814B1A607F4B00221A70804B1B6844
:101020007D4A12689B1A40F6AC5293420CD97D4B14
:10103000032283F8222000221A84754B02221A70A0
:101040000123744A1370B9E7764B012283F82220FA
:1010500040F6B8321A840023B0E7724B012283F8BD
:10106000222040F6B8321A840023A7E70228A5D12F
:10107000684B1B7833B16A4B1A68674B1A60654B33
:1010800000221A70664B1B68634A12689B1A41F271
:10109000040293420CD9634B032283F822200022DE
:1010A0001A845B4B02221A7001235A4A137085E797
:1010B0005C4B012283F8222040F6B8321A840023C8
:1010C0007CE701281BD090B303287FF477AF102171
:1010D000022006F047FC40B1524B022283F8222046
:1010E00040F6B8321A84002368E74E4A032382F898
:1010F000223000211184464A137001235EE710213B
:10110000012006F02FFC40B1464B022283F822203A
:1011100040F6B8321A84002350E7424B032283F88A
:10112000222000221A840123394A137046E73B4BE0
:101130001B78F3B1374B1B7833B1394B1A68364BF8
:101140001A60344B00221A70354B1B68324A126801
:101150009B1A502B27D9334B032283F822200022DD
:101160001A842B4B1A7001232A490B702B490A70E1
:1011700024E71021012006F0F5FB40B1294B0222A3
:1011800083F8222040F6B8321A84002316E7234B56
:1011900001221A70234B022283F8222040F6B83233
:1011A0001A8400230AE71F4B022283F8222040F60C
:1011B000B8321A84002301E702287FF4FFAE154BF2
:1011C0001B7833B1164B1A68134B1A60114B00226F
:1011D0001A70134B1B68104A12689B1A40F2DC52BB
:1011E00093420CD90F4B032283F8222000221A8449
:1011F000074B02221A700123064A1370DEE6094BE0
:10120000012283F8222040F6B8321A840023D5E662
:101210000500002006000020D4040020D004002097
:10122000340C00203C00002002287FF4C7AE144B91
:101230001B7833B1134B1A68134B1A60104B002202
:101240001A70104B1B68104A12689B1A40F6C412A1
:10125000934208D80D4B022283F8222040F6B83280
:101260001A840023AAE6094B032283F822200022D5
:101270001A84074B02221A700123014A13709DE65B
:1012800006000020340C0020D40400203C00002084
:101290000500002070B50D469DF8106005990129E4
:1012A00007D03E490968032918D8DFE801F00E1974
:1012B000495B00243A4B1C703A4B1C700846FFF700
:1012C00065FE364B1C60022408E0374A537843F031
:1012D000340353700131314B19600024204670BD36
:1012E0002F490978012910D03AB100210120FFF7D8
:1012F0004DFE2B4B18700024F0E700210846FFF745
:1013000045FE274B18700024E8E762B123B1264A56
:10131000537823F02003537056B1234A537823F0B7
:101320001003537004E0204A537803F0CB0353704A
:1013300000241B4B1C70194A136801331360CDE75E
:10134000174B1B78012B06D10024154B1C70013163
:10135000124B1960C2E70021FFF718FE104B1870FE
:101360000024BBE70F4B1B78012B00D06DB90E4A50
:10137000537803F0CB03537000230A4A1370084AD2
:101380001370064A13600124A8E700212846FFF7DE
:10139000AFFD044B18700024A0E700BFCC03002071
:1013A00028030020E00400202C0000202DE9F04359
:1013B00083B004460E4603287FD8DFE800F0022100
:1013C000405F87494B7B887B03EB0023C87B03EBA3
:1013D0000043097C03EB016382490D681D44002E24
:1013E0006ED0012E03D0022E06D0002769E05B42AA
:1013F0000B6000273D4664E07B4B1F68EF1B60E0FD
:1014000077494B7C887C03EB0023C87C03EB0043CB
:10141000097D03EB016373494D681D44002E73D0B1
:10142000012E03D0022E06D000274AE05B424B601B
:1014300000273D4645E06C4B5F68EF1B41E0684983
:101440008B78C87803EB0023087903EB00434979D4
:1014500003EB016363498D681D44002E56D0012EB5
:1014600003D0022E06D000272BE05B428B600027C2
:101470003D4626E05C4B9F68EF1B22E058498B7984
:10148000C87903EB0023087A03EB0043497A03EBA6
:1014900001635449CD681D44002E39D0012E03D07C
:1014A000022E06D000270CE05B42CB6000273D46B1
:1014B00007E04D4BDF68EF1B03E000273D4600E0EF
:1014C0000027022E26D0484B43F82450474B19687A
:1014D000474A42F824101A68464BA3FB02135B09E3
:1014E000642101FB1323092B08D8012E06D0424B9F
:1014F0001B68022B50DC01333F4A1360022E5AD086
:10150000284603B0BDE8F0830027DAE70027D8E7D4
:101510000027D6E7B2F57A7F1EDB1046FEF76AFF9A
:101520000022364BFFF7FAF8804689462F4B1868A1
:101530002F4B53F82430C01AFEF74CFF02460B46DF
:1015400040464946FEF7C0FFFFF758FA844677B990
:10155000254B43F82450B9E7244B1B68244A52F822
:1015600024209B1A4FF4967C0CFB03FCEFE787EAE0
:10157000E773A3EBE77363450CDC1B4B43F8245084
:10158000A4E71F4A1A44092151700133072BF8DDE3
:1015900000279BE70023F9E7134883684268016846
:1015A000CDF804C0C0680090164806F01DFB124B31
:1015B00000221A60A2E70D4B1A680E4BA3FB021320
:1015C0005B09642101FB1323092B01D93D4697E7F1
:1015D0002B463A4621460C4806F006FB3D468FE76F
:1015E000680000201403002040040020340C002078
:1015F000300400201F85EB51C40300200000184078
:1016000030000020B4AD0008ECAD00080000000080
:101610002DE9F04F89B006468A46CDE90423DDF86E
:101620004880149C9DF85450AB1EDBB2012B1DD991
:10163000D4E90223D8E90201FEF78EFD029021F0E1
:101640000047D4E90423CDE90023A44B1A68A44B36
:10165000A3FB02135B09642101FB1323092B1FD990
:10166000032D4CD8DFE805F033647D94D8E90023DE
:10167000CDE90023D4E90012CDE9021200220023B3
:10168000D4E90201FEF720FFDDE90223FEF764FD45
:10169000DDE90023FEF762FD029021F00047D0E76C
:1016A000DDE9000107F076FECDE906010298394632
:1016B00007F070FEFFF7A2F98146DDE90601FFF7AA
:1016C0009DF94A460146874806F08EFAC8E7D4E9F4
:1016D0000223D8E90201FEF73FFD04460D46002231
:1016E0000023FFF763F9002869D100220023204678
:1016F0002946FFF779F9002864D04FF0000B00224B
:10170000794B02983946FFF76FF9002800F069819C
:10171000BBF1010F00F0C180BBF1000F67D0BBF13E
:10172000020F00F026810024A1462546A04672E162
:10173000D4E90223D8E90201FEF70EFD04460D4666
:1017400000220023FFF732F900283ED100220023B7
:1017500020462946FFF748F9002839D04FF0010B01
:10176000CDE7D4E90023D8E90001FEF7F5FC0446F3
:101770000D4600220023FFF719F960BB0022002369
:1017800020462946FFF730F940B34FF0010BB6E78A
:10179000D4E90023D8E90001FEF7DEFC04460D463B
:1017A00000220023FFF702F9D8B9002200232046C7
:1017B0002946FFF719F9B8B14FF0000B9FE74FF03A
:1017C000010B9CE74FF0020B99E74FF0000B96E7F7
:1017D0004FF0020B93E74FF0000B90E74FF0020B36
:1017E0008DE74FF0010B8AE74FF0020B87E7DDF83A
:1017F000088042463B4640463946FEF7AFFC044669
:101800000D460022394BFFF7DBF878B90022384B40
:1018100020462946FFF7DEF850BB0022354B4046F4
:101820003946FEF751FE0546884602E00025DFF8FE
:10183000CC8000220023DDE90001FFF7D5F868B174
:1018400000222D4BDDE90001FEF73EFE02460B466D
:1018500028464146FEF782FC0546884600220023C2
:10186000DDE90001FFF7A2F830B90024A146D2E07B
:101870000025DFF87C80DCE700221F4BDDE900015A
:10188000FEF722FE02460B4628464146FEF764FC60
:10189000054688460024A146BDE0DDF808804246A2
:1018A0003B4640463946FEF759FC04460D460022A9
:1018B0000E4BFFF785F818BB00220D4B204629463A
:1018C000FFF788F8002840D100220A4B40463946ED
:1018D000FEF7FAFD0446894615E000BF340C0020EF
:1018E0001F85EB514CAF0008000014400000594028
:1018F00000C082400000084000405F4000C06240DD
:101900000024DFF8549200220023DDE90001FFF7F4
:101910004DF8F0B900220023DDE90001FFF764F87B
:10192000002800F0E1800022854BDDE90001FEF790
:10193000CBFD024621F0004320464946FEF70CFC51
:10194000044689460025A84665E00024DFF80C928D
:10195000D9E700227A4BDDE90001FEF7B5FD02462A
:1019600021F0004320464946FEF7F8FB044689462D
:10197000D0E700220023DDE9004520462946FFF795
:1019800033F880B16AA3D3E9002320462946FEF745
:101990009BFD69A3D3E90023FEF7E0FB05468846DB
:1019A0000024A14637E000220023DDE90001FEF714
:1019B000FDFF20B90024A1462546A0462BE05CA3EC
:1019C000D3E90023DDE90001FEF77EFD5AA3D3E948
:1019D0000023FEF7C3FB044621F000490025A8467A
:1019E00019E000220023DDE9004520462946FEF7E4
:1019F000FBFF00285AD04EA3D3E9002320462946F6
:101A0000FEF762FD4CA3D3E90023FEF7A7FB0546D2
:101A100088460024A14600224A4B284628F000416F
:101A2000FEF7E2FF50B10022002328464146FEF7B0
:101A3000DBFF00285BD00025DFF808810022414B46
:101A4000204629F00041FEF7CFFF50B100220023CD
:101A500020464946FEF7C8FF00284CD00024DFF896
:101A6000E4900022384BDDE90401FEF757FECDE992
:101A700004012A464346FEF727FDC6E90001224637
:101A80004B46DDE90401FEF71FFDCAE900012F4BBB
:101A90001A682F4BA3FB02135B09642101FB13237C
:101AA000092B2CD9002009B0BDE8F08F00220023BB
:101AB000DDE90001FEF77AFF20B90024A1462546A2
:101AC000A046A8E71AA3D3E90023DDE90001FEF749
:101AD000FBFC19A3D3E90023FEF740FB044621F0E9
:101AE00000490025A84696E70025A84693E700256B
:101AF000DFF86C80A2E70024DFF86490B1E7DDE94D
:101B0000000107F047FC04460D460298394607F0ED
:101B100041FCFEF773FF064620462946FEF76EFF9E
:101B20005B46324601460B4806F05EF8BAE700BF56
:101B30000000000000C062400000000000C05240F1
:101B400000405F4000908A4000408F40340C0020ED
:101B50001F85EB516CAF000800C0624000C082409E
:101B600000908AC010B50221002005F0FBFE40B1B4
:101B7000084B00241C8103229A7206F0FDF92046CE
:101B800010BD044B4FF461721A8101229A724FF01A
:101B9000FF30F5E73C00002010B50121002005F0E2
:101BA000E1FE40B1084B00245C8003221A7106F06C
:101BB000DDF9204610BD044B4FF461725A800122BA
:101BC0001A714FF0FF30F5E73C00002000000000E4
:101BD0002DE9F04FB9B082460F46A94C4822214664
:101BE00026A809F059F8902204F1480102A809F04A
:101BF00053F800240094019400E00134082C1EDC0A
:101C00009BA3D3E9002338A901EBC40555E93601AC
:101C1000FEF75AFC45E93601022CEEDD0020994919
:101C200038AB03EBC40343E9360104F1090338AAD6
:101C300002EBC3030020944943E93601DDE71FB9F5
:101C400002230193009CBDE0012F06D0022FF9D1A1
:101C50000123009302230193F4E701230193F1E7A9
:101C600006F078F90646B6E006F07AF90646B2E0E4
:101C7000002DB8BF6D42C5F50065C2E004EBC4039A
:101C80001A440CEBC20252E9368900284EDD404668
:101C9000494607F07FFBFEF7B1FE04EB44035A0010
:101CA0007A4B134458800022002340464946FEF7F1
:101CB00073FE80B304EB44035A00744B13440322B5
:101CC0001A71734B01221A55002F58D1704B1B7893
:101CD000002B66D06E4B5B78002B40F099804FF064
:101CE000000B60E00132082ACFDC80EAE071A1EB52
:101CF000E07104EBC40313440DF1E00C0CEB83031F
:101D000053F8483C9942B9DA082AEBD14FF0000861
:101D10004FF00009E6E704EB44035A005B4B134421
:101D200001221A715A4B00221A55CDE74046494606
:101D300007F030FBFEF762FE04EB44035A00534BFE
:101D4000134458800022002340464946FEF724FEF3
:101D500050B104EB44035A004C4B134403221A7154
:101D60004B4B01221A55AFE704EB44035A00474B93
:101D7000134402221A71464B00221A55A4E7012F80
:101D800008D0022F0FD1424B5B78002B46D04FF08A
:101D9000010B08E03E4B1B78002B3CD04FF0010BB1
:101DA00001E04FF0000B3B4B1A683B4BA3FB0213C7
:101DB0005B09642101FB1323092B02D88CB3012C8E
:101DC00040D00134019BA3424DDD002C3FF448AFCD
:101DD000012C3FF449AF7342C6F30A05C3F30A036B
:101DE00058BF5D425046FEF705FB23A3D3E900230D
:101DF000FEF76AFB07F0CEFAFEF700FE002DFFF6B5
:101E000037AF4FF400622946FEF7A4FF00226AE7CD
:101E10004FF0010BC7E74FF0000BC4E74FF0000B8A
:101E2000C1E72846FEF7E6FA00221C4BFEF74CFB02
:101E300007F0B0FAFEF7E2FD52460146184805F0F9
:101E4000D3FEBEE72846FEF7D5FA0022134BFEF775
:101E50003BFB07F09FFAFEF7D1FD524601461148C1
:101E600005F0C2FEADE7584639B0BDE8F08F00BFBF
:101E7000713D0AD7A370ED3F176CC1166CC11640B7
:101E8000C8AC000800B08D4000208C403C00002011
:101E9000D0030020340C00201F85EB510080C63F8A
:101EA000C4AF0008E0AF000838B5294B1B783BBB36
:101EB000284B1B7843B1274B5B7863B1254B1B78CC
:101EC000012B0FD0002038BD0121E120FFF780FE5B
:101ED000204B1870EFE70221DC20FFF779FE1D4B45
:101EE0005870EBE71B4B5B78012B01D00020EAE731
:101EF000174B01221A70174B002018705870E2E738
:101F000004460121E120FFF763FE0221DC20FFF7F8
:101F10005FFE65690022104B206925F00041FEF745
:101F20004FFD50B90D4B03221A749A750022DA81C5
:101F30009A82074B1A700120C5E7084B01221A74D8
:101F400002229A7540F66602DA819A820020BAE788
:101F5000B0030020A8040020004066403C000020A0
:101F60002DE970430024012C6FDC3D4D284606F01E
:101F700080FA0646284606F06BFA74B1012C67D148
:101F8000404203255EB9374A6B005819410011449D
:101F90000020087148800134E5E70225F2E7002EB1
:101FA00035DD1CB1012C2AD001204FE005EB4503A3
:101FB0005A002C4B134401221A71002EB8BF7642EE
:101FC0009C2303FB06F603FB00F0FEF713FA22A3A3
:101FD000D3E90023FEF778FA804689463046FEF7BB
:101FE00009FA42464B46FEF7B9F8FEF707FD42F202
:101FF0000F73984220DC002820DA00201EE005EB59
:1020000045035A00174B134402221A71D5E71CB13D
:10201000012C09D0012019E005EB45035A00114BB2
:10202000134402221A71C8E705EB45035A000D4B11
:10203000134401221A71C0E742F20F7005EB450507
:102040006A00084B13445880A5E70020BDE8708360
:102050000120FBE7AFF300809A9999999999D93FAC
:10206000380C00203C0000202DE9F04F9DB09DF879
:102070009C709DF8A050012976D01E460446002A87
:1020800040F09880A04B1B78002B37D19F4B8EA13E
:10209000D1E90001C3E900018DA1D1E90001C3E943
:1020A00002018DA1D1E90001C3E904018CA1D1E9AC
:1020B0000001C3E906014FF00008DFF86492C3E9AC
:1020C000088900200021C3E90A01C3E90C89C3E99A
:1020D0000E0185A1D1E90001C3E9100184A1D1E974
:1020E0000001C3E912010FF21029D9E90089C3E9FF
:1020F0001489C3E91601844B01221A70844B9B8A10
:102100001BB9834AD289002A56D0814AD089184403
:10211000FEF770F900227F4BFEF7D6F9FEF76EFC52
:102120000646002F4AD10025032D6ADC7A4B324641
:1021300002212846FFF73AF91CAB03EB850343F86D
:10214000580C0135F0E7CA00831800240025C3E9C4
:102150000045724B1344C3E9004501310229F2DD09
:1021600000201DB0BDE8F08F0021F7E7D7E900019E
:102170006A4B03EBC503C3E900010135022DEFDC17
:10218000735D002BF9D0EB00269AD7182344D7E9CA
:102190000001C3E90001012DE8D859A3D3E90023C8
:1021A000D7E90001FEF790F95C4B03EBC503C3E9E7
:1021B0000001E2E70025E1E70026B2E7032D20D881
:1021C000DFE805F024240202534D2B46324602215B
:1021D0000020FFF7EBF806902B4600220221012099
:1021E000FFF7E4F807902B46324602210846FFF736
:1021F000DDF808902B46002202210320FFF7D6F8D5
:102200000990454B1B78FBB900274FE0424D2B4608
:10221000002202211046FFF7C9F806902B463246ED
:1022200002210120FFF7C2F807902B46002202216D
:102230000846FFF7BBF808902B46324602210320E0
:10224000FFF7B4F80990DCE70023032B07DC1CAA96
:1022500002EB8302002142F8581C0133F5E72E4BB4
:1022600000221A70D0E705EB8702284B03EBC2036C
:10227000D3E900891CAB03EB850353F8580CFEF738
:10228000B9F802460B4640464946FEF71DF902469C
:102290000B461CA901EBC70656E90601FDF75EFFD8
:1022A00046E906010135032DDDDD0137022F39DC5A
:1022B000002000211CAB03EBC70343E90601002506
:1022C000F1E700BFAFF300800A5D4647DB93ACBF88
:1022D0007362E6D02773E1BF0A5D4647DB93AC3FEC
:1022E0001A3B335EB019DD3FCD7E4F03344AD33FF6
:1022F0004A1B3DA0F550CF3FCD7E4F03344AD3BF9C
:1023000004B6B7E795294B40C103002030030020F5
:102310003C0000200000E03F9A0300201804002049
:102320000000E0BF8E4BD3E90467DDE91A23304695
:102330003946FDF713FFCDE914017FA3D3E900234C
:1023400030463946FEF7C0F87DA3D3E90023FEF7F7
:10235000BBF87DA3D3E9002307F0B2F88146884695
:1023600077A3D3E90023484628F00041FEF732FB6B
:1023700080B10022002348464146FEF72BFB00288F
:102380005CD071A3D3E9002348464146FDF7E4FE43
:1023900081468846724DD5E90067DDE916AB4846AF
:1023A000414606F0ABFFCDE9000102460B46504620
:1023B0005946FEF789F802460B4630463946FDF786
:1023C000CDFECDE90401DDE918674846414607F036
:1023D0002FF802460B46CDE9022330463946FEF778
:1023E00073F802460B46DDE90401FDF7B7FECDE9BF
:1023F0001001D5E90289DDE9022350465946FEF76E
:1024000063F802460B4640464946FDF7A5FE804666
:10241000894632463B46DDE90001FEF755F80246A3
:102420000B4640464946FDF799FECDE912010322CD
:1024300010A92846FEF712FD002516E042A3D3E9B5
:10244000002348464146FDF789FE81468846A1E7BC
:102450001CAB03EBC5063EA3D3E9002356E90C01F0
:10246000FEF732F846E912010135012DF0DD3AA3FD
:10247000D3E90023DDE91401FEF726F8CDE90E01CA
:102480000022384B07F01CF806460D4602460B4664
:10249000CDE90E230022344B304625F00041FEF7F3
:1024A00099FA78B10022002330462946FEF792FAC5
:1024B000002835D000222B4B30462946FDF74CFE34
:1024C000CDE90E0103220AA92046FEF7C7FC274BDF
:1024D0001A68274BA3FB02135B09642101FB13233A
:1024E000092B3FF63DAED4E90067D4E9028900220A
:1024F000204BD4E90401FDF7E7FFFEF77FFA05461C
:1025000040464946FEF77AFA044630463946FEF719
:1025100075FA2B4622460146174805F065FB1FE673
:102520000022104B30462946FDF718FECDE90E017A
:10253000C8E700BFAFF30080682FA1BD84F6F23E6C
:10254000182D4454FB210940182D4454FB211940F7
:10255000D221337F7CD9923FABAAAAAAAAAA6A3F0A
:10256000180400200080764000806640340C002073
:102570001F85EB510000594098AF00080000000093
:102580002DE9F04F8FB082468B46CDE90423D0E988
:10259000004522462B467849D1E90001FEF7FCF9B7
:1025A000C0B1DAE902237449D1E90201FEF7F4F976
:1025B00080B1DBE900237149D1E90001FEF7ECF9B4
:1025C00040B1DBE902236D49D1E90201FEF7E4F9EC
:1025D000002833D16A4B01221A70674BC3E90045CA
:1025E000DAE90289C3E90289DBE90001634BC3E947
:1025F0000001DBE90267C3E9026722462B46FDF7CB
:10260000ABFD04460D4600220023FEF7C5F930B3AA
:1026100042464B4630463946FDF79EFD00220023D8
:10262000FEF7D8F9B8B1574B02221A7000220023E6
:102630005549C1E900235549C1E90023504B1B7896
:10264000002B00F091804F4B1B78032B28D8DFE83C
:1026500003F0556C21404B4B03221A70E6E74246CB
:102660004B4630463946FDF777FD00220023FEF742
:1026700093F90028DAD00022002320462946FEF7ED
:10268000A9F918B13F4B00221A70CFE73D4B012248
:102690001A70CBE73E4B1B786BB13D4B5B788BB12F
:1026A0003B4B1B78012B40F05981394B5B78012B58
:1026B00052D0042530E10121B420FFF789FA344BD0
:1026C0001870EAE70221AF20FFF782FA304B58700A
:1026D000E6E72F4B1B7853B12D4B5B78002BDFD1F6
:1026E0000221AF20FFF774FA294B5870D8E7012177
:1026F000B420FFF76DFA264B1870EDE7244B1B78DA
:102700005BB1234B5B78002BCAD1022140F2091048
:10271000FFF75EFA1E4B5870C2E701214FF4877035
:10272000FFF756FA1A4B1870EBE7194B1B785BB1A1
:10273000174B5B78002BB3D1022140F20910FFF751
:1027400047FA134B5870ABE701214FF48770FFF73E
:102750003FFA0F4B1870EBE70023094A13700C4A3D
:10276000137053700425D7E0064B1B78032B19D840
:10277000DFE803F099A410905004002070040020BA
:10278000A8030020C803002098040020B8030020FC
:10279000A40400200121B320FFF71AFA0221B0207F
:1027A000FFF716FA704C714E3378029301230193B0
:1027B000009407AB002211462046FFF755FC337802
:1027C00003939DF860300293DDE90423CDE90023F3
:1027D00023465A4651460CA8FEF74EF90546337873
:1027E00003930294CDF804B0CDF800A0DDE90C23EA
:1027F00008A90AA8FEF70CFFDDE90C67DDE90A234A
:1028000030463946FDF7AAFC80468946584BC3E955
:102810000089DDE9082330463946FDF79FFC06466E
:102820000F46544BC3E90067002200234046494647
:10283000FEF7BCF800284CD1002200233046394670
:10284000FEF7B4F800284AD145A3D3E9002348494C
:10285000D1E90001FEF7C8F828B1454B40A1D1E904
:102860000001C3E900013EA3D3E900234149D1E9B6
:102870000001FEF7B9F828B13E4B39A1D1E90001BA
:10288000C3E90001394B1B78032B43D8DFE803F081
:10289000482D2D480121B420FFF79AF90221AF20DD
:1028A000FFF796F97EE701214FF48770FFF790F963
:1028B000022140F20910FFF78BF973E701214FF471
:1028C0008770FFF785F9022140F20910FFF780F9C0
:1028D00068E7274B00200021C3E90001ACE7254B46
:1028E00000200021C3E90001AEE7234C012323743B
:1028F0000223A3751E4BD3E9000106F04BFDFEF742
:102900007DF8E0811B4BD3E9000106F043FDFEF7A3
:1029100075F8A082032D19D028460FB0BDE8F08FBE
:10292000154C022323740123A375124BD3E9000134
:1029300006F030FDFEF762F8E0810D4BD3E90001AF
:1029400006F028FDFEF75AF8A082E3E70A4B0022C2
:10295000DA819A8203221A749A75DDE70425DBE78F
:10296000000000008087C34000040020C80300204E
:1029700098040020B80300203C00002008B501F0B6
:102980008BFE002008BD0000F0B58FB0894B9B780E
:1029900013F0400F02D1884B01221A70854B9A78B0
:1029A0005A789B7813F0100F02D1844B01221A70D1
:1029B000804B9B7803F00303032B04D07D4B9B7863
:1029C00013F0010F02D17E4B01221A70794B9B78D4
:1029D00003F00303032B01D0764B9B78754B9B7858
:1029E00003F00C030C2B04D0724B9B7813F0040FF4
:1029F00002D1744B01221A706E4B9B7803F00C03CA
:102A00000C2B04D06B4B9B7813F0080F02D16E4B4C
:102A100001221A70674B5A785A785A785B784FF4CB
:102A20000061002004F09EFF10B1684B01221A7073
:102A30002021022004F096FF10B1654B01221A708C
:102A40004FF48051002004F08DFF10B1614B012242
:102A50001A704FF48071022004F084FF10B15E4BB5
:102A600001221A704FF40061002004F07BFF50B97E
:102A7000564B1B783BB1594B01221A700023584A20
:102A80001370524A13704FF48071022004F06AFFF1
:102A900050B9514B1B783BB10023504A1370504A38
:102AA000012111704C4A13700121022004F05AFFD9
:102AB000002873D14B4B01221A703E4B9B7803F0D8
:102AC0000303032B13D03B4B9B7813F0010F0ED065
:102AD0003B4B1B785BB1444A136801331360042BF2
:102AE00002DD134600221A60354B00221A70314B6A
:102AF0009B7803F00C030C2B07D02E4B9B7813F024
:102B0000040F02D02F4B1B783BB92021022004F088
:102B100029FF70B92E4B1B785BB1344B1B780C2B03
:102B200040D00133314A13700023264A1370284ADB
:102B30001370204B9B7803F00C030C2B07D01D4B1C
:102B40009B7813F0080F02D01F4B1B7843B94FF44A
:102B50008051002004F006FF68B91E4B1B7853B16A
:102B6000224B1B7813BB214B0C221A700023164AF0
:102B70001370184A13701D4B1B780C2B3AD8DFE8E2
:102B800013F0C80A8600AB0039003900390039005B
:102B900039003900D000430137008300114B002277
:102BA0001A708AE7114B00221A70BDE7013B0F4AE9
:102BB0001370DBE7380C002090030020DC040020B9
:102BC000DE040020A0040020C0030020E403002055
:102BD000E3030020E1030020E2030020B103002012
:102BE00001000020AD0300202C0300200300002082
:102BF000FEF718F9764B1B78002B01F04584754BD6
:102C00005B7813F0080F04D0724B5B7813F0020F5F
:102C100005D14FF48071022004F0A4FE20BB0DF119
:102C20001703002201211046FEF7C0FB0DF1170328
:102C3000002201210846FEF7B9FB0DF1170300221F
:102C400001210220FEF7B2FB0DF117030022012142
:102C50000320FEF7ABFB6048002202920192009035
:102C60000DAB0121FFF700FA5C4B1A685C4BA3FB2C
:102C700002135B09642101FB1323092B41F2138426
:102C8000002318460FB0F0BDFEF7CCF8B2E7554B65
:102C90001B7893B9544B1B78002BABD0534B1B784C
:102CA000002BA7D00020FEF7E9F8514B187002283E
:102CB000A0D14E4B00221A709CE74E4B0C22DA71C9
:102CC0000A221A720220FEF7D9F8494B00221A7024
:102CD000464B01221A70DDE7424B1B789BB9424BF1
:102CE0001B78002B86D0414B1B78002B82D0012013
:102CF000FEF7C4F83E4B187002287FF47BAF3B4BC5
:102D000000221A7076E73B4B0C22DA7108221A7205
:102D10000220FEF7B3F80123354A1370334A1370CB
:102D2000DDE72C4B9B7813F0400F20D0324B1B7803
:102D3000EBB101232D4A1370304A1370304B00223F
:102D40001A70244B9B7813F0200F06D00023274ADB
:102D500013702A4A13702A4A1370244B1B78C3B984
:102D6000224A1370254A1370254A137042E7194B03
:102D70009B7813F0100FE4D0224B1B78002BE0D08F
:102D800001231A4A13701D4A002111701C4A137046
:102D9000D7E71A4B1B787BB9194B1B7893B9144BA7
:102DA0001B78022B7FF426AF0023104A1370134ABE
:102DB0001370134A13701DE70020FEF75FF80C4BE9
:102DC0001870ECE70120FEF759F8094B1870E6E798
:102DD00003000020380C0020E8030020340C002001
:102DE0001F85EB5101000020B1030020AA03002041
:102DF000AB0300203000002090030020AC03002033
:102E0000A9030020DC0400208F4B5B7813F0080F2F
:102E100004D08D4B5B7813F0020F5BD18A4B9B780B
:102E200013F0400F7CD0894B1B78002B78D0884B57
:102E300001221A700023874A1370874A1370874A49
:102E40001370874A1370874A13707F4B9B7813F077
:102E5000200F13D00023844A1360844A1360844AED
:102E6000012111707A4A13707A4A13707A4A1370EA
:102E70007A4A13707A4A13707A4A1370744B1B782B
:102E80007BB9744B1B7863B9734B1B784BB9734B8D
:102E90001B7833B9724B1B781BB9724B1B78002B14
:102EA00056D06F4B1B78002B00F08B80714B1C6849
:102EB0000C2C00F28680DFE814F05A00EF00AF011E
:102EC00011029B02F3025503DF0337049B0429051B
:102ED0008405D2050DF11703002201211046FEF7EB
:102EE00065FA0DF11703002201210846FEF75EFA8C
:102EF0000DF11703002201210220FEF757FA0DF110
:102F00001703002201210320FEF750FA5A4800223D
:102F10000292019200900DAB0121FFF7A5F87DE729
:102F2000494B9B7813F0100F8FD0544B1B78002B1C
:102F30008BD00023464A1370464A1370464A1370DA
:102F4000464A1370464A01211170464A13707CE7C5
:102F50000024454B1C60454B1C603D4B1C70444B92
:102F600001221A70FDF75EFF424B1C6099E7404B4F
:102F70001B78002B38D0404800210291019100902D
:102F80000DAB0A46FFF770F83D4900220023C1E966
:102F90000023C1E902233B49C1E9002326A3D3E969
:102FA0000023C1E9022304E0374B234403225A7073
:102FB0000134072CF8DD2E4B00221A70334B1B789E
:102FC00043B3234B1B78002B3FF414AE294B1C68F2
:102FD000062C3FF60FAEDFE814F0AD050106C20681
:102FE00051079507DA07470801230193009314A3BB
:102FF000D3E9002323492248FFF7C2FA244B187073
:103000000328DBD11A4B01221A701A4A13680133C4
:103010001360D3E70022019200921346012102209F
:10302000FEF738F91B4B18700128CAD1174B012243
:103030001A70C6E7AFF300800000000000E8AC4063
:10304000000000000094B140380C002090030020E4
:10305000A1040020D8040020D9040020DA040020B4
:10306000DB040020A2040020DC03002094030020E5
:1030700002000020D4030020E8030020DC0400202C
:10308000B0040020C004002030000020AE03002067
:1030900004000020AF030020A54B1B7833BBA54BD9
:1030A0001B68A54A12689B1AB3F5FA6F4AD3A14B65
:1030B0001B689B1A40F6B7318B426CD99D4B1B683D
:1030C0009A1AB2F57A6F48D20121F020FEF780FDFE
:1030D0000221EB20FEF77CFD984B02221A7401229C
:1030E0009A7540F6AC52DA819A8236E0944D00240B
:1030F0000294019400950DAB224621462846FEF726
:10310000B3FF904B00200021C3E90001D5E9020183
:10311000C3E902018C4B00268C4FC3E90067C3E969
:103120000201234604E08A4A1A4402215170013305
:10313000072BF8DD7E4B00221A707E4B1A687E4BFF
:103140001A6012E001230193009300227F4B7E4915
:103150007C48FFF715FA7F4B1870764B1B68764A50
:1031600012689B1AB3F57A6F29D27B4B1B78002B20
:103170007FF427AF00220192009213460121022022
:10318000FEF788F8754B187001287FF41AAF724B60
:1031900001221A7015E701214FF49670FEF718FD11
:1031A000022140F22710FEF713FD644B02221A742D
:1031B00001229A7540F6AC52DA819A82CDE7654BCE
:1031C00004221A7000245C4B1C60FDF73DFE0125B3
:1031D0008DF834508DF835408DF836500022604B14
:1031E000CDE906234AA3D3E90023CDE90823002231
:1031F0000023CDE90A230294019406AB00930DABA2
:103200002A4621464E48FEF72FFF494B1D70554A6E
:1032100013682B441360A8E74F4B1B7893B1444BC2
:103220001B78FBB94B4B1B78032B47D00123019331
:10323000009300224C4B44494248FFF7A1F9454B0B
:103240001870BEE60022019200921346012102206E
:10325000FEF720F8414B18700128E0D13E4B0122C7
:103260001A70DCE7364D00240294019400950DABF2
:10327000224621462846FEF7F7FE324B26A1D1E929
:103280000001C3E90001D5E90201C3E902012E4BA7
:1032900023A7D7E90067C3E90067C3E90201234612
:1032A00004E02B4A1A44042151700133072BF8DD46
:1032B00000231F4A1370274A137082E6264B1B789F
:1032C000002B3FF47EAE1A4B01221A70254A136878
:1032D00001331360204B00221A7072E6144B1B78E6
:1032E000002B45D11B4B1B78032B6CD00123019382
:1032F00000930DA3D3E9002313491248FFF740F9C7
:10330000144B18700B4B1A68184B1A6059E600BF23
:103310000000000000E8AC400000000000C0674072
:103320000000000000589BC0000000000070A74093
:1033300002000020340C0020940300203C000020F8
:10334000E8030020B0040020C004002000409F409B
:103350003000002004000020AE030020AF03002056
:1033600000006940D40300200040AF402403002047
:10337000934D00240294019400950DAB2246214602
:103380002846FEF771FED5E900018E4EC6E9000120
:10339000D5E90223C6E902238B4BC3E900017EA1D4
:1033A000D1E90001C3E90201234604E0874A1A4437
:1033B000052151700133072BF8DD0023844A137077
:1033C000844A1370FDE5844A537843F03003537008
:1033D000824B1B68824A12689B1AB3F5FA7F7FF60C
:1033E000F0AD7B4B01221A7014447E4B1C60E8E563
:1033F000774B1B789BB9774B1B78032B3BD0012372
:10340000019300930022784B6F496E48FFF7B8F89C
:10341000704B1870714B1A68714B1A60D1E5684D8A
:1034200000240294019400950DAB224621462846C3
:10343000FEF71AFED5E90001624BC3E9000156A769
:10344000D7E90067C3E902675F4BC3E9000154A1F4
:10345000D1E90001C3E90201234604E05B4A1A44B2
:10346000062151700133072BF8DD0023584A1370F1
:10347000584A1370A5E5584A537843F00403537033
:10348000564B1B68564A12689B1AB3F5FA7F7FF6B3
:1034900098AD4F4B01221A701444524B1C6090E5BA
:1034A000524B1B7893B14A4B1B78FBB9494B1B78A5
:1034B000032B47D001230193009300224C4B424938
:1034C0004048FFF75DF8434B18707AE500220192FF
:1034D0000092134601210220FDF7DCFE454B1870D7
:1034E0000128E0D1414B01221A70DCE7344D002461
:1034F0000294019400950DAB224621462846FEF722
:10350000B3FD304B28A1D1E90001C3E90001D5E9A1
:103510000201C3E902012C4B25A7D7E90067C3E9E3
:103520000067C3E90201234604E0284A1A44042143
:1035300051700133072BF8DD0023254A1370254A0B
:1035400013703EE5294B1B78002B3FF43AAD204B1E
:1035500001221A70234A136801331360234B00229F
:103560001A702EE51A4B1B78002B45D1194B1B788E
:10357000032B6CD00123019300930FA3D3E9002305
:1035800011491048FEF7FCFF124B1870134B1A68D4
:10359000134B1A6015E500BF000000000030B14079
:1035A000000000000078AE400000000000589BC002
:1035B000000000000088A3C0000000000070A740C9
:1035C000E8030020B0040020C004002030000020E8
:1035D00002000020040000202C000020340C0020F9
:1035E00024030020D403002000409F40AE030020AD
:1035F0000040AF40AF030020954D00240294019499
:1036000000950DAB224621462846FEF72DFDD5E953
:103610000001904EC6E90001D5E90223C6E9022364
:103620008D4BC3E9000180A1D1E90001C3E902018A
:10363000234604E0894A1A44052151700133072BBF
:10364000F8DD0023864A1370864A1370B9E4864A6F
:10365000537843F030035370844B1B68844A1268DC
:103660009B1AB3F5FA7F7FF6ACAC7D4B01221A7042
:103670001444804B1C60A4E4794B1B789BB9794BB4
:103680001B78032B3BD001230193009300227A4B3C
:1036900071497048FEF774FF724B1870734B1A68CB
:1036A000734B1A608DE46A4D0024029401940095D6
:1036B0000DAB224621462846FEF7D6FCD5E900018F
:1036C000644BC3E9000158A7D7E90067C3E9026763
:1036D000614BC3E9000156A1D1E90001C3E9020130
:1036E000234604E05D4A1A44062151700133072B3A
:1036F000F8DD00235A4A13705A4A137061E45A4A9B
:10370000537843F004035370584B1B68584A1268AF
:103710009B1AB3F5FA7F7FF654AC514B01221A7015
:103720001444544B1C604CE4544B1B7893B14C4BE9
:103730001B78FBB94B4B1B78032B48D0012301931B
:10374000009300224E4B44494248FEF719FF454B77
:10375000187036E4002201920092134601210220E3
:10376000FDF798FD474B18700128E0D1434B01222B
:103770001A70DCE7364D00240294019400950DABDD
:10378000224621462846FEF76FFC324B2AA1D1E99A
:103790000001C3E90001D5E90201C3E902012E4B92
:1037A00027A7D7E90067C3E90067C3E902012346F9
:1037B00004E02A4A1A44042151700133072BF8DD32
:1037C0000023274A1370274A1370FFF7FABB2B4BCD
:1037D0001B78002B3FF4F5AB214B01221A70254AD0
:1037E000136801331360254B00221A70FFF7E9BB01
:1037F0001B4B1B78002B47D11A4B1B78032B6FD028
:1038000001230193009310A3D3E900231249114827
:10381000FEF7B6FE134B1870144B1A68144B1A605F
:10382000FFF7CFBBAFF30080000000000030B140D5
:10383000000000000078AE400000000000ECA3C0D3
:10384000000000000064A9C0000000000070A74054
:10385000E8030020B0040020C00400203000002055
:1038600002000020040000202C000020340C002066
:1038700024030020D403002000409F40AE0300201A
:103880000040AF40AF0300209D4D002402940194FE
:1038900000950DAB224621462846FEF7E5FBD5E90B
:1038A0000001984EC6E90001D5E90223C6E90223CA
:1038B000954BC3E900018CA1D1E90001C3E90201E4
:1038C000234604E0914A1A44052151700133072B25
:1038D000F8DD00238E4A13708E4A1370FFF771BB18
:1038E0008D4A537843F0300353708C4B1B688C4ADD
:1038F00012689B1AB3F5FA7F7FF663AB844B012203
:103900001A701444874B1C60FFF75BBB804B1B781D
:10391000A3B9804B1B78032B3DD001230193009367
:103920000022814B78497748FEF72AFE794B1870C0
:103930007A4B1A687A4B1A60FFF743BB704D00242C
:103940000294019400950DAB224621462846FEF7CD
:103950008BFBD5E900016B4BC3E9000162A7D7E9F6
:103960000067C3E90267684BC3E9000160A1D1E9C0
:103970000001C3E90201234604E0644A1A44062117
:1039800051700133072BF8DD0023614A1370614A3F
:103990001370FFF716BB604A537843F0040353706B
:1039A0005E4B1B685E4A12689B1AB3F5FA7F7FF67E
:1039B00008AB574B01221A7014445A4B1C60FFF796
:1039C00000BB534B1B78002B32D0584A136801338D
:1039D0001360632B7FF7F5AA494D002402940194EC
:1039E00000950DAB224621462846FEF73DFB454B90
:1039F00041A1D1E90001C3E90001D5E90201C3E910
:103A00000201414B00260027C3E90067C3E9020118
:103A1000234604E03D4A1A440F2151700133072B1D
:103A2000F8DD0023414A1360394A1370FFF7C9BA21
:103A300001230193009300223D4B33493148FEF7A7
:103A40009FFD344B187003287FF4BBAA304B012232
:103A50001A70344A136801331360FFF7B2BA2C4B63
:103A60001B784BB3264D00240294019400950DABB6
:103A7000224621462846FEF7F7FAD5E90001214BF8
:103A8000C3E900011AA7D7E90067C3E902671E4B23
:103A9000C3E9000100200021C3E90201234604E03C
:103AA0001A4A1A440E2151700133072BF8DD184BC6
:103AB00000221A70FFF785BA0123019300930022B8
:103AC0001B4B11490F48FEF75BFD124B1870032882
:103AD0007FF477AA0E4B01221A70124A1368013341
:103AE0001360FFF76EBA00BF000000000030B14065
:103AF000000000000078AE400000000000C8A9C02F
:103B0000E8030020B0040020C004002030000020A2
:103B100002000020040000202C000020340C0020B3
:103B200024030020D403002000409F40DC03002039
:103B30000040AF40A44B1B78002B39D0A348002194
:103B40000291019100900DAB0A46FEF78DFAA04953
:103B500000220023C1E90023C1E902239D49C1E9F4
:103B6000002395A3D3E90023C1E90223072C05DC38
:103B7000994B234403225A700134F7E7924B0022F9
:103B80001A70964B1B78002B7FF434A80022019208
:103B90000092134601210420FDF77CFB904B187026
:103BA00001287FF427A88D4B01221A70FFF722B855
:103BB00001230193009382A3D3E90023854984481C
:103BC000FEF7DEFC874B18700328DAD17E4B01220A
:103BD0001A70854A136801331360D2E77A4B1B7859
:103BE00033BB824B1B68824A12689B1AB3F5FA6F8B
:103BF0004AD37E4B1B689B1A40F6B7318B426DD976
:103C00007A4B1B689A1AB2F57A6F48D20121F020DC
:103C1000FDF7DEFF0221EB20FDF7DAFF754B0222F4
:103C20001A7401229A7540F6AC52DA819A8236E013
:103C3000664D00240294019400950DAB2246214666
:103C40002846FEF711FA624B00200021C3E900016B
:103C5000D5E90201C3E902015E4B0026664FC3E9C4
:103C60000067C3E90201234604E05B4A1A440221CB
:103C700051700133072BF8DD534B00221A705B4B58
:103C80001A685B4B1A6012E0012301930093002233
:103C9000594B50494E48FEF773FC524B1870534B2A
:103CA0001B68534A12689B1AB3F57A6F2AD24B4BA2
:103CB0001B78002B7EF49EAF0022019200921346E7
:103CC00001210420FDF7E6FA454B187001287EF427
:103CD00091AF424B01221A70FEF78CBF01214FF4C5
:103CE0009670FDF775FF022140F22710FDF770FF77
:103CF000404B02221A7401229A7540F6AC52DA81C6
:103D00009A82CCE7374B04221A700025384B1D608D
:103D1000FDF79AF801248DF834408DF835408DF880
:103D200036400022354BCDE9062323A3D3E90023F7
:103D3000CDE9082300220023CDE90A23029501954D
:103D400006AB00930DAB224629462048FEF78CF9BE
:103D50001D4B1C70244A136823441360A7E71F4BB4
:103D60001B78C3B1184B1B78002B49D11D4B1B7816
:103D7000032B75D1194B1B78002B3EF43BAF124B34
:103D800001221A70184A136801331360134B002282
:103D90001A70FEF72FBF00220192009213460121F4
:103DA0000420FDF777FA0E4B18700128DAD10B4B7F
:103DB00001221A70D6E700BF000000000044B640A0
:103DC000000000000094B14002000020E803002041
:103DD000B0040020C004002030000020AE0300200A
:103DE000AF03002004000020D4030020340C002086
:103DF000940300203C00002000409F4000006940E8
:103E00008F4D00240294019400950DAB224621466B
:103E10002846FEF729F98B4A537843F0080353707C
:103E2000894B7DA1D1E90001C3E90001D5E9020177
:103E3000C3E90201854B7AA7D7E90067C3E90067A8
:103E4000C3E90201234604E0814A1A440421517067
:103E50000133072BF8DD7F4B00221A70FEF7CABE34
:103E6000012301930023009300227B4B774976487E
:103E7000FEF786FB794B1870FEF7BCBE754B1B78BE
:103E800043B36F4D00240294019400950DAB22467C
:103E900021462846FEF7E8F8D5E900016A4EC6E952
:103EA0000001D5E90223C6E90223684BC3E90001FA
:103EB00000206B49C3E902012346072B05DC644A55
:103EC0001A44052151700133F7E7624B00221A7042
:103ED000FEF790BE01230193009353A3D3E900237F
:103EE0005A495948FEF74CFB5C4B187003287EF486
:103EF00081AE584B01221A705A4A1368013313607D
:103F0000FEF778BE534B1B784BB34D4D0024029403
:103F1000019400950DAB224621462846FEF7A4F8F1
:103F2000D5E90001484BC3E9000100264C4FC3E925
:103F30000267464BC3E900013DA1D1E90001C3E995
:103F400002012346072B05DC414A1A440621517021
:103F50000133F7E73F4B00221A70FEF74BBE0123F7
:103F60000193009330A3D3E9002338493648FEF784
:103F700007FB3A4B187003287EF43CAE354B012208
:103F80001A70384A136801331360FEF733BE314BA1
:103F90001B784BB32A4D00240294019400950DAB7D
:103FA000224621462846FEF75FF8D5E90001264E55
:103FB000C6E90001D5E90223C6E90223234BC3E980
:103FC00000011DA1D1E90001C3E902012346072B2D
:103FD00005DC1F4A1A440E2151700133F7E71D4BCF
:103FE00000221A70FEF706BE0123019300930EA370
:103FF000D3E9002315491448FEF7C2FA174B18708D
:1040000003287EF4F7AD134B01221A70154A13688A
:1040100001331360FEF7EEBD0000000000C06740F2
:104020000000000000589BC0000000000070A74086
:10403000000000000044B64000000000009CB840B2
:10404000E80300202C000020B0040020C004002061
:1040500030000020020000200040AF40040000209B
:104060000000B940D4030020B74B1B78002B37D099
:10407000B64A136801331360312B7EF7BBADB44DE4
:1040800000240294019400950DAB22462146284657
:10409000FDF7EAFFAF4EA4A3D3E90023C6E900234E
:1040A0000022AD4BD5E90201FCF758F8C6E9020140
:1040B000AA4B9FA7D7E90067C3E90067C3E90201DC
:1040C000234604E0A64A1A440F2151700133072BFE
:1040D000F8DD00239D4A13609B4A1370FEF78ABDEA
:1040E000012301930023009393A3D3E900239B4969
:1040F0009848FEF745FA9B4B187003287EF47AAD7A
:10410000914B01221A70984A136801331360FEF72D
:1041100071BD964C204604F0BDF980EAE075A5EB30
:10412000E075204604F0B6F90028B8BF404200FB15
:1041300005F5204604F0BFF980EAE076A6EBE076CC
:10414000204604F0B8F90028B8BF404200FB0650F2
:10415000FCF750F905F014FA0022854BFCF726FC19
:10416000002829D0834B1C68824B1C60824B1B7833
:10417000002B70D0814B1B78002B74D07F4B1B78A9
:104180001BB17D4B1B78002B75D1FDF7E9FE034673
:1041900000287EF476AD754B5B7813F0080F75D070
:1041A000724B5B7813F0100F70D0754B032283F8BD
:1041B000222000221A8475E06C4804F06BF9002874
:1041C0001EDB6A4C204604F076F9FCF713F906462C
:1041D0000F46204604F05EF9FCF70CF902460B4648
:1041E00030463946FCF79AFA04F0FAFE54A3D3E9B4
:1041F0000023FCF769F9FCF701FCC0F58774B3E70D
:104200005A4C204604F057F9FCF7F4F806460F46DE
:10421000204604F03FF9FCF7EDF802460B46304625
:104220003946FCF77BFA04F0DBFE45A3D3E9002313
:10423000FCF74AF902460B46104603F10041FCF731
:10424000DDFB041E04DBC4F58774C4F5B4748BE78E
:10425000C4F58774F9E7FDF785FC00288AD1464B41
:1042600001221A7086E7FDF797FC002886D1434BA0
:1042700001221A7082E7012104F1B400FDF7A8FCC5
:10428000022104F1AF00FDF7A3FC7EE7374B5B781A
:1042900013F0080F34D03A4B012283F8222040F665
:1042A000B8321A84314B5B7813F0020F04D02F4BD5
:1042B0005B7813F0040F65D12C4B5B7813F0020F81
:1042C00064D12A4B5B7813F0040F63D00120FCF714
:1042D000D5FD264B5B7813F0080F73D0234B5B782A
:1042E00013F0100F6ED0214B5B7813F0010F55D0F7
:1042F000234B012283F8282041F28832DA8467E0D8
:104300001A4B5B7813F0100F07D01D4B022283F875
:10431000222040F6B8321A84C4E7194B032283F8EE
:10432000222000221A84BDE70000000000589BC034
:104330000000000000F4AAC0000000000070A740C8
:1043400046DF617EDCA54C4002000020DC0300203B
:10435000E8030020B004002000004940C004002011
:104360003000002004000020D4030020380C00207E
:1043700000804640D80300209903002098030020C5
:104380003C0000200220FCF779FDA2E70020FCF7AA
:1043900075FD9EE70220FCF771FD9AE7894B9B783B
:1043A00013F0200F07D0884B022283F8282041F217
:1043B0008832DA840CE0844B032283F82820002220
:1043C000DA8405E0804B032283F828200022DA8477
:1043D0007C4B9B7813F0400F0AD07C4B1B78012B51
:1043E00009D000210120FCF783FD784B187002E012
:1043F000764B00221A70734B5B7813F0010F0ED0CE
:10440000704B5B7813F0080F09D1714B1B78012BAF
:1044100008D07048FDF748FD6D4B187002E06C4BFA
:1044200000221A70674B9B7813F0200F21D06A4B43
:104430001B78012B12D1634B9B7813F0200F05D012
:10444000604B5B7813F0020F3EF4D4ABFCF79AFCA0
:10445000034600283EF4CEABFEF713BC00220192C7
:104460000092134601210220FCF714FF5A4B1870EA
:10447000E1E70022584B1A70012101910092134686
:104480000220FCF707FFD6E7524800210291019174
:1044900000900DAB0A46FDF7E7FD034600283EF409
:1044A000AEABFEF7EEBB4D4B1A784D4B53F82210D6
:1044B0004C4803F099FB4C4B1B78002B57D14B48D1
:1044C00003F092FB4FF48051012003F04BFA0028D7
:1044D00051D1474803F088FB0421012003F042FA40
:1044E00000284CD1434803F07FFB0221012003F058
:1044F00039FA002847D1404803F076FB102101200B
:1045000003F030FA002842D13C4803F06DFB102143
:10451000022003F027FA00283DD1394803F064FB5C
:104520004FF40061002003F01DFA002837D1354810
:1045300003F05AFB2021022003F014FA98BB324802
:1045400003F052FB4FF48051002003F00BFA70BBD4
:104550002E4803F049FB4FF48071022003F002FA69
:1045600048B32B4803F040FB0023FEF78ABB2948E1
:1045700003F03AFBA6E7284803F036FBACE72748F0
:1045800003F032FBB1E7264803F02EFBB6E72548DF
:1045900003F02AFBBBE7244803F026FBC0E72348CF
:1045A00003F022FBC6E7224803F01EFBCAE72148BE
:1045B00003F01AFBCFE7204803F016FB0023FEF7B9
:1045C00060BB00BF380C00203C000020DF0400204E
:1045D000DD040020E8030020AF03002003000020DA
:1045E000E0B0000804AE0008AD03002014AE0008DF
:1045F0002CAE000854AE000884AE0008A4AE00083B
:10460000CCAE0008ECAE000804AF00081CAF0008F8
:1046100040AF000820AE000840AE00086CAE0008B5
:1046200094AE0008B8AE0008DCAE0008F8AE000892
:1046300010AF000828AF000834AF0008FEE7000004
:1046400008B54FF4A2720249024806F025FB08BDE6
:1046500014B10008E4040020002209E0930003F1F3
:10466000006303F5FE331968094B43F82210013249
:104670000C2AF3DD002307E0064A52F82320044900
:1046800051F8231011600133082BF5DD704700BF8E
:10469000280600200800002008B5FFF7D1FFFFF72B
:1046A000DBFF08BD00B583B01C4B9A6942F00102E4
:1046B0009A619B6903F001030193019B032000F0C1
:1046C000F1FA002211466FF00B0000F009FB002206
:1046D00011466FF00A0000F003FB002211466FF054
:1046E000090000F0FDFA002211466FF0040000F00E
:1046F000F7FA002211466FF0030000F0F1FA0022F1
:1047000011466FF0010000F0EBFA002211464FF065
:10471000FF3000F0E5FA03B05DF804FB0010024042
:10472000F0B589B003685E4A934205D005465D4AFC
:10473000934255D009B0F0BD5B4B9A6942F0080234
:104740009A619B6903F008030093009B544A136825
:10475000C3F30E0313604FF44073049311230593C6
:1047600002230793514C04A9204600F073FDE3682F
:1047700043F44073E3604D4B9B6803F44073B3F51F
:10478000407FF8D1494AD36823F44073D360474B44
:104790009B6813F4407FFAD14FF4407304931223C3
:1047A00005930323079304A9404800F053FD404AB2
:1047B000536843F0020353603B4BDA6942F4001242
:1047C000DA61DB6903F400130193019B344B1A682F
:1047D00042F400421A601A68C2F30E021A60A9E796
:1047E0004FF440630493122305930323079304A912
:1047F0002E4800F02FFD2C4BDA6942F48002DA617A
:10480000DA6902F480020292029A5A6942F00102C5
:104810005A615B6903F001030393039B254E264B0A
:10482000336000247460B4608027F7603461746181
:10483000B461F461304600F0F9FA2E6375621F4EE0
:104840001F4B336010237360B460F7603461746190
:10485000B461F461304600F0E9FAEE62756201225B
:1048600021460E2000F03CFA0E2000F07FFA0122D3
:1048700021460F2000F034FA0F2000F077FA22468C
:104880002146212000F02CFA212000F06FFA224668
:104890002146222000F024FA222000F067FA49E79E
:1048A000005400400058004000100240000C01403D
:1048B000000001407006002058000240A8060020B9
:1048C0004400024000B587B003681B4A934205D0FC
:1048D0001A4A93421BD007B05DF804FB184BDA6903
:1048E00042F00202DA61DB6903F002030093009BED
:1048F000C023029300230393049302A9114800F0FC
:10490000A9FC114A536843F440635360E3E70C4B3E
:10491000DA6942F00402DA61DB6903F0040301930F
:10492000019BC023029300230393049302A9074829
:1049300000F090FCCFE700BF0004004000080040FA
:10494000001002400010014000000140000C014036
:10495000F0B58DB00368724A934209D00446714A9B
:1049600093422FD0704A934200F086800DB0F0BD84
:104970006E4B9A6942F480429A619A6902F48042CD
:104980000192019A9A6942F004029A619B6903F0CC
:1049900004030293029B4FF40073089302230993CC
:1049A00003230B93624C08A9204600F053FC4FF4FC
:1049B00080630893002309930A9308A9204600F016
:1049C00049FCD3E7594EF36943F40033F361F369CB
:1049D00003F400330393039BB36943F00403B3610F
:1049E000B36903F004030493049B04230893022394
:1049F000099303230B934E4F08A9384600F02AFC75
:104A000008230893002509950A9508A9384600F05F
:104A100021FC736943F001037361736903F00103BF
:104A20000593059B434E444B336010277760B56078
:104A30008023F36035617561B561F561304600F042
:104A4000F5F92663746201222946112000F048F925
:104A5000112000F08BF92A462946384600F040F92B
:104A6000384600F083F901222946262000F038F963
:104A7000262000F07BF979E72C4BDA6942F480229A
:104A8000DA61DA6902F480220692069A9A6942F0A3
:104A900010029A619B6903F010030793079B4FF480
:104AA000806308930223099303230B93234D08A9E2
:104AB000284600F0CFFB4FF40063089300260996C8
:104AC0000A9608A9284600F0C5FB1D4A536823F042
:104AD000300343F0100353601A4D1B4B2B606E6084
:104AE000AE608023EB602E616E61AE614FF40053C7
:104AF000EB61284600F09AF965636C6232463146F4
:104B00000D2000F0EDF80D2000F030F901223146C3
:104B1000272000F0E5F8272000F028F926E700BF5D
:104B200000380140004400400048004000100240AE
:104B300000080140180700208000024000100140DA
:104B400000000140E0060020300002407047FEE710
:104B5000FEE7FEE7FEE770477047704708B500F0D4
:104B600085F800F04EF9024A13680133136008BD5E
:104B7000340C002008B5024B186B00F033FA08BD66
:104B80000402002008B5024B586B00F02BFA08BD58
:104B90004402002008B5024802F0D9FD08BD00BF5C
:104BA0004402002008B5024802F0D1FD08BD00BF54
:104BB0000402002008B5024BD86A00F013FA08BDC1
:104BC0003C01002008B5024B186B00F00BFA08BD41
:104BD0003C0100200F4B1A6842F001021A6059682C
:104BE0000D4A0A405A601A6822F0847222F4803218
:104BF0001A601A6822F480221A605A6822F4FE02AF
:104C00005A604FF41F029A60044B4FF000629A60A2
:104C1000704700BF001002400000FFF800ED00E008
:104C200010B5044601F026FF064BA3FB00308009B7
:104C300000F0B2F8002221464FF0FF3000F050F8AB
:104C4000002010BDD34D621008B5074A136843F029
:104C500010031360032000F025F80020FFF7E0FFA9
:104C6000FFF720FD002008BD00200240024A136823
:104C700001331360704700BF50070020014B1868D4
:104C8000704700BF5007002010B582B00190FFF7B9
:104C9000F5FF0446FFF7F2FF001B019B9842F9D392
:104CA00002B010BD10B50446C31E042B0FD80A4A2B
:104CB000D36823F4E0631B041B0C240204F4E064B7
:104CC000234343F0BF6343F40033D36010BDBA21E4
:104CD0000248FFF7B3FCEAE700ED00E070B200081D
:104CE00070B505460C4616460F2A25D80F2C28D835
:104CF0001B4BDB68C3F30223C3F10702042A28BF5E
:104D00000422191D062921D9033B4FF0FF3101FA76
:104D100002F224EA02049C4001FA03F326EA0306A5
:104D20003443002D14DB2401E4B205F1604505F5A0
:104D3000614585F8004370BDD2210A48FFF77EFC2B
:104D4000D4E7D3210748FFF779FCD1E70023DCE75C
:104D500005F00F052401E4B2034B5C55EBE700BFFF
:104D600000ED00E070B2000814ED00E010B5041E84
:104D700008DB04F01F02640901239340044A42F84F
:104D8000243010BDE6210348FFF758FCF1E700BFCF
:104D900000E100E070B200080138B0F1807F0AD273
:104DA000064B5860064AF02182F8231000209860D4
:104DB00007221A6070470120704700BF10E000E032
:104DC00000ED00E010B50446042800D038B9042CEA
:104DD0000BD0094A136823F00403136010BD4FF48D
:104DE000DF710648FFF72AFCF1E7034A136843F036
:104DF00004031360F2E700BF10E000E070B20008A7
:104E0000704708B5FFF7FCFF08BD10B40468636085
:104E10004368102B05D0036899600368DA6010BC02
:104E2000704703689A600368D960F8E7002800F0CB
:104E3000928010B504460368484A934215D0143254
:104E4000934212D0143293420FD0143293420CD0BA
:104E50001432934209D01432934206D01432934252
:104E600003D0B5213E48FFF7E9FB636823B1102B5F
:104E700002D0B3F5804F4BD1A368402B01D0002B5B
:104E80004BD1E368802B01D0002B4BD123692BB190
:104E9000B3F5807F02D0B3F5007F48D163692BB1B1
:104EA000B3F5806F02D0B3F5006F45D1A3690BB1A4
:104EB000202B46D1E36943B1B3F5805F05D0B3F54C
:104EC000005F02D0B3F5405F40D194F821300BB9B8
:104ED00084F82030022384F8213021680A6822F403
:104EE0007F5222F030026368A0680343E068034306
:104EF0002069034360690343A0690343E0690343F6
:104F000013430B6000206063012384F8213010BD3F
:104F1000B6211348FFF792FBAEE7B7211048FFF721
:104F20008DFBAEE7B8210E48FFF788FBAEE7B9214D
:104F30000B48FFF783FBB1E7BA210948FFF77EFB77
:104F4000B4E7BB210648FFF779FBB3E7BC2104486F
:104F5000FFF774FBB9E70120704700BF080002406B
:104F6000A8B20008F8B590F82040012C35D01D46B5
:104F700016460F460446012380F82030022380F8AD
:104F800021306A1E4FF6FE739A4220D820680368CB
:104F900023F0010303602B46324639462046FFF7D3
:104FA00034FF2268136843F0020313602268136819
:104FB00043F0040313602268136843F0080313608E
:104FC0002268136843F0010313600020F8BD40F22B
:104FD00061110348FFF732FBD8E70220F6E700BF74
:104FE000A8B2000810B50446984B1A68036898499F
:104FF0008B4214D014318B4232D014318B4231D0D9
:1050000014318B4231D014318B4231D014318B4268
:1050100002D04FF0006103E04FF4000100E00821EE
:105020000A423CD01A6812F0080F38D01A6822F0F1
:1050300008021A602368864A93421FD014329342B2
:1050400045D01432934244D01432934244D01432A7
:10505000934244D0143293420DD04FF000620EE0E0
:105060008021DDE74FF40061DAE74FF40041D7E734
:105070004FF40021D4E74FF4000200E00822734B04
:105080005A60636B43F001036363042384F82130A7
:10509000002384F82030236B0BB1204698476B4BDC
:1050A0001A6823686A498B421FD014318B4241D061
:1050B00014318B4240D014318B4240D014318B429A
:1050C00040D014318B420DD04FF080610EE0802231
:1050D000D5E74FF40062D2E74FF40042CFE74FF438
:1050E0000022CCE74FF4800100E004210A4239D0CD
:1050F0001A6812F0040F35D01A6812F0200F03D18D
:105100001A6822F004021A602368514A93421FD0A1
:10511000143293423ED0143293423DD01432934223
:105120003DD0143293423DD0143293420DD04FF013
:1051300080620EE04021D9E74FF48061D6E74FF45A
:105140008041D3E74FF48021D0E74FF4800200E0A4
:1051500004223E4B5A60112384F82130E36A0BB1DC
:1051600020469847394B1A68236839498B421FD02B
:1051700014318B4241D014318B4240D014318B42D8
:1051800040D014318B4240D014318B420DD04FF0BF
:1051900000710EE04022DCE74FF48062D9E74FF463
:1051A0008042D6E74FF48022D3E74FF4001100E0AD
:1051B00002210A423ED01A6812F0020F3AD01A6851
:1051C00012F0200F03D11A6822F002021A6023683D
:1051D0001F4A93421FD0143293422CD01432934270
:1051E0002BD0143293422BD0143293422BD0143252
:1051F00093420DD04FF000720EE02021D9E74FF41A
:105200000071D6E74FF40051D3E74FF40031D0E7F7
:105210004FF4001200E002220C4B5A60636B636390
:10522000012384F82130002384F82030A36A0BB1D5
:105230002046984710BD2022EEE74FF40072EBE7BE
:105240004FF40052E8E74FF40032E5E70000024077
:10525000080002402DE9F04383B080460F46B54B6D
:10526000984213D003F5806398420FD003F5806312
:1052700098420BD003F58063984207D003F5806312
:10528000984203D0CF21AC48FFF7D8F93B882BB325
:105290007B68012B1ED9112B1CD0022B1AD0122B8C
:1052A00018D0A64A934215D002F58012934211D02D
:1052B00002F5801293420DD0A2F5F812934209D064
:1052C00002F58012934205D002F58012934201D07C
:1052D000032B08D14FF000094E46DDE0D02196485F
:1052E000FFF7ACF9D4E7D1219348FFF7A7F9F1E72D
:1052F000002B5ED0012B05D1FB68013B022B65D84A
:10530000D7F80C90FF2C00F296804046FF2C00F25C
:105310009580B20003680F21914023EA010309FA46
:1053200002F2134303607B6813F0805F00F0B380E8
:10533000834B9A6942F001029A619B6903F0010371
:105340000193019BB208911C7E4B53F8210006F09B
:10535000030399000F238B4020EA0300754B984507
:1053600072D003F58063984500F0CD8003F580632B
:10537000984500F0CA8003F58063984562D0042305
:1053800063E0714A934214D00BD9704A934210D013
:1053900002F5803293420CD0A2F580129342B1D133
:1053A00007E0A2F58012934203D002F580329342C7
:1053B000A8D1BB68022B2DD8BB68002B38D0012B9D
:1053C0002ED0C8F814504FF008099BE7E7215A483F
:1053D000FFF734F994E7EE215748FFF72FF98EE0F5
:1053E000FB68013B022B03D8FB6803F1080989E73E
:1053F000F5215148FFF722F9F6E7FB68013B022B44
:1054000003D8FB6803F10C097CE7FC214A48FFF74D
:1054100015F9F6E740F209114748FFF70FF9CBE716
:10542000C8F810504FF008096CE74FF0000969E721
:105430004FF0040966E708F1040067E7A6F10802E7
:10544000920067E7032300E000238B40034302320E
:105450003C4941F822307B6813F4803F57D03C4AE6
:105460001368234313607B6813F4003F55D0384A18
:105470005368234353607B6813F4801F53D0344A2E
:105480009368234393607B6813F4001F62D0304A13
:10549000D3681C43D46001360F2E61D80125B54076
:1054A0003C682C40A542F6D1224B984513D003F519
:1054B000806398450FD003F5806398450BD003F5C2
:1054C0008063984507D003F58063984503D0DF21BA
:1054D0001948FFF7B3F87B68122B8ED03FF651AF17
:1054E000022B3FF47DAF7FF603AF032B9DD0112B32
:1054F0007FF408AFFB68013B022B3FF66CAFFB6803
:1055000003F10409FEE601239FE702239DE7104A09
:10551000136823EA04031360A5E70D4A536823EADE
:1055200004035360A7E70A4A936823EA04039360DD
:10553000A9E700BF00080140E0B200080000111018
:105540000010024000000140000021100000311056
:1055500000040140044AD36823EA0404D4609AE7B3
:1055600003B0BDE8F08300BF0004014038B5054634
:105570000C4621B1AB681C4207D1002038BD4FF466
:10558000E2710348FFF75AF8F4E70120F6E700BF9D
:10559000E0B2000870B5064615460C4629B1012D4B
:1055A00009D875B92404346170BD4FF4F27106480E
:1055B000FFF744F8F3E740F2E5110348FFF73EF840
:1055C000EFE73461F0E700BFE0B200084368124A39
:1055D000934209D85800B1FBF0F0C0F30B03032B42
:1055E00000D970470420704782685AB903EB430022
:1055F000B1FBF0F040F40040C0F30B03002BF0D1FE
:105600000120EEE703EB830000EB8000B1FBF0F03C
:1056100040F44040F0E700BFA086010003685A69EB
:1056200012F4806F0DD05A6922F480625A6104230B
:105630008363202380F83530002380F83430012044
:105640007047002070472DE9F04106460C46904611
:105650001D46FFF713FB0746B8F1000F1AD043E0D1
:1056600025B1FFF70BFBC01BA84213D9202386F8F6
:105670003530002386F83430032019E033685B6945
:1056800024EA03039BB2003318BF01237BB1B5F1B9
:10569000FF3FE5D1C4F30743012BEFD033689B698B
:1056A00024EA03039BB2003318BF0123EEE7002076
:1056B000BDE8F08125B1FFF7E1FAC01BA84213D97C
:1056C000202386F83530002386F834300320EFE7B6
:1056D00033685B6924EA03039BB2B3FA83F35B0983
:1056E0007BB1B5F1FF3FE5D1C4F30743012BEFD008
:1056F00033689B6924EA03039BB2B3FA83F35B0923
:10570000EEE70020D4E7F8B504460D461646FFF74D
:10571000B5FA074631E01A6842F400721A6022684E
:10572000536923F4806353610423A363202384F823
:105730003530002384F8343001202CE026B1FFF707
:105740009DFAC01BB04218D9202384F835300023BD
:1057500084F8343003201EE023685B6925EA0303E4
:105760009BB2003318BF0123A3B123685A6912F416
:10577000806FD0D1B6F1FF3FE0D1C5F30743012BD5
:10578000EAD023689B6925EA03039BB2003318BF64
:105790000123E9E70020F8BD70B504460D46164622
:1057A0000268136843F480731360334600224FF09D
:1057B0000111FFF748FF48BB2369B3F5804F0FD1B4
:1057C000236805F0FE051D61324614492046FFF7A7
:1057D0009AFF0346D8B1A36B042B1CD1012316E01A
:1057E000EB11226803F0060343F0F0031361324625
:1057F0000B492046FFF787FF20B1A36B042B08D18C
:10580000012304E02368EDB21D61DDE703231846A0
:1058100070BD0323FBE70323F9E700BF020001008B
:1058200008000100F0B583B004460D461646026834
:10583000136843F4806313600268136843F4807351
:105840001360334600224FF00111FFF7FCFE0028E1
:105850004CD12369B3F5804F11D1236845F0010580
:10586000EDB21D61324627492046FFF74CFF034643
:1058700000283CD0A36B042B42D1012337E0EF1169
:1058800007F00607236847F0F0021A6132461E4906
:105890002046FFF738FF20B1A36B042B2AD1012348
:1058A00025E02368EDB21D61324616492046FFF718
:1058B0002AFF20B1A36B042B1ED1012317E023681C
:1058C0005A6901929A690192019A1A6842F48072A7
:1058D0001A60334600224FF001112046FFF7B3FE55
:1058E00060B9236847F0F1071F61BBE7032318463F
:1058F00003B0F0BD0323FAE70323F8E70323F6E739
:105900000323F4E7020001000800010070B504461B
:105910000D46FFF7B3F9064623685B6913F0800F65
:1059200018D12046FFF77AFEB0B9B5F1FF3FF3D0AA
:1059300025B1FFF7A3F9801BA842EDD9A36B43F073
:105940002003A363202384F83530002384F8343007
:10595000032000E0002070BD0120FCE770B5044684
:105960000D46FFF78BF9064623685B6913F0040FB9
:1059700018D12046FFF752FEB0B9B5F1FF3FF3D082
:1059800025B1FFF77BF9801BA842EDD9A36B43F04B
:105990002003A363202384F83530002384F83430B7
:1059A000032000E0002070BD0120FCE7002800F08B
:1059B000B38038B504460368584A934208D002F5CC
:1059C0008062934204D04FF4A5715548FEF736FE2D
:1059D0006368013B534A93425ED8A36813B1B3F5A1
:1059E000804F5FD1E36823F47F7323F00303002B20
:1059F0005ED12369B3F5804F02D0B3F5404F5DD13E
:105A00006369012B60D8A36933F0FE0362D1E369B7
:105A10000BB1402B64D1236A0BB1802B66D194F873
:105A20003530002B68D0242384F835302268136881
:105A300023F00103136001F023F801463A4BA3FB66
:105A400000239B0C226853606068384A904259D802
:105A500001332268136225682046FFF7B7FDE8612D
:105A6000E369216A22680B4313602369E1682268B5
:105A70000B4393606369A16922680B43D36022687A
:105A8000136843F0010313600020A063202384F80F
:105A9000353084F8360038BD40F24B112048FEF70F
:105AA000CDFD9AE74FF4A6711D48FEF7C7FD99E7B3
:105AB00040F24D111A48FEF7C1FD9AE74FF4A77165
:105AC0001748FEF7BBFD9BE740F24F111448FEF765
:105AD000B5FD98E74FF4A8711148FEF7AFFD96E7C2
