:020000040800F2
:100000000050002039B00008CD6F0008CF6F000805
:10001000D16F0008D36F0008D56F00080000000002
:10002000000000000000000000000000D76F000882
:10003000D96F000800000000DB6F0008DD6F0008CA
:1000400081B0000881B0000881B0000881B00008CC
:1000500081B0000881B0000881B0000881B00008BC
:1000600081B0000881B0000881B0000881B00008AC
:1000700081B0000805700008357000084570000860
:1000800081B00008F56F000881B0000881B0000859
:1000900081B0000881B0000881B0000881B000087C
:1000A00081B00008559E000881B0000881B00008AA
:1000B000659E000881B0000881B0000881B000088A
:1000C00081B0000881B0000881B0000881B000084C
:1000D00081B0000881B00008257000081570000884
:1000E00081B0000881B0000881B000080000000065
:1000F0000000000000000000000000000000000000
:0C01000000000000000000005FF808F1A3
:1001100010B5054C237833B9044B13B10448AFF341
:1001200000800123237010BDF002002000000000B9
:1001300000C8000808B5034B1BB103490348AFF3DF
:10014000008008BD00000000F402002000C8000884
:1001500081F0004102E000BF83F0004330B54FEA78
:1001600041044FEA430594EA050F08BF90EA020FE5
:100170001FBF54EA000C55EA020C7FEA645C7FEA78
:10018000655C00F0E2804FEA5454D4EB5555B8BF9B
:100190006D420CDD2C4480EA020281EA030382EA0C
:1001A000000083EA010180EA020281EA0303362D9E
:1001B00088BF30BD11F0004F4FEA01314FF4801C71
:1001C0004CEA113102D0404261EB410113F0004F83
:1001D0004FEA03334CEA133302D0524263EB43033A
:1001E00094EA050F00F0A780A4F10104D5F1200ED8
:1001F0000DDB02FA0EFC22FA05F2801841F1000133
:1002000003FA0EF2801843FA05F359410EE0A5F106
:1002100020050EF1200E012A03FA0EFC28BF4CF037
:10022000020C43FA05F3C01851EBE37101F00045ED
:1002300007D54FF0000EDCF1000C7EEB00006EEBFA
:100240000101B1F5801F1BD3B1F5001F0CD3490884
:100250005FEA30004FEA3C0C04F101044FEA4452DB
:1002600012F5800F80F09A80BCF1004F08BF5FEA62
:10027000500C50F1000041EB045141EA050130BD42
:100280005FEA4C0C404141EB010111F4801FA4F1E5
:100290000104E9D191F0000F04BF01460020B1FA3A
:1002A00081F308BF2033A3F10B03B3F120020CDA72
:1002B0000C3208DD02F1140CC2F10C0201FA0CF050
:1002C00021FA02F10CE002F11402D8BFC2F1200CB5
:1002D00001FA02F120FA0CFCDCBF41EA0C0190406B
:1002E000E41AA2BF01EB0451294330BD6FEA0404B4
:1002F0001F3C1CDA0C340EDC04F11404C4F120029F
:1003000020FA04F001FA02F340EA030021FA04F3B0
:1003100045EA030130BDC4F10C04C4F1200220FA07
:1003200002F001FA04F340EA0300294630BD21FA45
:1003300004F0294630BD94F0000F83F4801306BF0B
:1003400081F480110134013D4EE77FEA645C18BFFF
:100350007FEA655C29D094EA050F08BF90EA020F96
:1003600005D054EA000C04BF1946104630BD91EA8E
:10037000030F1EBF0021002030BD5FEA545C05D191
:100380004000494128BF41F0004130BD14F58004D0
:100390003CBF01F5801130BD01F0004545F0FE4144
:1003A00041F470014FF0000030BD7FEA645C1ABF79
:1003B000194610467FEA655C1CBF0B46024650EAB0
:1003C000013406BF52EA033591EA030F41F40021DC
:1003D00030BD00BF90F0000F04BF0021704730B562
:1003E0004FF4806404F132044FF000054FF0000137
:1003F00050E700BF90F0000F04BF0021704730B5F8
:100400004FF4806404F1320410F0004548BF4042CC
:100410004FF000013EE700BF42004FEAE2014FEA21
:1004200031014FEA02701FBF12F07F4393F07F4FFC
:1004300081F06051704732F07F4208BF704793F0FF
:100440007F4F04BF41F40021704730B54FF4607412
:1004500001F0004521F000411CE700BF50EA010215
:1004600008BF704730B54FF000050AE050EA0102BE
:1004700008BF704730B511F0004502D5404261EB2E
:1004800041014FF4806404F132045FEA915C3FF46F
:10049000D8AE4FF003025FEADC0C18BF03325FEA0C
:1004A000DC0C18BF033202EBDC02C2F1200300FABD
:1004B00003FC20FA02F001FA03FE40EA0E0021FAE2
:1004C00002F11444BDE600BF70B54FF0FF0C4CF4D0
:1004D000E06C1CEA11541DBF1CEA135594EA0C0F82
:1004E00095EA0C0F00F0DEF82C4481EA030621EABD
:1004F0004C5123EA4C5350EA013518BF52EA0335F8
:1005000041F4801143F4801338D0A0FB02CE4FF0A9
:100510000005E1FB02E506F00042E0FB03E54FF0D9
:100520000006E1FB03569CF0000F18BF4EF0010ED1
:10053000A4F1FF04B6F5007F64F5407404D25FEACD
:100540004E0E6D4146EB060642EAC62141EA555180
:100550004FEAC52040EA5E504FEACE2EB4F1FD0CC2
:1005600088BFBCF5E06F1ED8BEF1004F08BF5FEA40
:10057000500E50F1000041EB045170BD06F00046F2
:1005800046EA010140EA020081EA0301B4EB5C049F
:10059000C2BFD4EB0C0541EA045170BD41F4801197
:1005A0004FF0000E013C00F3AB8014F1360FDEBFBC
:1005B000002001F0004170BDC4F10004203C35DA98
:1005C0000C341BDC04F11404C4F1200500FA05F31B
:1005D00020FA04F001FA05F240EA020001F00042BC
:1005E00021F0004110EBD37021FA04F642EB060132
:1005F0005EEA430E08BF20EAD37070BDC4F10C045C
:10060000C4F1200500FA04F320FA05F001FA04F21F
:1006100040EA020001F0004110EBD37041F100010B
:100620005EEA430E08BF20EAD37070BDC4F1200516
:1006300000FA05F24EEA020E20FA04F301FA05F27E
:1006400043EA020321FA04F001F0004121FA04F226
:1006500020EA020000EBD3705EEA430E08BF20EAF6
:10066000D37070BD94F0000F0FD101F00046400030
:1006700041EB010111F4801F08BF013CF7D041EAB2
:10068000060195F0000F18BF704703F000465200B6
:1006900043EB030313F4801F08BF013DF7D043EA87
:1006A0000603704794EA0C0F0CEA135518BF95EA3D
:1006B0000C0F0CD050EA410618BF52EA4306D1D1C4
:1006C00081EA030101F000414FF0000070BD50EAE3
:1006D000410606BF1046194652EA430619D094EA6D
:1006E0000C0F02D150EA013613D195EA0C0F05D157
:1006F00052EA03361CBF104619460AD181EA0301AB
:1007000001F0004141F0FE4141F470014FF0000062
:1007100070BD41F0FE4141F4780170BD70B54FF0FD
:10072000FF0C4CF4E06C1CEA11541DBF1CEA13557D
:1007300094EA0C0F95EA0C0F00F0A7F8A4EB05045F
:1007400081EA030E52EA03354FEA013100F0888056
:100750004FEA03334FF0805545EA131343EA12631F
:100760004FEA022245EA111545EA10654FEA0026D4
:100770000EF000419D4208BF964244F1FD0404F58D
:10078000407402D25B084FEA3202B61A65EB0305E9
:100790005B084FEA32024FF480104FF4002CB6EBA6
:1007A000020E75EB030E22BFB61A754640EA0C0026
:1007B0005B084FEA3202B6EB020E75EB030E22BF66
:1007C000B61A754640EA5C005B084FEA3202B6EBA7
:1007D000020E75EB030E22BFB61A754640EA9C0066
:1007E0005B084FEA3202B6EB020E75EB030E22BF36
:1007F000B61A754640EADC0055EA060E18D04FEAF4
:10080000051545EA16754FEA06164FEAC30343EA93
:1008100052734FEAC2025FEA1C1CC0D111F4801F60
:100820000BD141EA00014FF000004FF0004CB6E759
:1008300011F4801F04BF01430020B4F1FD0C88BFF8
:10084000BCF5E06F3FF6AFAEB5EB030C04BFB6EB03
:10085000020C5FEA500C50F1000041EB045170BDF6
:100860000EF0004E4EEA113114EB5C04C2BFD4EB23
:100870000C0541EA045170BD41F480114FF0000EA7
:10088000013C90E645EA060E8DE60CEA135594EA23
:100890000C0F08BF95EA0C0F3FF43BAF94EA0C0F26
:1008A0000AD150EA01347FF434AF95EA0C0F7FF49B
:1008B00025AF104619462CE795EA0C0F06D152EAEF
:1008C00003353FF4FDAE1046194622E750EA4106D3
:1008D00018BF52EA43067FF4C5AE50EA41047FF4E4
:1008E0000DAF52EA43057FF4EBAE12E74FF0FF3C49
:1008F00006E000BF4FF0010C02E000BF4FF0010C1A
:100900004DF804CD4FEA410C7FEA6C5C4FEA430C92
:1009100018BF7FEA6C5C1BD001B050EA410C0CBFE1
:1009200052EA430C91EA030F02BF90EA020F002043
:10093000704710F1000F91EA030F58BF994208BFAA
:1009400090422CBFD8176FEAE37040F00100704767
:100950004FEA410C7FEA6C5C02D150EA013C07D1BE
:100960004FEA430C7FEA6C5CD6D152EA033CD3D009
:100970005DF8040B704700BF8446104662468C4603
:100980001946634600E000BF01B5FFF7B7FF002836
:1009900048BF10F1000F01BD4DF808EDFFF7F4FF5F
:1009A0000CBF012000205DF808FB00BF4DF808EDEA
:1009B000FFF7EAFF34BF012000205DF808FB00BF0D
:1009C0004DF808EDFFF7E0FF94BF012000205DF82F
:1009D00008FB00BF4DF808EDFFF7CEFF94BF0120E4
:1009E00000205DF808FB00BF4DF808EDFFF7C4FFDD
:1009F00034BF012000205DF808FB00BF4FEA410230
:100A000012F5001215D211D56FF47873B3EB625260
:100A100012D94FEAC12343F0004343EA505311F087
:100A2000004F23FA02F018BF404270474FF0000019
:100A3000704750EA013005D111F0004008BF6FF057
:100A4000004070474FF00000704700BF4FEA410C74
:100A50007FEA6C5C02D150EA013C0AD14FEA430CB8
:100A60007FEA6C5C02D152EA033C02D14FF00000F5
:100A700070474FF0010070472DE9F04F85B0814677
:100A80000D4614469B460E9F0F9E9DF840A09DF874
:100A90004480D1E90023CDE90223A149D1E9000135
:100AA000FFF77AFFB8B1D5E902239D49D1E90201E8
:100AB000FFF772FF78B1D4E900239A49D1E9000128
:100AC000FFF76AFF38B1D4E902239649D1E9020160
:100AD000FFF762FFA0B9944B01221A709049DDE93B
:100AE0000223C1E90023D5E90223C1E90223D4E9A5
:100AF00000238C49C1E90023D4E90223C1E9022380
:100B0000B8F1030F0BD8DFE808F002717A83DBE954
:100B10000023D4E90001FFF71FFBCDE90001824B60
:100B20001B783BB1814BDDE90012C3E900127E4B1B
:100B300000221A70BAF1000F00F0D880DDE900AB96
:100B400052465B467949D1E90001FFF705FB0446AF
:100B500021F000450022764B50465946FFF744FFEE
:100B6000002879D00022724B20462946FFF728FF43
:100B7000002856D000226E4B20462946FFF7CEFDB6
:100B800000226C4BFFF7E8FA04460D463A4633461E
:100B9000FFF79AFC02460B4620462946FFF794FCD5
:100BA00002460B465AA1D1E90001FFF7D5FA3A46B1
:100BB0003346FFF7D3FAC9E9000155A3D3E900236F
:100BC000FFF7FEFE20B152A3D3E90023C9E90023B9
:100BD0003A463346D9E90001FFF706FF002874D0F2
:100BE0003A463346C9E9002300241FE0D4E9002334
:100BF000DBE90001FFF7B0FACDE900018FE7DBE99F
:100C00000223D4E90201FFF7A7FACDE9000186E744
:100C1000D4E90223DBE90201FFF79EFACDE90001E6
:100C20007DE73A463346C9E9002301240022424BBE
:100C300038463146FFF7CEFE00284AD000223F4B0F
:100C4000DDE90001FFF7BCFE00285BD00022002395
:100C5000C9E90023032455E006F100480022344B83
:100C6000DDE90001FFF75AFD2BA3D3E90023FFF7CD
:100C700073FA04460D4602460B4638464146FFF7D6
:100C800023FC02460B4620462946FFF71DFC3A4648
:100C90003346FFF763FAC9E900011DA3D3E9002336
:100CA000FFF78EFE20B11AA3D3E90023C9E9002380
:100CB0003A463346D9E90001FFF796FE38B13A4685
:100CC0003346C9E900230224B0E70024AEE702243A
:100CD000ACE700221A4BDDE90001FFF771FE88B195
:100CE00000220023C9E9002303240BE00022154B56
:100CF000DDE90001FFF764FE30BB3A463346C9E93F
:100D000000230124204605B0BDE8F08FAFF300803A
:100D10000000000000E89C40666666666666F23F7A
:100D200050040020700400200000002098030020E0
:100D300000408F400000F03F0040AF4000005440B2
:100D4000000049400000244000220023C9E900239C
:100D50000324D7E710B402EBD2735B105C4221444A
:100D6000401A824203DC90FBF2F302FB13000028DE
:100D700002DB204410BC70470028B8BF4042101A64
:100D8000F7E70000002309E0590019444800054A2C
:100D9000024400215180032111710133062BF3DD40
:100DA000002070473C000020034B0020D881032224
:100DB0001A7498829A7570473C000020F0B40024A1
:100DC00007E0E300C5180B44D3E90067C5E90067F5
:100DD00001349442F5DBF0BC7047000010B50446C6
:100DE000012819D018B102282AD000202DE04FF494
:100DF0008051012008F086FF38B1144B01221A7788
:100E000041F288325A8320461FE0104B03221A77A2
:100E100000225A83022018E00421012008F072FF0A
:100E200038B10A4B02221A7741F288325A8320469F
:100E30000BE0064B03221A7700225A83022004E0BB
:100E4000024B03221A7700225A8310BD3C00002077
:100E5000012920D010B504460221012008F052FFDC
:100E600010B11F4B01221A701D4B1B78C3B984EAC5
:100E7000E472A2EBE4721B4B1B689A421ED0002C5A
:100E800028DD194B022283F82820174B41F28832C3
:100E9000DA84002010BD134B00221A600220704734
:100EA0000221012008F02EFF0028E0D10D4A13682E
:100EB000013313600A4B00221A70D8E70A4A032351
:100EC00082F828300023D384064A1360044A137042
:100ED0000120DFE7044B012283F82820D5E700BF7B
:100EE000CC030020800400203C00002008B501292C
:100EF0000AD09F4A1278042A10D8DFE812F01100B5
:100F0000670092000D0145010223994A1370994A26
:100F10001170002298490A6098490A70184608BD65
:100F2000022821D00428F9D1924B1B7833B1944B7D
:100F30001A68914B1A608F4B00221A70904B1B68F5
:100F40008D4A12689B1A41F65832934235D98D4B1F
:100F5000032283F8222000221A84854B04221A706F
:100F60000123844A1370D9E7824B1B7833B1844B39
:100F70001A68814B1A607F4B00221A70804B1B68E5
:100F80007D4A12689B1A40F6AC5293420CD97D4BB5
:100F9000032283F8222000221A84754B02221A7041
:100FA0000123744A1370B9E7764B012283F822209B
:100FB00040F6B8321A840023B0E7724B012283F85E
:100FC000222040F6B8321A840023A7E70228A5D1D0
:100FD000684B1B7833B16A4B1A68674B1A60654BD4
:100FE00000221A70664B1B68634A12689B1A41F212
:100FF000040293420CD9634B032283F8222000227F
:101000001A845B4B02221A7001235A4A137085E737
:101010005C4B012283F8222040F6B8321A84002368
:101020007CE701281BD090B303287FF477AF102111
:10103000022008F067FE40B1524B022283F82220C2
:1010400040F6B8321A84002368E74E4A032382F838
:10105000223000211184464A137001235EE71021DB
:10106000012008F04FFE40B1464B022283F82220B7
:1010700040F6B8321A84002350E7424B032283F82B
:10108000222000221A840123394A137046E73B4B81
:101090001B78F3B1374B1B7833B1394B1A68364B99
:1010A0001A60344B00221A70354B1B68324A1268A2
:1010B0009B1A502B27D9334B032283F8222000227E
:1010C0001A842B4B1A7001232A490B702B490A7082
:1010D00024E71021012008F015FE40B1294B02221F
:1010E00083F8222040F6B8321A84002316E7234BF7
:1010F00001221A70234B022283F8222040F6B832D4
:101100001A8400230AE71F4B022283F8222040F6AC
:10111000B8321A84002301E702287FF4FFAE154B92
:101120001B7833B1164B1A68134B1A60114B00220F
:101130001A70134B1B68104A12689B1A40F2DC525B
:1011400093420CD90F4B032283F8222000221A84E9
:10115000074B02221A700123064A1370DEE6094B80
:10116000012283F8222040F6B8321A840023D5E603
:101170000500002006000020C4040020C004002058
:10118000100C00203C00002002287FF4C7AE144B56
:101190001B7833B1134B1A68134B1A60104B0022A3
:1011A0001A70104B1B68104A12689B1A40F6C41242
:1011B000934208D80D4B022283F8222040F6B83221
:1011C0001A840023AAE6094B032283F82220002276
:1011D0001A84074B02221A700123014A13709DE6FC
:1011E00006000020100C0020C40400203C00002059
:1011F0000500002070B50D469DF810600599012985
:1012000007D045490968032918D8DFE801F00E190D
:10121000495B0024414B1C70414B1C700846FFF792
:1012200065FE3D4B1C60022408E03E4A537843F0C3
:10123000340353700131384B19600024204670BDCF
:1012400036490978012910D03AB100210120FFF771
:101250004DFE324B18700024F0E700210846FFF7DE
:1012600045FE2E4B18700024E8E762B123B12D4AE9
:10127000537823F02003537056B12A4A537823F051
:101280001003537004E0274A537803F0CB035370E4
:101290000024224B1C70204A136801331360CDE7F1
:1012A0001E4B1B78012B06D100241C4B1C700131F6
:1012B000194B1960C2E70021FFF718FE174B187091
:1012C0000024BBE716490978012900D06DB9A2B105
:1012D00023B1144A537823F02003537096B1114A76
:1012E000537823F0100353700CE000212846FFF7D9
:1012F000AFFD0B4B18700024A0E70A4A537803F0A7
:10130000CB0353700023064A1370044A1370024A39
:101310001360012492E700BFBC03002021030020DA
:10132000CF0400202C0000202DE9F04782B00446B5
:101330000E469A4603287FD8DFE800F00221405F7E
:101340008A494B7B887B03EB0023C87B03EB00437C
:10135000097C03EB016386490D681D44002E6ED0A5
:10136000012E03D0022E06D0002769E05B420B60FD
:1013700000273D4664E07F4B1F68EF1B60E07B4920
:101380004B7C887C03EB0023C87C03EB0043097D86
:1013900003EB016376494D681D44002E73D0012E86
:1013A00003D0022E06D000274AE05B424B600027A4
:1013B0003D4645E06F4B5F68EF1B41E06B498B7822
:1013C000C87803EB0023087903EB0043497903EB6A
:1013D000016367498D681D44002E56D0012E03D04D
:1013E000022E06D000272BE05B428B6000273D4693
:1013F00026E0604B9F68EF1B22E05C498B79C8793F
:1014000003EB0023087A03EB0043497A03EB016303
:101410005749CD681D44002E39D0012E03D0022E2D
:1014200006D000270CE05B42CB6000273D4607E07A
:10143000504BDF68EF1B03E000273D4600E000272C
:10144000022E26D04B4B43F824504B4B19684B4A85
:1014500042F824101A684A4BA3FB02135B0964216B
:1014600001FB1323092B08D8012E06D0454B1B681E
:10147000022B57DC0133434A1360022E61D0284609
:1014800002B0BDE8F0870027DAE70027D8E7002799
:10149000D6E740F2DB539A421EDD1046FEF7AAFF64
:1014A0000022394BFFF73AF980468946324B1868DB
:1014B000324B53F82430C01AFEF78CFF02460B461D
:1014C00040464946FFF700F8FFF798FA844677B997
:1014D000284B43F82450B8E7274B1B68274A52F89B
:1014E00024209B1A4FF0320C0CFB03FCEFE787EA39
:1014F000E773A3EBE773634510DD00231D4A42F851
:10150000243004E0214A1A44092151700133072B89
:10151000F8DD01238AF80030002796E7154B43F8E1
:10152000245092E71348836842680168CDF804C0EC
:10153000C0680090164808F005FD124B00221A60A2
:101540009BE70D4B1A680E4BA3FB02135B0964214A
:1015500001FB1323092B01D93D4690E72B463A4660
:1015600021460C4808F0EEFC3D4688E76800002064
:101570000C03002030040020100C00202004002068
:101580001F85EB51B40300200000344030000020E0
:1015900004C900083CC900082DE9F04F89B006468F
:1015A0008A46CDE90423DDF84880149C9DF8545008
:1015B000AB1EDBB2012B1DD9D4E90223D8E902010D
:1015C000FEF7CAFD029021F00047D4E90423CDE9DB
:1015D0000023A44B1A68A44BA3FB02135B096421EC
:1015E00001FB1323092B1FD9032D4CD8DFE805F08D
:1015F00033647D94D8E90023CDE90023D4E90012B7
:10160000CDE9021200220023D4E90201FEF75CFFBB
:10161000DDE90223FEF7A0FDDDE90023FEF79EFDD4
:10162000029021F00047D0E7DDE9000109F072FDEA
:10163000CDE906010298394609F06CFDFFF7DEF9A5
:101640008146DDE90601FFF7D9F94A460146874898
:1016500008F078FCC8E7D4E90223D8E90201FEF7D4
:101660007BFD04460D4600220023FFF79FF900286A
:1016700069D10022002320462946FFF7B5F900284A
:1016800064D04FF0000B0022794B02983946FFF7E7
:10169000ABF9002800F06981BBF1010F00F0C180B7
:1016A000BBF1000F67D0BBF1020F00F026810024D0
:1016B000A1462546A04672E1D4E90223D8E90201F9
:1016C000FEF74AFD04460D4600220023FFF76EF99F
:1016D00000283ED10022002320462946FFF784F946
:1016E000002839D04FF0010BCDE7D4E90023D8E929
:1016F0000001FEF731FD04460D4600220023FFF7EE
:1017000055F960BB0022002320462946FFF76CF9FB
:1017100040B34FF0010BB6E7D4E90023D8E900014C
:10172000FEF71AFD04460D4600220023FFF73EF99E
:10173000D8B90022002320462946FFF755F9B8B151
:101740004FF0000B9FE74FF0010B9CE74FF0020BAF
:1017500099E74FF0000B96E74FF0020B93E74FF03D
:10176000000B90E74FF0020B8DE74FF0010B8AE77B
:101770004FF0020B87E7DDF8088042463B464046C3
:101780003946FEF7EBFC04460D460022394BFFF7C5
:1017900017F978B90022384B20462946FFF71AF985
:1017A00050BB0022354B40463946FEF78DFE0546BC
:1017B000884602E00025DFF8CC8000220023DDE926
:1017C0000001FFF711F968B100222D4BDDE900019E
:1017D000FEF77AFE02460B4628464146FEF7BEFC5F
:1017E0000546884600220023DDE90001FFF7DEF808
:1017F00030B90024A146D2E00025DFF87C80DCE788
:1018000000221F4BDDE90001FEF75EFE02460B469B
:1018100028464146FEF7A0FC054688460024A1461E
:10182000BDE0DDF8088042463B4640463946FEF7BB
:1018300095FC04460D4600220E4BFFF7C1F818BB7D
:1018400000220D4B20462946FFF7C4F8002840D15E
:1018500000220A4B40463946FEF736FE04468946CA
:1018600015E000BF100C00201F85EB519CCA00083A
:10187000000014400000594000C0824000000840B1
:1018800000405F4000C062400024DFF85492002214
:101890000023DDE90001FFF789F8F0B900220023F9
:1018A000DDE90001FFF7A0F8002800F0E180002248
:1018B000854BDDE90001FEF707FE024621F00043FB
:1018C00020464946FEF748FC044689460025A846BE
:1018D00065E00024DFF80C92D9E700227A4BDDE9BD
:1018E0000001FEF7F1FD024621F000432046494683
:1018F000FEF734FC04468946D0E700220023DDE9E8
:10190000004520462946FFF76FF880B16AA3D3E966
:10191000002320462946FEF7D7FD69A3D3E900231B
:10192000FEF71CFC054688460024A14637E000224D
:101930000023DDE90001FFF739F820B90024A146B2
:101940002546A0462BE05CA3D3E90023DDE9000196
:10195000FEF7BAFD5AA3D3E90023FEF7FFFB0446C6
:1019600021F000490025A84619E000220023DDE906
:10197000004520462946FFF737F800285AD04EA3E5
:10198000D3E9002320462946FEF79EFD4CA3D3E968
:101990000023FEF7E3FB054688460024A14600220B
:1019A0004A4B284628F00041FFF71EF850B10022AC
:1019B000002328464146FFF717F800285BD0002592
:1019C000DFF808810022414B204629F00041FFF753
:1019D0000BF850B10022002320464946FFF704F8D7
:1019E00000284CD00024DFF8E4900022384BDDE9D9
:1019F0000401FEF793FECDE904012A464346FEF7B3
:101A000063FDC6E9000122464B46DDE90401FEF70D
:101A10005BFDCAE900012F4B1A682F4BA3FB021391
:101A20005B09642101FB1323092B2CD9002009B089
:101A3000BDE8F08F00220023DDE90001FEF7B6FFCC
:101A400020B90024A1462546A046A8E71AA3D3E959
:101A50000023DDE90001FEF737FD19A3D3E90023D8
:101A6000FEF77CFB044621F000490025A84696E7D6
:101A70000025A84693E70025DFF86C80A2E7002444
:101A8000DFF86490B1E7DDE9000109F043FB0446AB
:101A90000D460298394609F03DFBFEF7AFFF0646BA
:101AA00020462946FEF7AAFF5B46324601460B4810
:101AB00008F048FABAE700BF0000000000C062402A
:101AC0000000000000C0524000405F4000908A408B
:101AD00000408F40100C00201F85EB51BCCA00084D
:101AE00000C0624000C0824000908AC010B5022150
:101AF000002008F007F940B1084B00241C810322A4
:101B00009A7208F0E7FB204610BD044B4FF4617257
:101B10001A8101229A724FF0FF30F5E73C00002055
:101B200010B50121002008F0EDF840B1084B002469
:101B30005C8003221A7108F0C7FB204610BD044BDD
:101B40004FF461725A8001221A714FF0FF30F5E7AD
:101B50003C000020000000002DE9F04FB9B08246A3
:101B60000F46A94C4822214626A80AF03DFE9022A5
:101B700004F1480102A80AF037FE00240094019401
:101B800000E00134082C1EDC9BA3D3E9002338A914
:101B900001EBC40555E93601FEF796FC45E936012F
:101BA000022CEEDD0020994938AB03EBC40343E976
:101BB000360104F1090338AA02EBC303002094495B
:101BC00043E93601DDE71FB902230193009CBDE024
:101BD000012F06D0022FF9D1012300930223019394
:101BE000F4E701230193F1E708F062FB0646B6E053
:101BF00008F064FB0646B2E0002DB8BF6D42C5F5A3
:101C00000065C2E004EBC4031A440CEBC20252E9C3
:101C1000368900284EDD4046494609F07BFAFEF73A
:101C2000EDFE04EB44035A007A4B13445880002223
:101C3000002340464946FEF7AFFE80B304EB440361
:101C40005A00744B134403221A71734B01221A5524
:101C5000002F58D1704B1B78002B66D06E4B5B78F1
:101C6000002B40F099804FF0000B60E00132082A11
:101C7000CFDC80EAE071A1EBE07104EBC403134414
:101C80000DF1E00C0CEB830353F8483C9942B9DAB0
:101C9000082AEBD14FF000084FF00009E6E704EB0B
:101CA00044035A005B4B134401221A715A4B002221
:101CB0001A55CDE74046494609F02CFAFEF79EFE3C
:101CC00004EB44035A00534B134458800022002372
:101CD00040464946FEF760FE50B104EB44035A000B
:101CE0004C4B134403221A714B4B01221A55AFE798
:101CF00004EB44035A00474B134402221A71464B2B
:101D000000221A55A4E7012F08D0022F0FD1424B11
:101D10005B78002B46D04FF0010B08E03E4B1B7860
:101D2000002B3CD04FF0010B01E04FF0000B3B4B80
:101D30001A683B4BA3FB02135B09642101FB1323CD
:101D4000092B02D88CB3012C40D00134019BA34253
:101D50004DDD002C3FF448AF012C3FF449AF7342F6
:101D6000C6F30A05C3F30A0358BF5D425046FEF7A7
:101D700041FB23A3D3E90023FEF7A6FB09F0CAF930
:101D8000FEF73CFE002DFFF637AF4FF40062294608
:101D9000FEF7E0FF00226AE74FF0010BC7E74FF0C4
:101DA000000BC4E74FF0000BC1E72846FEF722FB0B
:101DB00000221C4BFEF788FB09F0ACF9FEF71EFE73
:101DC00052460146184808F0BDF8BEE72846FEF71F
:101DD00011FB0022134BFEF777FB09F09BF9FEF78E
:101DE0000DFE52460146114808F0ACF8ADE75846E2
:101DF00039B0BDE8F08F00BF713D0AD7A370ED3F49
:101E0000176CC1166CC1164018C8000800B08D4090
:101E100000208C403C000020C0030020100C00205B
:101E20001F85EB510080C63F74CB000890CB0008A3
:101E300038B52A4B1B783BBB294B1B7843B1284B49
:101E40005B7863B1264B1B78012B0FD0002038BD87
:101E50000121E120FFF780FE214B1870EFE70221FE
:101E6000DC20FFF779FE1E4B5870EBE71C4B5B78CC
:101E7000012B01D00020EAE7184B01221A70184B01
:101E8000002018705870E2E704460121E120FFF7B6
:101E900063FE0221DC20FFF75FFE65690022114B23
:101EA000206925F00041FEF78BFD50B90E4B03224F
:101EB0001A749A750022DA819A82084B1A700120EE
:101EC000C5E7094B01221A749A7540F23A72DA8119
:101ED00040F2F3729A820020B9E700BFA403002009
:101EE00098040020004066403C00002000000000F4
:101EF0002DE9F04F9FB09DF8A4809DF8A8700025B3
:101F00008DF81F508DF81E508DF81D508DF81C5007
:101F10008DF81B50012972D01E460446002A40F05D
:101F20009480A54B1B78002B37D1A44B92A1D1E90B
:101F30000001C3E9000192A1D1E90001C3E9020156
:101F400091A1D1E90001C3E9040191A1D1E9000106
:101F5000C3E906014FF0000ADFF870B2C3E908AB2D
:101F600000200021C3E90A01C3E90CABC3E90E015B
:101F700089A1D1E90001C3E9100189A1D1E90001DA
:101F8000C3E912010FF2202BDBE900ABC3E914AB6C
:101F9000C3E91601884B01221A70894B988ADB89A4
:101FA0001844FEF727FA0022864BFEF78DFAFEF75B
:101FB00025FD0646B8F1000F5DD10025032D46DC56
:101FC0000DF11B03324602212846FFF7ADF91EAB87
:101FD00003EB850343F8580C0135EFE7CA0083187B
:101FE00000240025C3E90045774B1344C3E90045AD
:101FF00001310229F2DD00201FB0BDE8F08F002181
:10200000F7E7D7E90001704B03EBC503C3E9000113
:102010000135022DEFDC735D002BF9D0EB00289A1F
:10202000D7182344D7E90001C3E90001012DE8D8FE
:102030005FA3D3E90023D7E90001FEF745FA624B1D
:1020400003EBC503C3E90001E2E70025E1E79DF8E2
:102050001B3073B900275BE11EAA02EB830200214B
:1020600042F8581C0133032BF6DD00238DF81B309A
:10207000F0E70023F7E7032FECD8DFE807F0A9A982
:1020800002020DF11F03024602210020FFF74CF966
:10209000054608900DF11E03002202210120FFF7E2
:1020A00043F909900DF11D03324602210846FFF75E
:1020B0003BF906460A9007AB002202210320FFF7F6
:1020C00033F90B909DF81E302BBB9DF81C3053BB91
:1020D0009DF81F307BBB9DF81D30A3BB9DF81E20D3
:1020E00012B99DF81C3013B1002309930B939DF88E
:1020F0001F3083B39DF81D1069BB08963BB99DF84E
:102100001D3023B99DF81C300BB9002AA2D0012341
:102110002B9A13709EE70DF11A0300220121084645
:10212000FFF702F9D1E70DF11A0300220121032084
:10213000FFF7FAF8CCE70DF11A030022012110464F
:10214000FFF7F2F8C7E70DF11A0300220121022080
:10215000FFF7EAF8C2E723B99DF81D1009B10A9507
:10216000CCE7002BCAD09DF81D100029C6D0002155
:1021700008910A91C2E700BF0A5D4647DB93ACBFF6
:102180007362E6D02773E1BF0A5D4647DB93AC3F3D
:102190001A3B335EB019DD3FCD7E4F03344AD33F47
:1021A0004A1B3DA0F550CF3FCD7E4F03344AD3BFED
:1021B00004B6B7E795294B40B1030020280300205F
:1021C0003C0000200000E03F080400200000E0BFC9
:1021D0000DF11F03002202211046FFF7A5F8089019
:1021E0000DF11E03324602210120FFF79DF807463C
:1021F00009900DF11D03002202210846FFF794F813
:102200000A9007AB324602210320FFF78DF80546FE
:102210000B909DF81E303BBB9DF81C3063BB9DF8B6
:102220001F308BBB9DF81D30B3BB9DF81D2012B92C
:102230009DF81F3013B1002308930A939DF81C30BA
:1022400093B39DF81E1079BB7F420B979DF81F102A
:1022500031B92AB923B99DF81E30002B3FF4FAAEEC
:1022600001232B9A1370F5E60DF11A0300220121C8
:102270000846FFF759F8CFE70DF11A0300220121B4
:102280000320FFF751F8CAE70DF11A0300220121DC
:102290001046FFF749F8C5E70DF11A0300220121A6
:1022A0000220FFF741F8C0E72BB99DF81E1011B1CD
:1022B0006D420995CAE7002BC8D09DF81E10002971
:1022C000C4D0002109910B91C0E705EB8702A44B14
:1022D00003EBC203D3E900891EAB03EB850353F87C
:1022E000580CFEF787F802460B4640464946FEF773
:1022F000EBF802460B461EA901EBC70656E906019C
:10230000FDF72CFF46E906010135032DDDDD013720
:10231000022F08DC002000211EAB03EBC70343E9BA
:1023200006010025F1E78F4BD3E90467DDE91C23A3
:1023300030463946FDF712FFCDE916017EA3D3E9F9
:10234000002330463946FEF7BFF87DA3D3E90023CA
:10235000FEF7BAF87CA3D3E9002308F071FF8146A9
:10236000884677A3D3E90023484628F00041FEF7CA
:1023700031FB80B10022002348464146FEF72AFB8C
:1023800000285CD070A3D3E9002348464146FDF7FE
:10239000E3FE81468846734DD5E90067DDE918AB59
:1023A0004846414608F06EFECDE9000102460B4664
:1023B00050465946FEF788F802460B4630463946E5
:1023C000FDF7CCFECDE90401DDE91A674846414638
:1023D00008F0EEFE02460B46CDE9022330463946B0
:1023E000FEF772F802460B46DDE90401FDF7B6FE82
:1023F000CDE91201D5E90289DDE9022350465946AB
:10240000FEF762F802460B4640464946FDF7A4FE39
:102410008046894632463B46DDE90001FEF754F826
:1024200002460B4640464946FDF798FECDE91401A9
:10243000032212A92846FEF7C1FC002516E042A39C
:10244000D3E9002348464146FDF788FE8146884689
:10245000A1E71EAB03EBC5063DA3D3E9002356E974
:102460000C01FEF731F846E912010135012DF0DDCE
:1024700039A3D3E90023DDE91601FEF725F8CDE9FC
:1024800010010022384B08F0DBFE06460D460246DE
:102490000B46CDE910230022344B304625F0004195
:1024A000FEF798FA78B10022002330462946FEF75D
:1024B00091FA002835D000222B4B30462946FDF7F3
:1024C0004BFECDE9100103220CA92046FEF776FC55
:1024D000274B1A68274BA3FB02135B09642101FBFE
:1024E0001323092B3FF687ADD4E90067D4E90289AD
:1024F0000022214BD4E90401FDF7E6FFFEF77EFA46
:10250000054640464946FEF779FA044630463946C4
:10251000FEF774FA2B4622460146184807F012FDD2
:1025200069E50022104B30462946FDF717FECDE93C
:102530001001C8E7AFF30080682FA1BD84F6F23E1A
:10254000182D4454FB210940182D4454FB211940F7
:10255000D221337F7CD9923FABAAAAAAAAAA6A3F0A
:102560002803002008040020008076400080664098
:10257000100C00201F85EB510000594048CB00088B
:102580002DE9F04F8FB082468B46CDE9042300231E
:102590008DF81B30D0E9004522462B467849D1E919
:1025A0000001FEF7F9F9C0B1DAE902237449D1E973
:1025B0000201FEF7F1F980B1DBE900237149D1E9AD
:1025C0000001FEF7E9F940B1DBE902236D49D1E9E9
:1025D0000201FEF7E1F9002833D16B4B01221A709A
:1025E000674BC3E90045DAE90289C3E90289DBE9FF
:1025F0000001644BC3E90001DBE90267C3E902673C
:1026000022462B46FDF7A8FD04460D460022002376
:10261000FEF7C2F930B342464B4630463946FDF725
:102620009BFD00220023FEF7D5F9B8B1574B0222DB
:102630001A70002200235649C1E900235549C1E917
:102640000023514B1B78002B00F091804F4B1B78DF
:10265000032B28D8DFE803F0556C21404B4B0322B5
:102660001A70E6E742464B4630463946FDF774FDA0
:1026700000220023FEF790F90028DAD00022002380
:1026800020462946FEF7A6F918B1404B00221A70E1
:10269000CFE73E4B01221A70CBE73F4B1B786BB163
:1026A0003D4B5B788BB13C4B1B78012B40F07D811F
:1026B000394B5B78012B52D004243DE10121B42039
:1026C000FFF74AFA344B1870EAE70221AF20FFF710
:1026D00043FA314B5870E6E72F4B1B7853B12E4B22
:1026E0005B78002BDFD10221AF20FFF735FA2A4BB0
:1026F0005870D8E70121B420FFF72EFA264B187046
:10270000EDE7254B1B785BB1234B5B78002BCAD1DF
:10271000022140F20910FFF71FFA1F4B5870C2E761
:1027200001214FF48770FFF717FA1B4B1870EBE786
:10273000194B1B785BB1184B5B78002BB3D102218E
:1027400040F20910FFF708FA134B5870ABE701216C
:102750004FF48770FFF700FA0F4B1870EBE7002378
:10276000094A13700C4A137053700424E4E0074BB9
:102770001B78032B1AD8DFE803F0A6B1119D00BF28
:102780004004002060040020A0030020B8030020C3
:1027900088040020A8030020940400200121B32015
:1027A000FFF7DAF90221B020FFF7D6F986480DF1DC
:1027B0001B030393854B1B78029301230193009025
:1027C00007AB00221146FFF793FB9DF81B3023B1A6
:1027D0007F4B01221A707F4B1B687C4E33787A4DF9
:1027E00003939DF860300293DDE90434CDE90034B1
:1027F0002B465A4651460CA8FEF73EF9044633785C
:1028000003930295CDF804B0CDF800A0DDE90C23C8
:1028100008A90AA8FEF7C0FEDDE90C67DDE90A2376
:1028200030463946FDF79AFC804689466A4BC3E933
:102830000089DDE9082330463946FDF78FFC06465E
:102840000F46664BC3E90067002200234046494615
:10285000FEF7ACF800284CD1002200233046394660
:10286000FEF7A4F800284AD155A3D3E900235A491A
:10287000D1E90001FEF7B8F828B1574B50A1D1E9D2
:102880000001C3E900014EA3D3E900235349D1E974
:102890000001FEF7A9F828B1504B49A1D1E9000188
:1028A000C3E90001494B1B78032B43D8DFE803F051
:1028B0005F2D2D5F0121B420FFF74EF90221AF20DB
:1028C000FFF74AF972E701214FF48770FFF744F9E7
:1028D000022140F20910FFF73FF967E701214FF4A9
:1028E0008770FFF739F9022140F20910FFF734F938
:1028F0005CE7394B00200021C3E90001ACE7374B0E
:1029000000200021C3E90001AEE7354D01232B74FF
:102910000223AB75304BD3E9000108F0FBFBFEF757
:102920006DF8E8812D4BD3E9000108F0F3FBFEF7C9
:1029300065F8A882032C30D0264B1A68294BA3FBDC
:1029400002135B09642101FB1323092B0BD8204BD5
:102950001B7863B3244807F0F5FA9DF81B3053BB8E
:10296000224807F0EFFA20460FB0BDE8F08F1C4D6B
:1029700002232B740123AB75184BD3E9000108F037
:10298000C9FBFEF73BF8E881134BD3E9000108F0DF
:10299000C1FBFEF733F8A882CCE7114B0022DA81A5
:1029A0009A8203221A749A75C6E70424C4E7104871
:1029B00007F0C8FAD1E70F4807F0C4FAD3E700BF21
:1029C000000000008087C340F0030020B80300200F
:1029D00092030020100C002088040020A80300208F
:1029E0003C0000201F85EB51E8CA000834CB0008EA
:1029F00004CB000820CB000808B504F08DF80020B7
:102A000008BD000000000000F0B58FB08E4B9B7831
:102A100013F0400F02D18D4B01221A708A4B9A7825
:102A20005A789B7813F0100F02D1894B01221A704B
:102A3000854B9B7803F00303032B04D0824B9B78D8
:102A400013F0010F02D1834B01221A707E4B9B7849
:102A500003F00303032B01D07B4B9B787A4B9B78CD
:102A600003F00C030C2B04D0774B9B7813F0040F6E
:102A700002D1794B01221A70734B9B7803F00C033F
:102A80000C2B04D0704B9B7813F0080F02D1734BC2
:102A900001221A706C4B5A785A785A785B784FF446
:102AA0000061002007F02EF910B16D4B01221A7061
:102AB0002021022007F026F910B16A4B01221A707A
:102AC0004FF48051002007F01DF910B1664B012230
:102AD0001A704FF48071022007F014F910B1634BA3
:102AE00001221A704FF40061002007F00BF950B971
:102AF0005B4B1B783BB15E4B01221A7000235D4A91
:102B00001370574A13704FF48071022007F0FAF8DF
:102B100050B9564B1B783BB10023554A1370554AA8
:102B200001211170514A13700121022007F0EAF8C7
:102B300000287CD1504B01221A70434B9B7803F044
:102B40000303032B13D0404B9B7813F0010F0ED0DF
:102B5000404B1B785BB1494A136801331360042B67
:102B600002DD134600221A603A4B00221A70364BDF
:102B70009B7803F00C030C2B07D0334B9B7813F09E
:102B8000040F02D0344B1B783BB92021022007F000
:102B9000B9F898B9334B1B7883B1394B1B780B2BA1
:102BA00049D00133364A13700023314A1370314A39
:102BB00001211170284A13702A4A1370224B9B7806
:102BC00003F00C030C2B07D01F4B9B7813F0080F5E
:102BD00002D0224B1B7843B94FF48051002007F0FC
:102BE00091F890B9204B1B787BB1254B1B7833BBF8
:102BF000234B0B221A7000231D4A13701D4A01211A
:102C00001170164A1370184A13701D4B1B780B2B4A
:102C100041D8DFE813F0211E9700B700D9006606FF
:102C2000CE0C190D640DAF0DB11337008D00124B92
:102C300000221A7081E7124B00221A70B4E7013BA0
:102C40000F4A1370D7E700BF140C00208803002040
:102C5000CC040020CE04002090040020B00300200B
:102C6000D0030020CF030020CD030020CE0300209E
:102C7000A503002001000020A2030020240300205F
:102C800003000020A84B1B781BB1A84B0022DA716F
:102C90001A72FEF777F8A64B1B78002B03F00D860F
:102CA000A44B5B7813F0080F04D0A24B5B7813F0B1
:102CB000020F05D14FF48071022007F023F838BBD2
:102CC0000DF11703002201211046FEF72DFB0DF137
:102CD0001703002201210846FEF726FB0DF117031A
:102CE000002201210220FEF71FFB0DF11703002235
:102CF00001210320FEF718FB8F480DF11603039303
:102D000000220292019200900DAB0121FFF7F0F832
:102D10008A4B1A688A4BA3FB02135B09642101FBEF
:102D20001323092B43F20C86002318460FB0F0BD85
:102D30007D4B1B781BB17D4B0022DA711A72FEF7B6
:102D400021F8A8E7784B1B7883B97E4B1B78002BC2
:102D5000A1D07D4B1B78002B9DD00020FEF73EF8C4
:102D6000022898D1784B00221A7094E76F4B0C22FE
:102D7000DA710A221A720220FEF730F8724B012231
:102D80001A70E2E7684B1B7893B96E4B1B78002BE7
:102D900081D06D4B1B78002B3FF47DAF0120FEF7F7
:102DA0001DF802287FF477AF674B00221A7072E794
:102DB0005E4B0C22DA7108221A720220FEF70EF81E
:102DC000614B01221A70E0E7574B1B78D3B95D4B7A
:102DD0001B78002B3FF45FAF5C4B1C680E2C3FF65A
:102DE0005AAFDFE814F05D00DB00AE014302580289
:102DF000B40210032C039B03B703E2033904550408
:102E0000E5043605524A537803F0C30353700DF1BD
:102E10001703002201211046FEF786FA0DF1170371
:102E2000002201210846FEF77FFA0DF11703002268
:102E300001210220FEF778FA0DF11703002201218B
:102E40000320FEF771FA3C480DF1160303930024AA
:102E50000294019400900DAB22460121FFF748F83F
:102E60003C4B1C603C4B1C6001253C4B1D703C4B9B
:102E70001C703C4B1C70FDF785FF344B1C602946D1
:102E80002846FEF733F80195009423462246214652
:102E90000220FEF7AFF9254BDD710C221A7296E77E
:102EA0002E4B1B78002B63D023480DF116030393A0
:102EB00000210291019100900DAB0A46FFF718F82E
:102EC000294900220023C1E90023C1E9022327493F
:102ED000C1E9002312A3D3E90023C1E9022304E0DE
:102EE000124B234403225A700134072CF8DD1B4B8C
:102EF00000221A701B4B1B78002B7FF4CCAE0022F3
:102F00000192009213464FF0FF310420FEF772F950
:102F100001287FF4C0AE134B01221A70BBE600BF3C
:102F200000000000000CB74001000020300000202D
:102F300003000020140C0020D8030020100C0020F7
:102F40001F85EB51A5030020A1030020C40300202E
:102F50002C000020C80300208C0300200200002069
:102F600020030020A3030020A0040020B0040020C0
:102F70000123019300939EA3D3E90023A449A5480C
:102F8000FFF7FEFAA44B18700328B3D1A34B01221C
:102F90001A70A34A136801331360ABE79F4B1B7889
:102FA00043BBA04B1B68A04A12689B1A40F6FB016A
:102FB0008B424ED99B4B1B689B1A40F6E3418B42D8
:102FC00070D9984B1B689B1A41F2CB0293424BD8A5
:102FD0000121F020FEF7C0FD0221EB20FEF7BCFD31
:102FE000924B02221A7401229A7540F6AC52DA8191
:102FF0009A8239E08E4D0DF116030393002402945A
:10300000019400950DAB224621462846FEF770FF3D
:10301000804B00200021C3E90001D5E90201C3E98A
:1030200002017B4B0026834FC3E90067C3E902011D
:10303000234604E0804A1A44022151700133072BD1
:10304000F8DD764B00221A70764B1A68764B1A60C0
:1030500013E00123019300930022764B6C496D48E5
:10306000FFF78EFA6C4B18706E4B1B686E4A126835
:103070009B1A41F2CB0293422DD8704B1B78002B48
:103080007FF409AE00220192009213464FF0FF3107
:103090000420FEF7AFF801287FF4FDAD674B012255
:1030A0001A70F8E5664A537843F00803537001211B
:1030B0004FF49670FEF750FD022140F22710FEF704
:1030C0004BFD5A4B02221A7401229A7540F6AC52FB
:1030D000DA819A82C8E7554B03221A749A75002444
:1030E000DC819C824C4B04221A704F4B1C60FDF714
:1030F0005BFE01258DF834508DF835508DF8365033
:103100000022504BCDE906233BA3D3E90023CDE9B0
:10311000082300220023CDE90A230DF116030393AF
:103120000294019406AB00930DAB2A462146404819
:10313000FEF7DEFE394B1D70394A13682B441360CD
:103140009BE73E4B1B789BB1344B1B78FBB9324B52
:103150001B78032B7AD001230193009328A3D3E992
:1031600000232B492B48FFF70BFA2B4B187092E5E5
:1031700000220192009213464FF0FF310420FEF727
:1031800039F80128E0D12D4B01221A70DCE7284DD7
:103190000DF11603039300240294019400950DABE6
:1031A000224621462846FEF7A3FE1A4B0020264958
:1031B000C3E90001D5E90201C3E90201144B12A7DA
:1031C000D7E90067C3E90067C3E90201234604E0C9
:1031D000194A1A44042151700133072BF8DD0023EA
:1031E0000E4A13700C4A137055E500BFAFF3008010
:1031F000000000000094B14000000000000CB74047
:10320000000000000070A7400000000000589BC0B4
:10321000B0040020A00400200400002002000020D0
:10322000C4030020100C00208C0300203C00002070
:10323000D803002000409F4030000020A30300205E
:103240002C00002000006940008066409A4B1B78EB
:10325000002B3FF420AD994B01221A70984A136855
:1032600001331360944B00221A7014E5954B1B78C0
:10327000012B06D000210220FDF738FE914B18707B
:1032800009E58E4B01221A7014448D4B1C608D4B46
:1032900000221A70FFE4894B1B78A3B98A4B1B7874
:1032A000032B3FD00123019300937DA3D3E9002397
:1032B00086498748FFF764F9834B1870854B1A6875
:1032C000854B1A60E7E4854D0DF116030393002446
:1032D0000294019400950DAB224621462846FEF744
:1032E00007FED5E900017A4BC3E900016EA7D7E9D3
:1032F0000067C3E90267754BC3E900016CA1D1E91E
:103300000001C3E90201234604E0754A1A4405217D
:1033100051700133072BF8DD0023684A13706A4AA5
:103320001370B8E46F4A537843F030035370694B1D
:103330001B68694A12689B1AB3F5FA7F7FF6ABAC3B
:103340005E4B01221A7014445D4B1C60A3E45B4B7E
:103350001B78A3B95C4B1B78032B3FD0012301934F
:1033600000934FA3D3E9002358495948FFF708F9C0
:10337000554B1870574B1A68574B1A608BE4574DD2
:103380000DF11603039300240294019400950DABF4
:10339000224621462846FEF7ABFDD5E900014C4BFD
:1033A000C3E9000142A7D7E90067C3E90267474BB9
:1033B000C3E900013CA1D1E90001C3E902012346B0
:1033C00004E0474A1A44062151700133072BF8DD07
:1033D00000233A4A13703C4A13705CE4414A537824
:1033E00043F0040353703B4B1B683B4A12689B1A23
:1033F000B3F5FA7F7FF64FAC304B01221A701444BC
:103400002F4B1C6047E42C4B1B78002B7FF443AC04
:1034100001930122009213464FF0FF310220FDF785
:10342000E9FE01287FF437AC234B00221A70234BAE
:1034300001221A70224A1368013313602BE41F4BD8
:103440001B78002B52D0254D0DF116030393002459
:103450000294019400950DAB224621462846FEF7C2
:1034600047FDD5E900011A4EC6E90001D5E902235E
:10347000C6E90223154BC3E9000100201A49C3E93C
:103480000201234604E0164A1A440E21517001330A
:10349000072BF8DD094B00221A70FFF7FCBB00BFB9
:1034A000000000000070A74000000000000CB740C2
:1034B0000000000000C8B940A30300200200002063
:1034C000C40300202003002004000020B0040020DA
:1034D000A0040020100C00201C030020D8030020B2
:1034E000300000202C0000200000B940012301938F
:1034F000009397A3D3E900239D499E48FFF740F826
:103500009D4B187003287FF4C6AB9C4B01221A70A8
:103510009B4A136801331360FFF7BDBB994B1B78BF
:10352000012B07D000210320FDF7E0FC954B18701C
:10353000FFF7B1BB944A537843F0200353708F4B8D
:1035400001221A7014448E4B1C608E4B00221A709C
:10355000FFF7A1BB894B1B7843B18C4B1A688C4B8E
:103560001A60864B00221A70FFF795BB874B1B68C9
:10357000874A12689B1AB3F5967F0DD9854B0322B3
:1035800083F8222000221A847C4B01221A701444F2
:103590007B4B1C60FFF77FBB7E4B012283F8222010
:1035A00040F6B8321A84FFF776BB744B1B78002BB9
:1035B0003AD0794A136801331360312B7FF76BAB34
:1035C000764D0DF1160303930024029401940095A7
:1035D0000DAB224621462846FEF78AFC654E5EA3C7
:1035E000D3E90023C6E9002300226D4BD5E902018F
:1035F000FCF7B4FDC6E902015D4B59A7D7E90067A6
:10360000C3E90067C3E90201234604E0654A1A449E
:103610000F2151700133072BF8DD00235E4A136040
:10362000564A1370FFF737BB012301930023009321
:1036300000225D4B4E494F48FEF7A2FF4E4B1870DB
:1036400003287FF428AB4D4B01221A704C4A1368B3
:1036500001331360FFF71FBB4B4A537843F0340329
:103660005370484B1B78012B07D000210220FDF737
:103670003DFC444B1870FFF70EBB404B01221A7003
:1036800014443F4B1C603F4B00221A70FFF703BBF2
:103690003A4B1B78A3B9384B1B78032B3FD001233F
:1036A000019300930022404B31493248FEF768FFF6
:1036B000314B1870354B1A68354B1A60FFF7EBBA6F
:1036C000364D0DF1160303930024029401940095E6
:1036D0000DAB224621462846FEF70AFCD5E900013B
:1036E000244BC3E900010026304FC3E90267204B99
:1036F000C3E900011CA1D1E90001C3E9020123468D
:1037000004E0284A1A44062151700133072BF8DDE2
:1037100000231A4A1370184A1370FFF7BCBA1A4AEA
:10372000537823F008035370184B1B68184A12682B
:103730009B1AB3F5FA7F7FF6AEAA104B01221A70DE
:1037400014440F4B1C60FFF7A6BA00BFAFF3008014
:10375000000000000070A7400000000000589BC05F
:1037600000000000002CAAC000000000000CB740C0
:10377000B0040020A004002004000020020000206B
:10378000C4030020200300202C000020100C002087
:103790001C0300203C000020C8030020D8030020A8
:1037A000000049403000002000409F400000B94028
:1037B000A34B1B78002B35D0A24A1368013313604A
:1037C000632B7FF768AAA04D0DF116030393002425
:1037D0000294019400950DAB224621462846FEF73F
:1037E00087FB9A4B90A1D1E90001C3E90001D5E91B
:1037F0000201C3E90201964B00260027C3E90067D6
:10380000C3E90201234604E0924A1A440F21517091
:103810000133072BF8DD00238A4A1360884A1370AE
:10382000FFF739BA01230193009300228A4B88499C
:103830008648FEF7A5FE894B187003287FF42BAA53
:103840007F4B01221A70864A136801331360FFF719
:1038500022BA7B4B1B78002B2CD07B4D0DF116032D
:10386000039300240294019400950DAB2246214657
:103870002846FEF73DFBD5E90001744BC3E9000182
:103880006BA7D7E90067C3E90267714BC3E9000181
:1038900000200021C3E90201234604E06D4A1A44D6
:1038A0000E2151700133072BF8DD654B00221A7091
:1038B000FFF7F1B90123019300930022664B64499D
:1038C0006248FEF75DFE654B187003287FF4E3A99C
:1038D0005B4B01221A70624A136801331360FFF7D1
:1038E000DAB9604B1B78C3B95F4B1B78002B3FF4F0
:1038F000D2A95B4B1C680C2C3FF6CDA9DFE814F075
:103900005500D200A00132029102EF028A03E803BF
:103910004604DA0438059605E7050DF11703002281
:1039200001211046FDF700FD0DF1170300220121D2
:103930000846FDF7F9FC0DF11703002201210220D2
:10394000FDF7F2FC0DF11703002201210320FDF722
:10395000EBFC3D480DF116030393002402940194FF
:1039600000900DAB22460121FEF7C2FA354B1C60D8
:103970003E4B1C600125324B1D703D4B1C703D4B76
:103980001C70FDF7FFF9364B1C6029462846FDF7F1
:10399000ADFA019500942346224621460220FDF708
:1039A00029FC2C4BDD711D729EE7254B1B78002BEB
:1039B00062D025480DF11603039300210291019175
:1039C00000900DAB0A46FEF793FA2049002200232F
:1039D000C1E90023C1E902231D49C1E9002316A35F
:1039E000D3E90023C1E9022304E01A4B2344032254
:1039F0005A700134072CF8DD114B00221A701D4B50
:103A00001B78002B7FF447A90022019200921346F5
:103A100001210220FDF7EEFB01287FF43CA9154BA4
:103A200001221A70FFF737B900000000002CAAC06D
:103A300000000000000CB740000000000078AE401D
:103A400002000020C8030020D8030020A0040020AA
:103A5000B0040020300000200040AF4004000020EF
:103A6000C403002001000020A50300208C030020D7
:103A700020030020A3030020012301930093A4A3AB
:103A8000D3E90023A849A948FEF77AFDA84B18708E
:103A90000328B4D1A74B01221A70A74A1368013337
:103AA0001360ACE7A34B1B7843BBA44B1B68A44A31
:103AB00012689B1A40F6FB018B424ED99F4B1B6844
:103AC0009B1A40F6E3418B4270D99C4B1B689B1AB2
:103AD00041F2CB0293424BD80121F020FEF73CF893
:103AE0000221EB20FEF738F8964B02221A740122CD
:103AF0009A7540F6AC52DA819A8239E0924D0DF116
:103B00001603039300240294019400950DAB224602
:103B100021462846FEF7ECF9844B00200021C3E93A
:103B20000001D5E90201C3E902017F4B0026874F5E
:103B3000C3E90067C3E902012346072B05DC844A79
:103B40001A44022151700133F7E77A4B00221A70B0
:103B50007A4B1A687A4B1A6013E0012301930093A1
:103B600000227A4B70497148FEF70AFD704B1870BD
:103B7000724B1B68724A12689B1A41F2CB02934245
:103B800028D8744B1B78002B7FF485A80022019263
:103B90000092134601210220FDF72CFB01287FF43F
:103BA0007AA86C4B01221A70FFF775B801214FF407
:103BB0009670FDF7D1FF022140F22710FDF7CCFFF0
:103BC000604B02221A7401229A7540F6AC52DA81D7
:103BD0009A82CDE75B4B03221A749A750024DC812C
:103BE0009C82534B04221A70554B1C60FDF7DCF885
:103BF00001258DF834508DF835408DF8365000226F
:103C0000554BCDE9062344A3D3E90023CDE908238E
:103C100000220023CDE90A230DF116030393029439
:103C2000019406AB00930DAB2A4621464648FEF7A9
:103C30005FF9404B1D70404A13682B441360A0E7A6
:103C4000444B1B789BB13B4B1B78F3B9384B1B782B
:103C5000032B49D001230193009300223F4B3249AB
:103C60003248FEF78DFC324B1870FFF714B8002273
:103C700001920092134601210220FDF7BBFA0128B0
:103C8000E1D1344B01221A70DDE72F4D0DF11603FF
:103C9000039300240294019400950DAB2246214623
:103CA0002846FEF725F9214B00202D49C3E90001E4
:103CB000D5E90201C3E902011B4B19A7D7E9006747
:103CC000C3E90067C3E902012346072B05DC204A4C
:103CD0001A44042151700133F7E70023154A137089
:103CE000134A1370FEF7D7BF1A4B1B78002B3EF414
:103CF000D2AF104B01221A700F4A136801331360C0
:103D0000144B00221A70FEF7C6BF00BFAFF300804D
:103D1000000000000094B140000000000078AE40B8
:103D20000000000000589BC0B0040020A004002048
:103D30000400002002000020C4030020100C00201A
:103D40008C0300203C000020D803002000409F404E
:103D500030000020A3030020000069400040AF4075
:103D6000008066409E4B1B78ABB99E4B1B78032BA3
:103D700041D00123019300938DA3D3E900239A49F5
:103D80009A48FEF7FDFB974B1870994B1A68994BB0
:103D90001A60FEF780BF984D0DF1160303930024BF
:103DA0000294019400950DAB224621462846FEF769
:103DB0009FF8D5E900018D4BC3E900017EA7D7E943
:103DC0000067C3E90267884BC3E900017CA1D1E920
:103DD0000001C3E902012346072B05DC874A1A4488
:103DE000052151700133F7E700237D4A13707D4AA6
:103DF0001370FEF750BF824A537843F0300353707C
:103E00007B4B1B687B4A12689B1AB3F5FA7F7EF6E0
:103E100042AF734B01221A7014447A4B1C60FEF7B8
:103E20003ABF6F4B1B78A3B96E4B1B78032B40D066
:103E30000123019300930022734B6B496B48FEF7FB
:103E40009FFB684B18706A4B1A686A4B1A60FEF742
:103E500022BF694D0DF116030393002402940194CF
:103E600000950DAB224621462846FEF741F8D5E9DC
:103E700000015E4BC3E9000151A7D7E90067C3E920
:103E80000267594BC3E900014FA1D1E90001C3E921
:103E900002012346072B05DC584A1A4406215170BB
:103EA0000133F7E700234E4A13704E4A1370FEF7B2
:103EB000F2BE534A537843F0040353704C4B1B68D3
:103EC0004C4A12689B1AB3F5FA7F7EF6E4AE444B77
:103ED00001221A7014444B4B1C60FEF7DCBE4B4BA6
:103EE0001B789BB13E4B1B78F3B93E4B1B78032BE1
:103EF0004AD00123019300930022454B3A493B48A5
:103F0000FEF73EFB374B1870FEF7C5BE002201924C
:103F10000092134601210220FDF76CF90128E1D13E
:103F20003A4B01221A70DDE7334D0DF1160303936E
:103F300000240294019400950DAB224621462846A8
:103F4000FDF7D6FF294B22A1D1E90001C3E9000109
:103F5000D5E90201C3E90201234B1FA7D7E9006796
:103F6000C3E90067C3E902012346072B05DC234AA6
:103F70001A44042151700133F7E70023184A1370E3
:103F8000184A1370FEF787BE204B1B78002B3EF4B7
:103F900082AE134B01221A701A4A13680133136060
:103FA0001A4B00221A70FEF776BE00BFAFF30080F6
:103FB000000000000070A740000000000078AE4044
:103FC0000000000000F8B140000000000004B04014
:103FD0000000000000589BC0000000000024A3C0A7
:103FE0000200002004000020B0040020A0040020F3
:103FF000100C00201C030020D803002030000020FB
:104000002C000020C403002000409F40A303002098
:104010000040AF409A4B1B78ABB99A4B1B78032BEF
:1040200040D00123019300938BA3D3E90023964949
:104030009648FEF7A5FA934B1870954B1A68954B66
:104040001A60FEF728BE944D0DF116030393002469
:104050000294019400950DAB224621462846FDF7B7
:1040600047FFD5E90001894EC6E90001D5E90223E1
:10407000C6E90223844BC3E9000179A1D1E900011B
:10408000C3E902012346072B05DC844A1A440521B3
:1040900051700133F7E70023794A1370794A13709E
:1040A000FEF7F9BD7E4A537843F030035370784BE6
:1040B0001B68784A12689B1AB3F5FA7F7EF6EBAD5F
:1040C0006F4B01221A701444764B1C60FEF7E3BD5F
:1040D0006B4B1B78A3B96B4B1B78032B40D0012390
:1040E000019300930022704B67496848FEF748FA35
:1040F000644B1870664B1A68664B1A60FEF7CBBDAE
:10410000654D0DF11603039300240294019400956C
:104110000DAB224621462846FDF7EAFED5E900010F
:104120005A4BC3E900014EA7D7E90067C3E902670C
:10413000554BC3E900014CA1D1E90001C3E90201DB
:104140002346072B05DC554A1A44062151700133DA
:10415000F7E700234A4A13704A4A1370FEF79BBDE3
:104160004F4A537843F004035370494B1B68494A44
:1041700012689B1AB3F5FA7F7EF68DAD404B012293
:104180001A701444474B1C60FEF785BD474B1B78E3
:104190009BB13B4B1B78F3B93A4B1B78032B4AD0AE
:1041A0000123019300930022414B37493748FEF722
:1041B000E7F9344B1870FEF76EBD002201920092B1
:1041C000134601210220FDF715F80128E1D1374BF4
:1041D00001221A70DDE7304D0DF116030393002420
:1041E0000294019400950DAB224621462846FDF726
:1041F0007FFE264B1EA1D1E90001C3E90001D5E9EC
:104200000201C3E90201204B1BA7D7E90067C3E9FC
:104210000067C3E902012346072B05DC1F4A1A4445
:10422000042151700133F7E70023154A1370154A32
:104230001370FEF730BD1D4B1B78002B3EF42BADE9
:104240000F4B01221A70174A136801331360174B82
:1042500000221A70FEF71FBD000000000070A7408A
:104260000000000000F8B140000000000004B04071
:104270000000000000ECA3C000000000009CA8C0EB
:104280000200002004000020B0040020A004002050
:10429000100C00201C030020D80300203000002058
:1042A0002C000020C403002000409F40A3030020F6
:1042B0000040AF40A04B1B78ABB9A04B1B78032B41
:1042C00040D001230193009393A3D3E900239C4999
:1042D0009C48FEF755F9994B18709B4B1A689B4BFD
:1042E0001A60FEF7D8BC9A4D0DF116030393002413
:1042F0000294019400950DAB224621462846FDF715
:10430000F7FDD5E900018F4EC6E90001D5E902238A
:10431000C6E902238A4BC3E9000181A1D1E900016A
:10432000C3E902012346072B05DC8A4A1A4405210A
:1043300051700133F7E700237F4A13707F4A1370EF
:10434000FEF7A9BC844A537843F0300353707E4B88
:104350001B687E4A12689B1AB3F5FA7F7EF69BAC07
:10436000754B01221A7014447C4B1C60FEF793BC01
:10437000714B1B78A3B9714B1B78032B40D00123E1
:10438000019300930022764B6D496E48FEF7F8F8D2
:104390006A4B18706C4B1A686C4B1A60FEF77BBC4A
:1043A0006B4D0DF1160303930024029401940095C4
:1043B0000DAB224621462846FDF79AFDD5E90001BE
:1043C000604BC3E9000156A7D7E90067C3E902675C
:1043D0005B4BC3E9000154A1D1E90001C3E902012B
:1043E0002346072B05DC5B4A1A4406215170013332
:1043F000F7E70023504A1370504A1370FEF74BBC86
:10440000554A537843F0040353704F4B1B684F4A8F
:1044100012689B1AB3F5FA7F7EF63DAC464B01223B
:104420001A7014444D4B1C60FEF735BC424B1B7890
:10443000002B35D04B4A136801331360632B7EF792
:104440002AAC434D0DF1160303930024029401940A
:1044500000950DAB224621462846FDF749FD394B14
:1044600033A1D1E90001C3E90001D5E90201C3E9A3
:104470000201334B00260027C3E90067C3E90201AC
:10448000234604E0334A1A440F2151700133072BAD
:10449000F8DD0023334A1360274A1370FEF7FBBB95
:1044A00001230193009300222F4B25492548FEF755
:1044B00067F8224B187003287EF4EDAB1E4B0122E7
:1044C0001A70264A136801331360FEF7E4BB1A4BD7
:1044D0001B78002B56D01E4D0DF1160303930024BC
:1044E0000294019400950DAB224621462846FDF723
:1044F000FFFCD5E90001134BC3E900010AA7D7E986
:104500000067C3E902670E4BC3E9000100200021E8
:10451000C3E9020123462EE0000000000070A7401E
:104520000000000000F8B140000000000004B040AE
:104530000000000000C8A9C0020000200400002004
:10454000B0040020A0040020100C00201C03002058
:10455000D8030020300000202C000020C4030020DD
:1045600000409F40C80300200040AF40B44A1A44B6
:104570000E2151700133072BF8DDB24B00221A7067
:10458000FEF789BB0123019300930022AE4BAF4994
:10459000AF48FDF7F5FFAF4B187003287EF47BABF7
:1045A000A84B01221A70AC4A136801331360FEF75E
:1045B00072BBAA4B1B78002B3EF46DAB0DF11703B9
:1045C000002201211046FCF7AFFE0DF11703002277
:1045D00001210846FCF7A8FE0DF117030022012176
:1045E0000220FCF7A1FE0DF1170300220121032098
:1045F000FCF79AFE9A480DF11603039300240294E7
:10460000019400900DAB22460121FDF771FC954B02
:104610001C60954B1C6001258A4B1D70934B1C70D0
:10462000934B1C70FCF7AEFB8B4B1C600195009408
:104630002346224621460220FCF7DCFD804BDD713B
:1046400002221A72FEF727BB844B1B78002B3EF424
:1046500022AB0DF11703002201211046FCF764FE86
:104660000DF11703002201210846FCF75DFE0DF154
:104670001703002201210220FCF756FE0DF117035B
:10468000002201210320FCF74FFE75480DF11603AF
:10469000039300240294019400900DAB2246012163
:1046A000FDF726FC6F4B1C606F4B1C600125654BB2
:1046B0001D706E4B1C706E4B1C70FCF763FB664BE1
:1046C0001C60019500942346224621460220FCF7F7
:1046D00091FD5B4BDD7105221A72FEF7DCBA5F4B70
:1046E0001B78002B3EF4D7AA0DF1170300220121FD
:1046F0001046FCF719FE0DF11703002201210846B0
:10470000FCF712FE0DF11703002201210220FCF735
:104710000BFE0DF11703002201210320FCF704FE1C
:104720004F480DF116030393002402940194009066
:104730000DAB22460121FDF7DBFB4A4B1C604A4BC7
:104740001C6001253F4B1D70484B1C70484B1C7072
:10475000FCF718FB404B1C60019500942346224651
:1047600021460220FCF746FD354BDD7104221A720A
:10477000FEF791BA394B1B78DBB93E4B1B78002B07
:104780003EF489AA344B1C680F2C3EF684AADFE85D
:1047900014F07500CB009F012F024602A50204030E
:1047A0004D039503B103DC0333044F04DE04EE0430
:1047B00080050DF11703002201211046FCF7B4FD1E
:1047C0000DF11703002201210846FCF7ADFD0DF1A4
:1047D0001703002201210220FCF7A6FD0DF11703AB
:1047E000002201210320FCF79FFD1D480DF1160357
:1047F000039300240294019400900DAB2246012102
:10480000FDF776FB174B1C60174B1C6001250D4B09
:104810001D70164B1C70164B1C70174B1C70FCF750
:10482000B1FA0D4B1C6001950094234622462146A7
:104830000220FCF7DFFC024B0C22DA711A729CE7B3
:1048400030000020020000200040AF40B0040020F3
:10485000A004002004000020C40300200100002068
:10486000D8030020C80300208C0300202003002070
:10487000A3030020A5030020CD040020A84B1B7833
:10488000002B3BD0A7480DF11603039300210291A2
:10489000019100900DAB0A46FDF72AFBA2490022C8
:1048A0000023C1E90023C1E90223A049C1E9002393
:1048B00097A3D3E90023C1E90223072C05DC9C4B15
:1048C000234403225A700134F7E7954B00221A70F3
:1048D000984B1B78002B7EF4DEA9002201920092F7
:1048E00013464FF0FF310420FCF784FC01287EF4CE
:1048F000D2A9904B01221A70FEF7CDB90123019382
:10490000009385A3D3E9002388498748FDF738FE43
:10491000894B18700328DBD1814B01221A70874A1A
:10492000136801331360D3E77D4B1B7843BB844B83
:104930001B68844A12689B1A40F6FB018B424ED9D1
:104940007F4B1B689B1A40F6E3418B4271D97C4B2D
:104950001B689B1A41F2CB0293424BD80121F020F5
:10496000FDF7FAF80221EB20FDF7F6F8764B02226C
:104970001A7401229A7540F6AC52DA819A8239E0B3
:10498000684D0DF1160303930024029401940095E1
:104990000DAB224621462846FDF7AAFA624B0020BD
:1049A0000021C3E90001D5E90201C3E902015F4B1F
:1049B0000026664FC3E90067C3E90201234604E00D
:1049C0005B4A1A44022151700133072BF8DD544B26
:1049D00000221A705A4B1A685A4B1A6013E00123CE
:1049E000019300930022594B50494F48FDF7C8FDF1
:1049F000514B1870524B1B68524A12689B1A41F275
:104A0000CB0293422ED84B4B1B78002B7EF443A94C
:104A100000220192009213464FF0FF310420FCF770
:104A2000E9FB01287EF437A9424B01221A70FEF7F8
:104A300032B9474A537843F00803537001214FF4C9
:104A40009670FDF789F8022140F22710FDF784F8EF
:104A50003D4B02221A7401229A7540F6AC52DA815B
:104A60009A82C7E7384B03221A749A750024DC81B6
:104A70009C82314B04221A70324B1C60FCF794F973
:104A800001258DF834508DF835508DF836500022C0
:104A9000304BCDE906231EA3D3E90023CDE908233B
:104AA00000220023CDE90A230DF11603039302949B
:104AB000019406AB00930DAB2A4621461948FDF739
:104AC00017FA174B1D701D4A13682B4413609AE7A1
:104AD000184B1B78002B3FD0114B1B78002B4AD171
:104AE000154B1B78032B75D1124B1B78002B3EF412
:104AF000D2A80B4B01221A70104A136801331360BD
:104B00000C4B00221A70FEF7C6B800BFAFF300804E
:104B100000000000000CB740000000000094B1400D
:104B200002000020D8030020A0040020B0040020D0
:104B300030000020A303002004000020C403002054
:104B4000100C00208C0300203C00002000409F40FF
:104B50002C000020000069400022019200921346C0
:104B60004FF0FF310420FCF745FB0128B4D1A24BE4
:104B700001221A70B0E7A14D0DF116030393002432
:104B80000294019400950DAB224621462846FDF77C
:104B9000AFF99B4B00209B49C3E90001D5E9020115
:104BA000C3E90201984B8CA7D7E90067C3E9006706
:104BB000C3E90201234604E0944A1A4404215170D7
:104BC0000133072BF8DD0023914A1370914A1370CB
:104BD000FEF761B801230193009381A3D3E9002379
:104BE00089498748FDF7CCFC8A4B1870FEF753B80B
:104BF000894B1B78012B0AD1854B01221A70144472
:104C0000864B1C60844B00221A70FEF744B80021CA
:104C10000220FCF76BF9804B1870FEF73CB87C4B18
:104C20001B78CBB97B4B1B78032B45D17C4A53783F
:104C300043F0300353707B4B1B687B4A12689B1A0E
:104C4000B3F5FA7F7EF627A8714B01221A7014443F
:104C5000724B1C60FEF71FB8684D0DF116030393ED
:104C600000240294019400950DAB2246214628466B
:104C7000FDF73EF9D5E90001614BC3E900015AA7F0
:104C8000D7E90067C3E902675F4BC3E9000158A198
:104C9000D1E90001C3E90201234604E05B4A1A445A
:104CA000052151700133072BF8DD0023584A13709A
:104CB000584A1370FDF7EFBF01230193009348A3F7
:104CC000D3E9002350494E48FDF75AFC514B187068
:104CD000544B1A68544B1A60FDF7DDBF4C4B1B78E0
:104CE000CBB94C4B1B78032B45D14D4A537843F03D
:104CF000040353704B4B1B684B4A12689B1AB3F565
:104D0000FA7F7DF6C8AF424B01221A701444434B20
:104D10001C60FDF7C0BF394D0DF11603039300244D
:104D20000294019400950DAB224621462846FDF7DA
:104D3000DFF8D5E90001324BC3E900012CA7D7E920
:104D40000067C3E90267304BC3E9000126A1D1E93E
:104D50000001C3E90201234604E02C4A1A4406215B
:104D600051700133072BF8DD0023294A1370294ABB
:104D70001370FDF790BF01230193009318A3D3E9AB
:104D8000002321491E48FDF7FBFB224B1870254BE1
:104D90001A68254B1A60FDF77EBF174B1B78002B56
:104DA0007DF479AF01930122009213464FF0FF3159
:104DB0000220FCF71FFA01287DF46DAF0E4B002294
:104DC0001A70134B01221A70144A136801331360CE
:104DD000FDF761BFAFF300800000000000589BC0EA
:104DE000000000000070A74000000000000CB74069
:104DF0000000000000C8B940A3030020D803002031
:104E0000A004002000806640B00400203000002094
:104E1000020000200400002020030020C403002022
:104E20002C000020100C00201C030020A84B1B7835
:104E3000002B2BD0A74D0DF11603039300240294F1
:104E4000019400950DAB224621462846FDF750F807
:104E5000D5E90001A04EC6E90001D5E90223C6E963
:104E600002239E4BC3E9000100209D49C3E90201D2
:104E70002346072B05DC9B4A1A440E21517001334F
:104E8000F7E7934B00221A70FDF705BF012301934A
:104E9000009387A3D3E9002390498F48FDF770FB67
:104EA000914B187003287DF4F6AE894B01221A70DD
:104EB0008E4A136801331360FDF7EDBE8C4B1B78EF
:104EC000012B0FD18B4A537843F020035370804B52
:104ED00001221A701444854B1C60854B00221A7005
:104EE000FDF7D9BE00210320FCF700F8804B1870B5
:104EF000FDF7D1BE764B1B7843B17F4B1A687F4BD1
:104F00001A60734B00221A70FDF7C5BE7A4B1B68FE
:104F10007A4A12689B1AB3F5967F0DD9784B032213
:104F200083F8222000221A84694B01221A7014444B
:104F30006E4B1C60FDF7AFBE714B012283F822203F
:104F400040F6B8321A84FDF7A6BE614B1B78002BE1
:104F50003AD06C4A136801331360312B7DF79BAE56
:104F60005C4D0DF116030393002402940194009507
:104F70000DAB224621462846FCF7BAFF564E4EA3FB
:104F8000D3E90023C6E9002300225F4BD5E90201E3
:104F9000FBF7E4F8C6E90201504B49A7D7E90067DF
:104FA000C3E90067C3E90201234604E04D4A1A44FD
:104FB0000F2151700133072BF8DD0023514A136094
:104FC000434A1370FDF767BE01230193002300934A
:104FD00000224E4B41494048FDF7D2FA424B18702F
:104FE00003287DF458AE3A4B01221A703F4A1368E9
:104FF00001331360FDF74FBE3E4A537843F034034C
:1050000053703B4B1B78012B0AD1314B01221A7094
:105010001444364B1C60364B00221A70FDF73BBE21
:1050200000210220FBF762FF314B1870FDF733BE01
:10503000274B1B78CBB92C4B1B78032B76D12D4AF1
:10504000537823F0080353702B4B1B682B4A1268CC
:105050009B1AB3F5FA7F7DF61EAE1D4B01221A7026
:105060001444224B1C60FDF716BE1A4D0DF11603B9
:10507000039300240294019400950DAB224621462F
:105080002846FCF735FFD5E90001134BC3E90001C1
:105090000026134FC3E90267104BC3E900010AA1C0
:1050A000D1E90001C3E90201234636E0AFF30080F5
:1050B000000000000070A7400000000000589BC0E6
:1050C00000000000002CAAC000000000000CB74047
:1050D00002000020D8030020A0040020B00400201B
:1050E0000000B9403000002004000020C40300206C
:1050F000200300202C000020100C00201C030020A6
:105100003C000020C80300200000494000409F40B0
:105110008B4A1A44062151700133072BF8DD002316
:10512000884A1370884A1370FDF7B5BD01230193B7
:1051300000930022854B86498648FDF721FA824B71
:105140001870854B1A68854B1A60FDF7A4BD7D4B1E
:105150001B781BBB7C4B1B78032B4ED1794B012258
:105160001A7014447E4B1C607E4B00221A707E48DD
:105170000DF11603039300210291019100900DABF4
:105180000A46FCF7B5FE794B1B78012B4BD07648CD
:10519000FCF74EFE754B1870002340E0724D0DF188
:1051A0001603039300240294019400950DAB22464C
:1051B00021462846FCF79CFE664B59A1D1E9000127
:1051C000C3E90001D5E90201C3E90201604B56A71A
:1051D000D7E90067C3E90067C3E90201234604E099
:1051E000574A1A44042151700133072BF8DD00237C
:1051F000544A1370544A1370B9E701230193009382
:105200004BA3D3E9002352495248FDF7B9F94E4B5D
:105210001870ACE74A4A1A440E2151700133072B2B
:10522000F8DDFDF738BD0025504B1D7001248DF8C9
:1052300034408DF835408DF836404B4ED6E900238A
:1052400039A1D1E90001FAF787FFCDE90601D6E9D6
:10525000022339A1D1E90001FAF77EFFCDE9080167
:1052600000220023CDE90A230DF1160303930295D2
:10527000019506AB00930DAB224629463046FCF75C
:1052800037FE304B1C70364A136823441360FDF719
:1052900002BD2C4B1B78002B2BD0334D0DF1160388
:1052A000039300240294019400950DAB22462146FD
:1052B0002846FCF71DFED5E90001264BC3E9000195
:1052C00000260027C3E90267214BC3E90001002043
:1052D0002749C3E902012346072B05DC184A1A4473
:1052E0000F2151700133F7E7164B00221A70FDF7BA
:1052F000D2BC01230193009300221E4B1449154890
:10530000FDF73EF9104B187003287DF4C4AC0D4B2B
:1053100001221A70124A136801331360FDF7BBBCF7
:1053200000000000002CAAC000000000009CA8C0E3
:10533000000000000070A74000000000000CB74013
:1053400030000020020000200400002000409F40A8
:10535000B0040020A0040020100C00201C0300203A
:10536000C4030020A3030020D8030020CD040020A4
:1053700000E085400040AF40994B1B781BB1994B32
:105380000822DA711A72984B5B7813F0080F04D078
:10539000954B5B7813F0020F60D1934B9B7813F021
:1053A000400F00F08480914B1B78002B7FD0904BF6
:1053B00001221A7000238F4A13708F4A13708F4A8C
:1053C00013708F4A13708F4A1370874B9B7813F0BA
:1053D000200F17D000238C4A13608C4A13608C4A2C
:1053E000012111708B4A13708B4A1370804A13701D
:1053F000804A1370804A1370804A1370804A137079
:10540000804A13707A4B1B787BB97A4B1B7863B94F
:10541000794B1B784BB9794B1B7833B9784B1B7898
:105420001BB9784B1B78002B59D0754B1B78002B80
:1054300000F09180794B1C680C2C00F28C80DFE826
:1054400014F05D00F900C6015102AD0208039D038E
:10545000F8035304E9044705A505F6050DF1170304
:10546000002201211046FBF75FFF0DF11703002218
:1054700001210846FBF758FF0DF117030022012117
:105480000220FBF751FF0DF1170300220121032039
:10549000FBF74AFF62480DF11603039300220292C4
:1054A000019200900DAB0121FCF722FD75E74E4BF8
:1054B0009B7813F0100F88D05A4B1B78002B84D0A8
:1054C00000234B4A13704B4A13704B4A13704B4ADC
:1054D00013704B4A012111704A4A137075E700247A
:1054E000494B1C60494B1C60414B1C70484B0122CE
:1054F0001A70FBF747FC494B1C6096E7444B1B783E
:10550000002B3FD046480DF1160303930021029172
:10551000019100900DAB0A46FCF7EAFC42490022DB
:105520000023C1E90023C1E902234049C1E9002366
:1055300027A3D3E90023C1E9022304E0294B234434
:1055400003225A700134072CF8DD314B00221A7007
:10555000314B1B7863B3264B1B78002B3DF49BAB80
:105560002E4B1C680A2C3DF696ABDFE814F0D205F2
:10557000280623078B07A207FF078508A208EB0868
:105580000209590901230193009313A3D3E90023CE
:1055900026492548FCF7F4FF254B18700328D7D17E
:1055A0001B4B01221A701D4A136801331360CFE7A9
:1055B000002201920092134601210220FBF71AFEFD
:1055C0000128C8D1144B01221A70C4E7AFF3008040
:1055D0000000000000E8AC40000000000094B14072
:1055E0000100002030000020140C0020880300205F
:1055F00091040020C8040020C9040020CA0400202F
:10560000CB04002092040020C80300208C0300205B
:105610000200002020030020A3030020C403002078
:10562000D8030020CC040020A0040020B0040020F7
:10563000040000209C4B1B7843BB9C4B1B689C4A7E
:1056400012689B1A40F6FB018B424ED9974B1B68A0
:105650009B1A40F6E3418B426FD9944B1B689B1A0F
:1056600041F2CB0293424BD80121F020FCF774FAAF
:105670000221EB20FCF770FA8E4B02221A740122F1
:105680009A7540F6AC52DA819A8239E08A4D0DF172
:105690001603039300240294019400950DAB224657
:1056A00021462846FCF724FC844B00200021C3E956
:1056B0000001D5E90201C3E90201814B0026814FB7
:1056C000C3E90067C3E902012346072B05DC7E4AD4
:1056D0001A44022151700133F7E7734B00221A700C
:1056E000724B1A68724B1A6013E001230193009306
:1056F0000022744B72497148FCF742FF734B1870DB
:105700006A4B1B686A4A12689B1A41F2CB029342A9
:1057100027D86F4B1B78002B7FF41DAF002201921E
:105720000092134601210220FBF764FD01287FF45B
:1057300012AF674B01221A700DE701214FF49670EA
:10574000FCF70AFA022140F22710FCF705FA594B40
:1057500002221A7401229A7540F6AC52DA819A82BA
:10576000CEE7544B03221A749A750024DC819C8284
:10577000564B04221A704E4B1C60FBF715FB01259B
:105780008DF834508DF835408DF836500022514B4D
:10579000CDE9062340A3D3E90023CDE90823002265
:1057A0000023CDE90A230DF116030393029401941B
:1057B00006AB00930DAB2A4621463F48FCF798FB09
:1057C000394B1D70444A13682B441360A1E7404BCA
:1057D0001B7893B1344B1B78EBB93C4B1B78032BF4
:1057E00047D001230193009300223C4B34493348B6
:1057F000FCF7C6FE354B1870ADE600220192009210
:10580000134601210220FBF7F5FC0128E2D1304BC1
:1058100001221A70DEE7284D0DF1160303930024D0
:105820000294019400950DAB224621462846FCF7D0
:105830005FFB224B00202A49C3E90001D5E90201A0
:10584000C3E902011E4B16A7D7E90067C3E9006749
:10585000C3E902012346072B05DC1B4A1A44042135
:1058600051700133F7E700230F4A1370174A137082
:1058700071E6174B1B78002B3FF46DAE0A4B0122EB
:105880001A70154A136801331360114B00221A7005
:1058900061E600BFAFF300800000000000E8AC400C
:1058A0000000000000589BC002000020100C0020E7
:1058B0008C0300203C000020D8030020A00400201E
:1058C000B004002000409F40300000200400002071
:1058D000A303002000006940C40300200040AF4043
:1058E00000806640984B1B78A3B9984B1B78032B1C
:1058F0003FD001230193009387A3D3E90023944968
:105900009448FCF73DFE914B1870934B1A68934BEB
:105910001A6020E6924D0DF11603039300240294C1
:10592000019400950DAB224621462846FCF7E0FA8B
:10593000D5E90001874BC3E9000179A7D7E90067E2
:10594000C3E90267824BC3E9000177A1D1E90001F5
:10595000C3E902012346072B05DC824A1A440521CC
:1059600051700133F7E70023774A1370774A1370B9
:10597000F1E57D4A537843F030035370764B1B6852
:10598000764A12689B1AB3F5FA7F7FF6E4AD6E4B48
:1059900001221A701444754B1C60DCE56A4B1B78BD
:1059A0009BB96A4B1B78032B3ED0012301930093D4
:1059B00000226F4B66496748FCF7E2FD634B1870A5
:1059C000654B1A68654B1A60C5E5654D0DF1160308
:1059D000039300240294019400950DAB22462146C6
:1059E0002846FCF785FAD5E900015A4BC3E90001C6
:1059F0004DA7D7E90067C3E90267554BC3E900012A
:105A00004BA1D1E90001C3E902012346072B05DCC4
:105A1000544A1A44062151700133F7E700234A4AD9
:105A200013704A4A137096E54F4A537843F00403C3
:105A30005370494B1B68494A12689B1AB3F5FA7FA9
:105A40007FF689AD404B01221A701444474B1C600D
:105A500081E5484B1B7893B13B4B1B78EBB93B4B33
:105A60001B78032B48D00123019300930022424B63
:105A700037493848FCF784FD344B18706BE5002239
:105A800001920092134601210220FBF7B3FB01288B
:105A9000E2D1384B01221A70DEE7314D0DF11603C9
:105AA000039300240294019400950DAB22462146F5
:105AB0002846FCF71DFA274B1FA1D1E90001C3E9D5
:105AC0000001D5E90201C3E90201214B1CA7D7E976
:105AD0000067C3E90067C3E902012346072B05DC21
