:020000040800F2
:1000000000500020ED610008F1190008F519000802
:10001000F9190008FD190008011A00080000000085
:10002000000000000000000000000000051A0008A9
:10003000091A0008000000000D1A0008111A000833
:100040003562000835620008356200083562000834
:100050003562000835620008356200083562000824
:100060003562000835620008356200083562000814
:1000700035620008391A0008691A0008791A000860
:1000800035620008291A0008356200083562000848
:1000900035620008356200083562000835620008E4
:1000A00035620008C94B0008356200083562000857
:1000B000D94B000835620008356200083562000837
:1000C00035620008356200083562000835620008B4
:1000D0003562000835620008591A0008491A0008FC
:1000E0003562000835620008356200080000000033
:1000F0000000000000000000000000000000000000
:0C01000000000000000000005FF808F1A3
:10011000044B05481B1A062B02D9044B03B11847A0
:10012000704700BFE3020020E00200200000000052
:1001300005490648091A891001EBD171491002D00E
:10014000034B03B118477047E0020020E002002093
:100150000000000010B5064C237843B9FFF7D8FF24
:10016000044B13B10448AFF300800123237010BD8A
:10017000E002002000000000A87E000808B5084B3F
:100180001BB108480849AFF300800848036813B959
:10019000BDE80840CCE7064B002BF9D09847F7E7BD
:1001A00000000000A87E0008E4020020E002002019
:1001B0000000000081F0004102E000BF83F0004336
:1001C00030B54FEA41044FEA430594EA050F08BFF2
:1001D00090EA020F1FBF54EA000C55EA020C7FEAB6
:1001E000645C7FEA655C00F0E2804FEA5454D4EB33
:1001F0005555B8BF6D420CDD2C4480EA020281EAFD
:10020000030382EA000083EA010180EA020281EA34
:100210000303362D88BF30BD11F0004F4FEA013186
:100220004FF4801C4CEA113102D0404261EB410195
:1002300013F0004F4FEA03334CEA133302D052421B
:1002400063EB430394EA050F00F0A780A4F10104D7
:10025000D5F1200E0DDB02FA0EFC22FA05F2801811
:1002600041F1000103FA0EF2801843FA05F35941F7
:100270000EE0A5F120050EF1200E012A03FA0EFC76
:1002800028BF4CF0020C43FA05F3C01851EBE371A0
:1002900001F0004507D54FF0000EDCF1000C7EEBBD
:1002A00000006EEB0101B1F5801F1BD3B1F5001FFB
:1002B0000CD349085FEA30004FEA3C0C04F101041A
:1002C0004FEA445212F5800F80F09A80BCF1004F43
:1002D00008BF5FEA500C50F1000041EB045141EAC5
:1002E000050130BD5FEA4C0C404141EB010111F4C6
:1002F000801FA4F10104E9D191F0000F04BF014671
:100300000020B1FA81F308BF2033A3F10B03B3F14E
:1003100020020CDA0C3208DD02F1140CC2F10C02DE
:1003200001FA0CF021FA02F10CE002F11402D8BF3C
:10033000C2F1200C01FA02F120FA0CFCDCBF41EA08
:100340000C019040E41AA2BF01EB0451294330BDD7
:100350006FEA04041F3C1CDA0C340EDC04F11404B4
:10036000C4F1200220FA04F001FA02F340EA03008B
:1003700021FA04F345EA030130BDC4F10C04C4F1D1
:10038000200220FA02F001FA04F340EA03002946B1
:1003900030BD21FA04F0294630BD94F0000F83F4FB
:1003A000801306BF81F480110134013D4EE77FEADE
:1003B000645C18BF7FEA655C29D094EA050F08BF2A
:1003C00090EA020F05D054EA000C04BF194610460B
:1003D00030BD91EA030F1EBF0021002030BD5FEA4F
:1003E000545C05D14000494128BF41F0004130BD77
:1003F00014F580043CBF01F5801130BD01F00045CB
:1004000045F0FE4141F470014FF0000030BD7FEA3D
:10041000645C1ABF194610467FEA655C1CBF0B4638
:10042000024650EA013406BF52EA033591EA030F4F
:1004300041F4002130BD00BF90F0000F04BF002147
:10044000704730B54FF4806404F132044FF000057A
:100450004FF0000150E700BF90F0000F04BF0021F3
:10046000704730B54FF4806404F1320410F0004559
:1004700048BF40424FF000013EE700BF42004FEA54
:10048000E2014FEA31014FEA02701FBF12F07F43D1
:1004900093F07F4F81F06051704792F0000F14BFCE
:1004A00093F07F4F704730B54FF4607401F0004512
:1004B00021F0004120E700BF50EA010208BF704769
:1004C00030B54FF000050AE050EA010208BF70475E
:1004D00030B511F0004502D5404261EB41014FF4C7
:1004E000806404F132045FEA915C3FF4DCAE4FF0CB
:1004F00003025FEADC0C18BF03325FEADC0C18BFB2
:10050000033202EBDC02C2F1200300FA03FC20FA02
:1005100002F001FA03FE40EA0E0021FA02F114444F
:10052000C1E600BF70B54FF0FF0C4CF4E06C1CEA64
:1005300011541DBF1CEA135594EA0C0F95EA0C0FD9
:1005400000F0DEF82C4481EA030621EA4C5123EA4C
:100550004C5350EA013518BF52EA033541F480117B
:1005600043F4801338D0A0FB02CE4FF00005E1FB2E
:1005700002E506F00042E0FB03E54FF00006E1FB78
:1005800003569CF0000F18BF4EF0010EA4F1FF04BB
:10059000B6F5007F64F5407404D25FEA4E0E6D41FB
:1005A00046EB060642EAC62141EA55514FEAC5200C
:1005B00040EA5E504FEACE2EB4F1FD0C88BFBCF588
:1005C000E06F1ED8BEF1004F08BF5FEA500E50F139
:1005D000000041EB045170BD06F0004646EA0101FF
:1005E00040EA020081EA0301B4EB5C04C2BFD4EB31
:1005F0000C0541EA045170BD41F480114FF0000E2A
:10060000013C00F3AB8014F1360FDEBF002001F097
:10061000004170BDC4F10004203C35DA0C341BDC11
:1006200004F11404C4F1200500FA05F320FA04F0E3
:1006300001FA05F240EA020001F0004221F0004117
:1006400010EBD37021FA04F642EB06015EEA430E8A
:1006500008BF20EAD37070BDC4F10C04C4F12005BA
:1006600000FA04F320FA05F001FA04F240EA02006D
:1006700001F0004110EBD37041F100015EEA430E3E
:1006800008BF20EAD37070BDC4F1200500FA05F25E
:100690004EEA020E20FA04F301FA05F243EA0203DD
:1006A00021FA04F001F0004121FA04F220EA0200EC
:1006B00000EBD3705EEA430E08BF20EAD37070BD32
:1006C00094F0000F0FD101F00046400041EB010112
:1006D00011F4801F08BF013CF7D041EA060195F0F4
:1006E000000F18BF704703F00046520043EB0303AE
:1006F00013F4801F08BF013DF7D043EA060370479B
:1007000094EA0C0F0CEA135518BF95EA0C0F0CD0A5
:1007100050EA410618BF52EA4306D1D181EA0301EB
:1007200001F000414FF0000070BD50EA410606BFE5
:100730001046194652EA430619D094EA0C0F02D12A
:1007400050EA013613D195EA0C0F05D152EA03366F
:100750001CBF104619460AD181EA030101F000418D
:1007600041F0FE4141F470014FF0000070BD41F0D6
:10077000FE4141F4780170BD70B54FF0FF0C4CF4B0
:10078000E06C1CEA11541DBF1CEA135594EA0C0FCF
:1007900095EA0C0F00F0A7F8A4EB050481EA030E1C
:1007A00052EA03354FEA013100F088804FEA033303
:1007B0004FF0805545EA131343EA12634FEA0222D1
:1007C00045EA111545EA10654FEA00260EF0004192
:1007D0009D4208BF964244F1FD0404F5407402D2E4
:1007E0005B084FEA3202B61A65EB03055B084FEA75
:1007F00032024FF480104FF4002CB6EB020E75EB72
:10080000030E22BFB61A754640EA0C005B084FEA99
:100810003202B6EB020E75EB030E22BFB61A754616
:1008200040EA5C005B084FEA3202B6EB020E75EB61
:10083000030E22BFB61A754640EA9C005B084FEAD9
:100840003202B6EB020E75EB030E22BFB61A7546E6
:1008500040EADC0055EA060E18D04FEA051545EAD5
:1008600016754FEA06164FEAC30343EA52734FEA7E
:10087000C2025FEA1C1CC0D111F4801F0BD141EAF7
:1008800000014FF000004FF0004CB6E711F4801F5C
:1008900004BF01430020B4F1FD0C88BFBCF5E06F3C
:1008A0003FF6AFAEB5EB030C04BFB6EB020C5FEA4C
:1008B000500C50F1000041EB045170BD0EF0004EA1
:1008C0004EEA113114EB5C04C2BFD4EB0C0541EAD3
:1008D000045170BD41F480114FF0000E013C90E6D0
:1008E00045EA060E8DE60CEA135594EA0C0F08BF94
:1008F00095EA0C0F3FF43BAF94EA0C0F0AD150EA93
:1009000001347FF434AF95EA0C0F7FF425AF104625
:1009100019462CE795EA0C0F06D152EA03353FF44D
:10092000FDAE1046194622E750EA410618BF52EACA
:1009300043067FF4C5AE50EA41047FF40DAF52EA9E
:1009400043057FF4EBAE12E74FF0FF3C06E000BF3B
:100950004FF0010C02E000BF4FF0010C4DF804CD48
:100960004FEA410C7FEA6C5C4FEA430C18BF7FEA08
:100970006C5C1BD001B050EA410C0CBF52EA430C36
:1009800091EA030F02BF90EA020F0020704710F1B6
:10099000000F91EA030F58BF994208BF90422CBF45
:1009A000D8176FEAE37040F0010070474FEA410C3E
:1009B0007FEA6C5C02D150EA013C07D14FEA430C5C
:1009C0007FEA6C5CD6D152EA033CD3D05DF8040BCD
:1009D000704700BF8446104662468C4619466346FF
:1009E00000E000BF01B5FFF7B7FF002848BF10F1D6
:1009F000000F01BD4DF808EDFFF7F4FF0CBF01201B
:100A000000205DF808FB00BF4DF808EDFFF7EAFF96
:100A100034BF012000205DF808FB00BF4DF808ED51
:100A2000FFF7E0FF94BF012000205DF808FB00BF46
:100A30004DF808EDFFF7CEFF94BF012000205DF8D0
:100A400008FB00BF4DF808EDFFF7C4FF34BF0120DD
:100A500000205DF808FB00BF4FEA410212F50012CA
:100A600015D211D56FF47873B3EB625212D94FEAF5
:100A7000C12343F0004343EA505311F0004F23FADF
:100A800002F018BF404270474FF00000704750EA34
:100A9000013005D111F0004008BF6FF000407047F1
:100AA0004FF00000704700BF0F4B1A6842F0010280
:100AB0001A6059680D4A0A405A601A6822F0847216
:100AC00022F480321A601A6822F480221A605A686E
:100AD00022F4FE025A604FF41F029A604FF0006247
:100AE000034B9A60704700BF001002400000FFF8FF
:100AF00000ED00E008B5034803494FF4A27207F087
:100B0000C7F908BD440300207C7F0008002209E0EB
:100B1000930003F1006303F5FE331968094B43F8B2
:100B2000221001320C2AF3DD002307E0064A52F8B6
:100B30002320044951F8231011600133082BF5DDFF
:100B4000704700BFFC0200204C00002008B5FFF7F2
:100B5000D1FFFFF7DBFF08BD02EBD2735B10C91AB0
:100B6000401A904203DB90FBF2F102FB11000028D7
:100B700003DA0028B8BF4042101AC01A704700BFFD
:100B80001F4B9B7803F00303032B04D01C4B9B7873
:100B900013F0010F02D101221A4B1A70194B1B7866
:100BA000DBB1174B9B7803F00303032B15D0144BD9
:100BB0009B7813F0010F10D00022124B1A701248CC
:100BC0000368D9B2114A51719171D1711172013317
:100BD0000360152B01DD00220260094B9B7803F0B6
:100BE0000303032B0AD0064B9B7813F0020F05D0AA
:100BF000064B00225A719A71DA711A7200207047FE
:100C0000280B0020700000205C050020040000205C
:100C100000207047002209E0530013445B0005499F
:100C20000B4400215980032119710132052AF3DD9B
:100C30000020704710000020F0B4002407E0E3001B
:100C4000C5180B44D3E90067C5E900670134944235
:100C5000F5DBF0BC704700BF70B582B00D460328CD
:100C600076D8DFE800F0021F3C59584A537B917B4D
:100C700003EB0123D17B03EB0143127C03EB026303
:100C8000534A14681C44002D65D0012D04D15B42E9
:100C90001360002426466DE0022D5ED14D4B1E6888
:100CA000A61B67E0494A537C917C03EB0123D17C6E
:100CB00003EB0143127D03EB0263454A54681C4475
:100CC000002D4CD0012D04D15B42536000242646F8
:100CD00050E0022D45D13F4B5E68A61B4AE03B4ADF
:100CE0009378D17803EB0123117903EB0143527917
:100CF00003EB0263364A94681C44002D33D0012D67
:100D000004D15B4293600024264633E0022D2CD1AF
:100D1000304B9E68A61B2DE02C4A9379D17903EBCA
:100D20000123117A03EB0143527A03EB0263284A51
:100D3000D4681C44DDB1012D04D15B42D360002492
:100D4000264617E0022D14D1224BDE68A61B11E0C7
:100D5000002634460EE000260CE000260AE00026BD
:100D600008E0002606E0002604E0002602E0002657
:100D700000E00026174B43F82040174B1A68174B2A
:100D8000A3FB02135B09642101FB1323092B15D874
:100D9000012D13D0124B1B68022B0CDD0D4801688E
:100DA00042688368C06800900E4804F081F8002211
:100DB0000B4B1A6002E00133094A1360022D01D186
:100DC000304600E0204602B070BD00BF3400002075
:100DD000B40400204C050020300B00201F85EB518F
:100DE0002C050020C080000810B50020022103F06F
:100DF000FDFF40B1084B00241C8103229A7204F0CD
:100E000087FD204610BD044B40F252321A81012268
:100E10009A724FF0FF3010BD1000002010B5002076
:100E2000012103F0E3FF40B1084B00245C80032262
:100E30001A7104F067FD204610BD044B4FF4617237
:100E40005A8001221A714FF0FF3010BD10000020AF
:100E50002DE9F043A7B0804689466F4D482414A879
:100E60002946224607F014F802A82919224607F05D
:100E70000FF800230093019300E00133082BFCDD01
:100E8000B9F1000F02D1022301930CE0B9F1010F77
:100E900002D10123019306E0B9F1020F03D101232E
:100EA000009302230193009CA9E014B1012C04D00B
:100EB00006E004F01BFD074602E004F01DFD0746B6
:100EC000DFF8709107EA0909B9F1000F07DA09F1B3
:100ED000FF396FEA49596FEA595909F101094D463D
:100EE0004046FFF7B9FA4AA3D3E90023FFF71AFBFC
:100EF000FFF7B2FDB9F1000F05DA89EAE975A5EB54
:100F0000E975C5F5006529464FF40062FFF724FE38
:100F100000221AE080EAE071A1EBE07104EBC40367
:100F200013440DF1980E0EEB830353F8483C99429D
:100F300007DB04EBC4031A440EEB820252F8906CF8
:100F400005E0082A00D100260132082AE2DD002847
:100F500015DD04EB44035B00304A13445E8036B970
:100F600004EB44035B00134403221A711CE004EBFE
:100F700044035B00294A134401221A7114E004EB74
:100F800044035B00254A13445E8036B904EB4403F6
:100F90005B00134403221A7106E004EB44035B0078
:100FA0001E4A134402221A711D4B1A681D4BA3FBE3
:100FB00002135B09642101FB1323092B1ED814B112
:100FC000012C0ED01AE02846FFF746FA0022164BF5
:100FD000FFF7A8FAFFF740FD0146144803F068FF49
:100FE0000CE02846FFF738FA00220F4BFFF79AFA79
:100FF000FFF732FD01460E4803F05AFF0134019B12
:10100000A3423FF752AF27B0BDE8F083AFF30080B3
:10101000176CC1166CC11640C07E0008100000207D
:10102000300B00201F85EB510080C63FF080000888
:1010300000810008FF0700802DE97043002475E05F
:10104000454D284604F0CEFA0646284604F0B8FA84
:1010500024B1012C6FD14042032500E0022546B99E
:101060003E486B005A195200024400211171518010
:101070005BE0002E13DD14B1012C08D05EE005EB1F
:1010800045035B00354A134401221A711AE005EB4F
:1010900045035B00314A134402221A7112E014B175
:1010A000012C08D04DE005EB45035B002B4A1344AF
:1010B00002221A7106E005EB45035B00274A134440
:1010C00001221A71002EB8BF76429C2303FB06F65C
:1010D00003FB00F0FFF7C0F91BA3D3E90023FFF7E0
:1010E00021FA804689463046FFF7B6F942464B461C
:1010F000FFF766F8FFF7B0FC42F20F73984200DD8D
:101100001846002800DA0020012C08D1FFF7A4F9C6
:101110000FA3D3E90023FFF705FAFFF79DFC05EBCA
:1011200045056D000D4B1D4468800134012C87DDA1
:101130000020BDE870830120BDE870830120BDE878
:1011400070830120BDE870839A9999999999D93F44
:10115000CDCCCCCCCCCCEC3F280B00201000002018
:101160002DE9F04FA1B0012910D10BE0CB00C2183E
:1011700000240025C2E900459F4A1344C3E9004505
:10118000013100E000210229F0DD84E19B4B1B7856
:10119000002B34D19A4B84A5D5E90045C3E900451D
:1011A00083A5D5E90045C3E9024583A5D5E90045F6
:1011B000C3E9044582A5D5E90045C3E906450026F3
:1011C000904FC3E9086700240025C3E90A45C3E935
:1011D0000C67C3E90E457CA5D5E90045C3E9104578
:1011E0007BA5D5E90045C3E912457BA7D7E9006790
:1011F000C3E91467C3E916450122804B1A700446FF
:1012000000250BE028460221FFF726FDFFF724F911
:1012100020AB03EBC50343E91A010135032DF1DDD2
:10122000002627E00020002120AB03EBC60343E9A2
:10123000060100251BE005EB8602714B03EBC203A0
:1012400020AA02EBC502D3E90001A2F16803D3E9A9
:101250000023FFF767F902460B4620A901EBC607FA
:1012600057E90601FEF7ACFF47E906010135032DFA
:10127000E1DD0136022ED5DD5F4BD3E90467304650
:101280003946DDE91E23FEF79BFFCDE91801304604
:10129000394653A3D3E90023FFF744F952A3D3E916
:1012A0000023FFF73FF952A3D3E9002305F0F6F935
:1012B00081468846484628F000414BA3D3E90023E5
:1012C000FFF7B6FBC8B14846414600220023FFF7AE
:1012D000AFFB48B14846414645A3D3E90023FEF79A
:1012E0006DFF8146884608E04846414640A3D3E961
:1012F0000023FEF765FF814688463F4DD5E900672C
:10130000DDE91AAB4846414605F032F902460B4684
:1013100050465946CDE90023FFF704F902460B4633
:1013200030463946FEF74CFFCDE90401DDE91C6784
:101330004846414605F068F902460B4630463946B4
:10134000CDE90223FFF7EEF802460B46DDE9040182
:10135000FEF736FFCDE91401D5E90289504659461A
:10136000DDE90223FFF7DEF802460B464046494618
:10137000FEF724FF80468946DDE9000132463B4600
:10138000FFF7D0F802460B4640464946FEF718FFE5
:10139000CDE91601284614A90322FFF74DFC0025CC
:1013A0003FE000BFAFF300800A5D4647DB93ACBF70
:1013B0007362E6D02773E1BF0A5D4647DB93AC3F1B
:1013C0001A3B335EB019DD3FCD7E4F03344AD33F25
:1013D0004A1B3DA0F550CF3FCD7E4F03344AD3BFCB
:1013E000682FA1BD84F6F23E182D4454FB2109401C
:1013F000182D4454FB2119403005002048050020D9
:10140000C80400200000E0BF20AB03EBC50656E98E
:101410000C0123A3D3E90023FFF784F846E9120166
:101420000135012DF0DDDDE918011FA3D3E900230B
:10143000FFF778F8CDE9120100221D4B05F02EF9D7
:1014400006460D4602460B46CDE91223304625F0EE
:1014500000410022174BFFF7EBFAB8B1304629469E
:1014600000220023FFF7E4FA40B13046294600226B
:101470000F4BFEF7A3FECDE9120107E030462946E7
:1014800000220B4BFEF79CFECDE9120120460EA96F
:101490000322FFF7D1FB002021B0BDE8F08F00BF91
:1014A000D221337F7CD9923FABAAAAAAAAAA6A3FCB
:1014B000008076400080664008B5FFF747FB0020BB
:1014C00008BD00BF000000002DE9F84F9C4B9B7841
:1014D00013F0400F02D101229A4B1A70984B9B785F
:1014E00013F0200F02D10122974B1A70944B5B78B6
:1014F00013F0010F02D10122944B1A70904B9B788C
:1015000013F0100F02D10122914B1A708C4B9B7873
:1015100003F00303032B04D0894B9B7813F0010FD6
:1015200002D101228B4B1A70854B9B7803F0030389
:10153000032B04D0824B9B7813F0020F02D10122BF
:10154000854B1A707E4B9B7803F00C030C2B04D058
:101550007B4B9B7813F0040F02D101227F4B1A7052
:10156000774B9B7803F00C030C2B04D0744B9B78C7
:1015700013F0080F02D10122794B1A70704B5B787F
:1015800013F0080F02D10122764B1A706C4B5B7876
:1015900013F0100F02D10122734B1A70684B5B7865
:1015A00013F0020F02D10122704B1A70644B5B786A
:1015B00013F0040F02D101226D4B1A70604B9B781F
:1015C00003F00C030C2B15D05D4B9B7813F0040F2C
:1015D00010D0624B1B786BB1664B1B78032B03D189
:1015E0000022644B1A7002E00133624A1370002239
:1015F0005A4B1A70524B9B7803F00C030C2B14D0EF
:101600004F4B9B7813F0080F0FD0554B1B7863B1ED
:10161000584B1B781BB90322564B1A7002E0013B52
:10162000544A137000224E4B1A70524B1B78032BF6
:1016300000F22C81DFE803F023080205FFF7EAFA45
:1016400024E1FFF7E7FA21E13D4B9B7813F0400FCF
:1016500005D03C4B1B7813B10122474B1A70384B15
:101660009B7813F0200F02D00022434B1A70424B9C
:101670001B78002B40F00A81FFF7CCFA06E1304ED0
:10168000304603F0C1FF80EAE074A4EBE07430461A
:1016900003F0BAFF0028B8BF404200FB04F4304614
:1016A00003F0C4FF80EAE075A5EBE075304603F077
:1016B000BDFF0028B8BF404200FB05442046FEF7AE
:1016C000CBFE05F045F800222C4BFFF79DF910B139
:1016D0002B4B1D6874E01A4803F096FF002851DA7E
:1016E000174C204603F0A2FFFEF7B6FE06460F4653
:1016F000204603F089FFFEF7AFFE02460B46304658
:101700003946FFF739F804F097FD0BA3D3E900231E
:10171000FEF708FF02460B46104603F10041FFF7B3
:101720009BF9002802DAC0F5877A01E0C0F5877AD4
:10173000CAF5B47544E000BF46DF617EDCA54C40CD
:10174000280B0020A8040020B204002089040020F7
:101750002B050020B10400202A050020A904002048
:1017600029050020B004002061050020600500204C
:1017700028050020710000208804002000804640D9
:10178000AC040020884C204603F050FFFEF764FEB6
:1017900006460F46204603F037FFFEF75DFE024681
:1017A0000B4630463946FEF7E7FF04F045FD7CA3C3
:1017B000D3E90023FEF7B6FEFFF74EF9C0F58775B3
:1017C0007A4B1D607A4B1B782BB9FFF70DFB10B9D4
:1017D0000122774B1A70774B1B782BB9FFF71EFB52
:1017E00010B90122734B1A70724B1B7863B1704BA6
:1017F0001B784BB105F1B4000121FFF729FB05F17E
:10180000AF000221FFF724FBFFF716FC002840F091
:10181000B980654B5B7813F0080F07D0664B012247
:1018200083F8222040F6B8321A8412E05E4B5B78CF
:1018300013F0100F07D0604B022283F8222040F6ED
:10184000B8321A8405E05C4B032283F82220002280
:101850001A84554B5B7813F0020F06D0564B0122C9
:101860001A7741F288325A8310E04F4B5B7813F0BD
:10187000040F06D0504B02221A7741F288325A8365
:1018800004E04D4B03221A7700225A834B48002173
:10189000FFF766FC002877D1434B5B7813F0080F05
:1018A00017D0414B5B7813F0020F12D00121FFF7E4
:1018B000D3F901200146FFF7CFF902200121FFF7FC
:1018C000CBF903200121FFF7C7F93C480121FFF7BD
:1018D00047FCFFF79DF9002858D1FFF751F9002880
:1018E00056D1374B1A68374BA3FB02135B096421AF
:1018F00001FB1323092B4DD8334B1A783348344B53
:1019000053F8221003F0D4FA2C4BD3E90067D3E943
:1019100002ABD3E9040100222E4BFEF703FE804602
:10192000894630463946FFF797F8064650465946ED
:10193000FFF792F8044640464946FFF78DF8034604
:1019400025483146224603F0B3FA2448294603F0DD
:10195000AFFA184B1B781BB1214803F0A9FA02E03B
:10196000204803F0A5FA124B1B782BB11E4803F058
:101970009FFA0020BDE8F88F1C4803F099FA002078
:10198000BDE8F88FBDE8F88FBDE8F88FBDE8F88FA7
:10199000BDE8F88F0020BDE8F88F00BFAFF30080EE
:1019A00046DF617EDCA54C40280B0020AC04002003
:1019B0008A0400208B0400201000002090040020E6
:1019C000300B00201F85EB517100002010810008B2
:1019D0000482000800005940208100084C81000862
:1019E000648100087C81000894810008AC810008B3
:1019F000704700BFFEE700BFFEE700BFFEE700BF85
:101A0000FEE700BF704700BF704700BF704700BFD0
:101A100008B501F061FC01F023FD024A13680133AF
:101A2000136008BD300B002008B5024B186B02F0A4
:101A300003FB08BDF001002008B5024B586B02F013
:101A4000FBFA08BD3002002008B5024802F0E6FFAC
:101A500008BD00BF3002002008B5024802F0DEFFDA
:101A600008BD00BFF001002008B5024BD86A02F0A3
:101A7000E3FA08BDB000002008B5024B186B02F075
:101A8000DBFA08BDB000002000B583B01C4B9A699A
:101A900042F001029A619B6903F001030193019BEB
:101AA000032001F035FC6FF00B0000210A4601F025
:101AB0004DFC6FF00A0000210A4601F047FC6FF070
:101AC000090000210A4601F041FC6FF004000021EA
:101AD0000A4601F03BFC6FF0030000210A4601F0CA
:101AE00035FC6FF0010000210A4601F02FFC4FF099
:101AF000FF3000210A4601F029FC03B05DF804FB29
:101B000000100240F0B589B0044603685D4A934274
:101B100053D15D4B9A6942F008029A619B6903F0C8
:101B200008030093009B574A1368C3F30E03136026
:101B30004FF4407304931123059302230793534CEE
:101B4000204604A901F02CF9E36843F44073E360F4
:101B50004E4B9B6803F44073B3F5407FF8D14B4A7A
:101B6000D36823F44073D360484B9B6813F4407FE1
:101B7000FAD14FF440730493122305930323079380
:101B8000424804A901F00CF9414A536843F00203AA
:101B900053603D4BDA6942F40012DA61DB6903F409
:101BA00000130193019B374B1A6842F400421A60FC
:101BB0001A68C2F30E021A6061E0364A93425ED19F
:101BC0004FF44063049312230593032307932F4894
:101BD00004A901F0E5F82C4BDA6942F48002DA61DD
:101BE000DA6902F480020292029A5A6942F0010212
:101BF0005A615B6903F001030393039B264E274B55
:101C0000336000257560B5608027F76035617561C8
:101C1000B561F561304602F03FF926637462204EEB
:101C2000204B336010237360B560F76035617561D8
:101C3000B561F561304602F02FF9E66274620E205C
:101C40002946012201F082FB0E2001F0C1FB0F208A
:101C50002946012201F07AFB0F2001F0B9FB212077
:101C600029462A4601F072FB212001F0B1FB222017
:101C700029462A4601F06AFB222001F0A9FB09B09F
:101C8000F0BD00BF0054004000100240000C0140B5
:101C900000000140005800409C0500205800024010
:101CA0000C0600204400024000B587B003681A4AC1
:101CB000934218D1194BDA6942F00202DA61DB690A
:101CC00003F002030093009BC023029300230393BD
:101CD0000493134802A901F063F8124A536843F4CD
:101CE0004063536015E0104A934212D10B4BDA69FE
:101CF00042F00402DA61DB6903F004030193019B03
:101D0000C0230293002303930493084802A901F01F
:101D100047F807B05DF804FB0004004000100240E3
:101D2000001001400000014000080040000C01408C
:101D3000F0B58DB004460368704A934229D1704BC8
:101D40009A6942F480429A619A6902F4804201924F
:101D5000019A9A6942F004029A619B6903F00403B4
:101D60000293029B4FF40073089302230993032309
:101D70000B93644C204608A901F012F84FF48063DD
:101D80000893002309930A93204608A901F008F854
:101D9000B1E05D4A934259D1594EF36943F400339F
:101DA000F361F36903F400330393039BB36943F0D6
:101DB0000403B361B36903F004030493049B042395
:101DC00008930223099303230B934E4F384608A927
:101DD00000F0E6FF08230893002509950A95384688
:101DE00008A900F0DDFF736943F0010373617369B3
:101DF00003F001030593059B444E454B33601027C8
:101E00007760B5608023F36035617561B561F56118
:101E1000304602F041F826637462112029460122FF
:101E200001F094FA112001F0D3FA384629462A46E7
:101E300001F08CFA384601F0CBFA2620294601221F
:101E400001F084FA262001F0C3FA54E0314A9342AB
:101E500051D12B4BDA6942F48022DA61DA6902F45B
:101E600080220692069A9A6942F010029A619B6952
:101E700003F010030793079B4FF48063089302233A
:101E8000099303230B93244D284608A900F088FFEB
:101E90004FF400630893002609960A96284608A97D
:101EA00000F07EFF1D4A536823F0300343F0100317
:101EB00053601B4D1B4B2B606E60AE608023EB604C
:101EC0002E616E61AE614FF40053EB61284601F064
:101ED000E3FF65636C620D203146324601F036FA4D
:101EE0000D2001F075FA27203146012201F02EFA6B
:101EF000272001F06DFA0DB0F0BD00BF00380140A1
:101F0000001002400008014000440040D4050020B9
:101F100080000240004800400010014000000140E5
:101F20006405002030000240FEE700BF30B583B0FA
:101F3000044620B9BA484FF48771FFF7F5FF2368CC
:101F40003BB113F00F0F04D1B54840F20F11FFF76A
:101F5000EBFF236813F0010F00F0A380636853B117
:101F6000B3F5803F07D0B3F5A02F04D0AC4840F2C2
:101F70001511FFF7D9FFAB4B5B6803F00C03042B83
:101F80000AD0A84B5B6803F00C03082B1BD1A54BB0
:101F90005B6813F4803F16D04FF4003393FAA3F339
:101FA000A04B1A684FF4003393FAA3F3B3FA83F308
:101FB00003F01F0322FA03F313F0010F71D06368DB
:101FC000002B6ED119E36368B3F5803F05D1954AC4
:101FD000136843F48033136026E063B903F1804350
:101FE00003F504331A6822F480321A601A6822F466
:101FF00080221A6018E0B3F5A02F0CD103F18043C2
:10200000A3F53C331A6842F480221A601A6842F43D
:1020100080321A6008E0834B1A6822F480321A601A
:102020001A6822F480221A606368EBB101F05CF94F
:10203000054605E001F058F9401B642800F2DF82F4
:102040004FF4003393FAA3F3764B1A684FF400333E
:1020500093FAA3F3B3FA83F303F01F0322FA03F313
:1020600013F0010FE6D01CE001F03EF9054605E053
:1020700001F03AF9401B642800F2C3824FF40033A8
:1020800093FAA3F3674B1A684FF4003393FAA3F360
:10209000B3FA83F303F01F0322FA03F313F0010FE3
:1020A000E6D1236813F0020F00F0A0802369012B12
:1020B00004D95B4840F24911FFF736FF63691F2BD3
:1020C00004D957484FF4A571FFF72EFF554B5B68B5
:1020D00013F00C0F0AD0534B5B6803F00C03082B72
:1020E00027D1504B5B6813F4803F22D1022393FA2F
:1020F000A3F34C4B1A68022393FAA3F3B3FA83F3C6
:1021000003F01F0322FA03F313F0010F03D0236936
:10211000012B40F078824348036823F0F80163699B
:10212000F82292FAA2F2B2FA82F293400B430360D1
:102130005CE023699BB3012292FAA2F3B3FA83F322
:102140009B0003F1844303F584031A6001F0CCF88B
:10215000054605E001F0C8F8401B022800F2558250
:10216000022393FAA3F32F4B1A68022393FAA3F3E3
:10217000B3FA83F303F01F0322FA03F313F0010F02
:10218000E8D02848036823F0F8016369F82292FA3E
:10219000A2F2B2FA82F293400B43036026E00123DD
:1021A00093FAA3F3B3FA83F39B0003F1844303F59B
:1021B000840300221A6001F097F8054605E001F05B
:1021C00093F8401B022800F22282022393FAA3F321
:1021D000144B1A68022393FAA3F3B3FA83F303F0C0
:1021E0001F0322FA03F313F0010FE8D1236813F061
:1021F000080F5CD0A369012B04D909484FF4C571BD
:10220000FFF792FEA3696BB3012292FAA2F3B3FA2D
:1022100083F3054941F8232001F066F805460BE0F9
:1022200014820008001002408004424201F05CF871
:10223000401B022800F2ED81022393FAA3F293FAE5
:10224000A3F2A34A526A93FAA3F3B3FA83F303F017
:102250001F0322FA03F313F0010FE7D0012001F06E
:1022600049F824E0012393FAA3F3B3FA83F300219E
:10227000984A42F8231001F037F8054605E001F0CE
:1022800033F8401B022800F2C681022393FAA3F21E
:1022900093FAA3F28E4A526A93FAA3F3B3FA83F342
:1022A00003F01F0322FA03F313F0010FE7D12368B1
:1022B00013F0040F00F0A980E368012B06D9052B69
:1022C00004D0854840F2B711FFF72EFE804BDA6943
:1022D00042F08052DA61DB6903F080530193019B85
:1022E0007E4A136843F48073136000F0FDFF0546D7
:1022F00005E000F0F9FF401B642800F28E81774B67
:102300001B6813F4807FF4D0E368012B05D1704A79
:10231000136A43F00103136222E063B903F18043BF
:1023200003F504331A6A22F001021A621A6A22F0D3
:1023300004021A6214E0052B09D1654B1A6A42F0B7
:1023400004021A621A6A42F001021A6208E0604B43
:102350001A6A22F001021A621A6A22F004021A6250
:10236000E3684BB300F0C0FF054607E000F0BCFF98
:10237000401B41F28833984200F25181022393FAC4
:10238000A3F293FAA3F3B3FA83F343F040035B0998
:10239000022B02D14E4B1A6A01E04D4B5A6A0223BE
:1023A00093FAA3F3B3FA83F303F01F0322FA03F3C0
:1023B00013F0010FDAD028E000F096FF054607E0A1
:1023C00000F092FF401B41F28833984200F22981CD
:1023D000022393FAA3F293FAA3F3B3FA83F343F03D
:1023E00040035B09022B02D1394B1A6A01E0384BDA
:1023F0005A6A022393FAA3F3B3FA83F303F01F0399
:1024000022FA03F313F0010FDAD1E369022B04D9A6
:10241000314840F24721FFF787FDE369002B00F0C8
:1024200002812B4A526802F00C02082A00F0FD805B
:10243000022B40F0B780236A3BB1B3F5803F04D054
:1024400025484FF41471FFF76FFD636A73B3B3F55A
:10245000802F2BD0B3F5002F28D0B3F5402F25D0F7
:10246000B3F5801F22D0B3F5A01F1FD0B3F5C01F56
:102470001CD0B3F5E01F19D0B3F5001F16D0B3F58B
:10248000101F13D0B3F5201F10D0B3F5301F0DD09F
:10249000B3F5401F0AD0B3F5501F07D0B3F5601F46
:1024A00004D00D4840F25121FFF73EFD4FF08073FC
:1024B00093FAA3F3B3FA83F39B0003F1844303F588
:1024C000840300221A6000F00FFF05460EE000BFF3
:1024D0000010024080044242148200080070004054
:1024E00000F002FF401B022800F2A1804FF00073B1
:1024F00093FAA3F3514B1A684FF0007393FAA3F3C6
:10250000B3FA83F303F01F0322FA03F313F0010F6E
:10251000E6D1236AB3F5803F10D1A3683BB1B3F590
:10252000003F04D0464840F26721FFF7FDFC4349D5
:102530004B6823F40032A36813434B603F48436861
:1025400023F47411236A626A13430B4343604FF010
:10255000807393FAA3F3B3FA83F39B0003F18443EC
:1025600003F5840301221A6000F0BEFE044604E075
:1025700000F0BAFE001B02285BD84FF0007393FAFC
:10258000A3F32E4B1A684FF0007393FAA3F3B3FA38
:1025900083F303F01F0322FA03F313F0010FE7D0D4
:1025A000002049E04FF0807393FAA3F3B3FA83F36A
:1025B0009B0003F1844303F5840300221A6000F0BA
:1025C00093FE044604E000F08FFE001B022832D880
:1025D0004FF0007393FAA3F3184B1A684FF000738F
:1025E00093FAA3F3B3FA83F303F01F0322FA03F37E
:1025F00013F0010FE7D100201EE001201CE00320B2
:102600001AE0032018E0012016E0032014E0032064
:1026100012E0032010E003200EE003200CE0032072
:102620000AE0032008E0002006E0012004E0032087
:1026300002E0032000E0032003B030BD00100240A0
:102640001482000830B486B01E4D02AC2868696858
:10265000AA68EB680FC42B8AADF804301A4B5A688D
:1026600002F00C03082B28D102F470134FF4701100
:1026700091FAA1F1B1FA81F1CB4006A90B4413F80C
:10268000103C12F4803F14D00F4A526802F400321A
:102690004FF4003191FAA1F1B1FA81F1CA4006A9D3
:1026A0000A4412F8140C094AB2FBF0F003FB00F0E4
:1026B00004E0074800FB03F000E0044806B030BC2B
:1026C000704700BF507F00080010024000127A00DF
:1026D00000093D0070B50D46044620B9A1484FF4ED
:1026E0002F71FFF721FC236813F00F0F04D19D48D1
:1026F00040F2BD21FFF718FC022D04D9994840F2A1
:10270000BE21FFF711FC984B1B6803F00703AB4297
:102710000BD2954A136823F007032B431360136809
:1027200003F00703AB4240F00C81236813F0020F63
:102730001DD0A368A3B1802B12D0902B10D0A02B5A
:102740000ED0B02B0CD0C02B0AD0D02B08D0E02B51
:1027500006D0F02B04D0834840F2D721FFF7E4FBEA
:1027600082494B6823F0F002A36813434B6023684F
:1027700013F0010F00F081806368022B04D97948BF
:1027800040F2DE21FFF7D0FB6268012A13D14FF43B
:10279000003393FAA3F3754B19684FF4003393FA9F
:1027A000A3F3B3FA83F303F01F0321FA03F313F047
:1027B000010F28D1C7E0022A13D14FF0007393FA1A
:1027C000A3F36A4B19684FF0007393FAA3F3B3FABB
:1027D00083F303F01F0321FA03F313F0010F12D167
:1027E000B3E0022393FAA3F3604B1968022393FA30
:1027F000A3F3B3FA83F303F01F0321FA03F313F0F7
:10280000010F00F0A48059494B6823F003031343E0
:102810004B6000F069FD06466368012B0FD107E0AD
:1028200000F062FD801B41F28833984200F29180F3
:102830004E4B5B6803F00C03042BF1D11DE0022B1F
:1028400016D107E000F050FD801B41F2883398421A
:1028500000F28180454B5B6803F00C03082BF1D13B
:102860000BE000F041FD801B41F28833984274D8A0
:102870003E4B5B6813F00C0FF3D13B4B1B6803F02E
:102880000703AB420AD9384A136823F007032B43E6
:102890001360136803F00703AB4260D1236813F0A1
:1028A000040F19D0E36883B1B3F5806F0DD0B3F591
:1028B000A06F0AD0B3F5C06F07D0B3F5E06F04D0B6
:1028C000284840F23231FFF72FFB28494B6823F4A8
:1028D000E062E36813434B60236813F0080F1AD0DB
:1028E000236983B1B3F5806F0DD0B3F5A06F0AD023
:1028F000B3F5C06F07D0B3F5E06F04D0194840F2CC
:102900003931FFF711FB194A536823F460532169E9
:1029100043EAC1035360FFF795FE144B5B6803F075
:10292000F003F02292FAA2F2B2FA82F2D340104AF5
:10293000D35CD8400F4B1860002000F0A7FC0020AB
:1029400070BD012070BD012070BD012070BD01204F
:1029500070BD032070BD032070BD032070BD012039
:1029600070BD00BF14820008002002400010024029
:10297000647F000800000020014B1868704700BF0A
:102980000000002008B5FFF7F7FF074B5B6803F472
:10299000E0634FF4E06292FAA2F2B2FA82F2D3401C
:1029A000024AD35CD84008BD00100240747F000882
:1029B00008B5FFF7E1FF074B5B6803F460534FF482
:1029C000605292FAA2F2B2FA82F2D340024AD35C87
:1029D000D84008BD00100240747F000810B50446BE
:1029E0000368104A93420FD0B3F1804F0CD0A2F588
:1029F0009432934208D002F58062934204D00A4890
:102A00004FF49871FFF790FA022384F83930226866
:102A1000136843F001031360012384F83930002068
:102A200010BD00BF002C01404C820008704700BF61
:102A3000704700BF704700BF704700BF704700BFBE
:102A400010B5044603681A6912F0020F17D0DA684D
:102A500012F0020F13D06FF002021A610123037605
:102A600003689B6913F0030F02D0FFF7E3FF04E054
:102A7000FFF7DEFF2046FFF7DFFF00232376236802
:102A80001A6912F0040F19D0DA6812F0040F15D089
:102A90006FF004021A610223237623689B6913F402
:102AA000407F03D02046FFF7C5FF05E02046FFF733
:102AB000BFFF2046FFF7C0FF0023237623681A6973
:102AC00012F0080F19D0DA6812F0080F15D06FF065
:102AD00008021A61042323762368DB6913F0030FCD
:102AE00003D02046FFF7A6FF05E02046FFF7A0FF32
:102AF0002046FFF7A1FF0023237623681A6912F00E
:102B0000100F19D0DA6812F0100F15D06FF0100204
:102B10001A61082323762368DB6913F4407F03D00E
:102B20002046FFF787FF05E02046FFF781FF20469C
:102B3000FFF782FF0023237623681A6912F0010F42
:102B400009D0DA6812F0010F05D06FF001021A61A6
:102B50002046FFF76BFF23681A6912F0800F09D037
:102B6000DA6812F0800F05D06FF080021A612046FB
:102B700001F07EF923681A6912F0400F09D0DA6873
:102B800012F0400F05D06FF040021A612046FFF7A7
:102B900055FF23681A6912F0200F09D0DA6812F085
:102BA000200F05D06FF020021A61204601F05EF977
:102BB00010BD00BF0368184A90420AD0B0F1804FA0
:102BC00007D0A2F59432904203D002F58062904281
:102BD00003D123F070034A6813430F4A90420AD08E
:102BE000B0F1804F07D0A2F59432904203D002F5A5
:102BF0008062904203D123F44073CA681343036098
:102C00008B68C3620B688362034B984201D10B69E6
:102C10000363012343617047002C0140002800F04A
:102C2000B980F8B505460C4603685B4A93420FD05D
:102C3000B3F1804F0CD0A2F59432934208D002F544
:102C40008062934204D0554840F6CC01FFF76CF9FE
:102C50002368013B022B04D9504840F6CD01FFF711
:102C600063F9A368013B022B04D94C4840F6CE011E
:102C7000FFF75AF9A369013B022B04D9474840F6F4
:102C8000CF01FFF751F9636843B1022B06D00A2B3D
:102C900004D042484FF40D61FFF746F9636943B130
:102CA000022B06D00A2B04D03C4840F6D101FFF796
:102CB0003BF9E36853B1042B08D0082B06D00C2B4A
:102CC00004D0364840F6D201FFF72EF9E36953B13C
:102CD000042B08D0082B06D00C2B04D02F4840F62C
:102CE000D301FFF721F923690F2B04D92B4840F6B4
:102CF000D401FFF719F9236A0F2B04D9274840F6AE
:102D0000D501FFF711F995F8393013F0FF0F05D110
:102D1000002385F838302846FEF7C6FF022385F8E1
:102D200039302A68936823F007039360294651F8E5
:102D3000040BFFF73FFF286883688269016A2668F1
:102D40001E4322F4407222F00302A368A76943EAFB
:102D50000723134323F47C4323F0FC03E268E76971
:102D600042EA072213432769226A120342EA071242
:102D7000134321F0AA016268646942EA04120A431B
:102D8000866029688B612B681A62012385F83930C7
:102D90000020F8BD01207047002C01404C82000843
:102DA0002DE9F04383B080460F46B34B984213D0D1
:102DB00003F5806398420FD003F5806398420BD0EF
:102DC00003F58063984207D003F58063984203D0EF
:102DD000AA48CF21FFF7A8F83B881BB9A748D02104
:102DE000FFF7A2F87B68012B22D9112B20D0022BF0
:102DF0001ED0122B1CD0A24A934219D002F5801289
:102E0000934215D002F58012934211D0A2F5F81228
:102E100093420DD002F58012934209D002F5801240
:102E2000934205D0032B03D09448D121FFF77CF8BF
:102E30004FF000094E4619E10125B5403C682C4091
:102E4000AC4240F012818C4B984513D003F580635F
:102E500098450FD003F5806398450BD003F5806348
:102E6000984507D003F58063984503D08348DF2158
:102E7000FFF75AF87B68122B49D00CD8022B3AD0B6
:102E800004D8002B4FD0012B1ED067E0032B60D05D
:102E9000112B24D062E07B4A934244D008D8A2F59B
:102EA000801293423FD002F58032934256D13AE0ED
:102EB000754A934237D002F58032934233D0A2F55F
:102EC000801293424AD12EE0FB68013B022B03D9CA
:102ED0006A48E721FFF728F8D7F80C903EE0FB6836
:102EE000013B022B03D96548EE21FFF71DF8FB6873
:102EF00003F1040932E0FB68013B022B03D95F4870
:102F0000F521FFF711F8FB6803F1080926E0FB68DB
:102F1000013B022B03D95948FC21FFF705F8FB6858
:102F200003F10C091AE0BB68022B04D9534840F2A4
:102F30000911FEF7F9FFBB6873B1012B04D1C8F882
:102F400010504FF0080909E0C8F814504FF0080974
:102F500004E04FF0000901E04FF00409FF2C01D814
:102F6000454601E008F10405FF2C01D8B00002E05D
:102F7000A6F10800800029680F23834021EA03029C
:102F800009FA00F313432B607B6813F0805F6CD069
:102F90003E4B9A6942F001029A619B6903F001037A
:102FA0000193019BB008821C394B53F8221006F0A4
:102FB0000305AD000F23AB4021EA03022E4B9845D9
:102FC00013D003F5806398450DD003F580639845D1
:102FD00007D003F58063984501D1032306E004235D
:102FE00004E0022302E0012300E00023AB4013438E
:102FF0000230274A42F820307B6813F4803F05D026
:1030000002F5806213682343136004E0214A1368C9
:1030100023EA040313607B6813F4003F04D01D4AC5
:1030200053682343536004E01A4A536823EA0403B5
:1030300053607B6813F4801F04D0164A93682343BF
:10304000936004E0134A936823EA040393607B6867
:1030500013F4001F04D00F4AD3681C43D46004E06B
:103060000C4AD36823EA0404D46001360F2E7FF69D
:10307000E3AE03B0BDE8F08300080140848200089D
:10308000000011100000211000003110001002405B
:10309000000001400004014038B505460C4621B946
:1030A00005484FF4E271FEF73FFFAB68234201D0C1
:1030B000012038BD002038BD8482000870B5064666
:1030C00015460C4621B909484FF4F271FEF72CFF62
:1030D000012D04D9054840F2E511FEF725FF0DB199
:1030E000346170BD2404346170BD00BF8482000867
:1030F000F0B583B00446036813F0130F03D15F48A3
:103100007E21FEF711FF236813F0010F7ED0636864
:1031100063B1B3F5807F09D0B3F5007F06D0B3F576
:10312000407F03D055488421FEF7FEFE544BDA69F8
:1031300042F08052DA61DB6903F080530193019B16
:10314000504A136843F48073136000F0CDF80546CD
:1031500005E000F0C9F8401B642800F28880494B64
:103160001B6813F4807FF4D0454B1B6A13F4407343
:1031700045D0626802F440729A4240D04048016AE9
:1031800021F440764FF4803393FAA3F2B2FA82F23C
:103190003D4D012745F8227093FAA3F3B3FA83F368
:1031A000002245F82320066211F0010F27D000F01D
:1031B0009BF8054606E000F097F8401B41F2883383
:1031C000984256D8022393FAA3F293FAA3F3B3FAE0
:1031D00083F343F040035B09022B02D1284B1A6AA8
:1031E00001E0274B5A6A022393FAA3F3B3FA83F35D
:1031F00003F01F0322FA03F313F0010FDBD0204981
:103200000B6A23F44072636813430B62236813F064
:10321000020F15D0A36863B1B3F5804F09D0B3F5A1
:10322000004F06D0B3F5404F03D01448BA21FEF743
:103230007BFE13494B6823F44042A36813434B6061
:10324000236813F0100F16D0E368B3F5800F05D094
:1032500023B10A484FF48B71FEF766FE08494B68AC
:1032600023F48002E36813434B60002004E0032052
:1032700002E0032000E0002003B0F0BDBC820008A3
:1032800000100240007000400004424210B50446A5
:10329000FFF772FB064BA3FB0030800900F0ACF88F
:1032A0004FF0FF302146002200F050F8002010BD02
:1032B000D34D621008B5074A136843F0100313603A
:1032C000032000F025F80020FFF7E0FFFEF7DCFB0D
:1032D000002008BD00200240024A13680133136039
:1032E000704700BF44060020014B1868704700BFBC
:1032F0004406002010B582B00190FFF7F5FF0446A8
:10330000FFF7F2FF001B019B9842F9D302B010BDFA
:1033100010B50446C31E042B03D90A48BA21FEF790
:1033200003FE04F00700084AD36823F4E0631B049B
:103330001B0C43EA002040F0BF6040F40030D06036
:1033400010BD00BFF482000800ED00E070B5044637
:103350000E4615460F2A03D91A48D221FEF7E4FD7E
:103360000F2E03D91748D321FEF7DEFD164BDB687D
:10337000C3F30223C3F10702042A28BF0422191D44
:10338000062901D9D81E00E00020012303FA02F229
:10339000013A324002FA00F183405A1E2A400A43A1
:1033A000002C06DA04F00F041201D2B2074B1A55B2
:1033B00070BD1201D2B204F1604404F5614484F896
:1033C000002370BDF482000800ED00E014ED00E081
:1033D00010B5041E03DA0648E621FEF7A5FD6109D3
:1033E00004F01F040123A340024A42F8213010BD1B
:1033F000F482000800E100E00138B0F1807F0AD2D9
:10340000064B5860F021064A82F82310002098608D
:1034100007221A6070470120704700BF10E000E0EB
:1034200000ED00E010B50446042805D020B109489D
:103430004FF4DF71FEF778FD042C05D1064A1368BE
:1034400043F00403136010BD034A136823F0040320
:10345000136010BDF482000810E000E0704700BF68
:1034600008B5FFF7FBFF08BD4368114A934208D82F
:103470005800B1FBF0F0C0F30B03032B16D8042067
:103480007047826832B903EB4300B1FBF0F040F4BF
:10349000004007E003EB830000EB8000B1FBF0F09D
:1034A00040F44040C0F30B0303B90120704700BF54
:1034B000A086010003685A6912F4806F0DD05A6922
:1034C00022F480625A6104238363202380F835301C
:1034D000002380F83430012070470020704700BF7F
:1034E0002DE9F04106460C4690461D46FFF7FCFECE
:1034F0000746B8F1000F12D03DE0B5F1FF3F0ED006
:1035000025B1FFF7F1FEC01BA84208D9202386F899
:103510003530002386F834300320BDE8F081C4F351
:103520000743012B08D133685B6924EA03039BB28C
:10353000003318BF012307E033689B6924EA0303C3
:103540009BB2003318BF0123002BD6D10020BDE869
:10355000F081B5F1FF3F0ED025B1FFF7C5FEC01BCE
:10356000A84208D9202386F83530002386F8343065
:103570000320BDE8F081C4F30743012B08D1336871
:103580005B6924EA03039BB2B3FA83F35B0907E0A8
:1035900033689B6924EA03039BB2B3FA83F35B09A4
:1035A000002BD6D10020BDE8F08100BFF8B504465D
:1035B0000D461646FFF798FE074628E023685A692D
:1035C00012F4806F12D01A6842F400721A602268F6
:1035D000536923F4806353610423A363202384F895
:1035E0003530002384F834300120F8BDB6F1FF3FB8
:1035F0000DD026B1FFF778FEC01BB04207D92023BB
:1036000084F83530002384F834300320F8BDC5F346
:103610000743012B08D123685B6925EA03039BB2AA
:10362000003318BF012307E023689B6925EA0303E1
:103630009BB2003318BF0123002BBFD10020F8BD7F
:1036400070B504460E4615460268136843F480734D
:1036500013604FF0011100222B46FFF741FF48BBDA
:103660002369B3F5804F04D1236806F0FE061E617E
:1036700014E0226806F44073DB1143F0F003136199
:10368000204610492A46FFF791FF20B1A36B042B77
:1036900012D1012313E02368F6B21E6120460A49C5
:1036A0002A46FFF783FF034648B1A36B042B05D1DD
:1036B000012304E0032302E0032300E00323184670
:1036C00070BD00BF0800010002000100F0B583B02A
:1036D00004460E4615460268136843F4806313607F
:1036E0000268136843F4807313604FF001110022E5
:1036F0002B46FFF7F5FE00284BD12369B3F5804F29
:1037000005D1236846F00106F6B21E6135E0236854
:1037100006F44077FF0947F0F0021A61204623497A
:103720002A46FFF743FF20B1A36B042B33D10123BB
:1037300038E02368F6B21E6120461D492A46FFF78D
:1037400035FF20B1A36B042B27D101232AE0236886
:103750005A6901929A690192019A1A6842F4807238
:103760001A6020464FF0011100222B46FFF7B8FEE9
:10377000A8B9236847F0F1071F6120460C492A4683
:10378000FFF714FF034668B1A36B042B09D1012393
:1037900008E0032306E0032304E0032302E00323FD
:1037A00000E00323184603B0F0BD00BF080001008D
:1037B0000200010070B504460D46FFF795FD064670
:1037C00018E02046FFF776FED8B9B5F1FF3F11D0DB
:1037D00025B1FFF789FD801BA8420BD9A36B43F0ED
:1037E0002003A363202384F83530002384F8343089
:1037F000032070BD23685B6913F0800FE1D00020C7
:1038000070BD012070BD00BF70B504460D46FFF7C6
:103810006BFD064618E02046FFF74CFED8B9B5F11F
:10382000FF3F11D025B1FFF75FFD801BA8420BD9E8
:10383000A36B43F02003A363202384F835300023D7
:1038400084F83430032070BD23685B6913F0040FE3
:10385000E1D0002070BD012070BD00BF002800F045
:10386000AB8038B504460368544A934208D002F549
:103870008062934204D052484FF4A571FEF754FB86
:103880006368013B4F4A934204D94D4840F24B11C3
:10389000FEF74AFBA3683BB1B3F5804F04D048481C
:1038A0004FF4A671FEF740FBE36823F47F7323F027
:1038B000030323B1424840F24D11FEF735FB236963
:1038C000B3F5804F07D0B3F5404F04D03C484FF4D8
:1038D000A771FEF729FB6369012B04D9384840F230
:1038E0004F11FEF721FBA36933F0FE0304D03448E7
:1038F0004FF4A871FEF718FBE36933B1402B04D0F5
:103900002F4840F25111FEF70FFB236A33B1802B91
:1039100004D02B484FF4A971FEF706FB94F835301C
:1039200013F0FF0F05D1002384F834302046FEF752
:10393000E9F8242384F835302268136823F0010362
:103940001360FFF71FF801461F4BA3FB00239B0CDE
:1039500022685360206865681C4A954201D801338B
:1039600008E04FF4967202FB03F3194AA2FB03230B
:103970009B090133036225682046FFF775FDE86166
:103980002268E169236A0B43136022682169E368B6
:103990000B43936022686169A3690B43D36022687B
:1039A000136843F0010313600020A063202384F810
:1039B000353084F8360038BD01207047005400408F
:1039C0002C8300087F1A060083DE1B43A0860100BB
:1039D000D34D6210F0B583B004461D4690F83530E3
:1039E000DBB2202B7AD10F461646002A78D0002D64
:1039F00078D04249012242F21073FFF771FD00288E
:103A000072D194F83430012B70D0012384F8343013
:103A10002268136823F400631360212384F835308F
:103A2000102384F836300023A36320463946089AD1
:103A3000FFF706FE60B1A36B042B04D1002384F8CA
:103A40003430012357E0002384F83430032352E05C
:103A500023685A6901929B690193019B20E02046EB
:103A60000899FFF7A7FE48B1A36B042B40D1226849
:103A7000136843F40073136001233CE02268731C55
:103A800031781161013DADB22268516911F0040F26
:103A900005D025B1B31C71781161013DADB21E4650
:103AA000002DDCD120460899FFF7AEFE034648B151
:103AB000A36B042B1ED12268136843F400731360B8
:103AC000012318E021680A6842F400720A6020228B
:103AD00084F83520002284F834200CE002230AE028
:103AE000012308E0012306E0022304E0022302E0B0
:103AF000032300E00323184603B0F0BD02001000CA
:103B0000F0B583B004461E4690F83530DBB2202B6A
:103B100054D10F461546002A52D0002E52D02D49BE
:103B2000012242F21073FFF7DBFC00284CD194F81D
:103B30003430012B4AD0012384F8343022681368D2
:103B400023F400631360212384F83530102384F8B4
:103B500036300023A363656226856685E36A1E4AC4
:103B60009A62E36A1D4A1A632268E06A29461032A3
:103B7000334600F023FA204639462322FFF760FD42
:103B8000034660B1A36B042B04D1002384F83430C6
:103B900001231CE0002384F83430032317E021685C
:103BA0004A6842F400624A60226851690191926950
:103BB0000192019A002284F8342008E0022306E0F2
:103BC000012304E0012302E0022300E0022318465F
:103BD00003B0F0BD020010000D3D0008E13C0008FC
:103BE000F0B583B004461E4690F83530DBB2202B8A
:103BF00061D10F461546002A5FD0002E5FD03449B0
:103C0000012242F21073FFF76BFC002859D194F89F
:103C10003430012B57D0012384F8343022681368E4
:103C200023F400631360222384F83530102384F8D2
:103C300036300023A363656226856685236B254A9B
:103C40009A62236B244A1A632168206B10312A463A
:103C5000334600F0B3F9204639462322FFF736FDFC
:103C6000034660B1A36B042B04D1002384F83430E5
:103C7000012329E0002384F83430032324E0012EBB
:103C800005D121680A6822F480620A6004E0216894
:103C90004A6842F480524A6021684A6842F40062ED
:103CA0004A6022685169019192690192019A002249
:103CB00084F8342008E0022306E0012304E0012315
:103CC00002E0022300E00223184603B0F0BD00BF6B
:103CD00002001000613D0008E13C0008704700BF91
:103CE00008B5406A0268136823F4806313600023F8
:103CF0004385202280F8352080F83630836B43F0EE
:103D000010038363FFF7EAFF08BD00BF10B5446AE4
:103D10002046124900222323FFF7E2FB18B1A36BD0
:103D200043F02003A3632268136843F40073136015
:103D30002268536823F400635360002363852022C4
:103D400084F8352084F83630A36B1BB12046FFF78A
:103D5000C5FF10BD204602F03DFA10BD0400010071
:103D600008B5406A0268136823F480631360026830
:103D7000136843F4007313600268536823F480539C
:103D800053600268536823F4006353600023438543
:103D9000202280F8352080F83630836B13B1FFF78E
:103DA0009DFF08BD02F01CFA08BD00BF38B50446EF
:103DB0000D4603682B4A93420FD0B3F1804F0CD0CD
:103DC000A2F59432934208D002F58062934204D067
:103DD000254840F28C61FEF7A7F82B6893B1102BB1
:103DE00010D0202B0ED0302B0CD0402B0AD0502BD3
:103DF00008D0602B06D0702B04D01B4840F28D6198
:103E0000FEF792F86B68802B05D023B1164840F27C
:103E10008E61FEF789F894F83830012B1FD001220B
:103E200084F83820022384F8393021684B6823F065
:103E300070034B60216848682B6803434B6021681E
:103E40008B6823F080038B60216888686B6803436C
:103E50008B6084F83920002084F8380038BD0220B7
:103E600038BD00BF002C014064830008704700BFCC
:103E7000704700BF10B4046863604368102B04D11E
:103E800003689A600368D96003E003689960036877
:103E9000DA605DF8044B7047002800F0898010B5A7
:103EA00004460368434A934215D01432934212D019
:103EB000143293420FD0143293420CD014329342F6
:103EC00009D01432934206D01432934203D03A48B8
:103ED000B521FEF729F8636843B1102B06D0B3F57E
:103EE000804F03D03448B621FEF71EF8A368402B5C
:103EF00004D01BB13048B721FEF716F8E368802BD9
:103F000004D01BB12C48B821FEF70EF823694BB141
:103F1000B3F5807F06D0B3F5007F03D02648B921E2
:103F2000FEF702F863694BB1B3F5806F06D0B3F5C5
:103F3000006F03D02048BA21FDF7F6FFA3692BB12B
:103F4000202B03D01C48BB21FDF7EEFFE36963B1D2
:103F5000B3F5805F09D0B3F5005F06D0B3F5405FDD
:103F600003D01548BC21FDF7DFFF94F821300BB9D1
:103F700084F82030022384F821302068036823F479
:103F80007F5323F030036168A2681143E268114354
:103F90002269114362691143A2691143E2690A432C
:103FA0001343036000206063012384F8213010BDB7
:103FB00001207047080002409C830008F8B590F883
:103FC0002040012C34D01D4616460F4604460123DE
:103FD00080F82030022380F821306A1E4FF6FE73ED
:103FE0009A4204D9134840F26111FDF79DFF2268FF
:103FF000136823F0010313602046394632462B46EE
:10400000FFF738FF2268136843F002031360226849
:10401000136843F0040313602268136843F0080335
:1040200013602268136843F0010313600020F8BD99
:104030000220F8BD9C83000810B50446984B1A680E
:10404000036898498B421FD014318B421AD0143127
:104050008B4214D014318B420ED014318B4208D0D5
:1040600014318B4202D14FF400010EE04FF0006199
:104070000BE04FF4002108E04FF4004105E04FF45D
:10408000006102E0802100E008210A423CD01A6869
:1040900012F0080F38D01A6822F008021A6023685C
:1040A000804A93421FD0143293421AD01432934262
:1040B00014D0143293420ED01432934208D01432EA
:1040C000934202D14FF400020EE04FF000620BE089
:1040D0004FF4002208E04FF4004205E04FF4006284
:1040E00002E0802200E008226D4B5A60636B43F0CF
:1040F00001036363042384F82130002384F8203013
:10410000236B0BB120469847654B1A6823686549B5
:104110008B421FD014318B421AD014318B4214D0F1
:1041200014318B420ED014318B4208D014318B42A3
:1041300002D14FF480010EE04FF080610BE04FF4AC
:10414000802108E04FF4804105E04FF4806102E0F7
:10415000402100E004210A4239D01A6812F0040F0D
:1041600035D01A6812F0200F03D11A6822F0040229
:104170001A6023684B4A93421FD0143293421AD0DC
:104180001432934214D0143293420ED0143293421C
:1041900008D01432934202D14FF480020EE04FF067
:1041A00080620BE04FF4802208E04FF4804205E08B
:1041B0004FF4806202E0402200E00422384B5A6053
:1041C000112384F82130E36A0BB120469847344B21
:1041D0001A68236833498B421FD014318B421AD09E
:1041E00014318B4214D014318B420ED014318B42D7
:1041F00008D014318B4202D14FF400110EE04FF081
:1042000000710BE04FF4003108E04FF4005105E07D
:104210004FF4007102E0202100E002210A423ED06A
:104220001A6812F0020F3AD01A6812F0200F03D168
:104230001A6822F002021A6023681A4A93421FD0B9
:10424000143293421AD01432934214D0143293424F
:104250000ED01432934208D01432934202D14FF45C
:1042600000120EE04FF000720BE04FF4003208E055
:104270004FF4005205E04FF4007202E0202200E00B
:104280000222074B5A60636B6363012384F8213079
:10429000002384F82030A36A0BB12046984710BD54
:1042A0000000024008000240704700BF002844D0D0
:1042B00010B504460268234B9A4203D02248A62137
:1042C000FDF732FE6368062B03D91F48A721FDF7CF
:1042D0002BFEA368B3F5805F03D31B48A821FDF72D
:1042E00023FE2368DA6812F0010F03D0DB6813F0B5
:1042F000020F24D1637B13F0FF0F04D1002323733B
:104300002046FFF7D1FF02236373236845F255521D
:104310001A6021684B6823F00702636813434B60FF
:1043200021688B6823F47F6323F00F03A268134393
:104330008B6001236373002010BD012070470120B2
:1043400010BD00BF00300040D4830008037B012B68
:104350000FD00223437303684CF6CC421A60036803
:104360004AF6AA221A6001234373002303731846F6
:1043700070470220704700BF38B5037B012B20D067
:1043800004460123037302234373FEF7ADFF054682
:104390000AE0FEF7A9FF401BB0F57A7F04D903209D
:1043A00060730023237338BD2368DA6812F0020FAC
:1043B000EFD14AF6AA221A6001236373002020730A
:1043C00038BD022038BD00BF90F83930DBB2122B67
:1043D00001D0322B2AD18368B3F5805F0FD1036AF5
:1043E00002681B88C3F30803536003691BB9036A9F
:1043F0000233036209E0036A0133036205E00268E5
:10440000036A591C01621B785360C38C013B9BB249
:10441000C3846BB90268D36823F08003D360026859
:10442000D36843F04003D3600020704702207047F8
:10443000002070472DE9F84381464268834B9A4239
:1044400004D9834840F25271FDF76EFDD9F80C3063
:104450003BB1B3F5005F04D07D4840F25371FDF7E6
:1044600063FDD9F8103053B1B3F5806F07D0B3F5C1
:10447000C06F04D0764840F25471FDF755FDD9F86D
:10448000143033F00C0200D123B9714840F2557159
:10449000FDF74AFDD9F800100B6923F44052D9F812
:1044A0000C3013430B61D9F80820D9F810301A43A7
:1044B000D9F814301343D9F80010CA6822F4B05266
:1044C00022F00C021343CB60D9F800104B6923F49F
:1044D0004072D9F8183013434B61D9F800505D4B46
:1044E0009D4259D1FEF764FA00EB800000EB80009A
:1044F000D9F80440A400B0FBF4F4574EA6FB0434F2
:1045000064092401FEF754FA00EB800000EB800000
:10451000D9F804309B00B0FBF3F7FEF749FA00EB43
:10452000800000EB8000D9F804309B00B0FBF3F36F
:10453000A6FB03235B094FF0640808FB13731B0100
:104540003233A6FB03235B0903F0F0031C44FEF7A0
:104550002FFA00EB800000EB8000D9F804309B00BC
:10456000B0FBF3F7FEF724FA00EB800000EB8000CD
:10457000D9F804309B00B0FBF3F3A6FB03235B09DF
:1045800008FB13731B013233A6FB0323C3F343134E
:104590001C44AC60BDE8F883FEF7F4F900EB800042
:1045A00000EB8000D9F80440A400B0FBF4F42A4EDC
:1045B000A6FB043464092401FEF7E4F900EB800053
:1045C00000EB8000D9F804309B00B0FBF3F7FEF756
:1045D000D9F900EB800000EB8000D9F804309B0093
:1045E000B0FBF3F3A6FB03235B094FF0640808FB61
:1045F00013731B013233A6FB03235B0903F0F003A3
:104600001C44FEF7BFF900EB800000EB8000D9F8F6
:1046100004309B00B0FBF3F7FEF7B4F900EB800029
:1046200000EB8000D9F804309B00B0FBF3F3A6FB4D
:1046300003235B0908FB13731B013233A6FB03231F
:10464000C3F343131C44AC60BDE8F88320AA4400C4
:104650000C840008003801401F85EB51002872D0FF
:1046600010B5044683690BB30368384A93420CD0F3
:10467000A2F57442934208D002F58062934204D0BE
:10468000334840F20711FDF74FFCA369FBB1B3F5C6
:10469000807F1CD0B3F5007F19D0B3F5407F16D0D2
:1046A0002B484FF48471FDF73FFC10E00368274A64
:1046B00093420CD0A2F57442934208D002F5806276
:1046C000934204D022484FF48671FDF72DFCA36875
:1046D0003BB1B3F5805F04D01D484FF48771FDF7FF
:1046E00023FCE36923B11A4840F20F11FDF71CFCCB
:1046F00094F8393013F0FF0F05D1002384F83830D7
:104700002046FDF715FB022384F839302268D36870
:1047100023F40053D3602046FFF78CFE2268136910
:1047200023F4904313612268536923F02A035361F1
:104730002268D36843F40053D3600020E063012370
:1047400084F8393010BD0120704700BF00380140A7
:104750000C84000810B50446134690F83920D2B2F4
:10476000012A01D0222A36D1002936D0002B36D09A
:1047700094F83820012A34D0012284F838202162AC
:10478000A384E3840022E26394F83920D2B2222A7F
:1047900003D1322284F8392002E0122284F8392031
:1047A000226B11489062226B1048D062226B104835
:1047B00010632268206B0432FFF700FC23686FF05F
:1047C00040021A602268536943F08003536100205D
:1047D00084F8380010BD022010BD012010BD01205A
:1047E00010BD022010BD00BF8D480008ED48000834
:1047F000FD49000838B504460D46134690F83920A7
:10480000D2B2012A01D0122A32D1002D32D0002B8F
:1048100032D094F83820012A30D0012284F8382090
:10482000A562A3850022E26394F83920D2B2122A4D
:1048300003D1322284F8392002E0222284F8392080
:10484000626B0F499162626B0E49D162626B0E49D5
:1048500011632168606B04312A46FFF7AFFB2268C1
:10486000536943F040035361002084F8380038BD99
:10487000022038BD012038BD012038BD022038BDDE
:10488000F9480008ED490008FD49000808B5436AE9
:104890000268126812F0200F0CD10022DA84196825
:1048A0004A6922F080024A611A68D36843F04003E3
:1048B000D36008BD184601F089FC08BD08B5026840
:1048C000D36823F04003D36090F83930DBB2322B49
:1048D00003D1222380F8393002E0012380F83930F7
:1048E00001F074FC002008BD704700BF08B5406AA5
:1048F000FFF7FAFF08BD00BF08B5436A02681268F7
:1049000012F0200F12D10022DA8519684A6922F0CC
:1049100040024A6193F83920D2B2322A03D11222DE
:1049200083F8392002E0012283F83920184601F08B
:104930002FFC08BD08B590F83930DBB2222B01D02E
:10494000322B4CD18368B3F5805F13D1836A02693F
:1049500042B902685268C2F308021A80836A0233BD
:10496000836218E002685268D2B21A80836A013307
:10497000836210E0036933B9836A5A1C8262026859
:1049800052681A7007E0826A531C836203685B688E
:1049900003F07F031370C38D013B9BB2C38503BB40
:1049A0000268D36823F02003D36090F83930DBB27B
:1049B000322B03D1122380F839300CE00268D3681F
:1049C00023F48073D3600268536923F001035361B9
:1049D000012380F8393001F0DBFB002008BD022004
:1049E00008BD002008BD00BF704700BF08B5406A81
:1049F000FFF7FAFF08BD00BF704700BF08B5406A67
:104A00000023C385C384012380F83930C36B43F08E
:104A10001003C363FFF7F0FF08BD00BF10B582B0FD
:104A2000044603681968DA6802F4807211F0010F15
:104A300004D01AB1C26B42F00102C26319685A690C
:104A400002F0010211F0020F04D01AB1E16B41F043
:104A50000401E163196811F0040F04D01AB1E16B8D
:104A600041F00201E163196811F0080F04D01AB196
:104A7000E26B42F00802E2631A68DB6803F020038D
:104A800012F0200F03D013B12046FFF753FF236825
:104A90001A68DB6803F0800312F0800F03D013B1B3
:104AA0002046FFF791FC23681A68DB6803F0400397
:104AB00012F0400F03D013B12046FFF7FFFEE36B67
:104AC0005BB123681A6801925B680193019B012323
:104AD00084F839302046FFF78FFF02B010BD00BFC9
:104AE00038B504460D46012803D904482B21FDF7AB
:104AF0001BFA034B53F824305D6038BD4C8400082A
:104B00004484000808B5054B53F82000FEF7A6FEC4
:104B100008B1012008BD002008BD00BF4484000882
:104B200010B582B00C46134641000A220092054897
:104B30002246FEF74FFF10B14FF0FF3000E000209B
:104B400002B010BD7400002008B50A4B1B7813F0AA
:104B5000FF0F0AD013460A46014607484900FEF7F0
:104B6000CFFF20B9034B187008BD002008BD4FF0DF
:104B7000FF3008BD73000020B000002008B50A4BCC
:104B80001B7813F0FF0F0AD013460A460146074868
:104B90004900FFF725F820B9034B187008BD002025
:104BA00008BD4FF0FF3008BD72000020B0000020AB
:104BB0000122014B1A707047730000200122014B43
:104BC0001A7070477200002008B50248FDF738FFE0
:104BD00008BD00BFEC00002008B50248FDF730FF1B
:104BE00008BD00BFEC00002010B58CB004460128C1
:104BF00003D916482621FDF797F9032303930023D1
:104C000004930122059206930793089309920A934D
:104C10000B930F4B53F8240003A9FDF7FFFF80B956
:104C20000023019302930A4B53F8240001A9FFF7D4
:104C3000BDF840B9064B53F82400FDF7CFFE002025
:104C400002E0012000E001200CB010BD7C840008CF
:104C50007484000810B50446012803D9054848218A
:104C6000FDF762F9044B53F824301B68586A00B210
:104C700010BD00BF7C8400087484000838B5044669
:104C80000D46012803D905484D21FDF74DF9044B88
:104C900053F824301B685D6238BD00BF7C84000877
:104CA00074840008014B5860704700BFA0010020C9
:104CB000014B9860704700BFA001002008B505486F
:104CC000FFF7F4FA20B90348FFF740FB002008BDC6
:104CD000012008BDA001002008B50248FFF74CFBE9
:104CE00008BD00BFA001002038B504460D460228CB
:104CF00003D904483821FDF717F9034B53F8243042
:104D00005D6038BDB8840008AC84000808B5054B68
:104D100053F82000FFF7A2FC08B1012008BD0020D5
:104D200008BD00BFAC84000808B503460A46054824
:104D30001946FFF70FFD10B14FF0FF3008BD0020FE
:104D400008BD00BFF001002008B582B20448FFF79B
:104D500051FD10B14FF0FF3008BD002008BD00BF6D
:104D600030020020014B1860704700BF4806002049
:104D7000014B5860704700BF48060020014B986007
:104D8000704700BF48060020014BD860704700BF45
:104D90004806002010B50446032803D905482321FE
:104DA000FDF7C2F8044B53F824000449FDF7F8FF5F
:104DB00010BD00BFF4840008E48400084806002009
:104DC00070B504460E461546032803D90548282128
:104DD000FDF7AAF8044B53F824003146EAB2FEF777
:104DE0006DF970BDF4840008E484000838B5044609
:104DF0000D46032803D905482D21FDF795F8044BEE
:104E000053F824002946FEF747F938BDF48400081A
:104E1000E48400080FB400B583B004A951F8040B72
:104E2000019100F0B5F803B05DF804EB04B07047F1
:104E300038B504460C4B1D6802E0012001F092F9E0
:104E40000A4B1B7813F0FF0F04D12B19064A126886
:104E50009342F2D82C44044B1B689C4201D8012099
:104E600038BD002038BD00BF300B0020700200208C
:104E700008B56420FFF7DCFF98B90A4B1B686BB1DB
:104E8000084A591C11600A21197007481168091A4B
:104E900089B2FFF749FF0022044B1A70024A014B06
:104EA0001A6008BD580A0020580600207002002031
:104EB0000FB430B583B006AC54F8045B6420FFF740
:104EC000B7FF01942846214600F062F8064B1B68A4
:104ED000064A9B1AB3F5617F01DDFFF7C9FF03B0F6
:104EE000BDE8304004B07047580A00205806002042
:104EF00008B42DE9F04183B006468846174609AC50
:104F000054F8045B6420FFF793FF0A4841463A4691
:104F10003346FFF77FFF01942846214600F038F81A
:104F20000548FFF777FFFFF7A3FF03B0BDE8F041A7
:104F300001B070471C850008FC8900080122014B64
:104F40001A7070477002002010B504460A2802D17A
:104F50000D20FFF7F9FF074B1B6823B1591C054AC9
:104F600011601C7010BD044B1B680BB120469847A4
:104F700010BD00BF580A00205C0A002010B504468E
:104F800002E00134FFF7E0FF20780028F9D110BDDE
:104F90002DE9F04F85B006468846741C307800280D
:104FA00000F0ED80252803D0FFF7CEFF2646F4E77A
:104FB000B31C7078302803D1F31CB078012706E0C9
:104FC0002D2803D1F31CB078022700E000271E46ED
:104FD000002406E004EB840464000444303C307890
:104FE0000136A0F13003DBB2092BF3D96C2801D0D4
:104FF0004C2803D147F0040730780136002800F030
:10500000BE80602803D9A0F12003DBB200E0034694
:10501000A3F14202162A3ED8DFE802F04030373DC5
:105020003D3D3D3D3D3D3D3D3D433D3D3D0C3D37E1
:105030003D3D3A00D8F800A008F10408002500E042
:1050400001351AF80530002BFAD103E02020FFF7D4
:105050007BFF4D4617F0020F04D105F10109A5426F
:10506000F4D34D465046FFF789FF03E02020FFF7B9
:105070006BFF3D466F1CA542F8D38EE798F8000001
:1050800008F10408FFF760FF87E74FF00A0C0AE019
:105090004FF0100C07E0FFF757FF7EE74FF0020CD0
:1050A00001E04FF0080C17F0040F04D0D8F800907E
:1050B00008F104080AE0442B04D1D8F8009008F164
:1050C000040803E0D8F8009008F10408442B06D146
:1050D000B9F1000F03DAC9F1000947F00807002110
:1050E00000E02946B9FBFCFE0CFB1E93DBB2F14647
:1050F000092B06D9782801D1272200E007221A447B
:10510000D3B24D1C04AA1144303301F8103CBEF157
:10511000000F01D00F2DE4D917F0080F06D02B4651
:1051200004AA134401352D2203F8102C17F0010FA7
:1051300002D04FF0300B01E04FF0200BA94603E006
:105140005846FFF701FFD14617F0020F04D109F1CD
:10515000010AA145F4D3D146013D04AB2B4413F819
:10516000100CFFF7F1FE002DF6D103E02020FFF731
:10517000EBFEA94609F10105A145F7D30DE705B0FE
:10518000BDE8F08F38B50446184821786278FFF7FB
:105190008FFEA37A042B0CD106E06319144899788A
:1051A000FFF786FE013500E000256378AB42F4DCB2
:1051B00017E043B1002511E063190E489978FFF715
:1051C00077FE013500E000256378AB42F4DC08E0AF
:1051D000631909489978FFF76BFE01356378AB4294
:1051E000F6DC0648FFF764FE38BD00BF2C850008DA
:1051F0003C850008448500084C850008FC890008AF
:10520000002070470B4B19684B1C0B4A134003D509
:10521000013B63F01F030133084A1268934206D032
:10522000074A42F82100034A1360002070474FF0FC
:10523000FF307047640A00201F000080680A0020C9
:105240008C0A00200A4B1B680A4A126893420DD050
:10525000094A52F8232002700133084A134003D54B
:10526000013B63F01F030133014A136000207047C4
:10527000680A0020640A00208C0A00201F000080B9
:10528000054B1A68054B1B689A4202D14FF0FF305C
:1052900070470020704700BF640A0020680A0020A1
:1052A00008B50346014611F8020B5A7800F0EAFBF4
:1052B0000028FFD008BD00BF08B50346014611F81D
:1052C000020B5A7800F0DEFB0028FFD008BD00BFBB
:1052D00008B50346014611F8020B5A7800F0D2FBDC
:1052E0000028FFD008BD00BF08B50346014611F8ED
:1052F000020B5A7800F0C6FB0028FFD008BD00BFA3
:1053000008B50346014611F8020B5A7800F08CFBF1
:105310000028FFD008BD00BF08B50346014611F8BC
:10532000020B5A7800F0AEFB0028FFD008BD00BF8A
:1053300008B54F4B1B783BB9FFF7A2FF002840F0A0
:105340008F804C48FFF77EFF4A4B1B7803EB8302AC
:1053500003EB4201484A0A449278042A71D8DFE8F4
:1053600002F0031F2F3F6100444951F8232001320E
:1053700041F823203E490978012964D8012A64DDD7
:1053800000213E4A42F8231003EB830203EB420361
:105390003B481844FFF784FF034600285ED061E0D5
:1053A000334A1278012A52D803EB830203EB4203FB
:1053B00033481844FFF780FF034600284ED052E0E0
:1053C0002B4A1278012A44D803EB830203EB4203F1
:1053D0002B481844FFF77CFF034600283ED043E0EB
:1053E000234A127872B903EB830003EB400324488D
:1053F0001844FFF785FF0346002836D101211C4AD7
:1054000011702BE0012A26D103EB830203EB420348
:105410001B481844FFF768FF034638BB0021144AB5
:1054200011701BE0124A1278012A16D803EB83028E
:1054300003EB420312481844FFF76EFF034668B1BE
:1054400015E000230AE0002308E0002306E0002323
:1054500004E0002302E0002300E00023184608BD1A
:10546000002008BD08BD08BD08BD08BD08BD08BDB9
:10547000610A0020600A00203C0000206C0A002025
:105480003400002038B505460C4602204FF4165172
:10549000FFF72AFC0220FFF739FC48BB164B1B68BC
:1054A0001C4408202946FFF74FFC07E01348FFF78C
:1054B000FFFC1348FFF7FCFCFFF7DAFC0E4B1B6800
:1054C0009C4203D90F4B1B68002BEFD10D4B186882
:1054D00078B9002302E00022EA540133022BFADDFE
:1054E000032302E04022EA540133062BFADD38BDE3
:1054F00038BD012038BD00BF300B0020808A000875
:10550000548500087402002010B4802803D10022C2
:10551000174B1A601EE0164B1B68062B08DC154A59
:10552000D05417E0134CE45C2244D2B2013301E0C2
:1055300001230022062BF5DD504010F07F0F06D02E
:10554000022011E00B4AD25CCA54013300E0002370
:10555000072BF7DD064B1B68082B04DC0133044ADC
:105560001360002000E003205DF8044B704700BF8B
:105570000C0B0020100B0020F8B506460F4B1B68E3
:10558000002B11DD0D4A1368013B136008203146E2
:10559000FFF7DAFB0020F8BD305D3946FFF7B4FFB6
:1055A000054628B9013401E00F460024072CF3DD3D
:1055B00008203146FFF7C8FB2846F8BD74020020DA
:1055C000C378403B3F2B0ADCC378403B13F13F0FCD
:1055D00002DBC078403870476FF03F0070474020D2
:1055E000704700BF0379403B3F2B0ADC0379403B07
:1055F00013F13F0F02DB0079403870476FF03F0036
:1056000070474020704700BF4379403B3F2B0ADC86
:105610004379403B13F13F0F02DB4079403870473C
:105620006FF03F0070474020704700BF8379403BD8
:105630003F2B0ADC8379403B13F13F0F02DB80797B
:10564000403870476FF03F0070474020704700BF00
:10565000F0B583B00446837803F00303032B05D031
:10566000837813F0010F03D1002502E0002500E04C
:10567000012515B17748FFF71BFC7748FFF718FCA9
:1056800015B17648FFF714FCA37803F00303032B4E
:1056900005D0A37813F0020F03D1002502E0002506
:1056A00000E0012515B16B48FFF702FC6C48FFF7DD
:1056B000FFFB15B16948FFF7FBFBA37803F00C0370
:1056C0000C2B05D0A37813F0040F03D1002502E0C2
:1056D000002500E0012515B15E48FFF7E9FB6148B0
:1056E000FFF7E6FB15B15D48FFF7E2FBA37803F097
:1056F0000C030C2B05D0A37813F0080F03D1002561
:1057000002E0002500E0012515B15248FFF7D0FB6B
:105710005548FFF7CDFB15B15048FFF7C9FB63783B
:1057200013F0010502D04B48FFF7C2FB4F48FFF7CB
:10573000BFFB15B14948FFF7BBFBA37803F020037B
:1057400003F0FF0513B14348FFF7B2FB4848FFF7EA
:10575000AFFB15B14148FFF7ABFBA37803F0400363
:1057600003F0FF0513B13B48FFF7A2FB4148FFF7E9
:105770009FFB15B13948FFF79BFBA37803F010039B
:1057800003F0FF0513B13348FFF792FB3A48FFF7E8
:105790008FFB15B13148FFF78BFB637803F00203F1
:1057A00003F0FF0513B12B48FFF782FB3348FFF7E7
:1057B0007FFB15B12948FFF77BFB637803F00403F7
:1057C00003F0FF0513B12348FFF772FB2C48FFF7E6
:1057D0006FFB15B12148FFF76BFB637803F00803FB
:1057E00003F0FF0513B11B48FFF762FB2548FFF7E5
:1057F0005FFB15B11948FFF75BFB637803F01003FB
:1058000003F0FF0513B11348FFF752FB1E48FFF7E3
:105810004FFB15B11148FFF74BFB1C48FFF748FB46
:105820002046FFF7CDFE07462046FFF7DBFE064683
:105830002046FFF7E9FE05462046FFF7F7FE0090F9
:105840001348394632462B46FFF732FB002003B09F
:10585000F0BD00BF58850008688500087085000805
:1058600080850008888500089085000898850008D4
:10587000A0850008A4850008AC850008B485000850
:10588000BC850008C4850008CC850008FC89000898
:10589000D485000808B50020FFF7A6F908BD00BFB1
:1058A00008B50120FFF7A0F908BD00BF08B500202A
:1058B000FFF7D0F9044A136818441060002001462D
:1058C000FFF7DCF9002008BD180B002008B5012007
:1058D000FFF7C0F9044A1368184410600120002142
:1058E000FFF7CCF9002008BD1C0B0020014B186805
:1058F000704700BF180B0020014B1868704700BFAD
:105900001C0B00200020014B18607047180B002072
:105910000020014B186070471C0B002008B504489C
:10592000044B1968044B1A68FFF7C2FA002008BD3F
:10593000EC850008180B00201C0B002030B585B04A
:10594000054643880F4CA4FB0324E408B4F57A7F92
:1059500008D30278009201930B480C4920220C4B8B
:10596000FFF7C6FA2A79230A43EA82038DF80C303E
:105970008DF80D40287803A9022200F039F805B00F
:1059800030BD00BFCDCCCCCC08860008FC8500081B
:105990000C86000810B504460F482178FFF788FAF6
:1059A0002379032B12D8DFE803F002060A0E0B4816
:1059B000FFF77EFA0AE00A48FFF77AFA06E009489C
:1059C000FFF776FA02E00848FFF772FA07486188A5
:1059D000FFF76EFA10BD00BF24860008308600086D
:1059E00034860008388600083C8600084086000897
:1059F000F0B585B006460F461446FFF791F8054608
:105A000048B13B78009601940293044804491B2254
:105A1000044BFFF76DFA284605B0F0BD0886000874
:105A2000D48700085C860008F0B585B006460F46AE
:105A30001546FFF789F804460C4B1B7813F0FF0F4F
:105A400005D10B480B4920220B4BFFF751FA4CB103
:105A50003B78009601950293084806492122084B9D
:105A6000FFF746FA204605B0F0BD00BF79020020DE
:105A700094860008E08700089C86000808860008D5
:105A8000BC860008F0B585B006460F461546FFF700
:105A900075F804460C4B1B7813F0FF0F05D10B482B
:105AA0000B492B220B4BFFF723FA4CB13B780096A6
:105AB00001950293084806492C22084BFFF718FA73
:105AC000204605B0F0BD00BF780200209486000893
:105AD0004C8600082C870008088600084C870008C0
