:020000040800F2
:1000000000500020A1A100083561000837610008F8
:10001000396100083B6100083D61000800000000F4
:100020000000000000000000000000003F61000828
:1000300041610008000000004361000845610008BC
:10004000E9A10008E9A10008E9A10008E9A1000868
:10005000E9A10008E9A10008E9A10008E9A1000858
:10006000E9A10008E9A10008E9A10008E9A1000848
:10007000E9A100086D6100089D610008AD610008FC
:10008000E9A100085D610008E9A10008E9A10008F4
:10009000E9A10008E9A10008E9A10008E9A1000818
:1000A000E9A10008BD8F0008E9A10008E9A1000846
:1000B000CD8F0008E9A10008E9A10008E9A1000826
:1000C000E9A10008E9A10008E9A10008E9A10008E8
:1000D000E9A10008E9A100088D6100087D61000820
:1000E000E9A10008E9A10008E9A10008000000005A
:1000F0000000000000000000000000000000000000
:0C01000000000000000000005FF808F1A3
:1001100010B5054C237833B9044B13B10448AFF341
:1001200000800123237010BDF002002000000000B9
:1001300068B9000808B5034B1BB103490348AFF386
:10014000008008BD00000000F402002068B900082B
:1001500081F0004102E000BF83F0004330B54FEA78
:1001600041044FEA430594EA050F08BF90EA020FE5
:100170001FBF54EA000C55EA020C7FEA645C7FEA78
:10018000655C00F0E2804FEA5454D4EB5555B8BF9B
:100190006D420CDD2C4480EA020281EA030382EA0C
:1001A000000083EA010180EA020281EA0303362D9E
:1001B00088BF30BD11F0004F4FEA01314FF4801C71
:1001C0004CEA113102D0404261EB410113F0004F83
:1001D0004FEA03334CEA133302D0524263EB43033A
:1001E00094EA050F00F0A780A4F10104D5F1200ED8
:1001F0000DDB02FA0EFC22FA05F2801841F1000133
:1002000003FA0EF2801843FA05F359410EE0A5F106
:1002100020050EF1200E012A03FA0EFC28BF4CF037
:10022000020C43FA05F3C01851EBE37101F00045ED
:1002300007D54FF0000EDCF1000C7EEB00006EEBFA
:100240000101B1F5801F1BD3B1F5001F0CD3490884
:100250005FEA30004FEA3C0C04F101044FEA4452DB
:1002600012F5800F80F09A80BCF1004F08BF5FEA62
:10027000500C50F1000041EB045141EA050130BD42
:100280005FEA4C0C404141EB010111F4801FA4F1E5
:100290000104E9D191F0000F04BF01460020B1FA3A
:1002A00081F308BF2033A3F10B03B3F120020CDA72
:1002B0000C3208DD02F1140CC2F10C0201FA0CF050
:1002C00021FA02F10CE002F11402D8BFC2F1200CB5
:1002D00001FA02F120FA0CFCDCBF41EA0C0190406B
:1002E000E41AA2BF01EB0451294330BD6FEA0404B4
:1002F0001F3C1CDA0C340EDC04F11404C4F120029F
:1003000020FA04F001FA02F340EA030021FA04F3B0
:1003100045EA030130BDC4F10C04C4F1200220FA07
:1003200002F001FA04F340EA0300294630BD21FA45
:1003300004F0294630BD94F0000F83F4801306BF0B
:1003400081F480110134013D4EE77FEA645C18BFFF
:100350007FEA655C29D094EA050F08BF90EA020F96
:1003600005D054EA000C04BF1946104630BD91EA8E
:10037000030F1EBF0021002030BD5FEA545C05D191
:100380004000494128BF41F0004130BD14F58004D0
:100390003CBF01F5801130BD01F0004545F0FE4144
:1003A00041F470014FF0000030BD7FEA645C1ABF79
:1003B000194610467FEA655C1CBF0B46024650EAB0
:1003C000013406BF52EA033591EA030F41F40021DC
:1003D00030BD00BF90F0000F04BF0021704730B562
:1003E0004FF4806404F132044FF000054FF0000137
:1003F00050E700BF90F0000F04BF0021704730B5F8
:100400004FF4806404F1320410F0004548BF4042CC
:100410004FF000013EE700BF42004FEAE2014FEA21
:1004200031014FEA02701FBF12F07F4393F07F4FFC
:1004300081F06051704732F07F4208BF704793F0FF
:100440007F4F04BF41F40021704730B54FF4607412
:1004500001F0004521F000411CE700BF50EA010215
:1004600008BF704730B54FF000050AE050EA0102BE
:1004700008BF704730B511F0004502D5404261EB2E
:1004800041014FF4806404F132045FEA915C3FF46F
:10049000D8AE4FF003025FEADC0C18BF03325FEA0C
:1004A000DC0C18BF033202EBDC02C2F1200300FABD
:1004B00003FC20FA02F001FA03FE40EA0E0021FAE2
:1004C00002F11444BDE600BF70B54FF0FF0C4CF4D0
:1004D000E06C1CEA11541DBF1CEA135594EA0C0F82
:1004E00095EA0C0F00F0DEF82C4481EA030621EABD
:1004F0004C5123EA4C5350EA013518BF52EA0335F8
:1005000041F4801143F4801338D0A0FB02CE4FF0A9
:100510000005E1FB02E506F00042E0FB03E54FF0D9
:100520000006E1FB03569CF0000F18BF4EF0010ED1
:10053000A4F1FF04B6F5007F64F5407404D25FEACD
:100540004E0E6D4146EB060642EAC62141EA555180
:100550004FEAC52040EA5E504FEACE2EB4F1FD0CC2
:1005600088BFBCF5E06F1ED8BEF1004F08BF5FEA40
:10057000500E50F1000041EB045170BD06F00046F2
:1005800046EA010140EA020081EA0301B4EB5C049F
:10059000C2BFD4EB0C0541EA045170BD41F4801197
:1005A0004FF0000E013C00F3AB8014F1360FDEBFBC
:1005B000002001F0004170BDC4F10004203C35DA98
:1005C0000C341BDC04F11404C4F1200500FA05F31B
:1005D00020FA04F001FA05F240EA020001F00042BC
:1005E00021F0004110EBD37021FA04F642EB060132
:1005F0005EEA430E08BF20EAD37070BDC4F10C045C
:10060000C4F1200500FA04F320FA05F001FA04F21F
:1006100040EA020001F0004110EBD37041F100010B
:100620005EEA430E08BF20EAD37070BDC4F1200516
:1006300000FA05F24EEA020E20FA04F301FA05F27E
:1006400043EA020321FA04F001F0004121FA04F226
:1006500020EA020000EBD3705EEA430E08BF20EAF6
:10066000D37070BD94F0000F0FD101F00046400030
:1006700041EB010111F4801F08BF013CF7D041EAB2
:10068000060195F0000F18BF704703F000465200B6
:1006900043EB030313F4801F08BF013DF7D043EA87
:1006A0000603704794EA0C0F0CEA135518BF95EA3D
:1006B0000C0F0CD050EA410618BF52EA4306D1D1C4
:1006C00081EA030101F000414FF0000070BD50EAE3
:1006D000410606BF1046194652EA430619D094EA6D
:1006E0000C0F02D150EA013613D195EA0C0F05D157
:1006F00052EA03361CBF104619460AD181EA0301AB
:1007000001F0004141F0FE4141F470014FF0000062
:1007100070BD41F0FE4141F4780170BD70B54FF0FD
:10072000FF0C4CF4E06C1CEA11541DBF1CEA13557D
:1007300094EA0C0F95EA0C0F00F0A7F8A4EB05045F
:1007400081EA030E52EA03354FEA013100F0888056
:100750004FEA03334FF0805545EA131343EA12631F
:100760004FEA022245EA111545EA10654FEA0026D4
:100770000EF000419D4208BF964244F1FD0404F58D
:10078000407402D25B084FEA3202B61A65EB0305E9
:100790005B084FEA32024FF480104FF4002CB6EBA6
:1007A000020E75EB030E22BFB61A754640EA0C0026
:1007B0005B084FEA3202B6EB020E75EB030E22BF66
:1007C000B61A754640EA5C005B084FEA3202B6EBA7
:1007D000020E75EB030E22BFB61A754640EA9C0066
:1007E0005B084FEA3202B6EB020E75EB030E22BF36
:1007F000B61A754640EADC0055EA060E18D04FEAF4
:10080000051545EA16754FEA06164FEAC30343EA93
:1008100052734FEAC2025FEA1C1CC0D111F4801F60
:100820000BD141EA00014FF000004FF0004CB6E759
:1008300011F4801F04BF01430020B4F1FD0C88BFF8
:10084000BCF5E06F3FF6AFAEB5EB030C04BFB6EB03
:10085000020C5FEA500C50F1000041EB045170BDF6
:100860000EF0004E4EEA113114EB5C04C2BFD4EB23
:100870000C0541EA045170BD41F480114FF0000EA7
:10088000013C90E645EA060E8DE60CEA135594EA23
:100890000C0F08BF95EA0C0F3FF43BAF94EA0C0F26
:1008A0000AD150EA01347FF434AF95EA0C0F7FF49B
:1008B00025AF104619462CE795EA0C0F06D152EAEF
:1008C00003353FF4FDAE1046194622E750EA4106D3
:1008D00018BF52EA43067FF4C5AE50EA41047FF4E4
:1008E0000DAF52EA43057FF4EBAE12E74FF0FF3C49
:1008F00006E000BF4FF0010C02E000BF4FF0010C1A
:100900004DF804CD4FEA410C7FEA6C5C4FEA430C92
:1009100018BF7FEA6C5C1BD001B050EA410C0CBFE1
:1009200052EA430C91EA030F02BF90EA020F002043
:10093000704710F1000F91EA030F58BF994208BFAA
:1009400090422CBFD8176FEAE37040F00100704767
:100950004FEA410C7FEA6C5C02D150EA013C07D1BE
:100960004FEA430C7FEA6C5CD6D152EA033CD3D009
:100970005DF8040B704700BF8446104662468C4603
:100980001946634600E000BF01B5FFF7B7FF002836
:1009900048BF10F1000F01BD4DF808EDFFF7F4FF5F
:1009A0000CBF012000205DF808FB00BF4DF808EDEA
:1009B000FFF7EAFF34BF012000205DF808FB00BF0D
:1009C0004DF808EDFFF7E0FF94BF012000205DF82F
:1009D00008FB00BF4DF808EDFFF7CEFF94BF0120E4
:1009E00000205DF808FB00BF4DF808EDFFF7C4FFDD
:1009F00034BF012000205DF808FB00BF4FEA410230
:100A000012F5001215D211D56FF47873B3EB625260
:100A100012D94FEAC12343F0004343EA505311F087
:100A2000004F23FA02F018BF404270474FF0000019
:100A3000704750EA013005D111F0004008BF6FF057
:100A4000004070474FF00000704700BF4FEA410C74
:100A50007FEA6C5C02D150EA013C0AD14FEA430CB8
:100A60007FEA6C5C02D152EA033C02D14FF00000F5
:100A700070474FF0010070472DE9F04F85B0814677
:100A80000D4614469B460E9F0F9E9DF840A09DF874
:100A90004480D1E90023CDE90223A149D1E9000135
:100AA000FFF77AFFB8B1D5E902239D49D1E90201E8
:100AB000FFF772FF78B1D4E900239A49D1E9000128
:100AC000FFF76AFF38B1D4E902239649D1E9020160
:100AD000FFF762FFA0B9944B01221A709049DDE93B
:100AE0000223C1E90023D5E90223C1E90223D4E9A5
:100AF00000238C49C1E90023D4E90223C1E9022380
:100B0000B8F1030F0BD8DFE808F002717A83DBE954
:100B10000023D4E90001FFF71FFBCDE90001824B60
:100B20001B783BB1814BDDE90012C3E900127E4B1B
:100B300000221A70BAF1000F00F0D880DDE900AB96
:100B400052465B467949D1E90001FFF705FB0446AF
:100B500021F000450022764B50465946FFF744FFEE
:100B6000002879D00022724B20462946FFF728FF43
:100B7000002856D000226E4B20462946FFF7CEFDB6
:100B800000226C4BFFF7E8FA04460D463A4633461E
:100B9000FFF79AFC02460B4620462946FFF794FCD5
:100BA00002460B465AA1D1E90001FFF7D5FA3A46B1
:100BB0003346FFF7D3FAC9E9000155A3D3E900236F
:100BC000FFF7FEFE20B152A3D3E90023C9E90023B9
:100BD0003A463346D9E90001FFF706FF002874D0F2
:100BE0003A463346C9E9002300241FE0D4E9002334
:100BF000DBE90001FFF7B0FACDE900018FE7DBE99F
:100C00000223D4E90201FFF7A7FACDE9000186E744
:100C1000D4E90223DBE90201FFF79EFACDE90001E6
:100C20007DE73A463346C9E9002301240022424BBE
:100C300038463146FFF7CEFE00284AD000223F4B0F
:100C4000DDE90001FFF7BCFE00285BD00022002395
:100C5000C9E90023032455E006F100480022344B83
:100C6000DDE90001FFF75AFD2BA3D3E90023FFF7CD
:100C700073FA04460D4602460B4638464146FFF7D6
:100C800023FC02460B4620462946FFF71DFC3A4648
:100C90003346FFF763FAC9E900011DA3D3E9002336
:100CA000FFF78EFE20B11AA3D3E90023C9E9002380
:100CB0003A463346D9E90001FFF796FE38B13A4685
:100CC0003346C9E900230224B0E70024AEE702243A
:100CD000ACE700221A4BDDE90001FFF771FE88B195
:100CE00000220023C9E9002303240BE00022154B56
:100CF000DDE90001FFF764FE30BB3A463346C9E93F
:100D000000230124204605B0BDE8F08FAFF300803A
:100D10000000000000E89C40666666666666F23F7A
:100D2000580400207804002000000020A0030020C8
:100D300000408F400000F03F0040AF4000005440B2
:100D4000000049400000244000220023C9E900239C
:100D50000324D7E710B402EBD2735B105C4221444A
:100D6000401A824203DC90FBF2F302FB13000028DE
:100D700002DB204410BC70470028B8BF4042101A64
:100D8000F7E70000002309E0590019444800054A2C
:100D9000024400215180032111710133062BF3DD40
:100DA000002070473C000020034B0020D881032224
:100DB0001A7498829A7570473C000020F0B40024A1
:100DC00007E0E300C5180B44D3E90067C5E90067F5
:100DD00001349442F5DBF0BC7047000010B50446C6
:100DE000012819D018B102282AD000202DE04FF494
:100DF0008051012008F03AF838B1144B01221A77DB
:100E000041F288325A8320461FE0104B03221A77A2
:100E100000225A83022018E00421012008F026F85D
:100E200038B10A4B02221A7741F288325A8320469F
:100E30000BE0064B03221A7700225A83022004E0BB
:100E4000024B03221A7700225A8310BD3C00002077
:100E5000012920D010B504460221012008F006F82F
:100E600010B11F4B01221A701D4B1B78C3B984EAC5
:100E7000E472A2EBE4721B4B1B689A421ED0002C5A
:100E800028DD194B022283F82820174B41F28832C3
:100E9000DA84002010BD134B00221A600220704734
:100EA0000221012007F0E2FF0028E0D10D4A13687B
:100EB000013313600A4B00221A70D8E70A4A032351
:100EC00082F828300023D384064A1360044A137042
:100ED0000120DFE7044B012283F82820D5E700BF7B
:100EE000D4030020880400203C00002008B501291C
:100EF0000AD09F4A1278042A10D8DFE812F01100B5
:100F0000670092000D0145010223994A1370994A26
:100F10001170002298490A6098490A70184608BD65
:100F2000022821D00428F9D1924B1B7833B1944B7D
:100F30001A68914B1A608F4B00221A70904B1B68F5
:100F40008D4A12689B1A41F65832934235D98D4B1F
:100F5000032283F8222000221A84854B04221A706F
:100F60000123844A1370D9E7824B1B7833B1844B39
:100F70001A68814B1A607F4B00221A70804B1B68E5
:100F80007D4A12689B1A40F6AC5293420CD97D4BB5
:100F9000032283F8222000221A84754B02221A7041
:100FA0000123744A1370B9E7764B012283F822209B
:100FB00040F6B8321A840023B0E7724B012283F85E
:100FC000222040F6B8321A840023A7E70228A5D1D0
:100FD000684B1B7833B16A4B1A68674B1A60654BD4
:100FE00000221A70664B1B68634A12689B1A41F212
:100FF000040293420CD9634B032283F8222000227F
:101000001A845B4B02221A7001235A4A137085E737
:101010005C4B012283F8222040F6B8321A84002368
:101020007CE701281BD090B303287FF477AF102111
:10103000022007F01BFF40B1524B022283F822200E
:1010400040F6B8321A84002368E74E4A032382F838
:10105000223000211184464A137001235EE71021DB
:10106000012007F003FF40B1464B022283F8222003
:1010700040F6B8321A84002350E7424B032283F82B
:10108000222000221A840123394A137046E73B4B81
:101090001B78F3B1374B1B7833B1394B1A68364B99
:1010A0001A60344B00221A70354B1B68324A1268A2
:1010B0009B1A502B27D9334B032283F8222000227E
:1010C0001A842B4B1A7001232A490B702B490A7082
:1010D00024E71021012007F0C9FE40B1294B02226C
:1010E00083F8222040F6B8321A84002316E7234BF7
:1010F00001221A70234B022283F8222040F6B832D4
:101100001A8400230AE71F4B022283F8222040F6AC
:10111000B8321A84002301E702287FF4FFAE154B92
:101120001B7833B1164B1A68134B1A60114B00220F
:101130001A70134B1B68104A12689B1A40F2DC525B
:1011400093420CD90F4B032283F8222000221A84E9
:10115000074B02221A700123064A1370DEE6094B80
:10116000012283F8222040F6B8321A840023D5E603
:101170000500002006000020C4040020C004002058
:10118000100C00203C00002002287FF4C7AE144B56
:101190001B7833B1134B1A68134B1A60104B0022A3
:1011A0001A70104B1B68104A12689B1A40F6C41242
:1011B000934208D80D4B022283F8222040F6B83221
:1011C0001A840023AAE6094B032283F82220002276
:1011D0001A84074B02221A700123014A13709DE6FC
:1011E00006000020100C0020C40400203C00002059
:1011F0000500002070B50D469DF810600599012985
:1012000007D045490968032918D8DFE801F00E190D
:10121000495B0024414B1C70414B1C700846FFF792
:1012200065FE3D4B1C60022408E03E4A537843F0C3
:10123000340353700131384B19600024204670BDCF
:1012400036490978012910D03AB100210120FFF771
:101250004DFE324B18700024F0E700210846FFF7DE
:1012600045FE2E4B18700024E8E762B123B12D4AE9
:10127000537823F02003537056B12A4A537823F051
:101280001003537004E0274A537803F0CB035370E4
:101290000024224B1C70204A136801331360CDE7F1
:1012A0001E4B1B78012B06D100241C4B1C700131F6
:1012B000194B1960C2E70021FFF718FE174B187091
:1012C0000024BBE716490978012900D06DB9A2B105
:1012D00023B1144A537823F02003537096B1114A76
:1012E000537823F0100353700CE000212846FFF7D9
:1012F000AFFD0B4B18700024A0E70A4A537803F0A7
:10130000CB0353700023064A1370044A1370024A39
:101310001360012492E700BFC403002021030020D2
:10132000CE0400202C0000202DE9F04383B00446B9
:101330000E4603287FD8DFE800F00221405F89498C
:101340004B7B887B03EB0023C87B03EB0043097CCA
:1013500003EB016384490D681D44002E6ED0012EFD
:1013600003D0022E06D0002769E05B420B60002705
:101370003D4664E07D4B1F68EF1B60E079494B7C84
:10138000887C03EB0023C87C03EB0043097D03EB5F
:10139000016375494D681D44002E73D0012E03D0A2
:1013A000022E06D000274AE05B424B6000273D46F4
:1013B00045E06E4B5F68EF1B41E06A498B78C87867
:1013C00003EB0023087903EB0043497903EB016346
:1013D00065498D681D44002E56D0012E03D0022E83
:1013E00006D000272BE05B428B6000273D4626E0BD
:1013F0005E4B9F68EF1B22E05A498B79C87903EB5B
:101400000023087A03EB0043497A03EB0163564952
:10141000CD681D44002E39D0012E03D0022E06D0F7
:1014200000270CE05B42CB6000273D4607E04F4BB6
:10143000DF68EF1B03E000273D4600E00027022E97
:1014400026D04A4B43F82450494B1968494A42F880
:1014500024101A68484BA3FB02135B09642101FBAB
:101460001323092B08D8012E06D0444B1B68022BEE
:1014700054DC0133414A1360022E5ED0284603B08B
:10148000BDE8F0830027DAE70027D8E70027D6E792
:1014900040F2DB539A421EDD1046FEF7ABFF0022FE
:1014A000374BFFF73BF980468946314B1868314B83
:1014B00053F82430C01AFEF78DFF02460B46404613
:1014C0004946FFF701F8FFF799FA844677B9274BA9
:1014D00043F82450B8E7264B1B68264A52F82420CC
:1014E0009B1A4FF4967C0CFB03FCEFE787EAE7734B
:1014F000A3EBE77363450DDD00231C4A42F824305B
:1015000004E0204A1A44092151700133072BF8DD09
:10151000002799E7154B43F8245095E71348836853
:1015200042680168CDF804C0C0680090164807F012
:10153000BDFD124B00221A609EE70D4B1A680E4B40
:10154000A3FB02135B09642101FB1323092B01D9BF
:101550003D4693E72B463A4621460C4807F0A6FD48
:101560003D468BE7680000200C0300203804002073
:10157000100C0020280400201F85EB51BC03002024
:1015800000001C40300000206CBA0008A4BA00081B
:101590002DE9F04F89B006468A46CDE90423DDF8EF
:1015A0004880149C9DF85450AB1EDBB2012B1DD912
:1015B000D4E90223D8E90201FEF7CEFD029021F022
:1015C0000047D4E90423CDE90023A44B1A68A44BB7
:1015D000A3FB02135B09642101FB1323092B1FD911
:1015E000032D4CD8DFE805F033647D94D8E900235F
:1015F000CDE90023D4E90012CDE902120022002334
:10160000D4E90201FEF760FFDDE90223FEF7A4FD45
:10161000DDE90023FEF7A2FD029021F00047D0E7AC
:10162000DDE9000108F02AFECDE9060102983946FD
:1016300008F024FEFFF7E2F98146DDE90601FFF735
:10164000DDF94A460146874807F030FDC8E7D4E98E
:101650000223D8E90201FEF77FFD04460D46002271
:101660000023FFF7A3F9002869D1002200232046B8
:101670002946FFF7B9F9002864D04FF0000B00228B
:10168000794B02983946FFF7AFF9002800F06981DD
:10169000BBF1010F00F0C180BBF1000F67D0BBF1BF
:1016A000020F00F026810024A1462546A04672E1E3
:1016B000D4E90223D8E90201FEF74EFD04460D46A7
:1016C00000220023FFF772F900283ED100220023F8
:1016D00020462946FFF788F9002839D04FF0010B42
:1016E000CDE7D4E90023D8E90001FEF735FD044633
:1016F0000D4600220023FFF759F960BB00220023AA
:1017000020462946FFF770F940B34FF0010BB6E7CA
:10171000D4E90023D8E90001FEF71EFD04460D467A
:1017200000220023FFF742F9D8B900220023204607
:101730002946FFF759F9B8B14FF0000B9FE74FF07A
:10174000010B9CE74FF0020B99E74FF0000B96E777
:101750004FF0020B93E74FF0000B90E74FF0020BB6
:101760008DE74FF0010B8AE74FF0020B87E7DDF8BA
:10177000088042463B4640463946FEF7EFFC0446A9
:101780000D460022394BFFF71BF978B90022384B80
:1017900020462946FFF71EF950BB0022354B404634
:1017A0003946FEF791FE0546884602E00025DFF83F
:1017B000CC8000220023DDE90001FFF715F968B1B4
:1017C00000222D4BDDE90001FEF77EFE02460B46AE
:1017D00028464146FEF7C2FC054688460022002303
:1017E000DDE90001FFF7E2F830B90024A146D2E0BC
:1017F0000025DFF87C80DCE700221F4BDDE90001DB
:10180000FEF762FE02460B4628464146FEF7A4FC60
:10181000054688460024A146BDE0DDF80880424622
:101820003B4640463946FEF799FC04460D460022E9
:101830000E4BFFF7C5F818BB00220D4B204629467A
:10184000FFF7C8F8002840D100220A4B404639462D
:10185000FEF73AFE0446894615E000BF100C002052
:101860001F85EB5104BC00080000144000005940E3
:1018700000C082400000084000405F4000C062405D
:101880000024DFF8549200220023DDE90001FFF775
:101890008DF8F0B900220023DDE90001FFF7A4F87C
:1018A000002800F0E1800022854BDDE90001FEF711
:1018B0000BFE024621F0004320464946FEF74CFC51
:1018C000044689460025A84665E00024DFF80C920E
:1018D000D9E700227A4BDDE90001FEF7F5FD02466B
:1018E00021F0004320464946FEF738FC044689466D
:1018F000D0E700220023DDE9004520462946FFF716
:1019000073F880B16AA3D3E9002320462946FEF785
:10191000DBFD69A3D3E90023FEF720FC05468846DA
:101920000024A14637E000220023DDE90001FFF793
:101930003DF820B90024A1462546A0462BE05CA333
:10194000D3E90023DDE90001FEF7BEFD5AA3D3E988
:101950000023FEF703FC044621F000490025A846B9
:1019600019E000220023DDE9004520462946FFF763
:101970003BF800285AD04EA3D3E90023204629463D
:10198000FEF7A2FD4CA3D3E90023FEF7E7FB0546D3
:1019900088460024A14600224A4B284628F00041F0
:1019A000FFF722F850B10022002328464146FFF7F6
:1019B0001BF800285BD00025DFF808810022414B8E
:1019C000204629F00041FFF70FF850B10022002314
:1019D00020464946FFF708F800284CD00024DFF8DD
:1019E000E4900022384BDDE90401FEF797FECDE9D3
:1019F00004012A464346FEF767FDC6E90001224678
:101A00004B46DDE90401FEF75FFDCAE900012F4BFB
:101A10001A682F4BA3FB02135B09642101FB1323FC
:101A2000092B2CD9002009B0BDE8F08F002200233B
:101A3000DDE90001FEF7BAFF20B90024A1462546E2
:101A4000A046A8E71AA3D3E90023DDE90001FEF7C9
:101A50003BFD19A3D3E90023FEF780FB044621F0E8
:101A600000490025A84696E70025A84693E70025EB
:101A7000DFF86C80A2E70024DFF86490B1E7DDE9CD
:101A8000000108F0FBFB04460D460298394608F0B9
:101A9000F5FBFEF7B3FF064620462946FEF7AEFFEC
:101AA0005B46324601460B4807F000FBBAE700BF31
:101AB0000000000000C062400000000000C0524072
:101AC00000405F4000908A4000408F40100C002092
:101AD0001F85EB5124BC000800C0624000C082405A
:101AE00000908AC010B50221002007F0BFF940B174
:101AF000084B00241C8103229A7207F09FFC2046A9
:101B000010BD044B4FF461721A8101229A724FF09A
:101B1000FF30F5E73C00002010B50121002007F060
:101B2000A5F940B1084B00245C8003221A7107F02C
:101B30007FFC204610BD044B4FF461725A80012295
:101B40001A714FF0FF30F5E73C0000200000000064
:101B50002DE9F04FB9B082460F46A94C48222146E4
:101B600026A809F0F5FE902204F1480102A809F028
:101B7000EFFE00240094019400E00134082C1EDCE8
:101B80009BA3D3E9002338A901EBC40555E936012D
:101B9000FEF79AFC45E93601022CEEDD002099495A
:101BA00038AB03EBC40343E9360104F1090338AA57
:101BB00002EBC3030020944943E93601DDE71FB976
:101BC00002230193009CBDE0012F06D0022FF9D122
:101BD0000123009302230193F4E701230193F1E72A
:101BE00007F01AFC0646B6E007F01CFC0646B2E019
:101BF000002DB8BF6D42C5F50065C2E004EBC4031B
:101C00001A440CEBC20252E9368900284EDD4046E8
:101C1000494608F033FBFEF7F1FE04EB44035A009B
:101C20007A4B134458800022002340464946FEF771
:101C3000B3FE80B304EB44035A00744B13440322F5
:101C40001A71734B01221A55002F58D1704B1B7813
:101C5000002B66D06E4B5B78002B40F099804FF0E4
:101C6000000B60E00132082ACFDC80EAE071A1EBD2
:101C7000E07104EBC40313440DF1E00C0CEB83039F
:101C800053F8483C9942B9DA082AEBD14FF00008E2
:101C90004FF00009E6E704EB44035A005B4B1344A2
:101CA00001221A715A4B00221A55CDE74046494687
:101CB00008F0E4FAFEF7A2FE04EB44035A00534B8B
:101CC000134458800022002340464946FEF764FE34
:101CD00050B104EB44035A004C4B134403221A71D5
:101CE0004B4B01221A55AFE704EB44035A00474B14
:101CF000134402221A71464B00221A55A4E7012F01
:101D000008D0022F0FD1424B5B78002B46D04FF00A
:101D1000010B08E03E4B1B78002B3CD04FF0010B31
:101D200001E04FF0000B3B4B1A683B4BA3FB021347
:101D30005B09642101FB1323092B02D88CB3012C0E
:101D400040D00134019BA3424DDD002C3FF448AF4D
:101D5000012C3FF449AF7342C6F30A05C3F30A03EB
:101D600058BF5D425046FEF745FB23A3D3E900234D
:101D7000FEF7AAFB08F082FAFEF740FE002DFFF600
:101D800037AF4FF400622946FEF7E4FF00226AE70E
:101D90004FF0010BC7E74FF0000BC4E74FF0000B0B
:101DA000C1E72846FEF726FB00221C4BFEF78CFB02
:101DB00008F064FAFEF722FE52460146184807F082
:101DC00075F9BEE72846FEF715FB0022134BFEF718
:101DD0007BFB08F053FAFEF711FE5246014611480C
:101DE00007F064F9ADE7584639B0BDE8F08F00BFA1
:101DF000713D0AD7A370ED3F176CC1166CC1164038
:101E000080B9000800B08D4000208C403C000020CC
:101E1000C8030020100C00201F85EB510080C63F36
:101E2000DCBC0008F8BC00082DE9F04F9FB09DF81D
:101E3000A4809DF8A87000258DF81F508DF81E50C5
:101E40008DF81D508DF81C508DF81B50012958D06D
:101E50001E460446002A40F08B809D4B1B78002BC9
:101E600037D19C4B8AA1D1E90001C3E900018AA1C5
:101E7000D1E90001C3E9020189A1D1E90001C3E967
:101E8000040189A1D1E90001C3E906014FF0000A6C
:101E9000DFF850B2C3E908AB00200021C3E90A0112
:101EA000C3E90CABC3E90E0181A1D1E90001C3E98B
:101EB000100181A1D1E90001C3E912010FF2002B49
:101EC000DBE900ABC3E914ABC3E91601804B012287
:101ED0001A70814B9B8A1BB97F4AD289002A4BD04A
:101EE0007D4AD0891844FEF785FA00227B4BFEF725
:101EF000EBFAFEF783FD0646B8F1000F61D100252D
:101F000049E0002102290BDCCA00831800240025C7
:101F1000C3E90045724B1344C3E900450131F1E7C1
:101F200000201FB0BDE8F08FD7E900016C4B03EB38
:101F3000C503C3E900010135022D1BDC735D002BD5
:101F4000F9D0EB00289AD7182344D7E90001C3E958
:101F50000001012DE8D85CA3D3E90023D7E90001F3
:101F6000FEF7B2FA5E4B03EBC503C3E90001E2E7FB
:101F70000025E1E70020D4E70026BDE70DF11B03B3
:101F8000324602212846FFF7CFF91EAB03EB85034B
:101F900043F8580C0135032DF0DD9DF81B300BB9CB
:101FA0000027FAE00023032B07DC1EAA02EB8302C2
:101FB000002142F8581C0133F5E700238DF81B304F
:101FC000EEE7032FECD8DFE807F08F8F02020DF168
:101FD0001F03324602210020FFF7A6F908900DF1F9
:101FE0001E03002202210120FFF79EF909900DF146
:101FF0001D03324602210846FFF796F90A9007AB07
:10200000002202210320FFF78FF90B909DF81E306C
:10201000F3B99DF81C301BBB9DF81F3043BB9DF8E6
:102020001D306BBB9DF81F30002B40F0C9819DF81F
:102030001D30002B40F0C7819DF81C30002B40F074
:10204000C5819DF81E30002BAAD04FF0FF3068E705
:102050000DF11A03002201210846FFF765F9D8E7C0
:102060000DF11A03002201210320FFF75DF9D3E7E8
:102070000DF11A03002201211046FFF755F9CEE7B2
:102080000DF11A03002201210220FFF74DF9C9E7E3
:102090000A5D4647DB93ACBF7362E6D02773E1BFAE
:1020A0000A5D4647DB93AC3F1A3B335EB019DD3F18
:1020B000CD7E4F03344AD33F4A1B3DA0F550CF3F5E
:1020C000CD7E4F03344AD3BF04B6B7E795294B40C2
:1020D000B9030020280300203C0000200000E03F5E
:1020E000100400200000E0BF0DF11F0300220221B8
:1020F0001046FFF719F908900DF11E033246022130
:102100000120FFF711F909900DF11D0300220221B2
:102110000846FFF709F90A9007AB3246022103206F
:10212000FFF702F90B909DF81F30002B40F0518112
:102130009DF81D30002B40F04F819DF81C30002B86
:1021400040F04D819DF81E30002B3FF429AF4FF039
:10215000FF30E6E605EB8702AD4B03EBC203D3E9A4
:1021600000891EAB03EB850353F8580CFEF742F9C8
:1021700002460B4640464946FEF7A6F902460B4684
:102180001EA901EBC70656E90601FDF7E7FF46E980
:1021900006010135032DDDDD0137022F08DC0020AB
:1021A00000211EAB03EBC70343E906010025F1E75D
:1021B000984BD3E90467DDE91C2330463946FDF727
:1021C000CDFFCDE9160188A3D3E900233046394677
:1021D000FEF77AF986A3D3E90023FEF775F986A303
:1021E000D3E9002308F0E0F88146884680A3D3E9CC
:1021F0000023484628F00041FEF7ECFB80B10022A6
:10220000002348464146FEF7E5FB00285CD07AA350
:10221000D3E9002348464146FDF79EFF81468846A4
:102220007C4DD5E90067DDE918AB4846414607F02B
:10223000DDFFCDE9000102460B4650465946FEF748
:1022400043F902460B4630463946FDF787FFCDE994
:102250000401DDE91A674846414608F05DF8024688
:102260000B46CDE9022330463946FEF72DF90246EA
:102270000B46DDE90401FDF771FFCDE91201D5E957
:102280000289DDE9022350465946FEF71DF9024650
:102290000B4640464946FDF75FFF80468946324679
:1022A0003B46DDE90001FEF70FF902460B464046CA
:1022B0004946FDF753FFCDE91401032212A9284630
:1022C000FEF77CFD002516E04BA3D3E9002348462A
:1022D0004146FDF743FF81468846A1E71EAB03EB6D
:1022E000C50647A3D3E9002356E90C01FEF7ECF835
:1022F00046E912010135012DF0DD43A3D3E90023A6
:10230000DDE91601FEF7E0F8CDE910010022424BAD
:1023100008F04AF806460D4602460B46CDE9102362
:1023200000223E4B304625F00041FEF753FB70B1D2
:102330000022002330462946FEF74CFBC8B100229C
:10234000354B30462946FDF707FFCDE91001032242
:102350000CA92046FEF732FD314B1A68314BA3FB26
:1023600002135B09642101FB1323092B0AD9002006
:10237000D7E50022284B30462946FDF7EFFECDE990
:102380001001E4E7D4E90067D4E902890022264B72
:10239000D4E90401FEF798F8FEF730FB0546404605
:1023A0004946FEF72BFB044630463946FEF726FB2E
:1023B0002B46224601461D4806F078FE0020B0E577
:1023C0004FF0FF30ADE54FF0FF30AAE54FF0FF30A2
:1023D000A7E54FF0FF30A4E54FF0FF30A1E54FF047
:1023E000FF309EE5AFF30080682FA1BD84F6F23E7A
:1023F000182D4454FB210940182D4454FB21194049
:10240000D221337F7CD9923FABAAAAAAAAAA6A3F5B
:1024100028030020100400200080764000806640E1
:10242000100C00201F85EB5100005940B0BC000883
:102430002DE9F04F91B004460D46CDE90623D0E9D1
:10244000006732463B467A49D1E90001FEF7A4FA1B
:10245000C0B1D4E902237649D1E90201FEF79CFA22
:1024600080B1D5E900237349D1E90001FEF794FA60
:1024700040B1D5E902236F49D1E90201FEF78CFA98
:10248000002833D16C4B01221A70694BC3E90067F5
:10249000D4E90289C3E90289D5E90001654BC3E9A2
:1024A0000001D5E902ABC3E902AB32463B46FDF77A
:1024B00053FE06460F4600220023FEF76DFA30B3A6
:1024C00042464B4650465946FDF746FE0022002341
:1024D000FEF780FAB8B1594B02221A70002200238D
:1024E0005749C1E900235749C1E90023524B1B78E2
:1024F000002B00F09380514B1B78032B28D8DFE88A
:1025000003F0566D21414D4B03221A70E6E7424617
:102510004B4650465946FDF71FFE00220023FEF7AA
:102520003BFA0028DAD00022002330463946FEF775
:1025300051FA18B1414B00221A70CFE73F4B0122EC
:102540001A70CBE7404B1B7873B13F4B5B7893B16C
:102550003D4B1B78012B40F0BB813B4B5B78012B43
:1025600053D00423059390E10121B420FFF7F0FA42
:10257000354B1870E9E70221AF20FFF7E9FA324B3B
:102580005870E5E7304B1B7853B12F4B5B78002B2D
:10259000DED10221AF20FFF7DBFA2B4B5870D7E7D3
:1025A0000121B420FFF7D4FA274B1870EDE7264B32
:1025B0001B785BB1244B5B78002BC9D1022140F220
:1025C0000910FFF7C5FA204B5870C1E701214FF4FD
:1025D0008770FFF7BDFA1C4B1870EBE71A4B1B789E
:1025E0005BB1194B5B78002BB2D1022140F209108C
:1025F000FFF7AEFA144B5870AAE701214FF4877029
:10260000FFF7A6FA104B1870EBE700230A4A137085
:102610000D4A137053700423059336E1074B1B7862
:10262000032B1BD8DFE813F0AE00B9001200A500A1
:102630004804002068040020A8030020C0030020F4
:1026400090040020B00300209C0400200121B3204E
:10265000FFF77EFA0221B020FFF77AFAA44B1B782D
:10266000A448A54E0396029301230193009009AB61
:1026700000221146FFF7D8FB337813B9B0F1FF3FC2
:1026800006D19E4B01221A709D4B1A689D4B1A6011
:102690009A4B1B78002B40F0C380954F3B78954EAA
:1026A00003939DF868300293DDE90623CDE900230A
:1026B00033462A4621460EA8FEF7DEF905903B7800
:1026C0000393029601950094DDE90E230AA90CA854
:1026D000FEF75EFFDDE90E45DDE90C2320462946C5
:1026E000FDF73CFD06460F46874BC3E90067DDE971
:1026F0000A2320462946FDF731FD04460D46834B4B
:10270000C3E900450022002330463946FEF74EF962
:1027100000284DD10022002320462946FEF746F925
:1027200000284BD170A3D3E900237749D1E90001F8
:10273000FEF75AF928B1744B6BA1D1E90001C3E946
:10274000000169A3D3E900237049D1E90001FEF734
:102750004BF928B16D4B64A1D1E90001C3E9000137
:10276000634B1B78032B00F28D80DFE803F0432DD1
:102770002D430121B420FFF7EBF90221AF20FFF731
:10278000E7F96BE701214FF48770FFF7E1F90221C8
:1027900040F20910FFF7DCF960E701214FF4877080
:1027A000FFF7D6F9022140F20910FFF7D1F955E7FA
:1027B000554B00200021C3E90001ABE7534B00203B
:1027C0000021C3E90001ADE7514C0123237402232A
:1027D000A3754D4BD3E9000107F050FDFEF70EF94C
:1027E000E0814A4BD3E9000107F048FDFEF706F906
:1027F000A08247E0464C022323740123A375434B78
:10280000D3E9000107F03AFDFEF7F8F8E0813E4B0E
:10281000D3E9000107F032FDFEF7F0F8A08231E0C5
:102820000DF12303002201210846FEF77DFD0DF185
:102830002303002201210320FEF776FD0DF123037F
:10284000002201211046FEF76FFD0DF12303002247
:1028500001210220FEF768FD2D4B03221A749A75A0
:102860000022DA819A82264B1B68264A12689B1A3C
:10287000B3F5FA6F06D90023204A1370214A13607A
:102880001D4A1370059B032B1AD01D4B1A68214B50
:10289000A3FB02135B09642101FB1323092B0BD853
:1028A000164B1B78BBB11C4806F000FC124B1B7882
:1028B000ABB91A4806F0FAFB059811B0BDE8F08FE5
:1028C000134B0022DA819A8203221A749A75DCE78C
:1028D00004230593D9E7124806F0E8FBE6E7114820
:1028E00006F0E4FBE8E700BF000000008087C3407B
:1028F000C0030020F803002092030020980300206A
:10290000100C00209403002090040020B00300204D
:102910003C0000201F85EB5150BC00089CBC000807
:102920006CBC000888BC000808B503F0A9F90020B9
:1029300008BD000000000000F0B58FB08E4B9B7802
:1029400013F0400F02D18D4B01221A708A4B9A78F6
:102950005A789B7813F0100F02D1894B01221A701C
:10296000854B9B7803F00303032B04D0824B9B78A9
:1029700013F0010F02D1834B01221A707E4B9B781A
:1029800003F00303032B01D07B4B9B787A4B9B789E
:1029900003F00C030C2B04D0774B9B7813F0040F3F
:1029A00002D1794B01221A70734B9B7803F00C0310
:1029B0000C2B04D0704B9B7813F0080F02D1734B93
:1029C00001221A706C4B5A785A785A785B784FF417
:1029D0000061002006F04AFA10B16D4B01221A7016
:1029E0002021022006F042FA10B16A4B01221A702F
:1029F0004FF48051002006F039FA10B1664B0122E5
:102A00001A704FF48071022006F030FA10B1634B57
:102A100001221A704FF40061002006F027FA50B925
:102A20005B4B1B783BB15E4B01221A7000235D4A61
:102A30001370574A13704FF48071022006F016FA93
:102A400050B9564B1B783BB10023554A1370554A79
:102A500001211170514A13700121022006F006FA7B
:102A600000287CD1504B01221A70434B9B7803F015
:102A70000303032B13D0404B9B7813F0010F0ED0B0
:102A8000404B1B785BB1494A136801331360042B38
:102A900002DD134600221A603A4B00221A70364BB0
:102AA0009B7803F00C030C2B07D0334B9B7813F06F
:102AB000040F02D0344B1B783BB92021022006F0D2
:102AC000D5F998B9334B1B7883B1394B1B780B2B55
:102AD00049D00133364A13700023314A1370314A0A
:102AE00001211170284A13702A4A1370224B9B78D7
:102AF00003F00C030C2B07D01F4B9B7813F0080F2F
:102B000002D0224B1B7843B94FF48051002006F0CD
:102B1000ADF990B9204B1B787BB1254B1B7833BBAB
:102B2000234B0B221A7000231D4A13701D4A0121EA
:102B30001170164A1370184A13701D4B1B780B2B1B
:102B400041D8DFE813F03D179700B700D9003105F1
:102B5000A20BE50B280C6B0CCF0C37008D00124B31
:102B600000221A7081E7124B00221A70B4E7013B71
:102B70000F4A1370D7E700BF140C00208803002011
:102B8000CC040020CD04002098040020B8030020CD
:102B9000D8030020D7030020D5030020D60300204F
:102BA000AC03002001000020AA0300202403002021
:102BB00003000020A24B1B781BB1A24B0022DA714C
:102BC0001A72FEF7DFF8A04B1B78002B02F0298762
:102BD0009E4B5B7813F0080F04D09C4B5B7813F08E
:102BE000020F05D14FF48071022006F03FF938BB87
:102BF0000DF11703002201211046FEF795FB0DF1A0
:102C00001703002201210846FEF78EFB0DF1170382
:102C1000002201210220FEF787FB0DF1170300229D
:102C200001210320FEF780FB89480DF11603039371
:102C300000220292019200900DAB0121FFF7F4F8FF
:102C4000844B1A68844BA3FB02135B09642101FBCC
:102C50001323092B42F22887002318460FB0F0BD3A
:102C6000774B1B781BB1774B0022DA711A72FEF793
:102C700089F8A8E7724B1B7883B9784B1B78002B37
:102C8000A1D0774B1B78002B9DD00020FEF7A6F833
:102C9000022898D1724B00221A7094E7694B0C22DB
:102CA000DA710A221A720220FEF798F86C4B0122A0
:102CB0001A70E2E7624B1B7893B9684B1B78002BC4
:102CC00081D0674B1B78002B3FF47DAF0120FEF7CE
:102CD00085F802287FF477AF614B00221A7072E703
:102CE000584B0C22DA7108221A720220FEF776F88D
:102CF0005B4B01221A70E0E7514B1B78BBB9574B75
:102D00001B78002B3FF45FAF564B1C680B2C3FF633
:102D10005AAFDFE814F05200CF00A20137024C0294
:102D2000A70202031E038F03AB03D6032D044E4AF2
:102D3000537803F0C30353700DF1170300220121F0
:102D40001046FEF7F1FA0DF11703002201210846A3
:102D5000FEF7EAFA0DF11703002201210220FEF727
:102D6000E3FA0DF11703002201210320FEF7DCFA3C
:102D700037480DF116030393002402940194009048
:102D80000DAB22460121FFF74FF8384B1C60384B42
:102D90001C600125374B1D70374B1C70374B1C7066
:102DA000FDF7F0FF2F4B1C6029462846FEF79EF8E2
:102DB000244BDD710C221A72A1E72E4B1B78002BDD
:102DC00062D023480DF11603039300210291019173
:102DD00000900DAB0A46FFF727F82949002200238F
:102DE000C1E90023C1E902232649C1E9002312A356
:102DF000D3E90023C1E9022304E0124B2344032258
:102E00005A700134072CF8DD1A4B00221A701B4B44
:102E10001B78002B7FF4D7AE00220192009213465C
:102E20004FF0FF310420FEF7E5F901287FF4CBAE27
:102E3000124B01221A70C6E6000000000044B640A2
:102E4000010000203000002003000020140C0020AE
:102E5000E0030020100C00201F85EB51AC03002084
:102E6000A9030020CC0300202C000020D003002068
:102E70008C0300200200002020030020AB03002070
:102E8000A0040020B00400200123019300939EA31E
:102E9000D3E90023A449A548FFF7CAFAA44B187048
:102EA0000328B4D1A34B01221A70A34A136801333B
:102EB0001360ACE79F4B1B7843BBA04B1B68A04A39
:102EC00012689B1A40F6FB018B424ED99B4B1B6844
:102ED0009B1A40F6E3418B4270D9984B1B689A1AB3
:102EE00041F2CB039A424BD80121F020FEF730FE8D
:102EF0000221EB20FEF72CFE924B02221A740122D3
:102F00009A7540F6AC52DA819A8239E08E4D0DF115
:102F10001603039300240294019400950DAB2246FE
:102F200021462846FEF780FF804B00200021C3E9A0
:102F30000001D5E90201C3E902017B4B0026834F62
:102F4000C3E90067C3E90201234604E0804A1A444A
:102F5000022151700133072BF8DD764B00221A70E5
:102F6000764B1A68764B1A6013E0012301930093A5
:102F70000022764B6C496D48FFF75AFA6C4B18707B
:102F80006E4B1B686E4A12689B1A41F2CB02934249
:102F90002DD8704B1B78002B7FF415AE00220192C8
:102FA000009213464FF0FF310420FEF723F9012869
:102FB0007FF409AE674B01221A7004E6664A537823
:102FC00043F00803537001214FF49670FEF7C0FDE3
:102FD000022140F22710FEF7BBFD5A4B02221A7461
:102FE00001229A7540F6AC52DA819A82C8E7554BB5
:102FF00003221A749A750024DC819C824C4B0422B3
:103000001A704F4B1C60FDF7CFFE01258DF8345030
:103010008DF835508DF836500022504BCDE90623FF
:103020003BA3D3E90023CDE9082300220023CDE907
:103030000A230DF1160303930294019406AB009347
:103040000DAB2A4621464048FEF7EEFE394B1D7077
:10305000394A13682B4413609BE73E4B1B789BB1A6
:10306000344B1B78FBB9324B1B78032B7AD00123EE
:103070000193009328A3D3E900232B492B48FFF7A2
:10308000D7F92B4B18709EE500220192009213464F
:103090004FF0FF310420FEF7ADF80128E0D12D4BB1
:1030A00001221A70DCE7284D0DF11603039300246A
:1030B0000294019400950DAB224621462846FEF766
:1030C000B3FE1A4B00202649C3E90001D5E90201ED
:1030D000C3E90201144B12A7D7E90067C3E90067EF
:1030E000C3E90201234604E0194A1A44042151703D
:1030F0000133072BF8DD00230E4A13700C4A1370BE
:1031000061E500BFAFF30080000000000094B14013
:10311000000000000044B640000000000070A7401E
:103120000000000000589BC0B0040020A004002054
:103130000400002002000020CC030020100C00201E
:103140008C0300203C000020E003002000409F4052
:1031500030000020AB0300202C000020000069405C
:10316000008066409A4B1B78002B3FF42CAD994BA6
:1031700001221A70984A136801331360944B00229D
:103180001A7020E5954B1B78012B06D000210220F8
:10319000FDF7ACFE914B187015E58E4B01221A70AD
:1031A00014448D4B1C608D4B00221A700BE5894B2B
:1031B0001B78A3B98A4B1B78032B3ED001230193C4
:1031C00000937DA3D3E9002386498748FFF730F9B0
:1031D000834B1870854B1A68854B1A60F3E4854D54
:1031E0000DF11603039300240294019400950DAB96
:1031F000224621462846FEF717FED5E900017A4B04
:10320000C3E900016EA7D7E90067C3E90267754B00
:10321000C3E9000100207849C3E90201234604E024
:10322000764A1A44052151700133072BF8DD00233B
:10323000684A13706A4A1370C5E4714A537843F0C0
:1032400030035370694B1B68694A12689B1AB3F5C7
:10325000FA7F7FF6B8AC5F4B01221A7014445E4BC4
:103260001C60B0E45B4B1B78A3B95D4B1B78032B50
:103270003ED00123019300934FA3D3E90023594982
:103280005948FFF7D5F8564B1870584B1A68584BE9
:103290001A6098E4574D0DF116030393002402942D
:1032A000019400950DAB224621462846FEF7BCFD51
:1032B000D5E900014C4BC3E9000100264E4FC3E99C
:1032C0000267484BC3E900013DA1D1E90001C3E910
:1032D0000201234604E0494A1A4406215170013391
:1032E000072BF8DD00233B4A13703D4A13706AE454
:1032F000434A537843F0040353703C4B1B683C4AE9
:1033000012689B1AB3F5FA7F7FF65DAC314B012250
:103310001A701444304B1C6055E42D4B1B78002B65
:103320007FF451AC01930122009213464FF0FF311C
:103330000220FDF75FFF01287FF445AC244B0022FB
:103340001A70244B01221A70234A13680133136048
:1033500039E4204B1B78002B54D0264D0DF1160379
:10336000039300240294019400950DAB224621465C
:103370002846FEF759FDD5E900011B4EC6E90001BC
:10338000D5E90223C6E90223164BC3E900010EA1C9
:10339000D1E90001C3E90201234604E0174A1A44B7
:1033A0000E2151700133072BF8DD0A4B00221A70F1
:1033B00009E400BFAFF30080000000000070A740E8
:1033C000000000000044B640000000000038B84093
:1033D000AB03002002000020CC03002020030020CB
:1033E00004000020B0040020A0040020100C0020E5
:1033F0001C030020E00300200000B9403000002042
:103400002C000020012301930093A5A3D3E90023FE
:10341000AB49AC48FFF70CF8AB4B187003287FF4AE
:10342000D2ABAA4B01221A70A94A13680133136068
:10343000FFF7C9BBA74B1B78012B07D00021032046
:10344000FDF754FDA34B1870FFF7BDBBA24A53789C
:1034500043F0200353709D4B01221A7014449C4B7F
:103460001C609C4B00221A70FFF7ADBB974B1B787A
:1034700043B19A4B1A689A4B1A60944B00221A7007
:10348000FFF7A1BB954B1B68954A12689B1AB3F5D1
:10349000967F0DD9934B032283F8222000221A84B1
:1034A0008A4B01221A701444894B1C60FFF78BBBB6
:1034B0008C4B012283F8222040F6B8321A84FFF7A1
:1034C00082BB824B1B78002B3AD0874A13680133AA
:1034D0001360312B7FF777AB844D0DF11603039307
:1034E00000240294019400950DAB22462146284603
:1034F000FEF79AFC734E6CA3D3E90023C6E90023C0
:1035000000227B4BD5E90201FCF728FEC6E9020147
:103510006B4B67A7D7E90067C3E90067C3E90201FE
:10352000234604E0734A1A440F2151700133072BDC
:10353000F8DD00236C4A1360644A1370FFF743BB45
:10354000012301930023009300226B4B5C495D48EB
:10355000FEF76EFF5C4B187003287FF434AB5B4BB7
:1035600001221A705A4A136801331360FFF72BBB0C
:10357000594A537843F034035370564B1B78012B50
:1035800007D000210220FDF7B1FC524B1870FFF765
:103590001ABB4E4B01221A7014444D4B1C604D4B0C
:1035A00000221A70FFF70FBB544B1B78C3B9544B62
:1035B0001B78002B3FF407AB454B1C680C2C3FF6E7
:1035C00002ABDFE814F04D00D800A60131029002F2
:1035D000EE028603E4034204D804360594051A0675
:1035E0000DF11703002201211046FDF79DFE0DF19C
:1035F0001703002201210846FDF796FE0DF117037F
:10360000002201210220FDF78FFE0DF11703002299
:1036100001210320FDF788FE34480DF116030393C2
:1036200000240294019400900DAB22460121FEF784
:10363000FBFB2D4B1C60334B1C600125234B1D7085
:10364000244B1C70304B1C70FDF79CFB204B1C6006
:1036500029462846FDF74AFC264BDD711D72A6E778
:103660001A4B1B78002B70D020480DF116030393E2
:1036700000210291019100900DAB0A46FEF7D4FBA8
:10368000104900220023C1E90023C1E902230C49AB
:10369000C1E9002308A3D3E90023C1E902233AE0EA
:1036A000000000000070A7400000000000589BC010
:1036B0000000000000F4AAC00000000000E8AC40D8
:1036C000B0040020A004002004000020020000201C
:1036D000CC030020200300202C000020100C002030
:1036E0001C0300203C000020D0030020E003002049
:1036F000000049403000002000409F4001000020B1
:10370000AC0300208C030020AB030020984B234423
:1037100003225A700134072CF8DD964B00221A70F0
:10372000954B1B78002B7FF44EAA00220192009249
:10373000134601210220FDF75DFD01287FF443AA15
:103740008D4B01221A70FFF73EBA012301930093BB
:1037500083A3D3E9002389498948FEF769FE894B91
:1037600018700328DCD1834B01221A70864A136833
:1037700001331360D4E77F4B1B7843BB834B1B683B
:10378000834A12689B1A40F6FB018B424ED97F4B4D
:103790001B689B1A40F6E3418B4270D97B4B1B6838
:1037A0009B1A41F2CB0293424BD80121F020FEF745
:1037B000CFF90221EB20FEF7CBF9764B02221A74E7
:1037C00001229A7540F6AC52DA819A8239E0724D44
:1037D0000DF11603039300240294019400950DABA0
:1037E000224621462846FEF71FFB654B002000219C
:1037F000C3E90001D5E90201C3E902015F4B0026DC
:10380000664FC3E90067C3E902012346072B05DCC5
:10381000574A1A44022151700133F7E7554B0022F1
:103820001A705A4B1A685A4B1A6013E0012301931D
:1038300000930022594B51495148FEF7F9FD514B75
:103840001870524B1B68524A12689B1A41F2CB0205
:10385000934228D8484B1B78002B7FF4B4A9002250
:1038600001920092134601210220FDF7C3FC0128BA
:103870007FF4A9A9404B01221A70FFF7A4B90121D6
:103880004FF49670FEF764F9022140F22710FEF71C
:103890005FF9404B02221A7401229A7540F6AC522D
:1038A000DA819A82CDE73B4B03221A749A75002481
:1038B000DC819C82334B04221A70354B1C60FDF76F
:1038C00073FA01258DF834508DF835408DF8365057
:1038D0000022334BCDE9062323A3D3E90023CDE90E
:1038E000082300220023CDE90A230DF116030393D8
:1038F0000294019406AB00930DAB2A46214626485C
:10390000FEF792FA1B4B1D701F4A13682B4413607D
:10391000A0E7194B1B78A3B1164B1B78002B43D1A2
:10392000184B1B78032B6ED00123019300930022C8
:103930001C4B12491248FEF77BFD124B1870FFF723
:1039400042B9002201920092134601210220FDF7A4
:1039500051FC0128E0D1084B01221A70DCE700BFBE
:10396000000000000094B1400000000000E8AC40FE
:103970003000002002000020AB030020B004002033
:10398000A004002004000020CC030020100C002024
:103990008C0300203C000020E003002000409F40FA
:1039A000000069400040AF409B4D0DF116030393AA
:1039B00000240294019400950DAB2246214628462E
:1039C000FEF732FA954B00209549C3E90001D5E98D
:1039D0000201C3E90201934B85A7D7E90067C3E958
:1039E0000067C3E902012346072B05DC8E4A1A440F
:1039F000042151700133F7E700238C4A13708C4A7D
:103A00001370FFF7E0B88B4B1B78002B3FF4DBA85B
:103A1000864B01221A70884A136801331360854B64
:103A200000221A70FFF7CFB8804B1B78ABB9804BE0
:103A30001B78032B41D00123019300936EA3D3E99C
:103A4000002378497548FEF7F3FC794B18707B4BDF
:103A50001A687B4B1A60FFF7B6B86F4D0DF116036D
:103A6000039300240294019400950DAB2246214655
:103A70002846FEF7D9F9D5E90001684BC3E90001F2
:103A80005FA7D7E90067C3E90267664BC3E9000196
:103A90005DA1D1E90001C3E902012346072B05DC42
:103AA000614A1A44052151700133F7E700235F4A48
:103AB00013705F4A1370FFF786B8624A537843F079
:103AC000300353705D4B1B685D4A12689B1AB3F557
:103AD000FA7F7FF678A8554B01221A701444564B92
:103AE0001C60FFF770B8514B1B78A3B9504B1B7883
:103AF000032B40D00123019300930022524B4949EC
:103B00004648FEF795FC4A4B18704C4B1A684C4BD4
:103B10001A60FFF758B8404D0DF1160303930024C7
:103B20000294019400950DAB224621462846FEF7EB
:103B30007BF9D5E90001394BC3E9000132A7D7E988
:103B40000067C3E90267374BC3E9000130A1D1E93F
:103B50000001C3E902012346072B05DC324A1A445F
:103B6000062151700133F7E70023304A1370304AC1
:103B70001370FFF728B8334A537843F004035370A7
:103B80002E4B1B682E4A12689B1AB3F5FA7F7FF6FC
:103B90001AA8264B01221A701444274B1C60FFF709
:103BA00012B8244B1B78A3B1204B1B78002B4FD1AC
:103BB0001F4B1B78032B7BD0012301930093002222
:103BC000224B18491548FEF733FC194B1870FEF7C5
:103BD000FABF002201920092134601210220FDF754
:103BE00009FB0128E0D1134B01221A70DCE700BF6A
:103BF0000000000000589BC0000000000070A740BB
:103C00000000000000E8AC40000000000030B140BF
:103C1000000000000078AE40E0030020A004002077
:103C200000806640B0040020300000200200002028
:103C300004000020AB030020CC030020100C002067
:103C40001C0300202C00002000409F400040AF409B
:103C50009B4D0DF1160303930024029401940095EB
:103C60000DAB224621462846FEF7DEF8954B8AA189
:103C7000D1E90001C3E90001D5E90201C3E902016C
:103C8000914B87A7D7E90067C3E90067C3E9020141
:103C90002346072B05DC8D4A1A4404215170013359
:103CA000F7E700238A4A13708A4A1370FEF78BBF26
:103CB000894B1B78002B3EF486AF854B01221A708E
:103CC000864A136801331360834B00221A70FEF793
:103CD0007ABF7F4B1B78ABB97E4B1B78032B40D050
:103CE00001230193009370A3D3E90023764975481B
:103CF000FEF79EFB774B1870794B1A68794B1A6068
:103D0000FEF761BF6E4D0DF116030393002402947C
:103D1000019400950DAB224621462846FEF784F813
:103D2000D5E90001674EC6E90001D5E90223C6E9DD
:103D30000223654BC3E900015DA1D1E90001C3E99C
:103D400002012346072B05DC604A1A440521517005
:103D50000133F7E700235E4A13705E4A1370FEF7E3
:103D600032BF614A537843F0300353705C4B1B6899
:103D70005C4A12689B1AB3F5FA7F7EF624AF544B67
:103D800001221A701444554B1C60FEF71CBF504BA7
:103D90001B78A3B94F4B1B78032B40D00123019311
:103DA00000930022514B48494648FEF741FB494BDE
:103DB00018704B4B1A684B4B1A60FEF704BF404D0E
:103DC0000DF11603039300240294019400950DABAA
:103DD000224621462846FEF727F8D5E90001394B4F
:103DE000C3E9000132A7D7E90067C3E90267364B90
:103DF000C3E9000130A1D1E90001C3E90201234672
:103E0000072B05DC314A1A44062151700133F7E7CC
:103E100000232F4A13702F4A1370FEF7D4BE324A84
:103E2000537843F0040353702D4B1B682D4A1268DE
:103E30009B1AB3F5FA7F7EF6C6AE254B01221A70A7
:103E40001444264B1C60FEF7BEBE234B1B78A3B167
:103E50001F4B1B78002B4DD11E4B1B78032B79D0A9
:103E60000123019300930022214B17491548FEF7C7
:103E7000DFFA184B1870FEF7A6BE002201920092DE
:103E8000134601210220FDF7B5F90128E0D1124BBC
:103E900001221A70DCE700BF0000000000589BC040
:103EA000000000000024A3C0000000000070A74034
:103EB000000000000030B140000000000078AE407B
:103EC000E0030020A0040020B00400203000002007
:103ED0000200002004000020AB030020CC030020DF
:103EE000100C00201C0300202C00002000409F40EC
:103EF0000040AF40A84D0DF1160303930024029437
:103F0000019400950DAB224621462846FDF78CFF13
:103F1000A24B95A1D1E90001C3E90001D5E9020155
:103F2000C3E902019E4B92A7D7E90067C3E9006786
:103F3000C3E902012346072B05DC9A4A1A440421EF
:103F400051700133F7E70023974A1370974A1370B3
:103F5000FEF739BE964B1B78002B3EF434AE924BE5
:103F600001221A70934A136801331360904B0022A8
:103F70001A70FEF728BE8C4B1B78ABB98B4B1B78A5
:103F8000032B40D00123019300937BA3D3E90023AB
:103F900083498248FEF74CFA844B1870864B1A68A6
:103FA000864B1A60FEF70FBE7B4D0DF1160303938F
:103FB00000240294019400950DAB22462146284628
:103FC000FDF732FFD5E90001744EC6E90001D5E9DD
:103FD0000223C6E90223724BC3E9000168A1D1E9BB
:103FE0000001C3E902012346072B05DC6D4A1A4490
:103FF000052151700133F7E700236B4A13706B4AB8
:104000001370FEF7E0BD6E4A537843F030035370EF
:10401000694B1B68694A12689B1AB3F5FA7F7EF6F2
:10402000D2AD614B01221A701444624B1C60FEF742
:10403000CABD5D4B1B78A3B95C4B1B78032B40D0EA
:1040400001230193009300225E4B55495348FEF72C
:10405000EFF9564B1870584B1A68584B1A60FEF718
:10406000B2BD4D4D0DF1160303930024029401944B
:1040700000950DAB224621462846FDF7D5FED5E931
:104080000001464BC3E900013DA7D7E90067C3E93A
:104090000267434BC3E900013BA1D1E90001C3E939
:1040A00002012346072B05DC3E4A1A4406215170C3
:1040B0000133F7E700233C4A13703C4A1370FEF7C4
:1040C00082BD3F4A537843F0040353703A4B1B6858
:1040D0003A4A12689B1AB3F5FA7F7EF674AD324BFA
:1040E00001221A701444334B1C60FEF76CBD2E4B3A
:1040F0001B78002B6AD0344A136801331360632B9A
:104100007EF761AD244D0DF1160303930024029454
:10411000019400950DAB224621462846FDF784FE0A
:104120001E4B1BA1D1E90001C3E90001D5E9020141
:10413000C3E902011A4B00260027C3E90067C3E95F
:104140000201234604E0174A1A440F21517001333B
:10415000072BF8DD00231C4A1360134A1370FEF787
:1041600032BD00BFAFF300800000000000ECA3C030
:1041700000000000009CA8C0000000000070A740E4
:10418000000000000030B140000000000078AE40A8
:104190000000000000C8A9C0E0030020A004002027
:1041A000B0040020300000200200002004000020A5
:1041B000AB030020CC030020100C00201C030020C7
:1041C0002C00002000409F40D003002001230193D9
:1041D00000930022B64BB749B748FEF729F9B74B11
:1041E000187003287EF4EFACB54B01221A70B54A63
:1041F000136801331360FEF7E6BCB14B1B78002B4C
:104200002CD0B14D0DF116030393002402940194B8
:1042100000950DAB224621462846FDF705FED5E95F
:104220000001A54BC3E900019FA7D7E90067C3E9D7
:104230000267A04BC3E9000100200021C3E902018D
:10424000234604E0A14A1A440E2151700133072B82
:10425000F8DD9B4B00221A70FEF7B5BC01230193D9
:1042600000930022924B93499348FEF7E1F8934B59
:10427000187003287EF4A7AC914B01221A70914A62
:10428000136801331360FEF79EBC914B1B78002B23
:104290003EF499AC0DF11703002201211046FDF701
:1042A00043F80DF11703002201210846FDF73CF801
:1042B0000DF11703002201210220FDF735F80DF161
:1042C0001703002201210320FDF72EF87E480DF18F
:1042D0001603039300240294019400900DAB224630
:1042E0000121FDF7A1FD7B4B1C607B4B1C60012570
:1042F000734B1D70794B1C70794B1C70FCF742FDA1
:10430000704B1C60714BDD7102221A72FEF75BBCB0
:104310006F4B1B78002B3EF456AC0DF117030022B7
:1043200001211046FDF700F80DF1170300220121CD
:104330000846FCF7F9FF0DF11703002201210220C6
:10434000FCF7F2FF0DF11703002201210320FCF717
:10435000EBFF5D480DF116030393002402940194D2
:1043600000900DAB22460121FDF75EFD594B1C600C
:10437000594B1C600125524B1D70584B1C70584BFB
:104380001C70FCF7FFFC4F4B1C60504BDD7105228D
:104390001A72FEF718BC4E4B1B78002B3EF413AC80
:1043A0000DF11703002201211046FCF7BDFF0DF1AE
:1043B0001703002201210846FCF7B6FF0DF1170391
:1043C000002201210220FCF7AFFF0DF117030022AC
:1043D00001210320FCF7A8FF3B480DF116030393CE
:1043E00000240294019400900DAB22460121FDF7B8
:1043F0001BFD384B1C60384B1C600125304B1D7079
:10440000364B1C70364B1C70FCF7BCFC2D4B1C60F3
:104410002E4BDD7104221A72FEF7D5BB2C4B1B7894
:10442000002B3EF4D0AB0DF1170300220121104602
:10443000FCF77AFF0DF11703002201210846FCF773
:1044400073FF0DF11703002201210220FCF76CFF1E
:104450000DF11703002201210320FCF765FF1A4824
:104460000DF11603039300240294019400900DAB08
:1044700022460121FDF7D8FC164B1C60164B1C6030
:104480000F4B01221A70154B1C70154B1C70FCF75A
:1044900079FC0C4B1C600D4B0C22DA711A72FEF782
:1044A00092BB00BFAFF30080000000000078AE4078
:1044B0000040AF40B0040020A00400200400002011
:1044C00002000020CC030020E00300203000002088
:1044D00001000020D00300208C03002020030020D6
:1044E000AB030020984B1B781BB1984B0822DA7164
:1044F0001A72974B5B7813F0080F04D0944B5B78DB
:1045000013F0020F60D1924B9B7813F0400F00F034
:104510008480904B1B78002B7FD08F4B01221A7028
:1045200000238E4A13708E4A13708E4A13708E4A7F
:1045300013708E4A1370864B9B7813F0200F17D0A0
:1045400000238B4A13608B4A13608B4A0121117040
:104550008A4A13708A4A13707F4A13707F4A137015
:104560007F4A13707F4A13707F4A13707F4A13701B
:10457000794B1B787BB9794B1B7863B9784B1B78E7
:104580004BB9784B1B7833B9774B1B781BB9774BFA
:104590001B78002B59D0744B1B78002B00F09180B6
:1045A000784B1C680C2C00F28C80DFE814F05D0066
:1045B000F700C4014F02AB0206039B03F60351044C
:1045C000E7044505A305F4050DF1170300220121B9
:1045D0001046FCF7A9FE0DF1170300220121084641
:1045E000FCF7A2FE0DF11703002201210220FCF7C7
:1045F0009BFE0DF11703002201210320FCF794FE1E
:1046000061480DF11603039300220292019200907B
:104610000DAB0121FDF708FC75E74D4B9B7813F0BE
:10462000100F88D0594B1B78002B84D000234A4AA6
:1046300013704A4A13704A4A13704A4A13704A4A1E
:1046400001211170494A137075E70024484B1C6022
:10465000484B1C60404B1C70474B01221A70FCF702
:1046600091FB484B1C6096E7434B1B78002B3FD0D7
:1046700045480DF11603039300210291019100902A
:104680000DAB0A46FDF7D0FB414900220023C1E9EA
:104690000023C1E902233F49C1E9002326A3D3E94E
:1046A0000023C1E9022304E0284B234403225A706B
:1046B0000134072CF8DD304B00221A70304B1B7888
:1046C00063B3254B1B78002B3EF47DAA2D4B1C6851
:1046D0000A2C3EF678AADFE814F0D005260621075A
:1046E0008907A007FD078308A008E9080009570902
:1046F00001230193009312A3D3E900232549244801
:10470000FDF796FE244B18700328D7D11A4B0122CF
:104710001A701C4A136801331360CFE7002201921C
:104720000092134601210220FCF764FD0128C8D144
:10473000134B01221A70C4E70000000000E8AC40EF
:10474000000000000094B140010000203000002073
:10475000140C00208803002099040020C8040020C5
:10476000C9040020CA040020CB0400209A040020C1
:10477000D00300208C030020020000202003002032
:10478000AB030020CC030020E0030020CC04002079
:10479000A0040020B0040020040000209C4B1B78E3
:1047A00043BB9C4B1B689C4A12689B1A40F6FB015A
:1047B0008B424ED9974B1B689B1A40F6E3418B42C4
:1047C0006FD9944B1B689B1A41F2CB0293424BD892
:1047D0000121F020FDF7BCF90221EB20FDF7B8F92B
:1047E0008E4B02221A7401229A7540F6AC52DA817D
:1047F0009A8239E08A4D0DF1160303930024029446
:10480000019400950DAB224621462846FDF70CFB8E
:10481000844B00200021C3E90001D5E90201C3E96E
:104820000201814B0026814FC3E90067C3E9020101
:104830002346072B05DC7E4A1A44022151700133BE
:10484000F7E7734B00221A70724B1A68724B1A60AA
:1048500013E00123019300930022744B72497148C5
:10486000FDF7E6FD734B18706A4B1B686A4A1268C5
:104870009B1A41F2CB02934227D86F4B1B78002B37
:104880007FF41FAF00220192009213460121022003
:10489000FCF7B0FC01287FF414AF674B01221A70BB
:1048A0000FE701214FF49670FDF752F9022140F213
:1048B0002710FDF74DF9594B02221A7401229A75FF
:1048C00040F6AC52DA819A82CEE7544B03221A7436
:1048D0009A750024DC819C82564B04221A704E4B40
:1048E0001C60FCF761FA01258DF834508DF83540D5
:1048F0008DF836500022514BCDE9062340A3D3E971
:104900000023CDE9082300220023CDE90A230DF17D
:10491000160303930294019406AB00930DAB2A4651
:1049200021463F48FDF780FA394B1D70444A136811
:104930002B441360A1E7404B1B7893B1344B1B7899
:10494000EBB93C4B1B78032B47D001230193009319
:1049500000223C4B34493348FDF76AFD354B187053
:10496000AFE6002201920092134601210220FCF7DB
:1049700041FC0128E2D1304B01221A70DEE7284DBC
:104980000DF11603039300240294019400950DABDE
:10499000224621462846FDF747FA224B00202A49A5
:1049A000C3E90001D5E90201C3E902011E4B16A7C4
:1049B000D7E90067C3E90067C3E902012346072B73
:1049C00005DC1B4A1A44042151700133F7E7002328
:1049D0000F4A1370174A137073E6174B1B78002B9E
:1049E0003FF46FAE0A4B01221A70154A1368013367
:1049F0001360114B00221A7063E600BFAFF3008012
:104A00000000000000E8AC400000000000589BC01F
:104A100002000020100C00208C0300203C0000202D
:104A2000E0030020A0040020B004002000409F40CC
:104A30003000002004000020AB030020000069408B
:104A4000CC0300200040AF4000806640984B1B78AC
:104A5000A3B9984B1B78032B3FD0012301930093FC
:104A600087A3D3E9002394499448FDF7E1FC914BD7
:104A70001870934B1A68934B1A6022E6924D0DF111
:104A80001603039300240294019400950DAB224673
:104A900021462846FDF7C8F9D5E90001874BC3E94F
:104AA000000179A7D7E90067C3E90267824BC3E930
:104AB000000177A1D1E90001C3E902012346072BD8
:104AC00005DC824A1A44052151700133F7E70023BF
:104AD000774A1370774A1370F3E57D4A537843F0B1
:104AE00030035370764B1B68764A12689B1AB3F5F5
:104AF000FA7F7FF6E6AD6E4B01221A701444754BB7
:104B00001C60DEE56A4B1B789BB96A4B1B78032B54
:104B10003ED001230193009300226F4B6649674802
:104B2000FDF786FC634B1870654B1A68654B1A607D
:104B3000C7E5654D0DF1160303930024029401941B
:104B400000950DAB224621462846FDF76DF9D5E9C3
:104B500000015A4BC3E900014DA7D7E90067C3E93B
:104B60000267554BC3E900014BA1D1E90001C3E93C
:104B700002012346072B05DC544A1A4406215170D2
:104B80000133F7E700234A4A13704A4A137098E545
:104B90004F4A537843F004035370494B1B68494A0A
:104BA00012689B1AB3F5FA7F7FF68BAD404B01225A
:104BB0001A701444474B1C6083E5484B1B7893B133
:104BC0003B4B1B78EBB93B4B1B78032B48D00123A5
:104BD000019300930022424B37493848FDF728FCE7
:104BE000344B18706DE500220192009213460121AA
:104BF0000220FCF7FFFA0128E2D1384B01221A709B
:104C0000DEE7314D0DF11603039300240294019465
:104C100000950DAB224621462846FDF705F9274BA6
:104C20001FA1D1E90001C3E90001D5E90201C3E9EF
:104C30000201214B1CA7D7E90067C3E90067C3E95C
:104C400002012346072B05DC204A1A440421517037
:104C50000133F7E70023164A1370164A137030E544
:104C60001E4B1B78002B3FF42CAD114B01221A7008
:104C7000184A136801331360184B00221A7020E59C
:104C8000000000000070A7400000000000E8AC40F9
:104C9000000000000030B140000000000078AE408D
:104CA0000000000000589BC0000000000024A3C0CA
:104CB0000200002004000020B0040020A004002016
:104CC000100C00201C030020E00300203000002016
:104CD0002C000020CC03002000409F40AB030020AC
:104CE0000040AF40984B1B78A3B9984B1B78032B1F
:104CF0003ED001230193009389A3D3E90023944973
:104D00009448FDF795FB914B1870934B1A68934BA1
:104D10001A60D6E4924D0DF1160303930024029419
:104D2000019400950DAB224621462846FDF77CF8FC
:104D3000D5E90001874EC6E90001D5E90223C6E99D
:104D40000223834BC3E9000177A1D1E90001C3E944
:104D500002012346072B05DC824A1A4405215170C3
:104D60000133F7E70023784A1370784A1370A8E4F8
:104D70007D4A537843F030035370774B1B68774A72
:104D800012689B1AB3F5FA7F7FF69BAC6E4B01223B
:104D90001A701444754B1C6093E46B4B1B789BB9E1
:104DA0006A4B1B78032B3ED0012301930093002212
:104DB0006F4B67496748FDF73BFB644B1870664BC8
:104DC0001A68664B1A607CE4654D0DF11603039377
:104DD00000240294019400950DAB224621462846FA
:104DE000FDF722F8D5E900015A4BC3E900014EA7AF
:104DF000D7E90067C3E90267554BC3E900014CA13D
:104E0000D1E90001C3E902012346072B05DC554A1D
:104E10001A44062151700133F7E700234A4A137000
:104E20004A4A13704DE4504A537843F004035370D8
:104E3000494B1B68494A12689B1AB3F5FA7F7FF603
:104E400040AC414B01221A701444484B1C6038E4BA
:104E5000484B1B7893B13C4B1B78EBB93B4B1B7811
:104E6000032B49D00123019300930022424B384980
:104E70003848FDF7DDFA354B187022E40022019224
:104E80000092134601210220FCF7B4F90128E2D177
:104E9000384B01221A70DEE7314D0DF116030393F2
:104EA00000240294019400950DAB22462146284629
:104EB000FCF7BAFF274B20A1D1E90001C3E90001AB
:104EC000D5E90201C3E90201214B1DA7D7E900671B
:104ED000C3E90067C3E902012346072B05DC214A29
:104EE0001A44042151700133F7E70023164A137066
:104EF000164A1370FFF7E5BB1E4B1B78002B3FF4DF
:104F0000E0AB114B01221A70184A13680133136089
:104F1000184B00221A70FFF7D4BB00BFAFF300801C
:104F2000000000000070A740000000000030B14009
:104F3000000000000078AE400000000000ECA3C0BC
:104F400000000000009CA8C0020000200400002017
:104F5000B0040020A0040020100C00201C0300203E
:104F6000E0030020300000202C000020CC030020B3
:104F700000409F40AB0300200040AF40A04B1B7897
:104F8000ABB9A04B1B78032B40D0012301930093B6
:104F900093A3D3E900239C499C48FDF749FA994B18
:104FA00018709B4B1A689B4B1A60FFF78ABB9A4D8F
:104FB0000DF11603039300240294019400950DABA8
:104FC000224621462846FCF72FFFD5E900018F4EE7
:104FD000C6E90001D5E90223C6E902238A4BC3E9E9
:104FE000000181A1D1E90001C3E902012346072B99
:104FF00005DC8A4A1A44052151700133F7E7002382
:105000007F4A13707F4A1370FFF75BBB844A537863
:1050100043F0300353707E4B1B687E4A12689B1A24
:10502000B3F5FA7F7FF64DAB754B01221A7014442D
:105030007C4B1C60FFF745BB714B1B78A3B9714BD0
:105040001B78032B40D00123019300930022764B61
:105050006D496E48FDF7ECF96A4B18706C4B1A6895
:105060006C4B1A60FFF72DBB6B4D0DF116030393CC
:1050700000240294019400950DAB22462146284657
:10508000FCF7D2FED5E90001604BC3E9000156A749
:10509000D7E90067C3E902675B4BC3E9000154A18C
:1050A000D1E90001C3E902012346072B05DC5B4A75
:1050B0001A44062151700133F7E70023504A137058
:1050C000504A1370FFF7FDBA554A537843F0040372
:1050D00053704F4B1B684F4A12689B1AB3F5FA7F07
:1050E0007FF6EFAA464B01221A7014444D4B1C6008
:1050F000FFF7E7BA424B1B78002B35D04B4A1368B9
:1051000001331360632B7FF7DCAA434D0DF11603C7
:10511000039300240294019400950DAB224621468E
:105120002846FCF781FE394B33A1D1E90001C3E9E0
:105130000001D5E90201C3E90201334B0026002733
:10514000C3E90067C3E90201234604E0334A1A4475
:105150000F2151700133072BF8DD0023334A136010
:10516000274A1370FFF7ADBA012301930093002281
:105170002F4B25492548FDF75BF9224B1870032872
:105180007FF49FAA1E4B01221A70264A136801332E
:105190001360FFF796BA1A4B1B78002B56D01E4DA2
:1051A0000DF11603039300240294019400950DABB6
:1051B000224621462846FCF737FED5E90001134B6D
:1051C000C3E900010AA7D7E90067C3E902670E4BEC
:1051D000C3E9000100200021C3E9020123462EE0BB
:1051E000000000000070A740000000000030B14047
:1051F000000000000078AE400000000000C8A9C018
:105200000200002004000020B0040020A0040020C0
:10521000100C00201C030020E003002030000020C0
:105220002C000020CC03002000409F40D003002031
:105230000040AF40AA4A1A440E2151700133072B97
:10524000F8DDA84B00221A70FFF73BBA0123019347
:1052500000930022A44BA549A548FDF7E9F8A54B0A
:10526000187003287FF42DAA9E4B01221A70A24ABF
:10527000136801331360FFF724BA9A4B1B78002B95
:105280003BD09E480DF1160303930021029101913A
:1052900000900DAB0A46FCF7C7FD9549002200239C
:1052A000C1E90023C1E902239049C1E9002388A391
:1052B000D3E90023C1E9022304E0894B23440322FC
:1052C0005A700134072CF8DD864B00221A708C4B83
:1052D0001B78002B7DF477AC0022019200921346DC
:1052E0004FF0FF310420FBF785FF01287DF46BAC04
:1052F000834B01221A70FDF766BC012301930093D2
:1053000075A3D3E9002379497948FDF791F8794BE2
:1053100018700328DBD1734B01221A70764A136888
:1053200001331360D3E76F4B1B7843BB754B1B688E
:10533000754A12689B1A40F6FB018B424ED9714B9D
:105340001B689B1A40F6E3418B4271D96D4B1B6879
:105350009A1A41F2CB039A424BD80121F020FCF774
:10536000F7FB0221EB20FCF7F3FB684B02221A74D7
:1053700001229A7540F6AC52DA819A8239E05F4D8B
:105380000DF11603039300240294019400950DABD4
:10539000224621462846FCF747FD554B00200021B8
:1053A000C3E90001D5E90201C3E902014F4B002620
:1053B000574FC3E90067C3E90201234604E0484AA6
:1053C0001A44022151700133072BF8DD454B0022AE
:1053D0001A704C4B1A684C4B1A6013E0012301936E
:1053E000009300224A4B41494148FDF721F8414BC7
:1053F0001870444B1B68444A12689B1A41F2CB0256
:1054000093422ED83E4B1B78002B7DF4DCAB002260
:105410000192009213464FF0FF310420FBF7EAFEA1
:1054200001287DF4D0AB364B01221A70FDF7CBBBBF
:10543000384A537843F00803537001214FF49670B3
:10544000FCF786FB022140F22710FCF781FB2F4B73
:1054500002221A7401229A7540F6AC52DA819A82BD
:10546000C7E72A4B03221A749A750024DC819C82B8
:10547000204B04221A70244B1C60FBF795FC01257D
:105480008DF834508DF835508DF836500022224B6F
:10549000CDE906230EA3D3E90023CDE9082300229A
:1054A0000023CDE90A230DF116030393029401941E
:1054B00006AB00930DAB2A4621461048FCF7B4FC1E
:1054C000084B1D700C4A13682B4413609AE700BF09
:1054D000000000000044B640000000000094B1400D
:1054E00030000020020000200040AF40B004002047
:1054F000A004002004000020CC030020E0030020D2
:10550000AB030020100C00208C0300203C00002086
:1055100000409F402C00002000006940A24B1B78F7
:10552000BBB1A24B1B781BBBA14B1B78032B4ED1ED
:105530009D4B1B78002B3DF446AB9C4B01221A700F
:105540009C4A136801331360974B00221A70FDF7D1
:105550003ABB00220192009213464FF0FF31042023
:10556000FBF748FE0128DCD18F4B01221A70D8E7E7
:10557000914D0DF1160303930024029401940095BC
:105580000DAB224621462846FCF74EFC8B4B0020F3
:105590008B49C3E90001D5E90201C3E90201894B46
:1055A0007BA7D7E90067C3E90067C3E90201234687
:1055B00004E0854A1A44042151700133072BF8DDB9
:1055C00000237A4A13707A4A1370FDF7FCBA01235C
:1055D00001930023009370A3D3E90023794977480E
:1055E000FCF726FF724B1870FDF7EDBA774B1B786E
:1055F000012B07D000210220FBF778FC734B1870B9
:10560000FDF7E1BA694B01221A701444694B1C6022
:105610006E4B00221A70FDF7D6BA644B1B78CBB9DB
:10562000634B1B78032B43D1694A537843F0300313
:105630005370684B1B68684A12689B1AB3F5FA7F6F
:105640007DF6C1AA594B01221A701444594B1C60B3
:10565000FDF7B9BA584D0DF11603039300240294D7
:10566000019400950DAB224621462846FCF7DCFB51
:10567000D5E90001514EC6E90001D5E90223C6E98A
:105680000223504BC3E9000100205449C3E9020141
:10569000234604E04C4A1A44052151700133072B7C
:1056A000F8DD0023414A1370414A1370FDF78BBAAD
:1056B00001230193009338A3D3E9002341493F48D4
:1056C000FCF7B6FE3A4B1870424B1A68424B1A6010
:1056D000FDF779BA354B1B78CBB9354B1B78032BCB
:1056E00042D13B4A537843F004035370394B1B6853
:1056F000394A12689B1AB3F5FA7F7DF664AA2B4BE0
:1057000001221A7014442B4B1C60FDF75CBA2A4D21
:105710000DF11603039300240294019400950DAB40
:10572000224621462846FCF77FFBD5E90001234BA2
:10573000C3E900010026294FC3E90267214BC3E9F1
:10574000000117A1D1E90001C3E90201234604E0E9
:105750001D4A1A44062151700133072BF8DD134B03
:1057600000221A70FDF72FBA0123019300930AA3B8
:10577000D3E9002313491148FCF75AFE0C4B18706B
:10578000144B1A68144B1A60FDF71DBAAFF3008072
:105790000000000000589BC0000000000070A740FF
:1057A000000000000044B640AB03002002000020CF
:1057B00004000020CC030020E0030020A00400200F
:1057C00000806640B004002030000020200300204C
:1057D0002C000020100C00201C0300200000B94009
:1057E000A14B1B78002B7DF4EEA9019301200090C2
:1057F000034602464FF0FF31FBF7FCFC01287DF425
:10580000E2A9994B00221A70984B01221A70984A0B
:10581000136801331360FDF7D6B9944B1B78002B46
:105820002CD0944D0DF1160303930024029401949F
:1058300000950DAB224621462846FCF7F5FAD5E93E
:1058400000018D4EC6E90001D5E90223C6E9022315
:105850008A4BC3E900017CA1D1E90001C3E902013F
:10586000234604E0864A1A440E2151700133072B67
:10587000F8DD7E4B00221A70FDF7A5B901230193D4
:10588000009373A3D3E900237C497B48FCF7D0FD48
:105890007C4B187003287DF496A9744B01221A7072
:1058A000734A136801331360FDF78DB9764B1B788B
:1058B000012B07D000210320FBF718FB724B187057
:1058C000FDF781B9694B01221A701444684B1C60C2
:1058D0006D4B00221A70FDF776B9644B1B78002BD4
:1058E0003AD06A4A136801331360312B7DF76BA9F4
:1058F000604D0DF11603039300240294019400956A
:105900000DAB224621462846FCF78EFA5A4E52A38A
:10591000D3E90023C6E9002300225D4BD5E902014B
:10592000FAF71CFCC6E90201544B4DA7D7E9006702
:10593000C3E90067C3E90201234604E0504A1A4460
:105940000F2151700133072BF8DD00234F4A1360FC
:10595000464A1370FDF737B90123019300230093E2
:1059600000224C4B45494448FCF762FD454B1870FA
:1059700003287DF428A93D4B01221A703C4A136884
:1059800001331360FDF71FB9434A537843F03403E2
:1059900053703D4B1B78012B07D000210220FBF7F1
:1059A000A5FA394B1870FDF70EB9304B01221A7069
:1059B00014442F4B1C60344B00221A70FDF703B9BE
:1059C000364B1B781BB12E4B0B22DA711A72344BFB
:1059D0001B78B3B1334B1B78DBB1324B1B78002BF8
:1059E0003DF4F1A82E4B1B78002B3DF4ECA80121CF
:1059F000B420FCF7ADF80221AF20FCF7A9F8FDF7C1
:105A0000E2B8FCF76FF80028E4D1254B01221A70A8
:105A1000E0E7FCF781F80028DFD1224B01221A7061
:105A2000DBE714480DF11603039300210291019165
:105A300000900DAB0A46FCF7F7F9034600283DF449
:105A4000C7A8FDF70AB900BF00000000009CB840DD
:105A5000000000000070A7400000000000589BC03C
:105A60000000000000F4AAC0AB03002002000020E8
:105A7000CC030020E0030020A0040020B00400209C
:105A8000300000200400002020030020D00300206C
:105A90000000494000409F402C00002001000020F1
:105AA0009103002090030020464B1A78464B53F890
:105AB0002210464803F0FAFA454B1B78002B57D1C9
:105AC000444803F0F3FA4FF48051012003F0CEF97B
:105AD000002851D1404803F0E9FA0421012003F0E5
