:020000040800F2
:1000000000500020A59F0008395F00083B5F0008F2
:100010003D5F00083F5F0008415F000800000000EE
:10002000000000000000000000000000435F000826
:10003000455F000800000000475F0008495F0008B6
:10004000ED9F0008ED9F0008ED9F0008ED9F000860
:10005000ED9F0008ED9F0008ED9F0008ED9F000850
:10006000ED9F0008ED9F0008ED9F0008ED9F000840
:10007000ED9F0008715F0008A15F0008B15F0008F4
:10008000ED9F0008615F0008ED9F0008ED9F0008EC
:10009000ED9F0008ED9F0008ED9F0008ED9F000810
:1000A000ED9F0008C18D0008ED9F0008ED9F00083E
:1000B000D18D0008ED9F0008ED9F0008ED9F00081E
:1000C000ED9F0008ED9F0008ED9F0008ED9F0008E0
:1000D000ED9F0008ED9F0008915F0008815F000818
:1000E000ED9F0008ED9F0008ED9F00080000000054
:1000F0000000000000000000000000000000000000
:0C01000000000000000000005FF808F1A3
:1001100010B5054C237833B9044B13B10448AFF341
:1001200000800123237010BDF002002000000000B9
:1001300068B7000808B5034B1BB103490348AFF388
:10014000008008BD00000000F402002068B700082D
:1001500081F0004102E000BF83F0004330B54FEA78
:1001600041044FEA430594EA050F08BF90EA020FE5
:100170001FBF54EA000C55EA020C7FEA645C7FEA78
:10018000655C00F0E2804FEA5454D4EB5555B8BF9B
:100190006D420CDD2C4480EA020281EA030382EA0C
:1001A000000083EA010180EA020281EA0303362D9E
:1001B00088BF30BD11F0004F4FEA01314FF4801C71
:1001C0004CEA113102D0404261EB410113F0004F83
:1001D0004FEA03334CEA133302D0524263EB43033A
:1001E00094EA050F00F0A780A4F10104D5F1200ED8
:1001F0000DDB02FA0EFC22FA05F2801841F1000133
:1002000003FA0EF2801843FA05F359410EE0A5F106
:1002100020050EF1200E012A03FA0EFC28BF4CF037
:10022000020C43FA05F3C01851EBE37101F00045ED
:1002300007D54FF0000EDCF1000C7EEB00006EEBFA
:100240000101B1F5801F1BD3B1F5001F0CD3490884
:100250005FEA30004FEA3C0C04F101044FEA4452DB
:1002600012F5800F80F09A80BCF1004F08BF5FEA62
:10027000500C50F1000041EB045141EA050130BD42
:100280005FEA4C0C404141EB010111F4801FA4F1E5
:100290000104E9D191F0000F04BF01460020B1FA3A
:1002A00081F308BF2033A3F10B03B3F120020CDA72
:1002B0000C3208DD02F1140CC2F10C0201FA0CF050
:1002C00021FA02F10CE002F11402D8BFC2F1200CB5
:1002D00001FA02F120FA0CFCDCBF41EA0C0190406B
:1002E000E41AA2BF01EB0451294330BD6FEA0404B4
:1002F0001F3C1CDA0C340EDC04F11404C4F120029F
:1003000020FA04F001FA02F340EA030021FA04F3B0
:1003100045EA030130BDC4F10C04C4F1200220FA07
:1003200002F001FA04F340EA0300294630BD21FA45
:1003300004F0294630BD94F0000F83F4801306BF0B
:1003400081F480110134013D4EE77FEA645C18BFFF
:100350007FEA655C29D094EA050F08BF90EA020F96
:1003600005D054EA000C04BF1946104630BD91EA8E
:10037000030F1EBF0021002030BD5FEA545C05D191
:100380004000494128BF41F0004130BD14F58004D0
:100390003CBF01F5801130BD01F0004545F0FE4144
:1003A00041F470014FF0000030BD7FEA645C1ABF79
:1003B000194610467FEA655C1CBF0B46024650EAB0
:1003C000013406BF52EA033591EA030F41F40021DC
:1003D00030BD00BF90F0000F04BF0021704730B562
:1003E0004FF4806404F132044FF000054FF0000137
:1003F00050E700BF90F0000F04BF0021704730B5F8
:100400004FF4806404F1320410F0004548BF4042CC
:100410004FF000013EE700BF42004FEAE2014FEA21
:1004200031014FEA02701FBF12F07F4393F07F4FFC
:1004300081F06051704732F07F4208BF704793F0FF
:100440007F4F04BF41F40021704730B54FF4607412
:1004500001F0004521F000411CE700BF50EA010215
:1004600008BF704730B54FF000050AE050EA0102BE
:1004700008BF704730B511F0004502D5404261EB2E
:1004800041014FF4806404F132045FEA915C3FF46F
:10049000D8AE4FF003025FEADC0C18BF03325FEA0C
:1004A000DC0C18BF033202EBDC02C2F1200300FABD
:1004B00003FC20FA02F001FA03FE40EA0E0021FAE2
:1004C00002F11444BDE600BF70B54FF0FF0C4CF4D0
:1004D000E06C1CEA11541DBF1CEA135594EA0C0F82
:1004E00095EA0C0F00F0DEF82C4481EA030621EABD
:1004F0004C5123EA4C5350EA013518BF52EA0335F8
:1005000041F4801143F4801338D0A0FB02CE4FF0A9
:100510000005E1FB02E506F00042E0FB03E54FF0D9
:100520000006E1FB03569CF0000F18BF4EF0010ED1
:10053000A4F1FF04B6F5007F64F5407404D25FEACD
:100540004E0E6D4146EB060642EAC62141EA555180
:100550004FEAC52040EA5E504FEACE2EB4F1FD0CC2
:1005600088BFBCF5E06F1ED8BEF1004F08BF5FEA40
:10057000500E50F1000041EB045170BD06F00046F2
:1005800046EA010140EA020081EA0301B4EB5C049F
:10059000C2BFD4EB0C0541EA045170BD41F4801197
:1005A0004FF0000E013C00F3AB8014F1360FDEBFBC
:1005B000002001F0004170BDC4F10004203C35DA98
:1005C0000C341BDC04F11404C4F1200500FA05F31B
:1005D00020FA04F001FA05F240EA020001F00042BC
:1005E00021F0004110EBD37021FA04F642EB060132
:1005F0005EEA430E08BF20EAD37070BDC4F10C045C
:10060000C4F1200500FA04F320FA05F001FA04F21F
:1006100040EA020001F0004110EBD37041F100010B
:100620005EEA430E08BF20EAD37070BDC4F1200516
:1006300000FA05F24EEA020E20FA04F301FA05F27E
:1006400043EA020321FA04F001F0004121FA04F226
:1006500020EA020000EBD3705EEA430E08BF20EAF6
:10066000D37070BD94F0000F0FD101F00046400030
:1006700041EB010111F4801F08BF013CF7D041EAB2
:10068000060195F0000F18BF704703F000465200B6
:1006900043EB030313F4801F08BF013DF7D043EA87
:1006A0000603704794EA0C0F0CEA135518BF95EA3D
:1006B0000C0F0CD050EA410618BF52EA4306D1D1C4
:1006C00081EA030101F000414FF0000070BD50EAE3
:1006D000410606BF1046194652EA430619D094EA6D
:1006E0000C0F02D150EA013613D195EA0C0F05D157
:1006F00052EA03361CBF104619460AD181EA0301AB
:1007000001F0004141F0FE4141F470014FF0000062
:1007100070BD41F0FE4141F4780170BD70B54FF0FD
:10072000FF0C4CF4E06C1CEA11541DBF1CEA13557D
:1007300094EA0C0F95EA0C0F00F0A7F8A4EB05045F
:1007400081EA030E52EA03354FEA013100F0888056
:100750004FEA03334FF0805545EA131343EA12631F
:100760004FEA022245EA111545EA10654FEA0026D4
:100770000EF000419D4208BF964244F1FD0404F58D
:10078000407402D25B084FEA3202B61A65EB0305E9
:100790005B084FEA32024FF480104FF4002CB6EBA6
:1007A000020E75EB030E22BFB61A754640EA0C0026
:1007B0005B084FEA3202B6EB020E75EB030E22BF66
:1007C000B61A754640EA5C005B084FEA3202B6EBA7
:1007D000020E75EB030E22BFB61A754640EA9C0066
:1007E0005B084FEA3202B6EB020E75EB030E22BF36
:1007F000B61A754640EADC0055EA060E18D04FEAF4
:10080000051545EA16754FEA06164FEAC30343EA93
:1008100052734FEAC2025FEA1C1CC0D111F4801F60
:100820000BD141EA00014FF000004FF0004CB6E759
:1008300011F4801F04BF01430020B4F1FD0C88BFF8
:10084000BCF5E06F3FF6AFAEB5EB030C04BFB6EB03
:10085000020C5FEA500C50F1000041EB045170BDF6
:100860000EF0004E4EEA113114EB5C04C2BFD4EB23
:100870000C0541EA045170BD41F480114FF0000EA7
:10088000013C90E645EA060E8DE60CEA135594EA23
:100890000C0F08BF95EA0C0F3FF43BAF94EA0C0F26
:1008A0000AD150EA01347FF434AF95EA0C0F7FF49B
:1008B00025AF104619462CE795EA0C0F06D152EAEF
:1008C00003353FF4FDAE1046194622E750EA4106D3
:1008D00018BF52EA43067FF4C5AE50EA41047FF4E4
:1008E0000DAF52EA43057FF4EBAE12E74FF0FF3C49
:1008F00006E000BF4FF0010C02E000BF4FF0010C1A
:100900004DF804CD4FEA410C7FEA6C5C4FEA430C92
:1009100018BF7FEA6C5C1BD001B050EA410C0CBFE1
:1009200052EA430C91EA030F02BF90EA020F002043
:10093000704710F1000F91EA030F58BF994208BFAA
:1009400090422CBFD8176FEAE37040F00100704767
:100950004FEA410C7FEA6C5C02D150EA013C07D1BE
:100960004FEA430C7FEA6C5CD6D152EA033CD3D009
:100970005DF8040B704700BF8446104662468C4603
:100980001946634600E000BF01B5FFF7B7FF002836
:1009900048BF10F1000F01BD4DF808EDFFF7F4FF5F
:1009A0000CBF012000205DF808FB00BF4DF808EDEA
:1009B000FFF7EAFF34BF012000205DF808FB00BF0D
:1009C0004DF808EDFFF7E0FF94BF012000205DF82F
:1009D00008FB00BF4DF808EDFFF7CEFF94BF0120E4
:1009E00000205DF808FB00BF4DF808EDFFF7C4FFDD
:1009F00034BF012000205DF808FB00BF4FEA410230
:100A000012F5001215D211D56FF47873B3EB625260
:100A100012D94FEAC12343F0004343EA505311F087
:100A2000004F23FA02F018BF404270474FF0000019
:100A3000704750EA013005D111F0004008BF6FF057
:100A4000004070474FF00000704700BF4FEA410C74
:100A50007FEA6C5C02D150EA013C0AD14FEA430CB8
:100A60007FEA6C5C02D152EA033C02D14FF00000F5
:100A700070474FF0010070472DE9F04F85B0814677
:100A80000D4614469B460E9F0F9E9DF840A09DF874
:100A90004480D1E90023CDE90223A149D1E9000135
:100AA000FFF77AFFB8B1D5E902239D49D1E90201E8
:100AB000FFF772FF78B1D4E900239A49D1E9000128
:100AC000FFF76AFF38B1D4E902239649D1E9020160
:100AD000FFF762FFA0B9944B01221A709049DDE93B
:100AE0000223C1E90023D5E90223C1E90223D4E9A5
:100AF00000238C49C1E90023D4E90223C1E9022380
:100B0000B8F1030F0BD8DFE808F002717A83DBE954
:100B10000023D4E90001FFF71FFBCDE90001824B60
:100B20001B783BB1814BDDE90012C3E900127E4B1B
:100B300000221A70BAF1000F00F0D880DDE900AB96
:100B400052465B467949D1E90001FFF705FB0446AF
:100B500021F000450022764B50465946FFF744FFEE
:100B6000002879D00022724B20462946FFF728FF43
:100B7000002856D000226E4B20462946FFF7CEFDB6
:100B800000226C4BFFF7E8FA04460D463A4633461E
:100B9000FFF79AFC02460B4620462946FFF794FCD5
:100BA00002460B465AA1D1E90001FFF7D5FA3A46B1
:100BB0003346FFF7D3FAC9E9000155A3D3E900236F
:100BC000FFF7FEFE20B152A3D3E90023C9E90023B9
:100BD0003A463346D9E90001FFF706FF002874D0F2
:100BE0003A463346C9E9002300241FE0D4E9002334
:100BF000DBE90001FFF7B0FACDE900018FE7DBE99F
:100C00000223D4E90201FFF7A7FACDE9000186E744
:100C1000D4E90223DBE90201FFF79EFACDE90001E6
:100C20007DE73A463346C9E9002301240022424BBE
:100C300038463146FFF7CEFE00284AD000223F4B0F
:100C4000DDE90001FFF7BCFE00285BD00022002395
:100C5000C9E90023032455E006F100480022344B83
:100C6000DDE90001FFF75AFD2BA3D3E90023FFF7CD
:100C700073FA04460D4602460B4638464146FFF7D6
:100C800023FC02460B4620462946FFF71DFC3A4648
:100C90003346FFF763FAC9E900011DA3D3E9002336
:100CA000FFF78EFE20B11AA3D3E90023C9E9002380
:100CB0003A463346D9E90001FFF796FE38B13A4685
:100CC0003346C9E900230224B0E70024AEE702243A
:100CD000ACE700221A4BDDE90001FFF771FE88B195
:100CE00000220023C9E9002303240BE00022154B56
:100CF000DDE90001FFF764FE30BB3A463346C9E93F
:100D000000230124204605B0BDE8F08FAFF300803A
:100D10000000000000E89C40666666666666F23F7A
:100D200050040020700400200000002098030020E0
:100D300000408F400000F03F0040AF4000005440B2
:100D4000000049400000244000220023C9E900239C
:100D50000324D7E710B402EBD2735B105C4221444A
:100D6000401A824203DC90FBF2F302FB13000028DE
:100D700002DB204410BC70470028B8BF4042101A64
:100D8000F7E70000002309E0590019444800054A2C
:100D9000024400215180032111710133062BF3DD40
:100DA000002070473C000020034B0020D881032224
:100DB0001A7498829A7570473C000020F0B40024A1
:100DC00007E0E300C5180B44D3E90067C5E90067F5
:100DD00001349442F5DBF0BC7047000010B50446C6
:100DE000012819D018B102282AD000202DE04FF494
:100DF0008051012007F03CFF38B1144B01221A77D3
:100E000041F288325A8320461FE0104B03221A77A2
:100E100000225A83022018E00421012007F028FF55
:100E200038B10A4B02221A7741F288325A8320469F
:100E30000BE0064B03221A7700225A83022004E0BB
:100E4000024B03221A7700225A8310BD3C00002077
:100E5000012920D010B504460221012007F008FF27
:100E600010B11F4B01221A701D4B1B78C3B984EAC5
:100E7000E472A2EBE4721B4B1B689A421ED0002C5A
:100E800028DD194B022283F82820174B41F28832C3
:100E9000DA84002010BD134B00221A600220704734
:100EA0000221012007F0E4FE0028E0D10D4A13687A
:100EB000013313600A4B00221A70D8E70A4A032351
:100EC00082F828300023D384064A1360044A137042
:100ED0000120DFE7044B012283F82820D5E700BF7B
:100EE000CC030020800400203C00002008B501292C
:100EF0000AD09F4A1278042A10D8DFE812F01100B5
:100F0000670092000D0145010223994A1370994A26
:100F10001170002298490A6098490A70184608BD65
:100F2000022821D00428F9D1924B1B7833B1944B7D
:100F30001A68914B1A608F4B00221A70904B1B68F5
:100F40008D4A12689B1A41F65832934235D98D4B1F
:100F5000032283F8222000221A84854B04221A706F
:100F60000123844A1370D9E7824B1B7833B1844B39
:100F70001A68814B1A607F4B00221A70804B1B68E5
:100F80007D4A12689B1A40F6AC5293420CD97D4BB5
:100F9000032283F8222000221A84754B02221A7041
:100FA0000123744A1370B9E7764B012283F822209B
:100FB00040F6B8321A840023B0E7724B012283F85E
:100FC000222040F6B8321A840023A7E70228A5D1D0
:100FD000684B1B7833B16A4B1A68674B1A60654BD4
:100FE00000221A70664B1B68634A12689B1A41F212
:100FF000040293420CD9634B032283F8222000227F
:101000001A845B4B02221A7001235A4A137085E737
:101010005C4B012283F8222040F6B8321A84002368
:101020007CE701281BD090B303287FF477AF102111
:10103000022007F01DFE40B1524B022283F822200D
:1010400040F6B8321A84002368E74E4A032382F838
:10105000223000211184464A137001235EE71021DB
:10106000012007F005FE40B1464B022283F8222002
:1010700040F6B8321A84002350E7424B032283F82B
:10108000222000221A840123394A137046E73B4B81
:101090001B78F3B1374B1B7833B1394B1A68364B99
:1010A0001A60344B00221A70354B1B68324A1268A2
:1010B0009B1A502B27D9334B032283F8222000227E
:1010C0001A842B4B1A7001232A490B702B490A7082
:1010D00024E71021012007F0CBFD40B1294B02226B
:1010E00083F8222040F6B8321A84002316E7234BF7
:1010F00001221A70234B022283F8222040F6B832D4
:101100001A8400230AE71F4B022283F8222040F6AC
:10111000B8321A84002301E702287FF4FFAE154B92
:101120001B7833B1164B1A68134B1A60114B00220F
:101130001A70134B1B68104A12689B1A40F2DC525B
:1011400093420CD90F4B032283F8222000221A84E9
:10115000074B02221A700123064A1370DEE6094B80
:10116000012283F8222040F6B8321A840023D5E603
:101170000500002006000020BC040020B804002068
:10118000080C00203C00002002287FF4C7AE144B5E
:101190001B7833B1134B1A68134B1A60104B0022A3
:1011A0001A70104B1B68104A12689B1A40F6C41242
:1011B000934208D80D4B022283F8222040F6B83221
:1011C0001A840023AAE6094B032283F82220002276
:1011D0001A84074B02221A700123014A13709DE6FC
:1011E00006000020080C0020BC0400203C00002069
:1011F0000500002070B50D469DF810600599012985
:1012000007D045490968032918D8DFE801F00E190D
:10121000495B0024414B1C70414B1C700846FFF792
:1012200065FE3D4B1C60022408E03E4A537843F0C3
:10123000340353700131384B19600024204670BDCF
:1012400036490978012910D03AB100210120FFF771
:101250004DFE324B18700024F0E700210846FFF7DE
:1012600045FE2E4B18700024E8E762B123B12D4AE9
:10127000537823F02003537056B12A4A537823F051
:101280001003537004E0274A537803F0CB035370E4
:101290000024224B1C70204A136801331360CDE7F1
:1012A0001E4B1B78012B06D100241C4B1C700131F6
:1012B000194B1960C2E70021FFF718FE174B187091
:1012C0000024BBE716490978012900D06DB9A2B105
:1012D00023B1144A537823F02003537096B1114A76
:1012E000537823F0100353700CE000212846FFF7D9
:1012F000AFFD0B4B18700024A0E70A4A537803F0A7
:10130000CB0353700023064A1370044A1370024A39
:101310001360012492E700BFBC03002021030020DA
:10132000C60400202C0000202DE9F04383B00446C1
:101330000E4603287FD8DFE800F00221405F89498C
:101340004B7B887B03EB0023C87B03EB0043097CCA
:1013500003EB016384490D681D44002E6ED0012EFD
:1013600003D0022E06D0002769E05B420B60002705
:101370003D4664E07D4B1F68EF1B60E079494B7C84
:10138000887C03EB0023C87C03EB0043097D03EB5F
:10139000016375494D681D44002E73D0012E03D0A2
:1013A000022E06D000274AE05B424B6000273D46F4
:1013B00045E06E4B5F68EF1B41E06A498B78C87867
:1013C00003EB0023087903EB0043497903EB016346
:1013D00065498D681D44002E56D0012E03D0022E83
:1013E00006D000272BE05B428B6000273D4626E0BD
:1013F0005E4B9F68EF1B22E05A498B79C87903EB5B
:101400000023087A03EB0043497A03EB0163564952
:10141000CD681D44002E39D0012E03D0022E06D0F7
:1014200000270CE05B42CB6000273D4607E04F4BB6
:10143000DF68EF1B03E000273D4600E00027022E97
:1014400026D04A4B43F82450494B1968494A42F880
:1014500024101A68484BA3FB02135B09642101FBAB
:101460001323092B08D8012E06D0444B1B68022BEE
:1014700054DC0133414A1360022E5ED0284603B08B
:10148000BDE8F0830027DAE70027D8E70027D6E792
:1014900040F2DB539A421EDD1046FEF7ABFF0022FE
:1014A000374BFFF73BF980468946314B1868314B83
:1014B00053F82430C01AFEF78DFF02460B46404613
:1014C0004946FFF701F8FFF799FA844677B9274BA9
:1014D00043F82450B8E7264B1B68264A52F82420CC
:1014E0009B1A4FF4967C0CFB03FCEFE787EAE7734B
:1014F000A3EBE77363450DDD00231C4A42F824305B
:1015000004E0204A1A44092151700133072BF8DD09
:10151000002799E7154B43F8245095E71348836853
:1015200042680168CDF804C0C0680090164807F012
:10153000BFFC124B00221A609EE70D4B1A680E4B3F
:10154000A3FB02135B09642101FB1323092B01D9BF
:101550003D4693E72B463A4621460C4807F0A8FC47
:101560003D468BE7680000200C030020300400207B
:10157000080C0020200400201F85EB51B40300203C
:1015800000001A40300000206CB80008A4B8000821
:101590002DE9F04F89B006468A46CDE90423DDF8EF
:1015A0004880149C9DF85450AB1EDBB2012B1DD912
:1015B000D4E90223D8E90201FEF7CEFD029021F022
:1015C0000047D4E90423CDE90023A44B1A68A44BB7
:1015D000A3FB02135B09642101FB1323092B1FD911
:1015E000032D4CD8DFE805F033647D94D8E900235F
:1015F000CDE90023D4E90012CDE902120022002334
:10160000D4E90201FEF760FFDDE90223FEF7A4FD45
:10161000DDE90023FEF7A2FD029021F00047D0E7AC
:10162000DDE9000108F02CFDCDE9060102983946FC
:1016300008F026FDFFF7E2F98146DDE90601FFF734
:10164000DDF94A460146874807F032FCC8E7D4E98D
:101650000223D8E90201FEF77FFD04460D46002271
:101660000023FFF7A3F9002869D1002200232046B8
:101670002946FFF7B9F9002864D04FF0000B00228B
:10168000794B02983946FFF7AFF9002800F06981DD
:10169000BBF1010F00F0C180BBF1000F67D0BBF1BF
:1016A000020F00F026810024A1462546A04672E1E3
:1016B000D4E90223D8E90201FEF74EFD04460D46A7
:1016C00000220023FFF772F900283ED100220023F8
:1016D00020462946FFF788F9002839D04FF0010B42
:1016E000CDE7D4E90023D8E90001FEF735FD044633
:1016F0000D4600220023FFF759F960BB00220023AA
:1017000020462946FFF770F940B34FF0010BB6E7CA
:10171000D4E90023D8E90001FEF71EFD04460D467A
:1017200000220023FFF742F9D8B900220023204607
:101730002946FFF759F9B8B14FF0000B9FE74FF07A
:10174000010B9CE74FF0020B99E74FF0000B96E777
:101750004FF0020B93E74FF0000B90E74FF0020BB6
:101760008DE74FF0010B8AE74FF0020B87E7DDF8BA
:10177000088042463B4640463946FEF7EFFC0446A9
:101780000D460022394BFFF71BF978B90022384B80
:1017900020462946FFF71EF950BB0022354B404634
:1017A0003946FEF791FE0546884602E00025DFF83F
:1017B000CC8000220023DDE90001FFF715F968B1B4
:1017C00000222D4BDDE90001FEF77EFE02460B46AE
:1017D00028464146FEF7C2FC054688460022002303
:1017E000DDE90001FFF7E2F830B90024A146D2E0BC
:1017F0000025DFF87C80DCE700221F4BDDE90001DB
:10180000FEF762FE02460B4628464146FEF7A4FC60
:10181000054688460024A146BDE0DDF80880424622
:101820003B4640463946FEF799FC04460D460022E9
:101830000E4BFFF7C5F818BB00220D4B204629467A
:10184000FFF7C8F8002840D100220A4B404639462D
:10185000FEF73AFE0446894615E000BF080C00205A
:101860001F85EB5104BA00080000144000005940E5
:1018700000C082400000084000405F4000C062405D
:101880000024DFF8549200220023DDE90001FFF775
:101890008DF8F0B900220023DDE90001FFF7A4F87C
:1018A000002800F0E1800022854BDDE90001FEF711
:1018B0000BFE024621F0004320464946FEF74CFC51
:1018C000044689460025A84665E00024DFF80C920E
:1018D000D9E700227A4BDDE90001FEF7F5FD02466B
:1018E00021F0004320464946FEF738FC044689466D
:1018F000D0E700220023DDE9004520462946FFF716
:1019000073F880B16AA3D3E9002320462946FEF785
:10191000DBFD69A3D3E90023FEF720FC05468846DA
:101920000024A14637E000220023DDE90001FFF793
:101930003DF820B90024A1462546A0462BE05CA333
:10194000D3E90023DDE90001FEF7BEFD5AA3D3E988
:101950000023FEF703FC044621F000490025A846B9
:1019600019E000220023DDE9004520462946FFF763
:101970003BF800285AD04EA3D3E90023204629463D
:10198000FEF7A2FD4CA3D3E90023FEF7E7FB0546D3
:1019900088460024A14600224A4B284628F00041F0
:1019A000FFF722F850B10022002328464146FFF7F6
:1019B0001BF800285BD00025DFF808810022414B8E
:1019C000204629F00041FFF70FF850B10022002314
:1019D00020464946FFF708F800284CD00024DFF8DD
:1019E000E4900022384BDDE90401FEF797FECDE9D3
:1019F00004012A464346FEF767FDC6E90001224678
:101A00004B46DDE90401FEF75FFDCAE900012F4BFB
:101A10001A682F4BA3FB02135B09642101FB1323FC
:101A2000092B2CD9002009B0BDE8F08F002200233B
:101A3000DDE90001FEF7BAFF20B90024A1462546E2
:101A4000A046A8E71AA3D3E90023DDE90001FEF7C9
:101A50003BFD19A3D3E90023FEF780FB044621F0E8
:101A600000490025A84696E70025A84693E70025EB
:101A7000DFF86C80A2E70024DFF86490B1E7DDE9CD
:101A8000000108F0FDFA04460D460298394608F0B8
:101A9000F7FAFEF7B3FF064620462946FEF7AEFFEB
:101AA0005B46324601460B4807F002FABAE700BF30
:101AB0000000000000C062400000000000C0524072
:101AC00000405F4000908A4000408F40080C00209A
:101AD0001F85EB5124BA000800C0624000C082405C
:101AE00000908AC010B50221002007F0C1F840B173
:101AF000084B00241C8103229A7207F0A1FB2046A8
:101B000010BD044B4FF461721A8101229A724FF09A
:101B1000FF30F5E73C00002010B50121002007F060
:101B2000A7F840B1084B00245C8003221A7107F02B
:101B300081FB204610BD044B4FF461725A80012294
:101B40001A714FF0FF30F5E73C0000200000000064
:101B50002DE9F04FB9B082460F46A94C48222146E4
:101B600026A809F0F5FD902204F1480102A809F029
:101B7000EFFD00240094019400E00134082C1EDCE9
:101B80009BA3D3E9002338A901EBC40555E936012D
:101B9000FEF79AFC45E93601022CEEDD002099495A
:101BA00038AB03EBC40343E9360104F1090338AA57
:101BB00002EBC3030020944943E93601DDE71FB976
:101BC00002230193009CBDE0012F06D0022FF9D122
:101BD0000123009302230193F4E701230193F1E72A
:101BE00007F01CFB0646B6E007F01EFB0646B2E017
:101BF000002DB8BF6D42C5F50065C2E004EBC4031B
:101C00001A440CEBC20252E9368900284EDD4046E8
:101C1000494608F035FAFEF7F1FE04EB44035A009A
:101C20007A4B134458800022002340464946FEF771
:101C3000B3FE80B304EB44035A00744B13440322F5
:101C40001A71734B01221A55002F58D1704B1B7813
:101C5000002B66D06E4B5B78002B40F099804FF0E4
:101C6000000B60E00132082ACFDC80EAE071A1EBD2
:101C7000E07104EBC40313440DF1E00C0CEB83039F
:101C800053F8483C9942B9DA082AEBD14FF00008E2
:101C90004FF00009E6E704EB44035A005B4B1344A2
:101CA00001221A715A4B00221A55CDE74046494687
:101CB00008F0E6F9FEF7A2FE04EB44035A00534B8A
:101CC000134458800022002340464946FEF764FE34
:101CD00050B104EB44035A004C4B134403221A71D5
:101CE0004B4B01221A55AFE704EB44035A00474B14
:101CF000134402221A71464B00221A55A4E7012F01
:101D000008D0022F0FD1424B5B78002B46D04FF00A
:101D1000010B08E03E4B1B78002B3CD04FF0010B31
:101D200001E04FF0000B3B4B1A683B4BA3FB021347
:101D30005B09642101FB1323092B02D88CB3012C0E
:101D400040D00134019BA3424DDD002C3FF448AF4D
:101D5000012C3FF449AF7342C6F30A05C3F30A03EB
:101D600058BF5D425046FEF745FB23A3D3E900234D
:101D7000FEF7AAFB08F084F9FEF740FE002DFFF6FF
:101D800037AF4FF400622946FEF7E4FF00226AE70E
:101D90004FF0010BC7E74FF0000BC4E74FF0000B0B
:101DA000C1E72846FEF726FB00221C4BFEF78CFB02
:101DB00008F066F9FEF722FE52460146184807F081
:101DC00077F8BEE72846FEF715FB0022134BFEF717
:101DD0007BFB08F055F9FEF711FE5246014611480B
:101DE00007F066F8ADE7584639B0BDE8F08F00BFA0
:101DF000713D0AD7A370ED3F176CC1166CC1164038
:101E000080B7000800B08D4000208C403C000020CE
:101E1000C0030020080C00201F85EB510080C63F46
:101E20007CBA000898BA00082DE9F04F9FB09DF8E1
:101E3000A4709DF8A850012976D01E460446002AB9
:101E400040F09880A04B1B78002B37D19F4B8EA180
:101E5000D1E90001C3E900018DA1D1E90001C3E985
:101E600002018DA1D1E90001C3E904018CA1D1E9EE
:101E70000001C3E906014FF00008DFF87492C3E9DE
:101E8000088900200021C3E90A01C3E90C89C3E9DC
:101E90000E0185A1D1E90001C3E9100184A1D1E9B6
:101EA0000001C3E912010FF21029D9E90089C3E941
:101EB0001489C3E91601844B01221A70844B9B8A52
:101EC0001BB9834AD289002A56D0814AD089184446
:101ED000FEF790FA00227F4BFEF7F6FAFEF78EFD32
:101EE0000646002F5ED10025032D47DC7A4B324693
:101EF00002212846FFF718FA1EAB03EB850343F8CF
:101F0000580C0135F0E7CA00831800240025C3E906
:101F10000045724B1344C3E9004501310229F2DD4B
:101F200000201FB0BDE8F08F0021F7E7D7E90001DE
:101F30006A4B03EBC503C3E900010135022DEFDC59
:101F4000735D002BF9D0EB00289AD7182344D7E90A
:101F50000001C3E90001012DE8D859A3D3E900230A
:101F6000D7E90001FEF7B0FA5C4B03EBC503C3E908
:101F70000001E2E70025E1E70026B2E7564B1B78B7
:101F800073B9002746E11EAA02EB8302002142F842
:101F9000581C0133032BF6DD4F4B00221A70F0E77B
:101FA0000023F7E7032DECD8DFE805F0A4A4020234
:101FB0004B4B324602210020FFF7B6F90746089046
:101FC000484D2B46002202210120FFF7ADF9099070
:101FD000454B324602210846FFF7A6F906460A900D
:101FE000424B002202210320FFF79EF90B902A7832
:101FF00012B93E4B1B7813B1002309930B93384B56
:102000001B78B3B13849097899B908960ABB374BA0
:102010001B7833BB324B1B785BBB334B1B78002BDD
:10202000AFD00DF11F03002201210220FFF77CF940
:10203000A7E723B92C49097809B10A97E6E7002BED
:10204000E4D0294B1B78002BE0D0002308930A939F
:10205000DCE70DF11F03002201210846FFF764F9B8
:10206000D5E70DF11F03002201210320FFF75CF9E2
:10207000D0E70DF11F03002201211046FFF754F9AC
:10208000CBE700BFAFF300800A5D4647DB93ACBFF0
:102090007362E6D02773E1BF0A5D4647DB93AC3F2E
:1020A0001A3B335EB019DD3FCD7E4F03344AD33F38
:1020B0004A1B3DA0F550CF3FCD7E4F03344AD3BFDE
:1020C00004B6B7E795294B40B10300202803002050
:1020D0003C0000200000E03F9203002008040020A4
:1020E0009603002093030020950300209403002012
:1020F0000000E0BF9E4B002202211046FFF714F9BA
:1021000008909C4B324602210120FFF70DF907464B
:102110000990994D2B46002202210846FFF704F949
:102120000A90964B324602210320FFF7FDF80B90F0
:102130002B7813B98E4B1B7813B1002308930A93A5
:102140008E4B1B78D3B18B4A1278BAB97F420B976A
:10215000884B1B781BBB894B1B7843BB844B1B787C
:102160006BBB854B1B78002B3FF40BAF0DF11F03AE
:10217000002201210220FFF7D7F802E72BB97D4AA0
:10218000127812B140420990E2E7002BE0D0794B7F
:102190001B78002BDCD0002309930B93D8E70DF1BB
:1021A0001F03002201210846FFF7BEF8D3E70DF117
:1021B0001F03002201210320FFF7B6F8CEE70DF13F
:1021C0001F03002201211046FFF7AEF8C9E705EB17
:1021D00087026B4B03EBC203D3E900891EAB03EB11
:1021E000850353F8580CFEF705F902460B464046A6
:1021F0004946FEF769F902460B461EA901EBC706E0
:1022000056E90601FDF7AAFF46E906010135032D4F
:10221000DDDD0137022F08DC002000211EAB03EBBF
:10222000C70343E906010025F1E7564BD3E90467EC
:10223000DDE91C2330463946FDF790FFCDE9160154
:1022400045A3D3E9002330463946FEF73DF944A3C0
:10225000D3E90023FEF738F943A3D3E9002307F0BD
:10226000A5FF814688463EA3D3E90023484628F0CF
:102270000041FEF7AFFB80B10022002348464146F3
:10228000FEF7A8FB00285CD037A3D3E9002348461B
:102290004146FDF761FF814688463A4DD5E9006722
:1022A000DDE918AB4846414607F0A2FECDE9000142
:1022B00002460B4650465946FEF706F902460B46C3
:1022C00030463946FDF74AFFCDE90401DDE91A67DA
:1022D0004846414607F022FF02460B46CDE902235D
:1022E00030463946FEF7F0F802460B46DDE90401B8
:1022F000FDF734FFCDE91201D5E90289DDE90223BA
:1023000050465946FEF7E0F802460B46404649461D
:10231000FDF722FF8046894632463B46DDE9000153
:10232000FEF7D2F802460B4640464946FDF716FF37
:10233000CDE91401032212A92846FEF73FFD00252E
:102340002FE009A3D3E9002348464146FDF706FFE5
:1023500081468846A1E700BF682FA1BD84F6F23E02
:10236000182D4454FB210940182D4454FB211940D9
:10237000960300209303002095030020940300207F
:1023800028030020080400201EAB03EBC50638A379
:10239000D3E9002356E90C01FEF796F846E912014D
:1023A0000135012DF0DD34A3D3E90023DDE9160169
:1023B000FEF78AF8CDE910010022314B07F0F6FE56
:1023C00006460D4602460B46CDE9102300222D4B52
:1023D000304625F00041FEF7FDFA78B100220023D7
:1023E00030462946FEF7F6FA002835D00022244B65
:1023F00030462946FDF7B0FECDE9100103220CA9B5
:102400002046FEF7DBFC204B1A68204BA3FB02138F
:102410005B09642101FB1323092B3FF681ADD4E94D
:102420000067D4E902890022194BD4E90401FEF7C0
:102430004BF8FEF7E3FA054640464946FEF7DEFA5A
:10244000044630463946FEF7D9FA2B462246014665
:10245000104806F02DFD63E50022094B3046294661
:10246000FDF77CFECDE91001C8E700BFAFF30080A7
:10247000D221337F7CD9923FABAAAAAAAAAA6A3FEB
:102480000080764000806640080C00201F85EB51DC
:102490000000594050BA00082DE9F04F8FB0824635
:1024A0008B46CDE90423D0E9004522462B467849E6
:1024B000D1E90001FEF770FAC0B1DAE902237449EC
:1024C000D1E90201FEF768FA80B1DBE90023714926
:1024D000D1E90001FEF760FA40B1DBE902236D4962
:1024E000D1E90201FEF758FA002833D16A4B0122E4
:1024F0001A70674BC3E90045DAE90289C3E902892A
:10250000DBE90001634BC3E90001DBE90267C3E9D2
:10251000026722462B46FDF71FFE04460D460022A9
:102520000023FEF739FA30B342464B46304639466F
:10253000FDF712FE00220023FEF74CFAB8B1574B0C
:1025400002221A70002200235549C1E9002355498F
:10255000C1E90023504B1B78002B00F091804F4BBA
:102560001B78032B28D8DFE803F0556C21404B4B38
:1025700003221A70E6E742464B4630463946FDF7DD
:10258000EBFD00220023FEF707FA0028DAD0002234
:10259000002320462946FEF71DFA18B13F4B0022C2
:1025A0001A70CFE73D4B01221A70CBE73E4B1B78E8
:1025B0006BB13D4B5B788BB13B4B1B78012B40F0F3
:1025C0005981394B5B78012B52D0042530E1012130
:1025D000B420FFF7BDFA344B1870EAE70221AF20B0
:1025E000FFF7B6FA304B5870E6E72F4B1B7853B124
:1025F0002D4B5B78002BDFD10221AF20FFF7A8FA2B
:10260000294B5870D8E70121B420FFF7A1FA264BD7
:102610001870EDE7244B1B785BB1234B5B78002BE4
:10262000CAD1022140F20910FFF792FA1E4B5870EE
:10263000C2E701214FF48770FFF78AFA1A4B18702E
:10264000EBE7194B1B785BB1174B5B78002BB3D1D1
:10265000022140F20910FFF77BFA134B5870ABE7E9
:1026600001214FF48770FFF773FA0F4B1870EBE7F7
:102670000023094A13700C4A137053700425D7E0E5
:10268000064B1B78032B19D8DFE803F099A41090B0
:102690004004002060040020A0030020B8030020B4
:1026A00088040020A8030020940400200121B32006
:1026B000FFF74EFA0221B020FFF74AFA704C714E34
:1026C0003378029301230193009407AB0022114653
:1026D0002046FFF7A9FB337803939DF860300293FF
:1026E000DDE90423CDE9002323465A4651460CA8D0
:1026F000FEF7C2F90546337803930294CDF804B08F
:10270000CDF800A0DDE90C2308A90AA8FEF740FFD8
:10271000DDE90C67DDE90A2330463946FDF71EFD89
:1027200080468946584BC3E90089DDE908233046D5
:102730003946FDF713FD06460F46544BC3E90067C3
:102740000022002340464946FEF730F900284CD1CC
:102750000022002330463946FEF728F900284AD1E6
:1027600045A3D3E900234849D1E90001FEF73CF92C
:1027700028B1454B40A1D1E90001C3E900013EA3C6
:10278000D3E900234149D1E90001FEF72DF928B131
:102790003E4B39A1D1E90001C3E90001394B1B7857
:1027A000032B43D8DFE803F0482D2D480121B42046
:1027B000FFF7CEF90221AF20FFF7CAF97EE701212A
:1027C0004FF48770FFF7C4F9022140F20910FFF7B8
:1027D000BFF973E701214FF48770FFF7B9F90221C0
:1027E00040F20910FFF7B4F968E7274B00200021F9
:1027F000C3E90001ACE7254B00200021C3E900013B
:10280000AEE7234C012323740223A3751E4BD3E9A7
:10281000000107F035FCFEF7F1F8E0811B4BD3E92E
:10282000000107F02DFCFEF7E9F8A082032D19D076
:1028300028460FB0BDE8F08F154C02232374012306
:10284000A375124BD3E9000107F01AFCFEF7D6F886
:10285000E0810D4BD3E9000107F012FCFEF7CEF842
:10286000A082E3E70A4B0022DA819A8203221A74DB
:102870009A75DDE70425DBE7000000008087C34090
:10288000F0030020B803002088040020A8030020E3
:102890003C00002008B503F0F5F8002008BD00005A
:1028A000F0B58FB08E4B9B7813F0400F02D18D4B5B
:1028B00001221A708A4B9A785A789B7813F0100F7D
:1028C00002D1894B01221A70854B9B7803F00303D8
:1028D000032B04D0824B9B7813F0010F02D1834B62
:1028E00001221A707E4B9B7803F00303032B01D067
:1028F0007B4B9B787A4B9B7803F00C030C2B04D01A
:10290000774B9B7813F0040F02D1794B01221A7098
:10291000734B9B7803F00C030C2B04D0704B9B780B
:1029200013F0080F02D1734B01221A706C4B5A78C6
:102930005A785A785B784FF40061002006F098F9D5
:1029400010B16D4B01221A702021022006F090F97F
:1029500010B16A4B01221A704FF48051002006F02A
:1029600087F910B1664B01221A704FF48071022072
:1029700006F07EF910B1634B01221A704FF400612A
:10298000002006F075F950B95B4B1B783BB15E4BEC
:1029900001221A7000235D4A1370574A13704FF4D6
:1029A0008071022006F064F950B9564B1B783BB198
:1029B0000023554A1370554A01211170514A137072
:1029C0000121022006F054F900287CD1504B01224D
:1029D0001A70434B9B7803F00303032B13D0404B37
:1029E0009B7813F0010F0ED0404B1B785BB1494A26
:1029F000136801331360042B02DD134600221A60B2
:102A00003A4B00221A70364B9B7803F00C030C2BC8
:102A100007D0334B9B7813F0040F02D0344B1B7854
:102A20003BB92021022006F023F998B9334B1B78DB
:102A300083B1394B1B780B2B49D00133364A1370C5
:102A40000023314A1370314A01211170284A137052
:102A50002A4A1370224B9B7803F00C030C2B07D0EF
:102A60001F4B9B7813F0080F02D0224B1B7843B901
:102A70004FF48051002006F0FBF890B9204B1B78F2
:102A80007BB1254B1B7833BB234B0B221A700023E1
:102A90001D4A13701D4A01211170164A1370184AFD
:102AA00013701D4B1B780B2B41D8DFE813F09116E8
:102AB0009400B400D5000E054F0B8F0BCF0B0F0CFD
:102AC000610C37008A00124B00221A7081E7124B0A
:102AD00000221A70B4E7013B0F4A1370D7E700BF1A
:102AE0000C0C002088030020C4040020C504002032
:102AF00090040020B0030020D0030020CF0300206A
:102B0000CD030020CE030020A403002001000020FC
:102B1000A20300202403002003000020AA4B1B78FE
:102B20001BB1AA4B0022DA711A72FEF72BF9A84BDF
:102B30001B78002B02F07D86A64B5B7813F0080F04
:102B400004D0A44B5B7813F0020F05D14FF48071D1
:102B5000022006F08DF820BB0DF1170300220121A1
:102B60001046FEF7E1FB0DF1170300220121084694
:102B7000FEF7DAFB0DF11703002201210220FEF718
:102B8000D3FB0DF11703002201210320FEF7CCFB3C
:102B9000914800220292019200900DAB0121FFF7B3
:102BA00043F98E4B1A688E4BA3FB02135B09642119
:102BB00001FB1323092B42F27986002318460FB03C
:102BC000F0BD814B1B781BB1804B0022DA711A7269
:102BD000FEF7D8F8ABE77C4B1B7883B9814B1B78A9
:102BE000002BA4D0804B1B78002BA0D00020FEF738
:102BF000F5F802289BD17C4B00221A7097E7734BA3
:102C00000C22DA710A221A720220FEF7E7F8764BDC
:102C100001221A70E2E76C4B1B788BB9714B1B7861
:102C2000002B84D0704B1B78002B80D00120FEF746
:102C3000D5F802287FF47BAF6B4B00221A7076E741
:102C4000624B0C22DA7108221A720220FEF7C6F8D3
:102C5000654B01221A70E1E75B4B1B78BBB9614BF6
:102C60001B78002B3FF463AF604B1C680B2C3FF6C6
:102C70005EAFDFE814F04F00CF009C01FD01410280
:102C80009902F1020D0350036603BA030E04584A79
:102C9000537803F0C30353700DF117030022012191
:102CA0001046FEF741FB0DF11703002201210846F3
:102CB000FEF73AFB0DF11703002201210220FEF777
:102CC00033FB0DF11703002201210320FEF72CFB3B
:102CD000414800240294019400900DAB224601214A
:102CE000FFF7A2F8434B1C60434B1C600125434B8C
:102CF0001D70434B1C70434B1C70FEF743F83B4B5D
:102D00001C6029462846FEF7F1F8304BDD710C2295
:102D10001A72A4E7394B1B78002B37D02E480021BC
:102D20000291019100900DAB0A46FFF77DF83649FC
:102D300000220023C1E90023C1E902233349C1E98C
:102D400000231DA3D3E90023C1E9022304E01F4BA4
:102D5000234403225A700134072CF8DD274B00224C
:102D60001A70284B1B78002B7FF4E1AE00220192F1
:102D7000009213464FF0FF310420FEF73BFA012882
:102D80007FF4D5AE1F4B01221A70D0E601230193C8
:102D900000930BA3D3E900231C491B48FFF77CFBDE
:102DA0001B4B18700328DCD1144B01221A700F4AF8
:102DB000136801331360D4E7000000000044B640FC
:102DC000000000000094B14001000020300000200D
:102DD000030000200C0C0020D8030020080C002069
:102DE0001F85EB51A4030020A1030020C403002091
:102DF0002C000020C80300208C03002002000020CB
:102E000020030020A303002098040020A804002031
:102E100004000020A84B1B7843BBA84B1B68A84AA2
:102E200012689B1A40F6FB018B424BD9A34B1B68DF
:102E30009B1A40F6E3418B426DD9A04B1B689A1A4E
:102E400041F2CB039A4248D80121F020FEF780FEE0
:102E50000221EB20FEF77CFE9A4B02221A7401221B
:102E60009A7540F6AC52DA819A8236E0964D00248B
:102E70000294019400950DAB224621462846FEF7A8
:102E8000D3FF924B00200021C3E90001D5E90201E4
:102E9000C3E902018E4B00268E4FC3E90067C3E9E8
:102EA0000201234604E08C4A1A4402215170013386
:102EB000072BF8DD804B00221A70804B1A68804B7C
:102EC0001A6013E00123019300930022814B804993
:102ED0007E48FFF7E1FA814B1870784B1B68784AFF
:102EE00012689B1A41F2CB0293422DD87C4B1B787F
:102EF000002B7FF41CAE00220192009213464FF08B
:102F0000FF310420FEF776F901287FF410AE744BF0
:102F100001221A700BE6734A537843F0080353708A
:102F200001214FF49670FEF713FE022140F22710A4
:102F3000FEF70EFE634B02221A7401229A7540F6C8
:102F4000AC52DA819A82C8E75E4B03221A749A75F2
:102F50000024DC819C82614B04221A70584B1C6057
:102F6000FDF722FF01258DF834508DF835508DF88E
:102F7000365000225C4BCDE9062349A3D3E9002358
:102F8000CDE9082300220023CDE90A23029401940D
:102F900006AB00930DAB2A4621464B48FEF744FF93
:102FA000454B1D70514A13682B4413609EE74C4BF0
:102FB0001B789BB1404B1B78FBB9484B1B78032B0C
:102FC00046D001230193009337A3D3E9002340495E
:102FD0003E48FFF761FA414B1870A8E500220192C4
:102FE000009213464FF0FF310420FEF703F9012849
:102FF000E0D13B4B01221A70DCE7334D00240294F0
:10300000019400950DAB224621462846FEF70CFFA1
:103010002E4B00203649C3E90001D5E90201C3E97E
:1030200002012B4B22A7D7E90067C3E90067C3E978
:103030000201234604E0284A1A4404215170013356
:10304000072BF8DD00231C4A1370244A13706EE529
:10305000234B1B78002B3FF46AAD174B01221A70EB
:10306000224A1368013313601D4B00221A705EE57B
:10307000204B1B78012B06D000210220FDF736FFE4
:103080001C4B187053E50C4B01221A701444174B5B
:103090001C60184B00221A7049E500BFAFF3008096
:1030A000000000000044B640000000000070A7408F
:1030B0000000000000589BC002000020080C002007
:1030C0008C0300203C000020D8030020980400203E
:1030D000A804002000409F40300000200400002091
:1030E000A30300202C00002000006940C40300203E
:1030F00000806640200300209F4B1B78A3B99F4BA4
:103100001B78032B3BD001230193009394A3D3E9B5
:1031100000239B499B48FFF7BFF9984B18709A4BC7
:103120001A689A4B1A6002E5994D002402940194A2
:1031300000950DAB224621462846FEF775FED5E9DF
:103140000001904BC3E9000187A7D7E90067C3E9F5
:1031500002678B4BC3E9000100208E49C3E90201DD
:10316000234604E08C4A1A44052151700133072B91
:10317000F8DD0023804A1370804A1370D7E4874A31
:10318000537843F0300353707F4B1B687F4A1268BB
:103190009B1AB3F5FA7F7FF6CAAC774B01221A70FF
:1031A00014447F4B1C60C2E4734B1B78A3B9734B70
:1031B0001B78032B3BD001230193009368A3D3E931
:1031C00000236F496F48FFF767F96C4B18706E4B1F
:1031D0001A686E4B1A60AAE46D4D002402940194A3
:1031E00000950DAB224621462846FEF71DFED5E987
:1031F0000001644BC3E900010026664FC3E9026782
:103200005F4BC3E9000158A1D1E90001C3E9020104
:10321000234604E0604A1A44062151700133072B0B
:10322000F8DD0023544A1370544A13707FE45B4A5C
:10323000537843F004035370534B1B68534A12688E
:103240009B1AB3F5FA7F7FF672AC4B4B01221A70D2
:103250001444534B1C606AE4524B1B78002B7FF4E0
:1032600066AC01930122009213464FF0FF31022019
:10327000FDF7C0FF01287FF45AAC4A4B00221A70B8
:103280003D4B01221A70464A1368013313604EE425
:10329000394B1B7843B33E4D0024029401940095B2
:1032A0000DAB224621462846FEF7BEFDD5E90001BA
:1032B000344EC6E90001D5E90223C6E90223304BAA
:1032C000C3E900012AA1D1E90001C3E902012346B3
:1032D00004E0314A1A440E2151700133072BF8DD06
:1032E000254B00221A7022E40123019300931CA3B2
:1032F000D3E9002322492348FFF7CEF81F4B18706B
:1033000003287FF414AC1C4B01221A70244A136862
:10331000013313600BE4244B1B78012B06D00021F2
:103320000320FDF7E3FD204B187000E4124B01224F
:103330001A7014441A4B1C601B4B00221A70FFF7C2
:10334000F6BB0D4B1B788BB30F4B1A680F4B1A60F3
:10335000094B00221A70FFF7EABB00BFAFF30080F1
:10336000000000000070A740000000000044B640CC
:1033700000000000009CB840020000200400002073
:10338000A804002098040020080C00201C03002042
:10339000D80300200000B940300000202C0000209D
:1033A000C4030020A303002020030020A44B1B68BB
:1033B000A44A12689B1AB3F5967F0DD9A24B03223B
:1033C00083F8222000221A84A04B01221A70144490
:1033D0009F4B1C60FFF7ABBB9B4B012283F8222065
:1033E00040F6B8321A84FFF7A2BB984B1B78002B2B
:1033F00037D0984A136801331360312B7FF797ABAE
:10340000954D00240294019400950DAB224621466F
:103410002846FEF709FD914E81A3D3E90023C6E9B2
:10342000002300228E4BD5E90201FCF797FEC6E986
:1034300002018C4B7CA7D7E90067C3E90067C3E9A9
:103440000201234604E0884A1A440F2151700133D7
:10345000072BF8DD00237F4A13607C4A1370FFF7C7
:1034600066BB012301930023009300227F4B7D491B
:103470007A48FFF711F87E4B187003287FF457AB9A
:10348000724B01221A70724A136801331360FFF7FE
:103490004EBB784A537843F034035370764B1B7815
:1034A000012B07D000210220FDF720FD724B187080
:1034B000FFF73DBB654B01221A701444644B1C603E
:1034C0006D4B00221A70FFF732BB6C4B1B78C3B9EF
:1034D0006B4B1B78002B3FF42AAB5D4B1C680C2C0C
:1034E0003FF625ABDFE814F04A00D2009A01FC0158
:1034F0008702E2024503D4032F0492041C057705DA
:10350000C5050DF11703002201211046FDF70CFF40
:103510000DF11703002201210846FDF705FF0DF10B
:103520001703002201210220FDF7FEFE0DF1170313
:10353000002201210320FDF7F7FE474800240294F2
:10354000019400900DAB22460121FEF76DFC414B2A
:103550001C604C4B1C6001253C4B1D70464B1C7085
:10356000494B1C70FDF70EFC394B1C602946284660
:10357000FDF7BCFC3C4BDD711D72A9E7334B1B789A
:10358000002B37D0344800210291019100900DABFF
:103590000A46FEF749FC314900220023C1E9002315
:1035A000C1E902232F49C1E9002321A3D3E9002364
:1035B000C1E9022304E02C4B234403225A70013456
:1035C000072CF8DD214B00221A702F4B1B78002BA3
:1035D0007FF4ADAA0022019200921346012102203D
:1035E000FDF708FE01287FF4A2AA274B01221A70DA
:1035F000FFF79DBA0123019300930FA3D3E90023A2
:1036000018491648FEF748FF194B18700328DCD1FB
:103610000E4B01221A700E4A136801331360D4E76F
:103620000000000000589BC00000000000F4AAC089
:103630000000000000E8AC40000000000094B14031
:10364000080C00201C0300203C0000200200002089
:10365000C4030020C8030020D803002098040020E1
:1036600000004940A80400203000002000409F4096
:10367000040000202C000020200300200100002076
:10368000A40300208C030020A3030020A84B1B7878
:1036900043BBA84B1B68A84A12689B1A40F6FB0163
:1036A0008B424BD9A34B1B689B1A40F6E3418B42DC
:1036B0006DD9A04B1B689B1A41F2CB02934248D8AC
:1036C0000121F020FEF744FA0221EB20FEF740FA38
:1036D0009A4B02221A7401229A7540F6AC52DA8192
:1036E0009A8236E0964D00240294019400950DAB29
:1036F000224621462846FEF797FB924B00200021E8
:10370000C3E90001D5E90201C3E902018E4B00269D
:103710008E4FC3E90067C3E902012346072B05DC8E
:103720008B4A1A44022151700133F7E7804B002283
:103730001A70804B1A68804B1A6013E001230193C2
:1037400000930022814B80497E48FEF7A5FE814B05
:103750001870784B1B68784A12689B1A41F2CB02AA
:10376000934228D87C4B1B78002B7FF4E0A90022E1
:1037700001920092134601210220FDF73BFD012832
:103780007FF4D5A9744B01221A70FFF7D0B901213B
:103790004FF49670FEF7DCF9022140F22710FEF795
:1037A000D7F9664B02221A7401229A7540F6AC5280
:1037B000DA819A82CDE7614B03221A749A7500244C
:1037C000DC819C82634B04221A705B4B1C60FDF70A
:1037D000EBFA01258DF834508DF835408DF83650D0
:1037E00000225E4BCDE906234BA3D3E90023CDE9AC
:1037F000082300220023CDE90A230294019406AB9A
:1038000000930DAB2A4621464D48FEF70DFB484B71
:103810001D70534A13682B441360A3E74E4B1B786B
:103820009BB1434B1B78F3B94A4B1B78032B46D013
:1038300001230193009300224A4B43494148FEF77C
:103840002BFE444B1870FFF772B9002201920092D0
:10385000134601210220FDF7CDFC0128E1D13E4BAA
:1038600001221A70DDE7364D002402940194009580
:103870000DAB224621462846FEF7D6FA314B0020F2
:103880003949C3E90001D5E90201C3E902012E4B20
:1038900023A7D7E90067C3E90067C3E9020123460C
:1038A000072B05DC2A4A1A44042151700133F7E73B
:1038B00000231F4A1370274A1370FFF738B9264BAD
:1038C0001B78002B3FF433A9194B01221A70244AAC
:1038D000136801331360204B00221A70FFF727B9D9
:1038E000134B1B78002B43D11A4B1B78032B6CD046
:1038F0000123019300930CA3D3E90023124911483B
:10390000FEF7CAFD134B18700A4B1A68174B1A6062
:10391000FFF70DB9AFF300800000000000E8AC40F5
:103920000000000000589BC0000000000070A7408D
:1039300002000020080C00208C0300203C00002026
:10394000D803002098040020A804002000409F40D5
:103950003000002004000020A30300200000694084
:10396000C40300200040AF40008066401C030020DC
:10397000994D00240294019400950DAB22462146F6
:103980002846FEF751FAD5E90001944BC3E900013E
:1039900085A7D7E90067C3E90267914BC3E9000136
:1039A00083A1D1E90001C3E902012346072B05DC0D
:1039B0008C4A1A44052151700133F7E700238A4AE3
:1039C00013708A4A1370FFF7B2B8894A537843F0EC
:1039D00030035370874B1B68874A12689B1AB3F5F4
:1039E000FA7F7FF6A4A8804B01221A701444834BFF
:1039F0001C60FFF79CB87C4B1B78A3B97B4B1B78F2
:103A0000032B3DD001230193009300227C4B74498A
:103A10007248FEF741FD754B1870764B1A68764B6D
:103A20001A60FFF784B86C4D00240294019400954D
:103A30000DAB224621462846FEF7F6F9D5E90001EE
:103A4000664BC3E900015AA7D7E90067C3E90267DB
:103A5000634BC3E9000158A1D1E90001C3E90201A8
:103A60002346072B05DC5F4A1A44062151700133B7
:103A7000F7E700235C4A13705C4A1370FFF757B8EE
:103A80005B4A537843F0040353705A4B1B685A4AFD
:103A900012689B1AB3F5FA7F7FF649A8524B0122B0
:103AA0001A701444554B1C60FFF741B8554B1B78F6
:103AB0009BB14D4B1B78F3B94C4B1B78032B47D074
:103AC00001230193009300224F4B45494348FEF7E1
:103AD000E3FC464B1870FFF72AB8002201920092CF
:103AE000134601210220FDF785FB0128E1D1454B5A
:103AF00001221A70DDE7384D0024029401940095EC
:103B00000DAB224621462846FEF78EF9334B2CA1F9
:103B1000D1E90001C3E90001D5E90201C3E90201CD
:103B20002F4B29A7D7E90067C3E90067C3E9020162
:103B30002346072B05DC2B4A1A440421517001331C
:103B4000F7E70023284A1370284A1370FEF7EFBFE7
:103B50002C4B1B78002B3EF4EAAF234B01221A704A
:103B6000264A136801331360264B00221A70FEF7B1
:103B7000DEBF1D4B1B78002B48D11C4B1B78032B41
:103B800070D001230193009311A3D3E900231449BA
:103B90001248FEF781FC154B1870164B1A68164B2D
:103BA0001A60FEF7C4BF00BF0000000000E8AC4090
:103BB000000000000030B140000000000078AE407E
:103BC0000000000000589BC0000000000024A3C0BB
:103BD000000000000070A740D803002098040020D7
:103BE000A804002030000020020000200400002073
:103BF0002C000020080C00201C030020C40300201F
:103C000000409F40A30300200040AF40964D002499
:103C10000294019400950DAB224621462846FEF7FA
:103C200003F9D5E90001914EC6E90001D5E9022367
:103C3000C6E902238E4BC3E9000181A1D1E900014D
:103C4000C3E902012346072B05DC8A4A1A440521F1
:103C500051700133F7E70023874A1370874A1370C6
:103C6000FEF765BF864A537843F030035370854BA7
:103C70001B68854A12689B1AB3F5FA7F7EF657AF28
:103C80007D4B01221A701444804B1C60FEF74FBF1D
:103C9000794B1B78A3B9794B1B78032B3DD00123BB
:103CA0000193009300227A4B71497048FEF7F4FBB0
:103CB000724B1870734B1A68734B1A60FEF737BF5C
:103CC000694D00240294019400950DAB22462146D3
:103CD0002846FEF7A9F8D5E90001644BC3E90001C5
:103CE00057A7D7E90067C3E90267614BC3E9000141
:103CF00055A1D1E90001C3E902012346072B05DCE8
:103D00005C4A1A44062151700133F7E700235A4AEE
:103D100013705A4A1370FEF70ABF594A537843F09A
:103D200004035370574B1B68574A12689B1AB3F52C
:103D3000FA7F7EF6FCAE504B01221A701444534BAE
:103D40001C60FEF7F4BE534B1B789BB14A4B1B78AB
:103D5000F3B94A4B1B78032B47D0012301930093FF
:103D600000224D4B42494148FEF796FB434B1870E9
:103D7000FEF7DDBE002201920092134601210220CF
:103D8000FDF738FA0128E1D1424B01221A70DDE734
:103D9000354D00240294019400950DAB2246214636
:103DA0002846FEF741F8314B29A1D1E90001C3E9CA
:103DB0000001D5E90201C3E902012D4B26A7D7E98D
:103DC0000067C3E90067C3E902012346072B05DC4E
:103DD000284A1A44042151700133F7E70023264A88
:103DE0001370264A1370FEF7A2BE2A4B1B78002BD5
:103DF0003EF49DAE204B01221A70244A1368013311
:103E00001360244B00221A70FEF791BE1A4B1B78E8
:103E1000002B43D1194B1B78032B6BD0012301934B
:103E200000930FA3D3E9002311491048FEF734FB98
:103E3000124B1870134B1A68134B1A60FEF777BEBB
:103E4000000000000030B140000000000078AE40EB
:103E50000000000000ECA3C000000000009CA8C00F
:103E6000000000000070A740D80300209804002044
:103E7000A8040020300000200200002004000020E0
:103E80002C000020080C00201C030020C40300208C
:103E900000409F40A30300200040AF409E4D0024FF
:103EA0000294019400950DAB224621462846FDF769
:103EB000BBFFD5E90001994EC6E90001D5E902230F
:103EC000C6E90223964BC3E900018DA1D1E90001A7
:103ED000C3E902012346072B05DC924A1A44052157
:103EE00051700133F7E700238F4A13708F4A137024
:103EF000FEF71DBE8E4A537843F0300353708D4B4E
:103F00001B688D4A12689B1AB3F5FA7F7EF60FAED6
:103F1000854B01221A701444884B1C60FEF707BEC3
:103F2000814B1B78A3B9814B1B78032B3DD0012318
:103F3000019300930022824B79497848FEF7ACFA4E
:103F40007A4B18707B4B1A687B4B1A60FEF7EFBDFB
:103F5000714D00240294019400950DAB2246214638
:103F60002846FDF761FFD5E900016C4BC3E900016C
:103F700063A7D7E90067C3E90267694BC3E900019A
:103F800061A1D1E90001C3E902012346072B05DC49
:103F9000644A1A44062151700133F7E70023624A4C
:103FA0001370624A1370FEF7C2BD614A537843F042
:103FB000040353705F4B1B685F4A12689B1AB3F58A
:103FC000FA7F7EF6B4AD584B01221A7014445B4B55
:103FD0001C60FEF7ACBD544B1B78002B32D0594A05
:103FE000136801331360632B7EF7A1AD4A4D0024A3
:103FF0000294019400950DAB224621462846FDF718
:1040000013FF464B42A1D1E90001C3E90001D5E904
:104010000201C3E90201424B00260027C3E9006701
:10402000C3E90201234604E03E4A1A440F215170BD
:104030000133072BF8DD0023424A13603A4A13701C
:10404000FEF775BD01230193009300223E4B3449D6
:104050003248FEF721FA354B187003287EF467AD1D
:10406000314B01221A70354A136801331360FEF791
:104070005EBD2D4B1B784BB3274D00240294019459
:1040800000950DAB224621462846FDF7CDFED5E929
:104090000001224BC3E900011BA7D7E90067C3E970
:1040A00002671F4BC3E9000100200021C3E90201A0
:1040B000234604E01B4A1A440E2151700133072B9A
:1040C000F8DD194B00221A70FEF731BD0123019370
:1040D000009300221C4B12491048FEF7DDF9134BE8
:1040E000187003287EF423AD0F4B01221A70134A77
:1040F000136801331360FEF71ABD00BFAFF30080F1
:10410000000000000030B140000000000078AE4028
:104110000000000000C8A9C0D803002098040020B7
:10412000A80400203000002002000020040000202D
:104130002C000020080C00201C030020C4030020D9
:1041400000409F40C80300200040AF407F4B1B78D9
:10415000002B3EF4ECAC0DF11703002201211046B8
:10416000FDF7E2F80DF11703002201210846FDF7E3
:10417000DBF80DF11703002201210220FDF7D4F82E
:104180000DF11703002201210320FDF7CDF870483F
:1041900000240294019400900DAB22460121FDF70A
:1041A00043FE6C4B1C606C4B1C6001256B4B1D70FF
:1041B0006B4B1C706B4B1C70FCF7E4FD6A4B1C6076
:1041C0006A4BDD7102221A72FEF7B1BC5F4B1B789D
:1041D000002B3EF4ACAC0DF1170300220121104678
:1041E000FDF7A2F80DF11703002201210846FDF7A3
:1041F0009BF80DF11703002201210220FDF794F82E
:104200000DF11703002201210320FDF78DF850481E
:1042100000240294019400900DAB22460121FDF789
:1042200003FE4C4B1C604C4B1C6001254B4B1D701E
:104230004B4B1C704B4B1C70FCF7A4FD4A4B1C6095
:104240004A4BDD7105221A72FEF771BC3F4B1B7899
:10425000002B3EF46CAC0DF1170300220121104637
:10426000FDF762F80DF11703002201210846FDF762
:104270005BF80DF11703002201210220FDF754F82D
:104280000DF11703002201210320FDF74DF83048FE
:1042900000240294019400900DAB22460121FDF709
:1042A000C3FD2C4B1C602C4B1C6001252B4B1D703F
:1042B0002B4B1C702B4B1C70FCF764FD2A4B1C60B5
:1042C0002A4BDD7104221A72FEF731BC1F4B1B789A
:1042D000002B3EF42CAC0DF11703002201211046F7
:1042E000FDF722F80DF11703002201210846FDF722
:1042F0001BF80DF11703002201210220FDF714F82D
:104300000DF11703002201210320FDF70DF81048DD
:1043100000240294019400900DAB22460121FDF788
:1043200083FD0C4B1C600C4B1C600C4B01221A7063
:104330000B4B1C700B4B1C70FCF724FD0A4B1C60D4
:104340000A4B0C22DA711A72FEF7F1BB0100002051
:10435000D8030020C80300208C03002002000020A6
:1043600020030020A3030020C4030020300000200D
:10437000954B1B781BB1954B0822DA711A72944B3E
:104380005B7813F0080F04D0914B5B7813F0020FA9
:1043900060D18F4B9B7813F0400F00F081808D4BE4
:1043A0001B78002B7CD08C4B01221A7000238B4A87
:1043B00013708B4A13708B4A13708B4A13708B4A9D
:1043C0001370834B9B7813F0200F17D00023884A7B
:1043D0001360884A1360884A01211170874A13705C
:1043E000874A13707C4A13707C4A13707C4A13709E
:1043F0007C4A13707C4A13707C4A1370764B1B788E
:104400007BB9764B1B7863B9754B1B784BB9754BF1
:104410001B7833B9744B1B781BB9744B1B78002B7A
:1044200056D0714B1B78002B00F08B80754B1C68AD
:104430000C2C00F28680DFE814F05A00F100B8017D
:104440001702A002F8025803E5033D049F042B0560
:104450008605D4050DF11703002201211046FCF753
:1044600063FF0DF11703002201210846FCF75CFFF2
:104470000DF11703002201210220FCF755FF0DF179
:104480001703002201210320FCF74EFF5E480022A3
:104490000292019200900DAB0121FDF7C5FC78E777
:1044A0004B4B9B7813F0100F8BD0584B1B78002B85
:1044B00087D00023484A1370484A1370484A137043
:1044C000484A1370484A01211170484A137078E72E
:1044D0000024474B1C60474B1C603F4B1C70464BF5
:1044E00001221A70FCF74EFC464B1C6099E7424BC8
:1044F0001B78002B3CD04448002102910191009090
:104500000DAB0A46FDF790FC414900220023C1E9AA
:104510000023C1E902233F49C1E9002326A3D3E9CF
:104520000023C1E9022304E0284B234403225A70EC
:104530000134072CF8DD304B00221A70304B1B7809
:1045400063B3254B1B78002B3EF4F1AA2D4B1C685E
:104550000A2C3EF6ECAADFE814F0B1050406D206F8
:104560005E077507CF0728086F08B408CB081F0936
:1045700001230193009312A3D3E900232549244882
:10458000FDF78AFF244B18700328D7D11A4B01225C
:104590001A701C4A136801331360CFE7002201929E
:1045A0000092134601210220FCF724FE0128C8D105
:1045B000134B01221A70C4E70000000000E8AC4071
:1045C000000000000094B1400100002030000020F5
:1045D0000C0C00208803002091040020C00400205F
:1045E000C1040020C2040020C30400209204002063
:1045F000C80300208C0300200200002020030020BC
:10460000A3030020C4030020D8030020C40400201A
:1046100098040020A804002004000020A64B1B786A
:1046200043BBA64B1B68A64A12689B1A40F6FB01C7
:104630008B424BD9A14B1B689B1A40F6E3418B423E
:104640006CD99E4B1B689B1A41F2CB02934248D80F
:104650000121F020FDF77CFA0221EB20FDF778FA2A
:10466000984B02221A7401229A7540F6AC52DA81F4
:104670009A8236E0944D00240294019400950DAB8B
:10468000224621462846FDF7CFFB904B0020002113
:10469000C3E90001D5E90201C3E902018C4B002600
:1046A0008C4FC3E90067C3E902012346072B05DCF1
:1046B000894A1A44022151700133F7E77E4B0022E8
:1046C0001A707E4B1A687E4B1A6013E00123019327
:1046D000009300227F4B7E497C48FDF7DDFE7F4B37
:1046E0001870764B1B68764A12689B1A41F2CB020F
:1046F000934227D87A4B1B78002B7FF422AF0022FD
:1047000001920092134601210220FCF773FD01285B
:104710007FF417AF724B01221A7012E701214FF498
:104720009670FDF715FA022140F22710FDF710FAF6
:10473000644B02221A7401229A7540F6AC52DA8157
:104740009A82CEE75F4B03221A749A750024DC81AB
:104750009C82624B04221A70594B1C60FCF724FBAC
:1047600001258DF834508DF835408DF836500022F3
:104770005C4BCDE906234AA3D3E90023CDE9082306
:1047800000220023CDE90A230294019406AB009392
:104790000DAB2A4621464C48FDF746FB464B1D70A3
:1047A000514A13682B441360A4E74D4B1B7893B117
:1047B000414B1B78EBB9494B1B78032B44D00123A9
:1047C000019300930022494B41494048FDF764FEA4
:1047D000424B1870B5E60022019200921346012167
:1047E0000220FCF707FD0128E2D13D4B01221A709F
:1047F000DEE7354D00240294019400950DAB22466E
:1048000021462846FDF710FB304B00203849C3E90C
:104810000001D5E90201C3E902012D4B22A7D7E926
:104820000067C3E90067C3E902012346072B05DCE3
:10483000294A1A44042151700133F7E700231E4A24
:104840001370264A13707CE6254B1B78002B3FF42F
:1048500078AE194B01221A70234A13680133136092
:104860001F4B00221A706CE6134B1B78002B43D1B0
:104870001A4B1B78032B6BD00123019300930CA3DD
:10488000D3E9002312491148FDF706FE134B1870B7
:104890000A4B1A68174B1A6053E600BFAFF300804B
:1048A0000000000000E8AC400000000000589BC081
:1048B000000000000070A74002000020080C00204B
:1048C0008C0300203C000020D80300209804002026
:1048D000A804002000409F40300000200400002079
:1048E000A303002000006940C40300200040AF4043
:1048F000008066401C030020954D00240294019422
:1049000000950DAB224621462846FDF78DFAD5E9E4
:104910000001904BC3E9000181A7D7E90067C3E913
:1049200002678D4BC3E900017FA1D1E90001C3E912
:1049300002012346072B05DC884A1A4405215170E1
:104940000133F7E70023864A1370864A1370F8E5AF
:10495000854A537843F030035370844B1B68844A74
:1049600012689B1AB3F5FA7F7FF6EBAD7C4B012200
:104970001A7014447F4B1C60E3E5794B1B789BB99C
:10498000784B1B78032B3BD001230193009300222B
:10499000794B71496F48FDF77FFD724B1870734B6F
:1049A0001A68734B1A60CCE5694D00240294019497
:1049B00000950DAB224621462846FDF735FAD5E98C
:1049C0000001644BC3E9000157A7D7E90067C3E9B9
:1049D0000267614BC3E9000155A1D1E90001C3E9B8
:1049E00002012346072B05DC5C4A1A44062151705C
:1049F0000133F7E700235A4A13705A4A1370A0E5AF
:104A0000594A537843F004035370584B1B68584A73
:104A100012689B1AB3F5FA7F7FF693AD504B0122D3
:104A20001A701444534B1C608BE5544B1B7893B1A4
:104A30004B4B1B78EBB94B4B1B78032B45D0012319
:104A40000193009300224E4B43494248FDF724FD59
:104A5000444B187075E50022019200921346012123
:104A60000220FCF7C7FB0128E2D1444B01221A7057
:104A7000DEE7374D00240294019400950DAB2246E9
:104A800021462846FDF7D0F9324B2BA1D1E9000190
:104A9000C3E90001D5E90201C3E902012E4B28A7B1
:104AA000D7E90067C3E90067C3E902012346072B82
:104AB00005DC2A4A1A44042151700133F7E7002328
:104AC000274A1370274A13703BE52C4B1B78002BA9
:104AD0003FF437AD224B01221A70264A1368013386
:104AE0001360264B00221A702BE51D4B1B78002B00
:104AF00048D11C4B1B78032B6FD0012301930093EB
:104B000011A3D3E9002314491248FDF7C5FC154B46
:104B10001870164B1A68164B1A6012E5AFF3008036
:104B20000000000000E8AC40000000000030B14090
:104B3000000000000078AE400000000000589BC05C
:104B4000000000000024A3C0000000000070A74087
:104B5000D803002098040020A80400203000002082
:104B600002000020040000202C000020080C00207F
:104B70001C030020C403002000409F40A30300202A
:104B80000040AF40944D00240294019400950DAB79
:104B9000224621462846FDF747F9D5E900018F4E08
:104BA000C6E90001D5E90223C6E902238C4BC3E91B
:104BB00000017FA1D1E90001C3E902012346072BCF
:104BC00005DC884A1A44052151700133F7E70023B8
:104BD000854A1370854A1370B3E4854A537843F0CD
:104BE00030035370834B1B68834A12689B1AB3F5DA
:104BF000FA7F7FF6A6AC7C4B01221A7014447F4BDF
:104C00001C609EE4784B1B789BB9784B1B78032B78
:104C10003BD00123019300930022794B70496F48E8
:104C2000FDF73AFC714B1870724B1A68724B1A60A0
:104C300087E4694D00240294019400950DAB22464F
:104C400021462846FDF7F0F8D5E90001634BC3E99A
:104C5000000157A7D7E90067C3E90267604BC3E9C2
:104C6000000155A1D1E90001C3E902012346072B48
:104C700005DC5C4A1A44062151700133F7E7002332
:104C8000594A1370594A13705BE4594A537843F0F8
:104C900004035370574B1B68574A12689B1AB3F5AD
:104CA000FA7F7FF64EAC504B01221A701444534BDE
:104CB0001C6046E4534B1B7893B14B4B1B78EBB90C
:104CC0004A4B1B78032B46D001230193009300220B
:104CD0004D4B43494148FDF7DFFB444B187030E42E
:104CE000002201920092134601210220FCF782FA71
:104CF0000128E2D1434B01221A70DEE7364D002431
:104D00000294019400950DAB224621462846FDF7FA
:104D10008BF8324B2AA1D1E90001C3E90001D5E9A2
:104D20000201C3E902012E4B27A7D7E90067C3E9B7
:104D30000067C3E902012346072B05DC294A1A4410
:104D4000042151700133F7E70023274A1370274AE3
:104D50001370FFF7F6BB2B4B1B78002B3FF4F1AB26
:104D6000214B01221A70254A136801331360254B29
:104D700000221A70FFF7E5BB1B4B1B78002B45D1B7
:104D80001A4B1B78032B6DD001230193009310A3C2
:104D9000D3E9002312491148FDF77EFB134B18702D
:104DA000144B1A68144B1A60FFF7CBBBAFF30080AB
:104DB000000000000030B140000000000078AE406C
:104DC0000000000000ECA3C000000000009CA8C090
:104DD000000000000070A740D803002098040020C5
:104DE000A804002030000020020000200400002061
:104DF0002C000020080C00201C030020C40300200D
:104E000000409F40A30300200040AF409E4D00247F
:104E10000294019400950DAB224621462846FDF7E9
:104E200003F8D5E90001994EC6E90001D5E902234E
:104E3000C6E90223964BC3E900018DA1D1E9000127
:104E4000C3E902012346072B05DC924A1A440521D7
:104E500051700133F7E700238F4A13708F4A1370A4
:104E6000FFF76FBB8E4A537843F0300353708D4B7E
:104E70001B688D4A12689B1AB3F5FA7F7FF661AB07
:104E8000854B01221A701444884B1C60FFF759BBF4
:104E9000814B1B78A3B9814B1B78032B3DD0012399
:104EA000019300930022824B79497848FDF7F4FA88
:104EB0007A4B18707B4B1A687B4B1A60FFF741BB2B
:104EC000714D00240294019400950DAB22462146B9
:104ED0002846FCF7A9FFD5E900016C4BC3E90001A6
:104EE00063A7D7E90067C3E90267694BC3E900011B
:104EF00061A1D1E90001C3E902012346072B05DCCA
:104F0000644A1A44062151700133F7E70023624ACC
:104F10001370624A1370FFF714BB614A537843F071
:104F2000040353705F4B1B685F4A12689B1AB3F50A
:104F3000FA7F7FF606AB584B01221A7014445B4B84
:104F40001C60FFF7FEBA544B1B78002B32D0594A35
:104F5000136801331360632B7FF7F3AA4A4D0024D3
:104F60000294019400950DAB224621462846FCF799
:104F70005BFF464B42A1D1E90001C3E90001D5E93D
:104F80000201C3E90201424B00260027C3E9006782
:104F9000C3E90201234604E03E4A1A440F2151703E
:104FA0000133072BF8DD0023424A13603A4A13709D
:104FB000FFF7C7BA01230193009300223E4B344907
:104FC0003248FDF769FA354B187003287FF4B9AA07
:104FD000314B01221A70354A136801331360FFF711
:104FE000B0BA2D4B1B784BB3274D0024029401948B
:104FF00000950DAB224621462846FCF715FFD5E962
:105000000001224BC3E900011BA7D7E90067C3E9F0
:1050100002671F4BC3E9000100200021C3E9020120
:10502000234604E01B4A1A440E2151700133072B1A
:10503000F8DD194B00221A70FFF783BA01230193A0
:10504000009300221C4B12491048FDF725FA134B20
:10505000187003287FF475AA0F4B01221A70134AA7
:10506000136801331360FFF76CBA00BFAFF3008021
:10507000000000000030B140000000000078AE40A9
:105080000000000000C8A9C0D80300209804002038
:10509000A8040020300000200200002004000020AE
:1050A0002C000020080C00201C030020C40300205A
:1050B00000409F40C80300200040AF40AA4B1B782F
:1050C000002B38D0A94800210291019100900DAB2E
:1050D0000A46FCF7A9FEA64900220023C1E90023E5
:1050E000C1E90223A349C1E900239BA3D3E900231B
:1050F000C1E9022304E0A04B234403225A70013487
:10510000072CF8DD984B00221A709C4B1B78002B63
:105110007DF40DAD00220192009213464FF0FF3155
:105120000420FCF767F801287DF401AD934B0122C0
:105130001A70FDF7FCBC01230193009388A3D3E907
:1051400000238C498A48FDF7A7F98D4B1870032876
:10515000DBD1854B01221A708A4A13680133136030
:10516000D3E7814B1B7843BB874B1B68874A126888
:105170009B1A40F6FB018B424BD9834B1B689B1A51
:1051800040F6E3418B426ED97F4B1B689A1A41F27D
:10519000CB039A4248D80121F020FCF7D9FC022128
:1051A000EB20FCF7D5FC7A4B02221A7401229A7587
:1051B00040F6AC52DA819A8236E06C4D00240294BB
:1051C000019400950DAB224621462846FCF72CFEA3
:1051D000674B00200021C3E90001D5E90201C3E9C2
:1051E0000201644B00266B4FC3E90067C3E902016B
:1051F000234604E0604A1A44022151700133072B10
:10520000F8DD594B00221A705F4B1A685F4B1A6029
:1052100013E001230193009300225E4B554954484B
:10522000FDF73AF9564B1870574B1B68574A1268EE
:105230009B1A41F2CB0293422ED8504B1B78002B85
:105240007DF475AC00220192009213464FF0FF31BD
:105250000420FBF7CFFF01287DF469AC474B012206
:105260001A70FDF764BC4C4A537843F0080353703E
:1052700001214FF49670FCF76BFC022140F22710DD
:10528000FCF766FC424B02221A7401229A7540F622
:10529000AC52DA819A82C7E73D4B03221A749A75A1
:1052A0000024DC819C82364B04221A70374B1C6030
:1052B000FBF77AFD01258DF834508DF835508DF8C7
:1052C00036500022354BCDE9062323A3D3E9002332
:1052D000CDE9082300220023CDE90A23029401949A
:1052E00006AB00930DAB2A4621462048FCF79CFDF7
:1052F0001D4B1D70234A13682B4413609DE71F4B01
:105300001B78C3B1184B1B78002B49D11C4B1B7861
:10531000032B71D1194B1B78002B3DF408AC124BB9
:1053200001221A70174A136801331360134B0022CD
:105330001A70FDF7FCBB00220192009213464FF059
:10534000FF310420FBF756FF0128DBD10B4B012274
:105350001A70D7E7AFF30080000000000044B640A9
:10536000000000000094B14002000020D80300209B
:1053700098040020A804002030000020A30300208F
:1053800004000020C4030020080C00208C0300202F
:105390003C00002000409F402C000020000069409D
:1053A000974D00240294019400950DAB22462146AE
:1053B0002846FCF739FD934B00209349C3E90001CF
:1053C000D5E90201C3E90201904B87A7D7E900673D
:1053D000C3E90067C3E90201234604E08C4A1A448A
:1053E000042151700133072BF8DD0023894A137023
:1053F000894A1370FDF79BBB01230193002300939F
:105400007BA3D3E9002381497E48FDF745F8824B11
:105410001870FDF78CBB814B1B78012B07D0002146
:105420000220FBF763FD7D4B1870FDF780BB794BC5
:1054300001221A7014447A4B1C60784B00221A70B7
:10544000FDF775BB734B1B78CBB9734B1B78032BE4
:1054500040D1744A537843F030035370724B1B6849
:10546000724A12689B1AB3F5FA7F7DF660AB694BFE
:1054700001221A7014446A4B1C60FDF758BB604D42
:1054800000240294019400950DAB22462146284643
:10549000FCF7CAFCD5E900015A4EC6E90001D5E97E
:1054A0000223C6E90223594BC3E9000100206049E9
:1054B000C3E90201234604E0554A1A44052151700C
:1054C0000133072BF8DD0023524A1370524A137040
:1054D000FDF72DBB01230193009345A3D3E90023DE
:1054E0004A494848FCF7D8FF4B4B18704E4B1A6896
:1054F0004E4B1A60FDF71BBB464B1B78CBB9464B96
:105500001B78032B3FD1474A537843F00403537071
:10551000454B1B68454A12689B1AB3F5FA7F7DF626
:1055200006AB3C4B01221A7014443D4B1C60FDF746
:10553000FEBA334D00240294019400950DAB22462F
:1055400021462846FCF770FCD5E900012D4BC3E944
:1055500000010026364FC3E902672C4BC3E9000166
:1055600025A1D1E90001C3E90201234604E0284A4C
:105570001A44062151700133072BF8DD254B002218
:105580001A70FDF7D4BA01230193009318A3D3E94D
:1055900000231E491B48FCF77FFF1F4B1870224B4E
:1055A0001A68224B1A60FDF7C2BA224B1B78002BF7
:1055B0007DF4BDAA019301200090034602464FF0FE
:1055C000FF31FBF717FE01287DF4B1AA194B002229
:1055D0001A70104B01221A70114A136801331360BC
:1055E000FDF7A5BAAFF300800000000000589BC093
:1055F000000000000070A740000000000044B6401A
:10560000D80300209804002000806640A8040020F1
:1056100030000020020000200400002020030020B1
:10562000C40300202C000020080C00201C030020D4
:105630000000B940A30300208D4B1B784BB38D4D68
:1056400000240294019400950DAB22462146284681
:10565000FCF7EAFBD5E90001874EC6E90001D5E970
:105660000223C6E90223854BC3E9000178A1D1E9F1
:105670000001C3E90201234604E0814A1A440E21D5
:1056800051700133072BF8DD794B00221A70FDF7BA
:105690004EBA0123019300936FA3D3E90023774906
:1056A0007548FCF7F9FE774B187003287DF43FAA84
:1056B0006F4B01221A70744A136801331360FDF7AF
:1056C00036BA724B1B78012B07D000210320FBF761
:1056D0000DFC6E4B1870FDF72ABA654B01221A704B
:1056E0001444694B1C60694B00221A70FDF71FBA05
:1056F0005F4B1B78002B37D0654A1368013313606A
:10570000312B7DF714AA5B4D00240294019400957F
:105710000DAB224621462846FCF786FB564E50A389
:10572000D3E90023C6E9002300225A4BD5E9020140
:10573000FAF714FDC6E90201504B4BA7D7E9006701
:10574000C3E90067C3E90201234604E04C4A1A4456
:105750000F2151700133072BF8DD00234C4A1360F1
:10576000434A1370FDF7E3B901230193002300932B
:105770000022494B41494048FCF78EFE414B1870CE
:1057800003287DF4D4A93A4B01221A703E4A1368CB
:1057900001331360FDF7CBB9404A537843F034032B
:1057A00053703A4B1B78012B07D000210220FBF7E6
:1057B0009DFB364B1870FDF7BAB92D4B01221A70BC
:1057C0001444314B1C60314B00221A70FDF7AFB905
:1057D000334B1B781BB12A4B0B22DA711A72314BF7
:1057E0001B78B3B1304B1B78DBB12F4B1B78002BF0
:1057F0003DF49DA92B4B1B78002B3DF498A901216A
:10580000B420FCF7A5F90221AF20FCF7A1F9FDF7C0
:105810008EB9FCF767F90028E4D1224B01221A70F7
:10582000E0E7FCF779F90028DFD11F4B01221A705D
:10583000DBE7104800210291019100900DAB0A4670
:10584000FCF7F2FA034600283DF476A9FDF7B6B955
:1058500000000000009CB840000000000070A7405D
:105860000000000000589BC00000000000F4AAC027
:1058700002000020D803002098040020A804002083
:105880003000002004000020C4030020200300207A
:10589000C80300200000494000409F402C00002029
:1058A000010000209103002090030020464B1A784D
:1058B000464B53F82210464803F0FAFA454B1B7842
:1058C000002B57D1444803F0F3FA4FF480510120E4
:1058D00003F0CEF9002851D1404803F0E9FA042141
:1058E000012003F0C5F900284CD13D4803F0E0FA4F
:1058F0000221012003F0BCF9002847D1394803F008
:10590000D7FA1021012003F0B3F9002842D136481C
:1059100003F0CEFA1021022003F0AAF900283DD1AD
:10592000324803F0C5FA4FF40061002003F0A0F9FB
:10593000002837D12E4803F0BBFA2021022003F0C3
:1059400097F998BB2B4803F0B3FA4FF4805100202D
:1059500003F08EF970BB284803F0AAFA4FF4807167
:10596000022003F085F948B3244803F0A1FA00238C
:10597000FDF724B9224803F09BFAA6E7214803F07B
:1059800097FAACE7204803F093FAB1E71F4803F019
:105990008FFAB6E71E4803F08BFABBE71D4803F009
:1059A00087FAC0E71C4803F083FAC6E71B4803F0F8
:1059B0007FFACAE71A4803F07BFACFE7194803F0E9
:1059C00077FA0023FDF7FAB80300002080BB000837
:1059D000BCB80008A2030020CCB80008E4B8000856
:1059E0000CB900083CB900085CB9000884B900088B
:1059F000A4B90008BCB90008D4B90008F8B9000877
:105A0000D8B80008F8B8000824B900084CB9000854
:105A100070B9000894B90008B0B90008C8B9000806
:105A2000E0B90008ECB90008FEE7000008B54FF443
:105A3000A2720249024805F08BFE08BDB0BB000807
:105A4000C8040020002209E0930003F1006303F57D
:105A5000FE331968094B43F8221001320C2AF3DD9A
:105A6000002307E0064A52F82320044951F8231086
:105A700011600133082BF5DD704700BF0C060020D4
:105A80000800002008B5FFF7D1FFFFF7DBFF08BDD6
:105A900000B583B01C4B9A6942F001029A619B6980
:105AA00003F001030193019B032000F0F1FA0022AF
:105AB00011466FF00B0000F009FB002211466FF059
:105AC0000A0000F003FB002211466FF0090000F00D
:105AD000FDFA002211466FF0040000F0F7FA0022F0
