:020000040800F2
:1000000000500020097300088D2E00088F2E000874
:10001000912E0008932E0008952E00080000000085
:10002000000000000000000000000000972E000803
:10003000992E0008000000009B2E00089D2E00084D
:100040005173000851730008517300085173000880
:100050005173000851730008517300085173000870
:100060005173000851730008517300085173000860
:1000700051730008C52E0008F52E0008052F000852
:1000800051730008B52E0008517300085173000821
:100090005173000851730008517300085173000830
:1000A00051730008F55D0008517300085173000892
:1000B000055E000851730008517300085173000871
:1000C0005173000851730008517300085173000800
:1000D0005173000851730008E52E0008D52E000862
:1000E00051730008517300085173000800000000AC
:1000F0000000000000000000000000000000000000
:0C01000000000000000000005FF808F1A3
:1001100010B5054C237833B9044B13B10448AFF341
:1001200000800123237010BDF002002000000000B9
:100130008095000808B5034B1BB103490348AFF392
:10014000008008BD00000000F40200208095000837
:1001500081F0004102E000BF83F0004330B54FEA78
:1001600041044FEA430594EA050F08BF90EA020FE5
:100170001FBF54EA000C55EA020C7FEA645C7FEA78
:10018000655C00F0E2804FEA5454D4EB5555B8BF9B
:100190006D420CDD2C4480EA020281EA030382EA0C
:1001A000000083EA010180EA020281EA0303362D9E
:1001B00088BF30BD11F0004F4FEA01314FF4801C71
:1001C0004CEA113102D0404261EB410113F0004F83
:1001D0004FEA03334CEA133302D0524263EB43033A
:1001E00094EA050F00F0A780A4F10104D5F1200ED8
:1001F0000DDB02FA0EFC22FA05F2801841F1000133
:1002000003FA0EF2801843FA05F359410EE0A5F106
:1002100020050EF1200E012A03FA0EFC28BF4CF037
:10022000020C43FA05F3C01851EBE37101F00045ED
:1002300007D54FF0000EDCF1000C7EEB00006EEBFA
:100240000101B1F5801F1BD3B1F5001F0CD3490884
:100250005FEA30004FEA3C0C04F101044FEA4452DB
:1002600012F5800F80F09A80BCF1004F08BF5FEA62
:10027000500C50F1000041EB045141EA050130BD42
:100280005FEA4C0C404141EB010111F4801FA4F1E5
:100290000104E9D191F0000F04BF01460020B1FA3A
:1002A00081F308BF2033A3F10B03B3F120020CDA72
:1002B0000C3208DD02F1140CC2F10C0201FA0CF050
:1002C00021FA02F10CE002F11402D8BFC2F1200CB5
:1002D00001FA02F120FA0CFCDCBF41EA0C0190406B
:1002E000E41AA2BF01EB0451294330BD6FEA0404B4
:1002F0001F3C1CDA0C340EDC04F11404C4F120029F
:1003000020FA04F001FA02F340EA030021FA04F3B0
:1003100045EA030130BDC4F10C04C4F1200220FA07
:1003200002F001FA04F340EA0300294630BD21FA45
:1003300004F0294630BD94F0000F83F4801306BF0B
:1003400081F480110134013D4EE77FEA645C18BFFF
:100350007FEA655C29D094EA050F08BF90EA020F96
:1003600005D054EA000C04BF1946104630BD91EA8E
:10037000030F1EBF0021002030BD5FEA545C05D191
:100380004000494128BF41F0004130BD14F58004D0
:100390003CBF01F5801130BD01F0004545F0FE4144
:1003A00041F470014FF0000030BD7FEA645C1ABF79
:1003B000194610467FEA655C1CBF0B46024650EAB0
:1003C000013406BF52EA033591EA030F41F40021DC
:1003D00030BD00BF90F0000F04BF0021704730B562
:1003E0004FF4806404F132044FF000054FF0000137
:1003F00050E700BF90F0000F04BF0021704730B5F8
:100400004FF4806404F1320410F0004548BF4042CC
:100410004FF000013EE700BF42004FEAE2014FEA21
:1004200031014FEA02701FBF12F07F4393F07F4FFC
:1004300081F06051704732F07F4208BF704793F0FF
:100440007F4F04BF41F40021704730B54FF4607412
:1004500001F0004521F000411CE700BF50EA010215
:1004600008BF704730B54FF000050AE050EA0102BE
:1004700008BF704730B511F0004502D5404261EB2E
:1004800041014FF4806404F132045FEA915C3FF46F
:10049000D8AE4FF003025FEADC0C18BF03325FEA0C
:1004A000DC0C18BF033202EBDC02C2F1200300FABD
:1004B00003FC20FA02F001FA03FE40EA0E0021FAE2
:1004C00002F11444BDE600BF70B54FF0FF0C4CF4D0
:1004D000E06C1CEA11541DBF1CEA135594EA0C0F82
:1004E00095EA0C0F00F0DEF82C4481EA030621EABD
:1004F0004C5123EA4C5350EA013518BF52EA0335F8
:1005000041F4801143F4801338D0A0FB02CE4FF0A9
:100510000005E1FB02E506F00042E0FB03E54FF0D9
:100520000006E1FB03569CF0000F18BF4EF0010ED1
:10053000A4F1FF04B6F5007F64F5407404D25FEACD
:100540004E0E6D4146EB060642EAC62141EA555180
:100550004FEAC52040EA5E504FEACE2EB4F1FD0CC2
:1005600088BFBCF5E06F1ED8BEF1004F08BF5FEA40
:10057000500E50F1000041EB045170BD06F00046F2
:1005800046EA010140EA020081EA0301B4EB5C049F
:10059000C2BFD4EB0C0541EA045170BD41F4801197
:1005A0004FF0000E013C00F3AB8014F1360FDEBFBC
:1005B000002001F0004170BDC4F10004203C35DA98
:1005C0000C341BDC04F11404C4F1200500FA05F31B
:1005D00020FA04F001FA05F240EA020001F00042BC
:1005E00021F0004110EBD37021FA04F642EB060132
:1005F0005EEA430E08BF20EAD37070BDC4F10C045C
:10060000C4F1200500FA04F320FA05F001FA04F21F
:1006100040EA020001F0004110EBD37041F100010B
:100620005EEA430E08BF20EAD37070BDC4F1200516
:1006300000FA05F24EEA020E20FA04F301FA05F27E
:1006400043EA020321FA04F001F0004121FA04F226
:1006500020EA020000EBD3705EEA430E08BF20EAF6
:10066000D37070BD94F0000F0FD101F00046400030
:1006700041EB010111F4801F08BF013CF7D041EAB2
:10068000060195F0000F18BF704703F000465200B6
:1006900043EB030313F4801F08BF013DF7D043EA87
:1006A0000603704794EA0C0F0CEA135518BF95EA3D
:1006B0000C0F0CD050EA410618BF52EA4306D1D1C4
:1006C00081EA030101F000414FF0000070BD50EAE3
:1006D000410606BF1046194652EA430619D094EA6D
:1006E0000C0F02D150EA013613D195EA0C0F05D157
:1006F00052EA03361CBF104619460AD181EA0301AB
:1007000001F0004141F0FE4141F470014FF0000062
:1007100070BD41F0FE4141F4780170BD70B54FF0FD
:10072000FF0C4CF4E06C1CEA11541DBF1CEA13557D
:1007300094EA0C0F95EA0C0F00F0A7F8A4EB05045F
:1007400081EA030E52EA03354FEA013100F0888056
:100750004FEA03334FF0805545EA131343EA12631F
:100760004FEA022245EA111545EA10654FEA0026D4
:100770000EF000419D4208BF964244F1FD0404F58D
:10078000407402D25B084FEA3202B61A65EB0305E9
:100790005B084FEA32024FF480104FF4002CB6EBA6
:1007A000020E75EB030E22BFB61A754640EA0C0026
:1007B0005B084FEA3202B6EB020E75EB030E22BF66
:1007C000B61A754640EA5C005B084FEA3202B6EBA7
:1007D000020E75EB030E22BFB61A754640EA9C0066
:1007E0005B084FEA3202B6EB020E75EB030E22BF36
:1007F000B61A754640EADC0055EA060E18D04FEAF4
:10080000051545EA16754FEA06164FEAC30343EA93
:1008100052734FEAC2025FEA1C1CC0D111F4801F60
:100820000BD141EA00014FF000004FF0004CB6E759
:1008300011F4801F04BF01430020B4F1FD0C88BFF8
:10084000BCF5E06F3FF6AFAEB5EB030C04BFB6EB03
:10085000020C5FEA500C50F1000041EB045170BDF6
:100860000EF0004E4EEA113114EB5C04C2BFD4EB23
:100870000C0541EA045170BD41F480114FF0000EA7
:10088000013C90E645EA060E8DE60CEA135594EA23
:100890000C0F08BF95EA0C0F3FF43BAF94EA0C0F26
:1008A0000AD150EA01347FF434AF95EA0C0F7FF49B
:1008B00025AF104619462CE795EA0C0F06D152EAEF
:1008C00003353FF4FDAE1046194622E750EA4106D3
:1008D00018BF52EA43067FF4C5AE50EA41047FF4E4
:1008E0000DAF52EA43057FF4EBAE12E74FF0FF3C49
:1008F00006E000BF4FF0010C02E000BF4FF0010C1A
:100900004DF804CD4FEA410C7FEA6C5C4FEA430C92
:1009100018BF7FEA6C5C1BD001B050EA410C0CBFE1
:1009200052EA430C91EA030F02BF90EA020F002043
:10093000704710F1000F91EA030F58BF994208BFAA
:1009400090422CBFD8176FEAE37040F00100704767
:100950004FEA410C7FEA6C5C02D150EA013C07D1BE
:100960004FEA430C7FEA6C5CD6D152EA033CD3D009
:100970005DF8040B704700BF8446104662468C4603
:100980001946634600E000BF01B5FFF7B7FF002836
:1009900048BF10F1000F01BD4DF808EDFFF7F4FF5F
:1009A0000CBF012000205DF808FB00BF4DF808EDEA
:1009B000FFF7EAFF34BF012000205DF808FB00BF0D
:1009C0004DF808EDFFF7E0FF94BF012000205DF82F
:1009D00008FB00BF4DF808EDFFF7CEFF94BF0120E4
:1009E00000205DF808FB00BF4DF808EDFFF7C4FFDD
:1009F00034BF012000205DF808FB00BF4FEA410230
:100A000012F5001215D211D56FF47873B3EB625260
:100A100012D94FEAC12343F0004343EA505311F087
:100A2000004F23FA02F018BF404270474FF0000019
:100A3000704750EA013005D111F0004008BF6FF057
:100A4000004070474FF00000704700BF4FEA410C74
:100A50007FEA6C5C02D150EA013C0AD14FEA430CB8
:100A60007FEA6C5C02D152EA033C02D14FF00000F5
:100A700070474FF0010070472DE9F04F85B00746F1
:100A80000D4614469B46DDF83890DDF83C809DF815
:100A900040A09DF84460D1E90023CDE902239A49A2
:100AA000D1E90001FFF778FFB8B1D5E902239649F3
:100AB000D1E90201FFF770FF78B1D4E9002393492F
:100AC000D1E90001FFF768FF38B1D4E902238F496B
:100AD000D1E90201FFF760FFA0B98D4B01221A7026
:100AE0008949DDE90223C1E90023D5E90223C1E9EF
:100AF0000223D4E900238549C1E90023D4E9022374
:100B0000C1E90223032E0BD8DFE806F002717A83D5
:100B1000DBE90023D4E90001FFF71EFBCDE900016A
:100B20007B4B1B783BB17B4BDDE90012C3E9001224
:100B3000774B00221A70BAF1000F00F0C780DDE990
:100B400000AB52465B467349D1E90001FFF704FB55
:100B5000044621F0004500226F4B50465946FFF7EE
:100B600043FF00286FD000226B4B20462946FFF739
:100B700027FF002856D00022674B20462946FFF762
:100B8000CDFD0022654BFFF7E7FA04460D464A46C5
:100B90004346FFF799FC02460B4620462946FFF7DD
:100BA00093FC02460B4654A1D1E90001FFF7D4FAA9
:100BB0004A464346FFF7D2FAC7E900014EA3D3E9FC
:100BC0000023FFF7FDFE20B14BA3D3E90023C7E9C3
:100BD00000234A464346D7E90001FFF705FF0028F6
:100BE0006AD04A464346C7E9002300241FE0D4E9FF
:100BF0000023DBE90001FFF7AFFACDE900018FE741
:100C0000DBE90223D4E90201FFF7A6FACDE90001EE
:100C100086E7D4E90223DBE90201FFF79DFACDE97B
:100C200000017DE74A464346C7E90023012400222C
:100C30003B4BDDE90001FFF7C3FE002840D1204611
:100C400005B0BDE8F08F08F100460022324BDDE927
:100C50000001FFF763FD2AA3D3E90023FFF77CFA25
:100C600004460D4602460B4648463146FFF72CFC2B
:100C700002460B4620462946FFF726FC4A464346D5
:100C8000FFF76CFAC7E900011BA3D3E90023FFF7C4
:100C900097FE20B118A3D3E90023C7E900234A46F1
:100CA0004346D7E90001FFF79FFE38B14A46434665
:100CB000C7E900230224BAE70024B8E70224B6E714
:100CC00000220023C7E900230324B8E70022144BC5
:100CD000DDE90001FFF774FE28B94A464346C7E93B
:100CE00000230124ABE700220023C7E900230324EB
:100CF000A5E700BFAFF30080000000000070974040
:100D00009A9999999999F13FB8070020D80700203E
:100D1000080000208803002000408F400000F03FC2
:100D20000000244010B402EBD2735B105C422144FB
:100D3000401A824203DC90FBF2F302FB130000280E
:100D400002DB204410BC70470028B8BF4042101A94
:100D5000F7E700001F4B9B7803F00303032B04D03D
:100D60001C4B9B7813F0010F02D11B4B01221A7010
:100D7000194B1B78B3B1174B9B7803F00303032B7C
:100D800010D0144B9B7813F0010F0BD0124B0022A4
:100D90001A70124A136801331360152B02DD1346D3
:100DA00000221A600D4B1A780D4B5A719A71DA7144
:100DB0001A72084B9B7803F00303032B07D0054BF3
:100DC0009B7813F0020F02D0044B00221A6000201F
:100DD000704700BF400F00200000002004000020EA
:100DE00034000020084B9B7813F0100F06D1074AFF
:100DF000537803F0C703537000207047034A5378B9
:100E000043F038035370F7E7400F00203000002014
:100E1000002309E0590019444800054A0244002112
:100E20005180032111710133052BF3DD0020704740
:100E300040000020F0B4002407E0E300C5180B4494
:100E4000D3E90067C5E9006701349442F5DBF0BCE3
:100E50007047000070B582B00D4603287ED8DFE8E9
:100E600000F00221405F584A537B917B03EB012342
:100E7000D17B03EB0143127C03EB0263534A1468FA
:100E80001C44002D6DD0012D03D0022D06D0064646
:100E900068E05B4213600646044663E04C4B1E6804
:100EA000A61B5FE0484A537C917C03EB0123D17C75
:100EB00003EB0143127D03EB0263444A54681C4474
:100EC000002D6BD0012D03D0022D06D0002649E065
:100ED0005B4253600026344644E03D4B5E68A61BEF
:100EE00040E0394A9378D17803EB0123117903EB81
:100EF0000143527903EB0263344A94681C44002D89
:100F00004ED0012D03D0022D06D000262AE05B42F0
:100F100093600026344625E02D4B9E68A61B21E0F9
:100F2000294A9379D17903EB0123117A03EB014329
:100F3000527A03EB0263254AD4681C4495B3012D11
:100F400003D0022D06D000260CE05B42D3600026C1
:100F5000344607E01E4BDE68A61B03E0002634463D
:100F600000E006461A4B43F820401A4B1A681A4B09
:100F7000A3FB02135B09642101FB1323092B08D88F
:100F8000012D06D0154B1B68022B0DDC0133134AD3
:100F90001360022D15D0204602B070BD0026E1E797
:100FA0000026DFE70026DDE709488368426801681C
:100FB000C06800900A4804F0B7FF084B00221A608E
:100FC000E7E73446E7E700BF640000200C03002099
:100FD000980700203C0F00201F85EB51980300204C
:100FE0008496000810B50446012819D018B10228CB
:100FF0002AD000202DE04FF48051012004F052FE51
:1010000038B1144B01221A7741F288325A832046B4
:101010001FE0104B03221A7700225A83022018E0A7
:101020000421012004F03EFE38B10A4B02221A7757
:1010300041F288325A8320460BE0064B03221A778E
:1010400000225A83022004E0024B03221A77002276
:101050005A8310BD400000202DE9F04FEBB006464A
:101060000A900B9115460C921C460893142242A834
:10107000FFF7E0FE142229461AA8FFF7DBFE022242
:10108000214616A8FFF7D6FE0222749912A8FFF790
:10109000D1FE032E00F2AF80DFE806F002506F8E23
:1010A0000C9BD3E900230899D1E90201FFF754F81A
:1010B00004460D4600220023FFF778FC002840F08C
:1010C0009D800022002320462946FFF78DFC002842
:1010D00000F09B8000237C4CCDE9103400230D935D
:1010E0000A9BA3F1020A5FFA8AFABAF1010F40F2F1
:1010F000BD80DDE91823DDE91401FFF72DF8054671
:1011000001F10044DDE91623DDE91201FFF724F8BF
:1011100002460B4628462146FFF700FBCDE90E01AB
:101120000024A346254600220023CDE90623CDE96D
:101130000423CDE90223CDE9002300E10C9BD3E990
:1011400000230899D1E90201FFF706F804460D468D
:1011500000220023FFF72AFC00285DD10022002393
:1011600020462946FFF740FC00285CD00023564C5F
:10117000CDE9103401230D93B2E70B9BD3E9002393
:101180000899D1E90001FEF7E7FF04460D46002269
:101190000023FFF70BFC00284CD10022002320463F
:1011A0002946FFF721FC00284BD00023474CCDE90E
:1011B000103401230D9393E70B9BD3E90023089987
:1011C000D1E90001FEF7C8FF04460D4600220023C6
:1011D000FFF7ECFB00283BD10022002320462946E4
:1011E000FFF702FC00283AD00023384CCDE9103438
:1011F00000230D9374E700230D9371E70023324C15
:10120000CDE9103401230D936AE700232E4CCDE97C
:10121000103402230D9363E700232B4CCDE91034E7
:1012200000230D935CE70023274CCDE91034022303
:101230000D9355E70023254CCDE9103400230D9381
:101240004EE70023214CCDE9103402230D9347E7EC
:1012500000231E4CCDE9103401230D9340E70023F9
:101260001A4CCDE9103402230D9339E716981799DB
:10127000DDE91823CDE91623024601F10043CDE94B
:10128000182312981399DDE91423CDE9122302469D
:1012900001F10043CDE91423002212E0D3006AA932
:1012A000CC1854F8A06C54F89C5C1AA90B44D3E9F0
:1012B000000144E92801304605F10041C3E900017D
:1012C0000132132AEADD14E70000F03F0000F0BF0E
:1012D0004FEAC4086AAB434453E9286732463B46A9
:1012E000DDE90001FEF73AFFCDE900011AAB9844B1
:1012F00098E8000342464B46DDE90201FEF72EFF67
:10130000CDE9020132463B4630463946FFF7DCF86C
:1013100002460B46DDE90401FEF720FFCDE904019A
:1013200042464B4630463946FFF7CEF802460B465A
:10133000DDE90601FEF712FFCDE906010134132CA9
:1013400020DC002CC4DD661E6AAB03EBC60353E948
:1013500028236AA901EBC40151E92801FFF71CFB0E
:1013600000B901251AAB03EBC40103EBC606D6E9AD
:101370000023D1E90001FFF70FFB0028A8D14FF0AF
:10138000010BA5E7BAF1010F40F20381089ED6E9EF
:101390000234CDE908341A4623467499D1E9020192
:1013A000FEF7DAFE804601F10044C0CE32463B46ED
:1013B0007499D1E90001FEF7CFFE02460B46404684
:1013C0002146FFF7ABF982468846024601F1004309
:1013D00030463946FFF778F802460B46DDE908014A
:1013E000FEF7BCFE814601F100440026924F0B9BA4
:1013F000D3E90023504608F10041FFF765F8CDE935
:10140000080132463B460C99D1E90001FFF75CF830
:1014100002460B46DDE90801FEF7A0FE4A462346D8
:10142000FEF79AFE814621F000445246434650465C
:101430004146FFF749F8CDE9080132463B463046C0
:101440003946FFF741F802460B46DDE90801FEF791
:1014500085FE06F0A3FA02460B4648462146FFF7F2
:101460005DF9CDE908011DB9BBF1000F00F09E80C8
:101470000022724BDDE90001FFF750F904460D46EA
:1014800000226E4BDDE90201FFF748F982468B46E8
:1014900000226A4BDDE90401FFF740F980468946E6
:1014A0000022664BDDE90601FFF738F906460F46D4
:1014B00052465B4620462946FFF706F802460B4691
:1014C00030463946FEF748FE074601F100462246FF
:1014D0002B4620462946FEF7F7FF02460B464046BC
:1014E0004946FEF739FE02460B4638463146FFF7BD
:1014F00015F904460D4602460B46DDE90E894046C5
:101500004946FEF7E1FF00224B4BFEF727FE02465D
:101510000B46FEF7D9FF06460F4642464B4640466D
:101520004946FEF7D1FF0022434BFEF717FE8046E7
:10153000894622462B4620462946FEF7C5FF002253
:101540003D4BFEF70BFE02460B4640464946FEF772
:10155000BBFF02460B4630463946FFF7DFF806F080
:101560001DFA06F069F906460F4631A3D3E90023B8
:10157000DDE91001FEF7A8FF32463B46FEF7A4FF67
:1015800007460E460A9B032B25D8DFE803F01D1DF6
:101590003E3E089B5C68D3F8009004F100440026AE
:1015A00000274FF0000ADFF8908020E70022002398
:1015B0007599C1E90023769B1946DDE90823C1E945
:1015C000002303230D9311E0002200232046294627
:1015D000FFF7ECF970B93A4633467599C1E9002333
:1015E000769B1946DDE90823C1E900230D986BB00D
:1015F000BDE8F08F0022002338463146FFF7CCF9D2
:101600000028E8D106F10046E5E700220023204645
:101610002946FFF7E9F90028DDD0002200233846EB
:101620003146FFF7B9F90028D5D106F10046D2E7D7
:10163000F8C1631ADCA54C400000F03F00003440C4
:101640002DE9F043D9B005460C46DDF888C10023EA
:1016500011E003EB4301CA006244D2E90001DE005D
:1016600058AF374447E92C01D2E9020104AA3244B9
:10167000C2E900010133132BEBDD54AB029356ABEF
:101680000193619B0093609B04AA2CA99DF88C0197
:10169000FFF7E2FC06467A4B1A687A4BA3FB02136B
:1016A0005B09642101FB1323092B12D954ABD3E945
:1016B00000890022744B40464946FFF795F90028FF
:1016C0005ED0FEB1012E3AD000263746B046B14674
:1016D0006BE056ABD3E9000106F018F88046894666
:1016E00054ABD3E9000106F011F8FFF787F907467C
:1016F00040464946FFF782F93A460146634804F0FE
:1017000013FCD3E70022624B40464946FFF758F9E5
:10171000002840F0958000225E4B40464946FFF786
:1017200059F9002840F0928000225B4B4046494620
:10173000FEF7F4FF804689460026374635E0002252
:10174000534B40464946FFF73BF9002840F0848060
:1017500042464B4640464946FEF700FD00224D4BAF
:10176000FFF738F900287DD100224B4B404649460F
:10177000FEF7D4FF06460F464FF00008C14614E0BE
:1017800056ABD3E900670022002330463946FFF705
:101790002BF900283BD032463B4630463946FEF70F
:1017A000DDFC804689460026374600223B4B4046FA
:1017B00029F00041FFF718F958B1002200234046F4
:1017C0004946FFF711F9002851D04FF00008DFF823
:1017D000CC900022314B304627F00041FFF704F94E
:1017E00048B10022002330463946FFF7FDF80028B3
:1017F00042D00026294F42464B46C5E900233246D7
:101800003B46C4E90023002059B0BDE8F083002224
:10181000002330463946FFF7C9F820B9002637467D
:10182000B046B146C1E732463B4630463946FEF740
:1018300095FC064621F000474FF00008C146B4E78A
:1018400000263746B0464FF08049AEE700263746BF
:10185000B046DFF84890A8E700264FF08047B04632
:10186000B146A2E700260D4FB046B1469DE74FF0C6
:101870000008DFF82C90ACE70026094FBBE700BF5B
:101880003C0F00201F85EB5100002440909700087A
:10189000000049400000794000003940000030401D
:1018A000000030C010B50221002004F0FBF940B167
:1018B000084B00241C8103229A7204F0FDFC204690
:1018C00010BD044B4FF461721A8101229A724FF0DD
:1018D000FF30F5E74000002010B50121002004F0A2
:1018E000E1F940B1084B00245C8003221A7104F036
:1018F000DDFC204610BD044B4FF461725A8001227A
:101900001A714FF0FF30F5E74000002000000000A2
:101910002DE9F04FB9B082460F46A94C4822214626
:1019200026A807F021FE902204F1480102A807F042
:101930001BFE00240094019400E00134082C1EDCFE
:101940009BA3D3E9002338A901EBC40555E936016F
:10195000FEF7BAFD45E93601022CEEDD002099497B
:1019600038AB03EBC40343E9360104F1090338AA99
:1019700002EBC3030020944943E93601DDE71FB9B8
:1019800002230193009CBDE0012F06D0022FF9D164
:101990000123009302230193F4E701230193F1E76C
:1019A00004F078FC0646B6E004F07AFC0646B2E0A5
:1019B000002DB8BF6D42C5F50065C2E004EBC4035D
:1019C0001A440CEBC20252E9368900284EDD40462B
:1019D000494605F09BFEFFF711F804EB44035A005B
:1019E0007A4B134458800022002340464946FEF7B4
:1019F000D3FF80B304EB44035A00744B1344032217
:101A00001A71734B01221A55002F58D1704B1B7855
:101A1000002B66D06E4B5B78002B40F099804FF026
:101A2000000B60E00132082ACFDC80EAE071A1EB14
:101A3000E07104EBC40313440DF1E00C0CEB8303E1
:101A400053F8483C9942B9DA082AEBD14FF0000824
:101A50004FF00009E6E704EB44035A005B4B1344E4
:101A600001221A715A4B00221A55CDE740464946C9
:101A700005F04CFEFEF7C2FF04EB44035A00534B43
:101A8000134458800022002340464946FEF784FF55
:101A900050B104EB44035A004C4B134403221A7117
:101AA0004B4B01221A55AFE704EB44035A00474B56
:101AB000134402221A71464B00221A55A4E7012F43
:101AC00008D0022F0FD1424B5B78002B46D04FF04D
:101AD000010B08E03E4B1B78002B3CD04FF0010B74
:101AE00001E04FF0000B3B4B1A683B4BA3FB02138A
:101AF0005B09642101FB1323092B02D88CB3012C51
:101B00003FD00134019BA3424BDD002C3FF448AF92
:101B1000012C3FF449AF7342C6F30A05C3F30A032D
:101B200058BF5D425046FEF765FC23A3D3E900236E
:101B3000FEF7CAFC05F0EAFDFEF760FF002DFFF698
:101B400037AF4FF400622946FFF7ECF800226AE74E
:101B50004FF0010BC7E74FF0000BC4E74FF0000B4D
:101B6000C1E72846FEF746FC00221C4BFEF7ACFC02
:101B700005F0CCFDFEF742FF0146194804F0D4F908
:101B8000BFE72846FEF736FC0022144BFEF79CFC0C
:101B900005F0BCFDFEF732FF0146124804F0C4F91F
:101BA000AFE7584639B0BDE8F08F00BFAFF3008013
:101BB000713D0AD7A370ED3F176CC1166CC116407A
:101BC0009895000800208C4000908A40400000203A
:101BD000A00300203C0F00201F85EB510080C63F72
:101BE000C8970008D89700082DE970430024012CFD
:101BF0006FDC3D4D284604F0F2FD0646284604F011
:101C0000DDFD74B1012C67D1404203255EB9374A2E
:101C10006B005819410011440020087148800134BC
:101C2000E5E70225F2E7002E35DD1CB1012C2AD0B4
:101C300001204FE005EB45035A002C4B13440122D1
:101C40001A71002EB8BF76429C2303FB06F603FBF5
:101C500000F0FEF7CFFB22A3D3E90023FEF734FC0C
:101C6000804689463046FEF7C5FB42464B46FEF7A6
:101C700075FAFEF7C3FE42F20F73984220DC00288B
:101C800020DA00201EE005EB45035A00174B1344F1
:101C900002221A71D5E71CB1012C09D0012019E0EC
:101CA00005EB45035A00114B134402221A71C8E791
:101CB00005EB45035A000D4B134401221A71C0E78E
:101CC00042F20F7005EB45056A00084B134458803B
:101CD000A5E70020BDE870830120FBE7AFF300809B
:101CE0009A9999999999D93F400F00204000002076
:101CF0002DE9F04FA1B001293ED0A34B1B78002B5A
:101D000037D1A24B8CA5D5E90045C3E900458CA588
:101D1000D5E90045C3E902458BA5D5E90045C3E9EE
:101D200004458BA5D5E90045C3E906450024984D37
:101D3000C3E9084500240025C3E90A4500264FF001
:101D40000047C3E90C67C3E90E4583A5D5E9004503
:101D5000C3E9104582A5D5E90045C3E9124582A72C
:101D6000D7E90067C3E91467C3E91645864B01222A
:101D70001A70044600251BE00021022900F34A8165
:101D8000CA00831800240025C3E90045814B134491
:101D9000C3E900450131F0E702212846FFF75AF870
:101DA000FEF728FB20AB03EBC50343E91A0101351D
:101DB000032DF1DD00271CE005EB8703734901EBE0
:101DC000C30120AB03EBC50353E91A23D1E900019A
:101DD000FEF77AFB02460B4620A901EBC70656E93F
:101DE0000601FEF7BBF946E906010135032DE3DDE7
:101DF0000137022F08DC0020002120AB03EBC703D2
:101E000043E906010025F1E7624BD3E90467DDE908
:101E10001E2330463946FEF7A1F9CDE9180154A337
:101E2000D3E9002330463946FEF74EFB52A3D3E9EF
:101E30000023FEF749FB52A3D3E9002305F04EFD32
:101E4000814688464CA3D3E90023484628F0004148
:101E5000FEF7C0FD80B10022002348464146FEF750
:101E6000B9FD00285CD046A3D3E90023484641468B
:101E7000FEF772F981468846464DD5E90067DDE9EF
:101E80001AAB4846414605F0F5FBCDE90001024694
:101E90000B4650465946FEF717FB02460B463046A6
:101EA0003946FEF75BF9CDE90401DDE91C674846D8
:101EB000414605F079FC02460B46CDE90223304647
:101EC0003946FEF701FB02460B46DDE90401FEF749
:101ED00045F9CDE91401D5E90289DDE9022350462F
:101EE0005946FEF7F1FA02460B4640464946FEF7D0
:101EF00033F98046894632463B46DDE90001FEF76C
:101F0000E3FA02460B4640464946FEF727F9CDE97B
:101F10001601032214A92846FEF78CFF002548E08D
:101F200017A3D3E9002348464146FEF717F9814637
:101F30008846A1E7AFF300800A5D4647DB93ACBF5C
:101F40007362E6D02773E1BF0A5D4647DB93AC3F7F
:101F50001A3B335EB019DD3FCD7E4F03344AD33F89
:101F60004A1B3DA0F550CF3FCD7E4F03344AD3BF2F
:101F7000682FA1BD84F6F23E182D4454FB21094080
:101F8000182D4454FB211940950300202003002004
:101F90000000E0BF8007002020AB03EBC50624A3B0
:101FA000D3E9002356E90C01FEF78EFA46E9120147
:101FB0000135012DF0DD20A3D3E90023DDE918016F
:101FC000FEF782FACDE9120100221D4B05F086FCD6
:101FD00006460D4602460B46CDE912230022194B58
:101FE000304625F00041FEF7F5FC70B100220023D9
:101FF00030462946FEF7EEFC80B10022104B3046F9
:102000002946FEF7A9F8CDE9120103220EA92046C0
:10201000FEF710FF002021B0BDE8F08F0022084B32
:1020200030462946FEF79AF8CDE91201EDE700BFE8
:10203000D221337F7CD9923FABAAAAAAAAAA6A3F2F
:10204000008076400080664030B587B005460C467B
:1020500000220023CDE90023CDE90223CDE90423AA
:1020600000216846FFF744FE012C11D000231EE03A
:1020700002EB4201CB002B4400200021C3E9000108
:10208000C3E90201C3E904010132132AF0DD15E0BE
:102090000022FAE75C1C04EB4402D00003EB43038C
:1020A000D900032229442844FEF7C4FE2346122BFC
:1020B000F0DD032269462846FEF7BCFE002007B08B
:1020C00030BD0000000000002DE9F04F8DB08246C9
:1020D0008B46CDE90423D0E9004522462B468549AD
:1020E000D1E90001FEF758FCB8B1DAE902238149D1
:1020F000D1E90201FEF750FC78B1DBE900237E490B
:10210000D1E90001FEF748FC38B1DBE902237A4946
:10211000D1E90201FEF740FC58BB784B01221A605E
:10212000744BC3E90045DAE90289C3E90289DBE9B6
:102130000001714BC3E90001DBE90267C3E90267F3
:1021400022462B46FEF708F804460D4600220023DF
:10215000FEF722FCF0B142464B4630463946FDF7C9
:10216000FBFF00220023FEF735FC78B1644B02220E
:102170001A70624B1B68002B00F09180604B1B783B
:10218000032B28D8DFE803F0556C21405C4B032279
:102190001A70EEE742464B4630463946FDF7DCFF03
:1021A00000220023FEF7F8FB0028E2D000220023E3
:1021B00020462946FEF70EFC18B1514B00221A703A
:1021C000D7E74F4B01221A70D3E74E4B1B786BB108
:1021D0004C4B5B788BB14B4B1B78012B40F035811E
:1021E000484B5B78012B52D004242FE10121B4200D
:1021F000FFF78EFB434B1870EAE70221AF20FFF791
:1022000087FB404B5870E6E73E4B1B7853B13D4B84
:102210005B78002BDFD10221AF20FFF779FB394B30
:102220005870D8E70121B420FFF772FB354B1870C6
:10223000EDE7344B1B785BB1324B5B78002BCAD196
:10224000022140F20910FFF763FB2E4B5870C2E7E2
:1022500001214FF48770FFF75BFB2A4B1870EBE707
:10226000284B1B785BB1274B5B78002BB3D1022145
:1022700040F20910FFF74CFB224B5870ABE70121ED
:102280004FF48770FFF744FB1E4B1870EBE70023F9
:102290001A4A13601B4A137053700424D6E01A4E76
:1022A00000213046FFF7D0FE154D2B7803939DF8A3
:1022B00058300293DDE90434CDE9003433465A4600
:1022C00051460AA8FEF7D8FB04462B7803930296E2
:1022D000CDF804B0CDF800A0DDE90A2306A908A8CE
:1022E000FFF7AEF92B78032B24D8DFE803F0577201
:1022F0000F4200BFA8070020C8070020900300205D
:102300009C030020EC070020C0030020DDE9080149
:1023100005F0FCF9FEF772FB0121B430FFF7F8FA83
:10232000DDE9060105F0F2F9FEF768FB0221AF30A6
:10233000FFF7EEFA032C67D0DDE90A6700220023DD
:1023400030463946FEF732FB002865D142A3D3E977
:10235000002330463946FEF747FB10B13EA7D7E9C8
:1023600000673F4B1B78032B5ED8DFE803F068580B
:102370005868DDE9060105F0C9F9FEF73FFB0121C8
:10238000B430FFF7C5FADDE9080105F0BFF9FEF743
:1023900035FB0221AF30FFF7BBFACBE70698079B6E
:1023A00003F1004105F0B2F9FEF728FB012100F529
:1023B0008770FFF7ADFA0898099B03F1004105F01B
:1023C000A5F9FEF71BFB022100F20910FFF7A0FAA6
:1023D000B0E70898099B03F1004105F097F9FEF773
:1023E0000DFB012100F58770FFF792FA0698079B15
:1023F00003F1004105F08AF9FEF700FB022100F22B
:102400000910FFF785FA95E7164B0022DA819A82C8
:1024100003221A749A7519E00026002796E7114BDB
:1024200001221A7402229A753046394605F06EF977
:10243000FEF7E4FA80B20B4BD881988206E0094B94
:1024400002221A7401229A75EEE7042420460DB088
:10245000BDE8F08FAFF30080000000008087C3402C
:102460009C0300204000002008B500F0B5FA0020D1
:1024700008BD0000000000002DE9F0478AB09C4B29
:102480009B7813F0400F02D19A4B01221A70984B9F
:102490009A785A789A789B7803F00303032B01D03B
:1024A000934B9B78924B9B7803F00303032B01D053
:1024B0008F4B9B788E4B9B7803F00C030C2B04D036
:1024C0008B4B9B7813F0040F02D18B4B01221A70B7
:1024D000874B9B7803F00C030C2B04D0844B9B7828
:1024E00013F0080F02D1854B01221A70804B5A78E5
:1024F0005A785A785A789B7803F00C030C2B11D039
:102500007B4B9B7813F0040F0CD07B4B1B784BB1AB
:102510007B4B1B78032B24D00133794A1370764B05
:1025200000221A70724B9B7803F00C030C2B10D016
:102530006F4B9B7813F0080F0BD0704B1B7843B197
:102540006F4B1B788BB96E4B03221A706B4B0022BA
:102550001A706B4B1B78032B0DD8DFE803F05D2A54
:102560000A27674B00221A70D9E7013B644A1370AF
:10257000ECE7FEF74DFC00216248FFF7B9FB05468A
:1025800080B95B4B5B7813F0080F05D0584B5B7834
:1025900013F0020F40F04E81FEF724FC05460028A0
:1025A00000F0608128460AB0BDE8F087FEF730FCF5
:1025B000E1E74F4B9B7813F0400F05D04D4B1B7854
:1025C00013B1514B01221A70494B9B7813F0200F25
:1025D00002D04D4B00221A704B4B1B7813B9FEF7FB
:1025E00017FCC8E700220023CDE90623CDE9082324
:1025F000CDE902233AA3D3E90023CDE90423012343
:102600000193009338A3D3E9002302A906A8FFF79A
:102610005BFD3E4B1870AEE7354C204604F0F0F8F9
:1026200080EAE075A5EBE075204604F0E9F80028A3
:10263000B8BF404200FB05F5204604F0F2F880EAFE
:10264000E076A6EBE076204604F0EBF80028B8BF71
:10265000404200FB0650FDF7CDFE05F09FF9002239
:102660002B4BFEF7A3F900285CD02A4B1C68294BA2
:102670001C60294B1B78002B00F0A380274B1B7894
:10268000002B00F0A780254B1B7823B1224B1B7831
:10269000002B40F0A880FFF7A7FA0546002881D15B
:1026A000134B5B7813F0080F00F0A8801C4B01223D
:1026B00083F8222040F6B8321A840D4B5B7813F071
:1026C000020F40F0AF800A4B5B7813F0040F00F06C
:1026D000AD800120FEF786FC4DE700BFAFF3008020
:1026E000000000000044B640000000000058AB406D
:1026F000400F002080030020E80700209403002002
:1027000009000020A8030020EE0700200A00002096
:1027100000804640A40300208203002081030020A3
:1027200040000020804804F06BF800281EDB7E4C3F
:10273000204604F076F8FDF75DFE06460F4620467B
:1027400004F05EF8FDF756FE02460B463046394669
:10275000FDF7E4FF04F000FE71A3D3E90023FDF7C9
:10276000B3FEFEF74BF9C0F5877480E76E4C204648
:1027700004F057F8FDF73EFE06460F46204604F0EB
:102780003FF8FDF737FE02460B4630463946FDF767
:10279000C5FF04F0E1FD62A3D3E90023FDF794FE39
:1027A00002460B46104603F10041FEF727F9041ECE
:1027B00004DBC4F58774C4F5B47458E7C4F58774B2
:1027C000F9E7FFF76FF800287FF458AF574B012265
:1027D0001A7053E7FFF780F800287FF454AF544B8A
:1027E00001221A704FE7012104F1B400FFF790F8BD
:1027F000022104F1AF00FFF78BF84CE74A4B5B78FE
:1028000013F0100F07D04B4B022283F8222040F622
:10281000B8321A8451E7474B032283F82220002262
:102820001A844AE70020FEF7DDFBA4E60220FEF74B
:10283000D9FBA0E60121FEF70DFB01210846FEF7BA
:1028400009FB01210220FEF705FB01210320FEF711
:1028500001FB01213848FFF74BFA01213748FFF708
:10286000F3FB99E6FEF776FA054600287FF49AAE68
:10287000334B1A68334BA3FB02135B09642101FB42
:102880001323092B3FF68EAE2B49D1E90067D1E91E
:10289000028900222C4BD1E90401FDF715FEFEF759
:1028A000ADF8824640464946FEF7A8F880463046D5
:1028B0003946FEF7A3F8534642460146234803F043
:1028C00033FB234B1A78234B53F82210224803F092
:1028D0002BFB224B1A78224B53F82210214803F08D
:1028E00023FB2146204803F01FFB4FF480510120B9
:1028F00003F0D8F958B91D4803F016FB0421012054
:1029000003F0D0F938B11A4803F00EFB4AE6194833
:1029100003F00AFBF2E7184803F006FB42E600BFAB
:1029200046DF617EDCA54C40400F00208203002082
:102930008103002040000020A8030020A005002003
:102940003C0F00201F85EB5100005940B496000851
:10295000090000208C980008E09600080A0000207A
:10296000B0970008F0960008089700082097000824
:10297000749700083C97000858970008FEE700008D
:1029800008B54FF4A2720249024806F0EDFD08BDF9
:102990009C980008F0070020002209E0930003F152
:1029A000006303F5FE331968094B43F82210013226
:1029B0000C2AF3DD002307E0064A52F823200449DD
:1029C00051F8231011600133082BF5DD704700BF6B
:1029D000340900200C00002008B5FFF7D1FFFFF7F5
:1029E000DBFF08BD00B583B01C4B9A6942F00102C1
:1029F0009A619B6903F001030193019B032000F09E
:102A0000F1FA002211466FF00B0000F009FB0022E2
:102A100011466FF00A0000F003FB002211466FF030
:102A2000090000F0FDFA002211466FF0040000F0EA
:102A3000F7FA002211466FF0030000F0F1FA0022CD
:102A400011466FF0010000F0EBFA002211464FF042
:102A5000FF3000F0E5FA03B05DF804FB001002401F
:102A6000F0B589B003685E4A934205D005465D4AD9
:102A7000934255D009B0F0BD5B4B9A6942F0080211
:102A80009A619B6903F008030093009B544A136802
:102A9000C3F30E0313604FF44073049311230593A3
:102AA00002230793514C04A9204600F073FDE3680C
:102AB00043F44073E3604D4B9B6803F44073B3F5FC
:102AC000407FF8D1494AD36823F44073D360474B21
:102AD0009B6813F4407FFAD14FF4407304931223A0
:102AE00005930323079304A9404800F053FD404A8F
:102AF000536843F0020353603B4BDA6942F400121F
:102B0000DA61DB6903F400130193019B344B1A680B
:102B100042F400421A601A68C2F30E021A60A9E772
:102B20004FF440630493122305930323079304A9EE
:102B30002E4800F02FFD2C4BDA6942F48002DA6156
:102B4000DA6902F480020292029A5A6942F00102A2
:102B50005A615B6903F001030393039B254E264BE7
:102B6000336000247460B4608027F760346174615E
:102B7000B461F461304600F0F9FA2E6375621F4EBD
:102B80001F4B336010237360B460F760346174616D
:102B9000B461F461304600F0E9FAEE627562012238
:102BA00021460E2000F03CFA0E2000F07FFA0122B0
:102BB00021460F2000F034FA0F2000F077FA224669
:102BC0002146212000F02CFA212000F06FFA224645
:102BD0002146222000F024FA222000F067FA49E77B
:102BE000005400400058004000100240000C01401A
:102BF000000001407C09002058000240B409002078
:102C00004400024000B587B003681B4A934205D0D8
:102C10001A4A93421BD007B05DF804FB184BDA69DF
:102C200042F00202DA61DB6903F002030093009BC9
:102C3000C023029300230393049302A9114800F0D8
:102C4000A9FC114A536843F440635360E3E70C4B1B
:102C5000DA6942F00402DA61DB6903F004030193EC
:102C6000019BC023029300230393049302A9074806
:102C700000F090FCCFE700BF0004004000080040D7
:102C8000001002400010014000000140000C014013
:102C9000F0B58DB00368724A934209D00446714A78
:102CA00093422FD0704A934200F086800DB0F0BD61
:102CB0006E4B9A6942F480429A619A6902F48042AA
:102CC0000192019A9A6942F004029A619B6903F0A9
:102CD00004030293029B4FF40073089302230993A9
:102CE00003230B93624C08A9204600F053FC4FF4D9
:102CF00080630893002309930A9308A9204600F0F3
:102D000049FCD3E7594EF36943F40033F361F369A7
:102D100003F400330393039BB36943F00403B361EB
:102D2000B36903F004030493049B04230893022370
:102D3000099303230B934E4F08A9384600F02AFC51
:102D400008230893002509950A9508A9384600F03C
:102D500021FC736943F001037361736903F001039C
:102D60000593059B434E444B336010277760B56055
:102D70008023F36035617561B561F561304600F01F
:102D8000F5F92663746201222946112000F048F902
:102D9000112000F08BF92A462946384600F040F908
:102DA000384600F083F901222946262000F038F940
:102DB000262000F07BF979E72C4BDA6942F4802277
:102DC000DA61DA6902F480220692069A9A6942F080
:102DD00010029A619B6903F010030793079B4FF45D
:102DE000806308930223099303230B93234D08A9BF
:102DF000284600F0CFFB4FF40063089300260996A5
:102E00000A9608A9284600F0C5FB1D4A536823F01E
:102E1000300343F0100353601A4D1B4B2B606E6060
:102E2000AE608023EB602E616E61AE614FF40053A3
:102E3000EB61284600F09AF965636C6232463146D0
:102E40000D2000F0EDF80D2000F030F901223146A0
:102E5000272000F0E5F8272000F028F926E700BF3A
:102E6000003801400044004000480040001002408B
:102E700000080140240A00208000024000100140A8
:102E800000000140EC090020300002407047FEE7DE
:102E9000FEE7FEE7FEE770477047704708B500F0B1
:102EA00085F800F04EF9024A13680133136008BD3B
:102EB0003C0F002008B5024B186B00F033FA08BD38
:102EC0000002002008B5024B586B00F02BFA08BD39
:102ED0004002002008B5024802F0D9FD08BD00BF3D
:102EE0004002002008B5024802F0D1FD08BD00BF35
:102EF0000002002008B5024BD86A00F013FA08BDA2
:102F00003801002008B5024B186B00F00BFA08BD21
:102F1000380100200F4B1A6842F001021A6059680C
:102F20000D4A0A405A601A6822F0847222F48032F4
:102F30001A601A6822F480221A605A6822F4FE028B
:102F40005A604FF41F029A60044B4FF000629A607F
:102F5000704700BF001002400000FFF800ED00E0E5
:102F600010B5044601F026FF064BA3FB0030800994
:102F700000F0B2F8002221464FF0FF3000F050F888
:102F8000002010BDD34D621008B5074A136843F006
:102F900010031360032000F025F80020FFF7E0FF86
:102FA000FFF720FD002008BD00200240024A136800
:102FB00001331360704700BF5C0A0020014B1868A2
:102FC000704700BF5C0A002010B582B00190FFF787
:102FD000F5FF0446FFF7F2FF001B019B9842F9D36F
:102FE00002B010BD10B50446C31E042B0FD80A4A08
:102FF000D36823F4E0631B041B0C240204F4E06494
:10300000234343F0BF6343F40033D36010BDBA21C0
:103010000248FFF7B3FCEAE700ED00E0F89900088A
:1030200070B505460C4616460F2A25D80F2C28D811
:103030001B4BDB68C3F30223C3F10702042A28BF3A
:103040000422191D062921D9033B4FF0FF3101FA53
:1030500002F224EA02049C4001FA03F326EA030682
:103060003443002D14DB2401E4B205F1604505F57D
:10307000614585F8004370BDD2210A48FFF77EFC08
:10308000D4E7D3210748FFF779FCD1E70023DCE739
:1030900005F00F052401E4B2034B5C55EBE700BFDC
:1030A00000ED00E0F899000814ED00E010B5041EF2
:1030B00008DB04F01F02640901239340044A42F82C
:1030C000243010BDE6210348FFF758FCF1E700BFAC
:1030D00000E100E0F89900080138B0F1807F0AD2E1
:1030E000064B5860064AF02182F8231000209860B1
:1030F00007221A6070470120704700BF10E000E00F
:1031000000ED00E010B50446042800D038B9042CC6
:103110000BD0094A136823F00403136010BD4FF469
:10312000DF710648FFF72AFCF1E7034A136843F012
:1031300004031360F2E700BF10E000E0F899000814
:10314000704708B5FFF7FCFF08BD10B40468636062
:103150004368102B05D0036899600368DA6010BCDF
:10316000704703689A600368D960F8E7002800F0A8
:10317000928010B504460368484A934215D0143231
:10318000934212D0143293420FD0143293420CD097
:103190001432934209D01432934206D0143293422F
:1031A00003D0B5213E48FFF7E9FB636823B1102B3C
:1031B00002D0B3F5804F4BD1A368402B01D0002B38
:1031C0004BD1E368802B01D0002B4BD123692BB16D
:1031D000B3F5807F02D0B3F5007F48D163692BB18E
:1031E000B3F5806F02D0B3F5006F45D1A3690BB181
:1031F000202B46D1E36943B1B3F5805F05D0B3F529
:10320000005F02D0B3F5405F40D194F821300BB994
:1032100084F82030022384F8213021680A6822F4DF
:103220007F5222F030026368A0680343E0680343E2
:103230002069034360690343A0690343E0690343D2
:1032400013430B6000206063012384F8213010BD1C
:10325000B6211348FFF792FBAEE7B7211048FFF7FE
:103260008DFBAEE7B8210E48FFF788FBAEE7B9212A
:103270000B48FFF783FBB1E7BA210948FFF77EFB54
:10328000B4E7BB210648FFF779FBB3E7BC2104484C
:10329000FFF774FBB9E70120704700BF0800024048
:1032A000309A0008F8B590F82040012C35D01D4622
:1032B00016460F460446012380F82030022380F88A
:1032C00021306A1E4FF6FE739A4220D820680368A8
:1032D00023F0010303602B46324639462046FFF7B0
:1032E00034FF2268136843F00203136022681368F6
:1032F00043F0040313602268136843F0080313606B
:103300002268136843F0010313600020F8BD40F207
:1033100061110348FFF732FBD8E70220F6E700BF50
:10332000309A000810B50446984B1A68036898490B
:103330008B4214D014318B4232D014318B4231D0B5
:1033400014318B4231D014318B4231D014318B4245
:1033500002D04FF0006103E04FF4000100E00821CB
:103360000A423CD01A6812F0080F38D01A6822F0CE
:1033700008021A602368864A93421FD0143293428F
:1033800045D01432934244D01432934244D0143284
:10339000934244D0143293420DD04FF000620EE0BD
:1033A0008021DDE74FF40061DAE74FF40041D7E711
:1033B0004FF40021D4E74FF4000200E00822734BE1
:1033C0005A60636B43F001036363042384F8213084
:1033D000002384F82030236B0BB1204698476B4BB9
:1033E0001A6823686A498B421FD014318B4241D03E
:1033F00014318B4240D014318B4240D014318B4277
:1034000040D014318B420DD04FF080610EE080220D
:10341000D5E74FF40062D2E74FF40042CFE74FF414
:103420000022CCE74FF4800100E004210A4239D0A9
:103430001A6812F0040F35D01A6812F0200F03D169
:103440001A6822F004021A602368514A93421FD07E
:10345000143293423ED0143293423DD01432934200
:103460003DD0143293423DD0143293420DD04FF0F0
:1034700080620EE04021D9E74FF48061D6E74FF437
:103480008041D3E74FF48021D0E74FF4800200E081
:1034900004223E4B5A60112384F82130E36A0BB1B9
:1034A00020469847394B1A68236839498B421FD008
:1034B00014318B4241D014318B4240D014318B42B5
:1034C00040D014318B4240D014318B420DD04FF09C
:1034D00000710EE04022DCE74FF48062D9E74FF440
:1034E0008042D6E74FF48022D3E74FF4001100E08A
:1034F00002210A423ED01A6812F0020F3AD01A682E
:1035000012F0200F03D11A6822F002021A60236819
:103510001F4A93421FD0143293422CD0143293424C
:103520002BD0143293422BD0143293422BD014322E
:1035300093420DD04FF000720EE02021D9E74FF4F6
:103540000071D6E74FF40051D3E74FF40031D0E7D4
:103550004FF4001200E002220C4B5A60636B63636D
:10356000012384F82130002384F82030A36A0BB1B2
:103570002046984710BD2022EEE74FF40072EBE79B
:103580004FF40052E8E74FF40032E5E70000024054
:10359000080002402DE9F04383B080460F46B54B4A
:1035A000984213D003F5806398420FD003F58063EF
:1035B00098420BD003F58063984207D003F58063EF
:1035C000984203D0CF21AC48FFF7D8F93B882BB302
:1035D0007B68012B1ED9112B1CD0022B1AD0122B69
:1035E00018D0A64A934215D002F58012934211D00A
:1035F00002F5801293420DD0A2F5F812934209D041
:1036000002F58012934205D002F58012934201D058
:10361000032B08D14FF000094E46DDE0D02196483B
:10362000FFF7ACF9D4E7D1219348FFF7A7F9F1E709
:10363000002B5ED0012B05D1FB68013B022B65D826
:10364000D7F80C90FF2C00F296804046FF2C00F239
:103650009580B20003680F21914023EA010309FA23
:1036600002F2134303607B6813F0805F00F0B380C5
:10367000834B9A6942F001029A619B6903F001034E
:103680000193019BB208911C7E4B53F8210006F078
:10369000030399000F238B4020EA0300754B9845E4
:1036A00072D003F58063984500F0CD8003F5806308
:1036B000984500F0CA8003F58063984562D00423E2
:1036C00063E0714A934214D00BD9704A934210D0F0
:1036D00002F5803293420CD0A2F580129342B1D110
:1036E00007E0A2F58012934203D002F580329342A4
:1036F000A8D1BB68022B2DD8BB68002B38D0012B7A
:103700002ED0C8F814504FF008099BE7E7215A481B
:10371000FFF734F994E7EE215748FFF72FF98EE0D1
:10372000FB68013B022B03D8FB6803F1080989E71A
:10373000F5215148FFF722F9F6E7FB68013B022B20
:1037400003D8FB6803F10C097CE7FC214A48FFF72A
:1037500015F9F6E740F209114748FFF70FF9CBE7F3
:10376000C8F810504FF008096CE74FF0000969E7FE
:103770004FF0040966E708F1040067E7A6F10802C4
:10378000920067E7032300E000238B4003430232EB
:103790003C4941F822307B6813F4803F57D03C4AC3
:1037A0001368234313607B6813F4003F55D0384AF5
:1037B0005368234353607B6813F4801F53D0344A0B
:1037C0009368234393607B6813F4001F62D0304AF0
:1037D000D3681C43D46001360F2E61D80125B54053
:1037E0003C682C40A542F6D1224B984513D003F5F6
:1037F000806398450FD003F5806398450BD003F59F
:103800008063984507D003F58063984503D0DF2196
:103810001948FFF7B3F87B68122B8ED03FF651AFF3
:10382000022B3FF47DAF7FF603AF032B9DD0112B0E
:103830007FF408AFFB68013B022B3FF66CAFFB68DF
:1038400003F10409FEE601239FE702239DE7104AE6
:10385000136823EA04031360A5E70D4A536823EABB
:1038600004035360A7E70A4A936823EA04039360BA
:10387000A9E700BF00080140689A00080000111085
:103880000010024000000140000021100000311033
:1038900000040140044AD36823EA0404D4609AE790
:1038A00003B0BDE8F08300BF0004014038B5054611
:1038B0000C4621B1AB681C4207D1002038BD4FF443
:1038C000E2710348FFF75AF8F4E70120F6E700BF7A
:1038D000689A000870B5064615460C4629B1012DB8
:1038E00009D875B92404346170BD4FF4F2710648EB
:1038F000FFF744F8F3E740F2E5110348FFF73EF81D
:10390000EFE73461F0E700BF689A00084368124AA5
:10391000934209D85800B1FBF0F0C0F30B03032B1E
:1039200000D970470420704782685AB903EB4300FE
:10393000B1FBF0F040F40040C0F30B03002BF0D1DA
:103940000120EEE703EB830000EB8000B1FBF0F019
:1039500040F44040F0E700BFA086010003685A69C8
:1039600012F4806F0DD05A6922F480625A610423E8
:103970008363202380F83530002380F83430012021
:103980007047002070472DE9F04106460C469046EE
:103990001D46FFF713FB0746B8F1000F1AD043E0AE
:1039A00025B1FFF70BFBC01BA84213D9202386F8D3
:1039B0003530002386F83430032019E033685B6922
:1039C00024EA03039BB2003318BF01237BB1B5F196
:1039D000FF3FE5D1C4F30743012BEFD033689B6968
:1039E00024EA03039BB2003318BF0123EEE7002053
:1039F000BDE8F08125B1FFF7E1FAC01BA84213D959
:103A0000202386F83530002386F834300320EFE792
:103A100033685B6924EA03039BB2B3FA83F35B095F
:103A20007BB1B5F1FF3FE5D1C4F30743012BEFD0E4
:103A300033689B6924EA03039BB2B3FA83F35B09FF
:103A4000EEE70020D4E7F8B504460D461646FFF72A
:103A5000B5FA074631E01A6842F400721A6022682B
:103A6000536923F4806353610423A363202384F800
:103A70003530002384F8343001202CE026B1FFF7E4
:103A80009DFAC01BB04218D9202384F8353000239A
:103A900084F8343003201EE023685B6925EA0303C1
:103AA0009BB2003318BF0123A3B123685A6912F4F3
:103AB000806FD0D1B6F1FF3FE0D1C5F30743012BB2
:103AC000EAD023689B6925EA03039BB2003318BF41
:103AD0000123E9E70020F8BD70B504460D461646FF
:103AE0000268136843F480731360334600224FF07A
:103AF0000111FFF748FF48BB2369B3F5804F0FD191
:103B0000236805F0FE051D61324614492046FFF783
:103B10009AFF0346D8B1A36B042B1CD1012316E0F6
:103B2000EB11226803F0060343F0F0031361324601
:103B30000B492046FFF787FF20B1A36B042B08D168
:103B4000012304E02368EDB21D61DDE7032318467D
:103B500070BD0323FBE70323F9E700BF0200010068
:103B600008000100F0B583B004460D461646026811
:103B7000136843F4806313600268136843F480732E
:103B80001360334600224FF00111FFF7FCFE0028BE
:103B90004CD12369B3F5804F11D1236845F001055D
:103BA000EDB21D61324627492046FFF74CFF034620
:103BB00000283CD0A36B042B42D1012337E0EF1146
:103BC00007F00607236847F0F0021A6132461E49E3
:103BD0002046FFF738FF20B1A36B042B2AD1012325
:103BE00025E02368EDB21D61324616492046FFF7F5
:103BF0002AFF20B1A36B042B1ED1012317E02368F9
:103C00005A6901929A690192019A1A6842F4807283
:103C10001A60334600224FF001112046FFF7B3FE31
:103C200060B9236847F0F1071F61BBE7032318461B
:103C300003B0F0BD0323FAE70323F8E70323F6E715
:103C40000323F4E7020001000800010070B50446F8
:103C50000D46FFF7B3F9064623685B6913F0800F42
:103C600018D12046FFF77AFEB0B9B5F1FF3FF3D087
:103C700025B1FFF7A3F9801BA842EDD9A36B43F050
:103C80002003A363202384F83530002384F83430E4
:103C9000032000E0002070BD0120FCE770B5044661
:103CA0000D46FFF78BF9064623685B6913F0040F96
:103CB00018D12046FFF752FEB0B9B5F1FF3FF3D05F
:103CC00025B1FFF77BF9801BA842EDD9A36B43F028
:103CD0002003A363202384F83530002384F8343094
:103CE000032000E0002070BD0120FCE7002800F068
:103CF000B38038B504460368584A934208D002F5A9
:103D00008062934204D04FF4A5715548FEF736FE09
:103D10006368013B534A93425ED8A36813B1B3F57D
:103D2000804F5FD1E36823F47F7323F00303002BFC
:103D30005ED12369B3F5804F02D0B3F5404F5DD11A
:103D40006369012B60D8A36933F0FE0362D1E36994
:103D50000BB1402B64D1236A0BB1802B66D194F850
:103D60003530002B68D0242384F83530226813685E
:103D700023F00103136001F023F801463A4BA3FB43
:103D800000239B0C226853606068384A904259D8DF
:103D900001332268136225682046FFF7B7FDE8610A
:103DA000E369216A22680B4313602369E168226892
:103DB0000B4393606369A16922680B43D360226857
:103DC000136843F0010313600020A063202384F8EC
:103DD000353084F8360038BD40F24B112048FEF7EC
:103DE000CDFD9AE74FF4A6711D48FEF7C7FD99E790
:103DF00040F24D111A48FEF7C1FD9AE74FF4A77142
:103E00001748FEF7BBFD9BE740F24F111448FEF741
:103E1000B5FD98E74FF4A8711148FEF7AFFD96E79E
:103E200040F251110E48FEF7A9FD94E74FF4A97135
:103E30000B48FEF7A3FD92E784F834302046FEF7E6
:103E40000FFE90E74FF4967202FB03F3084AA2FBC1
:103E500003239B0901339CE7012070470054004075
:103E6000A09A00087F1A060083DE1B43A08601008B
:103E7000D34D6210F0B583B01E4690F83530DBB2FA
:103E8000202B7FD104460F461546002A7ED00EB95E
:103E9000012378E042F2107301224149FFF773FDDC
:103EA000002875D194F83430012B73D0012384F8A5
:103EB00034302268136823F400631360212384F8EC
:103EC0003530102384F836300023A363089A39462E
:103ED0002046FFF701FE60B1A36B042B04D1002341
:103EE00084F8343001234EE0002384F83430032377
:103EF00049E023685A6901929B690193019B0BE099
:103F0000A36B042B48D12268136843F40073136039
:103F1000012338E01E461546C6B108992046FFF732
:103F200095FE0028ECD16A1C236829781961731E5C
:103F30009BB22168486910F0040FEBD0002BE9D048
:103F4000AA1C6B780B61023EB3B2E3E708992046E6
:103F5000FFF7A4FE034648B1A36B042B1ED12268D1
:103F6000136843F40073136001230CE021680A68AE
:103F700042F400720A60202284F83520002284F87E
:103F8000342000E00223184603B0F0BD0123FAE715
:103F90000223F8E70223F6E70323F4E70323F2E71B
:103FA00002001000F0B583B090F83540E4B2202C48
:103FB00057D1002A59D00BB9012353E01E461546AC
:103FC0000F46044642F2107301222B49FFF7DBFC37
:103FD00000284CD194F83430012B4AD0012384F8C6
:103FE00034302268136823F400631360212384F8BB
:103FF0003530102384F836300023A36365622685AC
:104000006685E36A1D4A9A62E36A1D4A1A6322685A
:10401000334610322946E06AFFF744F92322394635
:104020002046FFF759FD034660B1A36B042B04D172
:10403000002384F83430012314E0002384F8343062
:1040400003230FE021684A6842F400624A60226854
:104050005169019192690192019A002284F83420F9
:1040600000E00223184603B0F0BD0123FAE7022363
:10407000F8E70223F6E700BF02001000A94100089C
:104080007F410008F0B583B090F83540E4B2202CB1
:1040900064D1002A66D00BB9012260E01E461546A5
:1040A0000F46044642F2107301223149FFF76BFCC0
:1040B000002859D194F83430012B57D0012384F8CB
:1040C00034302268136823F400631360222384F8D9
:1040D0003530102384F836300023A36365622685CB
:1040E0006685236B234A9A62236B234A1A632168ED
:1040F00033462A461031206BFFF7D4F82322394685
:104100002046FFF72FFD024660B1A36B042B04D1BC
:10411000002384F83430012221E0002384F8343075
:1041200003221CE0012E13D021684B6843F4805316
:104130004B6021684B6843F400634B602368596906
:1041400001919B690193019B002384F8343006E0C0
:1041500021680B6823F480630B60EAE702221046B3
:1041600003B0F0BD0122FAE70222F8E70222F6E7E7
:1041700002001000FD4100087F410008704708B5AB
:10418000406A0268136823F4806313600023438548
:10419000202280F8352080F83630836B43F01003FE
:1041A0008363FFF7EBFF08BD10B5446A23230022A9
:1041B00011492046FFF7E7FB18B1A36B43F020033A
:1041C000A3632268136843F4007313602268536882
:1041D00023F40063536000236385202284F8352094
:1041E00084F83630A36B1BB9204603F081F810BD6C
:1041F0002046FFF7C3FFFAE70400010008B5406A54
:104200000268136823F4806313600268136843F440
:10421000007313600268536823F48053536002688C
:10422000536823F40063536000234385202280F801
:10423000352080F83630836B13B903F05FF808BD82
:10424000FFF79CFFFBE77047002844D010B50446F9
:104250000268234B9A4203D0A6212248FEF78EFB28
:104260006368062B28D8A368B3F5805F29D223683A
:10427000DA6812F0010F03D0DB6813F0020F2CD1C3
:10428000637B1BB302236373236845F255521A60A4
:104290002268536823F0070361680B435360226868
:1042A000936823F47F6323F00F03A1680B439360AB
:1042B00001236373002010BDA7210A48FEF75EFBAF
:1042C000D1E7A8210748FEF759FBD0E72373204622
:1042D000FFF7B9FFD6E7012070470120EBE700BFE9
:1042E00000300040D89A0008037B012B0FD0022336
:1042F000437303684CF6CC421A6003684AF6AA225C
:104300001A60012343730023037318467047022089
:10431000704738B5037B012B1FD00446012303737C
:1043200002234373FEF74AFE05462368DA6812F05B
:10433000020F0AD0FEF742FE401BB0F57A7FF4D997
:10434000032060730023237306E04AF6AA221A6052
:10435000012363730020207338BD0220FCE70000B6
:1043600030B583B0044688B3236813B113F00F0F40
:1043700032D0236813F0010F56D063682BB1B3F528
:10438000803F02D0B3F5A02F2CD1C64B5B6803F061
:104390000C03042B31D0C34B5B6803F00C03082BD8
:1043A00026D06368B3F5803F00F08380002B40F097
:1043B000A58003F1804303F504331A6822F48032A8
:1043C0001A601A6822F480221A6077E04FF487712D
:1043D000B548FEF7D3FAC7E740F20F11B248FEF72F
:1043E000CDFAC6E740F21511AF48FEF7C7FACCE7A1
:1043F000AC4B5B6813F4803FD3D04FF4003393FA97
:10440000A3F3A84B1A684FF4003393FAA3F3B3FA5B
:1044100083F303F01F0322FA03F313F0010F03D019
:104420006368002B00F02083236813F0020F00F074
:10443000D3802369012B00F2998063691F2B00F25E
:104440009B80984B5B6813F00C0F00F0A180954B9C
:104450005B6803F00C03082B00F094802369002BA9
:1044600000F0F880012292FAA2F3B3FA83F39B00E2
:1044700003F1844303F584031A60FEF79FFD0546AC
:10448000022393FAA3F3874B1A68022393FAA3F348
:10449000B3FA83F303F01F0322FA03F313F0010FBF
:1044A00040F0C980FEF78AFD401B0228E8D90320AE
:1044B000E1E27C4A136843F4803313606368002BA5
:1044C00036D0FEF77BFD05464FF4003393FAA3F395
:1044D000744B1A684FF4003393FAA3F3B3FA83F3DF
:1044E00003F01F0322FA03F313F0010F9CD1FEF730
:1044F00065FD401B6428E7D90320BCE2B3F5A02F7B
:1045000009D0684B1A6822F480321A601A6822F4C3
:1045100080221A60D2E703F18043A3F53C331A6886
:1045200042F480221A601A6842F480321A60C5E7A9
:10453000FEF744FD05464FF4003393FAA3F3594BBD
:104540001A684FF4003393FAA3F3B3FA83F303F03A
:104550001F0322FA03F313F0010F3FF465AFFEF7D8
:104560002DFD401B6428E6D9032084E240F2491166
:104570004D48FEF703FA60E74FF4A5714A48FEF78D
:10458000FDF95EE7474B5B6813F4803F7FF466AF4D
:10459000022393FAA3F3434B1A68022393FAA3F37B
:1045A000B3FA83F303F01F0322FA03F313F0010FAE
:1045B00004D02369012B01D001205CE23948036853
:1045C00023F0F8036169F82292FAA2F2B2FA82F2B9
:1045D00001FA02F213430360236813F0080F70D04E
:1045E000A369012B64D8A369002B00F092800122FB
:1045F00092FAA2F3B3FA83F32C4941F82320FEF791
:10460000DDFC0546022393FAA3F293FAA3F2254AAE
:10461000526A93FAA3F3B3FA83F303F01F0322FA67
:1046200003F313F0010F49D1FEF7C8FC401B022829
:10463000E8D903201FE21B48036823F0F8036169EF
:10464000F82292FAA2F2B2FA82F201FA02F21343CB
:104650000360C1E7012393FAA3F3B3FA83F39B004A
:1046600003F1844303F5840300221A60FEF7A6FCDD
:104670000546022393FAA3F30A4B1A68022393FA1E
:10468000A3F3B3FA83F303F01F0322FA03F313F047
:10469000010FA1D0FEF792FC401B0228E9D90320AC
:1046A000E9E100BF00100240109B00088004424274
:1046B0004FF4C571AC48FEF761F994E70120FEF7AD
:1046C00083FC236813F0040F00F0CF80E368012B14
:1046D00001D9052B42D1A54BDA6942F08052DA614B
:1046E000DB6903F080530193019BA14A136843F4F3
:1046F00080731360FEF762FC05469D4B1B6813F444
:10470000807F31D1FEF75AFC401B6428F5D9032085
:10471000B1E1012393FAA3F3B3FA83F3954A00219D
:1047200042F82310FEF74AFC0546022393FAA3F24F
:1047300093FAA3F28D4A526A93FAA3F3B3FA83F37E
:1047400003F01F0322FA03F313F0010FB9D0FEF7B1
:1047500035FC401B0228E8D903208CE140F2B71158
:104760008148FEF70BF9B6E7E368012B0DD0C3B91A
:1047700003F1804303F504331A6A22F001021A623E
:104780001A6A22F004021A6204E0784A136A43F0BB
:1047900001031362E368002B3ED0FEF70FFC0546D1
:1047A0002BE0052B09D0714B1A6A22F001021A6224
:1047B0001A6A22F004021A62ECE76C4B1A6A42F0A1
:1047C00004021A621A6A42F001021A62E2E7674BB7
:1047D0001A6A022393FAA3F3B3FA83F303F01F03D5
:1047E00022FA03F313F0010F3FD1FEF7E7FB401B62
:1047F00041F28833984200F23981022393FAA3F2FE
:1048000093FAA3F3B3FA83F35B0943F00203022B99
:10481000DDD0564B5A6ADCE7FEF7D0FB054615E0C3
:10482000524B1A6A022393FAA3F3B3FA83F303F009
:104830001F0322FA03F313F0010F16D0FEF7BEFB9D
:10484000401B41F28833984200F21281022393FA0E
:10485000A3F293FAA3F3B3FA83F35B0943F00203E1
:10486000022BDDD0414B5A6ADCE7E369022B68D8A2
:10487000E369002B00F0FE803C4A526802F00C0213
:10488000082A00F0FA80022B40F0C280236A13B19C
:10489000B3F5803F5BD1636A4BB3B3F5802F26D06D
:1048A000B3F5002F23D0B3F5402F20D0B3F5801FF0
:1048B0001DD0B3F5A01F1AD0B3F5C01F17D0B3F5A4
:1048C000E01F14D0B3F5001F11D0B3F5101F0ED0A8
:1048D000B3F5201F0BD0B3F5301F08D0B3F5401F40
:1048E00005D0B3F5501F02D0B3F5601F35D14FF09E
:1048F000807393FAA3F3B3FA83F39B0003F1844329
:1049000003F5840300221A60FEF758FB05464FF0BA
:10491000007393FAA3F3154B1A684FF0007393FAE0
:10492000A3F3B3FA83F303F01F0322FA03F313F0A4
:10493000010F21D0FEF742FB401B0228E7D90320DC
:1049400099E040F247210848FEF718F890E74FF445
:1049500014710548FEF712F89DE740F25121024814
:10496000FEF70CF8C3E700BF109B000800100240E0
:104970000070004080044242236AB3F5803F32D089
:104980003F494B6823F47413226A606A024313435D
:104990004B604FF0807393FAA3F3B3FA83F39B0059
:1049A00003F1844303F5840301221A60FEF706FB3A
:1049B00004464FF0007393FAA3F3314B1A684FF09B
:1049C000007393FAA3F3B3FA83F303F01F0322FAFD
:1049D00003F313F0010F19D1FEF7F0FA001B0228C0
:1049E000E7D9032047E0A36813B1B3F5003F07D12F
:1049F000234A536823F40033A1680B435360BFE795
:104A000040F267211F48FDF7B9FFF1E7002032E0CF
:104A10004FF0807393FAA3F3B3FA83F39B0003F18F
:104A2000844303F5840300221A60FEF7C7FA0446A4
:104A30004FF0007393FAA3F3114B1A684FF0007311
:104A400093FAA3F3B3FA83F303F01F0322FA03F3F9
:104A500013F0010F06D0FEF7B1FA001B0228E7D9C8
:104A6000032008E0002006E0012004E0032002E02B
:104A7000032000E0002003B030BD0120FBE700BFB1
:104A800000100240109B000810B487B01D4C94E841
:104A90000F000DF1180C0CE90F00238AADF804305B
:104AA000194B596801F00C03082B28D101F470133D
:104AB0004FF4701292FAA2F2B2FA82F2D340634437
:104AC00013F8100C11F4803F05D1104B03FB00F0DC
:104AD00007B010BC70470C4B5B6803F400334FF415
:104AE000003292FAA2F2B2FA82F2D340634413F88F
:104AF000142C074BB3FBF2F300FB03F0E8E7044888
:104B0000E6E700BF709600080010024000093D0073
:104B100000127A0070B50D460446C0B1236813F048
:104B20000F0F1AD0022D1ED89D4B1B6803F00703F0
:104B3000AB421ED29A4A136823F007032B4313603B
:104B4000136803F00703AB4213D0012070BD4FF48C
:104B50002F719448FDF712FFE0E740F2BD21914824
:104B6000FDF70CFFDEE740F2BE218E48FDF706FFA1
:104B7000DAE7236813F0020F18D0A3687BB1802B0B
:104B80000DD0902B0BD0A02B09D0B02B07D0C02B71
:104B900005D0D02B03D0E02B01D0F02B41D1824A9D
:104BA000536823F0F003A1680B435360236813F0AC
:104BB000010F00F08A806368022B38D86368012BEC
:104BC0003BD0022B4ED0022292FAA2F2764A116812
:104BD000022292FAA2F2B2FA82F202F01F0221FA43
:104BE00002F212F0010F00F0D8806F494A6822F0FB
:104BF000030213434B60FEF7E1F906466368012B9D
:104C000045D0022B52D0684B5B6813F00C0F5CD080
:104C1000FEF7D4F9801B41F288339842F3D9032080
:104C200094E740F2D7215F48FDF7A8FEB7E740F2CE
:104C3000DE215C48FDF7A2FEC0E74FF4003292FA95
:104C4000A2F2594A11684FF4003292FAA2F2B2FA73
:104C500082F202F01F0221FA02F212F0010FC4D117
:104C6000012073E74FF0007292FAA2F24E4A1168E7
:104C70004FF0007292FAA2F2B2FA82F202F01F0230
:104C800021FA02F212F0010FAFD101205EE7464B8C
:104C90005B6803F00C03042B17D0FEF78FF9801B21
:104CA00041F288339842F2D903204FE73E4B5B68CC
:104CB00003F00C03082B08D0FEF780F9801B41F2AB
:104CC00088339842F2D9032040E7354B1B6803F044
:104CD0000703AB420CD9324A136823F007032B4376
:104CE0001360136803F00703AB4201D001202DE7E6
:104CF000236813F0040F14D0E3685BB1B3F5806F41
:104D000008D0B3F5A06F05D0B3F5C06F02D0B3F5EE
:104D1000E06F36D1244A536823F4E063E1680B4323
:104D20005360236813F0080F15D023695BB1B3F506
:104D3000806F08D0B3F5A06F05D0B3F5C06F02D077
:104D4000B3F5E06F23D1184A536823F46053216907
:104D500043EAC1035360FFF797FE134B5B6803F010
:104D6000F003F02292FAA2F2B2FA82F2D3400F4A92
:104D7000D35CD8400E4B18600020FEF7F1F80020FD
:104D8000E4E640F232310748FDF7F8FDC2E740F2B1
:104D900039310448FDF7F2FDD5E70120D6E600BF22
:104DA00000200240109B000800100240E09900081B
:104DB0007C000020014B1868704700BF7C00002079
:104DC00008B5FFF7F7FF074B5B6803F4E0634FF4A8
:104DD000E06292FAA2F2B2FA82F2D340024AD35CC3
:104DE000D84008BD00100240F099000808B5FFF750
:104DF000E1FF074B5B6803F460534FF4605292FA93
:104E0000A2F2B2FA82F2D340024AD35CD84008BD83
:104E100000100240F0990008F0B583B00446036822
:104E200013F0130F2CD0236813F0010F5CD06368CC
:104E300043B1B3F5807F05D0B3F5007F02D0B3F561
:104E4000407F22D1594BDA6942F08052DA61DB6946
:104E500003F080530193019B554A136843F4807318
:104E60001360FEF7ABF80546514B1B6813F4807FC7
:104E700010D1FEF7A3F8401B6428F5D903205BE0AE
:104E80007E214C48FDF77AFDCDE784214948FDF7A6
:104E900075FDD7E7454B1B6A13F440731DD062685C
:104EA00002F440729A4218D04048016A21F44076D8
:104EB0004FF4803393FAA3F2B2FA82F23E4D012707
:104EC00045F8227093FAA3F3B3FA83F3002245F86E
:104ED0002320066211F0010F30D1344A136A23F403
:104EE000407361680B431362236813F0020F11D003
:104EF000A36843B1B3F5804F05D0B3F5004F02D09E
:104F0000B3F5404F42D1294A536823F44043A16886
:104F10000B435360236813F0100F44D0E368B3F5DC
:104F2000800F01D0002B36D1204A536823F4800330
:104F3000E1680B435360002003B0F0BDFEF73EF87C
:104F4000054614E0194B1A6A022393FAA3F3B3FA45
:104F500083F303F01F0322FA03F313F0010FBCD114
:104F6000FEF72CF8401B41F28833984219D80223EF
:104F700093FAA3F293FAA3F3B3FA83F35B0943F032
:104F80000203022BDED0094B5A6ADDE7BA21094839
:104F9000FDF7F4FCB7E74FF48B710648FDF7EEFC24
:104FA000C2E70320C8E70020C6E700BF00100240A8
:104FB00000700040489B00080004424210B50446BF
:104FC0000368104A93420FD0B3F1804F0CD0A2F582
:104FD0009432934208D002F58062934204D04FF499
:104FE00098710948FDF7CAFC022384F83930226819
:104FF000136843F001031360012384F83930002063
:1050000010BD00BF002C0140809B00087047704716
:1050100070477047704710B5044603681A6912F06C
:10502000020F11D0DA6812F0020F0DD06FF00202F9
:105030001A610123037603689B6913F0030F70D094
:10504000FFF7E6FF0023237623681A6912F0040FA6
:1050500012D0DA6812F0040F0ED06FF004021A6159
:105060000223237623689B6913F4407F5FD0204698
:10507000FFF7CEFF0023237623681A6912F0080F8A
:1050800012D0DA6812F0080F0ED06FF008021A6121
:10509000042323762368DB6913F0030F4ED02046E8
:1050A000FFF7B6FF0023237623681A6912F0100F6A
:1050B00012D0DA6812F0100F0ED06FF010021A61E1
:1050C000082323762368DB6913F4407F3DD0204614
:1050D000FFF79EFF0023237623681A6912F0010F61
:1050E00003D0DA6812F0010F36D123681A6912F082
:1050F000800F03D0DA6812F0800F34D123681A6968
:1051000012F0400F03D0DA6812F0400F32D123685A
:105110001A6912F0200F03D0DA6812F0200F30D194
:1051200010BDFFF774FF2046FFF773FF8AE72046A4
:10513000FFF76DFF2046FFF76CFF9BE72046FFF768
:1051400066FF2046FFF765FFACE72046FFF75FFFED
:105150002046FFF75EFFBDE76FF001021A612046AF
:10516000FFF754FFC1E76FF080021A61204600F09C
:1051700072F9C3E76FF040021A612046FFF74AFF59
:10518000C5E76FF020021A61204600F063F9C7E717
:105190000368194A90420AD0B0F1804F07D0A2F5B7
:1051A0009432904203D002F58062904203D123F002
:1051B00070034A681343104A90420AD0B0F1804FFE
:1051C00007D0A2F59432904203D002F5806290425B
:1051D00003D123F44073CA68134303608B68C3622E
:1051E0000B688362044B984202D0012343617047ED
:1051F0000B690363F9E700BF002C0140002800F0B1
:10520000C180F8B505460C4603685F4A93420FD04B
:10521000B3F1804F0CD0A2F59432934208D002F53E
:105220008062934204D040F6CC015848FDF7A6FBBB
:105230002368013B022B69D8A368013B022B6BD882
:10524000A369013B022B6DD863681BB1022B01D00F
:105250000A2B6DD163691BB1022B01D00A2B6DD1D2
:10526000E3682BB1042B03D0082B01D00C2B6BD19E
:10527000E3692BB1042B03D0082B01D00C2B69D18F
:1052800023690F2B6CD8236A0F2B6FD895F8393010
:10529000002B71D0022385F83930294651F8042BB0
:1052A000936823F0070393602868FFF771FF29686C
:1052B0008A688E690F6A2068104326F4407626F0CB
:1052C0000306A268A36942EA0323334323F47C4321
:1052D00023F0FC03E668E26946EA02261E43226ADE
:1052E0001303226943EA0213334327F0AA076268D3
:1052F000646942EA04123A43886029688B612B682A
:105300001A62012385F839300020F8BD40F6CD013E
:105310001E48FDF733FB8FE740F6CE011B48FDF733
:105320002DFB8DE740F6CF011848FDF727FB8BE7F3
:105330004FF40D611548FDF721FB8BE740F6D101D5
:105340001248FDF71BFB8BE740F6D2010F48FDF733
:1053500015FB8DE740F6D3010C48FDF70FFB8FE7F7
:1053600040F6D4010948FDF709FB8CE740F6D5016A
:105370000648FDF703FB89E785F838302846FDF736
:1053800041FC87E701207047002C0140809B00080A
:1053900038B504460D4603682C4A93420FD0B3F14A
:1053A000804F0CD0A2F59432934208D002F580626F
:1053B000934204D040F28C612548FDF7DFFA2B6858
:1053C0006BB1102B0BD0202B09D0302B07D0402BEA
:1053D00005D0502B03D0602B01D0702B27D16B68E8
:1053E000802B00D04BBB94F83830012B2BD00122FE
:1053F00084F83820022384F8393021684B6823F080
:1054000070034B6021684B68286803434B60216838
:105410008B6823F080038B6021688B686868034386
:105420008B6084F83920002084F8380038BD40F2C1
:105430008D610748FDF7A2FAD1E740F28E6104487A
:10544000FDF79CFACFE70220F0E700BF002C0140F7
:10545000B89B00087047704790F83930DBB2122BC8
:1054600001D0322B2AD18368B3F5805F16D0036A4E
:105470005A1C02621A7803685A60C38C013B9BB2C3
:10548000C384EBB90268D36823F08003D360026859
:10549000D36843F04003D36000207047036A1B8841
:1054A0000268C3F30803536003691BB9036A02333C
:1054B0000362E2E7036A01330362DEE7022070471A
:1054C000002070472DE9F843044642687E4B9A421B
:1054D00000F29080E3681BB1B3F5005F40F090806C
:1054E000236933B1B3F5806F03D0B3F5C06F40F0DB
:1054F0008D80636933F00C0200D123B940F25571FD
:105500007248FDF73BFA2268136923F44053E168BF
:105510000B431361A3682269134362691A4321682C
:10552000CB6823F4B05323F00C031343CB60226801
:10553000536923F44073A1690B4353612268644BA0
:105540009A4269D0FFF73CFC00EB800000EB800042
:105550006568AD00B0FBF5F55E4FA7FB05356D093D
:105560002E01FFF72DFC00EB800000EB800065684A
:10557000AD00B0FBF5F9FFF723FC00EB800000EB7A
:1055800080006568AD00B0FBF5F5A7FB05356D093A
:105590004FF0640808FB15952D013235A7FB053542
:1055A0006D0905F0F0053544FFF70AFC00EB8000BB
:1055B00000EB80006668B600B0FBF6F6FFF700FC73
:1055C00000EB800000EB800063689B00B0FBF3F011
:1055D000A7FB0030400908FB10684FEA081808F1E3
:1055E0003208A7FB0837C7F3431723682F449F608F
:1055F000BDE8F88340F252713448FDF7BFF969E71E
:1056000040F253713148FDF7B9F969E740F254713E
:105610002E48FDF7B3F96CE7FFF7E8FB00EB8000DD
:1056200000EB80006568AD00B0FBF5F5294FA7FBE6
:1056300005356D092E01FFF7D9FB00EB800000EB6B
:1056400080006568AD00B0FBF5F9FFF7CFFB00EB1C
:10565000800000EB80006568AD00B0FBF5F5A7FBAE
:1056600005356D094FF0640808FB15952D0132359D
:10567000A7FB05356D0905F0F0053544FFF7B6FBCE
:1056800000EB800000EB80006668B600B0FBF6F629
:10569000FFF7ACFB00EB800000EB800063689B0031
:1056A000B0FBF3F0A7FB0030400908FB10684FEA9D
:1056B000081808F13208A7FB0837C7F34317236817
:1056C0002F449F6094E700BF20AA4400F09B00088D
:1056D000003801401F85EB51002872D010B50446F8
:1056E00083690BB30368384A93420CD0A2F5744225
:1056F000934208D002F58062934204D040F2071131
:105700003248FDF73BF9A369FBB1B3F5807F1CD0AC
:10571000B3F5007F19D0B3F5407F16D04FF48471F4
:105720002A48FDF72BF910E00368274A93420CD072
:10573000A2F57442934208D002F58062934204D0ED
:105740004FF486712148FDF719F9A36813B1B3F539
:10575000805F24D1E36943BB94F839305BB3022303
:1057600084F839302268D36823F40053D36020468C
:10577000FFF7A8FE2268136923F49043136122689F
:10578000536923F02A0353612268D36843F400531A
:10579000D3600020E063012384F8393010BD4FF45A
:1057A00087710A48FDF7EAF8D4E740F20F1107487D
:1057B000FDF7E4F8D0E784F838302046FDF768FAC2
:1057C000CDE70120704700BF00380140F09B000882
:1057D00010B590F83940E4B2012C01D0222C38D118
:1057E000002938D0002A38D090F83830012B36D034
:1057F000012380F8383001628284C2840023C363AD
:1058000090F83930DBB2222B1FD0122380F83930C8
:1058100013460446026B13489062226B1248D06212
:10582000226B1248106322680432206BFDF73AFDA8
:1058300023686FF040021A602268536943F08003C6
:105840005361002084F8380004E0322380F83930B6
:10585000DEE7022010BD0120FCE70120FAE702206C
:10586000F8E700BF0959000867590008715A000895
:1058700010B590F83940E4B2012C01D0122C34D18B
:10588000002934D0002A34D090F83830012B32D09F
:10589000012380F83830816282850023C36390F849
:1058A0003930DBB2122B1CD0222380F8393013465A
:1058B0000A460446416B11488862616B1048C86211
:1058C000616B1048086321680431606BFDF7EAFCE6
:1058D0002268536943F040035361002084F8380084
:1058E00004E0322380F83930E1E7022010BD0120C6
:1058F000FCE70120FAE70220F8E700BF7159000831
:10590000655A0008715A000808B5436A02681268AF
:1059100012F0200F0CD10022DA8419684A6922F0B3
:1059200080024A611A68D36843F04003D36008BD1F
:10593000184601F0D9FCFAE708B50268D36823F0ED
:105940004003D36090F83930DBB2322B06D001230C
:1059500080F8393001F0C8FC002008BD222380F80F
:105960003930F7E7704708B5406AFFF7FBFF08BD1D
:1059700008B5436A0268126812F0200F0ED10022A7
:10598000DA8519684A6922F040024A6193F83920A1
:10599000D2B2322A06D0012283F83920184601F00B
:1059A00085FC08BD122283F83920F7E708B590F886
:1059B0003930DBB2222B01D0322B4ED18368B3F5C4
:1059C000805F29D00369002B3AD103685A68836A43
:1059D000591C81621A70C38D013B9BB2C385002B99
:1059E0003DD10268D36823F02003D36090F83930AA
:1059F000DBB2322B2DD00268D36823F48073D360DE
:105A00000268536923F001035361012380F83930A0
:105A100001F04CFC002008BD826A036943B90368A9
:105A20005B68C3F308031380836A02338362D2E79F
:105A300003685B68DBB21380836A01338362CAE761
:105A400003685B68826A511C816203F07F031370F4
:105A5000C1E7122380F83930DAE70220DBE70020C3
:105A6000D9E7704708B5406AFFF7FBFF08BD7047EC
:105A700008B5406A0023C385C384012380F8393008
:105A8000C36B43F01003C363FFF7F1FF08BD10B50C
:105A900082B0044603681968DA6811F0010F06D075
:105AA00002F480721AB1C26B42F00102C26319683B
:105AB0005A6902F0010211F0020F04D01AB1E16B31
:105AC00041F00401E163196811F0040F04D01AB128
:105AD000E16B41F00201E163196811F0080F04D095
