:020000040800F2
:1000000000500020E19100089D4D00089F4D000820
:10001000A14D0008A34D0008A54D000800000000F8
:10002000000000000000000000000000A74D0008D4
:10003000A94D000800000000AB4D0008AD4D0008C0
:1000400029920008299200082992000829920008A4
:100050002992000829920008299200082992000894
:100060002992000829920008299200082992000884
:1000700029920008D54D0008054E0008154E0008CD
:1000800029920008C54D000829920008299200080D
:100090002992000829920008299200082992000854
:1000A00029920008057D000829920008299200087D
:1000B000157D00082992000829920008299200085D
:1000C0002992000829920008299200082992000824
:1000D0002992000829920008F54D0008E54D000816
:1000E00029920008299200082992000800000000C7
:1000F0000000000000000000000000000000000000
:0C01000000000000000000005FF808F1A3
:1001100010B5054C237833B9044B13B10448AFF341
:1001200000800123237010BDF802002000000000B1
:1001300000AF000808B5034B1BB103490348AFF3F8
:10014000008008BD00000000FC02002000AF000895
:1001500081F0004102E000BF83F0004330B54FEA78
:1001600041044FEA430594EA050F08BF90EA020FE5
:100170001FBF54EA000C55EA020C7FEA645C7FEA78
:10018000655C00F0E2804FEA5454D4EB5555B8BF9B
:100190006D420CDD2C4480EA020281EA030382EA0C
:1001A000000083EA010180EA020281EA0303362D9E
:1001B00088BF30BD11F0004F4FEA01314FF4801C71
:1001C0004CEA113102D0404261EB410113F0004F83
:1001D0004FEA03334CEA133302D0524263EB43033A
:1001E00094EA050F00F0A780A4F10104D5F1200ED8
:1001F0000DDB02FA0EFC22FA05F2801841F1000133
:1002000003FA0EF2801843FA05F359410EE0A5F106
:1002100020050EF1200E012A03FA0EFC28BF4CF037
:10022000020C43FA05F3C01851EBE37101F00045ED
:1002300007D54FF0000EDCF1000C7EEB00006EEBFA
:100240000101B1F5801F1BD3B1F5001F0CD3490884
:100250005FEA30004FEA3C0C04F101044FEA4452DB
:1002600012F5800F80F09A80BCF1004F08BF5FEA62
:10027000500C50F1000041EB045141EA050130BD42
:100280005FEA4C0C404141EB010111F4801FA4F1E5
:100290000104E9D191F0000F04BF01460020B1FA3A
:1002A00081F308BF2033A3F10B03B3F120020CDA72
:1002B0000C3208DD02F1140CC2F10C0201FA0CF050
:1002C00021FA02F10CE002F11402D8BFC2F1200CB5
:1002D00001FA02F120FA0CFCDCBF41EA0C0190406B
:1002E000E41AA2BF01EB0451294330BD6FEA0404B4
:1002F0001F3C1CDA0C340EDC04F11404C4F120029F
:1003000020FA04F001FA02F340EA030021FA04F3B0
:1003100045EA030130BDC4F10C04C4F1200220FA07
:1003200002F001FA04F340EA0300294630BD21FA45
:1003300004F0294630BD94F0000F83F4801306BF0B
:1003400081F480110134013D4EE77FEA645C18BFFF
:100350007FEA655C29D094EA050F08BF90EA020F96
:1003600005D054EA000C04BF1946104630BD91EA8E
:10037000030F1EBF0021002030BD5FEA545C05D191
:100380004000494128BF41F0004130BD14F58004D0
:100390003CBF01F5801130BD01F0004545F0FE4144
:1003A00041F470014FF0000030BD7FEA645C1ABF79
:1003B000194610467FEA655C1CBF0B46024650EAB0
:1003C000013406BF52EA033591EA030F41F40021DC
:1003D00030BD00BF90F0000F04BF0021704730B562
:1003E0004FF4806404F132044FF000054FF0000137
:1003F00050E700BF90F0000F04BF0021704730B5F8
:100400004FF4806404F1320410F0004548BF4042CC
:100410004FF000013EE700BF42004FEAE2014FEA21
:1004200031014FEA02701FBF12F07F4393F07F4FFC
:1004300081F06051704732F07F4208BF704793F0FF
:100440007F4F04BF41F40021704730B54FF4607412
:1004500001F0004521F000411CE700BF50EA010215
:1004600008BF704730B54FF000050AE050EA0102BE
:1004700008BF704730B511F0004502D5404261EB2E
:1004800041014FF4806404F132045FEA915C3FF46F
:10049000D8AE4FF003025FEADC0C18BF03325FEA0C
:1004A000DC0C18BF033202EBDC02C2F1200300FABD
:1004B00003FC20FA02F001FA03FE40EA0E0021FAE2
:1004C00002F11444BDE600BF70B54FF0FF0C4CF4D0
:1004D000E06C1CEA11541DBF1CEA135594EA0C0F82
:1004E00095EA0C0F00F0DEF82C4481EA030621EABD
:1004F0004C5123EA4C5350EA013518BF52EA0335F8
:1005000041F4801143F4801338D0A0FB02CE4FF0A9
:100510000005E1FB02E506F00042E0FB03E54FF0D9
:100520000006E1FB03569CF0000F18BF4EF0010ED1
:10053000A4F1FF04B6F5007F64F5407404D25FEACD
:100540004E0E6D4146EB060642EAC62141EA555180
:100550004FEAC52040EA5E504FEACE2EB4F1FD0CC2
:1005600088BFBCF5E06F1ED8BEF1004F08BF5FEA40
:10057000500E50F1000041EB045170BD06F00046F2
:1005800046EA010140EA020081EA0301B4EB5C049F
:10059000C2BFD4EB0C0541EA045170BD41F4801197
:1005A0004FF0000E013C00F3AB8014F1360FDEBFBC
:1005B000002001F0004170BDC4F10004203C35DA98
:1005C0000C341BDC04F11404C4F1200500FA05F31B
:1005D00020FA04F001FA05F240EA020001F00042BC
:1005E00021F0004110EBD37021FA04F642EB060132
:1005F0005EEA430E08BF20EAD37070BDC4F10C045C
:10060000C4F1200500FA04F320FA05F001FA04F21F
:1006100040EA020001F0004110EBD37041F100010B
:100620005EEA430E08BF20EAD37070BDC4F1200516
:1006300000FA05F24EEA020E20FA04F301FA05F27E
:1006400043EA020321FA04F001F0004121FA04F226
:1006500020EA020000EBD3705EEA430E08BF20EAF6
:10066000D37070BD94F0000F0FD101F00046400030
:1006700041EB010111F4801F08BF013CF7D041EAB2
:10068000060195F0000F18BF704703F000465200B6
:1006900043EB030313F4801F08BF013DF7D043EA87
:1006A0000603704794EA0C0F0CEA135518BF95EA3D
:1006B0000C0F0CD050EA410618BF52EA4306D1D1C4
:1006C00081EA030101F000414FF0000070BD50EAE3
:1006D000410606BF1046194652EA430619D094EA6D
:1006E0000C0F02D150EA013613D195EA0C0F05D157
:1006F00052EA03361CBF104619460AD181EA0301AB
:1007000001F0004141F0FE4141F470014FF0000062
:1007100070BD41F0FE4141F4780170BD70B54FF0FD
:10072000FF0C4CF4E06C1CEA11541DBF1CEA13557D
:1007300094EA0C0F95EA0C0F00F0A7F8A4EB05045F
:1007400081EA030E52EA03354FEA013100F0888056
:100750004FEA03334FF0805545EA131343EA12631F
:100760004FEA022245EA111545EA10654FEA0026D4
:100770000EF000419D4208BF964244F1FD0404F58D
:10078000407402D25B084FEA3202B61A65EB0305E9
:100790005B084FEA32024FF480104FF4002CB6EBA6
:1007A000020E75EB030E22BFB61A754640EA0C0026
:1007B0005B084FEA3202B6EB020E75EB030E22BF66
:1007C000B61A754640EA5C005B084FEA3202B6EBA7
:1007D000020E75EB030E22BFB61A754640EA9C0066
:1007E0005B084FEA3202B6EB020E75EB030E22BF36
:1007F000B61A754640EADC0055EA060E18D04FEAF4
:10080000051545EA16754FEA06164FEAC30343EA93
:1008100052734FEAC2025FEA1C1CC0D111F4801F60
:100820000BD141EA00014FF000004FF0004CB6E759
:1008300011F4801F04BF01430020B4F1FD0C88BFF8
:10084000BCF5E06F3FF6AFAEB5EB030C04BFB6EB03
:10085000020C5FEA500C50F1000041EB045170BDF6
:100860000EF0004E4EEA113114EB5C04C2BFD4EB23
:100870000C0541EA045170BD41F480114FF0000EA7
:10088000013C90E645EA060E8DE60CEA135594EA23
:100890000C0F08BF95EA0C0F3FF43BAF94EA0C0F26
:1008A0000AD150EA01347FF434AF95EA0C0F7FF49B
:1008B00025AF104619462CE795EA0C0F06D152EAEF
:1008C00003353FF4FDAE1046194622E750EA4106D3
:1008D00018BF52EA43067FF4C5AE50EA41047FF4E4
:1008E0000DAF52EA43057FF4EBAE12E74FF0FF3C49
:1008F00006E000BF4FF0010C02E000BF4FF0010C1A
:100900004DF804CD4FEA410C7FEA6C5C4FEA430C92
:1009100018BF7FEA6C5C1BD001B050EA410C0CBFE1
:1009200052EA430C91EA030F02BF90EA020F002043
:10093000704710F1000F91EA030F58BF994208BFAA
:1009400090422CBFD8176FEAE37040F00100704767
:100950004FEA410C7FEA6C5C02D150EA013C07D1BE
:100960004FEA430C7FEA6C5CD6D152EA033CD3D009
:100970005DF8040B704700BF8446104662468C4603
:100980001946634600E000BF01B5FFF7B7FF002836
:1009900048BF10F1000F01BD4DF808EDFFF7F4FF5F
:1009A0000CBF012000205DF808FB00BF4DF808EDEA
:1009B000FFF7EAFF34BF012000205DF808FB00BF0D
:1009C0004DF808EDFFF7E0FF94BF012000205DF82F
:1009D00008FB00BF4DF808EDFFF7CEFF94BF0120E4
:1009E00000205DF808FB00BF4DF808EDFFF7C4FFDD
:1009F00034BF012000205DF808FB00BF4FEA410230
:100A000012F5001215D211D56FF47873B3EB625260
:100A100012D94FEAC12343F0004343EA505311F087
:100A2000004F23FA02F018BF404270474FF0000019
:100A3000704750EA013005D111F0004008BF6FF057
:100A4000004070474FF00000704700BF4FEA410C74
:100A50007FEA6C5C02D150EA013C0AD14FEA430CB8
:100A60007FEA6C5C02D152EA033C02D14FF00000F5
:100A700070474FF0010070472DE9F04F85B0814677
:100A80000D4614469B460E9F0F9E9DF840A09DF874
:100A90004480D1E90023CDE90223A149D1E9000135
:100AA000FFF77AFFB8B1D5E902239D49D1E90201E8
:100AB000FFF772FF78B1D4E900239A49D1E9000128
:100AC000FFF76AFF38B1D4E902239649D1E9020160
:100AD000FFF762FFA0B9944B01221A709049DDE93B
:100AE0000223C1E90023D5E90223C1E90223D4E9A5
:100AF00000238C49C1E90023D4E90223C1E9022380
:100B0000B8F1030F0BD8DFE808F002717A83DBE954
:100B10000023D4E90001FFF71FFBCDE90001824B60
:100B20001B783BB1814BDDE90012C3E900127E4B1B
:100B300000221A70BAF1000F00F0D880DDE900AB96
:100B400052465B467949D1E90001FFF705FB0446AF
:100B500021F000450022764B50465946FFF744FFEE
:100B6000002879D00022724B20462946FFF728FF43
:100B7000002856D000226E4B20462946FFF7CEFDB6
:100B800000226C4BFFF7E8FA04460D463A4633461E
:100B9000FFF79AFC02460B4620462946FFF794FCD5
:100BA00002460B465AA1D1E90001FFF7D5FA3A46B1
:100BB0003346FFF7D3FAC9E9000155A3D3E900236F
:100BC000FFF7FEFE20B152A3D3E90023C9E90023B9
:100BD0003A463346D9E90001FFF706FF002874D0F2
:100BE0003A463346C9E9002300241FE0D4E9002334
:100BF000DBE90001FFF7B0FACDE900018FE7DBE99F
:100C00000223D4E90201FFF7A7FACDE9000186E744
:100C1000D4E90223DBE90201FFF79EFACDE90001E6
:100C20007DE73A463346C9E9002301240022424BBE
:100C300038463146FFF7CEFE00284AD000223F4B0F
:100C4000DDE90001FFF7BCFE00285BD00022002395
:100C5000C9E90023032455E006F100480022344B83
:100C6000DDE90001FFF75AFD2BA3D3E90023FFF7CD
:100C700073FA04460D4602460B4638464146FFF7D6
:100C800023FC02460B4620462946FFF71DFC3A4648
:100C90003346FFF763FAC9E900011DA3D3E9002336
:100CA000FFF78EFE20B11AA3D3E90023C9E9002380
:100CB0003A463346D9E90001FFF796FE38B13A4685
:100CC0003346C9E900230224B0E70024AEE702243A
:100CD000ACE700221A4BDDE90001FFF771FE88B195
:100CE00000220023C9E9002303240BE00022154B56
:100CF000DDE90001FFF764FE30BB3A463346C9E93F
:100D000000230124204605B0BDE8F08FAFF300803A
:100D10000000000000CCA040666666666666F23F92
:100D2000600400208004002000000020A0030020B8
:100D300000408F400000F03F0040AF4000005440B2
:100D4000000049400000244000220023C9E900239C
:100D50000324D7E710B402EBD2735B105C4221444A
:100D6000401A824203DC90FBF2F302FB13000028DE
:100D700002DB204410BC70470028B8BF4042101A64
:100D8000F7E70000254B5B7813F0040F3FD0234BAF
:100D90005B7813F0020F3AD0204B9B7813F0100FC2
:100DA00004D01F4A537843F0080353701B4B9B78C1
:100DB00013F0400F19D01A4A537843F020035370B0
:100DC000164B9B7813F0200F15D0154A537843F03B
:100DD00004035370114B5B7813F0010F11D0104ACC
:100DE000537843F01003537016E00D4A537823F004
:100DF00020035370E4E70A4A537823F00403537046
:100E0000E8E7074A537823F01003537004E0044ADC
:100E1000537803F0C303537000207047380C002050
:100E20002C000020002309E0590019444800054A1D
:100E3000024400215180032111710133062BF3DD9F
:100E4000002070473C000020034B0020D881032283
:100E50001A7498829A7570473C000020F0B4002400
:100E600007E0E300C5180B44D3E90067C5E9006754
:100E700001349442F5DBF0BC7047000008B501294D
:100E80000AD09F4A1278042A10D8DFE812F0110025
:100E9000670092000D0145010223994A1370994A97
:100EA0001170002298490A6098490A70184608BDD6
:100EB000022821D00428F9D1924B1B7833B1944BEE
:100EC0001A68914B1A608F4B00221A70904B1B6866
:100ED0008D4A12689B1A41F65832934235D98D4B90
:100EE000032283F8222000221A84854B04221A70E0
:100EF0000123844A1370D9E7824B1B7833B1844BAA
:100F00001A68814B1A607F4B00221A70804B1B6855
:100F10007D4A12689B1A40F6AC5293420CD97D4B25
:100F2000032283F8222000221A84754B02221A70B1
:100F30000123744A1370B9E7764B012283F822200B
:100F400040F6B8321A840023B0E7724B012283F8CE
:100F5000222040F6B8321A840023A7E70228A5D140
:100F6000684B1B7833B16A4B1A68674B1A60654B44
:100F700000221A70664B1B68634A12689B1A41F282
:100F8000040293420CD9634B032283F822200022EF
:100F90001A845B4B02221A7001235A4A137085E7A8
:100FA0005C4B012283F8222040F6B8321A840023D9
:100FB0007CE701281BD090B303287FF477AF102182
:100FC000022006F0F7FD40B1524B022283F82220A6
:100FD00040F6B8321A84002368E74E4A032382F8A9
:100FE000223000211184464A137001235EE710214C
:100FF000012006F0DFFD40B1464B022283F822209B
:1010000040F6B8321A84002350E7424B032283F89B
:10101000222000221A840123394A137046E73B4BF1
:101020001B78F3B1374B1B7833B1394B1A68364B09
:101030001A60344B00221A70354B1B68324A126812
:101040009B1A502B27D9334B032283F822200022EE
:101050001A842B4B1A7001232A490B702B490A70F2
:1010600024E71021012006F0A5FD40B1294B022202
:1010700083F8222040F6B8321A84002316E7234B67
:1010800001221A70234B022283F8222040F6B83244
:101090001A8400230AE71F4B022283F8222040F61D
:1010A000B8321A84002301E702287FF4FFAE154B03
:1010B0001B7833B1164B1A68134B1A60114B002280
:1010C0001A70134B1B68104A12689B1A40F2DC52CC
:1010D00093420CD90F4B032283F8222000221A845A
:1010E000074B02221A700123064A1370DEE6094BF1
:1010F000012283F8222040F6B8321A840023D5E674
:101100000500002006000020D4040020D0040020A8
:10111000340C00203C00002002287FF4C7AE144BA2
:101120001B7833B1134B1A68134B1A60104B002213
:101130001A70104B1B68104A12689B1A40F6C412B2
:10114000934208D80D4B022283F8222040F6B83291
:101150001A840023AAE6094B032283F822200022E6
:101160001A84074B02221A700123014A13709DE66C
:1011700006000020340C0020D40400203C00002095
:101180000500002010B50446012819D018B1022826
:101190002AD000202DE04FF48051012006F00AFDF6
:1011A00038B1144B01221A7741F288325A83204613
:1011B0001FE0104B03221A7700225A83022018E006
:1011C0000421012006F0F6FC38B10A4B02221A77FE
:1011D00041F288325A8320460BE0064B03221A77ED
:1011E00000225A83022004E0024B03221A770022D5
:1011F0005A8310BD3C000020012920D010B50446C0
:101200000221012006F0D6FC10B11F4B01221A70FA
:101210001D4B1B78C3B984EAE472A2EBE4721B4B4A
:101220001B689A421ED0002C28DD194B022283F83D
:101230002820174B41F28832DA84002010BD134B6E
:1012400000221A60022070470221012006F0B2FC41
:101250000028E0D10D4A1368013313600A4B0022C5
:101260001A70D8E70A4A032382F828300023D3846F
:10127000064A1360044A13700120DFE7044B012281
:1012800083F82820D5E700BFE00300209004002069
:101290003C00002070B50D469DF8106005990129AD
:1012A00007D045490968032918D8DFE801F00E196D
:1012B000495B0024414B1C70414B1C700846FFF7F2
:1012C000DDFD3D4B1C60022408E03E4A537843F0AC
:1012D000340353700131384B19600024204670BD2F
:1012E00036490978012910D03AB100210120FFF7D1
:1012F000C5FD324B18700024F0E700210846FFF7C7
:10130000BDFD2E4B18700024E8E762B123B12D4AD1
:10131000537823F02003537056B12A4A537823F0B0
:101320001003537004E0274A537803F0CB03537043
:101330000024224B1C70204A136801331360CDE750
:101340001E4B1B78012B06D100241C4B1C70013155
:10135000194B1960C2E70021FFF790FD174B187079
:101360000024BBE716490978012900D06DB9A2B164
:1013700023B1144A537823F02003537096B1114AD5
:10138000537823F0100353700CE000212846FFF738
:1013900033FF0B4B18700024A0E70A4A537803F080
:1013A000CB0353700023064A1370044A1370024A99
:1013B0001360012492E700BFCC0300202903002022
:1013C000E00400202C0000202DE9F04383B0044607
:1013D0000E4603287FD8DFE800F00221405F8749EE
:1013E0004B7B887B03EB0023C87B03EB0043097C2A
:1013F00003EB016382490D681D44002E6ED0012E5F
:1014000003D0022E06D0002769E05B420B60002764
:101410003D4664E07B4B1F68EF1B60E077494B7CE7
:10142000887C03EB0023C87C03EB0043097D03EBBE
:10143000016373494D681D44002E73D0012E03D003
:10144000022E06D000274AE05B424B6000273D4653
:1014500045E06C4B5F68EF1B41E068498B78C878CA
:1014600003EB0023087903EB0043497903EB0163A5
:1014700063498D681D44002E56D0012E03D0022EE4
:1014800006D000272BE05B428B6000273D4626E01C
:101490005C4B9F68EF1B22E058498B79C87903EBBE
:1014A0000023087A03EB0043497A03EB01635449B4
:1014B000CD681D44002E39D0012E03D0022E06D057
:1014C00000270CE05B42CB6000273D4607E04D4B18
:1014D000DF68EF1B03E000273D4600E00027022EF7
:1014E00026D0484B43F82450474B1968474A42F8E6
:1014F00024101A68464BA3FB02135B09642101FB0D
:101500001323092B08D8012E06D0424B1B68022B4F
:1015100050DC01333F4A1360022E5AD0284603B0F4
:10152000BDE8F0830027DAE70027D8E70027D6E7F1
:10153000B2F57A7F1EDB1046FEF75CFF0022364BC9
:10154000FFF7ECF8804689462F4B18682F4B53F86D
:101550002430C01AFEF73EFF02460B46404649467D
:10156000FEF7B2FFFFF74AFA844677B9254B43F8F6
:101570002450B9E7244B1B68244A52F824209B1AB4
:101580004FF4967C0CFB03FCEFE787EAE773A3EBD1
:10159000E77363450CDC1B4B43F82450A4E71F4A58
:1015A0001A44092151700133072BF8DD00279BE70E
:1015B0000023F9E71348836842680168CDF804C046
:1015C000C0680090164806F037FC124B00221A60E3
:1015D000A2E70D4B1A680E4BA3FB02135B096421B3
:1015E00001FB1323092B01D93D4697E72B463A46C9
:1015F00021460C4806F020FC3D468FE7680000209D
:101600001403002040040020340C0020300400208B
:101610001F85EB51C403002000001840300000205B
:1016200004B000083CB000082DE9F04F89B0064630
:101630008A46CDE90423DDF84880149C9DF8545077
:10164000AB1EDBB2012B1DD9D4E90223D8E902017C
:10165000FEF782FD029021F00047D4E90423CDE992
:101660000023A44B1A68A44BA3FB02135B0964215B
:1016700001FB1323092B1FD9032D4CD8DFE805F0FC
:1016800033647D94D8E90023CDE90023D4E9001226
:10169000CDE9021200220023D4E90201FEF714FF73
:1016A000DDE90223FEF758FDDDE90023FEF756FDD4
:1016B000029021F00047D0E7DDE9000107F092FF3A
:1016C000CDE906010298394607F08CFFFFF796F93D
:1016D0008146DDE90601FFF791F94A460146874850
:1016E00006F0AAFBC8E7D4E90223D8E90201FEF715
:1016F00033FD04460D4600220023FFF757F900286A
:1017000069D10022002320462946FFF76DF9002801
:1017100064D04FF0000B0022794B02983946FFF756
:1017200063F9002800F06981BBF1010F00F0C1806E
:10173000BBF1000F67D0BBF1020F00F0268100243F
:10174000A1462546A04672E1D4E90223D8E9020168
:10175000FEF702FD04460D4600220023FFF726F99E
:1017600000283ED10022002320462946FFF73CF9FD
:10177000002839D04FF0010BCDE7D4E90023D8E998
:101780000001FEF7E9FC04460D4600220023FFF7A6
:101790000DF960BB0022002320462946FFF724F9FB
:1017A00040B34FF0010BB6E7D4E90023D8E90001BC
:1017B000FEF7D2FC04460D4600220023FFF7F6F8A0
:1017C000D8B90022002320462946FFF70DF9B8B109
:1017D0004FF0000B9FE74FF0010B9CE74FF0020B1F
:1017E00099E74FF0000B96E74FF0020B93E74FF0AD
:1017F000000B90E74FF0020B8DE74FF0010B8AE7EB
:101800004FF0020B87E7DDF8088042463B46404632
:101810003946FEF7A3FC04460D460022394BFFF77C
:10182000CFF878B90022384B20462946FFF7D2F886
:1018300050BB0022354B40463946FEF745FE054673
:10184000884602E00025DFF8CC8000220023DDE995
:101850000001FFF7C9F868B100222D4BDDE9000156
:10186000FEF732FE02460B4628464146FEF776FC5E
:101870000546884600220023DDE90001FFF796F8BF
:1018800030B90024A146D2E00025DFF87C80DCE7F7
:1018900000221F4BDDE90001FEF716FE02460B4653
:1018A00028464146FEF758FC054688460024A146D6
:1018B000BDE0DDF8088042463B4640463946FEF72B
:1018C0004DFC04460D4600220E4BFFF779F818BB7D
:1018D00000220D4B20462946FFF77CF8002840D116
:1018E00000220A4B40463946FEF7EEFD0446894683
:1018F00015E000BF340C00201F85EB519CB100089F
:10190000000014400000594000C082400000084020
:1019100000405F4000C062400024DFF85492002283
:101920000023DDE90001FFF741F8F0B900220023B0
:10193000DDE90001FFF758F8002800F0E1800022FF
:10194000854BDDE90001FEF7BFFD024621F00043B3
:1019500020464946FEF700FC044689460025A84675
:1019600065E00024DFF80C92D9E700227A4BDDE92C
:101970000001FEF7A9FD024621F00043204649463A
:10198000FEF7ECFB04468946D0E700220023DDE9A0
:10199000004520462946FFF727F880B16AA3D3E91E
:1019A000002320462946FEF78FFD69A3D3E90023D3
:1019B000FEF7D4FB054688460024A14637E0002206
:1019C0000023DDE90001FEF7F1FF20B90024A14664
:1019D0002546A0462BE05CA3D3E90023DDE9000106
:1019E000FEF772FD5AA3D3E90023FEF7B7FB0446C6
:1019F00021F000490025A84619E000220023DDE976
:101A0000004520462946FEF7EFFF00285AD04EA396
:101A1000D3E9002320462946FEF756FD4CA3D3E91F
:101A20000023FEF79BFB054688460024A1460022C2
:101A30004A4B284628F00041FEF7D6FF50B100225D
:101A4000002328464146FEF7CFFF00285BD0002543
:101A5000DFF808810022414B204629F00041FEF7C3
:101A6000C3FF50B10022002320464946FEF7BCFFC9
:101A700000284CD00024DFF8E4900022384BDDE948
:101A80000401FEF74BFECDE904012A464346FEF76A
:101A90001BFDC6E9000122464B46DDE90401FEF7C5
:101AA00013FDCAE900012F4B1A682F4BA3FB021349
:101AB0005B09642101FB1323092B2CD9002009B0F9
:101AC000BDE8F08F00220023DDE90001FEF76EFF84
:101AD00020B90024A1462546A046A8E71AA3D3E9C9
:101AE0000023DDE90001FEF7EFFC19A3D3E9002391
:101AF000FEF734FB044621F000490025A84696E78E
:101B00000025A84693E70025DFF86C80A2E70024B3
:101B1000DFF86490B1E7DDE9000107F063FD0446FA
:101B20000D460298394607F05DFDFEF767FF064651
:101B300020462946FEF762FF5B46324601460B48C7
:101B400006F07AF9BAE700BF0000000000C062406A
:101B50000000000000C0524000405F4000908A40FA
:101B600000408F40340C00201F85EB51BCB10008B1
:101B700000C0624000C0824000908AC010B50221BF
:101B8000002006F017F840B1084B00241C81032206
:101B90009A7206F019FB204610BD044B4FF4617297
:101BA0001A8101229A724FF0FF30F5E73C000020C5
:101BB00010B50121002005F0FDFF40B1084B0024C5
:101BC0005C8003221A7106F0F9FA204610BD044B1E
:101BD0004FF461725A8001221A714FF0FF30F5E71D
:101BE0003C000020000000002DE9F04FB9B0824613
:101BF0000F46A94C4822214626A809F075F99022E3
:101C000004F1480102A809F06FF90024009401943E
:101C100000E00134082C1EDC9BA3D3E9002338A983
:101C200001EBC40555E93601FEF74EFC45E93601E6
:101C3000022CEEDD0020994938AB03EBC40343E9E5
:101C4000360104F1090338AA02EBC30300209449CA
:101C500043E93601DDE71FB902230193009CBDE093
:101C6000012F06D0022FF9D1012300930223019303
:101C7000F4E701230193F1E706F094FA0646B6E093
:101C800006F096FA0646B2E0002DB8BF6D42C5F5E3
:101C90000065C2E004EBC4031A440CEBC20252E933
:101CA000368900284EDD4046494607F09BFCFEF78A
:101CB000A5FE04EB44035A007A4B134458800022DB
:101CC000002340464946FEF767FE80B304EB440319
:101CD0005A00744B134403221A71734B01221A5594
:101CE000002F58D1704B1B78002B66D06E4B5B7861
:101CF000002B40F099804FF0000B60E00132082A81
:101D0000CFDC80EAE071A1EBE07104EBC403134483
:101D10000DF1E00C0CEB830353F8483C9942B9DA1F
:101D2000082AEBD14FF000084FF00009E6E704EB7A
:101D300044035A005B4B134401221A715A4B002290
:101D40001A55CDE74046494607F04CFCFEF756FED3
:101D500004EB44035A00534B1344588000220023E1
:101D600040464946FEF718FE50B104EB44035A00C2
:101D70004C4B134403221A714B4B01221A55AFE707
:101D800004EB44035A00474B134402221A71464B9A
:101D900000221A55A4E7012F08D0022F0FD1424B81
:101DA0005B78002B46D04FF0010B08E03E4B1B78D0
:101DB000002B3CD04FF0010B01E04FF0000B3B4BF0
:101DC0001A683B4BA3FB02135B09642101FB13233D
:101DD000092B02D88CB3012C40D00134019BA342C3
:101DE0004DDD002C3FF448AF012C3FF449AF734266
:101DF000C6F30A05C3F30A0358BF5D425046FEF717
:101E0000F9FA23A3D3E90023FEF75EFB07F0EAFB10
:101E1000FEF7F4FD002DFFF637AF4FF400622946C0
:101E2000FEF798FF00226AE74FF0010BC7E74FF07B
:101E3000000BC4E74FF0000BC1E72846FEF7DAFAC3
:101E400000221C4BFEF740FB07F0CCFBFEF7D6FD53
:101E500052460146184805F0EFFFBEE72846FEF758
:101E6000C9FA0022134BFEF72FFB07F0BBFBFEF76E
:101E7000C5FD52460146114805F0DEFFADE7584664
:101E800039B0BDE8F08F00BF713D0AD7A370ED3FB8
:101E9000176CC1166CC1164018AF000800B08D4019
:101EA00000208C403C000020D0030020340C002097
:101EB0001F85EB510080C63F14B2000830B2000805
:101EC00038B5294B1B783BBB284B1B7843B1274BBC
:101ED0005B7863B1254B1B78012B0FD0002038BDF8
:101EE0000121E120FFF780FE204B1870EFE702216F
:101EF000DC20FFF779FE1D4B5870EBE71B4B5B783E
:101F0000012B01D00020EAE7174B01221A70174B72
:101F1000002018705870E2E704460121E120FFF725
:101F200063FE0221DC20FFF75FFE65690022104B93
:101F3000206925F00041FEF743FD50B90D4B032207
:101F40001A749A750022DA819A82074B1A7001205E
:101F5000C5E7084B01221A7402229A7540F6660200
:101F6000DA819A820020BAE7B0030020A80400209A
:101F7000004066403C0000202DE970430024012C05
:101F80006FDC3D4D284606F09CFB0646284606F0D1
:101F900087FB74B1012C67D1404203255EB9374AF3
:101FA0006B00581941001144002008714880013429
:101FB000E5E70225F2E7002E35DD1CB1012C2AD021
:101FC00001204FE005EB45035A002C4B134401223E
:101FD0001A71002EB8BF76429C2303FB06F603FB62
:101FE00000F0FEF707FA22A3D3E90023FEF76CFA0C
:101FF000804689463046FEF7FDF942464B46FEF7DD
:10200000ADF8FEF7FBFC42F20F73984220DC00288B
:1020100020DA00201EE005EB45035A00174B13445D
:1020200002221A71D5E71CB1012C09D0012019E058
:1020300005EB45035A00114B134402221A71C8E7FD
:1020400005EB45035A000D4B134401221A71C0E7FA
:1020500042F20F7005EB45056A00084B13445880A7
:10206000A5E70020BDE870830120FBE7AFF3008007
:102070009A9999999999D93F380C00203C000020F1
:102080002DE9F04F9DB09DF89C709DF8A05001295E
:1020900076D01E460446002A40F098808A4B1B7872
:1020A000002B37D1894B78A1D1E90001C3E90001A8
:1020B00077A1D1E90001C3E9020177A1D1E90001CB
:1020C000C3E9040176A1D1E90001C3E906014FF09B
:1020D0000008DFF81C92C3E9088900200021C3E949
:1020E0000A01C3E90C89C3E90E016FA1D1E900011E
:1020F000C3E910016EA1D1E90001C3E912010FF299
:10210000B819D9E90089C3E91489C3E916016E4BEE
:1021100001221A706E4B9B8A1BB96D4AD289002A24
:1021200056D06B4AD0891844FEF764F90022694BF7
:10213000FEF7CAF9FEF762FC0646002F5ED10025C5
:10214000032D47DC644B324602212846FFF73CF959
:102150001CAB03EB850343F8580C0135F0E7CA00CC
:10216000831800240025C3E900455C4B1344C3E9F0
:10217000004501310229F2DD00201DB0BDE8F08FDD
:102180000021F7E7D7E90001544B03EBC503C3E98E
:1021900000010135022DEFDC735D002BF9D0EB005F
:1021A000269AD7182344D7E90001C3E90001012D7D
:1021B000E8D843A3D3E90023D7E90001FEF784F967
:1021C000464B03EBC503C3E90001E2E70025E1E765
:1021D0000026B2E7404B1B7873B90027EFE01CAA3A
:1021E00002EB8302002142F8581C0133032BF6DD79
:1021F000394B00221A70F0E70023F7E7032DECD8E3
:10220000DFE805F078780202354B324602210020E3
:10221000FFF7DAF807460690324D2B4600220221DE
:102220000120FFF7D1F807902F4B324602210846D4
:10223000FFF7CAF8064608902C4B00220221032023
:10224000FFF7C2F809902B7813B9284B1B7813B10C
:10225000002307930993224B1B7823B1224A12785B
:102260000AB90696B9E723B91F4A12780AB1089746
:10227000B3E7002BB1D01C4B1B78002BADD0002353
:1022800006930893A9E700BF0A5D4647DB93ACBFFE
:102290007362E6D02773E1BF0A5D4647DB93AC3F2C
:1022A0001A3B335EB019DD3FCD7E4F03344AD33F36
:1022B0004A1B3DA0F550CF3FCD7E4F03344AD3BFDC
:1022C00004B6B7E795294B40C10300203003002036
:1022D0003C0000200000E03F9A030020180400208A
:1022E0009E0300209B0300209D0300209C030020F0
:1022F0000000E0BF884B002202211046FFF764F87F
:102300000690864B324602210120FFF75DF8074612
:102310000790834D2B46002202210846FFF754F810
:102320000890804B324602210320FFF74DF80990B8
:102330002B7813B9784B1B7813B1002306930893BD
:10234000784B1B782BB1754A127812B97F420997E6
:1023500043E72BB9714A127812B1404207903CE72B
:10236000002B3FF43AAF6D4B1B78002B3FF435AF99
:1023700000230793099330E705EB87026A4B03EBD1
:10238000C203D3E900891CAB03EB850353F8580C57
:10239000FEF730F802460B4640464946FEF794F8F1
:1023A00002460B461CA901EBC70656E90601FDF7DC
:1023B000D5FE46E906010135032DDDDD0137022F8B
:1023C00008DC002000211CAB03EBC70343E9060136
:1023D0000025F1E7554BD3E90467DDE91A233046C0
:1023E0003946FDF7BBFECDE9140145A3D3E900232F
:1023F00030463946FEF768F843A3D3E90023FEF7D9
:1024000063F843A3D3E9002307F082F981468846A5
:102410003DA3D3E90023484628F00041FEF7DAFA4D
:1024200080B10022002348464146FEF7D3FA002837
:102430005CD037A3D3E9002348464146FDF78CFE24
:1024400081468846394DD5E90067DDE916AB484637
:10245000414607F07BF8CDE9000102460B465046A5
:102460005946FEF731F802460B4630463946FDF72D
:1024700075FECDE90401DDE918674846414607F0DD
:10248000FFF802460B46CDE9022330463946FEF7F7
:102490001BF802460B46DDE90401FDF75FFECDE9BE
:1024A0001001D5E90289DDE9022350465946FEF7BD
:1024B0000BF802460B4640464946FDF74DFE804666
:1024C000894632463B46DDE90001FDF7FDFF024645
:1024D0000B4640464946FDF741FECDE91201032275
:1024E00010A92846FEF7BAFC00252EE008A3D3E980
:1024F000002348464146FDF731FE81468846A1E764
:10250000682FA1BD84F6F23E182D4454FB210940EA
:10251000182D4454FB2119409E0300209B030020EA
:102520009D0300209C03002030030020180400209D
:102530001CAB03EBC50638A3D3E9002356E90C0115
:10254000FDF7C2FF46E912010135012DF0DD34A38C
:10255000D3E90023DDE91401FDF7B6FFCDE90E0153
:102560000022314B07F0D4F806460D4602460B46D2
:10257000CDE90E2300222D4B304625F00041FEF719
:1025800029FA78B10022002330462946FEF722FAC4
:10259000002835D00022244B30462946FDF7DCFDCB
:1025A000CDE90E0103220AA92046FEF757FC204B75
:1025B0001A68204BA3FB02135B09642101FB132360
:1025C000092B3FF6D9ADD4E90067D4E9028900228E
:1025D000194BD4E90401FDF777FFFEF70FFA054622
:1025E00040464946FEF70AFA044630463946FEF7A9
:1025F00005FA2B4622460146104805F01DFCBBE5B6
:102600000022094B30462946FDF7A8FDCDE90E0111
:10261000C8E700BFAFF30080D221337F7CD9923F5F
:10262000ABAAAAAAAAAA6A3F0080764000806640A8
:10263000340C00201F85EB5100005940E8B1000820
:102640002DE9F04F8FB082468B46CDE90423D0E9C7
:10265000004522462B467849D1E90001FEF79CF956
:10266000C0B1DAE902237449D1E90201FEF794F915
:1026700080B1DBE900237149D1E90001FEF78CF953
:1026800040B1DBE902236D49D1E90201FEF784F98B
:10269000002833D16A4B01221A70674BC3E9004509
:1026A000DAE90289C3E90289DBE90001634BC3E986
:1026B0000001DBE90267C3E9026722462B46FDF70A
:1026C0004BFD04460D4600220023FEF765F930B3AA
:1026D00042464B4630463946FDF73EFD0022002378
:1026E000FEF778F9B8B1574B02221A700022002386
:1026F0005549C1E900235549C1E90023504B1B78D6
:10270000002B00F091804F4B1B78032B28D8DFE87B
:1027100003F0556C21404B4B03221A70E6E742460A
:102720004B4630463946FDF717FD00220023FEF7E1
:1027300033F90028DAD00022002320462946FEF78C
:1027400049F918B13F4B00221A70CFE73D4B0122E7
:102750001A70CBE73E4B1B786BB13D4B5B788BB16E
:102760003B4B1B78012B40F05981394B5B78012B97
:1027700052D0042530E10121B420FFF735FA344B63
:102780001870EAE70221AF20FFF72EFA304B58709D
:10279000E6E72F4B1B7853B12D4B5B78002BDFD135
:1027A0000221AF20FFF720FA294B5870D8E701210A
:1027B000B420FFF719FA264B1870EDE7244B1B786D
:1027C0005BB1234B5B78002BCAD1022140F2091088
:1027D000FFF70AFA1E4B5870C2E701214FF48770C9
:1027E000FFF702FA1A4B1870EBE7194B1B785BB135
:1027F000174B5B78002BB3D1022140F20910FFF791
:10280000F3F9134B5870ABE701214FF48770FFF7D2
:10281000EBF90F4B1870EBE70023094A13700C4AD1
:10282000137053700425D7E0064B1B78032B19D87F
:10283000DFE803F099A410905004002070040020F9
:10284000A8030020C803002098040020B80300203B
:10285000A40400200121B320FFF7C6F90221B02013
:10286000FFF7C2F9704C714E337802930123019344
:10287000009407AB002211462046FFF701FC337895
:1028800003939DF860300293DDE90423CDE9002332
:1028900023465A4651460CA8FEF7EEF80546337813
:1028A00003930294CDF804B0CDF800A0DDE90C2329
:1028B00008A90AA8FEF7B8FEDDE90C67DDE90A23DE
:1028C00030463946FDF74AFC80468946584BC3E9F5
:1028D0000089DDE9082330463946FDF73FFC06460E
:1028E0000F46544BC3E90067002200234046494687
:1028F000FEF75CF800284CD1002200233046394610
:10290000FEF754F800284AD145A3D3E900234849EB
:10291000D1E90001FEF768F828B1454B40A1D1E9A3
:102920000001C3E900013EA3D3E900234149D1E9F5
:102930000001FEF759F828B13E4B39A1D1E9000159
:10294000C3E90001394B1B78032B43D8DFE803F0C0
:10295000482D2D480121B420FFF746F90221AF2070
:10296000FFF742F97EE701214FF48770FFF73CF94A
:10297000022140F20910FFF737F973E701214FF404
:102980008770FFF731F9022140F20910FFF72CF9A7
:1029900068E7274B00200021C3E90001ACE7254B85
:1029A00000200021C3E90001AEE7234C012323747A
:1029B0000223A3751E4BD3E9000106F013FEFEF7B8
:1029C0001DF8E0811B4BD3E9000106F00BFEFEF77A
:1029D00015F8A082032D19D028460FB0BDE8F08F5E
:1029E000154C022323740123A375124BD3E9000174
:1029F00006F0F8FDFEF702F8E0810D4BD3E9000187
:102A000006F0F0FDFDF7FAFFA082E3E70A4B002293
:102A1000DA819A8203221A749A75DDE70425DBE7CE
:102A2000000000008087C34000040020C80300208D
:102A300098040020B80300203C00002008B501F0F5
:102A400053FF002008BD0000F0B58FB0894B9B7884
:102A500013F0400F02D1884B01221A70854B9A78EF
:102A60005A789B7813F0100F02D1844B01221A7010
:102A7000804B9B7803F00303032B04D07D4B9B78A2
:102A800013F0010F02D17E4B01221A70794B9B7813
:102A900003F00303032B01D0764B9B78754B9B7897
:102AA00003F00C030C2B04D0724B9B7813F0040F33
:102AB00002D1744B01221A706E4B9B7803F00C0309
:102AC0000C2B04D06B4B9B7813F0080F02D16E4B8C
:102AD00001221A70674B5A785A785A785B784FF40B
:102AE0000061002005F066F810B1684B01221A70F1
:102AF0002021022005F05EF810B1654B01221A700A
:102B00004FF48051002005F055F810B1614B0122BF
:102B10001A704FF48071022005F04CF810B15E4B32
:102B200001221A704FF40061002005F043F850B9FB
:102B3000564B1B783BB1594B01221A700023584A5F
:102B40001370524A13704FF48071022005F032F86E
:102B500050B9514B1B783BB10023504A1370504A77
:102B6000012111704C4A13700121022005F022F856
:102B7000002873D14B4B01221A703E4B9B7803F017
:102B80000303032B13D03B4B9B7813F0010F0ED0A4
:102B90003B4B1B785BB1444A136801331360042B31
:102BA00002DD134600221A60354B00221A70314BA9
:102BB0009B7803F00C030C2B07D02E4B9B7813F063
:102BC000040F02D02F4B1B783BB92021022004F0C8
:102BD000F1FF70B92E4B1B785BB1344B1B780C2B7B
:102BE00040D00133314A13700023264A1370284A1B
:102BF0001370204B9B7803F00C030C2B07D01D4B5C
:102C00009B7813F0080F02D01F4B1B7843B94FF489
:102C10008051002004F0CEFF68B91E4B1B7853B1E1
:102C2000224B1B7813BB214B0C221A700023164A2F
:102C30001370184A13701D4B1B780C2B3AD8DFE821
:102C400013F0750B8600AB003900390039003900EC
:102C500039003900D000430137008300114B0022B6
:102C60001A708AE7114B00221A70BDE7013B0F4A28
:102C70001370DBE7380C002090030020DC040020F8
:102C8000DE040020A0040020C0030020E403002094
:102C9000E3030020E1030020E2030020B103002051
:102CA00001000020AD0300202C03002003000020C1
:102CB000FEF7B8F8764B1B78002B01F00585754BB5
:102CC0005B7813F0080F04D0724B5B7813F0020F9F
:102CD00005D14FF48071022004F06CFF20BB0DF190
:102CE0001703002201211046FEF76EFB0DF11703BA
:102CF000002201210846FEF767FB0DF117030022B1
:102D000001210220FEF760FB0DF1170300220121D3
:102D10000320FEF759FB60480022029201920090C6
:102D20000DAB0121FFF7ACF95C4B1A685C4BA3FBC0
:102D300002135B09642101FB1323092B41F2E88490
:102D4000002318460FB0F0BDFEF76CF8B2E7554B04
:102D50001B7893B9544B1B78002BABD0534B1B788B
:102D6000002BA7D00020FEF70DFA514B1870022857
:102D7000A0D14E4B00221A709CE74E4B0C22DA7108
:102D80000A221A720220FEF7FDF9494B00221A703E
:102D9000464B01221A70DDE7424B1B789BB9424B30
:102DA0001B78002B86D0414B1B78002B82D0012052
:102DB000FEF7E8F93E4B187002287FF47BAF3B4BDF
:102DC00000221A7076E73B4B0C22DA7108221A7245
:102DD0000220FEF7D7F90123354A1370334A1370E6
:102DE000DDE72C4B9B7813F0400F20D0324B1B7843
:102DF000EBB101232D4A1370304A1370304B00227F
:102E00001A70244B9B7813F0200F06D00023274A1A
:102E100013702A4A13702A4A1370244B1B78C3B9C3
:102E2000224A1370254A1370254A137042E7194B42
:102E30009B7813F0100FE4D0224B1B78002BE0D0CE
:102E400001231A4A13701D4A002111701C4A137085
:102E5000D7E71A4B1B787BB9194B1B7893B9144BE6
:102E60001B78022B7FF426AF0023104A1370134AFD
:102E70001370134A13701DE70020FEF783F90C4B03
:102E80001870ECE70120FEF77DF9094B1870E6E7B2
:102E900003000020380C0020E8030020340C002040
:102EA0001F85EB5101000020B1030020AA03002080
:102EB000AB0300203000002090030020AC03002072
:102EC000A9030020DC040020934B5B7813F0080F6B
:102ED00004D0914B5B7813F0020F60D18E4B9B783E
:102EE00013F0400F00F081808C4B1B78002B7CD0BE
:102EF0008B4B01221A7000238A4A13708A4A13707E
:102F00008A4A13708A4A13708A4A1370824B9B78DC
:102F100013F0200F17D00023874A1360874A1360ED
:102F2000874A01211170874A1370874A13707C4ABF
:102F300013707C4A13707C4A13707C4A13707C4A6D
:102F400013707C4A1370764B1B787BB9754B1B78DA
:102F500063B9754B1B784BB9744B1B7833B9744B01
:102F60001B781BB9734B1B78002B56D0704B1B780A
:102F7000002B00F08B80754B1C680C2C00F28680B7
:102F8000DFE814F05A00F400B4011602A202FA02BB
:102F90005C03E6033E04A20430058B05D9050DF160
:102FA0001703002201211046FEF70EFA0DF1170358
:102FB000002201210846FEF707FA0DF1170300224F
:102FC00001210220FEF700FA0DF117030022012172
:102FD0000320FEF7F9F95E48002202920192009068
:102FE0000DAB0121FFF74CF878E74B4B9B7813F0C2
:102FF000100F8BD0574B1B78002B87D00023484AEB
:103000001370484A1370484A1370484A1370484A6C
:1030100001211170474A137078E70024464B1C6069
:10302000464B1C603E4B1C70454B01221A70FDF74D
:10303000F9FE464B1C6099E7414B1B78002B3CD0B6
:10304000434800210291019100900DAB0A46FFF721
:1030500017F8414900220023C1E90023C1E90223F6
:103060003E49C1E9002328A3D3E90023C1E9022393
:1030700004E03B4B234403225A700134072CF8DD53
:103080002F4B00221A70304B1B7863B3244B1B78F4
:10309000002B3FF40FAE2D4B1C680A2C3FF60AAEF6
:1030A000DFE814F0B4050906CB065E077507CF0705
:1030B00028087808BD08D408280901230193009343
:1030C00013A3D3E9002325492348FFF7B9FA254B79
:1030D00018700328D7D11A4B01221A701B4A1368A3
:1030E00001331360CFE700220192009213460121C1
:1030F0000220FEF7CFF81C4B18700128C6D1124BE6
:1031000001221A70C2E700BF0000000000E8AC40D6
:10311000000000000094B140380C00209003002013
:10312000A1040020D8040020D9040020DA040020E3
:10313000DB040020A2040020DC0300209403002014
:103140000200002028030020AE030020D40300204A
:10315000E8030020DC040020B0040020C0040020AC
:103160003000002004000020AF030020A64B1B7895
:1031700033BBA64B1B68A64A12689B1AB3F5FA6FBD
:103180004AD3A24B1B689B1A40F6B7318B426CD9CD
:103190009E4B1B689A1AB2F57A6F48D20121F02033
:1031A000FEF722FD0221EB20FEF71EFD994B0222C5
:1031B0001A7401229A7540F6AC52DA819A8236E08E
:1031C000954D00240294019400950DAB22462146B2
:1031D0002846FEF755FF914B00200021C3E900016E
:1031E000D5E90201C3E902018D4B00268D4FC3E9E9
:1031F0000067C3E90201234604E08B4A1A44022116
:1032000051700133072BF8DD7F4B00221A707F4B82
:103210001A687F4B1A6012E0012301930093002289
:10322000804B7F497D48FFF70BFA804B1870774B36
:103230001B68774A12689B1AB3F57A6F29D27C4BC8
:103240001B78002B7FF422AF0022019200921346DC
:1032500001210220FEF71EF8764B187001287FF43A
:1032600015AF734B01221A7010E701214FF49670CD
:10327000FEF7BAFC022140F22710FEF7B5FC654BC1
:1032800002221A7401229A7540F6AC52DA819A82AF
:10329000CDE7664B04221A7000245D4B1C60FDF7DD
:1032A000D3FD01258DF834508DF835408DF836501A
:1032B0000022614BCDE906234BA3D3E90023CDE9DE
:1032C000082300220023CDE90A230294019406ABCF
:1032D00000930DAB2A4621464F48FEF7D1FE4A4BDC
:1032E0001D70564A13682B441360A8E7504B1B7897
:1032F00093B1454B1B78FBB94C4B1B78032B47D044
:1033000001230193009300224D4B45494348FFF7A9
:1033100097F9464B1870B9E60022019200921346C5
:1033200001210220FDF7B6FF424B18700128E0D1C1
:103330003F4B01221A70DCE7374D002402940194C0
:1033400000950DAB224621462846FEF799FE334BE9
:1033500027A1D1E90001C3E90001D5E90201C3E9D0
:1033600002012F4B24A7D7E90067C3E90067C3E92F
:103370000201234604E02C4A1A440421517001330F
:10338000072BF8DD0023204A1370284A13707DE6CE
:10339000274B1B78002B3FF479AE1B4B01221A7090
:1033A000264A136801331360214B00221A706DE620
:1033B000154B1B78002B47D11C4B1B78032B6ED071
:1033C0000123019300930EA3D3E90023144913486A
:1033D000FFF736F9154B18700C4B1A68194B1A6029
:1033E00054E600BFAFF300800000000000E8AC40EE
:1033F0000000000000C067400000000000589BC0B3
:10340000000000000070A74002000020340C0020E3
:10341000940300203C000020E8030020B0040020BA
:10342000C004002000409F40300000200400002025
:10343000AE030020AF03002000006940D403002049
:103440000040AF4024030020934D002402940194D7
:1034500000950DAB224621462846FEF711FED5E920
:1034600000018E4EC6E90001D5E90223C6E9022318
:103470008B4BC3E900017EA1D1E90001C3E9020140
:10348000234604E0874A1A44052151700133072B73
:10349000F8DD0023844A1370844A1370F6E5844AE9
:1034A000537843F030035370824B1B68824A126892
:1034B0009B1AB3F5FA7F7FF6E9AD7B4B01221A70B8
:1034C00014447E4B1C60E1E5774B1B789BB9774B2E
:1034D0001B78032B3BD00123019300930022784BF0
:1034E0006F496E48FFF7ACF8704B1870714B1A6853
:1034F000714B1A60CAE5684D00240294019400954E
:103500000DAB224621462846FEF7BAFDD5E900015B
:10351000624BC3E9000156A7D7E90067C3E9026718
:103520005F4BC3E9000154A1D1E90001C3E90201E5
:10353000234604E05B4A1A44062151700133072BED
:10354000F8DD0023584A1370584A13709EE5584A14
:10355000537843F004035370564B1B68564A126865
:103560009B1AB3F5FA7F7FF691AD4F4B01221A708B
:103570001444524B1C6089E5524B1B7893B14A4B63
:103580001B78FBB9494B1B78032B47D001230193D0
:10359000009300224C4B42494048FFF751F8434BFF
:1035A000187073E500220192009213460121022057
:1035B000FDF770FE454B18700128E0D1414B012208
:1035C0001A70DCE7344D00240294019400950DAB91
:1035D000224621462846FEF753FD304B28A1D1E96B
:1035E0000001C3E90001D5E90201C3E902012C4B46
:1035F00025A7D7E90067C3E90067C3E902012346AD
:1036000004E0284A1A44042151700133072BF8DDE5
:103610000023254A1370254A137037E5294B1B7880
:10362000002B3FF433AD204B01221A70234A13685C
:1036300001331360234B00221A7027E51A4B1B78C5
:10364000002B45D1194B1B78032B6CD00123019320
:1036500000930FA3D3E9002311491048FEF7F0FFB0
:10366000124B1870134B1A68134B1A600EE500BF0B
:10367000000000000030B140000000000078AE40C3
:103680000000000000589BC0000000000088A3C09C
:10369000000000000070A740E8030020B0040020F4
:1036A000C0040020300000200200002004000020A0
:1036B0002C000020340C002024030020D403002020
:1036C00000409F40AE0300200040AF40AF03002009
:1036D000954D00240294019400950DAB224621469D
:1036E0002846FEF7CDFCD5E90001904EC6E9000161
:1036F000D5E90223C6E902238D4BC3E9000180A16D
:10370000D1E90001C3E90201234604E0894A1A44D1
:10371000052151700133072BF8DD0023864A137011
:10372000864A1370B2E4864A537843F030035370EC
:10373000844B1B68844A12689B1AB3F5FA7F7FF6A4
:10374000A5AC7D4B01221A701444804B1C609DE493
:10375000794B1B789BB9794B1B78032B3BD001230A
:103760000193009300227A4B71497048FEF768FF7D
:10377000724B1870734B1A68734B1A6086E46A4D6B
:1037800000240294019400950DAB22462146284660
:10379000FEF776FCD5E90001644BC3E9000158A7A8
:1037A000D7E90067C3E90267614BC3E9000156A18D
:1037B000D1E90001C3E90201234604E05D4A1A444D
:1037C000062151700133072BF8DD00235A4A13708C
:1037D0005A4A13705AE45A4A537843F00403537018
:1037E000584B1B68584A12689B1AB3F5FA7F7FF64C
:1037F0004DAC514B01221A701444544B1C6045E4EB
:10380000544B1B7893B14C4B1B78FBB94B4B1B783B
:10381000032B48D001230193009300224E4B4449CF
:103820004248FEF70DFF454B18702FE4002201922D
:103830000092134601210220FDF72CFD474B187022
:103840000128E0D1434B01221A70DCE7364D0024F9
:103850000294019400950DAB224621462846FEF7BE
:103860000FFC324B2AA1D1E90001C3E90001D5E9DF
:103870000201C3E902012E4B27A7D7E90067C3E97C
:103880000067C3E90201234604E02A4A1A440421DE
:1038900051700133072BF8DD0023274A1370274AA4
:1038A0001370FFF7F3BB2B4B1B78002B3FF4EEABF1
:1038B000214B01221A70254A136801331360254BEE
:1038C00000221A70FFF7E2BB1B4B1B78002B47D17D
:1038D0001A4B1B78032B6FD001230193009310A385
:1038E000D3E9002312491148FEF7AAFE134B1870C2
:1038F000144B1A68144B1A60FFF7C8BBAFF3008073
:10390000000000000030B140000000000078AE4030
:103910000000000000ECA3C0000000000064A9C08B
:10392000000000000070A740E8030020B004002061
:10393000C00400203000002002000020040000200D
:103940002C000020340C002024030020D40300208D
:1039500000409F40AE0300200040AF40AF03002076
:103960009D4D00240294019400950DAB2246214602
:103970002846FEF785FBD5E90001984EC6E900010F
:10398000D5E90223C6E90223954BC3E900018CA1C6
:10399000D1E90001C3E90201234604E0914A1A4437
:1039A000052151700133072BF8DD00238E4A137077
:1039B0008E4A1370FFF76ABB8D4A537843F0300389
:1039C00053708C4B1B688C4A12689B1AB3F5FA7FB4
:1039D0007FF65CAB844B01221A701444874B1C6049
:1039E000FFF754BB804B1B78A3B9804B1B78032B8C
:1039F0003DD00123019300930022814B7849774801
:103A0000FEF71EFE794B18707A4B1A687A4B1A60D3
:103A1000FFF73CBB704D00240294019400950DAB60
:103A2000224621462846FEF72BFBD5E900016B4BC9
:103A3000C3E9000162A7D7E90067C3E90267684BE1
:103A4000C3E9000160A1D1E90001C3E902012346F5
:103A500004E0644A1A44062151700133072BF8DD53
:103A60000023614A1370614A1370FFF70FBB604A6D
:103A7000537843F0040353705E4B1B685E4A126830
:103A80009B1AB3F5FA7F7FF601AB574B01221A70F0
:103A900014445A4B1C60FFF7F9BA534B1B78002BA8
:103AA00032D0584A136801331360632B7FF7EEAAB4
:103AB000494D00240294019400950DAB2246214605
:103AC0002846FEF7DDFA454B41A1D1E90001C3E9E3
:103AD0000001D5E90201C3E90201414B002600279C
:103AE000C3E90067C3E90201234604E03D4A1A44E2
:103AF0000F2151700133072BF8DD0023414A136079
:103B0000394A1370FFF7C2BA0123019300930022D0
:103B10003D4B33493148FEF793FD344B1870032871
:103B20007FF4B4AA304B01221A70344A136801336F
:103B30001360FFF7ABBA2C4B1B784BB3264D002418
:103B40000294019400950DAB224621462846FEF7CB
:103B500097FAD5E90001214BC3E900011AA7D7E97B
:103B60000067C3E902671E4BC3E900010020002182
:103B7000C3E90201234604E01A4A1A440E21517097
:103B80000133072BF8DD184B00221A70FFF77EBABD
:103B900001230193009300221B4B11490F48FEF7AC
:103BA0004FFD124B187003287FF470AA0E4B0122B0
:103BB0001A70124A136801331360FFF767BA00BF27
:103BC000000000000030B140000000000078AE406E
:103BD0000000000000C8A9C0E8030020B0040020D5
:103BE000C00400203000002002000020040000205B
:103BF0002C000020340C002024030020D4030020DB
:103C000000409F40DC0300200040AF40A64B1B78E3
:103C1000002B3AD0A54800210291019100900DABF4
:103C20000A46FEF72DFAA24900220023C1E900232B
:103C3000C1E902239F49C1E9002397A3D3E90023E7
:103C4000C1E9022304E09C4B234403225A7001344F
:103C5000072CF8DD944B00221A70984B1B78002B30
:103C60007FF428A800220192009213464FF0FF3102
:103C70000420FDF70FFB924B187001287FF41AA85F
:103C80008E4B01221A70FFF715B8012301930093A0
:103C900083A3D3E9002387498548FEF7D1FC894BEC
:103CA00018700328D9D1804B01221A70864A1368F4
:103CB00001331360D1E77C4B1B7833BB834B1B680C
:103CC000834A12689B1AB3F5FA6F4AD37F4B1B687D
:103CD0009B1A40F6B7318B426ED97C4B1B689A1AFF
:103CE000B2F57A6F48D20121F020FDF77DFF022165
:103CF000EB20FDF779FF774B02221A7401229A75A7
:103D000040F6AC52DA819A8236E0684D0024029483
:103D1000019400950DAB224621462846FEF7B0F9E6
:103D2000634B00200021C3E90001D5E90201C3E98A
:103D30000201604B0026684FC3E90067C3E9020136
:103D40002346072B05DC5C4A1A44022151700133DB
:103D5000F7E7554B00221A705C4B1A685C4B1A60EF
:103D600012E001230193009300225B4B514950481C
:103D7000FEF766FC534B1870544B1B68544A12688C
:103D80009B1AB3F57A6F2BD24C4B1B78002B7EF429
:103D900091AF00220192009213464FF0FF310420B0
:103DA000FDF778FA464B187001287EF483AF434B39
:103DB00001221A70FEF77EBF01214FF49670FDF7C5
:103DC00013FF022140F22710FDF70EFF414B0222A4
:103DD0001A7401229A7540F6AC52DA819A82CBE7C6
:103DE000384B04221A700025394B1D60FDF72CF862
:103DF00001248DF834408DF835408DF8364000228E
:103E0000364BCDE9062324A3D3E90023CDE90823CB
:103E100000220023CDE90A230295019506AB009309
:103E20000DAB224629462148FEF72AF91E4B1C708D
:103E3000254A136823441360A6E7204B1B78C3B1BF
:103E4000194B1B78002B4BD11E4B1B78032B79D1C0
:103E50001A4B1B78002B3EF42DAF134B01221A7026
:103E6000194A136801331360144B00221A70FEF7CD
:103E700021BF00220192009213464FF0FF3104202F
:103E8000FDF708FA0E4B18700128D9D10B4B01220F
:103E90001A70D5E7AFF30080000000000044B64080
:103EA000000000000094B14002000020E803002060
:103EB000B0040020C004002030000020AE03002029
:103EC000AF03002004000020D4030020340C0020A5
:103ED000940300203C00002000409F400000694007
:103EE0009D4D00240294019400950DAB224621467D
:103EF0002846FEF7C5F8994A537843F008035370F3
:103F0000974B8DA1D1E90001C3E90001D5E9020178
:103F1000C3E90201934B8AA7D7E90067C3E90067A9
:103F2000C3E902012346072B05DC8F4A1A4404210A
:103F300051700133F7E700238C4A13708C4A1370D9
:103F4000FEF7B8BE01230193002300930022894BA2
:103F500084498348FEF774FB854B1870FEF7AABEB0
:103F6000854B1B78012B0AD1804B01221A70144417
:103F7000824B1C60804B00221A70FEF79BBE002112
:103F80000220FCF77BFF7C4B1870FEF793BE774B4B
:103F90001B78CBB9764B1B78032B40D16F4A5378F3
:103FA00043F030035370764B1B68764A12689B1AB5
:103FB000B3F5FA7F7EF67EAE6C4B01221A70144484
:103FC0006E4B1C60FEF776BE634D00240294019494
:103FD00000950DAB224621462846FEF751F8D5E95B
:103FE00000015F4EC6E90001D5E90223C6E90223BC
:103FF0005C4BC3E9000100206349C3E90201234689
:10400000072B05DC584A1A44052151700133F7E7A4
:104010000023564A1370564A1370FEF74BBE012315
:104020000193009348A3D3E900234E494C48FEF77F
:1040300007FB4F4B1870524B1A68524B1A60FEF731
:1040400039BE4A4B1B78CBB9494B1B78032B3FD168
:10405000424A537843F004035370494B1B68494A62
:1040600012689B1AB3F5FA7F7EF624AE3F4B01220D
:104070001A701444414B1C60FEF71CBE364D0024E0
:104080000294019400950DAB224621462846FDF787
:10409000F7FFD5E90001324BC3E9000100263A4F92
:1040A000C3E902672F4BC3E9000129A1D1E900014F
:1040B000C3E902012346072B05DC2B4A1A440621DB
:1040C00051700133F7E7294B00221A70FEF7F2BD59
:1040D0000123019300931CA3D3E900232149204825
:1040E000FEF7AEFA224B1870254B1A68254B1A6062
:1040F000FEF7E0BD254B1B78002B7EF4DBAD019372
:1041000001200090034602464FF0FF31FDF7C2F850
:104110001F4B187001287EF4CDAD1C4B00221A7085
:10412000124B01221A70154A136801331360FEF70F
:10413000C1BD00BFAFF300800000000000C06740B9
:104140000000000000589BC0000000000070A74065
:10415000000000000044B640E80300202C000020CE
:10416000B0040020C0040020300000200200002025
:10417000040000200040AF4028030020D4030020AA
:10418000340C0020240300200000B940AE030020BE
:10419000AF030020AE4B1B784BB3AE4D002402940E
:1041A000019400950DAB224621462846FDF768FF95
:1041B000D5E90001A84EC6E90001D5E90223C6E908
:1041C0000223A64BC3E9000197A1D1E90001C3E98D
:1041D0000201234604E0A24A1A440E215170013321
:1041E000072BF8DD9A4B00221A70FEF763BD0123FE
:1041F000019300938EA3D3E9002398499648FEF7D4
:104200001FFA984B187003287EF454AD904B01228E
:104210001A70954A136801331360FEF74BBD934B38
:104220001B78012B0AD18A4B01221A7014448E4B41
:104230001C608E4B00221A70FEF73CBD002103204B
:10424000FCF71CFE894B1870FEF734BD804B1B78C1
:10425000002B37D0864A136801331360312B7EF769
:1042600029AD7C4D00240294019400950DAB2246AB
:1042700021462846FDF704FF774E6FA3D3E90023BC
:10428000C6E9002300227B4BD5E90201FBF766FF5C
:10429000C6E90201714B6AA7D7E90067C3E9006765
:1042A000C3E90201234604E06D4A1A440F2151700C
:1042B0000133072BF8DD00236D4A1360644A137045
:1042C000FEF7F8BC012301930023009300226A4B00
:1042D00062496148FEF7B4F9624B187003287EF416
:1042E000E9AC5B4B01221A705F4A1368013313601B
:1042F000FEF7E0BC614A537843F0340353705B4BE4
:104300001B78012B0AD1524B01221A701444564BD0
:104310001C60564B00221A70FEF7CCBC0021022014
:10432000FCF7ACFD514B1870FEF7C4BC544C204652
:1043300004F0D8F980EAE075A5EBE075204604F0BA
:10434000D1F90028B8BF404200FB05F5204604F033
:10435000DAF980EAE076A6EBE076204604F0D3F9BD
:104360000028B8BF404200FB0650FCF743F805F0B8
:104370002FFA0022434BFCF719FB00282ED0424BAA
:104380001C68414B1C60414B1B78002B00F0AF8038
:104390003F4B1B78002B00F0B3803D4B1B7823B1C3
:1043A0003A4B1B78002B40F0B480FDF7E5FD034647
:1043B00000287EF4C6AC324B5B7813F0080F00F097
:1043C000B3802F4B5B7813F0100F00F0AD80314BB2
:1043D000032283F8222000221A84B1E0284804F046
:1043E00081F9002858DB264C204604F08CF9FCF7B4
:1043F00001F806460F46204604F074F9FBF7FAFF71
:1044000002460B4630463946FCF788F904F010FFA7
:104410000DA3D3E90023FCF757F8FCF7EFFAC0F53A
:104420008774AEE7AFF3008000000000009CB84046
:10443000000000000070A7400000000000589BC072
:104440000000000000F4AAC046DF617EDCA54C40FD
:1044500002000020E8030020B0040020C004002077
:104460003000002004000020D40300202803002096
:10447000DC0300200000494000409F402C00002049
:10448000380C002000804640D8030020990300200B
:10449000980300203C000020954C204604F033F99E
:1044A000FBF7A8FF06460F46204604F01BF9FBF772
:1044B000A1FF02460B4630463946FCF72FF904F0BF
:1044C000B7FE89A3D3E90023FBF7FEFF02460B46A4
:1044D000104603F10041FCF791FA041E04DBC4F519
:1044E0008774C4F5B4744CE7C4F58774F9E7FDF735
:1044F00045FB00287FF44CAF7E4B01221A7047E742
:10450000FDF756FB00287FF448AF7B4B01221A7061
:1045100043E7012104F1B400FDF766FB022104F139
:10452000AF00FDF761FB40E7714B5B7813F0080FBC
:1045300034D0724B012283F8222040F6B8321A841C
:104540006B4B5B7813F0020F04D0694B5B7813F070
:10455000040F37D1664B5B7813F0020F36D1644BF2
:104560005B7813F0040F35D00120FCF70BFE604B95
:104570005B7813F0080F45D05D4B5B7813F0100F9C
:1045800040D05B4B5B7813F0010F27D05B4B0122CF
:1045900083F8282041F28832DA8439E0544B5B7882
:1045A00013F0100F07D0554B022283F8222040F65B
:1045B000B8321A84C4E7514B032283F82220002228
:1045C0001A84BDE70220FCF7DDFDD0E70020FCF7F0
:1045D000D9FDCCE70220FCF7D5FDC8E7444B9B781A
:1045E00013F0200F07D0454B022283F8282041F218
:1045F0008832DA840CE0414B032283F82820002221
:10460000DA8405E03D4B032283F828200022DA8477
:10461000374B9B7813F0400F0AD0394B1B78012B96
:1046200009D000210120FCF7E7FD354B187002E0AE
:10463000334B00221A702E4B5B7813F0010F0ED013
:104640002B4B5B7813F0080F09D12E4B1B78012BF5
:1046500008D02D48FDF734FC2A4B187002E0294B96
:1046600000221A70224B9B7813F0200F21D0274B89
:104670001B78012B12D11E4B9B7813F0200F05D015
:104680001B4B5B7813F0020F3EF414ABFCF77AFB84
:10469000034600283EF40EABFEF753BB0022019206
:1046A0000092134601210220FCF7F4FD174B18700D
:1046B000E1E70022154B1A70012101910092134687
:1046C0000220FCF7E7FDD6E70F4800210291019197
:1046D00000900DAB0A46FDF7D3FC034600283EF4DC
:1046E000EEAAFEF72EBB00BF46DF617EDCA54C4084
:1046F000380C002099030020980300203C00002083
:10470000DF040020DD040020E8030020AF030020C8
:10471000464B1A78464B53F82210464803F08CFB60
:10472000454B1B78002B57D1444803F085FB4FF4D1
:104730008051012003F03EFA002851D1404803F097
:104740007BFB0421012003F035FA00284CD13D48C1
:1047500003F072FB0221012003F02CFA002847D15C
:10476000394803F069FB1021012003F023FA0028E7
:1047700042D1364803F060FB1021022003F01AFA00
:1047800000283DD1324803F057FB4FF40061002070
:1047900003F010FA002837D12E4803F04DFB2021FA
:1047A000022003F007FA98BB2B4803F045FB4FF4B7
:1047B0008051002003F0FEF970BB284803F03CFB59
:1047C0004FF48071022003F0F5F948B3244803F058
:1047D00033FB0023FEF7B5BA224803F02DFBA6E712
:1047E000214803F029FBACE7204803F025FBB1E7A3
:1047F0001F4803F021FBB6E71E4803F01DFBBBE793
:104800001D4803F019FBC0E71C4803F015FBC6E781
:104810001B4803F011FBCAE71A4803F00DFBCFE772
:10482000194803F009FB0023FEF78BBA03000020B0
:1048300030B3000854B00008AD03002064B0000895
:104840007CB00008A4B00008D4B00008F4B00008A0
:104850001CB100083CB1000854B100086CB100085C
:1048600090B1000870B0000890B00008BCB000081B
:10487000E4B0000808B100082CB1000848B10008F5
:1048800060B1000878B1000884B10008FEE70000BC
:1048900008B54FF4A2720249024806F025FB08BD94
:1048A00064B30008E4040020002209E0930003F14F
:1048B000006303F5FE331968094B43F822100132F7
:1048C0000C2AF3DD002307E0064A52F823200449AE
:1048D00051F8231011600133082BF5DD704700BF3C
:1048E000280600200800002008B5FFF7D1FFFFF7D9
:1048F000DBFF08BD00B583B01C4B9A6942F0010292
:104900009A619B6903F001030193019B032000F06E
:10491000F1FA002211466FF00B0000F009FB0022B3
:1049200011466FF00A0000F003FB002211466FF001
:10493000090000F0FDFA002211466FF0040000F0BB
:10494000F7FA002211466FF0030000F0F1FA00229E
:1049500011466FF0010000F0EBFA002211464FF013
:10496000FF3000F0E5FA03B05DF804FB00100240F0
:10497000F0B589B003685E4A934205D005465D4AAA
:10498000934255D009B0F0BD5B4B9A6942F00802E2
:104990009A619B6903F008030093009B544A1368D3
:1049A000C3F30E0313604FF4407304931123059374
:1049B00002230793514C04A9204600F073FDE368DD
:1049C00043F44073E3604D4B9B6803F44073B3F5CD
:1049D000407FF8D1494AD36823F44073D360474BF2
:1049E0009B6813F4407FFAD14FF440730493122371
:1049F00005930323079304A9404800F053FD404A60
:104A0000536843F0020353603B4BDA6942F40012EF
:104A1000DA61DB6903F400130193019B344B1A68DC
:104A200042F400421A601A68C2F30E021A60A9E743
:104A30004FF440630493122305930323079304A9BF
:104A40002E4800F02FFD2C4BDA6942F48002DA6127
:104A5000DA6902F480020292029A5A6942F0010273
:104A60005A615B6903F001030393039B254E264BB8
:104A7000336000247460B4608027F760346174612F
:104A8000B461F461304600F0F9FA2E6375621F4E8E
:104A90001F4B336010237360B460F760346174613E
:104AA000B461F461304600F0E9FAEE627562012209
:104AB00021460E2000F03CFA0E2000F07FFA012281
:104AC00021460F2000F034FA0F2000F077FA22463A
:104AD0002146212000F02CFA212000F06FFA224616
:104AE0002146222000F024FA222000F067FA49E74C
:104AF000005400400058004000100240000C0140EB
:104B0000000001407006002058000240A806002066
:104B10004400024000B587B003681B4A934205D0A9
:104B20001A4A93421BD007B05DF804FB184BDA69B0
:104B300042F00202DA61DB6903F002030093009B9A
:104B4000C023029300230393049302A9114800F0A9
:104B5000A9FC114A536843F440635360E3E70C4BEC
:104B6000DA6942F00402DA61DB6903F004030193BD
:104B7000019BC023029300230393049302A90748D7
:104B800000F090FCCFE700BF0004004000080040A8
:104B9000001002400010014000000140000C0140E4
:104BA000F0B58DB00368724A934209D00446714A49
:104BB00093422FD0704A934200F086800DB0F0BD32
:104BC0006E4B9A6942F480429A619A6902F480427B
:104BD0000192019A9A6942F004029A619B6903F07A
:104BE00004030293029B4FF400730893022309937A
:104BF00003230B93624C08A9204600F053FC4FF4AA
:104C000080630893002309930A9308A9204600F0C3
:104C100049FCD3E7594EF36943F40033F361F36978
:104C200003F400330393039BB36943F00403B361BC
:104C3000B36903F004030493049B04230893022341
:104C4000099303230B934E4F08A9384600F02AFC22
:104C500008230893002509950A9508A9384600F00D
:104C600021FC736943F001037361736903F001036D
:104C70000593059B434E444B336010277760B56026
:104C80008023F36035617561B561F561304600F0F0
:104C9000F5F92663746201222946112000F048F9D3
:104CA000112000F08BF92A462946384600F040F9D9
:104CB000384600F083F901222946262000F038F911
:104CC000262000F07BF979E72C4BDA6942F4802248
:104CD000DA61DA6902F480220692069A9A6942F051
:104CE00010029A619B6903F010030793079B4FF42E
:104CF000806308930223099303230B93234D08A990
:104D0000284600F0CFFB4FF4006308930026099675
:104D10000A9608A9284600F0C5FB1D4A536823F0EF
:104D2000300343F0100353601A4D1B4B2B606E6031
:104D3000AE608023EB602E616E61AE614FF4005374
:104D4000EB61284600F09AF965636C6232463146A1
:104D50000D2000F0EDF80D2000F030F90122314671
:104D6000272000F0E5F8272000F028F926E700BF0B
:104D7000003801400044004000480040001002405C
:104D80000008014018070020800002400010014088
:104D900000000140E0060020300002407047FEE7BE
:104DA000FEE7FEE7FEE770477047704708B500F082
:104DB00085F800F04EF9024A13680133136008BD0C
:104DC000340C002008B5024B186B00F033FA08BD14
:104DD0000402002008B5024B586B00F02BFA08BD06
:104DE0004402002008B5024802F0D9FD08BD00BF0A
:104DF0004402002008B5024802F0D1FD08BD00BF02
:104E00000402002008B5024BD86A00F013FA08BD6E
:104E10003C01002008B5024B186B00F00BFA08BDEE
:104E20003C0100200F4B1A6842F001021A605968D9
:104E30000D4A0A405A601A6822F0847222F48032C5
:104E40001A601A6822F480221A605A6822F4FE025C
:104E50005A604FF41F029A60044B4FF000629A6050
:104E6000704700BF001002400000FFF800ED00E0B6
:104E700010B5044601F026FF064BA3FB0030800965
:104E800000F0B2F8002221464FF0FF3000F050F859
:104E9000002010BDD34D621008B5074A136843F0D7
:104EA00010031360032000F025F80020FFF7E0FF57
:104EB000FFF720FD002008BD00200240024A1368D1
:104EC00001331360704700BF50070020014B186882
:104ED000704700BF5007002010B582B00190FFF767
:104EE000F5FF0446FFF7F2FF001B019B9842F9D340
:104EF00002B010BD10B50446C31E042B0FD80A4AD9
:104F0000D36823F4E0631B041B0C240204F4E06464
:104F1000234343F0BF6343F40033D36010BDBA2191
:104F20000248FFF7B3FCEAE700ED00E0C0B4000878
:104F300070B505460C4616460F2A25D80F2C28D8E2
:104F40001B4BDB68C3F30223C3F10702042A28BF0B
:104F50000422191D062921D9033B4FF0FF3101FA24
:104F600002F224EA02049C4001FA03F326EA030653
:104F70003443002D14DB2401E4B205F1604505F54E
:104F8000614585F8004370BDD2210A48FFF77EFCD9
:104F9000D4E7D3210748FFF779FCD1E70023DCE70A
:104FA00005F00F052401E4B2034B5C55EBE700BFAD
:104FB00000ED00E0C0B4000814ED00E010B5041EE0
:104FC00008DB04F01F02640901239340044A42F8FD
:104FD000243010BDE6210348FFF758FCF1E700BF7D
:104FE00000E100E0C0B400080138B0F1807F0AD2CF
:104FF000064B5860064AF02182F823100020986082
:1050000007221A6070470120704700BF10E000E0DF
:1050100000ED00E010B50446042800D038B9042C97
:105020000BD0094A136823F00403136010BD4FF43A
:10503000DF710648FFF72AFCF1E7034A136843F0E3
:1050400004031360F2E700BF10E000E0C0B4000802
:10505000704708B5FFF7FCFF08BD10B40468636033
:105060004368102B05D0036899600368DA6010BCB0
:10507000704703689A600368D960F8E7002800F079
:10508000928010B504460368484A934215D0143202
:10509000934212D0143293420FD0143293420CD068
:1050A0001432934209D01432934206D01432934200
:1050B00003D0B5213E48FFF7E9FB636823B1102B0D
:1050C00002D0B3F5804F4BD1A368402B01D0002B09
:1050D0004BD1E368802B01D0002B4BD123692BB13E
:1050E000B3F5807F02D0B3F5007F48D163692BB15F
:1050F000B3F5806F02D0B3F5006F45D1A3690BB152
:10510000202B46D1E36943B1B3F5805F05D0B3F5F9
:10511000005F02D0B3F5405F40D194F821300BB965
:1051200084F82030022384F8213021680A6822F4B0
:105130007F5222F030026368A0680343E0680343B3
:105140002069034360690343A0690343E0690343A3
:1051500013430B6000206063012384F8213010BDED
:10516000B6211348FFF792FBAEE7B7211048FFF7CF
:105170008DFBAEE7B8210E48FFF788FBAEE7B921FB
:105180000B48FFF783FBB1E7BA210948FFF77EFB25
:10519000B4E7BB210648FFF779FBB3E7BC2104481D
:1051A000FFF774FBB9E70120704700BF0800024019
:1051B000F8B40008F8B590F82040012C35D01D4611
:1051C00016460F460446012380F82030022380F85B
:1051D00021306A1E4FF6FE739A4220D82068036879
:1051E00023F0010303602B46324639462046FFF781
:1051F00034FF2268136843F00203136022681368C7
:1052000043F0040313602268136843F0080313603B
:105210002268136843F0010313600020F8BD40F2D8
:1052200061110348FFF732FBD8E70220F6E700BF21
:10523000F8B4000810B50446984B1A6803689849FA
:105240008B4214D014318B4232D014318B4231D086
:1052500014318B4231D014318B4231D014318B4216
:1052600002D04FF0006103E04FF4000100E008219C
:105270000A423CD01A6812F0080F38D01A6822F09F
:1052800008021A602368864A93421FD01432934260
:1052900045D01432934244D01432934244D0143255
:1052A000934244D0143293420DD04FF000620EE08E
:1052B0008021DDE74FF40061DAE74FF40041D7E7E2
:1052C0004FF40021D4E74FF4000200E00822734BB2
:1052D0005A60636B43F001036363042384F8213055
:1052E000002384F82030236B0BB1204698476B4B8A
:1052F0001A6823686A498B421FD014318B4241D00F
:1053000014318B4240D014318B4240D014318B4247
:1053100040D014318B420DD04FF080610EE08022DE
:10532000D5E74FF40062D2E74FF40042CFE74FF4E5
:105330000022CCE74FF4800100E004210A4239D07A
:105340001A6812F0040F35D01A6812F0200F03D13A
:105350001A6822F004021A602368514A93421FD04F
:10536000143293423ED0143293423DD014329342D1
:105370003DD0143293423DD0143293420DD04FF0C1
:1053800080620EE04021D9E74FF48061D6E74FF408
:105390008041D3E74FF48021D0E74FF4800200E052
:1053A00004223E4B5A60112384F82130E36A0BB18A
:1053B00020469847394B1A68236839498B421FD0D9
:1053C00014318B4241D014318B4240D014318B4286
:1053D00040D014318B4240D014318B420DD04FF06D
:1053E00000710EE04022DCE74FF48062D9E74FF411
:1053F0008042D6E74FF48022D3E74FF4001100E05B
:1054000002210A423ED01A6812F0020F3AD01A68FE
:1054100012F0200F03D11A6822F002021A602368EA
:105420001F4A93421FD0143293422CD0143293421D
:105430002BD0143293422BD0143293422BD01432FF
:1054400093420DD04FF000720EE02021D9E74FF4C7
:105450000071D6E74FF40051D3E74FF40031D0E7A5
:105460004FF4001200E002220C4B5A60636B63633E
:10547000012384F82130002384F82030A36A0BB183
:105480002046984710BD2022EEE74FF40072EBE76C
:105490004FF40052E8E74FF40032E5E70000024025
:1054A000080002402DE9F04383B080460F46B54B1B
:1054B000984213D003F5806398420FD003F58063C0
:1054C00098420BD003F58063984207D003F58063C0
:1054D000984203D0CF21AC48FFF7D8F93B882BB3D3
:1054E0007B68012B1ED9112B1CD0022B1AD0122B3A
:1054F00018D0A64A934215D002F58012934211D0DB
:1055000002F5801293420DD0A2F5F812934209D011
:1055100002F58012934205D002F58012934201D029
:10552000032B08D14FF000094E46DDE0D02196480C
:10553000FFF7ACF9D4E7D1219348FFF7A7F9F1E7DA
:10554000002B5ED0012B05D1FB68013B022B65D8F7
:10555000D7F80C90FF2C00F296804046FF2C00F20A
:105560009580B20003680F21914023EA010309FAF4
:1055700002F2134303607B6813F0805F00F0B38096
:10558000834B9A6942F001029A619B6903F001031F
:105590000193019BB208911C7E4B53F8210006F049
:1055A000030399000F238B4020EA0300754B9845B5
:1055B00072D003F58063984500F0CD8003F58063D9
:1055C000984500F0CA8003F58063984562D00423B3
:1055D00063E0714A934214D00BD9704A934210D0C1
:1055E00002F5803293420CD0A2F580129342B1D1E1
:1055F00007E0A2F58012934203D002F58032934275
:10560000A8D1BB68022B2DD8BB68002B38D0012B4A
:105610002ED0C8F814504FF008099BE7E7215A48EC
:10562000FFF734F994E7EE215748FFF72FF98EE0A2
:10563000FB68013B022B03D8FB6803F1080989E7EB
:10564000F5215148FFF722F9F6E7FB68013B022BF1
:1056500003D8FB6803F10C097CE7FC214A48FFF7FB
:1056600015F9F6E740F209114748FFF70FF9CBE7C4
:10567000C8F810504FF008096CE74FF0000969E7CF
:105680004FF0040966E708F1040067E7A6F1080295
:10569000920067E7032300E000238B4003430232BC
:1056A0003C4941F822307B6813F4803F57D03C4A94
:1056B0001368234313607B6813F4003F55D0384AC6
:1056C0005368234353607B6813F4801F53D0344ADC
:1056D0009368234393607B6813F4001F62D0304AC1
:1056E000D3681C43D46001360F2E61D80125B54024
:1056F0003C682C40A542F6D1224B984513D003F5C7
:10570000806398450FD003F5806398450BD003F56F
:105710008063984507D003F58063984503D0DF2167
:105720001948FFF7B3F87B68122B8ED03FF651AFC4
:10573000022B3FF47DAF7FF603AF032B9DD0112BDF
:105740007FF408AFFB68013B022B3FF66CAFFB68B0
:1057500003F10409FEE601239FE702239DE7104AB7
:10576000136823EA04031360A5E70D4A536823EA8C
:1057700004035360A7E70A4A936823EA040393608B
:10578000A9E700BF0008014030B500080000111073
:105790000010024000000140000021100000311004
:1057A00000040140044AD36823EA0404D4609AE761
:1057B00003B0BDE8F08300BF0004014038B50546E2
:1057C0000C4621B1AB681C4207D1002038BD4FF414
:1057D000E2710348FFF75AF8F4E70120F6E700BF4B
:1057E00030B5000870B5064615460C4629B1012DA6
:1057F00009D875B92404346170BD4FF4F2710648BC
:10580000FFF744F8F3E740F2E5110348FFF73EF8ED
:10581000EFE73461F0E700BF30B500084368124A93
:10582000934209D85800B1FBF0F0C0F30B03032BEF
:1058300000D970470420704782685AB903EB4300CF
:10584000B1FBF0F040F40040C0F30B03002BF0D1AB
:105850000120EEE703EB830000EB8000B1FBF0F0EA
:1058600040F44040F0E700BFA086010003685A6999
:1058700012F4806F0DD05A6922F480625A610423B9
:105880008363202380F83530002380F834300120F2
:105890007047002070472DE9F04106460C469046BF
:1058A0001D46FFF713FB0746B8F1000F1AD043E07F
:1058B00025B1FFF70BFBC01BA84213D9202386F8A4
:1058C0003530002386F83430032019E033685B69F3
:1058D00024EA03039BB2003318BF01237BB1B5F167
:1058E000FF3FE5D1C4F30743012BEFD033689B6939
:1058F00024EA03039BB2003318BF0123EEE7002024
:10590000BDE8F08125B1FFF7E1FAC01BA84213D929
:10591000202386F83530002386F834300320EFE763
:1059200033685B6924EA03039BB2B3FA83F35B0930
:105930007BB1B5F1FF3FE5D1C4F30743012BEFD0B5
:1059400033689B6924EA03039BB2B3FA83F35B09D0
:10595000EEE70020D4E7F8B504460D461646FFF7FB
:10596000B5FA074631E01A6842F400721A602268FC
:10597000536923F4806353610423A363202384F8D1
:105980003530002384F8343001202CE026B1FFF7B5
:105990009DFAC01BB04218D9202384F8353000236B
:1059A00084F8343003201EE023685B6925EA030392
:1059B0009BB2003318BF0123A3B123685A6912F4C4
:1059C000806FD0D1B6F1FF3FE0D1C5F30743012B83
:1059D000EAD023689B6925EA03039BB2003318BF12
:1059E0000123E9E70020F8BD70B504460D461646D0
:1059F0000268136843F480731360334600224FF04B
:105A00000111FFF748FF48BB2369B3F5804F0FD161
:105A1000236805F0FE051D61324614492046FFF754
:105A20009AFF0346D8B1A36B042B1CD1012316E0C7
:105A3000EB11226803F0060343F0F00313613246D2
:105A40000B492046FFF787FF20B1A36B042B08D139
:105A5000012304E02368EDB21D61DDE7032318464E
:105A600070BD0323FBE70323F9E700BF0200010039
:105A700008000100F0B583B004460D4616460268E2
:105A8000136843F4806313600268136843F48073FF
:105A90001360334600224FF00111FFF7FCFE00288F
:105AA0004CD12369B3F5804F11D1236845F001052E
:105AB000EDB21D61324627492046FFF74CFF0346F1
:105AC00000283CD0A36B042B42D1012337E0EF1117
:105AD00007F00607236847F0F0021A6132461E49B4
