:020000040800F2
:100000000050002011870008794200087B42000858
:100010007D4200087F420008814200080000000085
:100020000000000000000000000000008342000803
:10003000854200080000000087420008894200084D
:100040005987000859870008598700085987000810
:100050005987000859870008598700085987000800
:1000600059870008598700085987000859870008F0
:1000700059870008B1420008E1420008F142000837
:1000800059870008A14200085987000859870008CD
:1000900059870008598700085987000859870008C0
:1000A00059870008E171000859870008598700083E
:1000B000F17100085987000859870008598700081E
:1000C0005987000859870008598700085987000890
:1000D0005987000859870008D1420008C14200082A
:1000E0005987000859870008598700080000000058
:1000F0000000000000000000000000000000000000
:0C01000000000000000000005FF808F1A3
:1001100010B5054C237833B9044B13B10448AFF341
:1001200000800123237010BDF802002000000000B1
:1001300088A9000808B5034B1BB103490348AFF376
:10014000008008BD00000000FC02002088A9000813
:1001500081F0004102E000BF83F0004330B54FEA78
:1001600041044FEA430594EA050F08BF90EA020FE5
:100170001FBF54EA000C55EA020C7FEA645C7FEA78
:10018000655C00F0E2804FEA5454D4EB5555B8BF9B
:100190006D420CDD2C4480EA020281EA030382EA0C
:1001A000000083EA010180EA020281EA0303362D9E
:1001B00088BF30BD11F0004F4FEA01314FF4801C71
:1001C0004CEA113102D0404261EB410113F0004F83
:1001D0004FEA03334CEA133302D0524263EB43033A
:1001E00094EA050F00F0A780A4F10104D5F1200ED8
:1001F0000DDB02FA0EFC22FA05F2801841F1000133
:1002000003FA0EF2801843FA05F359410EE0A5F106
:1002100020050EF1200E012A03FA0EFC28BF4CF037
:10022000020C43FA05F3C01851EBE37101F00045ED
:1002300007D54FF0000EDCF1000C7EEB00006EEBFA
:100240000101B1F5801F1BD3B1F5001F0CD3490884
:100250005FEA30004FEA3C0C04F101044FEA4452DB
:1002600012F5800F80F09A80BCF1004F08BF5FEA62
:10027000500C50F1000041EB045141EA050130BD42
:100280005FEA4C0C404141EB010111F4801FA4F1E5
:100290000104E9D191F0000F04BF01460020B1FA3A
:1002A00081F308BF2033A3F10B03B3F120020CDA72
:1002B0000C3208DD02F1140CC2F10C0201FA0CF050
:1002C00021FA02F10CE002F11402D8BFC2F1200CB5
:1002D00001FA02F120FA0CFCDCBF41EA0C0190406B
:1002E000E41AA2BF01EB0451294330BD6FEA0404B4
:1002F0001F3C1CDA0C340EDC04F11404C4F120029F
:1003000020FA04F001FA02F340EA030021FA04F3B0
:1003100045EA030130BDC4F10C04C4F1200220FA07
:1003200002F001FA04F340EA0300294630BD21FA45
:1003300004F0294630BD94F0000F83F4801306BF0B
:1003400081F480110134013D4EE77FEA645C18BFFF
:100350007FEA655C29D094EA050F08BF90EA020F96
:1003600005D054EA000C04BF1946104630BD91EA8E
:10037000030F1EBF0021002030BD5FEA545C05D191
:100380004000494128BF41F0004130BD14F58004D0
:100390003CBF01F5801130BD01F0004545F0FE4144
:1003A00041F470014FF0000030BD7FEA645C1ABF79
:1003B000194610467FEA655C1CBF0B46024650EAB0
:1003C000013406BF52EA033591EA030F41F40021DC
:1003D00030BD00BF90F0000F04BF0021704730B562
:1003E0004FF4806404F132044FF000054FF0000137
:1003F00050E700BF90F0000F04BF0021704730B5F8
:100400004FF4806404F1320410F0004548BF4042CC
:100410004FF000013EE700BF42004FEAE2014FEA21
:1004200031014FEA02701FBF12F07F4393F07F4FFC
:1004300081F06051704732F07F4208BF704793F0FF
:100440007F4F04BF41F40021704730B54FF4607412
:1004500001F0004521F000411CE700BF50EA010215
:1004600008BF704730B54FF000050AE050EA0102BE
:1004700008BF704730B511F0004502D5404261EB2E
:1004800041014FF4806404F132045FEA915C3FF46F
:10049000D8AE4FF003025FEADC0C18BF03325FEA0C
:1004A000DC0C18BF033202EBDC02C2F1200300FABD
:1004B00003FC20FA02F001FA03FE40EA0E0021FAE2
:1004C00002F11444BDE600BF70B54FF0FF0C4CF4D0
:1004D000E06C1CEA11541DBF1CEA135594EA0C0F82
:1004E00095EA0C0F00F0DEF82C4481EA030621EABD
:1004F0004C5123EA4C5350EA013518BF52EA0335F8
:1005000041F4801143F4801338D0A0FB02CE4FF0A9
:100510000005E1FB02E506F00042E0FB03E54FF0D9
:100520000006E1FB03569CF0000F18BF4EF0010ED1
:10053000A4F1FF04B6F5007F64F5407404D25FEACD
:100540004E0E6D4146EB060642EAC62141EA555180
:100550004FEAC52040EA5E504FEACE2EB4F1FD0CC2
:1005600088BFBCF5E06F1ED8BEF1004F08BF5FEA40
:10057000500E50F1000041EB045170BD06F00046F2
:1005800046EA010140EA020081EA0301B4EB5C049F
:10059000C2BFD4EB0C0541EA045170BD41F4801197
:1005A0004FF0000E013C00F3AB8014F1360FDEBFBC
:1005B000002001F0004170BDC4F10004203C35DA98
:1005C0000C341BDC04F11404C4F1200500FA05F31B
:1005D00020FA04F001FA05F240EA020001F00042BC
:1005E00021F0004110EBD37021FA04F642EB060132
:1005F0005EEA430E08BF20EAD37070BDC4F10C045C
:10060000C4F1200500FA04F320FA05F001FA04F21F
:1006100040EA020001F0004110EBD37041F100010B
:100620005EEA430E08BF20EAD37070BDC4F1200516
:1006300000FA05F24EEA020E20FA04F301FA05F27E
:1006400043EA020321FA04F001F0004121FA04F226
:1006500020EA020000EBD3705EEA430E08BF20EAF6
:10066000D37070BD94F0000F0FD101F00046400030
:1006700041EB010111F4801F08BF013CF7D041EAB2
:10068000060195F0000F18BF704703F000465200B6
:1006900043EB030313F4801F08BF013DF7D043EA87
:1006A0000603704794EA0C0F0CEA135518BF95EA3D
:1006B0000C0F0CD050EA410618BF52EA4306D1D1C4
:1006C00081EA030101F000414FF0000070BD50EAE3
:1006D000410606BF1046194652EA430619D094EA6D
:1006E0000C0F02D150EA013613D195EA0C0F05D157
:1006F00052EA03361CBF104619460AD181EA0301AB
:1007000001F0004141F0FE4141F470014FF0000062
:1007100070BD41F0FE4141F4780170BD70B54FF0FD
:10072000FF0C4CF4E06C1CEA11541DBF1CEA13557D
:1007300094EA0C0F95EA0C0F00F0A7F8A4EB05045F
:1007400081EA030E52EA03354FEA013100F0888056
:100750004FEA03334FF0805545EA131343EA12631F
:100760004FEA022245EA111545EA10654FEA0026D4
:100770000EF000419D4208BF964244F1FD0404F58D
:10078000407402D25B084FEA3202B61A65EB0305E9
:100790005B084FEA32024FF480104FF4002CB6EBA6
:1007A000020E75EB030E22BFB61A754640EA0C0026
:1007B0005B084FEA3202B6EB020E75EB030E22BF66
:1007C000B61A754640EA5C005B084FEA3202B6EBA7
:1007D000020E75EB030E22BFB61A754640EA9C0066
:1007E0005B084FEA3202B6EB020E75EB030E22BF36
:1007F000B61A754640EADC0055EA060E18D04FEAF4
:10080000051545EA16754FEA06164FEAC30343EA93
:1008100052734FEAC2025FEA1C1CC0D111F4801F60
:100820000BD141EA00014FF000004FF0004CB6E759
:1008300011F4801F04BF01430020B4F1FD0C88BFF8
:10084000BCF5E06F3FF6AFAEB5EB030C04BFB6EB03
:10085000020C5FEA500C50F1000041EB045170BDF6
:100860000EF0004E4EEA113114EB5C04C2BFD4EB23
:100870000C0541EA045170BD41F480114FF0000EA7
:10088000013C90E645EA060E8DE60CEA135594EA23
:100890000C0F08BF95EA0C0F3FF43BAF94EA0C0F26
:1008A0000AD150EA01347FF434AF95EA0C0F7FF49B
:1008B00025AF104619462CE795EA0C0F06D152EAEF
:1008C00003353FF4FDAE1046194622E750EA4106D3
:1008D00018BF52EA43067FF4C5AE50EA41047FF4E4
:1008E0000DAF52EA43057FF4EBAE12E74FF0FF3C49
:1008F00006E000BF4FF0010C02E000BF4FF0010C1A
:100900004DF804CD4FEA410C7FEA6C5C4FEA430C92
:1009100018BF7FEA6C5C1BD001B050EA410C0CBFE1
:1009200052EA430C91EA030F02BF90EA020F002043
:10093000704710F1000F91EA030F58BF994208BFAA
:1009400090422CBFD8176FEAE37040F00100704767
:100950004FEA410C7FEA6C5C02D150EA013C07D1BE
:100960004FEA430C7FEA6C5CD6D152EA033CD3D009
:100970005DF8040B704700BF8446104662468C4603
:100980001946634600E000BF01B5FFF7B7FF002836
:1009900048BF10F1000F01BD4DF808EDFFF7F4FF5F
:1009A0000CBF012000205DF808FB00BF4DF808EDEA
:1009B000FFF7EAFF34BF012000205DF808FB00BF0D
:1009C0004DF808EDFFF7E0FF94BF012000205DF82F
:1009D00008FB00BF4DF808EDFFF7CEFF94BF0120E4
:1009E00000205DF808FB00BF4DF808EDFFF7C4FFDD
:1009F00034BF012000205DF808FB00BF4FEA410230
:100A000012F5001215D211D56FF47873B3EB625260
:100A100012D94FEAC12343F0004343EA505311F087
:100A2000004F23FA02F018BF404270474FF0000019
:100A3000704750EA013005D111F0004008BF6FF057
:100A4000004070474FF00000704700BF4FEA410C74
:100A50007FEA6C5C02D150EA013C0AD14FEA430CB8
:100A60007FEA6C5C02D152EA033C02D14FF00000F5
:100A700070474FF0010070472DE9F04F85B0814677
:100A80000D4614469B460E9F0F9E9DF840A09DF874
:100A90004480D1E90023CDE90223A149D1E9000135
:100AA000FFF77AFFB8B1D5E902239D49D1E90201E8
:100AB000FFF772FF78B1D4E900239A49D1E9000128
:100AC000FFF76AFF38B1D4E902239649D1E9020160
:100AD000FFF762FFA0B9944B01221A709049DDE93B
:100AE0000223C1E90023D5E90223C1E90223D4E9A5
:100AF00000238C49C1E90023D4E90223C1E9022380
:100B0000B8F1030F0BD8DFE808F002717A83DBE954
:100B10000023D4E90001FFF71FFBCDE90001824B60
:100B20001B783BB1814BDDE90012C3E900127E4B1B
:100B300000221A70BAF1000F00F0D880DDE900AB96
:100B400052465B467949D1E90001FFF705FB0446AF
:100B500021F000450022764B50465946FFF744FFEE
:100B6000002879D00022724B20462946FFF728FF43
:100B7000002856D000226E4B20462946FFF7CEFDB6
:100B800000226C4BFFF7E8FA04460D463A4633461E
:100B9000FFF79AFC02460B4620462946FFF794FCD5
:100BA00002460B465AA1D1E90001FFF7D5FA3A46B1
:100BB0003346FFF7D3FAC9E9000155A3D3E900236F
:100BC000FFF7FEFE20B152A3D3E90023C9E90023B9
:100BD0003A463346D9E90001FFF706FF002874D0F2
:100BE0003A463346C9E9002300241FE0D4E9002334
:100BF000DBE90001FFF7B0FACDE900018FE7DBE99F
:100C00000223D4E90201FFF7A7FACDE9000186E744
:100C1000D4E90223DBE90201FFF79EFACDE90001E6
:100C20007DE73A463346C9E9002301240022424BBE
:100C300038463146FFF7CEFE00284AD000223F4B0F
:100C4000DDE90001FFF7BCFE00285BD00022002395
:100C5000C9E90023032455E006F100480022344B83
:100C6000DDE90001FFF75AFD2BA3D3E90023FFF7CD
:100C700073FA04460D4602460B4638464146FFF7D6
:100C800023FC02460B4620462946FFF71DFC3A4648
:100C90003346FFF763FAC9E900011DA3D3E9002336
:100CA000FFF78EFE20B11AA3D3E90023C9E9002380
:100CB0003A463346D9E90001FFF796FE38B13A4685
:100CC0003346C9E900230224B0E70024AEE702243A
:100CD000ACE700221A4BDDE90001FFF771FE88B195
:100CE00000220023C9E9002303240BE00022154B56
:100CF000DDE90001FFF764FE30BB3A463346C9E93F
:100D000000230124204605B0BDE8F08FAFF300803A
:100D10000000000000CCA040666666666666F23F92
:100D20000808002028080020080000209803002060
:100D300000408F400000F03F0040AF4000005440B2
:100D4000000049400000244000220023C9E900239C
:100D50000324D7E710B402EBD2735B105C4221444A
:100D6000401A824203DC90FBF2F302FB13000028DE
:100D700002DB204410BC70470028B8BF4042101A64
:100D8000F7E700001F4B9B7803F00303032B04D00D
:100D90001C4B9B7813F0010F02D11B4B01221A70E0
:100DA000194B1B78B3B1174B9B7803F00303032B4C
:100DB00010D0144B9B7813F0010F0BD0124B002274
:100DC0001A70124A136801331360152B02DD1346A3
:100DD00000221A600D4B1A780D4B5A719A71DA7114
:100DE0001A72084B9B7803F00303032B07D0054BC3
:100DF0009B7813F0020F02D0044B00221A600020EF
:100E0000704700BFCC0F002000000020040000202D
:100E100034000020254B5B7813F0040F3FD0234BA8
:100E20005B7813F0020F3AD0204B9B7813F0100F31
:100E300004D01F4A537843F0080353701B4B9B7830
:100E400013F0400F19D01A4A537843F0200353701F
:100E5000164B9B7813F0200F15D0154A537843F0AA
:100E600004035370114B5B7813F0010F11D0104A3B
:100E7000537843F01003537016E00D4A537823F073
:100E800020035370E4E70A4A537823F004035370B5
:100E9000E8E7074A537823F01003537004E0044A4C
:100EA000537803F0C303537000207047CC0F002029
:100EB00030000020002309E0590019444800054A89
:100EC000024400215180032111710133062BF3DD0F
:100ED0000020704740000020034B0020D8810322EF
:100EE0001A7498829A75704740000020F0B400246C
:100EF00007E0E300C5180B44D3E90067C5E90067C4
:100F000001349442F5DBF0BC7047000070B582B04C
:100F10000C4603287FD8DFE800F00221405F674AD3
:100F2000537B917B03EB0123D17B03EB0143127CC9
:100F300003EB0263624A15681D44002C6ED0012C3D
:100F400003D0022C06D0002669E05B421360002625
:100F5000354664E05B4B1E68AE1B60E0574A537C2D
:100F6000917C03EB0123D17C03EB0143127D03EB66
:100F70000263534A55681D44002C72D0012C03D0E3
:100F8000022C06D000264AE05B425360002635461C
:100F900045E04C4B9E68AE1B41E0484A9378D178BF
:100FA00003EB0123117903EB0143527903EB026355
:100FB000434A95681D44002C55D0012C03D0022CC7
:100FC00006D000262BE05B4293600026354626E0E3
:100FD0003C4B1E69AE1B22E0384A9379D17903EB72
:100FE0000123117A03EB0143527A03EB0263344A83
:100FF000D5681D44002C38D0012C03D0022C06D01B
:1010000000260CE05B42D3600026354607E02D4BFE
:101010009E69AE1B03E00026354600E00026022C48
:1010200025D0294B1968294A42F82010254A42F850
:1010300030501A68264BA3FB02135B09642101FBA5
:101040001323092B08D8012C06D0224B1B68022B36
:1010500025DC01331F4A1360022C2DD0284602B034
:1010600070BD0026DBE70026D9E70026D7E786EA31
:10107000E671A1EBE671144B1B68144A52F820206C
:101080009A1A4FF47A7303FB02F3994203D9124B75
:1010900053F82060C5E7104B43F82060C1E70948CA
:1010A000036982680168806900900C4806F032F993
:1010B000084B00221A60CFE73546CFE76C000020CE
:1010C00014030020D8070020C80F0020C807002004
:1010D0001F85EB51A4030020BC0500208CAA00084A
:1010E00010B50446012819D018B102282AD00020D2
:1010F0002DE04FF48051012005F0CAFF38B1144BA8
:1011000001221A7741F288325A8320461FE0104BA1
:1011100003221A7700225A83022018E004210120BA
:1011200005F0B6FF38B10A4B02221A7741F2883235
:101130005A8320460BE0064B03221A7700225A837B
:10114000022004E0024B03221A7700225A8310BDCA
:1011500040000020000000002DE9F04FE9B00646F5
:1011600008900D9115460C921C460993142240A834
:10117000FFF7BCFE1422294618A8FFF7B7FE02228B
:10118000214614A8FFF7B2FE0222729910A8FFF7B9
:10119000ADFE032E24D8DFE816F0040061008F00B6
:1011A000BD000C9BD3E900230999D1E90201FEF7A8
:1011B000D3FF04460D4600220023FFF7F7FB00286B
:1011C0003CD10022002320462946FFF70DFC0028D1
:1011D0003CD07E4B00221A7000237D4CCDE90E34AA
:1011E000089B023B5FFA83F9B9F1010F40F2C0801E
:1011F000DDE91623DDE91201FEF7AEFF054601F138
:101200000044DDE91423DDE91001FEF7A5FF0246E5
:101210000B4628462146FFF781FACDE90A014FF037
:10122000000AD046D34600230024CDE90634CDE998
:101230000434CDE90234CDE9003404E1634B0122EA
:101240001A700023624CCDE90E34C9E75F4B0222CD
:101250001A7000235E4CCDE90E34C1E70C9BD3E934
:1012600000230999D1E90201FEF776FF04460D46F5
:1012700000220023FFF79AFB70B9002200232046CA
:101280002946FFF7B1FB78B1504B01221A700023B9
:101290004F4CCDE90E34A3E74C4B00221A700023CB
:1012A0004B4CCDE90E349BE7484B02221A700023C9
:1012B000474CCDE90E3493E70D9BD3E90023099900
:1012C000D1E90001FEF748FF04460D460022002345
:1012D000FFF76CFB70B90022002320462946FFF778
:1012E00083FB78B1394B01221A700023394CCDE9C8
:1012F0000E3475E7354B00221A700023354CCDE9CA
:101300000E346DE7314B02221A700023314CCDE9C7
:101310000E3465E70D9BD3E900230999D1E900015B
:10132000FEF71AFF04460D4600220023FFF73EFB9E
:1013300070B90022002320462946FFF755FB78B1FB
:10134000224B00221A700023224CCDE90E3447E7CD
:101350001E4B01221A7000231E4CCDE90E343FE7CC
:101360001A4B02221A7000231A4CCDE90E3437E7CB
:1013700014981599DDE91623CDE91423024601F1ED
:101380000043CDE9162310981199DDE91223CDE928
:101390001023024601F10043CDE91223002212E09E
:1013A000D30068A9CC1854F8A06C54F89C5C18A918
:1013B0000B44D3E9000144E92801304605F100411E
:1013C000C3E900010132132AEADD11E7B805002064
:1013D0000000F03F0000F0BF4FEACA0668AB33449C
:1013E00053E9284522462B46DDE90001FEF7B6FE0B
:1013F000CDE9000118AB1E44C0CE32463B46DDE9C4
:101400000201FEF7ABFECDE9020122462B46204643
:101410002946FFF759F802460B46DDE90401FEF7BD
:101420009DFECDE9040132463B4620462946FFF7A2
:101430004BF802460B46DDE90601FEF78FFECDE9CB
:1014400006010AF1010ABAF1130F23DCBAF1000F09
:10145000C2DD0AF1FF3468AB03EBC40353E9282370
:1014600068A901EBCA0151E92801FFF795FA08B90B
:101470004FF0010B18AB03EBCA0103EBC404D4E932
:101480000023D1E90001FFF787FA0028A4D14FF02B
:101490000108A1E7B9F1010F40F2A3800C9BD3E949
:1014A00000230999D1E90201FEF756FE099021F0C7
:1014B000004ABBF1000F03D1B8F1000F00F0AA8081
:1014C0000022774BDDE90001FFF728F906460F46B9
:1014D0000022734BDDE90201FFF720F9CDE900019D
:1014E00000226F4BDDE90401FFF718F980468946B9
:1014F00000226B4BDDE90601FFF710F904460D46AB
:10150000DDE9002330463946FEF7DEFF02460B4692
:1015100020462946FEF720FE054601F100443246EA
:101520003B4630463946FEF7CFFF02460B46404663
:101530004946FEF711FE02460B4628462146FFF7B4
:10154000EDF804460D4602460B46DDE90A894046A1
:101550004946FEF7B9FF0022524BFEF7FFFD024657
:101560000B46FEF7B1FF06460F4642464B46404645
:101570004946FEF7A9FF00224A4BFEF7EFFD8046E1
:10158000894622462B4620462946FEF79DFF00222B
:10159000444BFEF7E3FD02460B4640464946FEF744
:1015A00093FF02460B4630463946FFF7B7F807F07F
:1015B000F9FB07F045FB06460F4637A3D3E90023A6
:1015C000DDE90E01FEF780FF32463B46FEF77CFF69
:1015D00007460E46089B032B31D8DFE803F0292984
:1015E0004A4A099BD3E900670D9BD3E900450022D5
:1015F00000230C99D1E90001FEF766FF22462B4635
:10160000FEF7AAFD32463B46FEF7A8FD099021F001
:10161000004A4EE70320244B1870002200237399E0
:10162000C1E90023099A53467499C1E9002312E0E5
:101630000022002320462946FFF7B8F970B93A4640
:1016400033467399C1E90023099A53467499C1E955
:101650000023154B187869B0BDE8F08F00220023F5
:1016600038463146FFF798F90028E8D106F10046E0
:10167000E5E70022002320462946FFF7B5F90028B8
:10168000DDD00022002338463146FFF785F90028D7
:10169000D5D106F10046D2E7F8C1631ADCA54C406B
:1016A000000034400000F03FB805002000000000BA
:1016B0002DE9F04FDDB083468A46CDE90423689CCE
:1016C0009DF8A461002011E000EB4002D300234408
:1016D000D3E90089C2005CA9114441E92C89D3E90E
:1016E000028908AB1344C3E9008901301328EBDDFC
:1016F00058AB02935AAB0193679B0093669B08AA71
:1017000030A93046FFF728FD0746D4E904015AAB5B
:10171000C3E90001AE4B1A68AE4BA3FB02435B0961
:10172000642404FB1323092B05D9032E31D8DFE8E9
:1017300006F01849617807F0EDF904460D4658ABFC
:10174000D3E9000107F0E6F9FFF758F98046204693
:101750002946FFF753F9424601469F4805F0DAFD56
:10176000E3E7DDE908236699D1E90201FEF7F4FC1D
:1017700004460D4600220023FFF718F9002867D120
:101780000022002320462946FFF72EF9002861D0C9
:10179000002758ABD3E900450022904B204629464C
:1017A000FFF722F9002800F05F81012F00F0B880D8
:1017B000002F5DD0022F00F01D8100242646A04698
:1017C00025466CE1DDE908236699D1E90201FEF7BF
:1017D000C3FC04460D4600220023FFF7E7F800286B
:1017E0003AD10022002320462946FFF7FDF8A8B38E
:1017F0000127CEE7DDE930236699D1E90001FEF744
:10180000ABFC04460D4600220023FFF7CFF838BB9F
:101810000022002320462946FFF7E6F810B30127EF
:10182000B7E7DDE930236699D1E90001FEF794FCC2
:1018300004460D4600220023FFF7B8F8A0B90022A5
:10184000002320462946FFF7CFF878B10027A0E70C
:1018500001279EE702279CE700279AE7022798E7DF
:10186000002796E7022794E7012792E7022790E7EF
:1018700022462B4620462946FEF770FC80468946C4
:101880000022574BFFF79CF878B90022554B404691
:101890004946FFF79FF870BB0022534B204629466C
:1018A000FEF712FE80460D4602E04FF000084F4D55
:1018B0005AAB18CB1846214600220023CDE9060179
:1018C000FFF792F868B10022494BDDE90601FEF707
:1018D000FBFD02460B4640462946FEF73FFC80468C
:1018E0000D4600220023DDE90601FFF75FF830B95D
:1018F00000242646D3E04FF000083A4DD8E70022F6
:101900003B4BDDE90601FEF7DFFD02460B46404694
:101910002946FEF721FC80460D4600242646BEE0FF
:1019200022462B4620462946FEF718FC804689466B
:1019300000222B4BFFF744F878B90022294B404690
:101940004946FFF747F880BB0022274B204629462F
:10195000FEF7BAFD04460E4601E00024234E5AABC2
:10196000D3E900890022002340464946FFF71EF8CC
:10197000F0B90022002340464946FFF735F8002819
:1019800000F0F68000221A4B40464946FEF79CFDC7
:10199000024621F0004320463146FEF7DDFB0446B7
:1019A0000E464FF00008454679E000240D4ED6E77C
:1019B00000220F4B40464946FEF786FD024621F0C5
:1019C000004320463146FEF7C9FB04460E46D0E7E9
:1019D000C80F00201F85EB516CAB000800001440BD
:1019E0000000594000C082400000084000C0624032
:1019F00000405F405AABD3E9004500220023204657
:101A00002946FEF7F1FF80B16DA3D3E900232046FC
:101A10002946FEF759FD6CA3D3E90023FEF79EFB90
:101A200080460D460024264639E000220023204649
:101A30002946FEF7BBFF20B900242646A0462546CE
:101A40002DE05FA3D3E9002320462946FEF73CFDA5
:101A50005DA3D3E90023FEF781FB044621F0004695
:101A60004FF0000845461AE05AABD3E90045002282
:101A7000002320462946FEF7B7FF002859D050A37F
:101A8000D3E9002320462946FEF71EFD4EA3D3E9E5
:101A90000023FEF763FB80460D4600242646002205
:101AA0004B4B404625F00041FEF79EFF50B100220F
:101AB000002340462946FEF797FF00285CD04FF0F0
:101AC0000008434D0022424B204626F00041FEF71D
:101AD0008BFF48B10022002320463146FEF784FFE9
:101AE00000284DD000243A4E00223A4BDDE9040193
:101AF000FEF714FECDE9040142462B46FEF7E4FC56
:101B0000CBE9000122463346DDE90401FEF7DCFCA7
:101B1000CAE90001304B1A68304BA3FB02135B0982
:101B2000642101FB1323092B2DD900205DB0BDE8F2
:101B3000F08F0022002320462946FEF737FF20B908
:101B400000242646A0462546A9E71DA3D3E9002385
:101B500020462946FEF7B8FC1BA3D3E90023FEF775
:101B6000FDFA044621F000464FF00008454696E78E
:101B70004FF00008454692E74FF00008184DA1E7E6
:101B80000024174EB0E75AABD3E9000106F0C2FFBC
:101B90008046894658ABD3E9000106F0BBFFFEF74B
:101BA0002DFF044640464946FEF728FF3B462246A5
:101BB00001460C4805F0AEFBB7E700BFAFF300806D
:101BC0000000000000C062400000000000C0524061
:101BD00000908A4000408F40C80F00201F85EB51C5
:101BE00000908AC08CAB000810B50221002005F0DF
:101BF0004FFA40B1084B00241C8103229A7205F071
:101C000051FD204610BD044B4FF461721A81012230
:101C10009A724FF0FF30F5E74000002010B5012127
:101C2000002005F035FA40B1084B00245C80032207
:101C30001A7105F031FD204610BD044B4FF461725E
:101C40005A8001221A714FF0FF30F5E74000002062
:101C50002DE9F04FB9B082460F46A94C48222146E3
:101C600026A808F085FE902204F1480102A808F099
:101C70007FFE00240094019400E00134082C1EDC57
:101C80009BA3D3E9002338A901EBC40555E936012C
:101C9000FEF71AFC45E93601022CEEDD00209949D9
:101CA00038AB03EBC40343E9360104F1090338AA56
:101CB00002EBC3030020944943E93601DDE71FB975
:101CC00002230193009CBDE0012F06D0022FF9D121
:101CD0000123009302230193F4E701230193F1E729
:101CE00005F0CEFC0646B6E005F0D0FC0646B2E0B4
:101CF000002DB8BF6D42C5F50065C2E004EBC4031A
:101D00001A440CEBC20252E9368900284EDD4046E7
:101D1000494606F0FFFEFEF771FE04EB44035A004D
:101D20007A4B134458800022002340464946FEF770
:101D300033FE80B304EB44035A00744B1344032274
:101D40001A71734B01221A55002F58D1704B1B7812
:101D5000002B66D06E4B5B78002B40F099804FF0E3
:101D6000000B60E00132082ACFDC80EAE071A1EBD1
:101D7000E07104EBC40313440DF1E00C0CEB83039E
:101D800053F8483C9942B9DA082AEBD14FF00008E1
:101D90004FF00009E6E704EB44035A005B4B1344A1
:101DA00001221A715A4B00221A55CDE74046494686
:101DB00006F0B0FEFEF722FE04EB44035A00534B3C
:101DC000134458800022002340464946FEF7E4FDB4
:101DD00050B104EB44035A004C4B134403221A71D4
:101DE0004B4B01221A55AFE704EB44035A00474B13
:101DF000134402221A71464B00221A55A4E7012F00
:101E000008D0022F0FD1424B5B78002B46D04FF009
:101E1000010B08E03E4B1B78002B3CD04FF0010B30
:101E200001E04FF0000B3B4B1A683B4BA3FB021346
:101E30005B09642101FB1323092B02D88CB3012C0D
:101E400040D00134019BA3424DDD002C3FF448AF4C
:101E5000012C3FF449AF7342C6F30A05C3F30A03EA
:101E600058BF5D425046FEF7C5FA23A3D3E90023CD
:101E7000FEF72AFB06F04EFEFEF7C0FD002DFFF632
:101E800037AF4FF400622946FEF764FF00226AE78D
:101E90004FF0010BC7E74FF0000BC4E74FF0000B0A
:101EA000C1E72846FEF7A6FA00221C4BFEF70CFB02
:101EB00006F030FEFEF7A2FD52460146184805F036
:101EC00029FABEE72846FEF795FA0022134BFEF7E3
:101ED000FBFA06F01FFEFEF791FD5246014611483F
:101EE00005F018FAADE7584639B0BDE8F08F00BFED
:101EF000713D0AD7A370ED3F176CC1166CC1164037
:101F0000A0A9000800B08D4000208C4040000020B7
:101F1000AC030020C80F00201F85EB510080C63F96
:101F2000FCAB000818AC00082DE970430024012C1C
:101F30006FDC3D4D284605F048FE0646284605F074
:101F400033FE74B1012C67D1404203255EB9374A94
:101F50006B00581941001144002008714880013479
:101F6000E5E70225F2E7002E35DD1CB1012C2AD071
:101F700001204FE005EB45035A002C4B134401228E
:101F80001A71002EB8BF76429C2303FB06F603FBB2
:101F900000F0FEF72FFA22A3D3E90023FEF794FA0C
:101FA000804689463046FEF725FA42464B46FEF704
:101FB000D5F8FEF723FD42F20F73984220DC00288B
:101FC00020DA00201EE005EB45035A00174B1344AE
:101FD00002221A71D5E71CB1012C09D0012019E0A9
:101FE00005EB45035A00114B134402221A71C8E74E
:101FF00005EB45035A000D4B134401221A71C0E74B
:1020000042F20F7005EB45056A00084B13445880F7
:10201000A5E70020BDE870830120FBE7AFF3008057
:102020009A9999999999D93FCC0F002040000020A6
:102030002DE9F04FA1B001294FD01E460446002AD9
:1020400071D1B74B1B78002B34D1B64B9EA1D1E98F
:102050000001C3E900019EA1D1E90001C3E9020129
:102060009DA1D1E90001C3E904019DA1D1E90001CD
:10207000C3E906010026AC4FC3E908670020002130
:10208000C3E90A01C3E90C67C3E90E0196A1D1E9CE
:102090000001C3E9100196A1D1E90001C3E91201D1
:1020A00095A7D7E90067C3E91467C3E916019C4BFC
:1020B00001221A70002544E0CA008318002400257C
:1020C000C3E90045994B1344C3E900450131022996
:1020D000F2DD002021B0BDE8F08F0021F7E7D7E95D
:1020E0000001924B03EBC503C3E900010135022D4A
:1020F000EFDC735D002BF9D0EB002A9AD71823444C
:10210000D7E90001C3E90001012DE8D87CA3D3E998
:102110000023D7E90001FEF7D7F9844B03EBC50391
:10212000C3E90001E2E70025E1E702212846FEF7C6
:10213000EDFEFEF75FF920AB03EBC50343E91A019F
:102140000135032DF1DD00271CE005EB8703754900
:1021500001EBC30120AB03EBC50353E91A23D1E91B
:102160000001FEF7B1F902460B4620A901EBC706B4
:1021700056E90601FDF7F2FF46E906010135032D98
:10218000E3DD0137022F08DC0020002120AB03EB48
:10219000C70343E906010025F1E7644BD3E904676F
:1021A000DDE91E2330463946FDF7D8FFCDE9180199
:1021B00055A3D3E9002330463946FEF785F954A3E9
:1021C000D3E90023FEF780F953A3D3E9002306F0F7
:1021D00089FD814688464EA3D3E90023484628F06E
:1021E0000041FEF7F7FB80B100220023484641463C
:1021F000FEF7F0FB00285CD047A3D3E90023484654
:102200004146FDF7A9FF81468846484DD5E900675C
:10221000DDE91AAB4846414606F030FCCDE9000145
:1022200002460B4650465946FEF74EF902460B460B
:1022300030463946FDF792FFCDE90401DDE91C6720
:102240004846414606F0B4FC02460B46CDE902235F
:1022500030463946FEF738F902460B46DDE90401FF
:10226000FDF77CFFCDE91401D5E90289DDE9022300
:1022700050465946FEF728F902460B464046494665
:10228000FDF76AFF8046894632463B46DDE900019C
:10229000FEF71AF902460B4640464946FDF75EFF37
:1022A000CDE91601032214A92846FEF71FFE0025DA
:1022B0004BE019A3D3E9002348464146FDF74EFF02
:1022C00081468846A1E700BF0A5D4647DB93ACBF65
:1022D0007362E6D02773E1BF0A5D4647DB93AC3FEC
:1022E0001A3B335EB019DD3FCD7E4F03344AD33FF6
:1022F0004A1B3DA0F550CF3FCD7E4F03344AD3BF9C
:1023000004B6B7E795294B40682FA1BD84F6F23E8D
:10231000182D4454FB210940182D4454FB21194029
:10232000A2030020280300200000E0BFB007002027
:1023300020AB03EBC50638A3D3E9002356E90C0113
:10234000FEF7C2F846E912010135012DF0DD34A394
:10235000D3E90023DDE91801FEF7B6F8CDE9120153
:102360000022314B06F0BEFC06460D4602460B46E7
:10237000CDE9122300222D4B304625F00041FEF717
:1023800029FB78B10022002330462946FEF722FBC4
:10239000002835D00022244B30462946FDF7DCFECC
:1023A000CDE9120103220EA92046FEF79FFD204B26
:1023B0001A68204BA3FB02135B09642101FB132362
:1023C000092B3FF686AED4E90067D4E902890022E2
:1023D000194BD4E90401FEF777F8FEF70FFB054629
:1023E00040464946FEF70AFB044630463946FEF7AA
:1023F00005FB2B4622460146104804F08BFF68E699
:102400000022094B30462946FDF7A8FECDE912010E
:10241000C8E700BFAFF30080D221337F7CD9923F61
:10242000ABAAAAAAAAAA6A3F0080764000806640AA
:10243000C80F00201F85EB5100005940D0AB0008A9
:1024400030B591B005460C4600220023CDE90A23A1
:10245000CDE90C23CDE90E23CDE90423CDE90623F4
:10246000CDE9082304AB009303AB002211460AA870
:10247000FFF7DEFD012C11D000231EE002EB42012C
:10248000CB002B4400200021C3E90001C3E9020175
:10249000C3E904010132132AF0DD15E00022FAE756
:1024A0005C1C04EB4402D00003EB4303D90003227D
:1024B00029442844FEF71AFD2346122BF0DD03229F
:1024C0000AA92846FEF712FD002011B030BD000019
:1024D0002DE9F04F8DB082468B46CDE90423D0E93B
:1024E000004522462B467449D1E90001FEF754FA13
:1024F000B8B1DAE902237049D1E90201FEF74CFADA
:1025000078B1DBE900236D49D1E90001FEF744FA17
:1025100038B1DBE902236949D1E90201FEF73CFA4F
:1025200058BB674B01221A70634BC3E90045DAE9D7
:102530000289C3E90289DBE90001604BC3E90001BC
:10254000DBE90267C3E9026722462B46FDF704FE7A
:1025500004460D4600220023FEF71EFAF0B1424663
:102560004B4630463946FDF7F7FD00220023FEF7C3
:1025700031FA78B1534B02221A70514B1B78002B61
:1025800000F091804F4B1B78032B28D8DFE803F035
:10259000556C21404B4B03221A70EEE742464B46E6
:1025A00030463946FDF7D8FD00220023FEF7F4F946
:1025B0000028E2D00022002320462946FEF70AFA2E
:1025C00018B1404B00221A70D7E73E4B01221A7017
:1025D000D3E73D4B1B786BB13B4B5B788BB13A4BF0
:1025E0001B78012B40F03A81374B5B78012B52D09E
:1025F000042413E10121B420FFF72AFB324B1870A9
:10260000EAE70221AF20FFF723FB2F4B5870E6E7E4
:102610002D4B1B7853B12C4B5B78002BDFD1022163
:10262000AF20FFF715FB284B5870D8E70121B420E5
:10263000FFF70EFB244B1870EDE7234B1B785BB1C3
:10264000214B5B78002BCAD1022140F20910FFF721
:10265000FFFA1D4B5870C2E701214FF48770FFF756
:10266000F7FA194B1870EBE7174B1B785BB1164B59
:102670005B78002BB3D1022140F20910FFF7E8FA92
:10268000114B5870ABE701214FF48770FFF7E0FA68
:102690000D4B1870EBE70023094A13700A4A1370B8
:1026A00053700424BAE0074B1B78032B16D8DFE8DD
:1026B00003F0828D0D7900BFF80700201808002074
:1026C000A0030020A8030020440800200121B3201B
:1026D000FFF7BEFA0221B020FFF7BAFA624D0021DF
:1026E0002846FFF7ADFE614E337803939DF85830CE
:1026F0000293DDE90434CDE900342B465A465146B5
:102700000AA8FEF7B9F90446337803930295CDF889
:1027100004B0CDF800A0DDE90A2306A908A8FEF759
:10272000C7FFDDE90A89DDE9082340464946FDF790
:1027300015FD06460F46DDE9062340464946FDF7EE
:102740000DFD804689460022002330463946FEF7BB
:102750002DF9002845D10022002340464946FEF7C6
:1027600025F9002840D13EA3D3E90023304639465D
:10277000FEF73AF910B13AA7D7E9006738A3D3E9D1
:10278000002340464946FEF72FF918B10FF2D00951
:10279000D9E90089354B1B78032B3DD8DFE803F0DE
:1027A000422929420121B420FFF752FA0221AF2029
:1027B000FFF74EFA92E701214FF48770FFF748FACE
:1027C000022140F20910FFF743FA87E701214FF495
:1027D0008770FFF73DFA022140F20910FFF738FA3F
:1027E0007CE700260027B6E74FF000084FF000090D
:1027F000B9E71F4D01232B740223AB7530463946D0
:1028000006F088F9FEF7FAF8E8814046494606F0F6
:1028100081F9FEF7F3F8A882032C17D020460DB0FB
:10282000BDE8F08F124D02232B740123AB75404697
:10283000494606F06FF9FEF7E1F8E881304639467F
:1028400006F068F9FEF7DAF8A882E5E7084B0022FF
:10285000DA819A8203221A749A75DFE70424DDE78D
:10286000000000008087C340D8030020A803002098
:102870004000002008B501F0A5FA002008BD0000C6
:10288000F0B58BB0954B9B7813F0400F02D1944B71
:1028900001221A70914B9A785A789B7813F0100F96
:1028A00002D1904B01221A708C4B9B7803F00303EA
:1028B000032B01D0894B9B78884B9B7803F0030353
:1028C000032B01D0854B9B78844B9B7803F00C0342
:1028D0000C2B04D0814B9B7813F0040F02D1824B58
:1028E00001221A707D4B9B7803F00C030C2B04D053
:1028F0007A4B9B7813F0080F02D17C4B01221A709F
:10290000764B5A785A785A785A789B7803F00C03A9
:102910000C2B11D0714B9B7813F0040F0CD0724B21
:102920001B784BB1724B1B78032B26D00133704AB6
:1029300013706D4B00221A70684B9B7803F00C03E8
:102940000C2B10D0654B9B7813F0080F0BD0674B06
:102950001B7843B1664B1B789BB9654B03221A70F9
:10296000624B00221A70624B1B78032B0FD8DFE8F2
:1029700013F0E00731000C002E005D4B00221A70AE
:10298000D7E7013B5A4A1370EAE7FEF793FA584B30
:102990001B78012B41F06581504B5B7813F0080FD9
:1029A00005D04E4B5B7813F0020F41F06781514B1D
:1029B0001A68514BA3FB02135B09642101FB13232B
:1029C000092B41F27881002318460BB0F0BDFEF7C9
:1029D00071FADCE7414B5B7813F0080F04D03F4BF2
:1029E0005B7813F0020F5DD13C4B9B7813F0400FE6
:1029F00000F09C803A4B1B78002B00F097803F4BF7
:102A000001221A6000233E4A13603E4A13603E4A88
:102A100013603E4A13603E4A1360304B9B7813F0BC
:102A2000200F13D000233B4A13603B4A13603B4AFC
:102A300001211170314A1360314A1360314A136029
:102A4000314A1360314A1360314A13602B4B1B68C3
:102A50007BB92B4B1B6863B92A4B1B684BB92A4BBC
:102A60001B6833B9294B1B681BB9294B1B68002B0A
:102A700076D0264B1B68002B00F01181284B1D6877
:102A80000C2D00F20C81DFE815F07A00B5005C0136
:102A9000D701180258029E020C034C039203D30381
:102AA0003904830401210020FEF730FA0121084691
:102AB000FEF72CFA01210220FEF728FA012103205B
:102AC000FEF724FA1748009009AB00220121FFF716
:102AD000AFFA01211448FFF7B3FC85E7CC0F0020C3
:102AE000880300207808002038080020A103002077
:102AF0000A000020C80F00201F85EB513C08002071
:102B0000680800206C08002070080020740800206D
:102B100040080020B80300208C030020090000209A
:102B2000B0030020C0030020D0050020984B9B7804
:102B300013F0100F3FF471AF964B1B78002B3FF44E
:102B40006CAF0023944A1360944A1360944A136054
:102B5000944A1360944A01211160944A13605CE71F
:102B60000025934B1D60934B1D608B4B1D60924B5A
:102B700001221A70FEF79EF9904B1D6079E78E4B8B
:102B80001B78ABB90123019300937BA3D3E9002306
:102B90008B498C48FFF79CFC8B4B187003287ED127
:102BA000854B01221A70854A13680133136076E061
:102BB0008648009009AB00221146FFF739FA814997
:102BC00000220023C1E90023C1E902237C49C1E9B5
:102BD00000236BA3D3E90023C1E9022304E07C4B6B
:102BE0002B4403225A700135072DF8DD724B002269
:102BF0001A70C7E7704B1B78E3B96E4A136801334C
:102C00001360952B3BDDF92B5CDDB3F5AF7F41DA2B
:102C10000121F020FFF71CF80221EB20FFF718F844
:102C20006C4B02221A7401229A7540F6AC52DA817A
:102C30009A822FE0654D009509AB00221146284687
:102C4000FFF7F6F95F4B00200021C3E90001D5E949
:102C50000201C3E902015A4B00265F4FC3E9006736
:102C6000C3E90201002304E0594A1A4402215170C9
:102C70000133072BF8DD504B00221A70BDE701230A
:102C8000019300930022544B4D494E48FFF720FC1E
:102C90004D4B1870474B1B68B3F5AF7F26DA3E4BA0
:102CA0001B68002B3FF473AE444B1D68062D3FF6A6
:102CB0006EAEDFE815F0AC03E903AE04F6043805A8
:102CC0007A05EC0501214FF49670FEF7C1FF022151
:102CD00040F22710FEF7BCFF3E4B02221A7401227D
:102CE0009A7540F6AC52DA819A82D3E7364B0422C9
:102CF0001A7000262F4B1E60FEF7EEF801258DF8A6
:102D000024508DF825508DF826500022334BCDE904
:102D100002231BA3D3E90023CDE9042300220023CF
:102D2000CDE9062302AB009309AB2A46314627487A
:102D3000FFF77EF9204B1D70204A13682B44136067
:102D4000ADE71D4B1B78002B4AD101230193009363
:102D50000DA3D3E900231A491A48FFF7B9FB1A4B10
:102D6000187003289BD1144B01221A70134A136860
:102D70000133136093E700BF000000000094B140EE
:102D80000000000000E8AC40000000000070A74018
:102D9000CC0F0020780800203C08002068080020A4
:102DA0006C080020700800207408002040080020F3
:102DB000B80300208C03002009000020B00300208D
:102DC00058080020480800200B000020C003002005
:102DD000340000204000002000409F400000694077
:102DE000A14D009509AB002211462846FFF720F9B6
:102DF0009E4A537843F0080353709D4B8EA1D1E94E
:102E00000001C3E90001D5E90201C3E90201994BC0
:102E10008BA7D7E90067C3E90067C3E90201002374
:102E200004E0954A1A44042151700133072BF8DD60
:102E3000924B00221A7088E7904B1B78B3B901239C
:102E40000193009380A3D3E900238A498848FFF7C0
:102E50003FFB8B4B187003287FF421AF874B012277
:102E60001A70884A13680133136018E77E4D009585
:102E700009AB002211462846FFF7DAF8D5E9000130
:102E80007B4BC3E9000172A7D7E90067C3E902677A
:102E9000784BC3E9000170A1D1E90001C3E9020147
:102EA000002304E0744A1A44052151700133072BB2
:102EB000F8DD724B00221A70C1E7704B1B78ABB97A
:102EC00001230193009300226F4B6A496848FFF782
:102ED000FFFA6B4B187003287FF4E1AE674B0122B9
:102EE0001A70684A136801331360D8E65E4D009586
:102EF00009AB002211462846FFF79AF8D5E90001F0
:102F00005B4BC3E9000154A7D7E90067C3E9026737
:102F1000584BC3E900014EA1D1E90001C3E9020108
:102F2000002304E0544A1A44062151700133072B50
:102F3000F8DD524B00221A70C2E7504B1B78B3B930
:102F400001230193009340A3D3E900234949484852
:102F5000FFF7BEFA4A4B187003287FF4A0AE474B28
:102F600001221A70474A13680133136097E63E4DF9
:102F7000009509AB002211462846FFF759F83B4A55
:102F8000537843F008035370394B2DA1D1E9000168
:102F9000C3E90001D5E90201C3E90201354B30A7BD
:102FA000D7E90067C3E90067C3E90201002304E031
:102FB000314A1A44042151700133072BF8DD2F4B9D
:102FC00000221A70BCE72D4B1B78B3B90123019383
:102FD00000931DA3D3E9002326492548FFF778FA7B
:102FE000274B187003287FF45AAE244B01221A7025
:102FF000244A13680133136051E61B4D009509AB59
:10300000002211462846FFF713F8D5E90001184BB6
:10301000C3E900010EA7D7E90067C3E90267154BB2
:10302000C3E900010CA1D1E90001C3E902010023B9
:1030300031E000BFAFF300800000000000C06C4032
:103040000000000000589BC0000000000070A74076
:103050000000000000E8AC400000000000FEB040AE
:103060000000000000ECA3C0C003002030000020DE
:1030700048080020580800203400002009000020E3
:103080000B000020B003002000409F40924A1A44E9
:10309000052151700133072BF8DD904B00221A7087
:1030A00094E78E4B1B78ABB9012301930093002268
:1030B0008B4B8C498C48FFF70BFA8C4B187003280C
:1030C0007FF4EDAD854B01221A70894A13680133F4
:1030D0001360E4E5874D009509AB002211462846B0
:1030E000FEF7A6FFD5E900017F4BC3E9000170A7F9
:1030F000D7E90067C3E902677A4BC3E900016EA113
:10310000D1E90001C3E90201002304E0724A1A4434
:10311000062151700133072BF8DD704B00221A7025
:10312000C2E76E4B1B78B3B901230193009364A3EC
:10313000D3E900236B496C48FFF7CAF96B4B187051
:1031400003287FF4ACAD654B01221A70684A1368FE
:1031500001331360A3E5674D009509AB00221146CA
:103160002846FEF765FF644A537843F0080353701E
:103170005D4B55A1D1E90001C3E90001D5E9020188
:10318000C3E90201574B52A7D7E90067C3E90067BB
:10319000C3E90201002304E04F4A1A44042151709C
:1031A0000133072BF8DD4D4B00221A70BCE74B4B67
:1031B0001B78B3B901230193009341A3D3E9002302
:1031C00048494948FFF784F9484B187003287FF4B1
:1031D00066AD424B01221A70454A136801331360F1
:1031E0005DE5444D009509AB002211462846FEF7E7
:1031F0001FFFD5E900013C4BC3E900012EA7D7E929
:103200000067C3E90267374BC3E9000128A1D1E990
:103210000001C3E90201002304E02F4A1A440521FA
:1032200051700133072BF8DD2C4B00221A70C1E7D7
:103230002A4B1B78ABB90123019300930022284B42
:1032400028492948FFF744F9284B187003287FF4D0
:1032500026AD224B01221A70254A136801331360F0
:103260001DE5244D009509AB002211462846FEF7C6
:10327000DFFED5E900011C4BC3E900010CA7D7E92B
:103280000067C3E90267174BC3E900010AA1D1E94E
:103290000001C3E90201002304E00F4A1A44062199
:1032A00051700133072BF8DD0C4B00221A70C2E776
:1032B0000000000000FEB0400000000000E8AC404C
:1032C000000000000070A7400000000000ECA3C058
:1032D000000000000064A9C03400002009000020A4
:1032E00000409F4058080020480800200B000020A4
:1032F000B0030020C003002030000020904B1B785A
:10330000002B2ED08F4A136801331360632B7FF795
:10331000C6AC8D4D009509AB002211462846FEF73C
:1033200087FE8A4B7CA1D1E90001C3E90001D5E900
:103330000201C3E90201864B00260027C3E90067AA
:10334000C3E90201002304E0824A1A440F215170AC
:103350000133072BF8DD00237A4A1360784A137093
:103360009DE40123019300936DA3D3E900237849E1
:103370007648FFF7ADF8784B187003287FF48FACD0
:103380006F4B01221A70754A13680133136086E48B
:103390006B4B1B78ABB90123019300930022704B58
:1033A0006B496A48FFF794F86B4B187003287FF459
:1033B00076AC634B01221A70684A136801331360BC
:1033C0006DE4614D009509AB002211462846FEF7D9
:1033D0002FFED5E900015D4BC3E9000152A7D7E9F3
:1033E0000067C3E902675A4BC3E9000100200021CE
:1033F000C3E90201002304E0564A1A440E21517029
:103400000133072BF8DD4E4B00221A70C3E74C4BFB
:103410001B78BBB901230193009345A3D3E9002393
:103420004B494A48FFF754F84B4B187003287FF478
:10343000AEAA434B01221A70484A13680133136045
:10344000FFF7A5BA4048009009AB00221146FEF7ED
:10345000EFFD3E4900220023C1E90023C1E9022318
:103460003B49C1E9002334A3D3E90023C1E9022386
:1034700004E0384B2B4403225A700135072DF8DD48
:103480002F4B00221A70C5E72D4B1B78EBB9354A3C
:10349000136801331360952B6ADDF92B40F3A58087
:1034A000B3F5AF7F6FDA0121F020FEF7D1FB0221E7
:1034B000EB20FEF7CDFB2C4B02221A7401229A75E9
:1034C00040F6AC52DA819A825DE01F4D009509AB5F
:1034D000002211462846FEF7ABFD1C4B00200021C0
:1034E000C3E90001D5E90201C3E90201184B002636
:1034F0001E4FC3E90067C3E90201002304E0154A37
:103500001A44022151700133072BF8DD0C4B0022C5
:103510001A70BCE7AFF30080000000000064A9C08F
:10352000000000000070A7400000000000E8AC4070
:10353000000000000094B140000000000044B640CC
:1035400009000020B8030020C00300204808002024
:1035500058080020340000200B000020B003002099
:103560000040AF408C0300204000002000409F40FE
:103570000123019300930022A54BA649A648FEF71C
:10358000A7FFA64B1870A64B1B68B3F5AF7FFFF6DD
:10359000FEA9A24B04221A700026A14B1E60FDF763
:1035A0009BFC01258DF824508DF825508DF8265070
:1035B00000229C4BCDE902238BA3D3E90023CDE964
:1035C000042300220023CDE9062302AB009309ABBC
:1035D0002A4631469448FEF72BFD944B1D70944AC1
:1035E00013682B441360FFF7D2B901214FF4967092
:1035F000FEF72EFB022140F22710FEF729FB8D4B30
:1036000002221A7401229A7540F6AC52DA819A822B
:10361000B9E7864B1B78C3B90123019300230093BC
:1036200073A3D3E900237B497B48FEF751FF7B4B13
:10363000187003287FF4ABA97C4B01221A707C4AD6
:10364000136801331360FFF7A2B9774D009509ABFA
:10365000002211462846FEF7EBFC774A537843F0E8
:10366000080353706C4B64A1D1E90001C3E9000168
:10367000D5E90201C3E90201664B61A7D7E90067FA
:10368000C3E90067C3E90201002304E06B4A1A445E
:10369000042151700133072BF8DD644B00221A70AE
:1036A000BAE7624B1B78BBB901230193009350A387
:1036B000D3E9002357495848FEF70AFF574B1870C3
:1036C00003287FF464A9594B01221A70584A1368E1
:1036D00001331360FFF75BB9534D009509AB00222E
:1036E00011462846FEF7A4FCD5E900014A4BC3E980
:1036F00000013DA7D7E90067C3E90267454BC3E96D
:10370000000141A1D1E90001C3E90201002304E065
:103710004A4A1A44052151700133072BF8DD434B07
:1037200000221A70C0E7414B1B78BBB901230193FB
:1037300000932FA3D3E9002336493748FEF7C8FE8C
:10374000364B187003287FF422A9384B01221A70D7
:10375000374A136801331360FFF719B9324D0095EA
:1037600009AB002211462846FEF762FCD5E90001AC
:10377000294BC3E9000124A7D7E90067C3E9026721
:10378000244BC3E9000118A1D1E90001C3E90201FA
:10379000002304E0294A1A44062151700133072B03
:1037A000F8DD224B00221A70C0E7204B1B78002B5B
:1037B00046D10123019300930DA3D3E900231549BA
:1037C0001548FEF785FE154B187003287FF4DFA817
:1037D000164B01221A70164A136801331360FFF763
:1037E000D6B800BFAFF30080000000000044B64030
:1037F000000000000070A7400000000000C06C4006
:103800000000000000589BC0000000000038B840D5
:1038100000409F4058080020480800200B0000206E
:103820008C03002000006940C00300200900002034
:10383000B0030020400000203000002034000020B1
:10384000A74D009509AB002211462846FEF7F0FB74
:10385000D5E90001A34BC3E9000195A7D7E90067AB
:10386000C3E90267A04BC3E9000193A1D1E90001BC
:10387000C3E90201002304E09C4A1A440E2151705E
:103880000133072BF8DD9A4B00221A7091E7984B11
:103890001B78002B34D0974A136801331360632BD5
:1038A0007FF775A88E4D009509AB0022114628467A
:1038B000FEF7BEFB8B4E82A3D3E90023C6E90023AB
:1038C00000228D4BD5E90201FCF748FCC6E9020154
:1038D000854B7DA7D7E90067C3E90067C3E902010B
:1038E000002304E0814A1A440F2151700133072B51
:1038F000F8DD00237F4A13607D4A1370FFF747B855
:10390000012301930023009371A3D3E90023764997
:103910007448FEF7DDFD794B187003287FF437A853
:10392000734B01221A70764A136801331360FFF754
:103930002EB8744C204604F059F980EAE075A5EBE6
:10394000E075204604F052F90028B8BF404200FB61
:1039500005F5204604F05BF980EAE076A6EBE07618
:10396000204604F054F90028B8BF404200FB06503E
:10397000FCF740FD05F016FA0022634BFDF716F840
:1039800000282BD0614B1C68604B1C60604B1B787F
:10399000002B72D05F4B1B78002B76D05D4B1B78D1
:1039A0001BB15B4B1B78002B77D1FEF7BDFA0346AA
:1039B00000287FF409A8534B5B7813F0080F00F040
:1039C000AD80504B5B7813F0100F00F0A780524B86
:1039D000032283F8222000221A84ABE0494804F035
:1039E00005F900281EDB474C204604F010F9FCF7CF
:1039F00001FD06460F46204604F0F8F8FCF7FAFCF5
:103A000002460B4630463946FCF788FE04F0A8FE15
:103A100031A3D3E90023FCF757FDFCF7EFFFC0F516
:103A20008774B1E7374C204604F0F1F8FCF7E2FC6C
:103A300006460F46204604F0D9F8FCF7DBFC0246A8
:103A40000B4630463946FCF769FE04F089FE22A396
:103A5000D3E90023FCF738FD02460B46104603F17C
:103A60000041FCF7CBFF041E04DBC4F58774C4F5EA
:103A7000B47489E7C4F58774F9E7FEF7B5F8002850
:103A800088D1234B01221A7084E7FEF7C7F800287B
:103A900084D1204B01221A7080E7012104F1B40087
:103AA000FEF7D6F8022104F1AF00FEF7D1F87CE76B
:103AB000000000000044B6400000000000D4B74001
:103AC0000000000000589BC00000000000F4AAC0E5
:103AD000000000000070A74046DF617EDCA54C407E
:103AE000C0030020480800205808002034000020AF
:103AF00009000020B8030020000049400B0000200E
:103B0000B0030020CC0F002000804640B40300200A
:103B1000910300209003002040000020824B5B783E
:103B200013F0080F34D0814B012283F8222040F695
:103B3000B8321A847C4B5B7813F0020F04D07A4BB6
:103B40005B7813F0040F37D1774B5B7813F0020FDB
:103B500036D1754B5B7813F0040F35D00120FDF79B
:103B6000BFFA714B5B7813F0080F45D06E4B5B7852
:103B700013F0100F40D06C4B9B7813F0400F27D000
:103B80006A4B012283F8282040F6C412DA8439E017
:103B9000654B5B7813F0100F07D0644B022283F85B
:103BA000222040F6B8321A84C4E7604B032283F81F
:103BB000222000221A84BDE70220FDF791FAD0E707
:103BC0000020FDF78DFACCE70220FDF789FAC8E75F
:103BD000554B9B7813F0200F07D0544B022283F8EB
:103BE000282040F6C412DA840CE0504B032283F8FC
:103BF00028200022DA8405E04C4B032283F8282099
:103C00000022DA84484B9B7813F0400F0DD1FDF76A
:103C1000B9F8034600287EF4D7AEFDF7FBF803465B
:103C200000283EF4B4AEFEF7CFBE01228DF824206A
:103C30008DF825208DF8262000203D49CDE9020190
:103C400037A1D1E90001CDE9040100200021CDE92F
:103C5000060102AB009309AB00213648FEF7E8F9F4
:103C6000D5E73448009009AB00221146FEF7E0F991
:103C7000034600283EF490AEFEF7A6BE01210020C8
:103C8000FDF744F901210846FDF740F90121022022
:103C9000FDF73CF901210320FDF738F92548009094
:103CA00009AB00220121FEF7C3F901212248FEF7EA
:103CB000C7FBFEF77CBE214B1A78214B53F822102C
:103CC000204803F027FB204B1A78204B53F8221092
:103CD0001F4803F01FFB21461E4803F01BFB4FF457
:103CE0008051012003F0D4F968B91B4803F012FB9E
:103CF0000421012003F0CCF948B1184803F00AFB75
:103D00000023FEF761BE164803F004FBF0E71548F8
:103D100003F000FB0023FEF757BE00BFAFF30080A7
:103D2000000000000044B640CC0F002040000020FE
:103D300000006940C0030020D00500200A000020D8
:103D4000D8AC0008BCAA00080B000020B8AB0008E3
:103D5000CCAA0008E4AA0008FCAA000850AB00089E
:103D600018AB000834AB0008FEE7000008B54FF4BC
:103D7000A2720249024806F0FBFD08BDE8AC00084B
:103D80007C080020002209E0930003F1006303F5A2
:103D9000FE331968094B43F8221001320C2AF3DD77
:103DA000002307E0064A52F82320044951F8231063
:103DB00011600133082BF5DD704700BFC0090020FA
:103DC0000C00002008B5FFF7D1FFFFF7DBFF08BDAF
:103DD00000B583B01C4B9A6942F001029A619B695D
:103DE00003F001030193019B032000F0F1FA00228C
:103DF00011466FF00B0000F009FB002211466FF036
:103E00000A0000F003FB002211466FF0090000F0E9
:103E1000FDFA002211466FF0040000F0F7FA0022CC
:103E200011466FF0030000F0F1FA002211466FF026
:103E3000010000F0EBFA002211464FF0FF3000F0D5
:103E4000E5FA03B05DF804FB00100240F0B589B05C
:103E500003685E4A934205D005465D4A934255D0B9
:103E600009B0F0BD5B4B9A6942F008029A619B6908
:103E700003F008030093009B544A1368C3F30E0336
:103E800013604FF4407304931123059302230793A7
:103E9000514C04A9204600F073FDE36843F44073DD
:103EA000E3604D4B9B6803F44073B3F5407FF8D15A
:103EB000494AD36823F44073D360474B9B6813F49B
:103EC000407FFAD14FF440730493122305930323E8
:103ED000079304A9404800F053FD404A536843F05B
:103EE000020353603B4BDA6942F40012DA61DB698A
:103EF00003F400130193019B344B1A6842F400420F
:103F00001A601A68C2F30E021A60A9E74FF4406300
:103F10000493122305930323079304A92E4800F06A
:103F20002FFD2C4BDA6942F48002DA61DA6902F47F
:103F300080020292029A5A6942F001025A615B6958
:103F400003F001030393039B254E264B33600024AB
:103F50007460B4608027F76034617461B461F461A7
:103F6000304600F0F9FA2E6375621F4E1F4B336026
:103F700010237360B460F76034617461B461F461FC
:103F8000304600F0E9FAEE627562012221460E2009
:103F900000F03CFA0E2000F07FFA012221460F20AB
:103FA00000F034FA0F2000F077FA22462146212053
:103FB00000F02CFA212000F06FFA22462146222040
:103FC00000F024FA222000F067FA49E7005400408C
:103FD0000058004000100240000C01400000014069
:103FE000080A002058000240400A00204400024015
:103FF00000B587B003681B4A934205D01A4A934222
:104000001BD007B05DF804FB184BDA6942F00202DE
:10401000DA61DB6903F002030093009BC023029383
:1040200000230393049302A9114800F0A9FC114A4C
:10403000536843F440635360E3E70C4BDA6942F0A2
:104040000402DA61DB6903F004030193019BC023DE
:10405000029300230393049302A9074800F090FC05
:10406000CFE700BF000400400008004000100240FD
:104070000010014000000140000C0140F0B58DB07F
:104080000368724A934209D00446714A93422FD082
:10409000704A934200F086800DB0F0BD6E4B9A6975
:1040A00042F480429A619A6902F480420192019A34
:1040B0009A6942F004029A619B6903F00403029337
:1040C000029B4FF4007308930223099303230B937D
:1040D000624C08A9204600F053FC4FF4806308931B
:1040E000002309930A9308A9204600F049FCD3E76E
:1040F000594EF36943F40033F361F36903F4003379
:104100000393039BB36943F00403B361B36903F002
:1041100004030493049B04230893022309930323B9
:104120000B934E4F08A9384600F02AFC0823089349
:10413000002509950A9508A9384600F021FC736905
:1041400043F001037361736903F001030593059B59
:10415000434E444B336010277760B5608023F36093
:1041600035617561B561F561304600F0F5F926639A
:10417000746201222946112000F048F9112000F054
:104180008BF92A462946384600F040F9384600F0B7
:1041900083F901222946262000F038F9262000F074
:1041A0007BF979E72C4BDA6942F48022DA61DA692B
:1041B00002F480220692069A9A6942F010029A61ED
:1041C0009B6903F010030793079B4FF480630893E8
:1041D0000223099303230B93234D08A9284600F0DB
:1041E000CFFB4FF400630893002609960A9608A9AE
:1041F000284600F0C5FB1D4A536823F0300343F006
:10420000100353601A4D1B4B2B606E60AE60802311
:10421000EB602E616E61AE614FF40053EB61284696
:1042200000F09AF965636C62324631460D2000F069
:10423000EDF80D2000F030F901223146272000F082
:10424000E5F8272000F028F926E700BF00380140F4
:1042500000440040004800400010024000080140B7
:10426000B00A002080000240001001400000014020
:10427000780A0020300002407047FEE7FEE7FEE7C4
:10428000FEE770477047704708B500F085F800F00A
:104290004EF9024A13680133136008BDC80F0020AD
:1042A00008B5024B186B00F033FA08BD0802002075
:1042B00008B5024B586B00F02BFA08BD48020020ED
:1042C00008B5024802F0D9FD08BD00BF4802002031
:1042D00008B5024802F0D1FD08BD00BF0802002069
:1042E00008B5024BD86A00F013FA08BD400100205F
:1042F00008B5024B186B00F00BFA08BD4001002016
:104300000F4B1A6842F001021A6059680D4A0A40C0
:104310005A601A6822F0847222F480321A601A6895
:1043200022F480221A605A6822F4FE025A604FF486
:104330001F029A60044B4FF000629A60704700BF02
:10434000001002400000FFF800ED00E010B5044648
:1043500001F026FF064BA3FB0030800900F0B2F805
:10436000002221464FF0FF3000F050F8002010BD31
:10437000D34D621008B5074A136843F01003136069
:10438000032000F025F80020FFF7E0FFFFF720FDF5
:10439000002008BD00200240024A13680133136068
:1043A000704700BFE80A0020014B1868704700BF43
:1043B000E80A002010B582B00190FFF7F5FF04462F
:1043C000FFF7F2FF001B019B9842F9D302B010BD2A
:1043D00010B50446C31E042B0FD80A4AD36823F431
:1043E000E0631B041B0C240204F4E064234343F049
:1043F000BF6343F40033D36010BDBA210248FFF716
:10440000B3FCEAE700ED00E044AE000870B50546F5
:104410000C4616460F2A25D80F2C28D81B4BDB68D4
:10442000C3F30223C3F10702042A28BF0422191D83
:10443000062921D9033B4FF0FF3101FA02F224EAA9
:1044400002049C4001FA03F326EA03063443002DDC
:1044500014DB2401E4B205F1604505F5614585F8FA
:10446000004370BDD2210A48FFF77EFCD4E7D32178
:104470000748FFF779FCD1E70023DCE705F00F05DB
:104480002401E4B2034B5C55EBE700BF00ED00E014
:1044900044AE000814ED00E010B5041E08DB04F083
:1044A0001F02640901239340044A42F8243010BDDE
:1044B000E6210348FFF758FCF1E700BF00E100E008
:1044C00044AE00080138B0F1807F0AD2064B586034
:1044D000064AF02182F823100020986007221A6013
:1044E00070470120704700BF10E000E000ED00E0E1
:1044F00010B50446042800D038B9042C0BD0094A62
:10450000136823F00403136010BD4FF4DF710648F5
:10451000FFF72AFCF1E7034A136843F00403136032
:10452000F2E700BF10E000E044AE0008704708B5B5
:10453000FFF7FCFF08BD10B4046863604368102BEC
:1045400005D0036899600368DA6010BC704703689F
:104550009A600368D960F8E7002800F0928010B5EF
:1045600004460368484A934215D01432934212D04D
:10457000143293420FD0143293420CD0143293422F
:1045800009D01432934206D01432934203D0B5219D
:104590003E48FFF7E9FB636823B1102B02D0B3F567
:1045A000804F4BD1A368402B01D0002B4BD1E36847
:1045B000802B01D0002B4BD123692BB1B3F5807F29
:1045C00002D0B3F5007F48D163692BB1B3F5806F9A
:1045D00002D0B3F5006F45D1A3690BB1202B46D1B2
:1045E000E36943B1B3F5805F05D0B3F5005F02D056
:1045F000B3F5405F40D194F821300BB984F82030F6
:10460000022384F8213021680A6822F47F5222F0C4
:1046100030026368A0680343E068034320690343F2
:1046200060690343A0690343E069034313430B60DC
:1046300000206063012384F8213010BDB6211348A7
:10464000FFF792FBAEE7B7211048FFF78DFBAEE70F
:10465000B8210E48FFF788FBAEE7B9210B48FFF7FA
:1046600083FBB1E7BA210948FFF77EFBB4E7BB2122
:104670000648FFF779FBB3E7BC210448FFF774FB5A
:10468000B9E70120704700BF080002407CAE000877
:10469000F8B590F82040012C35D01D4616460F463F
:1046A0000446012380F82030022380F821306A1E5E
:1046B0004FF6FE739A4220D82068036823F0010366
:1046C00003602B46324639462046FFF734FF226806
:1046D000136843F0020313602268136843F0040375
:1046E00013602268136843F008031360226813689C
:1046F00043F0010313600020F8BD40F2611103484C
:10470000FFF732FBD8E70220F6E700BF7CAE0008D7
:1047100010B50446984B1A68036898498B4214D028
:1047200014318B4232D014318B4231D014318B4250
:1047300031D014318B4231D014318B4202D04FF042
:10474000006103E04FF4000100E008210A423CD080
:104750001A6812F0080F38D01A6822F008021A609E
:104760002368864A93421FD01432934245D01432B4
:10477000934244D01432934244D01432934244D0F2
:10478000143293420DD04FF000620EE08021DDE73D
:104790004FF40061DAE74FF40041D7E74FF400210E
:1047A000D4E74FF4000200E00822734B5A60636BB9
:1047B00043F001036363042384F82130002384F869
:1047C0002030236B0BB1204698476B4B1A68236847
:1047D0006A498B421FD014318B4241D014318B4235
:1047E00040D014318B4240D014318B4240D0143130
:1047F0008B420DD04FF080610EE08022D5E74FF460
:104800000062D2E74FF40042CFE74FF40022CCE73A
:104810004FF4800100E004210A4239D01A6812F0F6
:10482000040F35D01A6812F0200F03D11A6822F055
:1048300004021A602368514A93421FD014329342F3
:104840003ED0143293423DD0143293423DD01432C4
:1048500093423DD0143293420DD04FF080620EE06F
:104860004021D9E74FF48061D6E74FF48041D3E788
:104870004FF48021D0E74FF4800200E004223E4B49
:104880005A60112384F82130E36A0BB1204698471F
:10489000394B1A68236839498B421FD014318B4237
:1048A00041D014318B4240D014318B4240D014316E
:1048B0008B4240D014318B420DD04FF000710EE08E
:1048C0004022DCE74FF48062D9E74FF48042D6E71C
:1048D0004FF48022D3E74FF4001100E002210A4296
:1048E0003ED01A6812F0020F3AD01A6812F0200F68
:1048F00003D11A6822F002021A6023681F4A934209
:104900001FD0143293422CD0143293422BD0143245
:1049100093422BD0143293422BD0143293420DD0B9
:104920004FF000720EE02021D9E74FF40071D6E776
:104930004FF40051D3E74FF40031D0E74FF40012A9
:1049400000E002220C4B5A60636B6363012384F81E
:104950002130002384F82030A36A0BB12046984709
:1049600010BD2022EEE74FF40072EBE74FF4005247
:10497000E8E74FF40032E5E700000240080002409B
:104980002DE9F04383B080460F46B54B984213D0D3
:1049900003F5806398420FD003F5806398420BD0F3
:1049A00003F58063984207D003F58063984203D0F3
:1049B000CF21AC48FFF7D8F93B882BB37B68012B9C
:1049C0001ED9112B1CD0022B1AD0122B18D0A64A9C
:1049D000934215D002F58012934211D002F5801255
:1049E00093420DD0A2F5F812934209D002F580123D
:1049F000934205D002F58012934201D0032B08D1D7
:104A00004FF000094E46DDE0D0219648FFF7ACF9A3
:104A1000D4E7D1219348FFF7A7F9F1E7002B5ED047
:104A2000012B05D1FB68013B022B65D8D7F80C9010
:104A3000FF2C00F296804046FF2C00F29580B200D9
:104A400003680F21914023EA010309FA02F213439C
:104A500003607B6813F0805F00F0B380834B9A693A
:104A600042F001029A619B6903F001030193019BEB
:104A7000B208911C7E4B53F8210006F00303990005
:104A80000F238B4020EA0300754B984572D003F545
:104A90008063984500F0CD8003F58063984500F071
:104AA000CA8003F58063984562D0042363E0714AAD
:104AB000934214D00BD9704A934210D002F5803241
:104AC00093420CD0A2F580129342B1D107E0A2F537
:104AD0008012934203D002F580329342A8D1BB6882
:104AE000022B2DD8BB68002B38D0012B2ED0C8F854
:104AF00014504FF008099BE7E7215A48FFF734F9B3
:104B000094E7EE215748FFF72FF98EE0FB68013B51
:104B1000022B03D8FB6803F1080989E7F521514806
:104B2000FFF722F9F6E7FB68013B022B03D8FB688D
:104B300003F10C097CE7FC214A48FFF715F9F6E779
:104B400040F209114748FFF70FF9CBE7C8F81050BA
:104B50004FF008096CE74FF0000969E74FF00409CE
:104B600066E708F1040067E7A6F10802920067E72C
:104B7000032300E000238B40034302323C4941F809
:104B800022307B6813F4803F57D03C4A136823439C
:104B900013607B6813F4003F55D0384A53682343B1
:104BA00053607B6813F4801F53D0344A93682343C7
:104BB00093607B6813F4001F62D0304AD3681C43B3
:104BC000D46001360F2E61D80125B5403C682C40D9
:104BD000A542F6D1224B984513D003F58063984542
:104BE0000FD003F5806398450BD003F5806398459B
:104BF00007D003F58063984503D0DF211948FFF7FC
:104C0000B3F87B68122B8ED03FF651AF022B3FF4E6
:104C10007DAF7FF603AF032B9DD0112B7FF408AF40
:104C2000FB68013B022B3FF66CAFFB6803F1040904
:104C3000FEE601239FE702239DE7104A136823EA5B
:104C400004031360A5E70D4A536823EA0403536085
:104C5000A7E70A4A936823EA04039360A9E700BF21
:104C600000080140B4AE000800001110001002401E
:104C7000000001400000211000003110000401403C
:104C8000044AD36823EA0404D4609AE703B0BDE879
:104C9000F08300BF0004014038B505460C4621B141
:104CA000AB681C4207D1002038BD4FF4E2710348C5
:104CB000FFF75AF8F4E70120F6E700BFB4AE0008AA
:104CC00070B5064615460C4629B1012D09D875B9AF
:104CD0002404346170BD4FF4F2710648FFF744F8C4
:104CE000F3E740F2E5110348FFF73EF8EFE73461E0
:104CF000F0E700BFB4AE00084368124A934209D8F7
:104D00005800B1FBF0F0C0F30B03032B00D9704740
:104D10000420704782685AB903EB4300B1FBF0F0FE
:104D200040F40040C0F30B03002BF0D10120EEE76C
:104D300003EB830000EB8000B1FBF0F040F4404057
:104D4000F0E700BFA086010003685A6912F4806F83
:104D50000DD05A6922F480625A61042383632023B0
:104D600080F83530002380F834300120704700206F
:104D700070472DE9F04106460C4690461D46FFF768
:104D800013FB0746B8F1000F1AD043E025B1FFF737
:104D90000BFBC01BA84213D9202386F83530002313
:104DA00086F83430032019E033685B6924EA030392
:104DB0009BB2003318BF01237BB1B5F1FF3FE5D1B2
:104DC000C4F30743012BEFD033689B6924EA030344
:104DD0009BB2003318BF0123EEE70020BDE8F0814D
:104DE00025B1FFF7E1FAC01BA84213D9202386F8AA
:104DF0003530002386F834300320EFE733685B69F1
:104E000024EA03039BB2B3FA83F35B097BB1B5F1E8
:104E1000FF3FE5D1C4F30743012BEFD033689B6913
:104E200024EA03039BB2B3FA83F35B09EEE70020A5
:104E3000D4E7F8B504460D461646FFF7B5FA07461F
:104E400031E01A6842F400721A602268536923F450
:104E5000806353610423A363202384F83530002347
:104E600084F8343001202CE026B1FFF79DFAC01BF6
:104E7000B04218D9202384F83530002384F8343028
:104E800003201EE023685B6925EA03039BB200331D
:104E900018BF0123A3B123685A6912F4806FD0D1DF
:104EA000B6F1FF3FE0D1C5F30743012BEAD02368F9
:104EB0009B6925EA03039BB2003318BF0123E9E78E
:104EC0000020F8BD70B504460D461646026813680A
:104ED00043F480731360334600224FF00111FFF753
:104EE00048FF48BB2369B3F5804F0FD1236805F015
:104EF000FE051D61324614492046FFF79AFF03461E
:104F0000D8B1A36B042B1CD1012316E0EB1122684E
:104F100003F0060343F0F003136132460B492046C9
:104F2000FFF787FF20B1A36B042B08D1012304E016
:104F30002368EDB21D61DDE70323184670BD03232E
:104F4000FBE70323F9E700BF0200010008000100AE
:104F5000F0B583B004460D4616460268136843F464
:104F6000806313600268136843F4807313603346F0
:104F700000224FF00111FFF7FCFE00284CD12369FD
:104F8000B3F5804F11D1236845F00105EDB21D61E5
:104F9000324627492046FFF74CFF034600283CD005
:104FA000A36B042B42D1012337E0EF1107F0060772
:104FB000236847F0F0021A6132461E492046FFF787
:104FC00038FF20B1A36B042B2AD1012325E02368ED
:104FD000EDB21D61324616492046FFF72AFF20B187
:104FE000A36B042B1ED1012317E023685A69019299
:104FF0009A690192019A1A6842F480721A603346E3
:1050000000224FF001112046FFF7B3FE60B923687C
:1050100047F0F1071F61BBE70323184603B0F0BD5B
:105020000323FAE70323F8E70323F6E70323F4E770
:10503000020001000800010070B504460D46FFF7AC
:10504000B3F9064623685B6913F0800F18D1204638
:10505000FFF77AFEB0B9B5F1FF3FF3D025B1FFF706
:10506000A3F9801BA842EDD9A36B43F02003A363EF
:10507000202384F83530002384F83430032000E006
:10508000002070BD0120FCE770B504460D46FFF717
:105090008BF9064623685B6913F0040F18D120468C
:1050A000FFF752FEB0B9B5F1FF3FF3D025B1FFF7DE
:1050B0007BF9801BA842EDD9A36B43F02003A363C7
:1050C000202384F83530002384F83430032000E0B6
:1050D000002070BD0120FCE7002800F0B38038B547
:1050E00004460368584A934208D002F5806293420E
:1050F00004D04FF4A5715548FEF736FE6368013BB6
:10510000534A93425ED8A36813B1B3F5804F5FD181
:10511000E36823F47F7323F00303002B5ED123693C
:10512000B3F5804F02D0B3F5404F5DD16369012BD9
:1051300060D8A36933F0FE0362D1E3690BB1402B61
:1051400064D1236A0BB1802B66D194F83530002BE3
:1051500068D0242384F835302268136823F00103D3
:10516000136001F023F801463A4BA3FB00239B0C8C
:10517000226853606068384A904259D801332268E7
:10518000136225682046FFF7B7FDE861E369216AED
:1051900022680B4313602369E16822680B43936024
:1051A0006369A16922680B43D3602268136843F0E6
:1051B000010313600020A063202384F8353084F8B5
:1051C000360038BD40F24B112048FEF7CDFD9AE77E
:1051D0004FF4A6711D48FEF7C7FD99E740F24D1147
:1051E0001A48FEF7C1FD9AE74FF4A7711748FEF77A
:1051F000BBFD9BE740F24F111448FEF7B5FD98E761
:105200004FF4A8711148FEF7AFFD96E740F2511137
:105210000E48FEF7A9FD94E74FF4A9710B48FEF77D
:10522000A3FD92E784F834302046FEF70FFE90E7A6
:105230004FF4967202FB03F3084AA2FB03239B0977
:1052400001339CE70120704700540040ECAE000899
:105250007F1A060083DE1B43A0860100D34D621037
:10526000F0B583B01E4690F83530DBB2202B7FD1ED
:1052700004460F461546002A7ED00EB9012378E079
:1052800042F2107301224149FFF773FD002875D1E6
:1052900094F83430012B73D0012384F83430226821
:1052A000136823F400631360212384F8353010233E
:1052B00084F836300023A363089A39462046FFF766
:1052C00001FE60B1A36B042B04D1002384F83430B9
:1052D00001234EE0002384F83430032349E023689F
:1052E0005A6901929B690193019B0BE0A36B042B0C
:1052F00048D12268136843F400731360012338E037
:105300001E461546C6B108992046FFF795FE0028AF
:10531000ECD16A1C236829781961731E9BB221683D
:10532000486910F0040FEBD0002BE9D0AA1C6B7871
:105330000B61023EB3B2E3E708992046FFF7A4FEF3
:10534000034648B1A36B042B1ED12268136843F4B3
:105350000073136001230CE021680A6842F40072B4
:105360000A60202284F83520002284F8342000E0EE
:105370000223184603B0F0BD0123FAE70223F8E741
:105380000223F6E70323F4E70323F2E70200100009
:10539000F0B583B090F83540E4B2202C57D1002A04
:1053A00059D00BB9012353E01E4615460F4604465B
:1053B00042F2107301222B49FFF7DBFC00284CD18D
:1053C00094F83430012B4AD0012384F83430226819
:1053D000136823F400631360212384F8353010230D
:1053E00084F836300023A363656226856685E36A08
:1053F0001D4A9A62E36A1D4A1A63226833461032D4
:105400002946E06AFFF744F9232239462046FFF790
:1054100059FD034660B1A36B042B04D1002384F82B
:105420003430012314E0002384F8343003230FE0E8
:1054300021684A6842F400624A6022685169019119
:1054400092690192019A002284F8342000E002233C
:10545000184603B0F0BD0123FAE70223F8E7022360
:10546000F6E700BF02001000955500086B550008D4
:10547000F0B583B090F83540E4B2202C64D1002A16
:1054800066D00BB9012260E01E4615460F46044661
:1054900042F2107301223149FFF76BFC002859D109
:1054A00094F83430012B57D0012384F8343022682B
:1054B000136823F400631360222384F8353010232B
:1054C00084F836300023A363656226856685236BE6
:1054D000234A9A62236B234A1A63216833462A4679
:1054E0001031206BFFF7D4F8232239462046FFF70E
:1054F0002FFD024660B1A36B042B04D1002384F876
:105500003430012221E0002384F8343003221CE0EF
:10551000012E13D021684B6843F480534B602168FF
:105520004B6843F400634B602368596901919B69A0
:105530000193019B002384F8343006E021680B6856
:1055400023F480630B60EAE70222104603B0F0BD4B
:105550000122FAE70222F8E70222F6E70200100031
:10556000E95500086B550008704708B5406A0268A5
:10557000136823F48063136000234385202280F89E
:10558000352080F83630836B43F010038363FFF7D8
:10559000EBFF08BD10B5446A2323002211492046C1
:1055A000FFF7E7FB18B1A36B43F02003A363226866
:1055B000136843F4007313602268536823F4006394
:1055C000536000236385202284F8352084F8363028
:1055D000A36B1BB9204603F08FF810BD2046FFF7E0
:1055E000C3FFFAE70400010008B5406A02681368C7
:1055F00023F4806313600268136843F4007313603C
:105600000268536823F4805353600268536823F49C
:105610000063536000234385202280F8352080F802
:105620003630836B13B903F06DF808BDFFF79CFFAC
:10563000FBE77047002844D010B504460268234BAE
:105640009A4203D0A6212248FEF78EFB6368062B00
:1056500028D8A368B3F5805F29D22368DA6812F0EE
:10566000010F03D0DB6813F0020F2CD1637B1BB357
:1056700002236373236845F255521A602268536807
:1056800023F0070361680B4353602268936823F497
:105690007F6323F00F03A1680B43936001236373BF
:1056A000002010BDA7210A48FEF75EFBD1E7A82124
:1056B0000748FEF759FBD0E723732046FFF7B9FFF1
:1056C000D6E7012070470120EBE700BF0030004023
:1056D00024AF0008037B012B0FD002234373036820
:1056E0004CF6CC421A6003684AF6AA221A600123DB
:1056F000437300230373184670470220704738B580
:10570000037B012B1FD00446012303730223437341
:10571000FEF74AFE05462368DA6812F0020F0AD047
:10572000FEF742FE401BB0F57A7FF4D90320607388
:105730000023237306E04AF6AA221A60012363734A
:105740000020207338BD0220FCE7000030B583B094
:10575000044688B3236813B113F00F0F32D02368C7
:1057600013F0010F56D063682BB1B3F5803F02D020
:10577000B3F5A02F2CD1C64B5B6803F00C03042BB0
:1057800031D0C34B5B6803F00C03082B26D0636851
:10579000B3F5803F00F08380002B40F0A58003F13B
:1057A000804303F504331A6822F480321A601A68C1
:1057B00022F480221A6077E04FF48771B548FEF733
:1057C000D3FAC7E740F20F11B248FEF7CDFAC6E7A9
:1057D00040F21511AF48FEF7C7FACCE7AC4B5B6857
:1057E00013F4803FD3D04FF4003393FAA3F3A84BC4
:1057F0001A684FF4003393FAA3F3B3FA83F303F078
:105800001F0322FA03F313F0010F03D06368002B88
:1058100000F02083236813F0020F00F0D380236987
:10582000012B00F2998063691F2B00F29B80984B3B
:105830005B6813F00C0F00F0A180954B5B6803F0E0
:105840000C03082B00F094802369002B00F0F880F3
:10585000012292FAA2F3B3FA83F39B0003F184438B
:1058600003F584031A60FEF79FFD0546022393FAB1
:10587000A3F3874B1A68022393FAA3F3B3FA83F3D3
:1058800003F01F0322FA03F313F0010F40F0C98065
:10589000FEF78AFD401B0228E8D90320E1E27C4A9A
:1058A000136843F4803313606368002B36D0FEF72F
:1058B0007BFD05464FF4003393FAA3F3744B1A684B
:1058C0004FF4003393FAA3F3B3FA83F303F01F0307
:1058D00022FA03F313F0010F9CD1FEF765FD401B84
:1058E0006428E7D90320BCE2B3F5A02F09D0684BA8
:1058F0001A6822F480321A601A6822F480221A6030
:10590000D2E703F18043A3F53C331A6842F48022C6
:105910001A601A6842F480321A60C5E7FEF744FD47
:1059200005464FF4003393FAA3F3594B1A684FF42A
:10593000003393FAA3F3B3FA83F303F01F0322FABD
:1059400003F313F0010F3FF465AFFEF72DFD401B8D
:105950006428E6D9032084E240F249114D48FEF75D
:1059600003FA60E74FF4A5714A48FEF7FDF95EE7D8
:10597000474B5B6813F4803F7FF466AF022393FAD2
:10598000A3F3434B1A68022393FAA3F3B3FA83F306
:1059900003F01F0322FA03F313F0010F04D023696D
:1059A000012B01D001205CE23948036823F0F803A1
:1059B0006169F82292FAA2F2B2FA82F201FA02F2D4
:1059C00013430360236813F0080F70D0A369012B01
:1059D00064D8A369002B00F09280012292FAA2F30E
:1059E000B3FA83F32C4941F82320FEF7DDFC05468A
:1059F000022393FAA3F293FAA3F2254A526A93FA86
:105A0000A3F3B3FA83F303F01F0322FA03F313F0B3
:105A1000010F49D1FEF7C8FC401B0228E8D903203A
:105A20001FE21B48036823F0F8036169F82292FA29
:105A3000A2F2B2FA82F201FA02F213430360C1E762
:105A4000012393FAA3F3B3FA83F39B0003F1844396
:105A500003F5840300221A60FEF7A6FC0546022324
:105A600093FAA3F30A4B1A68022393FAA3F3B3FA47
:105A700083F303F01F0322FA03F313F0010FA1D005
:105A8000FEF792FC401B0228E9D90320E9E100BFA0
:105A9000001002405CAF0008800442424FF4C57120
:105AA000AC48FEF761F994E70120FEF783FC236818
:105AB00013F0040F00F0CF80E368012B01D9052B10
:105AC00042D1A54BDA6942F08052DA61DB6903F01A
:105AD00080530193019BA14A136843F480731360C0
