:020000040800F2
:100000000050002061CB0008F58A0008F78A00083C
:10001000F98A0008FB8A0008FD8A00080000000039
:10002000000000000000000000000000FF8A00083F
:10003000018B000800000000038B0008058B0008FE
:10004000A9CB0008A9CB0008A9CB0008A9CB0008C0
:10005000A9CB0008A9CB0008A9CB0008A9CB0008B0
:10006000A9CB0008A9CB0008A9CB0008A9CB0008A0
:10007000A9CB00082D8B00085D8B00086D8B000854
:10008000A9CB00081D8B0008A9CB0008A9CB00084C
:10009000A9CB0008A9CB0008A9CB0008A9CB000870
:1000A000A9CB00087DB90008A9CB0008A9CB00089E
:1000B0008DB90008A9CB0008A9CB0008A9CB00087E
:1000C000A9CB0008A9CB0008A9CB0008A9CB000840
:1000D000A9CB0008A9CB00084D8B00083D8B000878
:1000E000A9CB0008A9CB0008A9CB0008000000009C
:1000F0000000000000000000000000000000000000
:0C01000000000000000000005FF808F1A3
:1001100010B5054C237833B9044B13B10448AFF341
:1001200000800123237010BDF002002000000000B9
:1001300028E3000808B5034B1BB103490348AFF39C
:10014000008008BD00000000F402002028E3000841
:1001500081F0004102E000BF83F0004330B54FEA78
:1001600041044FEA430594EA050F08BF90EA020FE5
:100170001FBF54EA000C55EA020C7FEA645C7FEA78
:10018000655C00F0E2804FEA5454D4EB5555B8BF9B
:100190006D420CDD2C4480EA020281EA030382EA0C
:1001A000000083EA010180EA020281EA0303362D9E
:1001B00088BF30BD11F0004F4FEA01314FF4801C71
:1001C0004CEA113102D0404261EB410113F0004F83
:1001D0004FEA03334CEA133302D0524263EB43033A
:1001E00094EA050F00F0A780A4F10104D5F1200ED8
:1001F0000DDB02FA0EFC22FA05F2801841F1000133
:1002000003FA0EF2801843FA05F359410EE0A5F106
:1002100020050EF1200E012A03FA0EFC28BF4CF037
:10022000020C43FA05F3C01851EBE37101F00045ED
:1002300007D54FF0000EDCF1000C7EEB00006EEBFA
:100240000101B1F5801F1BD3B1F5001F0CD3490884
:100250005FEA30004FEA3C0C04F101044FEA4452DB
:1002600012F5800F80F09A80BCF1004F08BF5FEA62
:10027000500C50F1000041EB045141EA050130BD42
:100280005FEA4C0C404141EB010111F4801FA4F1E5
:100290000104E9D191F0000F04BF01460020B1FA3A
:1002A00081F308BF2033A3F10B03B3F120020CDA72
:1002B0000C3208DD02F1140CC2F10C0201FA0CF050
:1002C00021FA02F10CE002F11402D8BFC2F1200CB5
:1002D00001FA02F120FA0CFCDCBF41EA0C0190406B
:1002E000E41AA2BF01EB0451294330BD6FEA0404B4
:1002F0001F3C1CDA0C340EDC04F11404C4F120029F
:1003000020FA04F001FA02F340EA030021FA04F3B0
:1003100045EA030130BDC4F10C04C4F1200220FA07
:1003200002F001FA04F340EA0300294630BD21FA45
:1003300004F0294630BD94F0000F83F4801306BF0B
:1003400081F480110134013D4EE77FEA645C18BFFF
:100350007FEA655C29D094EA050F08BF90EA020F96
:1003600005D054EA000C04BF1946104630BD91EA8E
:10037000030F1EBF0021002030BD5FEA545C05D191
:100380004000494128BF41F0004130BD14F58004D0
:100390003CBF01F5801130BD01F0004545F0FE4144
:1003A00041F470014FF0000030BD7FEA645C1ABF79
:1003B000194610467FEA655C1CBF0B46024650EAB0
:1003C000013406BF52EA033591EA030F41F40021DC
:1003D00030BD00BF90F0000F04BF0021704730B562
:1003E0004FF4806404F132044FF000054FF0000137
:1003F00050E700BF90F0000F04BF0021704730B5F8
:100400004FF4806404F1320410F0004548BF4042CC
:100410004FF000013EE700BF42004FEAE2014FEA21
:1004200031014FEA02701FBF12F07F4393F07F4FFC
:1004300081F06051704732F07F4208BF704793F0FF
:100440007F4F04BF41F40021704730B54FF4607412
:1004500001F0004521F000411CE700BF50EA010215
:1004600008BF704730B54FF000050AE050EA0102BE
:1004700008BF704730B511F0004502D5404261EB2E
:1004800041014FF4806404F132045FEA915C3FF46F
:10049000D8AE4FF003025FEADC0C18BF03325FEA0C
:1004A000DC0C18BF033202EBDC02C2F1200300FABD
:1004B00003FC20FA02F001FA03FE40EA0E0021FAE2
:1004C00002F11444BDE600BF70B54FF0FF0C4CF4D0
:1004D000E06C1CEA11541DBF1CEA135594EA0C0F82
:1004E00095EA0C0F00F0DEF82C4481EA030621EABD
:1004F0004C5123EA4C5350EA013518BF52EA0335F8
:1005000041F4801143F4801338D0A0FB02CE4FF0A9
:100510000005E1FB02E506F00042E0FB03E54FF0D9
:100520000006E1FB03569CF0000F18BF4EF0010ED1
:10053000A4F1FF04B6F5007F64F5407404D25FEACD
:100540004E0E6D4146EB060642EAC62141EA555180
:100550004FEAC52040EA5E504FEACE2EB4F1FD0CC2
:1005600088BFBCF5E06F1ED8BEF1004F08BF5FEA40
:10057000500E50F1000041EB045170BD06F00046F2
:1005800046EA010140EA020081EA0301B4EB5C049F
:10059000C2BFD4EB0C0541EA045170BD41F4801197
:1005A0004FF0000E013C00F3AB8014F1360FDEBFBC
:1005B000002001F0004170BDC4F10004203C35DA98
:1005C0000C341BDC04F11404C4F1200500FA05F31B
:1005D00020FA04F001FA05F240EA020001F00042BC
:1005E00021F0004110EBD37021FA04F642EB060132
:1005F0005EEA430E08BF20EAD37070BDC4F10C045C
:10060000C4F1200500FA04F320FA05F001FA04F21F
:1006100040EA020001F0004110EBD37041F100010B
:100620005EEA430E08BF20EAD37070BDC4F1200516
:1006300000FA05F24EEA020E20FA04F301FA05F27E
:1006400043EA020321FA04F001F0004121FA04F226
:1006500020EA020000EBD3705EEA430E08BF20EAF6
:10066000D37070BD94F0000F0FD101F00046400030
:1006700041EB010111F4801F08BF013CF7D041EAB2
:10068000060195F0000F18BF704703F000465200B6
:1006900043EB030313F4801F08BF013DF7D043EA87
:1006A0000603704794EA0C0F0CEA135518BF95EA3D
:1006B0000C0F0CD050EA410618BF52EA4306D1D1C4
:1006C00081EA030101F000414FF0000070BD50EAE3
:1006D000410606BF1046194652EA430619D094EA6D
:1006E0000C0F02D150EA013613D195EA0C0F05D157
:1006F00052EA03361CBF104619460AD181EA0301AB
:1007000001F0004141F0FE4141F470014FF0000062
:1007100070BD41F0FE4141F4780170BD70B54FF0FD
:10072000FF0C4CF4E06C1CEA11541DBF1CEA13557D
:1007300094EA0C0F95EA0C0F00F0A7F8A4EB05045F
:1007400081EA030E52EA03354FEA013100F0888056
:100750004FEA03334FF0805545EA131343EA12631F
:100760004FEA022245EA111545EA10654FEA0026D4
:100770000EF000419D4208BF964244F1FD0404F58D
:10078000407402D25B084FEA3202B61A65EB0305E9
:100790005B084FEA32024FF480104FF4002CB6EBA6
:1007A000020E75EB030E22BFB61A754640EA0C0026
:1007B0005B084FEA3202B6EB020E75EB030E22BF66
:1007C000B61A754640EA5C005B084FEA3202B6EBA7
:1007D000020E75EB030E22BFB61A754640EA9C0066
:1007E0005B084FEA3202B6EB020E75EB030E22BF36
:1007F000B61A754640EADC0055EA060E18D04FEAF4
:10080000051545EA16754FEA06164FEAC30343EA93
:1008100052734FEAC2025FEA1C1CC0D111F4801F60
:100820000BD141EA00014FF000004FF0004CB6E759
:1008300011F4801F04BF01430020B4F1FD0C88BFF8
:10084000BCF5E06F3FF6AFAEB5EB030C04BFB6EB03
:10085000020C5FEA500C50F1000041EB045170BDF6
:100860000EF0004E4EEA113114EB5C04C2BFD4EB23
:100870000C0541EA045170BD41F480114FF0000EA7
:10088000013C90E645EA060E8DE60CEA135594EA23
:100890000C0F08BF95EA0C0F3FF43BAF94EA0C0F26
:1008A0000AD150EA01347FF434AF95EA0C0F7FF49B
:1008B00025AF104619462CE795EA0C0F06D152EAEF
:1008C00003353FF4FDAE1046194622E750EA4106D3
:1008D00018BF52EA43067FF4C5AE50EA41047FF4E4
:1008E0000DAF52EA43057FF4EBAE12E74FF0FF3C49
:1008F00006E000BF4FF0010C02E000BF4FF0010C1A
:100900004DF804CD4FEA410C7FEA6C5C4FEA430C92
:1009100018BF7FEA6C5C1BD001B050EA410C0CBFE1
:1009200052EA430C91EA030F02BF90EA020F002043
:10093000704710F1000F91EA030F58BF994208BFAA
:1009400090422CBFD8176FEAE37040F00100704767
:100950004FEA410C7FEA6C5C02D150EA013C07D1BE
:100960004FEA430C7FEA6C5CD6D152EA033CD3D009
:100970005DF8040B704700BF8446104662468C4603
:100980001946634600E000BF01B5FFF7B7FF002836
:1009900048BF10F1000F01BD4DF808EDFFF7F4FF5F
:1009A0000CBF012000205DF808FB00BF4DF808EDEA
:1009B000FFF7EAFF34BF012000205DF808FB00BF0D
:1009C0004DF808EDFFF7E0FF94BF012000205DF82F
:1009D00008FB00BF4DF808EDFFF7CEFF94BF0120E4
:1009E00000205DF808FB00BF4DF808EDFFF7C4FFDD
:1009F00034BF012000205DF808FB00BF4FEA410230
:100A000012F5001215D211D56FF47873B3EB625260
:100A100012D94FEAC12343F0004343EA505311F087
:100A2000004F23FA02F018BF404270474FF0000019
:100A3000704750EA013005D111F0004008BF6FF057
:100A4000004070474FF00000704700BF4FEA410C74
:100A50007FEA6C5C02D150EA013C0AD14FEA430CB8
:100A60007FEA6C5C02D152EA033C02D14FF00000F5
:100A700070474FF0010070472DE9F04F85B0814677
:100A80000E4614469B46DDF838800F9F9DF840A027
:100A90009DF84450D1E90023CDE902238F49D1E9E3
:100AA0000001FFF779FFB8B1D6E902238B49D1E9FC
:100AB0000201FFF771FF78B1D4E900238849D1E939
:100AC0000001FFF769FF38B1D4E902238449D1E975
:100AD0000201FFF761FFC8B9824B01221A707F49FA
:100AE000DDE90223C1E90023D6E90223C1E902239B
:100AF000D4E900237A49C1E90023D4E90223C1E9FA
:100B000002230023784A1360784A1370032D0BD810
:100B1000DFE805F002141D26DBE90023D4E900011B
:100B2000FFF71AFBCDE900016E4B1B78002B2FD08D
:100B3000032D2AD8DFE805F01D1D8787D4E900239F
:100B4000DBE90001FFF708FBCDE90001ECE7DBE999
:100B50000223D4E90201FFF7FFFACDE90001E3E740
:100B6000D4E90223DBE90201FFF7F6FACDE900013F
:100B7000DAE7D4E90023DDE90201FFF7EDFA0246E6
:100B800021F000435A49C1E90023564B00221A7054
:100B9000BAF1000F00F02181DDE900AB52465B465F
:100BA0005349D1E90001FFF7D7FA044621F0004587
:100BB0000022504B50465946FFF716FF002800F020
:100BC000A58000224B4B20462946FFF7F9FE00285E
:100BD00046D00022474B20462946FFF79FFD0022C2
:100BE000454BFFF7B9FA04460D4642463B46FFF730
:100BF0006BFC02460B4620462946FFF765FC024681
:100C00000B4600203D49FFF7A7FA42463B46FFF757
:100C1000A5FAC9E900010022384BFFF7D1FE18B14F
:100C20000022364BC9E9002342463B46D9E9000180
:100C3000FFF7DAFE002800F0A08042463B46C9E9F3
:100C40000023002411E0D4E90223D6E90201FFF7D2
:100C500083FA024621F000432549C1E9002394E7C5
:100C600042463B46C9E9002301240022244B40466A
:100C70003946FFF7AFFE002800F083800022214BA9
:100C8000DDE90001FFF79CFE70B1184B1B785BB9E2
:100C900000220023C9E90023144B01221A701A4BC9
:100CA0001A68114B1A600224104B1B78002B00F0BD
:100CB000A08000220023C9E90023134B1B680A4AC5
:100CC00012689B1AB3F5FA7F40F29D800023074A11
:100CD0001370054A136003248BE000BF500400200A
:100CE0007004002000000020D0040020D404002064
:100CF0009803002000408F400000F03F00409F40DC
:100D00000040AF4000005440180C002007F100469E
:100D10000022414BDDE90001FFF700FD3CA3D3E9D0
:100D20000023FFF719FA04460D4602460B464046DB
:100D30003146FFF7C9FB02460B4620462946FFF71E
:100D4000C3FB42463B46FFF709FAC9E9000100220E
:100D5000324BFFF735FE18B10022304BC9E90023B2
:100D600042463B46D9E90001FFF73EFE38B1424614
:100D70003B46C9E90023022477E7002475E70224F3
:100D800073E70022264BDDE90001FFF719FE70B181
:100D9000244B1B785BB900220023C9E90023214BB7
:100DA00001221A70204B1A68204B1A6002241D4B36
:100DB0001B78F3B100220023C9E900231A4B1B68FA
:100DC0001A4A12689B1AB3F5AF7F1ED90023154A41
:100DD0001370164A136003240BE00022144BDDE964
:100DE0000001FFF7EDFD40B942463B46C9E900234B
:100DF0000124204605B0BDE8F08F00220023C9E998
:100E000000230324F5E70224F3E70224F1E700BFFF
:100E1000666666666666F23F00408F4000409F400F
:100E200000003E40D4040020180C0020D004002014
:100E30000000244010B402EBD2735B105C422144EA
:100E4000401A824203DC90FBF2F302FB13000028FD
:100E500002DB204410BC70470028B8BF4042101A83
:100E6000F7E70000002309E0590019444800054A4B
:100E7000024400215180032111710133062BF3DD5F
:100E8000002070473C000020034B0020D881032243
:100E90001A7498829A7570473C000020F0B40024C0
:100EA00007E0E300C5180B44D3E90067C5E9006714
:100EB00001349442F5DBF0BC7047000010B50446E5
:100EC000012819D018B102282AD000202DE04FF4B3
:100ED000805101200AF0AAFC38B1144B01221A7784
:100EE00041F288325A8320461FE0104B03221A77C2
:100EF00000225A83022018E0042101200AF096FC07
:100F000038B10A4B02221A7741F288325A832046BE
:100F10000BE0064B03221A7700225A83022004E0DA
:100F2000024B03221A7700225A8310BD3C00002096
:100F3000012920D010B50446022101200AF076FCD8
:100F400010B11F4B01221A701D4B1B78C3B984EAE4
:100F5000E472A2EBE4721B4B1B689A421ED0002C79
:100F600028DD194B022283F82820174B41F28832E2
:100F7000DA84002010BD134B00221A600220704753
:100F8000022101200AF052FC0028E0D10D4A13682A
:100F9000013313600A4B00221A70D8E70A4A032370
:100FA00082F828300023D384064A1360044A137061
:100FB0000120DFE7044B012283F82820D5E700BF9A
:100FC000D0030020800400203C00002008B5012947
:100FD0000AD09F4A1278042A10D8DFE812F01100D4
:100FE000670092000D0145010223994A1370994A46
:100FF0001170002298490A6098490A70184608BD85
:10100000022821D00428F9D1924B1B7833B1944B9C
:101010001A68914B1A608F4B00221A70904B1B6814
:101020008D4A12689B1A41F65832934235D98D4B3E
:10103000032283F8222000221A84854B04221A708E
:101040000123844A1370D9E7824B1B7833B1844B58
:101050001A68814B1A607F4B00221A70804B1B6804
:101060007D4A12689B1A40F6AC5293420CD97D4BD4
:10107000032283F8222000221A84754B02221A7060
:101080000123744A1370B9E7764B012283F82220BA
:1010900040F6B8321A840023B0E7724B012283F87D
:1010A000222040F6B8321A840023A7E70228A5D1EF
:1010B000684B1B7833B16A4B1A68674B1A60654BF3
:1010C00000221A70664B1B68634A12689B1A41F231
:1010D000040293420CD9634B032283F8222000229E
:1010E0001A845B4B02221A7001235A4A137085E757
:1010F0005C4B012283F8222040F6B8321A84002388
:101100007CE701281BD090B303287FF477AF102130
:1011100002200AF08BFB40B1524B022283F82220BE
:1011200040F6B8321A84002368E74E4A032382F857
:10113000223000211184464A137001235EE71021FA
:1011400001200AF073FB40B1464B022283F82220B3
:1011500040F6B8321A84002350E7424B032283F84A
:10116000222000221A840123394A137046E73B4BA0
:101170001B78F3B1374B1B7833B1394B1A68364BB8
:101180001A60344B00221A70354B1B68324A1268C1
:101190009B1A502B27D9334B032283F8222000229D
:1011A0001A842B4B1A7001232A490B702B490A70A1
:1011B00024E7102101200AF039FB40B1294B02221B
:1011C00083F8222040F6B8321A84002316E7234B16
:1011D00001221A70234B022283F8222040F6B832F3
:1011E0001A8400230AE71F4B022283F8222040F6CC
:1011F000B8321A84002301E702287FF4FFAE154BB2
:101200001B7833B1164B1A68134B1A60114B00222E
:101210001A70134B1B68104A12689B1A40F2DC527A
:1012200093420CD90F4B032283F8222000221A8408
:10123000074B02221A700123064A1370DEE6094B9F
:10124000012283F8222040F6B8321A840023D5E622
:101250000500002006000020C4040020C004002077
:10126000180C00203C00002002287FF4C7AE144B6D
:101270001B7833B1134B1A68134B1A60104B0022C2
:101280001A70104B1B68104A12689B1A40F6C41261
:10129000934208D80D4B022283F8222040F6B83240
:1012A0001A840023AAE6094B032283F82220002295
:1012B0001A84074B02221A700123014A13709DE61B
:1012C00006000020180C0020C40400203C00002070
:1012D0000500002070B50D469DF8106005990129A4
:1012E00007D045490968032918D8DFE801F00E192D
:1012F000495B0024414B1C70414B1C700846FFF7B2
:1013000065FE3D4B1C60032408E03E4A537843F0E1
:10131000340353700131384B19600024204670BDEE
:1013200036490978012910D03AB100210120FFF790
:101330004DFE324B18700024F0E700210846FFF7FD
:1013400045FE2E4B18700024E8E762B123B12D4A08
:10135000537823F02003537056B12A4A537823F070
:101360001003537004E0274A537803F0CB03537003
:101370000024224B1C70204A136801331360CDE710
:101380001E4B1B78012B06D100241C4B1C70013115
:10139000194B1960C2E70021FFF718FE174B1870B0
:1013A0000024BBE716490978012908D03DB1002186
:1013B0002846FFF7BDFD124B18700124AEE762B15D
:1013C00023B1104A537823F02003537056B10D4ACD
:1013D000537823F01003537004E00A4A537803F063
:1013E000CB0353700023064A1370044A1370024A59
:1013F0001360022492E700BFBC03002021030020F9
:10140000D50400202C0000202DE9F04782B00446CE
:101410000E469A4603287FD8DFE800F00221405F9D
:101420008A494B7B887B03EB0023C87B03EB00439B
:10143000097C03EB016386490D681D44002E6ED0C4
:10144000012E03D0022E06D0002769E05B420B601C
:1014500000273D4664E07F4B1F68EF1B60E07B493F
:101460004B7C887C03EB0023C87C03EB0043097DA5
:1014700003EB016376494D681D44002E73D0012EA5
:1014800003D0022E06D000274AE05B424B600027C3
:101490003D4645E06F4B5F68EF1B41E06B498B7841
:1014A000C87803EB0023087903EB0043497903EB89
:1014B000016367498D681D44002E56D0012E03D06C
:1014C000022E06D000272BE05B428B6000273D46B2
:1014D00026E0604B9F68EF1B22E05C498B79C8795E
:1014E00003EB0023087A03EB0043497A03EB016323
:1014F0005749CD681D44002E39D0012E03D0022E4D
:1015000006D000270CE05B42CB6000273D4607E099
:10151000504BDF68EF1B03E000273D4600E000274B
:10152000022E26D04B4B43F824504B4B19684B4AA4
:1015300042F824101A684A4BA3FB02135B0964218A
:1015400001FB1323092B08D8012E06D0454B1B683D
:10155000022B57DC0133434A1360022E61D0284628
:1015600002B0BDE8F0870027DAE70027D8E70027B8
:10157000D6E740F2DB539A421EDD1046FEF73AFFF3
:101580000022394BFFF7CAF880468946324B18686B
:10159000324B53F82430C01AFEF71CFF02460B46AC
:1015A00040464946FEF790FFFFF728FA844677B990
:1015B000284B43F82450B8E7274B1B68274A52F8BA
:1015C00024209B1A4FF0320C0CFB03FCEFE787EA58
:1015D000E773A3EBE773634510DD00231D4A42F870
:1015E000243004E0214A1A44092151700133072BA9
:1015F000F8DD01238AF80030002796E7154B43F801
:10160000245092E71348836842680168CDF804C00B
:10161000C068009016480AF029FA124B00221A609E
:101620009BE70D4B1A680E4BA3FB02135B09642169
:1016300001FB1323092B01D93D4690E72B463A467F
:1016400021460C480AF012FA3D4688E7680000205F
:101650000C03002030040020180C0020200400207F
:101660001F85EB51B40300200000344030000020FF
:101670002CE4000864E400082DE9F04F89B0064628
:101680008A46CDE90423DDF84880149C9DF8545027
:10169000AB1EDBB2012B1DD9D4E90223D8E902012C
:1016A000FEF75AFD029021F00047D4E90423CDE96A
:1016B0000023A44B1A68A44BA3FB02135B0964210B
:1016C00001FB1323092B1FD9032D4CD8DFE805F0AC
:1016D00033647D94D8E90023CDE90023D4E90012D6
:1016E000CDE9021200220023D4E90201FEF7ECFE4C
:1016F000DDE90223FEF730FDDDE90023FEF72EFDD4
:10170000029021F00047D0E7DDE900010BF096FAE6
:10171000CDE90601029839460BF090FAFFF76EF911
:101720008146DDE90601FFF769F94A460146874827
:101730000AF09CF9C8E7D4E90223D8E90201FEF7D0
:101740000BFD04460D4600220023FFF72FF9002869
:1017500069D10022002320462946FFF745F90028D9
:1017600064D04FF0000B0022794B02983946FFF706
:101770003BF9002800F06981BBF1010F00F0C18046
:10178000BBF1000F67D0BBF1020F00F026810024EF
:10179000A1462546A04672E1D4E90223D8E9020118
:1017A000FEF7DAFC04460D4600220023FFF7FEF8A0
:1017B00000283ED10022002320462946FFF714F9D5
:1017C000002839D04FF0010BCDE7D4E90023D8E948
:1017D0000001FEF7C1FC04460D4600220023FFF77E
:1017E000E5F860BB0022002320462946FFF7FCF8FD
:1017F00040B34FF0010BB6E7D4E90023D8E900016C
:10180000FEF7AAFC04460D4600220023FFF7CEF89F
:10181000D8B90022002320462946FFF7E5F8B8B1E1
:101820004FF0000B9FE74FF0010B9CE74FF0020BCE
:1018300099E74FF0000B96E74FF0020B93E74FF05C
:10184000000B90E74FF0020B8DE74FF0010B8AE79A
:101850004FF0020B87E7DDF8088042463B464046E2
:101860003946FEF77BFC04460D460022394BFFF754
:10187000A7F878B90022384B20462946FFF7AAF886
:1018800050BB0022354B40463946FEF71DFE05464B
:10189000884602E00025DFF8CC8000220023DDE945
:1018A0000001FFF7A1F868B100222D4BDDE900012E
:1018B000FEF70AFE02460B4628464146FEF74EFC5E
:1018C0000546884600220023DDE90001FFF76EF897
:1018D00030B90024A146D2E00025DFF87C80DCE7A7
:1018E00000221F4BDDE90001FEF7EEFD02460B462C
:1018F00028464146FEF730FC054688460024A146AE
:10190000BDE0DDF8088042463B4640463946FEF7DA
:1019100025FC04460D4600220E4BFFF751F818BB7C
:1019200000220D4B20462946FFF754F8002840D1ED
:1019300000220A4B40463946FEF7C6FD044689465A
:1019400015E000BF180C00201F85EB51C4E500080E
:10195000000014400000594000C0824000000840D0
:1019600000405F4000C062400024DFF85492002233
:101970000023DDE90001FFF719F8F0B90022002388
:10198000DDE90001FFF730F8002800F0E1800022D7
:10199000854BDDE90001FEF797FD024621F000438B
:1019A00020464946FEF7D8FB044689460025A8464E
:1019B00065E00024DFF80C92D9E700227A4BDDE9DC
:1019C0000001FEF781FD024621F000432046494612
:1019D000FEF7C4FB04468946D0E700220023DDE978
:1019E000004520462946FEF7FFFF80B16AA3D3E9F0
:1019F000002320462946FEF767FD69A3D3E90023AB
:101A0000FEF7ACFB054688460024A14637E00022DD
:101A10000023DDE90001FEF7C9FF20B90024A1463B
:101A20002546A0462BE05CA3D3E90023DDE90001B5
:101A3000FEF74AFD5AA3D3E90023FEF78FFB0446C5
:101A400021F000490025A84619E000220023DDE925
:101A5000004520462946FEF7C7FF00285AD04EA36E
:101A6000D3E9002320462946FEF72EFD4CA3D3E9F7
:101A70000023FEF773FB054688460024A14600229A
:101A80004A4B284628F00041FEF7AEFF50B1002235
:101A9000002328464146FEF7A7FF00285BD000251B
:101AA000DFF808810022414B204629F00041FEF773
:101AB0009BFF50B10022002320464946FEF794FFC9
:101AC00000284CD00024DFF8E4900022384BDDE9F8
:101AD0000401FEF723FECDE904012A464346FEF742
:101AE000F3FCC6E9000122464B46DDE90401FEF79E
:101AF000EBFCCAE900012F4B1A682F4BA3FB021322
:101B00005B09642101FB1323092B2CD9002009B0A8
:101B1000BDE8F08F00220023DDE90001FEF746FF5B
:101B200020B90024A1462546A046A8E71AA3D3E978
:101B30000023DDE90001FEF7C7FC19A3D3E9002368
:101B4000FEF70CFB044621F000490025A84696E765
:101B50000025A84693E70025DFF86C80A2E7002463
:101B6000DFF86490B1E7DDE900010BF067F80446A7
:101B70000D46029839460BF061F8FEF73FFF064626
:101B800020462946FEF73AFF5B46324601460B489F
:101B900009F06CFFBAE700BF0000000000C062401F
:101BA0000000000000C0524000405F4000908A40AA
:101BB00000408F40180C00201F85EB51E4E5000821
:101BC00000C0624000C0824000908AC010B502216F
:101BD000002009F02BFE40B1084B00241C81032299
:101BE0009A720AF00BF9204610BD044B4FF4617253
:101BF0001A8101229A724FF0FF30F5E73C00002075
:101C000010B50121002009F011FE40B1084B00245D
:101C10005C8003221A710AF0EBF8204610BD044BD9
:101C20004FF461725A8001221A714FF0FF30F5E7CC
:101C30003C000020000000002DE9F04FB9B08246C2
:101C40000F46A94C4822214626A80CF061FB9022A1
:101C500004F1480102A80CF05BFB002400940194FD
:101C600000E00134082C1EDC9BA3D3E9002338A933
:101C700001EBC40555E93601FEF726FC45E93601BE
:101C8000022CEEDD0020994938AB03EBC40343E995
:101C9000360104F1090338AA02EBC303002094497A
:101CA00043E93601DDE71FB902230193009CBDE043
:101CB000012F06D0022FF9D10123009302230193B3
:101CC000F4E701230193F1E70AF086F80646B6E04F
:101CD0000AF088F80646B2E0002DB8BF6D42C5F59F
:101CE0000065C2E004EBC4031A440CEBC20252E9E3
:101CF000368900284EDD404649460AF09FFFFEF730
:101D00007DFE04EB44035A007A4B134458800022B2
:101D1000002340464946FEF73FFE80B304EB4403F0
:101D20005A00744B134403221A71734B01221A5543
:101D3000002F58D1704B1B78002B66D06E4B5B7810
:101D4000002B40F099804FF0000B60E00132082A30
:101D5000CFDC80EAE071A1EBE07104EBC403134433
:101D60000DF1E00C0CEB830353F8483C9942B9DACF
:101D7000082AEBD14FF000084FF00009E6E704EB2A
:101D800044035A005B4B134401221A715A4B002240
:101D90001A55CDE7404649460AF050FFFEF72EFEA1
:101DA00004EB44035A00534B134458800022002391
:101DB00040464946FEF7F0FD50B104EB44035A009B
:101DC0004C4B134403221A714B4B01221A55AFE7B7
:101DD00004EB44035A00474B134402221A71464B4A
:101DE00000221A55A4E7012F08D0022F0FD1424B31
:101DF0005B78002B46D04FF0010B08E03E4B1B7880
:101E0000002B3CD04FF0010B01E04FF0000B3B4B9F
:101E10001A683B4BA3FB02135B09642101FB1323EC
:101E2000092B02D88CB3012C40D00134019BA34272
:101E30004DDD002C3FF448AF012C3FF449AF734215
:101E4000C6F30A05C3F30A0358BF5D425046FEF7C6
:101E5000D1FA23A3D3E90023FEF736FB0AF0EEFE06
:101E6000FEF7CCFD002DFFF637AF4FF40062294698
:101E7000FEF7E0FF00226AE74FF0010BC7E74FF0E3
:101E8000000BC4E74FF0000BC1E72846FEF7B2FA9B
:101E900000221C4BFEF718FB0AF0D0FEFEF7AEFD49
:101EA00052460146184809F0E1FDBEE72846FEF714
:101EB000A1FA0022134BFEF707FB0AF0BFFEFEF764
:101EC0009DFD52460146114809F0D0FDADE7584648
:101ED00039B0BDE8F08F00BF713D0AD7A370ED3F68
:101EE000176CC1166CC1164040E3000800B08D406D
:101EF00000208C403C000020C4030020180C00206F
:101F00001F85EB510080C63F9CE60008B8E600083C
:101F100038B501290FD004462F4B1B7873BB2F4BCC
:101F20001B787BB12D4B5B789BB12C4B1B78012B25
:101F300016D0002005E0294B002018705870264B61
:101F4000187038BD0121E120FFF776FE234B187091
:101F5000E8E70221DC20FFF76FFE204B5870E4E732
:101F60001E4B5B78012B01D00020EAE71A4B0122BF
:101F70001A701A4B002018705870E2E70121E12016
:101F8000FFF75AFE0221DC20FFF756FE656910A319
:101F9000D3E90023206925F00041FEF707FD50B981
:101FA0000F4B03221A749A750022DA819A820A4B27
:101FB0001A700120C5E70A4B01221A749A7540F67F
:101FC000B832DA814FF448629A820020B9E700BF44
:101FD0000000000000A06540A60300209804002037
:101FE0003C000020000000002DE9F04F9FB00446A7
:101FF0001E469DF8A4709DF8A85000238DF81F3050
:102000008DF81E308DF81D308DF81C308DF81B308A
:10201000012900F08D80002A40F0B080924B1B789F
:10202000002B37D1914B80A1D1E90001C3E9000118
:102030007FA1D1E90001C3E902017FA1D1E900013B
:10204000C3E904017EA1D1E90001C3E906014FF013
:102050000008DFF82892C3E9088900200021C3E9BD
:102060000A01C3E90C89C3E90E0177A1D1E9000196
:10207000C3E9100176A1D1E90001C3E912010FF211
:10208000D819D9E90089C3E91489C3E91601764B47
:1020900001221A70764B988ADB891844FEF7AAF958
:1020A0000022744BFEF710FAFEF7A8FC0646002F3C
:1020B00040F0B3800025032D7FDC0DF11B03324679
:1020C00002212846FFF7A0F91EAB03EB850343F876
:1020D000580C0135EFE7CA00A31800260027C3E912
:1020E0000067654B1344C3E9006701310229F2DD43
:1020F0000DF11A03002201210846FFF785F90DF1C1
:102100001A03002201210320FFF77EF90DF11A03C3
:10211000002201211046FFF777F90DF11A03002282
:1021200001210220FFF770F900201FB0BDE8F08FF9
:102130000021DBE7D7E900014F4B03EBC503C3E9FF
:1021400000010135022D1BDC735D002BF9D0EB0083
:10215000289AD7182344D7E90001C3E90001012DCB
:10216000E8D83FA3D3E90023D7E90001FEF7ACF993
:10217000414B03EBC503C3E90001E2E70025E1E7BA
:102180000DF11A03002201210846FFF73DF90DF178
:102190001A03002201210320FFF736F90DF11A037B
:1021A000002201211046FFF72FF90DF11A0300223A
:1021B00001210220FFF728F9B6E79DF81B3053BB39
:1021C000002778E11EAA02EB8302002142F8581C86
:1021D0000133032BF6DD0DF11A030022012108461D
:1021E000FFF712F90DF11A03002201210320FFF776
:1021F0000BF90DF11A03002201211046FFF704F933
:102200000DF11A03002201210220FFF7FDF800233F
:102210008DF81B30D4E70023DBE7032DD0D8DFE8AF
:1022200005F0AAAA2F2F00BF0A5D4647DB93ACBF7B
:102230007362E6D02773E1BF0A5D4647DB93AC3F8C
:102240001A3B335EB019DD3FCD7E4F03344AD33F96
:102250004A1B3DA0F550CF3FCD7E4F03344AD3BF3C
:1022600004B6B7E795294B40B103002028030020AE
:102270003C0000200000E03F080400200000E0BF18
:102280000DF11F03024602210020FFF7BDF80546AD
:1022900008900DF11E03002202210120FFF7B4F87F
:1022A00009900DF11D03324602210846FFF7ACF8F4
:1022B00006460A9007AB002202210320FFF7A4F88C
:1022C0000B909DF81E3033BB9DF81C305BBB9DF816
:1022D0001F3083BB9DF81D30ABBB9DF81E2012B98B
:1022E0009DF81C3013B1002309930B939DF81F3008
:1022F0008BB39DF81D1071BB089643B99DF81D3036
:102300002BB99DF81C3013B9002A3FF459AF0123B3
:102310002B9A137054E70DF11A030022012108468D
:10232000FFF772F8D0E70DF11A0300220121032014
:10233000FFF76AF8CBE70DF11A03002201211046DE
:10234000FFF762F8C6E70DF11A030022012102200F
:10235000FFF75AF8C1E723B99DF81D1009B10A9596
:10236000CBE7002BC9D09DF81D100029C5D0002156
:1023700008910A91C1E70DF11F03002202211046C6
:10238000FFF742F808900DF11E03324602210120AA
:10239000FFF73AF8074609900DF11D0300220221CC
:1023A0000846FFF731F80A9007AB324602210320B6
:1023B000FFF72AF805460B909DF81E303BBB9DF8B1
:1023C0001C3063BB9DF81F308BBB9DF81D30B3BB29
:1023D0009DF81D2012B99DF81F3013B100230893FA
:1023E0000A939DF81C3093B39DF81E1079BB7F4271
:1023F0000B979DF81F1031B92AB923B99DF81E30EB
:10240000002B3FF4DDAE01232B9A1370D8E60DF1BB
:102410001A03002201210846FEF7F6FFCFE70DF16F
:102420001A03002201210320FEF7EEFFCAE70DF197
:102430001A03002201211046FEF7E6FFC5E70DF161
:102440001A03002201210220FEF7DEFFC0E72BB9AC
:102450009DF81E1011B16D420995CAE7002BC8D036
:102460009DF81E100029C4D0002109910B91C0E7EE
:1024700005EB8702A44B03EBC203D3E900891EAB33
:1024800003EB850353F8580CFDF7B4FF02460B46E7
:1024900040464946FEF718F802460B461EA901EBD6
:1024A000C70656E90601FDF759FE46E90601013562
:1024B000032DDDDD0137022F08DC002000211EABDB
:1024C00003EBC70343E906010025F1E78F4BD3E98E
:1024D0000467DDE91C2330463946FDF73FFECDE9B0
:1024E00016017FA3D3E9002330463946FDF7ECFF00
:1024F0007DA3D3E90023FDF7E7FF7DA3D3E9002304
:102500000AF032FC8146884677A3D3E90023484687
:1025100028F00041FEF75EFA80B100220023484611
:102520004146FEF757FA00285CD071A3D3E9002397
:1025300048464146FDF710FE81468846734DD5E971
:102540000067DDE918AB484641460AF02FFBCDE9AC
:10255000000102460B4650465946FDF7B5FF0246BC
:102560000B4630463946FDF7F9FDCDE90401DDE9BA
:102570001A67484641460AF0AFFB02460B46CDE9D2
:10258000022330463946FDF79FFF02460B46DDE940
:102590000401FDF7E3FDCDE91201D5E90289DDE98A
:1025A000022350465946FDF78FFF02460B46404630
:1025B0004946FDF7D1FD8046894632463B46DDE976
:1025C0000001FDF781FF02460B4640464946FDF7F4
:1025D000C5FDCDE91401032212A92846FEF75EFCD1
:1025E000002516E042A3D3E9002348464146FDF703
:1025F000B5FD81468846A1E71EAB03EBC5063EA3A9
:10260000D3E9002356E90C01FDF75EFF46E912010C
:102610000135012DF0DD3AA3D3E90023DDE91601F0
:10262000FDF752FFCDE910010022394B0AF09CFB67
:1026300006460D4602460B46CDE910230022354BD7
:10264000304625F00041FEF7C5F978B1002200239D
:1026500030462946FEF7BEF9002835D000222C4B23
:1026600030462946FDF778FDCDE9100103220CA97B
:102670002046FEF713FC284B1A68284BA3FB0213D5
:102680005B09642101FB1323092B3FF64DADD4E90F
:102690000067D4E902890022214BD4E90401FDF747
:1026A00013FFFEF7ABF9054640464946FEF7A6F98B
:1026B000044630463946FEF7A1F92B46224601462C
:1026C000184809F0D3F92FE50022114B304629466E
:1026D000FDF744FDCDE91001C8E700BFAFF300806E
:1026E000682FA1BD84F6F23E182D4454FB21094009
:1026F000182D4454FB211940D221337F7CD9923FBD
:10270000ABAAAAAAAAAA6A3F2803002008040020AC
:102710000080764000806640180C00201F85EB5139
:102720000000594070E600082DE9F04F8FB0824656
:102730008B46CDE9042300238DF81B30D0E90045FA
:1027400022462B468349D1E90001FEF725F9C0B1A5
:10275000DAE902237F49D1E90201FEF71DF980B1D0
:10276000DBE900237C49D1E90001FEF715F940B10E
:10277000DBE902237849D1E90201FEF70DF90028CF
:1027800036D10123754A1370754A1370714BC3E932
:102790000045DAE90289C3E90289DBE900016E4BF1
:1027A000C3E90001DBE90267C3E9026722462B4661
:1027B000FDF7D2FC04460D4600220023FEF7ECF89C
:1027C000002830D042464B4630463946FDF7C4FC1F
:1027D00000220023FEF7FEF808B3624B02221A70B3
:1027E000002200236049C1E900236049C1E90023B8
:1027F0005B4B1B7833B15E4B1A685E4B1A60584BCB
:1028000000221A70554B1B78002B00F09B80554B13
:102810001B78032B28D8DFE803F06279214D514B58
:1028200003221A70DCE742464B4630463946FDF734
:1028300093FC00220023FEF7AFF80028D0D000223E
:10284000002320462946FEF7C5F818B1454B002263
:102850001A70C5E7434B01221A70C1E7464B1B783B
:10286000D3B1454B5B78F3B1434B1B78012B64D05C
:102870003F4B1B683F4A12689B1A40F2DC5293425E
:1028800040F283810023354A1370354A13703A4A67
:102890001370537004243FE10121B420FFF7CCF9F9
:1028A000354B1870DDE70221AF20FFF7C5F9324B39
:1028B0005870D9E7304B1B7853B12F4B5B78002B06
:1028C000D2D10221AF20FFF7B7F92B4B5870CBE7DD
:1028D0000121B420FFF7B0F9274B1870EDE7264B24
:1028E0001B785BB1244B5B78002BBDD1022140F2F9
:1028F0000910FFF7A1F9204B5870B5E701214FF4FB
:102900008770FFF799F91C4B1870EBE71A4B1B788F
:102910005BB1194B5B78002BA6D1022140F2091064
:10292000FFF78AF9144B58709EE701214FF4877026
:10293000FFF782F9104B1870EBE70F4B5B78012B18
:1029400096D19FE7074B1B78032B1FD8DFE803F0D6
:10295000ABB616A24004002060040020A0030020B3
:10296000A1030020B803002088040020A803002051
:10297000180C00209C040020940400200121B320A6
:10298000FFF75AF90221B020FFF756F986480DF1FA
:102990001B030393854B1B78029301230193009043
:1029A00007AB00221146FFF71FFB9DF81B3023B138
:1029B0007F4B01221A707F4B1B687C4E33787A4D17
:1029C00003939DF860300293DDE90434CDE90034CF
:1029D0002B465A4651460CA8FEF74EF8044633786B
:1029E00003930295CDF804B0CDF800A0DDE90C23E7
:1029F00008A90AA8FEF740FEDDE90C67DDE90A2315
:102A000030463946FDF7AAFB804689466A4BC3E942
:102A10000089DDE9082330463946FDF79FFB06466D
:102A20000F46664BC3E90067002200234046494633
:102A3000FDF7BCFF00284CD1002200233046394668
:102A4000FDF7B4FF00284AD155A3D3E900235A4922
:102A5000D1E90001FDF7C8FF28B1574B50A1D1E9DA
:102A60000001C3E900014EA3D3E900235349D1E992
:102A70000001FDF7B9FF28B1504B49A1D1E9000190
:102A8000C3E90001494B1B78032B43D8DFE803F06F
:102A90005F2D2D5F0121B420FFF7CEF80221AF207A
:102AA000FFF7CAF872E701214FF48770FFF7C4F807
:102AB000022140F20910FFF7BFF867E701214FF448
:102AC0008770FFF7B9F8022140F20910FFF7B4F858
:102AD0005CE7394B00200021C3E90001ACE7374B2C
:102AE00000200021C3E90001AEE7354D01232B741E
:102AF0000223AB75304BD3E900010AF09FF8FDF7D4
:102B00007DFFE8812D4BD3E900010AF097F8FDF72E
:102B100075FFA882032C30D0264B1A68294BA3FBE3
:102B200002135B09642101FB1323092B0BD8204BF3
:102B30001B7863B3244808F099FF9DF81B3053BB02
:102B4000224808F093FF20460FB0BDE8F08F1C4DDF
:102B500002232B740123AB75184BD3E900010AF053
:102B60006DF8FDF74BFFE881134BD3E900010AF044
:102B700065F8FDF743FFA882CCE7114B0022DA810C
:102B80009A8203221A749A75C6E70424C4E710488F
:102B900008F06CFFD1E70F4808F068FFD3E700BFEB
:102BA000000000008087C340F0030020B80300202D
:102BB00092030020180C002088040020A8030020A5
:102BC0003C0000201F85EB5110E600085CE6000881
:102BD0002CE6000848E6000808B505F031FD0020A5
:102BE00008BD000000000000F0B58FB0974B9B7847
:102BF00013F0400F02D1964B01221A70934B9A7832
:102C00005A789B7813F0100F02D1924B01221A7060
:102C10008E4B9B7803F00303032B04D08B4B9B78E4
:102C200013F0010F02D18C4B01221A70874B9B7855
:102C300003F00303032B01D0844B9B78834B9B78D9
:102C400003F00C030C2B04D0804B9B7813F0040F83
:102C500002D1824B01221A707C4B9B7803F00C034B
:102C60000C2B04D0794B9B7813F0080F02D17C4BCE
:102C700001221A70754B5A785A785A785B784FF45B
:102C80000061002008F0D2FD10B1764B01221A70CD
:102C90002021022008F0CAFD10B1734B01221A70E6
:102CA0004FF48051002008F0C1FD10B16F4B01229C
:102CB0001A704FF48071022008F0B8FD10B16C4B0F
:102CC00001221A704FF40061002008F0AFFD50B9E6
:102CD000644B1B783BB1674B01221A700023664A94
:102CE0001370604A13704FF48071022008F09EFD4B
:102CF00050B95F4B1B783BB100235E4A13705E4AAC
:102D0000012111705A4A13705B4B1B78002B7AD14A
:102D10004E4B9B7803F00303032B13D04B4B9B7854
:102D200013F0010F0ED04C4B1B785BB1534A136864
:102D300001331360042B02DD134600221A60464B58
:102D400000221A70414B9B7803F00C030C2B07D028
:102D50003E4B9B7813F0040F02D0404B1B783BB9DD
:102D60002021022008F062FD98B93F4B1B7883B107
:102D7000434B1B780C2B53D00133414A1370002373
:102D80003C4A13703C4A01211170344A1370364A90
:102D900013702E4B9B7803F00C030C2B07D02B4B9E
:102DA0009B7813F0080F02D02D4B1B7843B94FF4DA
:102DB0008051002008F03AFD90B92C4B1B787BB174
:102DC0002F4B1B7883BB2E4B0C221A700023294AF1
:102DD0001370294A01211170214A1370234A13707C
:102DE000274B1B780C2B57D8DFE813F0CA2AB70003
:102DF000E300670510011C0B91143814DF13EA146B
:102E00005C202200A3000121022008F00FFD18B968
:102E10001C4B01221A707BE71A4B00221A7077E7CD
:102E2000174B00221A70AAE7013B154A1370CDE731
:102E3000114B1B7873B3134B1B78012B26D04BBB64
:102E4000114B0422DA711A7224E000BF1C0C00201E
:102E500088030020CC040020CE0400209004002031
:102E6000B0030020D4030020D3030020D1030020AE
:102E7000D2030020A703002001000020240300202B
:102E800003000020A303002030000020AE4B0222EC
:102E9000DA711A72FDF7E6FFAC4B1B78002B05F0D8
:102EA000A082AB4B5B7813F0080F04D0A84B5B7883
:102EB00013F0020F05D14FF48071022008F0B6FC28
:102EC00038BB0DF11703002201211046FEF79CFAD2
:102ED0000DF11703002201210846FEF795FA0DF1C6
:102EE0001703002201210220FEF78EFA0DF11703CD
:102EF000002201210320FEF787FA96480DF1160300
:102F0000039300220292019200900DAB0121FFF782
:102F10006BF8914B1A68914BA3FB02135B09642178
:102F200001FB1323092B45F29F82002318460FB0A3
:102F3000F0BD8B4B1B786BB18A4B1B78012B05D0F6
:102F400043B9814B0422DA711A7203E07E4B0222EC
:102F5000DA711A72FDF786FF9EE7814B1B78ABB1E1
:102F6000804B1B78012B06D053B9774B0C22DA71BA
:102F70000A221A7204E0744B0C221A720A22DA71C5
:102F80000220FDF79BFF784B01221A70774B1B78CC
:102F9000002B81D0744B1B78002B3FF47DAF0020B9
:102FA000FDF78CFF02287FF477AF6F4B00221A7079
:102FB00072E76B4B1B78ABB16A4B1B78012B06D0C9
:102FC00053B9614B0C22DA7108221A7204E05E4B8D
:102FD0000C221A720822DA710220FDF76FFF624B91
:102FE00001221A70614B1B78002B3FF455AF5E4BEA
:102FF0001B78002B3FF450AF0120FDF75FFF022844
:103000007FF44AAF584B00221A7045E7544B1B78A7
:103010009BB9564B1B78002B3FF43EAF544B1C68BA
:10302000072C3FF639AFDFE814F06800EE00170216
:103030009302A8020303930300044E4A537803F05B
:10304000C30353700DF11703002201211046FEF750
:10305000DBF90DF11703002201210846FEF7D4F930
:103060000DF11703002201210220FEF7CDF90DF129
:103070001703002201210320FEF7C6F9354E0DF19A
:103080001603039300240294019400960DAB22468C
:1030900001213046FEF7A8FF374B1C60374B1C6000
:1030A0000125374B1D70374B1C70374B1C70374B4D
:1030B0001C7029463046FEF72BFF354B1C70FDF780
:1030C000D1FE2B4B1C6001950094234622462146DD
:1030D0000220FEF7FFF8234B1B78AB4207D0002BF2
:1030E00097D1194B0C22DA710D221A7291E7164B07
:1030F0000C221A720D22DA718BE7214B1B78002B00
:103100006BD014480DF11603039300210291019135
:1031100000900DAB0A46FEF767FF1E490022002310
:10312000C1E90023C1E902231B49C1E9002304A32B
:10313000D3E90023C1E9022335E000BFAFF30080EB
:1031400000000000000CB740300000200300002009
:103150001C0C0020D8030020180C00201F85EB5108
:1031600001000020A3030020A2030020A7030020E9
:10317000C80300202C000020CC0300208C0300207A
:103180000200002020030020A4030020A50300204B
:10319000CD040020A0040020B00400209E4B234456
:1031A00003225A700134072CF8DD9C4B00221A7060
:1031B0009B4B1B78002B7FF46FAE00220192009294
:1031C00013464FF0FF310420FEF784F802287FF405
:1031D00063AE934B01221A705EE6012301930093C4
:1031E00087A3D3E900238F498F48FFF79DFA8F4BC0
:1031F00018700328DCD1894B01221A708C4A13689D
:1032000001331360D4E7854B1B7863BB894B1B6884
:10321000894A12689B1A40F6C3118B4252D9854BDA
:103220001B689B1A40F6AB518B4275D9814B1B68CA
:103230009A1A41F293139A4250D80121F020FEF7D6
:10324000FBFC0221EB20FEF7F7FC7C4B1B78012BEB
:1032500000F08780002B40F08980794B02221A749D
:1032600001229A7582E0774D0DF116030393002435
:103270000294019400950DAB224621462846FEF7A4
:10328000B3FE694B00200021C3E90001D5E902012A
:10329000C3E90201634B00266B4FC3E90067C3E932
:1032A0000201234604E05C4A1A44022151700133B2
:1032B000072BF8DD594B00221A705E4B1A685E4BE3
:1032C0001A6014E00123019300934FA3D3E9002374
:1032D00054495548FFF728FA544B1870554B1B6852
:1032E000554A12689B1A41F29312934244D84C4BB0
:1032F0001B78002B7FF4D0AD002201920092134680
:103300004FF0FF310420FDF7E5FF02287FF4C4AD44
:10331000434B01221A70BFE54C4A537843F008032F
:10332000537001214FF49670FEF786FC022140F2A3
:103330002710FEF781FC414B1B78012B06D053B9B7
:103340003F4B02221A7401229A7504E03C4B012281
:103350001A7402229A753A4B40F6AC52DA819A827C
:10336000BCE7374B01221A7402229A75344B40F69F
:10337000AC52DA819A82B1E7314B03221A749A7502
:103380000022DA819A82294B042119702A4B1A6093
:10339000FDF77AFD01238DF834308DF835308DF846
:1033A0003630264B1B78012B05D043B90022284B21
:1033B000CDE9062303E00022264BCDE9062314A322
:1033C000D3E90023CDE9082300220023CDE90A2315
:1033D0000DF11603039300210291019106AB0093B6
:1033E0000DAB01221748FEF7FFFD0C4B01221A70AE
:1033F0000F4A13680133136079E700BFAFF3008011
:10340000000000000094B140000000000018A5403A
:1034100000000000000CB740300000200200002037
:10342000A4030020B0040020A00400200400002019
:10343000C8030020180C00208C030020A3030020E8
:103440003C000020D803002000409F402C000020BA
:1034500000006940000069C08D4B1B78B3B18D4BF3
:103460001B7813BB8C4B1B78032B64D1884B1B78C8
:10347000002B3FF411AD874B01221A70874A136865
:1034800001331360824B00221A7005E5002201927D
:10349000009213464FF0FF310420FDF71BFF022876
:1034A000DDD17B4B01221A70D9E77D480DF116035F
:1034B000039300210291019100900DAB0A46FEF7A3
:1034C00093FD784B1B78012B14D0002B24D1764B25
:1034D00000207649C3E90001714AD2E90201C3E93B
:1034E0000201734B62A5D5E90045C3E90045C3E974
:1034F000020111E06C4B00206E49C3E90001684AEB
:10350000D2E90201C3E90201694B5BA5D5E9004597
:10351000C3E90045C3E90201002304E0664A1A44F6
:10352000042151700133072BF8DD0023594A137031
:10353000594A1370B0E401230193009350A3D3E9D7
:1035400000235B495848FFF7EFF8534B1870A3E48A
:103550005A4B1B78012B06D000210220FDF736FDC7
:10356000564B187098E44B4B01221A7014444B4B85
:103570001C60524B00221A708EE4464B1B78C3B974
:10358000454B1B78032B42D14D4A537843F030030F
:1035900053704C4B1B684C4A12689B1AB3F5FA7F68
:1035A0007FF67AAC3B4B01221A7014443B4B1C60F3
:1035B00072E43B4D0DF11603039300240294019431
:1035C00000950DAB224621462846FEF70DFDD5E9B4
:1035D0000001354EC6E90001D5E90223C6E9022300
:1035E000334BC3E9000128A1D1E90001C3E902017D
:1035F000234604E0304A1A44052151700133072B59
:10360000F8DD0023234A1370234A137044E4012396
:10361000019300931AA3D3E9002325492248FFF719
:1036200083F81D4B1870274B1A68274B1A6033E438
:10363000184B1B78002B49D1174B1B78032B75D1E6
:103640001F4A537803F0F70343F0040353701D4BF4
:103650001B681D4A12689B1AB3F5FA7F7FF61CACF3
:103660000C4B01221A7014440C4B1C6014E400BF74
:103670000000000000589BC00000000000589B4064
:10368000000000000070A7400000000000C8B94022
:10369000A40300200200002004000020C803002032
:1036A000D8030020A3030020A004002000006940EC
:1036B000B0040020000069C030000020200300207A
:1036C0002C000020180C00201C030020944D0DF14C
:1036D0001603039300240294019400950DAB224637
:1036E00021462846FEF780FCD5E900018D4BC3E951
:1036F000000181A7D7E90067C3E902678A4BC3E9E4
:1037000000017FA1D1E90001C3E90201234604E0E1
:10371000864A1A44062151700133072BF8DD002335
:10372000834A1370834A1370FFF7B6BB01230193DA
:10373000009375A3D3E900237B497A48FEF7F4FF91
:103740007C4B18707C4B1A687C4B1A60FFF7A4BB4B
:10375000774B1B785BB9774B1B78032B58D1744B95
:1037600001221A701444764B1C60FFF795BB754C10
:103770002368013323606A480DF116030393002187
:103780000291019100900DAB0A46FEF72DFC2368D3
:10379000312B38DD6C4B1B78012B14D0002B24D13E
:1037A000604B5BA1D1E90001C3E900015C4AD2E9A9
:1037B0000201C3E902015C4B00240025C3E9004576
:1037C000C3E9020111E0574B53A1D1E90001C3E95C
:1037D0000001534AD2E90201C3E90201524B00241D
:1037E0000025C3E90045C3E90201002304E04F4A74
:1037F0001A440F2151700133072BF8DD0023514A81
:1038000013604B4A13704B4B00221A70FFF744BBF6
:1038100001230193009300224C4B43494148FEF79A
:1038200083FF444B1870FFF737BB414B1B78002BCD
:103830002CD03B4D0DF11603039300240294019408
:1038400000950DAB224621462846FEF7CDFBD5E973
:103850000001344BC3E9000129A7D7E90067C3E998
:103860000267314BC3E9000100200021C3E90201D6
:10387000234604E02D4A1A440E2151700133072BD0
:10388000F8DD2B4B00221A70FFF706BB01230193D2
:10389000009300222D4B24492248FEF745FF254B7B
:1038A000187003287FF4F8AA214B01221A70244AC9
:1038B000136801331360FFF7EFBA254B1B78002B19
:1038C0004AD1244B1B78002B3FF4E6AA1C4B1C6802
:1038D0000E2C3FF6E1AADFE814F09A00F000ED01AB
:1038E00054026B02CA025D037A03C203DE030904B9
:1038F0009304AF040C055D050000000000C8B9404A
:1039000000000000000CB740000000000070A7405D
:103910000000000000589BC00000000000589B40C1
:10392000D8030020A0040020B004002030000020B4
:103930000200002004000020180C00201C030020BE
:10394000C8030020CC030020A30300200040AF40A8
:1039500001000020A7030020AB4A537803F0C30303
:1039600053700DF11703002201211046FDF74CFDA5
:103970000DF11703002201210846FDF745FD0DF169
:103980001703002201210220FDF73EFD0DF1170370
:10399000002201210320FDF737FD9C480DF116039D
:1039A000039300240294019400900DAB2246012160
:1039B000FEF71AFB964B1C60964B1C600125964B3C
:1039C0001D70964B1C70964B1C70FDF74BFA954B77
:1039D0001C6029462846FDF7F9FA01950094234614
:1039E000224621460220FDF775FC8F4B1B78AB4227
:1039F00008D0002B7FF465AF8C4B0122DA710C22CA
:103A00001A725EE7894B1D720C22DA7159E7824BFC
:103A10001B78002B3BD07D480DF11603039300214A
:103A20000291019100900DAB0A46FEF7DDFA804944
:103A300000220023C1E90023C1E902237D49C1E935
:103A400000236DA3D3E90023C1E9022304E0774BEF
:103A5000234403225A700134072CF8DD6E4B0022F8
:103A60001A706F4B1B78002B7FF416AA002201926C
:103A7000009213464FF0FF310420FDF72BFC022883
:103A80007FF40AAA664B01221A70FFF705BA0123D8
:103A9000019300935AA3D3E9002366496448FEF7D3
:103AA00043FE654B18700328DBD15B4B01221A7073
:103AB0005C4A136801331360D3E7574B1B7843BB51
:103AC0005E4B1B68534A12689B1A40F6C3118B4227
:103AD0004ED95A4B1B689B1A40F6AB518B4271D999
:103AE000564B1B689B1A41F2931293424BD801210B
:103AF000F020FEF7A1F80221EB20FEF79DF8504BD5
:103B000002221A7401229A7540F6AC52DA819A8226
:103B100039E03E4D0DF11603039300240294019405
:103B200000950DAB224621462846FEF75DFA404B34
:103B300000200021C3E90001D5E90201C3E9020127
:103B40003C4B00263F4FC3E90067C3E9020123460F
:103B500004E0364A1A44022151700133072BF8DD84
:103B60002D4B00221A70354B1A682A4B1A6013E04D
:103B70000123019300930022324B2E492C48FEF77B
:103B8000D3FD2D4B18702D4B1B68224A12689B1ACF
:103B900041F29312934257D8214B1B78002B7FF4AC
:103BA0007BA900220192009213464FF0FF310420BE
:103BB000FDF790FB02287FF46FA9194B01221A70C0
:103BC000FFF76AB9104A537843F008035370012194
:103BD0004FF49670FEF730F8022140F22710FEF7FE
:103BE0002BF8174B02221A7401229A7540F6AC5238
:103BF000DA819A82C7E700BF00000000000CB740DE
:103C0000000000000094B1402C000020D8030020E8
:103C1000CC0300208C0300200200002020030020A1
:103C2000A4030020C8030020A303002030000020CC
:103C3000A0040020B004002004000020180C002084
:103C40003C00002000409F40A14B03221A749A754B
:103C50000024DC819C829F4B04221A709E4B1C60C6
:103C6000FDF712F901258DF834508DF835508DF897
:103C700036500022994BCDE906238DA3D3E90023CA
:103C8000CDE9082300220023CDE90A230DF1160314
:103C900003930294019406AB00930DAB2A46214690
:103CA0008F48FEF7A1F98F4B1D708F4A13682B4484
:103CB000136071E78D4B1B78BBB18A4B1B781BBB24
:103CC000844B1B78032B4ED1884B1B78002B3FF481
:103CD000E3A8844B01221A70834A136801331360EE
:103CE000824B00221A70FFF7D7B80022019200928F
:103CF00013464FF0FF310420FDF7ECFA0228DCD127
:103D00007A4B01221A70D8E7754D0DF11603039313
:103D100000240294019400950DAB224621462846CA
:103D2000FEF762F9724B00207249C3E90001D5E940
:103D30000201C3E90201704B5FA7D7E90067C3E93D
:103D40000067C3E90201234604E06C4A1A440421D7
:103D500051700133072BF8DD0023624A13705D4A6E
:103D60001370FFF799B801230193009354A3D3E98B
:103D7000002361495E48FEF7D7FC564B1870FFF7E9
:103D80008BB85F4B1B78012B07D000210220FDF779
:103D90001DF95B4B1870FFF77FB8524B01221A7068
:103DA0001444514B1C60564B00221A70FFF774B834
:103DB0004C4B1B78CBB9474B1B78032B45D1514A51
:103DC000537843F0300353704F4B1B684F4A1268CF
:103DD0009B1AB3F5FA7F7FF65FA8424B01221A7057
:103DE0001444414B1C60FFF757B83D4D0DF11603CD
:103DF000039300240294019400950DAB22462146C2
:103E00002846FEF7F1F8D5E90001394BC3E9000176
:103E100027A7D7E90067C3E90267374BC3E9000169
:103E200029A1D1E90001C3E90201234604E0334A94
:103E30001A44052151700133072BF8DD0023294A6C
:103E40001370244A1370FFF727B8012301930093DE
:103E50001BA3D3E9002328492548FEF765FC1D4B29
:103E60001870294B1A68294B1A60FFF715B81D4BBB
:103E70001B78002B4CD1174B1B78032B78D1214A90
:103E8000537843F0040353701F4B1B681F4A12689A
:103E90009B1AB3F5FA7F7EF6FFAF124B01221A7020
:103EA0001444114B1C60FEF7F7BF00BFAFF3008056
:103EB00000000000000CB7400000000000C899C0DE
:103EC000000000000070A7400000000000C8B940DA
:103ED0003C000020040000208C030020000069400A
:103EE000D803002002000020C8030020A403002003
:103EF000A004002000806640B004002030000020B4
:103F0000200300202C000020180C00201C0300209F
:103F1000AB4D0DF116030393002402940194009518
:103F20000DAB224621462846FEF75EF8D5E9000192
:103F3000A44BC3E9000198A7D7E90067C3E902676A
:103F4000A14BC3E9000196A1D1E90001C3E9020137
:103F5000234604E09D4A1A44062151700133072B81
:103F6000F8DD00239A4A13709A4A1370FEF794BF43
:103F70000123019300938CA3D3E900239249914834
:103F8000FEF7D2FB934B1870934B1A68934B1A6051
:103F9000FEF782BF924B1B78002B7EF47DAF01931E
:103FA0000122009213464FF0FF310220FDF792F9F3
:103FB00002287EF471AF8A4B00221A70844B0122D2
:103FC0001A70884A136801331360FEF765BF804B8F
:103FD0001B78002B2BD07A4D0DF116030393002490
:103FE0000294019400950DAB224621462846FDF728
:103FF000FBFFD5E90001734EC6E90001D5E90223B4
:10400000C6E90223704BC3E9000100207649C3E9E9
:104010000201234604E06D4A1A440E215170013317
:10402000072BF8DD6A4B00221A70FEF735BF01231B
:10403000019300935CA3D3E9002363496148FEF731
:1040400073FB644B187003287EF426AF604B01228B
:104050001A70644A136801331360FEF71DBF634B87
:104060001B78012B07D000210320FCF7AFFF5F4B2B
:104070001870FEF711BF5E4A537843F02003537067
:10408000534B01221A701444564B1C60574B0022AC
:104090001A70FEF701BF4E4B1B7843B14E4B1A68A6
:1040A0004E4B1A604A4B00221A70FEF7F5BE4A4B7F
:1040B0001B684A4A12689B1AB3F5967F0DD94D4B7F
:1040C000032283F8222000221A84414B01221A7015
:1040D0001444444B1C60FEF7DFBE464B012283F8BC
:1040E000222040F6B8321A84FEF7D6BE384B1B7831
:1040F000002B36D0404A136801331360312B7EF712
:10410000CBAE2F4D0DF116030393002402940194BE
:1041100000950DAB224621462846FDF765FF294B49
:1041200023A1D1E90001C3E90001D5E90201C3E9F6
:104130000201254B20A7D7E90067C3E90067C3E95F
:104140000201234604E0214A1A440F215170013331
:10415000072BF8DD0023284A13601D4A1370FEF771
:104160009BBE01230193002300930022234B164999
:104170001448FEF7D9FA174B187003287EF48CAE5A
:10418000134B01221A70174A136801331360FEF7AC
:1041900083BE00BFAFF300800000000000C8B9403C
:1041A00000000000000CB740000000000070A740B5
:1041B0000000000000C899C0000000000064A9C011
:1041C000D8030020A0040020B0040020300000200C
:1041D0000200002004000020180C00201C03002016
:1041E000A4030020C80300200000B94020030020E1
:1041F0002C0000203C000020CC03002000409F4009
:104200009B4A537843F0340353709A4B1B78012B2D
:1042100007D000210220FCF7D9FE964B1870FEF75C
:104220003BBE954B01221A701444944B1C60914B79
:1042300000221A70FEF730BE8F4B1B78CBB9904B23
:104240001B78032B44D18A4A537823F00803537018
:104250008C4B1B688C4A12689B1AB3F5FA7F7EF66A
:104260001BAE854B01221A701444844B1C60FEF770
:1042700013BE864D0DF1160303930024029401949E
:1042800000950DAB224621462846FDF7ADFED5E947
:1042900000017F4BC3E9000100267E4FC3E902679E
:1042A0007D4BC3E900016EA1D1E90001C3E9020120
:1042B000234604E0794A1A44062151700133072B42
:1042C000F8DD00236C4A13706D4A1370FEF7E4BDED
:1042D0000123019300930022714B6F496C48FEF754
:1042E00023FA674B1870674B1A68674B1A60FEF722
:1042F000D3BD614B1B78002B35D06A4A136801335C
:104300001360632B7EF7C8AD604D0DF11603039368
:1043100000240294019400950DAB224621462846C4
:10432000FDF762FE5A4B50A1D1E90001C3E900013B
:10433000D5E90201C3E90201574B00260027C3E972
:104340000067C3E90201234604E0544A1A440F21DE
:1043500051700133072BF8DD0023524A1360464A9F
:104360001370FEF799BD01230193009300224E4B79
:1043700049494748FEF7D8F9414B187003287EF4A5
:104380008BAD3D4B01221A703C4A13680133136018
:10439000FEF782BD384B1B78002B2CD03B4D0DF126
:1043A0001603039300240294019400950DAB22465A
:1043B00021462846FDF718FED5E90001344BC3E934
:1043C000000127A7D7E90067C3E90267324BC3E9B9
:1043D000000100200021C3E90201234604E02F4A26
:1043E0001A440E2151700133072BF8DD224B0022B5
:1043F0001A70FEF751BD01230193009300222A4B4E
:1044000025492348FEF790F91D4B187003287EF4C8
:1044100043AD194B01221A70184A13680133136017
:10442000FEF73ABD214B1B78002B43D1204B1B7864
:10443000002B3EF431AD114B1C680C2C3EF62CAD1C
:10444000DFE814F08200D70016029F026A03C60359
:10445000AA045905DC0581066507CE073B0800BFA5
:1044600000000000000CB740000000000064A9C07C
:104470002C0000202003002002000020C8030020A0
:1044800004000020180C00201C030020D80300208A
:10449000A00400200000B940B0040020300000203B
:1044A00000409F40CC0300200040AF4001000020AE
:1044B000A70300200DF11703002201211046FCF78D
:1044C000A3FF0DF11703002201210846FCF79CFF12
:1044D0000DF11703002201210220FCF795FF0DF1D9
:1044E0001703002201210320FCF78EFFAA480DF1DB
:1044F0001603039300240294019400900DAB22460E
:104500000121FDF771FDA54B1C60A54B1C60012529
:10451000A44B1D70A44B1C70A44B1C70A44B1C70AE
:10452000FCF7A0FCA34B1C6029462846FCF74EFD77
:10453000019500942346224621460220FCF7CAFE3C
:104540009D4BDD711D7271E7964B1B78002B3AD0A5
:1045500091480DF1160303930021029101910090FF
:104560000DAB0A46FDF740FD944900220023C1E946
:104570000023C1E902239249C1E900237EA3D3E9C4
:104580000023C1E9022304E08B4B234403225A7029
:104590000134072CF8DD834B00221A70834B1B7803
:1045A000002B7EF479AC0022019200921346012187
:1045B0000220FCF78FFE02287EF46EAC7B4B0122BA
:1045C0001A70FEF769BC0123019300936CA3D3E931
:1045D00000237B497948FEF7A7F87A4B1870032827
:1045E000DCD1704B01221A70724A136801331360D8
:1045F000D4E76C4B1B786BBB734B1B68684A126823
:104600009B1A40F6C3118B426AD96F4B1B689B1AE9
:1046100040F6AB518B4240F28D806B4B1B689B1A6E
:1046200041F29312934267D80121F020FDF704FB79
:104630000221EB20FDF700FB644B1B78012B00F0FF
:10464000CB80002B40F0CD80614B02221A740122F6
:104650009A75C6E050480DF11603039300210291AC
:10466000019100900DAB0A46FDF7BEFC574B1B783D
:10467000012B12D01BBB514B00200021C3E90001CC
:10468000454AD2E90201C3E902014D4B0024514DD4
:10469000C3E90045C3E9020111E0484B00200021B5
:1046A000C3E900013C4AD2E90201C3E90201444BDB
:1046B00035A5D5E90045C3E90045C3E9020100235A
:1046C000072B05DC3C4A1A44022151700133F7E7FD
:1046D000344B00221A703C4B1A68314B1A6014E0BC
:1046E0000123019300932AA3D3E9002334493348DB
:1046F000FEF71AF8334B1870334B1B68284A1268C0
:104700009B1A41F29312934271D8284B1B78002BCD
:104710007EF4C2AB002201920092134601210220D6
:10472000FCF7D8FD02287EF4B7AB204B01221A70AB
:10473000FEF7B2BB01214FF49670FDF77DFA02211E
:1047400040F22710FDF778FA204B1B78012B06D09A
:1047500053B91F4B02221A7401229A7504E01C4BB4
:1047600001221A7402229A75194B40F6AC52DA8172
:104770009A82C1E7AFF30080000000000078AE40ED
:10478000000000000094B1400000000000409FC005
:10479000000000000018A540D8030020CC03002032
:1047A0008C0300200200002020030020A40300202E
:1047B000A5030020C803002030000020A004002032
:1047C000B004002004000020180C0020A3030020E7
:1047D0003C00002000409F409F4B01221A7402229F
:1047E0009A759D4B40F6AC52DA819A8284E79A4BD7
:1047F00003221A749A750022DA819A82974B042157
:104800001970974B1A60FCF73FFB01238DF8343089
:104810008DF835308DF83630924B1B78012B05D052
:1048200043B90022904BCDE9062303E000228F4BD1
:10483000CDE9062380A3D3E90023CDE90823002294
:104840000023CDE90A230DF1160303930021029101
:10485000019106AB00930DAB01228548FDF7C4FB27
:10486000844B01221A70844A1368013313604CE7A9
:10487000824B1B78FBB17F4B1B7853BB774B1B786C
:10488000032B07D07E4B1B687E4A12689B1AB3F538
:10489000FA5F69D3794B1B78002B3EF4FDAA754B68
:1048A00001221A70744A136801331360734B00229B
:1048B0001A70FEF7F1BA002201920092134601210C
:1048C0000220FCF707FD0228D5D16C4B01221A709B
:1048D000D1E767480DF1160303930021029101917E
:1048E00000900DAB0A46FDF77FFB5E4B1B78012B5A
:1048F00014D0002B24D1644B00205B49C3E9000194
:104900005B4AD2E90201C3E90201604B4CA5D5E93B
:104910000045C3E90045C3E9020111E05A4B0020FC
:104920005249C3E90001524AD2E90201C3E9020136
:10493000564B45A5D5E90045C3E90045C3E9020149
:104940000023072B05DC524A1A440421517001331D
:10495000F7E70023474A1370404A1370484B1A6820
:10496000484B1A60FEF798BA012301930093002286
:10497000484B46494448FDF7D7FE384B1870FEF7C0
:104980008BBA3C4B1B78002B2ED1344B1B78032B5E
:1049900009D03B4B1B683B4A12689B1A41F29312A9
:1049A000934240F28880364B1B68364A12689B1A45
:1049B00041F29412934200F29080374A537843F0C8
:1049C000300353702E4B1B68344A12689B1AB3F5A0
:1049D000FA7F7EF661AA274B01221A70264A1368D5
:1049E00001331360FEF758BA214D0DF116030393FE
:1049F00000240294019400950DAB224621462846DE
:104A0000FDF7F2FAD5E900011F4EC6E90001D5E92C
:104A10000223C6E902231D4BC3E900010CA1D1E921
:104A20000001C3E902012346072B39DC184A1A4466
:104A3000052151700133F7E7000000000078AE4017
:104A40000000000000589BC00000000000589B4080
:104A50000000000000F8B1403C00002004000020ED
:104A60008C030020A303002000006940000069C0FF
:104A7000D803002002000020C8030020A403002067
:104A8000180C0020C0030020A0040020B004002067
:104A9000300000200040AF402C0000201C0300200C
:104AA0000023A54A1370A54A1370A54B1A68A54B9D
:104AB0001A60FEF7F1B901230193009390A3D3E9A3
:104AC0000023A149A148FDF72FFE9C4B18709C4B79
:104AD0001A689F4B1A60FEF7DFB900218DF8341079
:104AE00001228DF835208DF8361087A5D5E90045CF
:104AF000CDE9084500240025CDE90645CDE90A4564
:104B00000DF1160303930291019106AB00930DABD7
:104B10009048FDF769FA50E7874B1B78CBB9874B74
:104B20001B78032B43D18C4A537843F00403537012
:104B3000834B1B68864A12689B1AB3F5FA7F7EF690
:104B4000ABA97D4B01221A701444844A1460FEF70D
:104B5000A3B9804D0DF11603039300240294019430
:104B600000950DAB224621462846FDF73DFAD5E9D2
:104B70000001764EC6E90001D5E90223C6E9022309
:104B8000714BC3E9000100207549C3E902012346C6
:104B9000072B05DC734A1A44062151700133F7E7ED
:104BA0000023654A1370654A1370FEF775B9012337
:104BB0000193009300226C4B63496448FDF7B4FDF8
:104BC0005E4B18705E4B1A68614B1A60FEF764B951
:104BD000664B1B781BB3584B1B78002B33D1574BBC
:104BE0001B78032B08D0564B1B68564A12689B1A39
:104BF00041F27B52934273D95C4B1B78002B00F03F
:104C0000BB804D4B01221A70544A13680133136064
:104C10000023564A1370564A1370FEF73DB900221E
:104C200001920092134601210220FCF753FB012858
:104C300005D00228CFD14D4B01221A70CBE74C4B47
:104C400001221A70F5E743480DF116030393002182
:104C50000291019100900DAB0A46FDF7C5F9454B55
:104C60001B78012B15D0002B26D1384B28A1D1E978
:104C70000001C3E90001374AD2E90201C3E9020198
:104C8000314B25A5D5E90045C3E90045C3E902013B
:104C900012E02E4B22A1D1E90001C3E900012D4A07
:104CA000D2E90201C3E90201274B1FA5D5E900455E
:104CB000C3E90045C3E902010023072B05DC294AAB
:104CC0001A44042151700133F7E700231A4A137084
:104CD0001A4A13701A4B1A681A4B1A60FEF7DCB89E
:104CE00001230193009312A3D3E900231649174827
:104CF000FDF71AFD114B1870FEF7CEB8AFF3008028
:104D0000000000000070A7400000000000F8B14063
:104D10000000000000589BC00000000000ECA3C091
:104D20000000000000589B400000000000ECA34081
:104D30000000000000C8A94002000020040000207C
:104D4000180C0020C0030020B0040020A0040020A4
:104D50001C030020D80300202C000020C8030020E2
:104D60000040AF403000002000409F40A4030020DE
:104D7000A5030020A3030020914B1B78002B3EF4D9
:104D80008BA801228F4B1A708F490B6813440B605C
:104D90008B4B1A70FEF780B88C4B1B781BB9884B75
:104DA0001B78002B35D1874B1B78002B3FD1884BCC
:104DB0001B78032B08D0874B1B68874A12689B1A05
:104DC00041F29312934265D9824B1B68824A126862
:104DD0009B1A41F2941293426ED8804A537843F062
:104DE000300353707B4B1B687D4A12689B1AB3F5E6
:104DF000FA7F7EF651A8734B01221A70724A13682B
:104E00000133136000236E4A1370704A1370FEF76B
:104E100043B8002201920092134601210220FCF7C0
:104E200059FA0228BFD1694B01221A70BBE76D4DB8
:104E30000DF11603039300240294019400950DAB29
:104E4000224621462846FDF7CFF8D5E90001664EF7
:104E5000C6E90001D5E90223C6E90223634BC3E991
:104E6000000153A1D1E90001C3E902012346072B48
:104E700005DC5F4A1A44052151700133F7E700232E
:104E8000504A1370524A1370524B1A68524B1A60B0
:104E9000FEF702B801230193009347A3D3E900234F
:104EA00052495148FDF740FC494B1870494B1A686C
:104EB0004B4B1A60FDF7F0BF00218DF83410012232
:104EC0008DF835208DF8361039A5D5E90045CDE9A6
:104ED000084500240025CDE90645CDE90A450DF138
:104EE000160303930291019106AB00930DAB3D486D
:104EF000FDF77AF871E7334B1B78CBB9344B1B784D
:104F0000032B43D1354A537843F004035370314B9C
:104F10001B68334A12689B1AB3F5FA7F7DF6BCAF63
:104F2000284B01221A701444274A1460FDF7B4BFBD
:104F30002C4D0DF116030393002402940194009567
:104F40000DAB224621462846FDF74EF8D5E9000173
:104F5000254EC6E90001D5E90223C6E90223234B09
:104F6000C3E9000100202349C3E902012346072BBE
:104F700005DC1F4A1A44062151700133F7E700236C
:104F8000104A1370124A1370FDF786BF0123019374
:104F900000930022184B15491348FDF7C5FB0C4B35
:104FA00018700C4B1A680E4B1A60FDF775BF00BFE6
:104FB0000000000000F8B140000000000070A740B1
:104FC000A503002002000020C8030020A403002045
:104FD00004000020180C0020C00300202C0000203A
:104FE0001C030020D8030020A0040020B0040020EF
:104FF000300000200040AF4000409F409C4B1B7899
:1050000013B39C4B1B78002B32D19B4B1B78032B8B
:1050100008D09A4B1B689A4A12689B1A41F27B523D
:10502000934273D9924B1B78002B7CD0914B012279
:105030001A70944A13680133136000238C4A13706A
:10504000914A1370FDF728BF002201920092134687
:1050500001210220FCF73EF9012805D00228D0D119
:10506000834B01221A70CCE7874B01221A70F5E7B7
:1050700086480DF1160303930021029101910090DF
:105080000DAB0A46FCF7B0FF814B1B78012B12D009
:1050900013BB804B6CA1D1E90001C3E900017B4A3D
:1050A000D2E90201C3E902017B4B69A1D1E9000108
:1050B000C3E9000110E0774B67A1D1E90001C3E922
:1050C0000001724AD2E90201C3E90201724B64A1F4
:1050D000D1E90001C3E900016C4BD3E902016E4B39
:1050E000C3E902010023072B05DC6C4A1A440421A2
:1050F00051700133F7E700235E4A13705E4A137064
:105100005E4B1A685E4B1A60FDF7C6BE0123019321
:1051100000930022624B60495E48FDF705FB564B49
:105120001870FDF7B9BE584B1B78002B3DF4B4AE98
:105130000122504B1A7053490B6813440B60524BB9
:105140001A70FDF7A9BE4A4B1B781BB94E4B1B7852
:10515000002B37D1474B1B78002B41D1464B1B7896
:10516000032B09D0454B1B68454A12689B1A41F234
:105170009312934240F29A80404B1B68404A126857
:105180009B1A41F29412934200F2A280454A53784E
:1051900043F030035370394B1B68434A12689B1A23
:1051A000B3F5FA7F7DF678AE0023374A1370304AA4
:1051B0001370304B01221A70324A136801331360A6
:1051C000FDF76ABE002201920092134601210220DF
:1051D000FCF780F80228BDD1254B01221A70B9E7EF
:1051E0002A4D0DF1160303930024029401940095B7
:1051F0000DAB224621462846FCF7F6FED5E9000114
:10520000244EC6E90001D5E90223C6E90223224B58
:10521000C3E9000114A1D1E90001C3E90201234659
:10522000072B05DC1D4A1A44052151700133F7E7AD
:105230000023104A1370104A1370104B1A68104B59
:105240001A60FDF729BE00BF0000000000ECA3C0FB
:10525000000000000064A9C00000000000ECA340B2
:10526000000000000064A9400000000000F8B14008
:10527000A40300200200002004000020180C0020DD
:10528000C0030020C8030020A5030020D80300208D
:10529000A3030020A0040020B00400203000002060
:1052A0000040AF402C0000201C030020012301938C
:1052B00000939BA3D3E90023A149A248FDF734FA48
:1052C000A14B1870A14B1A68A14B1A60FDF7E4BD01
:1052D00000218DF8341001228DF835208DF836101C
:1052E00091A5D5E90045CDE9084500240025CDE983
:1052F0000645CDE90A450DF116030393029101918C
:1053000006AB00930DAB9348FCF76EFE3EE7924B65
:105310001B7813BB8C4B1B78032B08D08B4B1B6863
:105320008E4A12689B1A41F29312934247D98C4AD3
:10533000537843F004035370844B1B68844A12680B
:105340009B1AB3F5FA7F7DF6A7AD834B01221A7045
:105350001444844A1460FDF79FBD7E4D0DF1160381
:10536000039300240294019400950DAB224621463C
:105370002846FCF739FED5E90001724EC6E9000166
:10538000D5E90223C6E902236D4BC3E900010020E1
:105390007549C3E902012346072B05DC734A1A4409
:1053A000062151700133F7E700236B4A1370664AF8
:1053B0001370664B1A68694B1A60FDF76DBD0123C7
:1053C0000193009300226A4B5D495E48FDF7ACF9FA
:1053D0005D4B18705D4B1A685D4B1A60FDF75CBD44
:1053E0005D4B1B785BB9584B1B78032B58D15A4B3C
:1053F00001221A7014445B4A1460FDF74DBD5D4CE8
:1054000023680133236053480DF1160303930021F1
:105410000291019100900DAB0A46FCF7E5FD23686F
:10542000312B38DD544B1B78012B14D0002B24D1A9
:10543000444B3FA1D1E90001C3E90001454AD2E94B
:105440000201C3E902013E4B00240025C3E90045E7
:10545000C3E9020111E03B4B37A1D1E90001C3E9E7
:1054600000013C4AD2E90201C3E90201344B0024A5
:105470000025C3E90045C3E90201002304E03B4ADB
:105480001A440F2151700133072BF8DD0023394AEC
:105490001360314A13702C4B00221A70FDF7FCBCCC
:1054A00001230193009300222F4B25492548FDF746
:1054B0003BF9254B1870FDF7EFBC274B1B78002BF1
:1054C0005CD0244D0DF11603039300240294019443
:1054D00000950DAB224621462846FCF785FDD5E90F
:1054E0000001184BC3E9000100261F4FC3E9026702
:1054F000134BC3E9000100200021C3E90201234648
:1055000004E01A4A1A440E2151700133072BF8DDCA
:10551000114B00221A70FDF7BFBC00BFAFF3008033
:10552000000000000070A7400000000000F8B1403B
:105530000000000000C8A9C00000000000C8A94089
:10554000B0040020A004002004000020180C00205B
:105550001C030020D803002002000020C00300200C
:105560002C000020C80300200040AF403000002085
:1055700000409F40CC030020A3030020012301939F
:1055800000930022A34BA449A448FDF7CDF8A44BF7
:10559000187003287DF480ACA24B01221A70A24A35
:1055A000136801331360FDF777BCA04B1B78002B09
:1055B0003DF472AC0DF11703002201211046FBF7F8
:1055C00023FF0DF11703002201210846FBF71CFF02
:1055D0000DF11703002201210220FBF715FF0DF149
:1055E0001703002201210320FBF70EFF90480DF165
:1055F0001603039300240294019400900DAB2246FD
:105600000121FCF7F1FC8B4B1C608B4B1C600125CE
:10561000844B1D70894B1C70894B1C70FBF722FC5E
:10562000814B1C60019500942346224621460220AE
:10563000FBF750FE834B1B78AB4209D0002B7DF467
:105640002BAC814B0122DA7102221A72FDF724BCC5
:105650007D4B1D720222DA71FDF71EBC734B1B7865
:10566000002B3DF419AC0DF1170300220121104667
:10567000FBF7CAFE0DF11703002201210846FBF7D4
:10568000C3FE0DF11703002201210220FBF7BCFE2F
:105690000DF11703002201210320FBF7B5FE64483A
:1056A0000DF11603039300240294019400900DABB6
:1056B00022460121FCF798FC5E4B1C605E4B1C608F
:1056C0000125584B1D705D4B1C705D4B1C70FBF72A
:1056D000C9FB554B1C600195009423462246214688
:1056E0000220FBF7F7FD574B1B78AB4209D0002B8C
:1056F0007DF4D2AB544B0122DA7105221A72FDF708
:10570000CBBB514B1D720522DA71FDF7C5BB474B70
:105710001B78002B3DF4C0AB0DF1170300220121D3
:105720001046FBF771FE0DF1170300220121084618
:10573000FBF76AFE0DF11703002201210220FBF79F
:1057400063FE0DF11703002201210320FBF75CFE2D
:1057500037480DF11603039300240294019400903E
:105760000DAB22460121FCF73FFC324B1C60324B53
:105770001C6001252B4B1D70304B1C70304B1C7076
:10578000FBF770FB284B1C600195009423462246D2
:1057900021460220FBF79EFD2A4B1B78AB4209D025
:1057A000002B7DF479AB284B0122DA7104221A72A6
:1057B000FDF772BB244B1D720422DA71FDF76CBB3E
:1057C0001A4B1B78002B43D1204B1B78002B3DF448
:1057D00063AB154B1C68182C3DF65EABDFE814F08C
:1057E0008B00E10010028F02A6023C039B03B5036D
:1057F0000F044B04A30410052C05890591055406DC
:10580000B1060D07DA075208DD0874091E0A7A0A84
:10581000E50A00BF0040AF40B0040020A004002013
:105820000400002002000020C80300200100002026
:10583000D8030020CC0300208C030020200300208C
:10584000A4030020A303002030000020A7030020B1
:10585000B34A537803F0C30353700DF117030022CA
:1058600001211046FBF7D0FD0DF1170300220121A5
:105870000846FBF7C9FD0DF11703002201210220A4
:10588000FBF7C2FD0DF11703002201210320FBF7F6
:10589000BBFDA44E0DF11603039300240294019462
:1058A00000960DAB224601213046FCF79DFB9E4B36
:1058B0001C609E4B1C6001259D4B1D709D4B1C70F8
:1058C0009D4B1C709D4B1C7029463046FCF720FBFD
:1058D0009B4B1C70FBF7C6FA9A4B1C600195009419
:1058E0002346224621460220FBF7F4FC964B0C226D
:1058F000DA711A7268E78E4B1B78002B3BD089480F
:105900000DF11603039300210291019100900DAB5C
:105910000A46FCF769FB8D4900220023C1E90023F8
:10592000C1E902238A49C1E9002377A3D3E900230F
:10593000C1E9022304E0844B234403225A7001345A
:10594000072CF8DD7A4B00221A707B4B1B78002B5A
:105950007DF4A2AA00220192009213464FF0FF317B
:105960000420FBF7B7FC02287DF496AA724B0122B3
:105970001A70FDF791BA01230193009364A3D3E950
:10598000002373497148FCF7CFFE724B187003284F
:10599000DBD1674B01221A706A4A13680133136026
:1059A000D3E7634B1B7863BB6B4B1B685F4A126882
:1059B0009B1A40F6C3118B4252D9674B1B689B1A46
:1059C00040F6AB518B4276D9634B1B689B1A41F270
:1059D0009312934250D80121F020FCF72DF90221B7
:1059E000EB20FCF729F95D4B1B78012B00F0BC8004
:1059F000002B40F0BE805A4B02221A7401229A7585
:105A0000B7E0484D0DF1160303930024029401946E
:105A100000950DAB224621462846FCF7E5FA4B4B94
:105A200000200021C3E90001D5E90201C3E9020118
:105A3000474B00264B4FC3E90067C3E902012346E9
:105A400004E0414A1A44022151700133072BF8DD6A
:105A5000374B00221A70404B1A68344B1A6014E01E
:105A60000123019300932CA3D3E90023384937483D
:105A7000FCF75AFE374B1870374B1B682B4A1268DD
:105A80009B1A41F29312934279D82B4B1B78002B2F
:105A90007DF402AA00220192009213464FF0FF31DA
:105AA0000420FBF717FC02287DF4F6A9224B012203
:105AB0001A70FDF7F1B91A4A537843F0080353708E
:105AC00001214FF49670FCF7B7F8022140F227103D
:105AD000FCF7B2F8214B1B78012B0AD1204B012295
