:020000040800F2
:1000000000500020517D0008B9380008BB380008B6
:10001000BD380008BF380008C138000800000000E3
:10002000000000000000000000000000C3380008CD
:10003000C538000800000000C7380008C9380008AB
:10004000997D0008997D0008997D0008997D000838
:10005000997D0008997D0008997D0008997D000828
:10006000997D0008997D0008997D0008997D000818
:10007000997D0008F138000821390008313900085D
:10008000997D0008E1380008997D0008997D0008F5
:10009000997D0008997D0008997D0008997D0008E8
:1000A000997D000821680008997D0008997D000865
:1000B00031680008997D0008997D0008997D000845
:1000C000997D0008997D0008997D0008997D0008B8
:1000D000997D0008997D0008113900080139000850
:1000E000997D0008997D0008997D000800000000B6
:1000F0000000000000000000000000000000000000
:0C01000000000000000000005FF808F1A3
:1001100010B5054C237833B9044B13B10448AFF341
:1001200000800123237010BD0003002000000000A8
:10013000C89F000808B5034B1BB103490348AFF340
:10014000008008BD0000000004030020C89F0008D4
:1001500081F0004102E000BF83F0004330B54FEA78
:1001600041044FEA430594EA050F08BF90EA020FE5
:100170001FBF54EA000C55EA020C7FEA645C7FEA78
:10018000655C00F0E2804FEA5454D4EB5555B8BF9B
:100190006D420CDD2C4480EA020281EA030382EA0C
:1001A000000083EA010180EA020281EA0303362D9E
:1001B00088BF30BD11F0004F4FEA01314FF4801C71
:1001C0004CEA113102D0404261EB410113F0004F83
:1001D0004FEA03334CEA133302D0524263EB43033A
:1001E00094EA050F00F0A780A4F10104D5F1200ED8
:1001F0000DDB02FA0EFC22FA05F2801841F1000133
:1002000003FA0EF2801843FA05F359410EE0A5F106
:1002100020050EF1200E012A03FA0EFC28BF4CF037
:10022000020C43FA05F3C01851EBE37101F00045ED
:1002300007D54FF0000EDCF1000C7EEB00006EEBFA
:100240000101B1F5801F1BD3B1F5001F0CD3490884
:100250005FEA30004FEA3C0C04F101044FEA4452DB
:1002600012F5800F80F09A80BCF1004F08BF5FEA62
:10027000500C50F1000041EB045141EA050130BD42
:100280005FEA4C0C404141EB010111F4801FA4F1E5
:100290000104E9D191F0000F04BF01460020B1FA3A
:1002A00081F308BF2033A3F10B03B3F120020CDA72
:1002B0000C3208DD02F1140CC2F10C0201FA0CF050
:1002C00021FA02F10CE002F11402D8BFC2F1200CB5
:1002D00001FA02F120FA0CFCDCBF41EA0C0190406B
:1002E000E41AA2BF01EB0451294330BD6FEA0404B4
:1002F0001F3C1CDA0C340EDC04F11404C4F120029F
:1003000020FA04F001FA02F340EA030021FA04F3B0
:1003100045EA030130BDC4F10C04C4F1200220FA07
:1003200002F001FA04F340EA0300294630BD21FA45
:1003300004F0294630BD94F0000F83F4801306BF0B
:1003400081F480110134013D4EE77FEA645C18BFFF
:100350007FEA655C29D094EA050F08BF90EA020F96
:1003600005D054EA000C04BF1946104630BD91EA8E
:10037000030F1EBF0021002030BD5FEA545C05D191
:100380004000494128BF41F0004130BD14F58004D0
:100390003CBF01F5801130BD01F0004545F0FE4144
:1003A00041F470014FF0000030BD7FEA645C1ABF79
:1003B000194610467FEA655C1CBF0B46024650EAB0
:1003C000013406BF52EA033591EA030F41F40021DC
:1003D00030BD00BF90F0000F04BF0021704730B562
:1003E0004FF4806404F132044FF000054FF0000137
:1003F00050E700BF90F0000F04BF0021704730B5F8
:100400004FF4806404F1320410F0004548BF4042CC
:100410004FF000013EE700BF42004FEAE2014FEA21
:1004200031014FEA02701FBF12F07F4393F07F4FFC
:1004300081F06051704732F07F4208BF704793F0FF
:100440007F4F04BF41F40021704730B54FF4607412
:1004500001F0004521F000411CE700BF50EA010215
:1004600008BF704730B54FF000050AE050EA0102BE
:1004700008BF704730B511F0004502D5404261EB2E
:1004800041014FF4806404F132045FEA915C3FF46F
:10049000D8AE4FF003025FEADC0C18BF03325FEA0C
:1004A000DC0C18BF033202EBDC02C2F1200300FABD
:1004B00003FC20FA02F001FA03FE40EA0E0021FAE2
:1004C00002F11444BDE600BF70B54FF0FF0C4CF4D0
:1004D000E06C1CEA11541DBF1CEA135594EA0C0F82
:1004E00095EA0C0F00F0DEF82C4481EA030621EABD
:1004F0004C5123EA4C5350EA013518BF52EA0335F8
:1005000041F4801143F4801338D0A0FB02CE4FF0A9
:100510000005E1FB02E506F00042E0FB03E54FF0D9
:100520000006E1FB03569CF0000F18BF4EF0010ED1
:10053000A4F1FF04B6F5007F64F5407404D25FEACD
:100540004E0E6D4146EB060642EAC62141EA555180
:100550004FEAC52040EA5E504FEACE2EB4F1FD0CC2
:1005600088BFBCF5E06F1ED8BEF1004F08BF5FEA40
:10057000500E50F1000041EB045170BD06F00046F2
:1005800046EA010140EA020081EA0301B4EB5C049F
:10059000C2BFD4EB0C0541EA045170BD41F4801197
:1005A0004FF0000E013C00F3AB8014F1360FDEBFBC
:1005B000002001F0004170BDC4F10004203C35DA98
:1005C0000C341BDC04F11404C4F1200500FA05F31B
:1005D00020FA04F001FA05F240EA020001F00042BC
:1005E00021F0004110EBD37021FA04F642EB060132
:1005F0005EEA430E08BF20EAD37070BDC4F10C045C
:10060000C4F1200500FA04F320FA05F001FA04F21F
:1006100040EA020001F0004110EBD37041F100010B
:100620005EEA430E08BF20EAD37070BDC4F1200516
:1006300000FA05F24EEA020E20FA04F301FA05F27E
:1006400043EA020321FA04F001F0004121FA04F226
:1006500020EA020000EBD3705EEA430E08BF20EAF6
:10066000D37070BD94F0000F0FD101F00046400030
:1006700041EB010111F4801F08BF013CF7D041EAB2
:10068000060195F0000F18BF704703F000465200B6
:1006900043EB030313F4801F08BF013DF7D043EA87
:1006A0000603704794EA0C0F0CEA135518BF95EA3D
:1006B0000C0F0CD050EA410618BF52EA4306D1D1C4
:1006C00081EA030101F000414FF0000070BD50EAE3
:1006D000410606BF1046194652EA430619D094EA6D
:1006E0000C0F02D150EA013613D195EA0C0F05D157
:1006F00052EA03361CBF104619460AD181EA0301AB
:1007000001F0004141F0FE4141F470014FF0000062
:1007100070BD41F0FE4141F4780170BD70B54FF0FD
:10072000FF0C4CF4E06C1CEA11541DBF1CEA13557D
:1007300094EA0C0F95EA0C0F00F0A7F8A4EB05045F
:1007400081EA030E52EA03354FEA013100F0888056
:100750004FEA03334FF0805545EA131343EA12631F
:100760004FEA022245EA111545EA10654FEA0026D4
:100770000EF000419D4208BF964244F1FD0404F58D
:10078000407402D25B084FEA3202B61A65EB0305E9
:100790005B084FEA32024FF480104FF4002CB6EBA6
:1007A000020E75EB030E22BFB61A754640EA0C0026
:1007B0005B084FEA3202B6EB020E75EB030E22BF66
:1007C000B61A754640EA5C005B084FEA3202B6EBA7
:1007D000020E75EB030E22BFB61A754640EA9C0066
:1007E0005B084FEA3202B6EB020E75EB030E22BF36
:1007F000B61A754640EADC0055EA060E18D04FEAF4
:10080000051545EA16754FEA06164FEAC30343EA93
:1008100052734FEAC2025FEA1C1CC0D111F4801F60
:100820000BD141EA00014FF000004FF0004CB6E759
:1008300011F4801F04BF01430020B4F1FD0C88BFF8
:10084000BCF5E06F3FF6AFAEB5EB030C04BFB6EB03
:10085000020C5FEA500C50F1000041EB045170BDF6
:100860000EF0004E4EEA113114EB5C04C2BFD4EB23
:100870000C0541EA045170BD41F480114FF0000EA7
:10088000013C90E645EA060E8DE60CEA135594EA23
:100890000C0F08BF95EA0C0F3FF43BAF94EA0C0F26
:1008A0000AD150EA01347FF434AF95EA0C0F7FF49B
:1008B00025AF104619462CE795EA0C0F06D152EAEF
:1008C00003353FF4FDAE1046194622E750EA4106D3
:1008D00018BF52EA43067FF4C5AE50EA41047FF4E4
:1008E0000DAF52EA43057FF4EBAE12E74FF0FF3C49
:1008F00006E000BF4FF0010C02E000BF4FF0010C1A
:100900004DF804CD4FEA410C7FEA6C5C4FEA430C92
:1009100018BF7FEA6C5C1BD001B050EA410C0CBFE1
:1009200052EA430C91EA030F02BF90EA020F002043
:10093000704710F1000F91EA030F58BF994208BFAA
:1009400090422CBFD8176FEAE37040F00100704767
:100950004FEA410C7FEA6C5C02D150EA013C07D1BE
:100960004FEA430C7FEA6C5CD6D152EA033CD3D009
:100970005DF8040B704700BF8446104662468C4603
:100980001946634600E000BF01B5FFF7B7FF002836
:1009900048BF10F1000F01BD4DF808EDFFF7F4FF5F
:1009A0000CBF012000205DF808FB00BF4DF808EDEA
:1009B000FFF7EAFF34BF012000205DF808FB00BF0D
:1009C0004DF808EDFFF7E0FF94BF012000205DF82F
:1009D00008FB00BF4DF808EDFFF7CEFF94BF0120E4
:1009E00000205DF808FB00BF4DF808EDFFF7C4FFDD
:1009F00034BF012000205DF808FB00BF4FEA410230
:100A000012F5001215D211D56FF47873B3EB625260
:100A100012D94FEAC12343F0004343EA505311F087
:100A2000004F23FA02F018BF404270474FF0000019
:100A3000704750EA013005D111F0004008BF6FF057
:100A4000004070474FF00000704700BF4FEA410C74
:100A50007FEA6C5C02D150EA013C0AD14FEA430CB8
:100A60007FEA6C5C02D152EA033C02D14FF00000F5
:100A700070474FF0010070472DE9F04F85B0814677
:100A80000D4614469B460E9F0F9E9DF840A09DF874
:100A90004480D1E90023CDE902239F49D1E9000137
:100AA000FFF77AFFB8B1D5E902239B49D1E90201EA
:100AB000FFF772FF78B1D4E900239849D1E900012A
:100AC000FFF76AFF38B1D4E902239449D1E9020162
:100AD000FFF762FFA0B9924B01221A708E49DDE93F
:100AE0000223C1E90023D5E90223C1E90223D4E9A5
:100AF00000238A49C1E90023D4E90223C1E9022382
:100B0000B8F1030F0BD8DFE808F0026E7780DBE95D
:100B10000023D4E90001FFF71FFBCDE90001804B62
:100B20001B783BB17F4BDDE90012C3E900127C4B1F
:100B300000221A70BAF1000F00F0D380DDE900AB9B
:100B400052465B467749D1E90001FFF705FB0446B1
:100B500021F000450022744B50465946FFF744FFF0
:100B6000002876D00022704B20462946FFF728FF48
:100B7000002853D000226C4B20462946FFF7CEFDBB
:100B800000226A4BFFF7E8FA04460D463A46334620
:100B9000FFF79AFC02460B4620462946FFF794FCD5
:100BA00002460B4600206249FFF7D6FA3A46334622
:100BB000FFF7D4FAC9E9000100225D4BFFF700FFFF
:100BC00018B100225A4BC9E900233A463346D9E905
:100BD0000001FFF709FF002872D03A463346C9E901
:100BE000002300241FE0D4E90023DBE90001FFF724
:100BF000B3FACDE9000192E7DBE90223D4E902016F
:100C0000FFF7AAFACDE9000189E7D4E90223DBE97D
:100C10000201FFF7A1FACDE9000180E73A46334629
:100C2000C9E9002301240022424B38463146FFF730
:100C3000D1FE002848D000223F4BDDE90001FFF73C
:100C4000BFFE002859D000220023C9E90023032455
:100C500053E006F100480022334BDDE90001FFF7C5
:100C60005DFD2BA3D3E90023FFF776FA04460D467A
:100C700002460B4638464146FFF726FC02460B4625
:100C800020462946FFF720FC3A463346FFF766FA2E
:100C9000C9E900010022264BFFF792FE18B100229D
:100CA000234BC9E900233A463346D9E90001FFF74F
:100CB0009BFE38B13A463346C9E900230224B2E725
:100CC0000024B0E70224AEE700221C4BDDE900015E
:100CD000FFF776FE88B100220023C9E90023032430
:100CE0000BE00022164BDDE90001FFF769FE40B979
:100CF0003A463346C9E900230124204605B0BDE841
:100D0000F08F00220023C9E900230324F5E700BF88
:100D1000666666666666F23FE807002008080020FF
:100D200008000020A003002000408F400000F03F9A
:100D300000209C400040AF4000005440000049406B
:100D40000000244010B402EBD2735B105C422144DB
:100D5000401A824203DC90FBF2F302FB13000028EE
:100D600002DB204410BC70470028B8BF4042101A74
:100D7000F7E700001F4B9B7803F00303032B04D01D
:100D80001C4B9B7813F0010F02D11B4B01221A70F0
:100D9000194B1B78B3B1174B9B7803F00303032B5C
:100DA00010D0144B9B7813F0010F0BD0124B002284
:100DB0001A70124A136801331360152B02DD1346B3
:100DC00000221A600D4B1A780D4B5A719A71DA7124
:100DD0001A72084B9B7803F00303032B07D0054BD3
:100DE0009B7813F0020F02D0044B00221A600020FF
:100DF000704700BF940F0020000000200400002076
:100E000038000020254B5B7813F0040F3FD0234BB4
:100E10005B7813F0020F3AD0204B9B7813F0100F41
:100E200004D01F4A537843F0080353701B4B9B7840
:100E300013F0400F19D01A4A537843F0200353702F
:100E4000164B9B7813F0200F15D0154A537843F0BA
:100E500004035370114B5B7813F0010F11D0104A4B
:100E6000537843F01003537016E00D4A537823F083
:100E700020035370E4E70A4A537823F004035370C5
:100E8000E8E7074A537823F01003537004E0044A5C
:100E9000537803F0C303537000207047940F002071
:100EA00034000020002309E0590019444800054A95
:100EB000024400215180032111710133062BF3DD1F
:100EC0000020704744000020034B0020D8810322FB
:100ED0001A7498829A75704744000020F0B4002478
:100EE00007E0E300C5180B44D3E90067C5E90067D4
:100EF00001349442F5DBF0BC7047000070B582B05D
:100F00000D4603287FD8DFE800F00221405F5C4AED
:100F1000537B917B03EB0123D17B03EB0143127CD9
:100F200003EB0263574A14681C44002D6ED0012D58
:100F300003D0022D06D0002669E05B421360002634
:100F4000344664E0504B1E68A61B60E04C4A537C5C
:100F5000917C03EB0123D17C03EB0143127D03EB76
:100F60000263484A54681C44002D73D0012D03D0FD
:100F7000022D06D000264AE05B425360002634462C
:100F800045E0414B9E68A61B41E03D4A9378D178ED
:100F900003EB0123117903EB0143527903EB026365
:100FA000384A94681C44002D56D0012D03D0022DE0
:100FB00006D000262BE05B4293600026344626E0F4
:100FC000314B1E69A61B22E02D4A9379D17903EBA0
:100FD0000123117A03EB0143527A03EB0263294A9E
:100FE000D4681C44002D39D0012D03D0022D06D029
:100FF00000260CE05B42D3600026344607E0224B1B
:101000009E69A61B03E00026344600E000261F4B25
:101010001B7813B11D4B00221A701D4B1A681A4A17
:1010200042F830401A681B4BA3FB02135B09642192
:1010300001FB1323092B08D8012D06D0164B1B6882
:10104000022B0DDC0133144A1360022D15D020460B
:1010500002B070BD0026DAE70026D8E70026D6E702
:101060000948036982680168806900900B4805F0AF
:1010700071FC094B00221A60E7E73446E7E700BF3E
:10108000700000201C030020B80700200900002089
:10109000900F00201F85EB51AC030020CCA000086E
:1010A00010B50446012819D018B102282AD0002012
:1010B0002DE04FF48051012005F00AFB38B1144BAC
:1010C00001221A7741F288325A8320461FE0104BE2
:1010D00003221A7700225A83022018E004210120FB
:1010E00005F0F6FA38B10A4B02221A7741F288323B
:1010F0005A8320460BE0064B03221A7700225A83BC
:10110000022004E0024B03221A7700225A8310BD0A
:1011100044000020000000002DE9F04FEBB006462F
:1011200009900C9115460D921C460A93142242A870
:10113000FFF7D4FE142229461AA8FFF7CFFE022299
:10114000214616A8FFF7CAFE0222749912A8FFF7DB
:10115000C5FE032E24D8DFE816F0040061008F00DE
:10116000BD000D9BD3E900230A99D1E90201FEF7E6
:10117000F3FF04460D4600220023FFF717FC00286A
:101180003CD10022002320462946FFF72DFC0028F1
:101190003CD07E4B00221A7000237D4CCDE91034E8
:1011A000099BA3F1020A5FFA8AFABAF1010F40F231
:1011B000BF80DDE91823DDE91401FEF7CDFF054608
:1011C00001F10044DDE91623DDE91201FEF7C4FF59
:1011D00002460B4628462146FFF7A0FACDE90E014C
:1011E0000024A346254600220023CDE90623CDE9AD
:1011F0000423CDE90223CDE9002304E1634B01225E
:101200001A700023624CCDE91034C9E75F4B02220B
:101210001A7000235E4CCDE91034C1E70D9BD3E971
:1012200000230A99D1E90201FEF796FF04460D4614
:1012300000220023FFF7BAFB70B9002200232046EA
:101240002946FFF7D1FB78B1504B01221A700023D9
:101250004F4CCDE91034A3E74C4B00221A70002309
:101260004B4CCDE910349BE7484B02221A70002307
:10127000474CCDE9103493E70C9BD3E900230A993E
:10128000D1E90001FEF768FF04460D460022002365
:10129000FFF78CFB70B90022002320462946FFF798
:1012A000A3FB78B1394B01221A700023394CCDE9E8
:1012B000103475E7354B00221A700023354CCDE908
:1012C00010346DE7314B02221A700023314CCDE906
:1012D000103465E70C9BD3E900230A99D1E900019A
:1012E000FEF73AFF04460D4600220023FFF75EFB9F
:1012F00070B90022002320462946FFF775FB78B11C
:10130000224B00221A700023224CCDE9103447E70B
:101310001E4B01221A7000231E4CCDE910343FE70A
:101320001A4B02221A7000231A4CCDE9103437E709
:1013300016981799DDE91823CDE91623024601F125
:101340000043CDE9182312981399DDE91423CDE960
:101350001223024601F10043CDE91423002212E0DA
:10136000D3006AA9CC1854F8A06C54F89C5C1AA954
:101370000B44D3E9000144E92801304605F100415E
:10138000C3E900010132132AEADD12E7B8050020A3
:101390000000F03F0000F0BF4FEAC4086AAB4344CE
:1013A00053E9286732463B46DDE90001FEF7D6FEE9
:1013B000CDE900011AAB984498E8000342464B4639
:1013C000DDE90201FEF7CAFECDE9020132463B46E5
:1013D00030463946FFF778F802460B46DDE904014E
:1013E000FEF7BCFECDE9040142464B463046394685
:1013F000FFF76AF802460B46DDE90601FEF7AEFE8E
:10140000CDE906010134132C20DC002CC4DD661E5E
:101410006AAB03EBC60353E928236AA901EBC401B5
:1014200051E92801FFF7B8FA00B901251AAB03EB1F
:10143000C40103EBC606D6E90023D1E90001FFF79A
:10144000ABFA0028A8D14FF0010BA5E7BAF1010FC4
:1014500040F203810A9ED6E90234CDE90A341A46E5
:1014600023467499D1E90201FEF776FE804601F128
:101470000044C0CE32463B467499D1E90001FEF7E4
:101480006BFE02460B4640462146FFF747F982466F
:101490008846024601F1004330463946FFF714F80A
:1014A00002460B46DDE90A01FEF758FE814601F1CE
:1014B00000440026944F0C9BD3E90023504608F1CA
:1014C0000041FFF701F8CDE90A0132463B460D998C
:1014D000D1E90001FEF7F8FF02460B46DDE90A01FB
:1014E000FEF73CFE4A462346FEF736FE814621F0D3
:1014F00000445246434650464146FEF7E5FFCDE9DB
:101500000A0132463B4630463946FEF7DDFF0246C9
:101510000B46DDE90A01FEF721FE06F063FF0246F5
:101520000B4648462146FFF7F9F8CDE90A011DB9F7
:10153000BBF1000F00F09E800022744BDDE900013A
:10154000FFF7ECF804460D460022704BDDE902017E
:10155000FFF7E4F882468B4600226C4BDDE904017C
:10156000FFF7DCF8804689460022684BDDE906017A
:10157000FFF7D4F806460F4652465B4620462946FA
:10158000FEF7A2FF02460B4630463946FEF7E4FD61
:10159000074601F1004622462B4620462946FEF723
:1015A00093FF02460B4640464946FEF7D5FD0246EC
:1015B0000B4638463146FFF7B1F804460D46024661
:1015C0000B46DDE90E8940464946FEF77DFF0022C5
:1015D0004D4BFEF7C3FD02460B46FEF775FF064670
:1015E0000F4642464B4640464946FEF76DFF0022F5
:1015F000454BFEF7B3FD8046894622462B462046E2
:101600002946FEF761FF00223F4BFEF7A7FD024689
:101610000B4640464946FEF757FF02460B4630460A
:101620003946FFF77BF806F0DDFE06F029FE064698
:101630000F4633A3D3E90023DDE91001FEF744FF91
:1016400032463B46FEF740FF07460E46099B032BFA
:1016500026D8DFE803F01E1E40400A9B5C68D3F8E2
:10166000009004F10044002600274FF0000ADFF844
:10167000988020E70320264B1870002200237599DC
:10168000C1E90023769B1946DDE90A23C1E900235D
:1016900013E00022002320462946FFF787F978B996
:1016A0003A4633467599C1E90023769B1946DDE930
:1016B0000A23C1E90023164B18786BB0BDE8F08F00
:1016C0000022002338463146FFF766F90028E7D1AB
:1016D00006F10046E4E70022002320462946FFF7F2
:1016E00083F90028DCD00022002338463146FFF77A
:1016F00053F90028D4D106F10046D1E7AFF30080BA
:10170000F8C1631ADCA54C400000F03F00003440F3
:10171000B8050020000000002DE9F04FDBB0834643
:101720008A4690469946669C9DF89C71002111E07E
:1017300001EB4103D8002044D0E90023CD005AAE8C
:101740002E4446E92C23D0E9022306A82844C0E908
:10175000002301311329EBDD56AB029358AB019303
:10176000659B0093649B06AA2EA93846FFF7D4FC1C
:101770000646D4E9040158ABC3E90001AD4B1A6831
:10178000AD4BA3FB02435B09642404FB1323092B29
:1017900005D9032F31D8DFE807F01849617806F042
:1017A000D9FC04460D4656ABD3E9000106F0D2FC45
:1017B000FFF724F9049020462946FFF71FF9049A01
:1017C00001469E4805F0C6F8E3E7DDE90623649983
:1017D000D1E90201FEF7C0FC04460D4600220023B9
:1017E000FFF7E4F8002867D10022002320462946AD
:1017F000FFF7FAF8002861D0002656ABD3E9004580
:1018000000228F4B20462946FFF7EEF8002800F013
:101810005C81012E00F0B680002E5DD0022E00F01B
:101820001B81002427462546264669E1DDE906237B
:101830006499D1E90201FEF78FFC04460D460022AF
:101840000023FFF7B3F800283AD1002200232046F6
:101850002946FFF7C9F8A8B30126CEE7DDE92E2314
:101860006499D1E90001FEF777FC04460D46002299
:101870000023FFF79BF838BB0022002320462946AF
:10188000FFF7B2F810B30126B7E7DDE92E2364991C
:10189000D1E90001FEF760FC04460D46002200235A
:1018A000FFF784F8A0B90022002320462946FFF75D
:1018B0009BF878B10026A0E701269EE702269CE768
:1018C00000269AE7022698E7002696E7022694E784
:1018D000012692E7022690E722462B46204629461B
:1018E000FEF73CFC06460F460022564BFFF768F811
:1018F00078B90022544B30463946FFF76BF868BB85
:101900000022524B20462946FEF7DEFD05460E46D4
:1019100001E000254E4E58AB18CB18462146002258
:101920000023CDE90401FFF75FF868B10022494BBD
:10193000DDE90401FEF7C8FD02460B4628463146A4
:10194000FEF70CFC05460E4600220023DDE90401EB
:10195000FFF72CF828B900242746D1E000253A4E9D
:10196000D9E700223B4BDDE90401FEF7ADFD02465D
:101970000B4628463146FEF7EFFB05460E4600248F
:101980002746BDE022462B4620462946FEF7E6FBC9
:1019900006460F4600222B4BFFF712F878B90022BB
:1019A000294B30463946FFF715F878BB0022274B04
:1019B00020462946FEF788FD04460F4601E0002434
:1019C000234F58ABD3E90056002200232846314666
:1019D000FEF7ECFFE8B90022002328463146FFF766
:1019E00003F8002800F0E88000221A4B2846314610
:1019F000FEF76AFD024621F0004320463946FEF715
:101A0000ABFB04460F4600252E4679E000240E4F1E
:101A1000D7E700220F4B28463146FEF755FD024618
:101A200021F0004320463946FEF798FB04460F4656
:101A3000D1E700BF900F00201F85EB51ACA100083B
:101A4000000014400000594000C0824000000840DF
:101A500000C0624000405F4058ABD3E9004500221F
:101A6000002320462946FEF7BFFF80B158A3D3E9E3
:101A7000002320462946FEF727FD57A3D3E900237C
:101A8000FEF76CFB05460E460024274638E0002290
:101A9000002320462946FEF789FF20B90024274667
:101AA000254626462CE04AA3D3E9002320462946B2
:101AB000FEF70AFD48A3D3E90023FEF74FFB0446D7
:101AC00021F0004700252E461AE058ABD3E9004527
:101AD0000022002320462946FEF786FF00284DD02D
:101AE0003BA3D3E9002320462946FEF7EDFC3AA3A9
:101AF000D3E90023FEF732FB05460E4600242746B5
:101B00000022374B284626F00041FEF76DFF48B112
:101B10000022002328463146FEF766FF00284ED0FB
:101B200000252F4E00222E4B204627F00041FEF7C5
:101B30005BFF48B10022002320463946FEF754FFE0
:101B400000283FD00024264F0022264B404649461D
:101B5000FEF7E4FD804689462A463346FEF7B4FC8C
:101B6000CBE9000122463B4640464946FEF7ACFC25
:101B7000CAE9000100205BB0BDE8F08F002200231D
:101B800020462946FEF712FF20B9002427462546A5
:101B90002646B5E70EA3D3E9002320462946FEF7E3
:101BA00093FC0DA3D3E90023FEF7D8FA044621F0F5
:101BB000004700252E46A3E700252E46A0E7002576
:101BC000094EAFE70024084FBEE700BFAFF3008027
:101BD0000000000000C062400000000000C0524051
:101BE00000908A4000408F4000908AC010B50221CA
:101BF000002004F06DFD40B1084B00241C8103223D
:101C00009A7205F06FF8204610BD044B4FF46172D4
:101C10001A8101229A724FF0FF30F5E7440000204C
:101C200010B50121002004F053FD40B1084B002401
:101C30005C8003221A7105F04FF8204610BD044B5A
:101C40004FF461725A8001221A714FF0FF30F5E7AC
:101C500044000020000000002DE9F04FB9B082469A
:101C60000F46A94C4822214626A808F0A1F9902247
:101C700004F1480102A808F09BF9002400940194A3
:101C800000E00134082C1EDC9BA3D3E9002338A913
:101C900001EBC40555E93601FEF716FC45E93601AE
:101CA000022CEEDD0020994938AB03EBC40343E975
:101CB000360104F1090338AA02EBC303002094495A
:101CC00043E93601DDE71FB902230193009CBDE023
:101CD000012F06D0022FF9D1012300930223019393
:101CE000F4E701230193F1E704F0EAFF0646B6E0CA
:101CF00004F0ECFF0646B2E0002DB8BF6D42C5F51A
:101D00000065C2E004EBC4031A440CEBC20252E9C2
:101D1000368900284EDD4046494606F01BFAFEF79C
:101D20006DFE04EB44035A007A4B134458800022A2
:101D3000002340464946FEF72FFE80B304EB4403E0
:101D40005A00744B134403221A71734B01221A5523
:101D5000002F58D1704B1B78002B66D06E4B5B78F0
:101D6000002B40F099804FF0000B60E00132082A10
:101D7000CFDC80EAE071A1EBE07104EBC403134413
:101D80000DF1E00C0CEB830353F8483C9942B9DAAF
:101D9000082AEBD14FF000084FF00009E6E704EB0A
:101DA00044035A005B4B134401221A715A4B002220
:101DB0001A55CDE74046494606F0CCF9FEF71EFE1F
:101DC00004EB44035A00534B134458800022002371
:101DD00040464946FEF7E0FD50B104EB44035A008B
:101DE0004C4B134403221A714B4B01221A55AFE797
:101DF00004EB44035A00474B134402221A71464B2A
:101E000000221A55A4E7012F08D0022F0FD1424B10
:101E10005B78002B46D04FF0010B08E03E4B1B785F
:101E2000002B3CD04FF0010B01E04FF0000B3B4B7F
:101E30001A683B4BA3FB02135B09642101FB1323CC
:101E4000092B02D88CB3012C40D00134019BA34252
:101E50004DDD002C3FF448AF012C3FF449AF7342F5
:101E6000C6F30A05C3F30A0358BF5D425046FEF7A6
:101E7000C1FA23A3D3E90023FEF726FB06F06AF993
:101E8000FEF7BCFD002DFFF637AF4FF40062294688
:101E9000FEF758FF00226AE74FF0010BC7E74FF04B
:101EA000000BC4E74FF0000BC1E72846FEF7A2FA8B
:101EB00000221C4BFEF708FB06F04CF9FEF79EFDD6
:101EC00052460146184804F045FDBEE72846FEF795
:101ED00091FA0022134BFEF7F7FA06F03BF9FEF7F2
:101EE0008DFD52460146114804F034FDADE75846D9
:101EF00039B0BDE8F08F00BF713D0AD7A370ED3F48
:101F0000176CC1166CC11640E09F000800B08D40F0
:101F100000208C4044000020B4030020900F0020DB
:101F20001F85EB510080C63F10A200082CA20008BC
:101F30002DE970430024012C6FDC3D4D284605F04F
:101F400064F90646284605F04FF974B1012C67D1B3
:101F5000404203255EB9374A6B00581941001144CD
:101F60000020087148800134E5E70225F2E7002EE1
:101F700035DD1CB1012C2AD001204FE005EB4503D3
:101F80005A002C4B134401221A71002EB8BF76421E
:101F90009C2303FB06F603FB00F0FEF72BFA22A3BB
:101FA000D3E90023FEF790FA804689463046FEF7D3
:101FB00021FA42464B46FEF7D1F8FEF71FFD42F2EA
:101FC0000F73984220DC002820DA00201EE005EB89
:101FD00045035A00174B134402221A71D5E71CB16E
:101FE000012C09D0012019E005EB45035A00114BE3
:101FF000134402221A71C8E705EB45035A000D4B42
:10200000134401221A71C0E742F20F7005EB450537
:102010006A00084B13445880A5E70020BDE8708390
:102020000120FBE7AFF300809A9999999999D93FDC
:10203000940F0020440000202DE9F04FA1B00129A9
:102040004FD01E460446002A71D1B74B1B78002B97
:1020500034D1B64B9EA1D1E90001C3E900019EA194
:10206000D1E90001C3E902019DA1D1E90001C3E961
:1020700004019DA1D1E90001C3E906010026AC4F8E
:10208000C3E9086700200021C3E90A01C3E90C671E
:10209000C3E90E0196A1D1E90001C3E9100196A19F
:1020A000D1E90001C3E9120195A7D7E90067C3E9A7
:1020B0001467C3E916019C4B01221A70002544E005
:1020C000CA00831800240025C3E90045994B134436
:1020D000C3E9004501310229F2DD002021B0BDE84D
:1020E000F08F0021F7E7D7E90001924B03EBC5031E
:1020F000C3E900010135022DEFDC735D002BF9D03F
:10210000EB002A9AD7182344D7E90001C3E900015C
:10211000012DE8D87CA3D3E90023D7E90001FEF71D
:10212000D3F9844B03EBC503C3E90001E2E70025C3
:10213000E1E702212846FEF7E1FEFEF75BF920AB5E
:1021400003EBC50343E91A010135032DF1DD002737
:102150001CE005EB8703754901EBC30120AB03EBE2
:10216000C50353E91A23D1E90001FEF7ADF9024690
:102170000B4620A901EBC70656E90601FDF7EEFF65
:1021800046E906010135032DE3DD0137022F08DCA6
:102190000020002120AB03EBC70343E90601002523
:1021A000F1E7644BD3E90467DDE91E233046394685
:1021B000FDF7D4FFCDE9180155A3D3E9002330463C
:1021C0003946FEF781F954A3D3E90023FEF77CF9E1
:1021D00053A3D3E9002306F0A5F8814688464EA311
:1021E000D3E90023484628F00041FEF7F3FB80B115
:1021F0000022002348464146FEF7ECFB00285CD055
:1022000047A3D3E9002348464146FDF7A5FF814691
:102210008846484DD5E90067DDE91AAB4846414696
:1022200005F04CFFCDE9000102460B4650465946E9
:10223000FEF74AF902460B4630463946FDF78EFF57
:10224000CDE90401DDE91C674846414605F0D0FFB1
:1022500002460B46CDE9022330463946FEF734F9F3
:1022600002460B46DDE90401FDF778FFCDE91401D4
:10227000D5E90289DDE9022350465946FEF724F9E3
:1022800002460B4640464946FDF766FF80468946B2
:1022900032463B46DDE90001FEF716F902460B46E1
:1022A00040464946FDF75AFFCDE91601032214A91D
:1022B0002846FEF713FE00254BE019A3D3E90023BF
:1022C00048464146FDF74AFF81468846A1E700BFE0
:1022D0000A5D4647DB93ACBF7362E6D02773E1BF6C
:1022E0000A5D4647DB93AC3F1A3B335EB019DD3FD6
:1022F000CD7E4F03344AD33F4A1B3DA0F550CF3F1C
:10230000CD7E4F03344AD3BF04B6B7E795294B407F
:10231000682FA1BD84F6F23E182D4454FB210940DC
:10232000182D4454FB211940AA030020300300203B
:102330000000E0BFA007002020AB03EBC50638A3D8
:10234000D3E9002356E90C01FEF7BEF846E9120175
:102350000135012DF0DD34A3D3E90023DDE91801B7
:10236000FEF7B2F8CDE912010022314B05F0DAFF99
:1023700006460D4602460B46CDE9122300222D4BA0
:10238000304625F00041FEF725FB78B100220023FE
:1023900030462946FEF71EFB002835D00022244B8C
:1023A00030462946FDF7D8FECDE9120103220EA9D9
:1023B0002046FEF793FD204B1A68204BA3FB021327
:1023C0005B09642101FB1323092B3FF686AED4E998
:1023D0000067D4E902890022194BD4E90401FEF711
:1023E00073F8FEF70BFB054640464946FEF706FB31
:1023F000044630463946FEF701FB2B46224601468D
:10240000104804F0A7FA68E60022094B3046294636
:10241000FDF7A4FECDE91201C8E700BFAFF30080CD
:10242000D221337F7CD9923FABAAAAAAAAAA6A3F3B
:102430000080764000806640900F00201F85EB51A1
:1024400000005940E4A1000830B591B005460C46A3
:1024500000220023CDE90A23CDE90C23CDE90E2388
:10246000CDE90423CDE90623CDE9082304AB00938D
:1024700003AB002211460AA8FFF7DEFD012C11D0A4
:1024800000231EE002EB4201CB002B440020002180
:10249000C3E90001C3E90201C3E904010132132ABF
:1024A000F0DD15E00022FAE75C1C04EB4402D000EA
:1024B00003EB4303D900032229442844FEF70EFD11
:1024C0002346122BF0DD03220AA92846FEF706FD5B
:1024D000002011B030BD00002DE9F04F8DB08246D4
:1024E0008B46CDE90423D0E9004522462B467449AA
:1024F000D1E90001FEF750FAB8B1DAE902237049D8
:10250000D1E90201FEF748FA78B1DBE900236D4911
:10251000D1E90001FEF740FA38B1DBE9022369494D
:10252000D1E90201FEF738FA58BB674B01221A7055
:10253000634BC3E90045DAE90289C3E90289DBE9B3
:102540000001604BC3E90001DBE90267C3E90267F0
:1025500022462B46FDF700FE04460D4600220023CE
:10256000FEF71AFAF0B142464B4630463946FDF7BF
:10257000F3FD00220023FEF72DFA78B1534B02221F
:102580001A70514B1B78002B00F091804F4B1B7839
:10259000032B28D8DFE803F0556C21404B4B032276
:1025A0001A70EEE742464B4630463946FDF7D4FDF9
:1025B00000220023FEF7F0F90028E2D000220023D9
:1025C00020462946FEF706FA18B1404B00221A7041
:1025D000D7E73E4B01221A70D3E73D4B1B786BB116
:1025E0003B4B5B788BB13A4B1B78012B40F03A8127
:1025F000374B5B78012B52D0042413E10121B42026
:10260000FFF72AFB324B1870EAE70221AF20FFF7F1
:1026100023FB2F4B5870E6E72D4B1B7853B12C4B07
:102620005B78002BDFD10221AF20FFF715FB284B91
:102630005870D8E70121B420FFF70EFB244B187027
:10264000EDE7234B1B785BB1214B5B78002BCAD1A4
:10265000022140F20910FFF7FFFA1D4B5870C2E744
:1026600001214FF48770FFF7F7FA194B1870EBE769
:10267000174B1B785BB1164B5B78002BB3D1022153
:1026800040F20910FFF7E8FA114B5870ABE701214F
:102690004FF48770FFF7E0FA0D4B1870EBE700235B
:1026A000094A13700A4A137053700424BAE0074BA6
:1026B0001B78032B16D8DFE803F0828D0D7900BF5D
:1026C000D8070020F8070020A8030020B00300204E
:1026D0001C0800200121B320FFF7BEFA0221B02020
:1026E000FFF7BAFA624D00212846FFF7ADFE614EB2
:1026F000337803939DF858300293DDE90434CDE933
:1027000000342B465A4651460AA8FEF7B5F904464E
:10271000337803930295CDF804B0CDF800A0DDE93D
:102720000A2306A908A8FEF7F7FFDDE90A89DDE913
:10273000082340464946FDF711FD06460F46DDE9F0
:10274000062340464946FDF709FD8046894600229A
:10275000002330463946FEF729F9002845D10022EA
:10276000002340464946FEF721F9002840D13EA308
:10277000D3E9002330463946FEF736F910B13AA7BF
:10278000D7E9006738A3D3E9002340464946FEF75E
:102790002BF918B10FF2D009D9E90089354B1B7814
:1027A000032B3DD8DFE803F0422929420121B42060
:1027B000FFF752FA0221AF20FFF74EFA92E701210C
:1027C0004FF48770FFF748FA022140F20910FFF733
:1027D00043FA87E701214FF48770FFF73DFA0221A2
:1027E00040F20910FFF738FA7CE700260027B6E729
:1027F0004FF000084FF00009B9E71F4D01232B747B
:102800000223AB753046394605F0A4FCFEF7F6F816
:10281000E8814046494605F09DFCFEF7EFF8A882A6
:10282000032C17D020460DB0BDE8F08F124D0223C7
:102830002B740123AB754046494605F08BFCFEF72F
:10284000DDF8E8813046394605F084FCFEF7D6F81D
:10285000A882E5E7084B0022DA819A8203221A74E3
:102860009A75DFE70424DDE7000000008087C3409D
:10287000D8030020B00300204400002008B500F079
:10288000C1FD002008BD0000F0B58BB09C4B9B78CB
:1028900013F0400F02D19B4B01221A70984B9A788B
:1028A0005A789A789B7803F00303032B01D0944B5A
:1028B0009B78934B9B7803F00303032B01D0904B41
:1028C0009B788F4B9B7803F00C030C2B04D08C4B24
:1028D0009B7813F0040F02D18B4B01221A70884BA6
:1028E0009B7803F00C030C2B04D0854B9B7813F0E2
:1028F000080F02D1854B01221A70814B5A785A7801
:102900005A785A789B7803F00C030C2B11D07C4B2F
:102910009B7813F0040F0CD07B4B1B784BB17C4B96
:102920001B78032B26D00133794A1370764B002293
:102930001A70734B9B7803F00C030C2B10D0704B68
:102940009B7813F0080F0BD0704B1B7843B1704B82
:102950001B789BB96E4B03221A706C4B00221A70C5
:102960006B4B1B78032B0FD8DFE813F0F902310013
:102970000C002E00664B00221A70D7E7013B644A18
:102980001370EAE7FEF78EFA614B1B78012B40F0DB
:1029900085845B4B5B7813F0080F05D0584B5B7850
:1029A00013F0020F40F087845A4B1A685A4BA3FB6E
:1029B00002135B09642101FB1323092B40F2988465
:1029C000002318460BB0F0BDFEF76CFADCE74C4B69
:1029D0005B7813F0080F04D0494B5B7813F0020FBB
:1029E00027D1474B9B7813F0400F05D0454B1B7800
:1029F00013B14A4B01221A70414B9B7813F0200F00
:102A000007D00023464A1360444A1370454B012205
:102A10001A70424B1B7843B3434B1D68062DB3D845
:102A2000DFE815F02900900025016A01AB011B02C7
:102A30005C0201210020FEF761FA01210846FEF741
:102A40005DFA01210220FEF759FA01210320FEF769
:102A500055FA3648009009AB00220121FFF7ECFA45
:102A600001213348FFF7F0FCBBE7FEF71BFA2E4BC2
:102A700000221A6088E72B4B1B78B3B9012301931E
:102A800000931BA3D3E900232A492B48FFF724FD19
:102A90002A4B187003287FF477AF224B01221A705B
:102AA000214A1368013313606EE72048009009AB98
:102AB00000221146FFF7C0FA1F4900220023C1E996
:102AC0000023C1E902231B49C1E900230AA3D3E97A
:102AD0000023C1E90223072D05DC194B2B440322F7
:102AE0005A700135F7E70F4B00221A70C6E700BF96
:102AF000000000000094B140000000000044B64017
:102B0000940F00209003002018080020A903002043
:102B10000B000020900F00201F85EB514008002083
:102B2000940300200A000020B8030020C003002006
:102B3000C005002030080020200800200C000020E4
:102B400038000020A44B1B78E3B9A44A1368013372
:102B50001360952B3BDDF92B75DDB3F5AF7F41DAC3
:102B60000121F020FFF778F80221EB20FFF774F83D
:102B70009B4B02221A7401229A7540F6AC52DA81FC
:102B80009A822FE0974D009509AB00221146284606
:102B9000FFF752FA944B00200021C3E90001D5E968
:102BA0000201C3E90201914B0026914FC3E900677E
:102BB000C3E902010023072B05DC8E4A1A440221D7
:102BC00051700133F7E7844B00221A70BDE70123EF
:102BD000019300930022864B84498348FFF77CFCD5
:102BE000854B18707D4B1B68B3F5AF7FFFF6CCAEFD
:102BF000814B04221A700026784B1E60FEF764F9A0
:102C000001258DF824508DF825608DF8265000227E
:102C10007A4BCDE9022366A3D3E90023CDE904234F
:102C200000220023CDE9062302AB009309AB2A461C
:102C300031466C48FFF700FA674B1D70704A136805
:102C40002B441360A0E601214FF49670FFF704F8BF
:102C5000022140F22710FEF7FFFF614B02221A7497
:102C600001229A7540F6AC52DA819A82BAE75A4B41
:102C70001B78ABB90123019300930022614B5B49A0
:102C80005948FFF729FC5C4B187003287FF47CAE91
:102C9000514B01221A705A4A13680133136073E6CC
:102CA000504D009509AB002211462846FFF7C4F9A4
:102CB000554A537843F0080353704B4B3EA1D1E97A
:102CC0000001C3E90001D5E90201C3E90201474B54
:102CD0003BA7D7E90067C3E90067C3E90201002306
:102CE000072B05DC434A1A44042151700133F7E7EE
:102CF000394B00221A70BDE7374B1B78B3B901235B
:102D00000193009330A3D3E9002338493648FFF7F5
:102D1000E3FB394B187003287FF436AE2E4B0122AB
:102D20001A70374A1368013313602DE62D4D009554
:102D300009AB002211462846FFF77EF9D5E90001CC
:102D4000294BC3E900011AA7D7E90067C3E9026765
:102D5000264BC3E900011EA1D1E90001C3E902012C
:102D60000023072B05DC234A1A4405215170013347
:102D7000F7E7194B00221A70C1E7174B1B78002B9D
:102D800044D10123019300930FA3D3E900231749F2
:102D90001548FFF7A1FB184B187003287FF4F4AD1A
:102DA0000D4B01221A70164A136801331360EBE5CC
:102DB000000000000044B6400000000000C06C406D
:102DC0000000000000589BC0000000000070A740F9
:102DD000000000000038B8400A00002094030020E2
:102DE00044000020C00300202008002030080020FC
:102DF00000409F40380000200C0000200000694087
:102E0000B80300200040AF4034000020B64D0095CC
:102E100009AB002211462846FFF70EF9D5E900015B
:102E2000B24BC3E90001A2A7D7E90067C3E9026773
:102E3000AF4BC3E90001A0A1D1E90001C3E9020140
:102E40000023072B05DCAB4A1A44062151700133DD
:102E5000F7E7A94B00221A7093E7A74B1B78B3B989
:102E600001230193009396A3D3E90023A0499F482F
:102E7000FFF732FBA14B187003287FF485AD9E4B02
:102E800001221A709E4A1368013313607CE5964D47
:102E9000009509AB002211462846FFF7CDF8D5E989
:102EA0000001924BC3E9000183A7D7E90067C3E99A
:102EB00002678F4BC3E9000183A1D1E90001C3E997
:102EC00002010023072B05DC8A4A1A440E215170A7
:102ED0000133F7E7884B00221A70C1E7864B1B7855
:102EE000B3B901230193009375A3D3E9002380496B
:102EF0007E48FFF7F1FA814B187003287FF444AD48
:102F00007D4B01221A707E4A1368013313603BE542
:102F1000754D009509AB002211462846FFF78CF845
:102F2000724B6BA1D1E90001C3E90001D5E90201AF
:102F3000C3E902016E4B68A7D7E90067C3E90067E0
:102F4000C3E902010023072B05DC6A4A1A440F215A
:102F500051700133F7E7684B00221A70C1E7694CE2
:102F6000204604F063F980EAE075A5EBE0752046A1
:102F700004F05CF90028B8BF404200FB05F520468C
:102F800004F065F980EAE076A6EBE076204604F0EE
:102F90005EF90028B8BF404200FB0650FDF72AFA50
:102FA00005F020FA0022584BFDF700FD00282ED036
:102FB000564B1C68554B1C60554B1B78002B00F082
:102FC000AD80544B1B78002B00F0B180514B1B7827
:102FD00023B14F4B1B78002B40F0B280FEF7A8FFC7
:102FE000034600287FF4EDAC464B5B7813F0080FE6
:102FF00000F0B180434B5B7813F0100F00F0AB8012
:10300000454B032283F8222000221A84AFE03D487A
:1030100004F00CF900281EDB3A4C204604F017F9A6
:10302000FDF7E8F906460F46204604F0FFF8FDF7E5
:10303000E1F902460B4630463946FDF76FFB04F0D6
:10304000AFFE27A3D3E90023FDF73EFAFDF7D6FC38
:10305000C0F58774AEE72B4C204604F0F8F8FDF776
:10306000C9F906460F46204604F0E0F8FDF7C2F91C
:1030700002460B4630463946FDF750FB04F090FE01
:1030800017A3D3E90023FDF71FFA02460B461046AB
:1030900003F10041FDF7B2FC041E04DBC4F58774A4
:1030A000C4F5B47486E7C4F58774F9E7AFF300801C
:1030B000000000000038B840000000000044B640A6
:1030C000000000000070A7400000000000D4B740DE
:1030D0000000000000589BC00000000000F4AAC0DF
:1030E00046DF617EDCA54C40C003002020080020A4
:1030F00030080020380000200A0000200C000020CA
:10310000B8030020940F002000804640BC0300203C
:10311000990300209803002044000020FEF766FD7C
:1031200000287FF44EAF8E4B01221A7049E7FEF75C
:1031300077FD00287FF44AAF8A4B01221A7045E7D9
:10314000012104F1B400FEF787FD022104F1AF0074
:10315000FEF782FD42E7844B5B7813F0080F34D012
:10316000824B012283F8222040F6B8321A847E4B2B
:103170005B7813F0020F04D07B4B5B7813F0040FE5
:1031800037D1794B5B7813F0020F36D1764B5B78F1
:1031900013F0040F35D00120FDF782FF724B5B78EE
:1031A00013F0080F45D0704B5B7813F0100F40D030
:1031B0006D4B9B7813F0400F27D06C4B012283F8A6
:1031C000282040F6C412DA8439E0674B5B7813F0AC
:1031D000100F07D0654B022283F8222040F6B83248
:1031E0001A84C4E7614B032283F8222000221A8448
:1031F000BDE70220FDF754FFD0E70020FDF750FFA8
:10320000CCE70220FDF74CFFC8E7574B9B7813F043
:10321000200F07D0554B022283F8282040F6C41215
:10322000DA840CE0514B032283F828200022DA8450
:1032300005E04E4B032283F828200022DA844A4B13
:103240009B7813F0400F0DD1FDF794FD0346002845
:103250007FF4B7ABFDF7D6FD034600283FF494ABEF
:10326000FFF7AFBB01228DF824208DF825208DF8C3
:10327000262000203E49CDE9020137A1D1E9000115
:10328000CDE9040100200021CDE9060102AB009345
:1032900009AB00213748FEF7CFFED5E7354800904F
:1032A00009AB00221146FEF7C7FE034600283FF493
:1032B00070ABFFF786BB01210020FDF71FFE012147
:1032C0000846FDF71BFE01210220FDF717FE012134
:1032D0000320FDF713FE2748009009AB00220121CF
:1032E000FEF7AAFE01212448FFF7AEF8FFF75CBB0A
:1032F000224B1A78224B53F82210224803F02AFB63
:10330000214B1A78214B53F82210214803F022FB5D
:103310002146204803F01EFB4FF48051012003F0AA
:10332000D7F968B91C4803F015FB0421012003F00C
:10333000CFF948B1194803F00DFB0023FFF741BB5B
:10334000174803F007FBF0E7164803F003FB0023E0
:10335000FFF737BBAFF30080000000000044B64029
:103360009903002098030020940F002044000020BF
:1033700000006940C0030020C00500200B000020B1
:10338000ECA20008FCA000080C000020CCA1000862
:103390000CA1000824A100083CA1000890A100088D
:1033A00058A1000874A10008FEE7000008B54FF41A
:1033B000A2720249024806F0FBFD08BDFCA200080B
:1033C00044080020002209E0930003F1006303F5A4
:1033D000FE331968094B43F8221001320C2AF3DD41
:1033E000002307E0064A52F82320044951F823102D
:1033F00011600133082BF5DD704700BF88090020FC
:103400001000002008B5FFF7D1FFFFF7DBFF08BD74
:1034100000B583B01C4B9A6942F001029A619B6926
:1034200003F001030193019B032000F0F1FA002255
:1034300011466FF00B0000F009FB002211466FF0FF
:103440000A0000F003FB002211466FF0090000F0B3
:10345000FDFA002211466FF0040000F0F7FA002296
:1034600011466FF0030000F0F1FA002211466FF0F0
:10347000010000F0EBFA002211464FF0FF3000F09F
:10348000E5FA03B05DF804FB00100240F0B589B026
:1034900003685E4A934205D005465D4A934255D083
:1034A00009B0F0BD5B4B9A6942F008029A619B69D2
:1034B00003F008030093009B544A1368C3F30E0300
:1034C00013604FF440730493112305930223079371
:1034D000514C04A9204600F073FDE36843F44073A7
:1034E000E3604D4B9B6803F44073B3F5407FF8D124
:1034F000494AD36823F44073D360474B9B6813F465
:10350000407FFAD14FF440730493122305930323B1
:10351000079304A9404800F053FD404A536843F024
:10352000020353603B4BDA6942F40012DA61DB6953
:1035300003F400130193019B344B1A6842F40042D8
:103540001A601A68C2F30E021A60A9E74FF44063CA
:103550000493122305930323079304A92E4800F034
:103560002FFD2C4BDA6942F48002DA61DA6902F449
:1035700080020292029A5A6942F001025A615B6922
:1035800003F001030393039B254E264B3360002475
:103590007460B4608027F76034617461B461F46171
:1035A000304600F0F9FA2E6375621F4E1F4B3360F0
:1035B00010237360B460F76034617461B461F461C6
:1035C000304600F0E9FAEE627562012221460E20D3
:1035D00000F03CFA0E2000F07FFA012221460F2075
:1035E00000F034FA0F2000F077FA2246214621201D
:1035F00000F02CFA212000F06FFA2246214622200A
:1036000000F024FA222000F067FA49E70054004055
:103610000058004000100240000C01400000014032
:10362000D009002058000240080A0020440002404F
:1036300000B587B003681B4A934205D01A4A9342EB
:103640001BD007B05DF804FB184BDA6942F00202A8
:10365000DA61DB6903F002030093009BC02302934D
:1036600000230393049302A9114800F0A9FC114A16
:10367000536843F440635360E3E70C4BDA6942F06C
:103680000402DA61DB6903F004030193019BC023A8
:10369000029300230393049302A9074800F090FCCF
:1036A000CFE700BF000400400008004000100240C7
:1036B0000010014000000140000C0140F0B58DB049
:1036C0000368724A934209D00446714A93422FD04C
:1036D000704A934200F086800DB0F0BD6E4B9A693F
:1036E00042F480429A619A6902F480420192019AFE
:1036F0009A6942F004029A619B6903F00403029301
:10370000029B4FF4007308930223099303230B9346
:10371000624C08A9204600F053FC4FF480630893E4
:10372000002309930A9308A9204600F049FCD3E737
:10373000594EF36943F40033F361F36903F4003342
:103740000393039BB36943F00403B361B36903F0CC
:1037500004030493049B0423089302230993032383
:103760000B934E4F08A9384600F02AFC0823089313
:10377000002509950A9508A9384600F021FC7369CF
:1037800043F001037361736903F001030593059B23
:10379000434E444B336010277760B5608023F3605D
:1037A00035617561B561F561304600F0F5F9266364
:1037B000746201222946112000F048F9112000F01E
:1037C0008BF92A462946384600F040F9384600F081
:1037D00083F901222946262000F038F9262000F03E
:1037E0007BF979E72C4BDA6942F48022DA61DA69F5
:1037F00002F480220692069A9A6942F010029A61B7
:103800009B6903F010030793079B4FF480630893B1
:103810000223099303230B93234D08A9284600F0A4
:10382000CFFB4FF400630893002609960A9608A977
:10383000284600F0C5FB1D4A536823F0300343F0CF
:10384000100353601A4D1B4B2B606E60AE608023DB
:10385000EB602E616E61AE614FF40053EB61284660
:1038600000F09AF965636C62324631460D2000F033
:10387000EDF80D2000F030F901223146272000F04C
:10388000E5F8272000F028F926E700BF00380140BE
:103890000044004000480040001002400008014081
:1038A000780A002080000240001001400000014022
:1038B000400A0020300002407047FEE7FEE7FEE7C6
:1038C000FEE770477047704708B500F085F800F0D4
:1038D0004EF9024A13680133136008BD900F0020AF
:1038E00008B5024B186B00F033FA08BD0C0200203B
:1038F00008B5024B586B00F02BFA08BD4C020020B3
:1039000008B5024802F0D9FD08BD00BF4C020020F6
:1039100008B5024802F0D1FD08BD00BF0C0200202E
:1039200008B5024BD86A00F013FA08BD4401002024
:1039300008B5024B186B00F00BFA08BD44010020DB
:103940000F4B1A6842F001021A6059680D4A0A408A
:103950005A601A6822F0847222F480321A601A685F
:1039600022F480221A605A6822F4FE025A604FF450
:103970001F029A60044B4FF000629A60704700BFCC
:10398000001002400000FFF800ED00E010B5044612
:1039900001F026FF064BA3FB0030800900F0B2F8CF
:1039A000002221464FF0FF3000F050F8002010BDFB
:1039B000D34D621008B5074A136843F01003136033
:1039C000032000F025F80020FFF7E0FFFFF720FDBF
:1039D000002008BD00200240024A13680133136032
:1039E000704700BFB00A0020014B1868704700BF45
:1039F000B00A002010B582B00190FFF7F5FF044631
:103A0000FFF7F2FF001B019B9842F9D302B010BDF3
:103A100010B50446C31E042B0FD80A4AD36823F4FA
:103A2000E0631B041B0C240204F4E064234343F012
:103A3000BF6343F40033D36010BDBA210248FFF7DF
:103A4000B3FCEAE700ED00E058A4000870B50546B5
:103A50000C4616460F2A25D80F2C28D81B4BDB689E
:103A6000C3F30223C3F10702042A28BF0422191D4D
:103A7000062921D9033B4FF0FF3101FA02F224EA73
:103A800002049C4001FA03F326EA03063443002DA6
:103A900014DB2401E4B205F1604505F5614585F8C4
:103AA000004370BDD2210A48FFF77EFCD4E7D32142
:103AB0000748FFF779FCD1E70023DCE705F00F05A5
:103AC0002401E4B2034B5C55EBE700BF00ED00E0DE
:103AD00058A4000814ED00E010B5041E08DB04F043
:103AE0001F02640901239340044A42F8243010BDA8
:103AF000E6210348FFF758FCF1E700BF00E100E0D2
:103B000058A400080138B0F1807F0AD2064B5860F3
:103B1000064AF02182F823100020986007221A60DC
:103B200070470120704700BF10E000E000ED00E0AA
:103B300010B50446042800D038B9042C0BD0094A2B
:103B4000136823F00403136010BD4FF4DF710648BF
:103B5000FFF72AFCF1E7034A136843F004031360FC
:103B6000F2E700BF10E000E058A40008704708B575
:103B7000FFF7FCFF08BD10B4046863604368102BB6
:103B800005D0036899600368DA6010BC7047036869
:103B90009A600368D960F8E7002800F0928010B5B9
:103BA00004460368484A934215D01432934212D017
:103BB000143293420FD0143293420CD014329342F9
:103BC00009D01432934206D01432934203D0B52167
:103BD0003E48FFF7E9FB636823B1102B02D0B3F531
:103BE000804F4BD1A368402B01D0002B4BD1E36811
:103BF000802B01D0002B4BD123692BB1B3F5807FF3
:103C000002D0B3F5007F48D163692BB1B3F5806F63
:103C100002D0B3F5006F45D1A3690BB1202B46D17B
:103C2000E36943B1B3F5805F05D0B3F5005F02D01F
:103C3000B3F5405F40D194F821300BB984F82030BF
:103C4000022384F8213021680A6822F47F5222F08E
:103C500030026368A0680343E068034320690343BC
:103C600060690343A0690343E069034313430B60A6
:103C700000206063012384F8213010BDB621134871
:103C8000FFF792FBAEE7B7211048FFF78DFBAEE7D9
:103C9000B8210E48FFF788FBAEE7B9210B48FFF7C4
:103CA00083FBB1E7BA210948FFF77EFBB4E7BB21EC
:103CB0000648FFF779FBB3E7BC210448FFF774FB24
:103CC000B9E70120704700BF0800024090A4000837
:103CD000F8B590F82040012C35D01D4616460F4609
:103CE0000446012380F82030022380F821306A1E28
:103CF0004FF6FE739A4220D82068036823F0010330
:103D000003602B46324639462046FFF734FF2268CF
:103D1000136843F0020313602268136843F004033E
:103D200013602268136843F0080313602268136865
:103D300043F0010313600020F8BD40F26111034815
:103D4000FFF732FBD8E70220F6E700BF90A4000897
:103D500010B50446984B1A68036898498B4214D0F2
:103D600014318B4232D014318B4231D014318B421A
:103D700031D014318B4231D014318B4202D04FF00C
:103D8000006103E04FF4000100E008210A423CD04A
:103D90001A6812F0080F38D01A6822F008021A6068
:103DA0002368864A93421FD01432934245D014327E
:103DB000934244D01432934244D01432934244D0BC
:103DC000143293420DD04FF000620EE08021DDE707
:103DD0004FF40061DAE74FF40041D7E74FF40021D8
:103DE000D4E74FF4000200E00822734B5A60636B83
:103DF00043F001036363042384F82130002384F833
:103E00002030236B0BB1204698476B4B1A68236810
:103E10006A498B421FD014318B4241D014318B42FE
:103E200040D014318B4240D014318B4240D01431F9
:103E30008B420DD04FF080610EE08022D5E74FF429
:103E40000062D2E74FF40042CFE74FF40022CCE704
:103E50004FF4800100E004210A4239D01A6812F0C0
:103E6000040F35D01A6812F0200F03D11A6822F01F
:103E700004021A602368514A93421FD014329342BD
:103E80003ED0143293423DD0143293423DD014328E
:103E900093423DD0143293420DD04FF080620EE039
:103EA0004021D9E74FF48061D6E74FF48041D3E752
:103EB0004FF48021D0E74FF4800200E004223E4B13
:103EC0005A60112384F82130E36A0BB120469847E9
:103ED000394B1A68236839498B421FD014318B4201
:103EE00041D014318B4240D014318B4240D0143138
:103EF0008B4240D014318B420DD04FF000710EE058
:103F00004022DCE74FF48062D9E74FF48042D6E7E5
:103F10004FF48022D3E74FF4001100E002210A425F
:103F20003ED01A6812F0020F3AD01A6812F0200F31
:103F300003D11A6822F002021A6023681F4A9342D2
:103F40001FD0143293422CD0143293422BD014320F
:103F500093422BD0143293422BD0143293420DD083
:103F60004FF000720EE02021D9E74FF40071D6E740
:103F70004FF40051D3E74FF40031D0E74FF4001273
:103F800000E002220C4B5A60636B6363012384F8E8
:103F90002130002384F82030A36A0BB120469847D3
:103FA00010BD2022EEE74FF40072EBE74FF4005211
:103FB000E8E74FF40032E5E7000002400800024065
:103FC0002DE9F04383B080460F46B54B984213D09D
:103FD00003F5806398420FD003F5806398420BD0BD
:103FE00003F58063984207D003F58063984203D0BD
:103FF000CF21AC48FFF7D8F93B882BB37B68012B66
:104000001ED9112B1CD0022B1AD0122B18D0A64A65
:10401000934215D002F58012934211D002F580121E
:1040200093420DD0A2F5F812934209D002F5801206
:10403000934205D002F58012934201D0032B08D1A0
:104040004FF000094E46DDE0D0219648FFF7ACF96D
:10405000D4E7D1219348FFF7A7F9F1E7002B5ED011
:10406000012B05D1FB68013B022B65D8D7F80C90DA
:10407000FF2C00F296804046FF2C00F29580B200A3
:1040800003680F21914023EA010309FA02F2134366
:1040900003607B6813F0805F00F0B380834B9A6904
:1040A00042F001029A619B6903F001030193019BB5
:1040B000B208911C7E4B53F8210006F003039900CF
:1040C0000F238B4020EA0300754B984572D003F50F
:1040D0008063984500F0CD8003F58063984500F03B
:1040E000CA8003F58063984562D0042363E0714A77
:1040F000934214D00BD9704A934210D002F580320B
:1041000093420CD0A2F580129342B1D107E0A2F500
:104110008012934203D002F580329342A8D1BB684B
:10412000022B2DD8BB68002B38D0012B2ED0C8F81D
:1041300014504FF008099BE7E7215A48FFF734F97C
:1041400094E7EE215748FFF72FF98EE0FB68013B1B
:10415000022B03D8FB6803F1080989E7F5215148D0
:10416000FFF722F9F6E7FB68013B022B03D8FB6857
:1041700003F10C097CE7FC214A48FFF715F9F6E743
:1041800040F209114748FFF70FF9CBE7C8F8105084
:104190004FF008096CE74FF0000969E74FF0040998
:1041A00066E708F1040067E7A6F10802920067E7F6
:1041B000032300E000238B40034302323C4941F8D3
:1041C00022307B6813F4803F57D03C4A1368234366
:1041D00013607B6813F4003F55D0384A536823437B
:1041E00053607B6813F4801F53D0344A9368234391
:1041F00093607B6813F4001F62D0304AD3681C437D
:10420000D46001360F2E61D80125B5403C682C40A2
:10421000A542F6D1224B984513D003F5806398450B
:104220000FD003F5806398450BD003F58063984564
:1042300007D003F58063984503D0DF211948FFF7C5
:10424000B3F87B68122B8ED03FF651AF022B3FF4B0
:104250007DAF7FF603AF032B9DD0112B7FF408AF0A
:10426000FB68013B022B3FF66CAFFB6803F10409CE
:10427000FEE601239FE702239DE7104A136823EA25
:1042800004031360A5E70D4A536823EA040353604F
:10429000A7E70A4A936823EA04039360A9E700BFEB
:1042A00000080140C8A400080000111000100240DE
:1042B0000000014000002110000031100004014006
:1042C000044AD36823EA0404D4609AE703B0BDE843
:1042D000F08300BF0004014038B505460C4621B10B
:1042E000AB681C4207D1002038BD4FF4E27103488F
:1042F000FFF75AF8F4E70120F6E700BFC8A400086A
:1043000070B5064615460C4629B1012D09D875B978
:104310002404346170BD4FF4F2710648FFF744F88D
:10432000F3E740F2E5110348FFF73EF8EFE73461A9
:10433000F0E700BFC8A400084368124A934209D8B6
:104340005800B1FBF0F0C0F30B03032B00D970470A
:104350000420704782685AB903EB4300B1FBF0F0C8
:1043600040F40040C0F30B03002BF0D10120EEE736
:1043700003EB830000EB8000B1FBF0F040F4404021
:10438000F0E700BFA086010003685A6912F4806F4D
:104390000DD05A6922F480625A610423836320237A
:1043A00080F83530002380F8343001207047002039
:1043B00070472DE9F04106460C4690461D46FFF732
:1043C00013FB0746B8F1000F1AD043E025B1FFF701
:1043D0000BFBC01BA84213D9202386F835300023DD
:1043E00086F83430032019E033685B6924EA03035C
:1043F0009BB2003318BF01237BB1B5F1FF3FE5D17C
:10440000C4F30743012BEFD033689B6924EA03030D
:104410009BB2003318BF0123EEE70020BDE8F08116
:1044200025B1FFF7E1FAC01BA84213D9202386F873
:104430003530002386F834300320EFE733685B69BA
:1044400024EA03039BB2B3FA83F35B097BB1B5F1B2
:10445000FF3FE5D1C4F30743012BEFD033689B69DD
:1044600024EA03039BB2B3FA83F35B09EEE700206F
:10447000D4E7F8B504460D461646FFF7B5FA0746E9
:1044800031E01A6842F400721A602268536923F41A
:10449000806353610423A363202384F83530002311
:1044A00084F8343001202CE026B1FFF79DFAC01BC0
:1044B000B04218D9202384F83530002384F83430F2
:1044C00003201EE023685B6925EA03039BB20033E7
:1044D00018BF0123A3B123685A6912F4806FD0D1A9
:1044E000B6F1FF3FE0D1C5F30743012BEAD02368C3
:1044F0009B6925EA03039BB2003318BF0123E9E758
:104500000020F8BD70B504460D46164602681368D3
:1045100043F480731360334600224FF00111FFF71C
:1045200048FF48BB2369B3F5804F0FD1236805F0DE
:10453000FE051D61324614492046FFF79AFF0346E7
:10454000D8B1A36B042B1CD1012316E0EB11226818
:1045500003F0060343F0F003136132460B49204693
:10456000FFF787FF20B1A36B042B08D1012304E0E0
:104570002368EDB21D61DDE70323184670BD0323F8
:10458000FBE70323F9E700BF020001000800010078
:10459000F0B583B004460D4616460268136843F42E
:1045A000806313600268136843F4807313603346BA
:1045B00000224FF00111FFF7FCFE00284CD12369C7
:1045C000B3F5804F11D1236845F00105EDB21D61AF
:1045D000324627492046FFF74CFF034600283CD0CF
:1045E000A36B042B42D1012337E0EF1107F006073C
:1045F000236847F0F0021A6132461E492046FFF751
:1046000038FF20B1A36B042B2AD1012325E02368B6
:10461000EDB21D61324616492046FFF72AFF20B150
:10462000A36B042B1ED1012317E023685A69019262
:104630009A690192019A1A6842F480721A603346AC
:1046400000224FF001112046FFF7B3FE60B9236846
:1046500047F0F1071F61BBE70323184603B0F0BD25
:104660000323FAE70323F8E70323F6E70323F4E73A
:10467000020001000800010070B504460D46FFF776
:10468000B3F9064623685B6913F0800F18D1204602
:10469000FFF77AFEB0B9B5F1FF3FF3D025B1FFF7D0
:1046A000A3F9801BA842EDD9A36B43F02003A363B9
:1046B000202384F83530002384F83430032000E0D0
:1046C000002070BD0120FCE770B504460D46FFF7E1
:1046D0008BF9064623685B6913F0040F18D1204656
:1046E000FFF752FEB0B9B5F1FF3FF3D025B1FFF7A8
:1046F0007BF9801BA842EDD9A36B43F02003A36391
:10470000202384F83530002384F83430032000E07F
:10471000002070BD0120FCE7002800F0B38038B510
:1047200004460368584A934208D002F580629342D7
:1047300004D04FF4A5715548FEF736FE6368013B7F
:10474000534A93425ED8A36813B1B3F5804F5FD14B
:10475000E36823F47F7323F00303002B5ED1236906
:10476000B3F5804F02D0B3F5404F5DD16369012BA3
:1047700060D8A36933F0FE0362D1E3690BB1402B2B
:1047800064D1236A0BB1802B66D194F83530002BAD
:1047900068D0242384F835302268136823F001039D
:1047A000136001F023F801463A4BA3FB00239B0C56
:1047B000226853606068384A904259D801332268B1
:1047C000136225682046FFF7B7FDE861E369216AB7
:1047D00022680B4313602369E16822680B439360EE
:1047E0006369A16922680B43D3602268136843F0B0
:1047F000010313600020A063202384F8353084F87F
:10480000360038BD40F24B112048FEF7CDFD9AE747
:104810004FF4A6711D48FEF7C7FD99E740F24D1110
:104820001A48FEF7C1FD9AE74FF4A7711748FEF743
:10483000BBFD9BE740F24F111448FEF7B5FD98E72A
:104840004FF4A8711148FEF7AFFD96E740F2511101
:104850000E48FEF7A9FD94E74FF4A9710B48FEF747
:10486000A3FD92E784F834302046FEF70FFE90E770
:104870004FF4967202FB03F3084AA2FB03239B0941
:1048800001339CE7012070470054004000A5000858
:104890007F1A060083DE1B43A0860100D34D621001
:1048A000F0B583B01E4690F83530DBB2202B7FD1B7
:1048B00004460F461546002A7ED00EB9012378E043
:1048C00042F2107301224149FFF773FD002875D1B0
:1048D00094F83430012B73D0012384F834302268EB
:1048E000136823F400631360212384F83530102308
:1048F00084F836300023A363089A39462046FFF730
:1049000001FE60B1A36B042B04D1002384F8343082
:1049100001234EE0002384F83430032349E0236868
:104920005A6901929B690193019B0BE0A36B042BD5
:1049300048D12268136843F400731360012338E000
:104940001E461546C6B108992046FFF795FE002879
:10495000ECD16A1C236829781961731E9BB2216807
:10496000486910F0040FEBD0002BE9D0AA1C6B783B
:104970000B61023EB3B2E3E708992046FFF7A4FEBD
:10498000034648B1A36B042B1ED12268136843F47D
:104990000073136001230CE021680A6842F400727E
:1049A0000A60202284F83520002284F8342000E0B8
:1049B0000223184603B0F0BD0123FAE70223F8E70B
:1049C0000223F6E70323F4E70323F2E702001000D3
:1049D000F0B583B090F83540E4B2202C57D1002ACE
:1049E00059D00BB9012353E01E4615460F46044625
:1049F00042F2107301222B49FFF7DBFC00284CD157
:104A000094F83430012B4AD0012384F834302268E2
:104A1000136823F400631360212384F835301023D6
:104A200084F836300023A363656226856685E36AD1
:104A30001D4A9A62E36A1D4A1A632268334610329D
:104A40002946E06AFFF744F9232239462046FFF75A
:104A500059FD034660B1A36B042B04D1002384F8F5
:104A60003430012314E0002384F8343003230FE0B2
:104A700021684A6842F400624A60226851690191E3
:104A800092690192019A002284F8342000E0022306
:104A9000184603B0F0BD0123FAE70223F8E702232A
:104AA000F6E700BF02001000D54B0008AB4B000832
:104AB000F0B583B090F83540E4B2202C64D1002AE0
:104AC00066D00BB9012260E01E4615460F4604462B
:104AD00042F2107301223149FFF76BFC002859D1D3
:104AE00094F83430012B57D0012384F834302268F5
:104AF000136823F400631360222384F835301023F5
:104B000084F836300023A363656226856685236BAF
:104B1000234A9A62236B234A1A63216833462A4642
:104B20001031206BFFF7D4F8232239462046FFF7D7
:104B30002FFD024660B1A36B042B04D1002384F83F
:104B40003430012221E0002384F8343003221CE0B9
:104B5000012E13D021684B6843F480534B602168C9
:104B60004B6843F400634B602368596901919B696A
:104B70000193019B002384F8343006E021680B6820
:104B800023F480630B60EAE70222104603B0F0BD15
:104B90000122FAE70222F8E70222F6E702001000FB
:104BA000294C0008AB4B0008704708B5406A026802
:104BB000136823F48063136000234385202280F868
:104BC000352080F83630836B43F010038363FFF7A2
:104BD000EBFF08BD10B5446A23230022114920468B
:104BE000FFF7E7FB18B1A36B43F02003A363226830
:104BF000136843F4007313602268536823F400635E
:104C0000536000236385202284F8352084F83630F1
:104C1000A36B1BB9204603F08FF810BD2046FFF7A9
:104C2000C3FFFAE70400010008B5406A0268136890
:104C300023F4806313600268136843F40073136005
:104C40000268536823F4805353600268536823F466
:104C50000063536000234385202280F8352080F8CC
:104C60003630836B13B903F06DF808BDFFF79CFF76
:104C7000FBE77047002844D010B504460268234B78
:104C80009A4203D0A6212248FEF78EFB6368062BCA
:104C900028D8A368B3F5805F29D22368DA6812F0B8
:104CA000010F03D0DB6813F0020F2CD1637B1BB321
:104CB00002236373236845F255521A6022685368D1
:104CC00023F0070361680B4353602268936823F461
:104CD0007F6323F00F03A1680B4393600123637389
:104CE000002010BDA7210A48FEF75EFBD1E7A821EE
:104CF0000748FEF759FBD0E723732046FFF7B9FFBB
:104D0000D6E7012070470120EBE700BF00300040EC
:104D100038A50008037B012B0FD0022343730368DF
:104D20004CF6CC421A6003684AF6AA221A600123A4
:104D3000437300230373184670470220704738B549
:104D4000037B012B1FD0044601230373022343730B
:104D5000FEF74AFE05462368DA6812F0020F0AD011
:104D6000FEF742FE401BB0F57A7FF4D90320607352
:104D70000023237306E04AF6AA221A600123637314
:104D80000020207338BD0220FCE7000030B583B05E
:104D9000044688B3236813B113F00F0F32D0236891
:104DA00013F0010F56D063682BB1B3F5803F02D0EA
:104DB000B3F5A02F2CD1C64B5B6803F00C03042B7A
:104DC00031D0C34B5B6803F00C03082B26D063681B
:104DD000B3F5803F00F08380002B40F0A58003F105
:104DE000804303F504331A6822F480321A601A688B
:104DF00022F480221A6077E04FF48771B548FEF7FD
:104E0000D3FAC7E740F20F11B248FEF7CDFAC6E772
:104E100040F21511AF48FEF7C7FACCE7AC4B5B6820
:104E200013F4803FD3D04FF4003393FAA3F3A84B8D
:104E30001A684FF4003393FAA3F3B3FA83F303F041
:104E40001F0322FA03F313F0010F03D06368002B52
:104E500000F02083236813F0020F00F0D380236951
:104E6000012B00F2998063691F2B00F29B80984B05
:104E70005B6813F00C0F00F0A180954B5B6803F0AA
:104E80000C03082B00F094802369002B00F0F880BD
:104E9000012292FAA2F3B3FA83F39B0003F1844355
:104EA00003F584031A60FEF79FFD0546022393FA7B
:104EB000A3F3874B1A68022393FAA3F3B3FA83F39D
:104EC00003F01F0322FA03F313F0010F40F0C9802F
:104ED000FEF78AFD401B0228E8D90320E1E27C4A64
:104EE000136843F4803313606368002B36D0FEF7F9
:104EF0007BFD05464FF4003393FAA3F3744B1A6815
:104F00004FF4003393FAA3F3B3FA83F303F01F03D0
:104F100022FA03F313F0010F9CD1FEF765FD401B4D
:104F20006428E7D90320BCE2B3F5A02F09D0684B71
:104F30001A6822F480321A601A6822F480221A60F9
:104F4000D2E703F18043A3F53C331A6842F4802290
:104F50001A601A6842F480321A60C5E7FEF744FD11
:104F600005464FF4003393FAA3F3594B1A684FF4F4
:104F7000003393FAA3F3B3FA83F303F01F0322FA87
:104F800003F313F0010F3FF465AFFEF72DFD401B57
:104F90006428E6D9032084E240F249114D48FEF727
:104FA00003FA60E74FF4A5714A48FEF7FDF95EE7A2
:104FB000474B5B6813F4803F7FF466AF022393FA9C
:104FC000A3F3434B1A68022393FAA3F3B3FA83F3D0
:104FD00003F01F0322FA03F313F0010F04D0236937
:104FE000012B01D001205CE23948036823F0F8036B
:104FF0006169F82292FAA2F2B2FA82F201FA02F29E
:1050000013430360236813F0080F70D0A369012BCA
:1050100064D8A369002B00F09280012292FAA2F3D7
:10502000B3FA83F32C4941F82320FEF7DDFC054653
:10503000022393FAA3F293FAA3F2254A526A93FA4F
:10504000A3F3B3FA83F303F01F0322FA03F313F07D
:10505000010F49D1FEF7C8FC401B0228E8D9032004
:105060001FE21B48036823F0F8036169F82292FAF3
:10507000A2F2B2FA82F201FA02F213430360C1E72C
:10508000012393FAA3F3B3FA83F39B0003F1844360
:1050900003F5840300221A60FEF7A6FC05460223EE
:1050A00093FAA3F30A4B1A68022393FAA3F3B3FA11
:1050B00083F303F01F0322FA03F313F0010FA1D0CF
:1050C000FEF792FC401B0228E9D90320E9E100BF6A
:1050D0000010024070A50008800442424FF4C571E0
:1050E000AC48FEF761F994E70120FEF783FC2368E2
:1050F00013F0040F00F0CF80E368012B01D9052BDA
:1051000042D1A54BDA6942F08052DA61DB6903F0E3
:1051100080530193019BA14A136843F48073136089
:10512000FEF762FC05469D4B1B6813F4807F31D16E
:10513000FEF75AFC401B6428F5D90320B1E1012396
:1051400093FAA3F3B3FA83F3954A002142F82310AC
:10515000FEF74AFC0546022393FAA3F293FAA3F260
:105160008D4A526A93FAA3F3B3FA83F303F01F0351
:1051700022FA03F313F0010FB9D0FEF735FC401B00
:105180000228E8D903208CE140F2B7118148FEF7EC
:105190000BF9B6E7E368012B0DD0C3B903F18043E7
:1051A00003F504331A6A22F001021A621A6A22F025
:1051B00004021A6204E0784A136A43F0010313629E
:1051C000E368002B3ED0FEF70FFC05462BE0052BD5
:1051D00009D0714B1A6A22F001021A621A6A22F08F
:1051E00004021A62ECE76C4B1A6A42F004021A627B
:1051F0001A6A42F001021A62E2E7674B1A6A022356
:1052000093FAA3F3B3FA83F303F01F0322FA03F331
:1052100013F0010F3FD1FEF7E7FB401B41F288334B
:10522000984200F23981022393FAA3F293FAA3F38E
:10523000B3FA83F35B0943F00203022BDDD0564B34
:105240005A6ADCE7FEF7D0FB054615E0524B1A6AB6
:10525000022393FAA3F3B3FA83F303F01F0322FAB2
:1052600003F313F0010F16D0FEF7BEFB401B41F213
:105270008833984200F21281022393FAA3F293FA40
:10528000A3F3B3FA83F35B0943F00203022BDDD0EF
:10529000414B5A6ADCE7E369022B68D8E369002BCB
:1052A00000F0FE803C4A526802F00C02082A00F02E
:1052B000FA80022B40F0C280236A13B1B3F5803F1D
:1052C0005BD1636A4BB3B3F5802F26D0B3F5002FC3
:1052D00023D0B3F5402F20D0B3F5801F1DD0B3F5F8
:1052E000A01F1AD0B3F5C01F17D0B3F5E01F14D01C
:1052F000B3F5001F11D0B3F5101F0ED0B3F5201F6A
:105300000BD0B3F5301F08D0B3F5401F05D0B3F56F
:10531000501F02D0B3F5601F35D14FF0807393FA60
:10532000A3F3B3FA83F39B0003F1844303F58403EF
:1053300000221A60FEF758FB05464FF0007393FAFF
:10534000A3F3154B1A684FF0007393FAA3F3B3FA63
:1053500083F303F01F0322FA03F313F0010F21D0AC
:10536000FEF742FB401B0228E7D9032099E040F2F8
:1053700047210848FEF718F890E74FF414710548E4
:10538000FEF712F89DE740F251210248FEF70CF8B3
:10539000C3E700BF70A50008001002400070004085
:1053A00080044242236AB3F5803F32D03F494B68C4
:1053B00023F47413226A606A024313434B604FF074
:1053C000807393FAA3F3B3FA83F39B0003F184434E
:1053D00003F5840301221A60FEF706FB04464FF032
:1053E000007393FAA3F3314B1A684FF0007393FAEA
:1053F000A3F3B3FA83F303F01F0322FA03F313F0CA
:10540000010F19D1FEF7F0FA001B0228E7D903209B
:1054100047E0A36813B1B3F5003F07D1234A5368AF
:1054200023F40033A1680B435360BFE740F26721C8
:105430001F48FDF7B9FFF1E7002032E04FF080731D
:1054400093FAA3F3B3FA83F39B0003F1844303F5C8
:10545000840300221A60FEF7C7FA04464FF0007377
:1054600093FAA3F3114B1A684FF0007393FAA3F366
:10547000B3FA83F303F01F0322FA03F313F0010FCF
:1054800006D0FEF7B1FA001B0228E7D9032008E096
:10549000002006E0012004E0032002E0032000E0F9
:1054A000002003B030BD0120FBE700BF0010024028
:1054B00070A5000810B487B01D4C94E80F000DF1E2
:1054C000180C0CE90F00238AADF80430194B596809
:1054D00001F00C03082B28D101F470134FF4701263
:1054E00092FAA2F2B2FA82F2D340634413F8100C9B
:1054F00011F4803F05D1104B03FB00F007B010BC46
:1055000070470C4B5B6803F400334FF4003292FA9F
:10551000A2F2B2FA82F2D340634413F8142C074B80
:10552000B3FBF2F300FB03F0E8E70448E6E700BF53
:10553000B8A000080010024000093D0000127A00E7
:1055400070B50D460446C0B1236813F00F0F1AD092
:10555000022D1ED89D4B1B6803F00703AB421ED2E1
:105560009A4A136823F007032B431360136803F070
:105570000703AB4213D0012070BD4FF42F71944844
:10558000FDF712FFE0E740F2BD219148FDF70CFF67
:10559000DEE740F2BE218E48FDF706FFDAE723681A
:1055A00013F0020F18D0A3687BB1802B0DD0902B85
:1055B0000BD0A02B09D0B02B07D0C02B05D0D02BFF
:1055C00003D0E02B01D0F02B41D1824A536823F065
:1055D000F003A1680B435360236813F0010F00F040
:1055E0008A806368022B38D86368012B3BD0022B7A
:1055F0004ED0022292FAA2F2764A1168022292FA60
:10560000A2F2B2FA82F202F01F0221FA02F212F0C2
:10561000010F00F0D8806F494A6822F0030213435B
:105620004B60FEF7E1F906466368012B45D0022B7B
:1056300052D0684B5B6813F00C0F5CD0FEF7D4F9C6
:10564000801B41F288339842F3D9032094E740F25B
:10565000D7215F48FDF7A8FEB7E740F2DE215C489E
:10566000FDF7A2FEC0E74FF4003292FAA2F2594AC7
:1056700011684FF4003292FAA2F2B2FA82F202F00A
:105680001F0221FA02F212F0010FC4D1012073E7C8
:105690004FF0007292FAA2F24E4A11684FF0007277
:1056A00092FAA2F2B2FA82F202F01F0221FA02F298
:1056B00012F0010FAFD101205EE7464B5B6803F0AB
:1056C0000C03042B17D0FEF78FF9801B41F28833AF
:1056D0009842F2D903204FE73E4B5B6803F00C037E
:1056E000082B08D0FEF780F9801B41F288339842DE
:1056F000F2D9032040E7354B1B6803F00703AB42A8
:105700000CD9324A136823F007032B431360136844
:1057100003F00703AB4201D001202DE7236813F00B
:10572000040F14D0E3685BB1B3F5806F08D0B3F514
:10573000A06F05D0B3F5C06F02D0B3F5E06F36D1DE
:10574000244A536823F4E063E1680B435360236801
:1057500013F0080F15D023695BB1B3F5806F08D043
:10576000B3F5A06F05D0B3F5C06F02D0B3F5E06F0D
:1057700023D1184A536823F46053216943EAC103D3
:105780005360FFF797FE134B5B6803F0F003F022C2
:1057900092FAA2F2B2FA82F2D3400F4AD35CD84016
:1057A0000E4B18600020FEF7F1F80020E4E640F20E
:1057B00032310748FDF7F8FDC2E740F239310448BD
:1057C000FDF7F2FDD5E70120D6E600BF002002403C
:1057D00070A500080010024040A4000888000020C6
:1057E000014B1868704700BF8800002008B5FFF71C
:1057F000F7FF074B5B6803F4E0634FF4E06292FA53
:10580000A2F2B2FA82F2D340024AD35CD84008BD79
:105810000010024050A4000808B5FFF7E1FF074B55
:105820005B6803F460534FF4605292FAA2F2B2FA4A
:1058300082F2D340024AD35CD84008BD0010024037
:1058400050A40008F0B583B00446036813F0130FAA
:105850002CD0236813F0010F5CD0636843B1B3F51B
:10586000807F05D0B3F5007F02D0B3F5407F22D111
:10587000594BDA6942F08052DA61DB6903F08053F8
:105880000193019B554A136843F480731360FEF73C
:10589000ABF80546514B1B6813F4807F10D1FEF71F
:1058A000A3F8401B6428F5D903205BE07E214C4817
:1058B000FDF77AFDCDE784214948FDF775FDD7E76F
:1058C000454B1B6A13F440731DD0626802F44072AA
:1058D0009A4218D04048016A21F440764FF4803350
:1058E00093FAA3F2B2FA82F23E4D012745F82270F4
:1058F00093FAA3F3B3FA83F3002245F82320066258
:1059000011F0010F30D1344A136A23F440736168F7
:105910000B431362236813F0020F11D0A36843B145
:10592000B3F5804F05D0B3F5004F02D0B3F5404F2B
:1059300042D1294A536823F44043A1680B43536082
:10594000236813F0100F44D0E368B3F5800F01D043
:10595000002B36D1204A536823F48003E1680B43BF
:105960005360002003B0F0BDFEF73EF8054614E09A
:10597000194B1A6A022393FAA3F3B3FA83F303F0E1
:105980001F0322FA03F313F0010FBCD1FEF72CF82A
:10599000401B41F28833984219D8022393FAA3F2AC
:1059A00093FAA3F3B3FA83F35B0943F00203022BE8
:1059B000DED0094B5A6ADDE7BA210948FDF7F4FC4D
:1059C000B7E74FF48B710648FDF7EEFCC2E7032002
:1059D000C8E70020C6E700BF00100240007000408A
:1059E000A8A500080004424210B504460368104A06
:1059F00093420FD0B3F1804F0CD0A2F59432934272
:105A000008D002F58062934204D04FF4987109489F
:105A1000FDF7CAFC022384F839302268136843F08A
:105A200001031360012384F83930002010BD00BF4A
:105A3000002C0140E0A50008704770477047704790
:105A4000704710B5044603681A6912F0020F11D0AE
:105A5000DA6812F0020F0DD06FF002021A61012312
:105A6000037603689B6913F0030F70D0FFF7E6FF1E
:105A70000023237623681A6912F0040F12D0DA6823
:105A800012F0040F0ED06FF004021A610223237685
:105A900023689B6913F4407F5FD02046FFF7CEFF59
:105AA0000023237623681A6912F0080F12D0DA68EF
:105AB00012F0080F0ED06FF008021A61042323764B
:105AC0002368DB6913F0030F4ED02046FFF7B6FFC3
:105AD0000023237623681A6912F0100F12D0DA68B7
