:020000040800F2
:100000000050002031B00008C56F0008C76F00081D
:10001000C96F0008CB6F0008CD6F0008000000001A
:10002000000000000000000000000000CF6F00088A
:10003000D16F000800000000D36F0008D56F0008E2
:1000400079B0000879B0000879B0000879B00008EC
:1000500079B0000879B0000879B0000879B00008DC
:1000600079B0000879B0000879B0000879B00008CC
:1000700079B00008FD6F00082D7000083D70000881
:1000800079B00008ED6F000879B0000879B0000879
:1000900079B0000879B0000879B0000879B000089C
:1000A00079B000084D9E000879B0000879B00008CA
:1000B0005D9E000879B0000879B0000879B00008AA
:1000C00079B0000879B0000879B0000879B000086C
:1000D00079B0000879B000081D7000080D700008A4
:1000E00079B0000879B0000879B00008000000007D
:1000F0000000000000000000000000000000000000
:0C01000000000000000000005FF808F1A3
:1001100010B5054C237833B9044B13B10448AFF341
:1001200000800123237010BDF002002000000000B9
:10013000F8C7000808B5034B1BB103490348AFF3E8
:10014000008008BD00000000F4020020F8C700088D
:1001500081F0004102E000BF83F0004330B54FEA78
:1001600041044FEA430594EA050F08BF90EA020FE5
:100170001FBF54EA000C55EA020C7FEA645C7FEA78
:10018000655C00F0E2804FEA5454D4EB5555B8BF9B
:100190006D420CDD2C4480EA020281EA030382EA0C
:1001A000000083EA010180EA020281EA0303362D9E
:1001B00088BF30BD11F0004F4FEA01314FF4801C71
:1001C0004CEA113102D0404261EB410113F0004F83
:1001D0004FEA03334CEA133302D0524263EB43033A
:1001E00094EA050F00F0A780A4F10104D5F1200ED8
:1001F0000DDB02FA0EFC22FA05F2801841F1000133
:1002000003FA0EF2801843FA05F359410EE0A5F106
:1002100020050EF1200E012A03FA0EFC28BF4CF037
:10022000020C43FA05F3C01851EBE37101F00045ED
:1002300007D54FF0000EDCF1000C7EEB00006EEBFA
:100240000101B1F5801F1BD3B1F5001F0CD3490884
:100250005FEA30004FEA3C0C04F101044FEA4452DB
:1002600012F5800F80F09A80BCF1004F08BF5FEA62
:10027000500C50F1000041EB045141EA050130BD42
:100280005FEA4C0C404141EB010111F4801FA4F1E5
:100290000104E9D191F0000F04BF01460020B1FA3A
:1002A00081F308BF2033A3F10B03B3F120020CDA72
:1002B0000C3208DD02F1140CC2F10C0201FA0CF050
:1002C00021FA02F10CE002F11402D8BFC2F1200CB5
:1002D00001FA02F120FA0CFCDCBF41EA0C0190406B
:1002E000E41AA2BF01EB0451294330BD6FEA0404B4
:1002F0001F3C1CDA0C340EDC04F11404C4F120029F
:1003000020FA04F001FA02F340EA030021FA04F3B0
:1003100045EA030130BDC4F10C04C4F1200220FA07
:1003200002F001FA04F340EA0300294630BD21FA45
:1003300004F0294630BD94F0000F83F4801306BF0B
:1003400081F480110134013D4EE77FEA645C18BFFF
:100350007FEA655C29D094EA050F08BF90EA020F96
:1003600005D054EA000C04BF1946104630BD91EA8E
:10037000030F1EBF0021002030BD5FEA545C05D191
:100380004000494128BF41F0004130BD14F58004D0
:100390003CBF01F5801130BD01F0004545F0FE4144
:1003A00041F470014FF0000030BD7FEA645C1ABF79
:1003B000194610467FEA655C1CBF0B46024650EAB0
:1003C000013406BF52EA033591EA030F41F40021DC
:1003D00030BD00BF90F0000F04BF0021704730B562
:1003E0004FF4806404F132044FF000054FF0000137
:1003F00050E700BF90F0000F04BF0021704730B5F8
:100400004FF4806404F1320410F0004548BF4042CC
:100410004FF000013EE700BF42004FEAE2014FEA21
:1004200031014FEA02701FBF12F07F4393F07F4FFC
:1004300081F06051704732F07F4208BF704793F0FF
:100440007F4F04BF41F40021704730B54FF4607412
:1004500001F0004521F000411CE700BF50EA010215
:1004600008BF704730B54FF000050AE050EA0102BE
:1004700008BF704730B511F0004502D5404261EB2E
:1004800041014FF4806404F132045FEA915C3FF46F
:10049000D8AE4FF003025FEADC0C18BF03325FEA0C
:1004A000DC0C18BF033202EBDC02C2F1200300FABD
:1004B00003FC20FA02F001FA03FE40EA0E0021FAE2
:1004C00002F11444BDE600BF70B54FF0FF0C4CF4D0
:1004D000E06C1CEA11541DBF1CEA135594EA0C0F82
:1004E00095EA0C0F00F0DEF82C4481EA030621EABD
:1004F0004C5123EA4C5350EA013518BF52EA0335F8
:1005000041F4801143F4801338D0A0FB02CE4FF0A9
:100510000005E1FB02E506F00042E0FB03E54FF0D9
:100520000006E1FB03569CF0000F18BF4EF0010ED1
:10053000A4F1FF04B6F5007F64F5407404D25FEACD
:100540004E0E6D4146EB060642EAC62141EA555180
:100550004FEAC52040EA5E504FEACE2EB4F1FD0CC2
:1005600088BFBCF5E06F1ED8BEF1004F08BF5FEA40
:10057000500E50F1000041EB045170BD06F00046F2
:1005800046EA010140EA020081EA0301B4EB5C049F
:10059000C2BFD4EB0C0541EA045170BD41F4801197
:1005A0004FF0000E013C00F3AB8014F1360FDEBFBC
:1005B000002001F0004170BDC4F10004203C35DA98
:1005C0000C341BDC04F11404C4F1200500FA05F31B
:1005D00020FA04F001FA05F240EA020001F00042BC
:1005E00021F0004110EBD37021FA04F642EB060132
:1005F0005EEA430E08BF20EAD37070BDC4F10C045C
:10060000C4F1200500FA04F320FA05F001FA04F21F
:1006100040EA020001F0004110EBD37041F100010B
:100620005EEA430E08BF20EAD37070BDC4F1200516
:1006300000FA05F24EEA020E20FA04F301FA05F27E
:1006400043EA020321FA04F001F0004121FA04F226
:1006500020EA020000EBD3705EEA430E08BF20EAF6
:10066000D37070BD94F0000F0FD101F00046400030
:1006700041EB010111F4801F08BF013CF7D041EAB2
:10068000060195F0000F18BF704703F000465200B6
:1006900043EB030313F4801F08BF013DF7D043EA87
:1006A0000603704794EA0C0F0CEA135518BF95EA3D
:1006B0000C0F0CD050EA410618BF52EA4306D1D1C4
:1006C00081EA030101F000414FF0000070BD50EAE3
:1006D000410606BF1046194652EA430619D094EA6D
:1006E0000C0F02D150EA013613D195EA0C0F05D157
:1006F00052EA03361CBF104619460AD181EA0301AB
:1007000001F0004141F0FE4141F470014FF0000062
:1007100070BD41F0FE4141F4780170BD70B54FF0FD
:10072000FF0C4CF4E06C1CEA11541DBF1CEA13557D
:1007300094EA0C0F95EA0C0F00F0A7F8A4EB05045F
:1007400081EA030E52EA03354FEA013100F0888056
:100750004FEA03334FF0805545EA131343EA12631F
:100760004FEA022245EA111545EA10654FEA0026D4
:100770000EF000419D4208BF964244F1FD0404F58D
:10078000407402D25B084FEA3202B61A65EB0305E9
:100790005B084FEA32024FF480104FF4002CB6EBA6
:1007A000020E75EB030E22BFB61A754640EA0C0026
:1007B0005B084FEA3202B6EB020E75EB030E22BF66
:1007C000B61A754640EA5C005B084FEA3202B6EBA7
:1007D000020E75EB030E22BFB61A754640EA9C0066
:1007E0005B084FEA3202B6EB020E75EB030E22BF36
:1007F000B61A754640EADC0055EA060E18D04FEAF4
:10080000051545EA16754FEA06164FEAC30343EA93
:1008100052734FEAC2025FEA1C1CC0D111F4801F60
:100820000BD141EA00014FF000004FF0004CB6E759
:1008300011F4801F04BF01430020B4F1FD0C88BFF8
:10084000BCF5E06F3FF6AFAEB5EB030C04BFB6EB03
:10085000020C5FEA500C50F1000041EB045170BDF6
:100860000EF0004E4EEA113114EB5C04C2BFD4EB23
:100870000C0541EA045170BD41F480114FF0000EA7
:10088000013C90E645EA060E8DE60CEA135594EA23
:100890000C0F08BF95EA0C0F3FF43BAF94EA0C0F26
:1008A0000AD150EA01347FF434AF95EA0C0F7FF49B
:1008B00025AF104619462CE795EA0C0F06D152EAEF
:1008C00003353FF4FDAE1046194622E750EA4106D3
:1008D00018BF52EA43067FF4C5AE50EA41047FF4E4
:1008E0000DAF52EA43057FF4EBAE12E74FF0FF3C49
:1008F00006E000BF4FF0010C02E000BF4FF0010C1A
:100900004DF804CD4FEA410C7FEA6C5C4FEA430C92
:1009100018BF7FEA6C5C1BD001B050EA410C0CBFE1
:1009200052EA430C91EA030F02BF90EA020F002043
:10093000704710F1000F91EA030F58BF994208BFAA
:1009400090422CBFD8176FEAE37040F00100704767
:100950004FEA410C7FEA6C5C02D150EA013C07D1BE
:100960004FEA430C7FEA6C5CD6D152EA033CD3D009
:100970005DF8040B704700BF8446104662468C4603
:100980001946634600E000BF01B5FFF7B7FF002836
:1009900048BF10F1000F01BD4DF808EDFFF7F4FF5F
:1009A0000CBF012000205DF808FB00BF4DF808EDEA
:1009B000FFF7EAFF34BF012000205DF808FB00BF0D
:1009C0004DF808EDFFF7E0FF94BF012000205DF82F
:1009D00008FB00BF4DF808EDFFF7CEFF94BF0120E4
:1009E00000205DF808FB00BF4DF808EDFFF7C4FFDD
:1009F00034BF012000205DF808FB00BF4FEA410230
:100A000012F5001215D211D56FF47873B3EB625260
:100A100012D94FEAC12343F0004343EA505311F087
:100A2000004F23FA02F018BF404270474FF0000019
:100A3000704750EA013005D111F0004008BF6FF057
:100A4000004070474FF00000704700BF4FEA410C74
:100A50007FEA6C5C02D150EA013C0AD14FEA430CB8
:100A60007FEA6C5C02D152EA033C02D14FF00000F5
:100A700070474FF0010070472DE9F04F85B0814677
:100A80000D4614469B460E9F0F9E9DF840A09DF874
:100A90004480D1E90023CDE902239F49D1E9000137
:100AA000FFF77AFFB8B1D5E902239B49D1E90201EA
:100AB000FFF772FF78B1D4E900239849D1E900012A
:100AC000FFF76AFF38B1D4E902239449D1E9020162
:100AD000FFF762FFA0B9924B01221A708E49DDE93F
:100AE0000223C1E90023D5E90223C1E90223D4E9A5
:100AF00000238A49C1E90023D4E90223C1E9022382
:100B0000B8F1030F0BD8DFE808F0026E7780DBE95D
:100B10000023D4E90001FFF71FFBCDE90001804B62
:100B20001B783BB17F4BDDE90012C3E900127C4B1F
:100B300000221A70BAF1000F00F0D380DDE900AB9B
:100B400052465B467749D1E90001FFF705FB0446B1
:100B500021F000450022744B50465946FFF744FFF0
:100B6000002876D00022704B20462946FFF728FF48
:100B7000002853D000226C4B20462946FFF7CEFDBB
:100B800000226A4BFFF7E8FA04460D463A46334620
:100B9000FFF79AFC02460B4620462946FFF794FCD5
:100BA00002460B4600206249FFF7D6FA3A46334622
:100BB000FFF7D4FAC9E9000100225D4BFFF700FFFF
:100BC00018B100225A4BC9E900233A463346D9E905
:100BD0000001FFF709FF002872D03A463346C9E901
:100BE000002300241FE0D4E90023DBE90001FFF724
:100BF000B3FACDE9000192E7DBE90223D4E902016F
:100C0000FFF7AAFACDE9000189E7D4E90223DBE97D
:100C10000201FFF7A1FACDE9000180E73A46334629
:100C2000C9E9002301240022424B38463146FFF730
:100C3000D1FE002848D000223F4BDDE90001FFF73C
:100C4000BFFE002859D000220023C9E90023032455
:100C500053E006F100480022334BDDE90001FFF7C5
:100C60005DFD2BA3D3E90023FFF776FA04460D467A
:100C700002460B4638464146FFF726FC02460B4625
:100C800020462946FFF720FC3A463346FFF766FA2E
:100C9000C9E900010022264BFFF792FE18B100229D
:100CA000234BC9E900233A463346D9E90001FFF74F
:100CB0009BFE38B13A463346C9E900230224B2E725
:100CC0000024B0E70224AEE700221C4BDDE900015E
:100CD000FFF776FE88B100220023C9E90023032430
:100CE0000BE00022164BDDE90001FFF769FE40B979
:100CF0003A463346C9E900230124204605B0BDE841
:100D0000F08F00220023C9E900230324F5E700BF88
:100D1000666666666666F23F500400207004002036
:100D2000000000209803002000408F400000F03FAA
:100D300000409F400040AF40000054400000494048
:100D40000000244010B402EBD2735B105C422144DB
:100D5000401A824203DC90FBF2F302FB13000028EE
:100D600002DB204410BC70470028B8BF4042101A74
:100D7000F7E70000002309E0590019444800054A3C
:100D8000024400215180032111710133062BF3DD50
:100D9000002070473C000020034B0020D881032234
:100DA0001A7498829A7570473C000020F0B40024B1
:100DB00007E0E300C5180B44D3E90067C5E9006705
:100DC00001349442F5DBF0BC7047000010B50446D6
:100DD000012819D018B102282AD000202DE04FF4A4
:100DE0008051012008F08AFF38B1144B01221A7794
:100DF00041F288325A8320461FE0104B03221A77B3
:100E000000225A83022018E00421012008F076FF16
:100E100038B10A4B02221A7741F288325A832046AF
:100E20000BE0064B03221A7700225A83022004E0CB
:100E3000024B03221A7700225A8310BD3C00002087
:100E4000012920D010B504460221012008F056FFE8
:100E500010B11F4B01221A701D4B1B78C3B984EAD5
:100E6000E472A2EBE4721B4B1B689A421ED0002C6A
:100E700028DD194B022283F82820174B41F28832D3
:100E8000DA84002010BD134B00221A600220704744
:100E90000221012008F032FF0028E0D10D4A13683A
:100EA000013313600A4B00221A70D8E70A4A032361
:100EB00082F828300023D384064A1360044A137052
:100EC0000120DFE7044B012283F82820D5E700BF8B
:100ED000CC030020800400203C00002008B501293C
:100EE0000AD09F4A1278042A10D8DFE812F01100C5
:100EF000670092000D0145010223994A1370994A37
:100F00001170002298490A6098490A70184608BD75
:100F1000022821D00428F9D1924B1B7833B1944B8D
:100F20001A68914B1A608F4B00221A70904B1B6805
:100F30008D4A12689B1A41F65832934235D98D4B2F
:100F4000032283F8222000221A84854B04221A707F
:100F50000123844A1370D9E7824B1B7833B1844B49
:100F60001A68814B1A607F4B00221A70804B1B68F5
:100F70007D4A12689B1A40F6AC5293420CD97D4BC5
:100F8000032283F8222000221A84754B02221A7051
:100F90000123744A1370B9E7764B012283F82220AB
:100FA00040F6B8321A840023B0E7724B012283F86E
:100FB000222040F6B8321A840023A7E70228A5D1E0
:100FC000684B1B7833B16A4B1A68674B1A60654BE4
:100FD00000221A70664B1B68634A12689B1A41F222
:100FE000040293420CD9634B032283F8222000228F
:100FF0001A845B4B02221A7001235A4A137085E748
:101000005C4B012283F8222040F6B8321A84002378
:101010007CE701281BD090B303287FF477AF102121
:10102000022008F06BFE40B1524B022283F82220CE
:1010300040F6B8321A84002368E74E4A032382F848
:10104000223000211184464A137001235EE71021EB
:10105000012008F053FE40B1464B022283F82220C3
:1010600040F6B8321A84002350E7424B032283F83B
:10107000222000221A840123394A137046E73B4B91
:101080001B78F3B1374B1B7833B1394B1A68364BA9
:101090001A60344B00221A70354B1B68324A1268B2
:1010A0009B1A502B27D9334B032283F8222000228E
:1010B0001A842B4B1A7001232A490B702B490A7092
:1010C00024E71021012008F019FE40B1294B02222B
:1010D00083F8222040F6B8321A84002316E7234B07
:1010E00001221A70234B022283F8222040F6B832E4
:1010F0001A8400230AE71F4B022283F8222040F6BD
:10110000B8321A84002301E702287FF4FFAE154BA2
:101110001B7833B1164B1A68134B1A60114B00221F
:101120001A70134B1B68104A12689B1A40F2DC526B
:1011300093420CD90F4B032283F8222000221A84F9
:10114000074B02221A700123064A1370DEE6094B90
:10115000012283F8222040F6B8321A840023D5E613
:101160000500002006000020C4040020C004002068
:10117000100C00203C00002002287FF4C7AE144B66
:101180001B7833B1134B1A68134B1A60104B0022B3
:101190001A70104B1B68104A12689B1A40F6C41252
:1011A000934208D80D4B022283F8222040F6B83231
:1011B0001A840023AAE6094B032283F82220002286
:1011C0001A84074B02221A700123014A13709DE60C
:1011D00006000020100C0020C40400203C00002069
:1011E0000500002070B50D469DF810600599012995
:1011F00007D045490968032918D8DFE801F00E191E
:10120000495B0024414B1C70414B1C700846FFF7A2
:1012100065FE3D4B1C60022408E03E4A537843F0D3
:10122000340353700131384B19600024204670BDDF
:1012300036490978012910D03AB100210120FFF781
:101240004DFE324B18700024F0E700210846FFF7EE
:1012500045FE2E4B18700024E8E762B123B12D4AF9
:10126000537823F02003537056B12A4A537823F061
:101270001003537004E0274A537803F0CB035370F4
:101280000024224B1C70204A136801331360CDE701
:101290001E4B1B78012B06D100241C4B1C70013106
:1012A000194B1960C2E70021FFF718FE174B1870A1
:1012B0000024BBE716490978012900D06DB9A2B115
:1012C00023B1144A537823F02003537096B1114A86
:1012D000537823F0100353700CE000212846FFF7E9
:1012E000AFFD0B4B18700024A0E70A4A537803F0B7
:1012F000CB0353700023064A1370044A1370024A4A
:101300001360012492E700BFBC03002021030020EA
:10131000CF0400202C0000202DE9F04782B00446C5
:101320000E469A4603287FD8DFE800F00221405F8E
:101330008A494B7B887B03EB0023C87B03EB00438C
:10134000097C03EB016386490D681D44002E6ED0B5
:10135000012E03D0022E06D0002769E05B420B600D
:1013600000273D4664E07F4B1F68EF1B60E07B4930
:101370004B7C887C03EB0023C87C03EB0043097D96
:1013800003EB016376494D681D44002E73D0012E96
:1013900003D0022E06D000274AE05B424B600027B4
:1013A0003D4645E06F4B5F68EF1B41E06B498B7832
:1013B000C87803EB0023087903EB0043497903EB7A
:1013C000016367498D681D44002E56D0012E03D05D
:1013D000022E06D000272BE05B428B6000273D46A3
:1013E00026E0604B9F68EF1B22E05C498B79C8794F
:1013F00003EB0023087A03EB0043497A03EB016314
:101400005749CD681D44002E39D0012E03D0022E3D
:1014100006D000270CE05B42CB6000273D4607E08A
:10142000504BDF68EF1B03E000273D4600E000273C
:10143000022E26D04B4B43F824504B4B19684B4A95
:1014400042F824101A684A4BA3FB02135B0964217B
:1014500001FB1323092B08D8012E06D0454B1B682E
:10146000022B57DC0133434A1360022E61D0284619
:1014700002B0BDE8F0870027DAE70027D8E70027A9
:10148000D6E740F2DB539A421EDD1046FEF7B2FF6C
:101490000022394BFFF742F980468946324B1868E3
:1014A000324B53F82430C01AFEF794FF02460B4625
:1014B00040464946FFF708F8FFF7A0FA844677B997
:1014C000284B43F82450B8E7274B1B68274A52F8AB
:1014D00024209B1A4FF0320C0CFB03FCEFE787EA49
:1014E000E773A3EBE773634510DD00231D4A42F861
:1014F000243004E0214A1A44092151700133072B9A
:10150000F8DD01238AF80030002796E7154B43F8F1
:10151000245092E71348836842680168CDF804C0FC
:10152000C0680090164808F009FD124B00221A60AE
:101530009BE70D4B1A680E4BA3FB02135B0964215A
:1015400001FB1323092B01D93D4690E72B463A4670
:1015500021460C4808F0F2FC3D4688E76800002070
:101560000C03002030040020100C00202004002078
:101570001F85EB51B40300200000344030000020F0
:10158000FCC8000834C900082DE9F04F89B00646B0
:101590008A46CDE90423DDF84880149C9DF8545018
:1015A000AB1EDBB2012B1DD9D4E90223D8E902011D
:1015B000FEF7D2FD029021F00047D4E90423CDE9E3
:1015C0000023A44B1A68A44BA3FB02135B096421FC
:1015D00001FB1323092B1FD9032D4CD8DFE805F09D
:1015E00033647D94D8E90023CDE90023D4E90012C7
:1015F000CDE9021200220023D4E90201FEF764FFC4
:10160000DDE90223FEF7A8FDDDE90023FEF7A6FDD4
:10161000029021F00047D0E7DDE9000109F076FDF6
:10162000CDE906010298394609F070FDFFF7E6F9A9
:101630008146DDE90601FFF7E1F94A4601468748A0
:1016400008F07CFCC8E7D4E90223D8E90201FEF7E0
:1016500083FD04460D4600220023FFF7A7F900286A
:1016600069D10022002320462946FFF7BDF9002852
:1016700064D04FF0000B0022794B02983946FFF7F7
:10168000B3F9002800F06981BBF1010F00F0C180BF
:10169000BBF1000F67D0BBF1020F00F026810024E0
:1016A000A1462546A04672E1D4E90223D8E9020109
:1016B000FEF752FD04460D4600220023FFF776F99F
:1016C00000283ED10022002320462946FFF78CF94E
:1016D000002839D04FF0010BCDE7D4E90023D8E939
:1016E0000001FEF739FD04460D4600220023FFF7F6
:1016F0005DF960BB0022002320462946FFF774F9FC
:1017000040B34FF0010BB6E7D4E90023D8E900015C
:10171000FEF722FD04460D4600220023FFF746F99E
:10172000D8B90022002320462946FFF75DF9B8B159
:101730004FF0000B9FE74FF0010B9CE74FF0020BBF
:1017400099E74FF0000B96E74FF0020B93E74FF04D
:10175000000B90E74FF0020B8DE74FF0010B8AE78B
:101760004FF0020B87E7DDF8088042463B464046D3
:101770003946FEF7F3FC04460D460022394BFFF7CD
:101780001FF978B90022384B20462946FFF722F985
:1017900050BB0022354B40463946FEF795FE0546C4
:1017A000884602E00025DFF8CC8000220023DDE936
:1017B0000001FFF719F968B100222D4BDDE90001A6
:1017C000FEF782FE02460B4628464146FEF7C6FC5F
:1017D0000546884600220023DDE90001FFF7E6F810
:1017E00030B90024A146D2E00025DFF87C80DCE798
:1017F00000221F4BDDE90001FEF766FE02460B46A4
:1018000028464146FEF7A8FC054688460024A14626
:10181000BDE0DDF8088042463B4640463946FEF7CB
:101820009DFC04460D4600220E4BFFF7C9F818BB7D
:1018300000220D4B20462946FFF7CCF8002840D166
:1018400000220A4B40463946FEF73EFE04468946D2
:1018500015E000BF100C00201F85EB5194CA000852
:10186000000014400000594000C0824000000840C1
:1018700000405F4000C062400024DFF85492002224
:101880000023DDE90001FFF791F8F0B90022002301
:10189000DDE90001FFF7A8F8002800F0E180002250
:1018A000854BDDE90001FEF70FFE024621F0004303
:1018B00020464946FEF750FC044689460025A846C6
:1018C00065E00024DFF80C92D9E700227A4BDDE9CD
:1018D0000001FEF7F9FD024621F00043204649468B
:1018E000FEF73CFC04468946D0E700220023DDE9F0
:1018F000004520462946FFF777F880B16AA3D3E96F
:10190000002320462946FEF7DFFD69A3D3E9002323
:10191000FEF724FC054688460024A14637E0002255
:101920000023DDE90001FFF741F820B90024A146BA
:101930002546A0462BE05CA3D3E90023DDE90001A6
:10194000FEF7C2FD5AA3D3E90023FEF707FC0446C5
:1019500021F000490025A84619E000220023DDE916
:10196000004520462946FFF73FF800285AD04EA3ED
:10197000D3E9002320462946FEF7A6FD4CA3D3E970
:101980000023FEF7EBFB054688460024A146002213
:101990004A4B284628F00041FFF726F850B10022B4
:1019A000002328464146FFF71FF800285BD000259A
:1019B000DFF808810022414B204629F00041FFF763
:1019C00013F850B10022002320464946FFF70CF8D7
:1019D00000284CD00024DFF8E4900022384BDDE9E9
:1019E0000401FEF79BFECDE904012A464346FEF7BB
:1019F0006BFDC6E9000122464B46DDE90401FEF716
:101A000063FDCAE900012F4B1A682F4BA3FB021399
:101A10005B09642101FB1323092B2CD9002009B099
:101A2000BDE8F08F00220023DDE90001FEF7BEFFD4
:101A300020B90024A1462546A046A8E71AA3D3E969
:101A40000023DDE90001FEF73FFD19A3D3E90023E0
:101A5000FEF784FB044621F000490025A84696E7DE
:101A60000025A84693E70025DFF86C80A2E7002454
:101A7000DFF86490B1E7DDE9000109F047FB0446B7
:101A80000D460298394609F041FBFEF7B7FF0646BE
:101A900020462946FEF7B2FF5B46324601460B4818
:101AA00008F04CFABAE700BF0000000000C0624036
:101AB0000000000000C0524000405F4000908A409B
:101AC00000408F40100C00201F85EB51B4CA000865
:101AD00000C0624000C0824000908AC010B5022160
:101AE000002008F00BF940B1084B00241C810322B0
:101AF0009A7208F0EBFB204610BD044B4FF4617264
:101B00001A8101229A724FF0FF30F5E73C00002065
:101B100010B50121002008F0F1F840B1084B002475
:101B20005C8003221A7108F0CBFB204610BD044BE9
:101B30004FF461725A8001221A714FF0FF30F5E7BD
:101B40003C000020000000002DE9F04FB9B08246B3
:101B50000F46A94C4822214626A80AF041FE9022B1
:101B600004F1480102A80AF03BFE0024009401940D
:101B700000E00134082C1EDC9BA3D3E9002338A924
:101B800001EBC40555E93601FEF79EFC45E9360137
:101B9000022CEEDD0020994938AB03EBC40343E986
:101BA000360104F1090338AA02EBC303002094496B
:101BB00043E93601DDE71FB902230193009CBDE034
:101BC000012F06D0022FF9D10123009302230193A4
:101BD000F4E701230193F1E708F066FB0646B6E05F
:101BE00008F068FB0646B2E0002DB8BF6D42C5F5AF
:101BF0000065C2E004EBC4031A440CEBC20252E9D4
:101C0000368900284EDD4046494609F07FFAFEF746
:101C1000F5FE04EB44035A007A4B1344588000222B
:101C2000002340464946FEF7B7FE80B304EB440369
:101C30005A00744B134403221A71734B01221A5534
:101C4000002F58D1704B1B78002B66D06E4B5B7801
:101C5000002B40F099804FF0000B60E00132082A21
:101C6000CFDC80EAE071A1EBE07104EBC403134424
:101C70000DF1E00C0CEB830353F8483C9942B9DAC0
:101C8000082AEBD14FF000084FF00009E6E704EB1B
:101C900044035A005B4B134401221A715A4B002231
:101CA0001A55CDE74046494609F030FAFEF7A6FE40
:101CB00004EB44035A00534B134458800022002382
:101CC00040464946FEF768FE50B104EB44035A0013
:101CD0004C4B134403221A714B4B01221A55AFE7A8
:101CE00004EB44035A00474B134402221A71464B3B
:101CF00000221A55A4E7012F08D0022F0FD1424B22
:101D00005B78002B46D04FF0010B08E03E4B1B7870
:101D1000002B3CD04FF0010B01E04FF0000B3B4B90
:101D20001A683B4BA3FB02135B09642101FB1323DD
:101D3000092B02D88CB3012C40D00134019BA34263
:101D40004DDD002C3FF448AF012C3FF449AF734206
:101D5000C6F30A05C3F30A0358BF5D425046FEF7B7
:101D600049FB23A3D3E90023FEF7AEFB09F0CEF92C
:101D7000FEF744FE002DFFF637AF4FF40062294610
:101D8000FEF7E0FF00226AE74FF0010BC7E74FF0D4
:101D9000000BC4E74FF0000BC1E72846FEF72AFB13
:101DA00000221C4BFEF790FB09F0B0F9FEF726FE6F
:101DB00052460146184808F0C1F8BEE72846FEF72B
:101DC00019FB0022134BFEF77FFB09F09FF9FEF78A
:101DD00015FE52460146114808F0B0F8ADE75846E6
:101DE00039B0BDE8F08F00BF713D0AD7A370ED3F59
:101DF000176CC1166CC1164010C8000800B08D40A9
:101E000000208C403C000020C0030020100C00206B
:101E10001F85EB510080C63F6CCB000888CB0008C3
:101E200038B52A4B1B783BBB294B1B7843B1284B59
:101E30005B7863B1264B1B78012B0FD0002038BD97
:101E40000121E120FFF780FE214B1870EFE702210E
:101E5000DC20FFF779FE1E4B5870EBE71C4B5B78DC
:101E6000012B01D00020EAE7184B01221A70184B11
:101E7000002018705870E2E704460121E120FFF7C6
:101E800063FE0221DC20FFF75FFE65690022114B33
:101E9000206925F00041FEF793FD50B90E4B032257
:101EA0001A749A750022DA819A82084B1A700120FE
:101EB000C5E7094B01221A749A754FF4FA62DA8168
:101EC00040F698029A820020B9E700BFA4030020E0
:101ED00098040020004066403C0000200000000004
:101EE0002DE9F04F9FB09DF8A4809DF8A8700025C3
:101EF0008DF81F508DF81E508DF81D508DF81C5018
:101F00008DF81B50012972D01E460446002A40F06D
:101F10009480A54B1B78002B37D1A44B92A1D1E91B
:101F20000001C3E9000192A1D1E90001C3E9020166
:101F300091A1D1E90001C3E9040191A1D1E9000116
:101F4000C3E906014FF0000ADFF870B2C3E908AB3D
:101F500000200021C3E90A01C3E90CABC3E90E016B
:101F600089A1D1E90001C3E9100189A1D1E90001EA
:101F7000C3E912010FF2202BDBE900ABC3E914AB7C
:101F8000C3E91601884B01221A70894B988ADB89B4
:101F90001844FEF72FFA0022864BFEF795FAFEF75B
:101FA0002DFD0646B8F1000F5DD10025032D46DC5E
:101FB0000DF11B03324602212846FFF7ADF91EAB97
:101FC00003EB850343F8580C0135EFE7CA0083188B
:101FD00000240025C3E90045774B1344C3E90045BD
:101FE00001310229F2DD00201FB0BDE8F08F002191
:101FF000F7E7D7E90001704B03EBC503C3E9000124
:102000000135022DEFDC735D002BF9D0EB00289A2F
:10201000D7182344D7E90001C3E90001012DE8D80E
:102020005FA3D3E90023D7E90001FEF74DFA624B25
:1020300003EBC503C3E90001E2E70025E1E79DF8F2
:102040001B3073B900275BE11EAA02EB830200215B
:1020500042F8581C0133032BF6DD00238DF81B30AA
:10206000F0E70023F7E7032FECD8DFE807F0A9A992
:1020700002020DF11F03024602210020FFF74CF976
:10208000054608900DF11E03002202210120FFF7F2
:1020900043F909900DF11D03324602210846FFF76E
:1020A0003BF906460A9007AB002202210320FFF706
:1020B00033F90B909DF81E302BBB9DF81C3053BBA1
:1020C0009DF81F307BBB9DF81D30A3BB9DF81E20E3
:1020D00012B99DF81C3013B1002309930B939DF89E
:1020E0001F3083B39DF81D1069BB08963BB99DF85E
:1020F0001D3023B99DF81C300BB9002AA2D0012352
:102100002B9A13709EE70DF11A0300220121084655
:10211000FFF702F9D1E70DF11A0300220121032094
:10212000FFF7FAF8CCE70DF11A030022012110465F
:10213000FFF7F2F8C7E70DF11A0300220121022090
:10214000FFF7EAF8C2E723B99DF81D1009B10A9517
:10215000CCE7002BCAD09DF81D100029C6D0002165
:1021600008910A91C2E700BF0A5D4647DB93ACBF06
:102170007362E6D02773E1BF0A5D4647DB93AC3F4D
:102180001A3B335EB019DD3FCD7E4F03344AD33F57
:102190004A1B3DA0F550CF3FCD7E4F03344AD3BFFD
:1021A00004B6B7E795294B40B1030020280300206F
:1021B0003C0000200000E03F080400200000E0BFD9
:1021C0000DF11F03002202211046FFF7A5F8089029
:1021D0000DF11E03324602210120FFF79DF807464C
:1021E00009900DF11D03002202210846FFF794F823
:1021F0000A9007AB324602210320FFF78DF805460F
:102200000B909DF81E303BBB9DF81C3063BB9DF8C6
:102210001F308BBB9DF81D30B3BB9DF81D2012B93C
:102220009DF81F3013B1002308930A939DF81C30CA
:1022300093B39DF81E1079BB7F420B979DF81F103A
:1022400031B92AB923B99DF81E30002B3FF4FAAEFC
:1022500001232B9A1370F5E60DF11A0300220121D8
:102260000846FFF759F8CFE70DF11A0300220121C4
:102270000320FFF751F8CAE70DF11A0300220121EC
:102280001046FFF749F8C5E70DF11A0300220121B6
:102290000220FFF741F8C0E72BB99DF81E1011B1DD
:1022A0006D420995CAE7002BC8D09DF81E10002981
:1022B000C4D0002109910B91C0E705EB8702A44B24
:1022C00003EBC203D3E900891EAB03EB850353F88C
:1022D000580CFEF78FF802460B4640464946FEF77B
:1022E000F3F802460B461EA901EBC70656E90601A4
:1022F000FDF734FF46E906010135032DDDDD013729
:10230000022F08DC002000211EAB03EBC70343E9CA
:1023100006010025F1E78F4BD3E90467DDE91C23B3
:1023200030463946FDF71AFFCDE916017EA3D3E901
:10233000002330463946FEF7C7F87DA3D3E90023D2
:10234000FEF7C2F87CA3D3E9002308F075FF8146AD
:10235000884677A3D3E90023484628F00041FEF7DA
:1023600039FB80B10022002348464146FEF732FB8C
:1023700000285CD070A3D3E9002348464146FDF70E
:10238000EBFE81468846734DD5E90067DDE918AB61
:102390004846414608F072FECDE9000102460B4670
:1023A00050465946FEF790F802460B4630463946ED
:1023B000FDF7D4FECDE90401DDE91A674846414640
:1023C00008F0F2FE02460B46CDE9022330463946BC
:1023D000FEF77AF802460B46DDE90401FDF7BEFE82
:1023E000CDE91201D5E90289DDE9022350465946BB
:1023F000FEF76AF802460B4640464946FDF7ACFE3A
:102400008046894632463B46DDE90001FEF75CF82E
:1024100002460B4640464946FDF7A0FECDE91401B1
:10242000032212A92846FEF7C1FC002516E042A3AC
:10243000D3E9002348464146FDF790FE8146884691
:10244000A1E71EAB03EBC5063DA3D3E9002356E984
:102450000C01FEF739F846E912010135012DF0DDD6
:1024600039A3D3E90023DDE91601FEF72DF8CDE904
:1024700010010022384B08F0DFFE06460D460246EA
:102480000B46CDE910230022344B304625F00041A5
:10249000FEF7A0FA78B10022002330462946FEF765
:1024A00099FA002835D000222B4B30462946FDF7FB
:1024B00053FECDE9100103220CA92046FEF776FC5D
:1024C000274B1A68274BA3FB02135B09642101FB0E
:1024D0001323092B3FF687ADD4E90067D4E90289BD
:1024E0000022214BD4E90401FDF7EEFFFEF786FA46
:1024F000054640464946FEF781FA044630463946CD
:10250000FEF77CFA2B4622460146184807F016FDD6
:1025100069E50022104B30462946FDF71FFECDE944
:102520001001C8E7AFF30080682FA1BD84F6F23E2A
:10253000182D4454FB210940182D4454FB21194007
:10254000D221337F7CD9923FABAAAAAAAAAA6A3F1A
:1025500028030020080400200080764000806640A8
:10256000100C00201F85EB510000594040CB0008A3
:102570002DE9F04F8FB082468B46CDE9042300232E
:102580008DF81B30D0E9004522462B467849D1E929
:102590000001FEF701FAC0B1DAE902237449D1E97A
:1025A0000201FEF7F9F980B1DBE900237149D1E9B5
:1025B0000001FEF7F1F940B1DBE902236D49D1E9F1
:1025C0000201FEF7E9F9002833D16B4B01221A70A2
:1025D000674BC3E90045DAE90289C3E90289DBE90F
:1025E0000001644BC3E90001DBE90267C3E902674C
:1025F00022462B46FDF7B0FD04460D46002200237F
:10260000FEF7CAF930B342464B4630463946FDF72D
:10261000A3FD00220023FEF7DDF9B8B1574B0222DB
:102620001A70002200235649C1E900235549C1E927
:102630000023514B1B78002B00F091804F4B1B78EF
:10264000032B28D8DFE803F0556C21404B4B0322C5
:102650001A70E6E742464B4630463946FDF77CFDA8
:1026600000220023FEF798F90028DAD00022002388
:1026700020462946FEF7AEF918B1404B00221A70E9
:10268000CFE73E4B01221A70CBE73F4B1B786BB173
:102690003D4B5B788BB13C4B1B78012B40F07D812F
:1026A000394B5B78012B52D004243DE10121B42049
:1026B000FFF74AFA344B1870EAE70221AF20FFF720
:1026C00043FA314B5870E6E72F4B1B7853B12E4B32
:1026D0005B78002BDFD10221AF20FFF735FA2A4BC0
:1026E0005870D8E70121B420FFF72EFA264B187056
:1026F000EDE7254B1B785BB1234B5B78002BCAD1F0
:10270000022140F20910FFF71FFA1F4B5870C2E771
:1027100001214FF48770FFF717FA1B4B1870EBE796
:10272000194B1B785BB1184B5B78002BB3D102219E
:1027300040F20910FFF708FA134B5870ABE701217C
:102740004FF48770FFF700FA0F4B1870EBE7002388
:10275000094A13700C4A137053700424E4E0074BC9
:102760001B78032B1AD8DFE803F0A6B1119D00BF38
:102770004004002060040020A0030020B8030020D3
:1027800088040020A8030020940400200121B32025
:10279000FFF7DAF90221B020FFF7D6F986480DF1EC
:1027A0001B030393854B1B78029301230193009035
:1027B00007AB00221146FFF793FB9DF81B3023B1B6
:1027C0007F4B01221A707F4B1B687C4E33787A4D09
:1027D00003939DF860300293DDE90434CDE90034C1
:1027E0002B465A4651460CA8FEF746F90446337864
:1027F00003930295CDF804B0CDF800A0DDE90C23D9
:1028000008A90AA8FEF7C0FEDDE90C67DDE90A2386
:1028100030463946FDF7A2FC804689466A4BC3E93B
:102820000089DDE9082330463946FDF797FC064666
:102830000F46664BC3E90067002200234046494625
:10284000FEF7B4F800284CD1002200233046394668
:10285000FEF7ACF800284AD155A3D3E900235A4922
:10286000D1E90001FEF7C0F828B1574B50A1D1E9DA
:102870000001C3E900014EA3D3E900235349D1E984
:102880000001FEF7B1F828B1504B49A1D1E9000190
:10289000C3E90001494B1B78032B43D8DFE803F061
:1028A0005F2D2D5F0121B420FFF74EF90221AF20EB
:1028B000FFF74AF972E701214FF48770FFF744F9F7
:1028C000022140F20910FFF73FF967E701214FF4B9
:1028D0008770FFF739F9022140F20910FFF734F948
:1028E0005CE7394B00200021C3E90001ACE7374B1E
:1028F00000200021C3E90001AEE7354D01232B7410
:102900000223AB75304BD3E9000108F0FFFBFEF763
:1029100075F8E8812D4BD3E9000108F0F7FBFEF7CD
:102920006DF8A882032C30D0264B1A68294BA3FBE4
:1029300002135B09642101FB1323092B0BD8204BE5
:102940001B7863B3244807F0F9FA9DF81B3053BB9A
:10295000224807F0F3FA20460FB0BDE8F08F1C4D77
:1029600002232B740123AB75184BD3E9000108F047
:10297000CDFBFEF743F8E881134BD3E9000108F0E3
:10298000C5FBFEF73BF8A882CCE7114B0022DA81A9
:102990009A8203221A749A75C6E70424C4E7104881
:1029A00007F0CCFAD1E70F4807F0C8FAD3E700BF29
:1029B000000000008087C340F0030020B80300201F
:1029C00092030020100C002088040020A80300209F
:1029D0003C0000201F85EB51E0CA00082CCB00080A
:1029E000FCCA000818CB000808B504F091F80020D4
:1029F00008BD000000000000F0B58FB08E4B9B7842
:102A000013F0400F02D18D4B01221A708A4B9A7835
:102A10005A789B7813F0100F02D1894B01221A705B
:102A2000854B9B7803F00303032B04D0824B9B78E8
:102A300013F0010F02D1834B01221A707E4B9B7859
:102A400003F00303032B01D07B4B9B787A4B9B78DD
:102A500003F00C030C2B04D0774B9B7813F0040F7E
:102A600002D1794B01221A70734B9B7803F00C034F
:102A70000C2B04D0704B9B7813F0080F02D1734BD2
:102A800001221A706C4B5A785A785A785B784FF456
:102A90000061002007F032F910B16D4B01221A706D
:102AA0002021022007F02AF910B16A4B01221A7086
:102AB0004FF48051002007F021F910B1664B01223C
:102AC0001A704FF48071022007F018F910B1634BAF
:102AD00001221A704FF40061002007F00FF950B97D
:102AE0005B4B1B783BB15E4B01221A7000235D4AA1
:102AF0001370574A13704FF48071022007F0FEF8EC
:102B000050B9564B1B783BB10023554A1370554AB8
:102B100001211170514A13700121022007F0EEF8D3
:102B200000287CD1504B01221A70434B9B7803F054
:102B30000303032B13D0404B9B7813F0010F0ED0EF
:102B4000404B1B785BB1494A136801331360042B77
:102B500002DD134600221A603A4B00221A70364BEF
:102B60009B7803F00C030C2B07D0334B9B7813F0AE
:102B7000040F02D0344B1B783BB92021022007F010
:102B8000BDF898B9334B1B7883B1394B1B780B2BAD
:102B900049D00133364A13700023314A1370314A49
:102BA00001211170284A13702A4A1370224B9B7816
:102BB00003F00C030C2B07D01F4B9B7813F0080F6E
:102BC00002D0224B1B7843B94FF48051002007F00C
:102BD00095F890B9204B1B787BB1254B1B7833BB04
:102BE000234B0B221A7000231D4A13701D4A01212A
:102BF0001170164A1370184A13701D4B1B780B2B5B
:102C000041D8DFE813F0251E9700B700D90066060B
:102C1000D20C1D0D680DB30DB51337008D00124B8E
:102C200000221A7081E7124B00221A70B4E7013BB0
:102C30000F4A1370D7E700BF140C00208803002050
:102C4000CC040020CE04002090040020B00300201B
:102C5000D0030020CF030020CD030020CE030020AE
:102C6000A503002001000020A2030020240300206F
:102C700003000020A84B1B781BB1A84B0022DA717F
:102C80001A72FEF777F8A64B1B78002B03F011861B
:102C9000A44B5B7813F0080F04D0A24B5B7813F0C1
:102CA000020F05D14FF48071022007F027F838BBDE
:102CB0000DF11703002201211046FEF72DFB0DF147
:102CC0001703002201210846FEF726FB0DF117032A
:102CD000002201210220FEF71FFB0DF11703002245
:102CE00001210320FEF718FB8F480DF11603039313
:102CF00000220292019200900DAB0121FFF7F0F843
:102D00008A4B1A688A4BA3FB02135B09642101FBFF
:102D10001323092B43F21086002318460FB0F0BD91
:102D20007D4B1B781BB17D4B0022DA711A72FEF7C6
:102D300021F8A8E7784B1B7883B97E4B1B78002BD2
:102D4000A1D07D4B1B78002B9DD00020FEF73EF8D4
:102D5000022898D1784B00221A7094E76F4B0C220E
:102D6000DA710A221A720220FEF730F8724B012241
:102D70001A70E2E7684B1B7893B96E4B1B78002BF7
:102D800081D06D4B1B78002B3FF47DAF0120FEF707
:102D90001DF802287FF477AF674B00221A7072E7A4
:102DA0005E4B0C22DA7108221A720220FEF70EF82E
:102DB000614B01221A70E0E7574B1B78D3B95D4B8A
:102DC0001B78002B3FF45FAF5C4B1C680E2C3FF66A
:102DD0005AAFDFE814F05D00DB00AE014302580299
:102DE000B40210032C039B03B703E2033904550418
:102DF000E5043605524A537803F0C30353700DF1CE
:102E00001703002201211046FEF786FA0DF1170381
:102E1000002201210846FEF77FFA0DF11703002278
:102E200001210220FEF778FA0DF11703002201219B
:102E30000320FEF771FA3C480DF1160303930024BA
:102E40000294019400900DAB22460121FFF748F84F
:102E50003C4B1C603C4B1C6001253C4B1D703C4BAB
:102E60001C703C4B1C70FDF785FF344B1C602946E1
:102E70002846FEF733F80195009423462246214662
:102E80000220FEF7AFF9254BDD710C221A7296E78E
:102E90002E4B1B78002B63D023480DF116030393B0
:102EA00000210291019100900DAB0A46FFF718F83E
:102EB000294900220023C1E90023C1E9022327494F
:102EC000C1E9002312A3D3E90023C1E9022304E0EE
:102ED000124B234403225A700134072CF8DD1B4B9C
:102EE00000221A701B4B1B78002B7FF4CCAE002203
:102EF0000192009213464FF0FF310420FEF772F961
:102F000001287FF4C0AE134B01221A70BBE600BF4C
:102F100000000000000CB74001000020300000203D
:102F200003000020140C0020D8030020100C002007
:102F30001F85EB51A5030020A1030020C40300203E
:102F40002C000020C80300208C0300200200002079
:102F500020030020A3030020A0040020B0040020D0
:102F60000123019300939EA3D3E90023A449A5481C
:102F7000FFF7FEFAA44B18700328B3D1A34B01222C
:102F80001A70A34A136801331360ABE79F4B1B7899
:102F900043BBA04B1B68A04A12689B1A40F6FB017A
:102FA0008B424ED99B4B1B689B1A40F6E3418B42E8
:102FB00070D9984B1B689B1A41F2CB0293424BD8B5
:102FC0000121F020FEF7C0FD0221EB20FEF7BCFD41
:102FD000924B02221A7401229A7540F6AC52DA81A1
:102FE0009A8239E08E4D0DF116030393002402946A
:102FF000019400950DAB224621462846FEF770FF4E
:10300000804B00200021C3E90001D5E90201C3E99A
:1030100002017B4B0026834FC3E90067C3E902012D
:10302000234604E0804A1A44022151700133072BE1
:10303000F8DD764B00221A70764B1A68764B1A60D0
:1030400013E00123019300930022764B6C496D48F5
:10305000FFF78EFA6C4B18706E4B1B686E4A126845
:103060009B1A41F2CB0293422DD8704B1B78002B58
:103070007FF409AE00220192009213464FF0FF3117
:103080000420FEF7AFF801287FF4FDAD674B012265
:103090001A70F8E5664A537843F00803537001212B
:1030A0004FF49670FEF750FD022140F22710FEF714
:1030B0004BFD5A4B02221A7401229A7540F6AC520B
:1030C000DA819A82C8E7554B03221A749A75002454
:1030D000DC819C824C4B04221A704F4B1C60FDF724
:1030E0005BFE01258DF834508DF835508DF8365043
:1030F0000022504BCDE906233BA3D3E90023CDE9C1
:10310000082300220023CDE90A230DF116030393BF
:103110000294019406AB00930DAB2A462146404829
:10312000FEF7DEFE394B1D70394A13682B441360DD
:103130009BE73E4B1B789BB1344B1B78FBB9324B62
:103140001B78032B7AD001230193009328A3D3E9A2
:1031500000232B492B48FFF70BFA2B4B187092E5F5
:1031600000220192009213464FF0FF310420FEF737
:1031700039F80128E0D12D4B01221A70DCE7284DE7
:103180000DF11603039300240294019400950DABF6
:10319000224621462846FEF7A3FE1A4B0020264968
:1031A000C3E90001D5E90201C3E90201144B12A7EA
:1031B000D7E90067C3E90067C3E90201234604E0D9
:1031C000194A1A44042151700133072BF8DD0023FA
:1031D0000E4A13700C4A137055E500BFAFF3008020
:1031E000000000000094B14000000000000CB74057
:1031F000000000000070A7400000000000C899C057
:10320000B0040020A00400200400002002000020E0
:10321000C4030020100C00208C0300203C00002080
:10322000D803002000409F4030000020A30300206E
:103230002C00002000006940008066409A4B1B78FB
:10324000002B3FF420AD994B01221A70984A136865
:1032500001331360944B00221A7014E5954B1B78D0
:10326000012B06D000210220FDF738FE914B18708B
:1032700009E58E4B01221A7014448D4B1C608D4B56
:1032800000221A70FFE4894B1B78A3B98A4B1B7884
:10329000032B3FD00123019300937DA3D3E90023A7
:1032A00086498748FFF764F9834B1870854B1A6885
:1032B000854B1A60E7E4854D0DF116030393002456
:1032C0000294019400950DAB224621462846FEF754
:1032D00007FED5E900017A4BC3E900016EA7D7E9E3
:1032E0000067C3E90267754BC3E900016CA1D1E92E
:1032F0000001C3E90201234604E0754A1A4405218E
:1033000051700133072BF8DD0023684A13706A4AB5
:103310001370B8E46F4A537843F030035370694B2D
:103320001B68694A12689B1AB3F5FA7F7FF6ABAC4B
:103330005E4B01221A7014445D4B1C60A3E45B4B8E
:103340001B78A3B95C4B1B78032B3FD0012301935F
:1033500000934FA3D3E9002358495948FFF708F9D0
:10336000554B1870574B1A68574B1A608BE4574DE2
:103370000DF11603039300240294019400950DAB04
:10338000224621462846FEF7ABFDD5E900014C4B0D
:10339000C3E9000142A7D7E90067C3E90267474BC9
:1033A000C3E900013CA1D1E90001C3E902012346C0
:1033B00004E0474A1A44062151700133072BF8DD17
:1033C00000233A4A13703C4A13705CE4414A537834
:1033D00043F0040353703B4B1B683B4A12689B1A33
:1033E000B3F5FA7F7FF64FAC304B01221A701444CC
:1033F0002F4B1C6047E42C4B1B78002B7FF443AC15
:1034000001930122009213464FF0FF310220FDF795
:10341000E9FE01287FF437AC234B00221A70234BBE
:1034200001221A70224A1368013313602BE41F4BE8
:103430001B78002B52D0254D0DF116030393002469
:103440000294019400950DAB224621462846FEF7D2
:1034500047FDD5E900011A4EC6E90001D5E902236E
:10346000C6E90223154BC3E9000100201A49C3E94C
:103470000201234604E0164A1A440E21517001331A
:10348000072BF8DD094B00221A70FFF7FCBB00BFC9
:10349000000000000070A74000000000000CB740D2
:1034A0000000000000C8B940A30300200200002073
:1034B000C40300202003002004000020B0040020EA
:1034C000A0040020100C00201C030020D8030020C2
:1034D000300000202C0000200000B940012301939F
:1034E000009397A3D3E900239D499E48FFF740F836
:1034F0009D4B187003287FF4C6AB9C4B01221A70B9
:103500009B4A136801331360FFF7BDBB994B1B78CF
:10351000012B07D000210320FDF7E0FC954B18702C
:10352000FFF7B1BB944A537843F0200353708F4B9D
:1035300001221A7014448E4B1C608E4B00221A70AC
:10354000FFF7A1BB894B1B7843B18C4B1A688C4B9E
:103550001A60864B00221A70FFF795BB874B1B68D9
:10356000874A12689B1AB3F5967F0DD9854B0322C3
:1035700083F8222000221A847C4B01221A70144402
:103580007B4B1C60FFF77FBB7E4B012283F8222020
:1035900040F6B8321A84FFF776BB744B1B78002BC9
:1035A0003AD0794A136801331360312B7FF76BAB44
:1035B000764D0DF1160303930024029401940095B7
:1035C0000DAB224621462846FEF78AFC654E5EA3D7
:1035D000D3E90023C6E9002300226D4BD5E902019F
:1035E000FCF7BCFDC6E902015D4B59A7D7E90067AE
:1035F000C3E90067C3E90201234604E0654A1A44AF
:103600000F2151700133072BF8DD00235E4A136050
:10361000564A1370FFF737BB012301930023009331
:1036200000225D4B4E494F48FEF7A2FF4E4B1870EB
:1036300003287FF428AB4D4B01221A704C4A1368C3
:1036400001331360FFF71FBB4B4A537843F0340339
:103650005370484B1B78012B07D000210220FDF747
:103660003DFC444B1870FFF70EBB404B01221A7013
:1036700014443F4B1C603F4B00221A70FFF703BB02
:103680003A4B1B78A3B9384B1B78032B3FD001234F
:10369000019300930022404B31493248FEF768FF06
:1036A000314B1870354B1A68354B1A60FFF7EBBA7F
:1036B000364D0DF1160303930024029401940095F6
:1036C0000DAB224621462846FEF70AFCD5E900014B
:1036D000244BC3E900010026304FC3E90267204BA9
:1036E000C3E900011CA1D1E90001C3E9020123469D
:1036F00004E0284A1A44062151700133072BF8DDF3
:1037000000231A4A1370184A1370FFF7BCBA1A4AFA
:10371000537823F008035370184B1B68184A12683B
:103720009B1AB3F5FA7F7FF6AEAA104B01221A70EE
:1037300014440F4B1C60FFF7A6BA00BFAFF3008024
:10374000000000000070A7400000000000C899C001
:10375000000000000064A9C000000000000CB74099
:10376000B0040020A004002004000020020000207B
:10377000C4030020200300202C000020100C002097
:103780001C0300203C000020C8030020D8030020B8
:10379000000049403000002000409F400000B94038
:1037A000A34B1B78002B35D0A24A1368013313605A
:1037B000632B7FF768AAA04D0DF116030393002435
:1037C0000294019400950DAB224621462846FEF74F
:1037D00087FB9A4B90A1D1E90001C3E90001D5E92B
:1037E0000201C3E90201964B00260027C3E90067E6
:1037F000C3E90201234604E0924A1A440F215170A2
:103800000133072BF8DD00238A4A1360884A1370BE
:10381000FFF739BA01230193009300228A4B8849AC
:103820008648FEF7A5FE894B187003287FF42BAA63
:103830007F4B01221A70864A136801331360FFF729
:1038400022BA7B4B1B78002B2CD07B4D0DF116033D
:10385000039300240294019400950DAB2246214667
:103860002846FEF73DFBD5E90001744BC3E9000192
:103870006BA7D7E90067C3E90267714BC3E9000191
:1038800000200021C3E90201234604E06D4A1A44E6
:103890000E2151700133072BF8DD654B00221A70A1
:1038A000FFF7F1B90123019300930022664B6449AD
:1038B0006248FEF75DFE654B187003287FF4E3A9AC
:1038C0005B4B01221A70624A136801331360FFF7E1
:1038D000DAB9604B1B78C3B95F4B1B78002B3FF400
:1038E000D2A95B4B1C680C2C3FF6CDA9DFE814F085
:1038F0005500D200A00132029102EF028C03EA03CC
:103900004804DE043C059A05EB050DF1170300227F
:1039100001211046FDF700FD0DF1170300220121E2
:103920000846FDF7F9FC0DF11703002201210220E2
:10393000FDF7F2FC0DF11703002201210320FDF732
:10394000EBFC3D480DF1160303930024029401940F
:1039500000900DAB22460121FEF7C2FA354B1C60E8
:103960003E4B1C600125324B1D703D4B1C703D4B86
:103970001C70FDF7FFF9364B1C6029462846FDF701
:10398000ADFA019500942346224621460220FDF718
:1039900029FC2C4BDD711D729EE7254B1B78002BFB
:1039A00062D025480DF11603039300210291019185
:1039B00000900DAB0A46FEF793FA2049002200233F
:1039C000C1E90023C1E902231D49C1E9002316A36F
:1039D000D3E90023C1E9022304E01A4B2344032264
:1039E0005A700134072CF8DD114B00221A701D4B60
:1039F0001B78002B7FF447A9002201920092134606
:103A000001210220FDF7EEFB01287FF43CA9154BB4
:103A100001221A70FFF737B9000000000064A9C046
:103A200000000000000CB7400000000000B4AE40F1
:103A300002000020C8030020D8030020A0040020BA
:103A4000B0040020300000200040AF4004000020FF
:103A5000C403002001000020A50300208C030020E7
:103A600020030020A3030020012301930093A4A3BB
:103A7000D3E90023A849A948FEF77AFDA84B18709E
:103A80000328B4D1A74B01221A70A74A1368013347
:103A90001360ACE7A34B1B7843BBA44B1B68A44A41
:103AA00012689B1A40F6FB018B424ED99F4B1B6854
:103AB0009B1A40F6E3418B4270D99C4B1B689B1AC2
:103AC00041F2CB0293424BD80121F020FEF73CF8A3
:103AD0000221EB20FEF738F8964B02221A740122DD
:103AE0009A7540F6AC52DA819A8239E0924D0DF126
:103AF0001603039300240294019400950DAB224613
:103B000021462846FEF7ECF9844B00200021C3E94A
:103B10000001D5E90201C3E902017F4B0026874F6E
:103B2000C3E90067C3E902012346072B05DC844A89
:103B30001A44022151700133F7E77A4B00221A70C0
:103B40007A4B1A687A4B1A6013E0012301930093B1
:103B500000227A4B70497148FEF70AFD704B1870CD
:103B6000724B1B68724A12689B1A41F2CB02934255
:103B700028D8744B1B78002B7FF485A80022019273
:103B80000092134601210220FDF72CFB01287FF44F
:103B90007AA86C4B01221A70FFF775B801214FF417
:103BA0009670FDF7D1FF022140F22710FDF7CCFF00
:103BB000604B02221A7401229A7540F6AC52DA81E7
:103BC0009A82CDE75B4B03221A749A750024DC813C
:103BD0009C82534B04221A70554B1C60FDF7DCF895
:103BE00001258DF834508DF835408DF8365000227F
:103BF000554BCDE9062344A3D3E90023CDE908239F
:103C000000220023CDE90A230DF116030393029449
:103C1000019406AB00930DAB2A4621464648FEF7B9
:103C20005FF9404B1D70404A13682B441360A0E7B6
:103C3000444B1B789BB13B4B1B78F3B9384B1B783B
:103C4000032B49D001230193009300223F4B3249BB
:103C50003248FEF78DFC324B1870FFF714B8002283
:103C600001920092134601210220FDF7BBFA0128C0
:103C7000E1D1344B01221A70DDE72F4D0DF116030F
:103C8000039300240294019400950DAB2246214633
:103C90002846FEF725F9214B00202D49C3E90001F4
:103CA000D5E90201C3E902011B4B19A7D7E9006757
:103CB000C3E90067C3E902012346072B05DC204A5C
:103CC0001A44042151700133F7E70023154A137099
:103CD000134A1370FEF7D7BF1A4B1B78002B3EF424
:103CE000D2AF104B01221A700F4A136801331360D0
:103CF000144B00221A70FEF7C6BF00BFAFF300805E
:103D0000000000000094B140000000000078AE40C8
:103D10000000000000589BC0B0040020A004002058
:103D20000400002002000020C4030020100C00202A
:103D30008C0300203C000020D803002000409F405E
:103D400030000020A3030020000069400040AF4085
:103D500000806640A04B1B78ABB9A04B1B78032BAF
:103D600041D00123019300938DA3D3E900239C4903
:103D70009C48FEF7FDFB994B18709B4B1A689B4BB8
:103D80001A60FEF780BF9A4D0DF1160303930024CD
:103D90000294019400950DAB224621462846FEF779
:103DA0009FF8D5E900018F4BC3E900017EA7D7E951
:103DB0000067C3E902678A4BC3E900017CA1D1E92E
:103DC0000001C3E902012346072B05DC894A1A4496
:103DD000052151700133F7E700237F4A13707F4AB2
:103DE0001370FEF750BF844A537843F0300353708A
:103DF0007D4B1B687D4A12689B1AB3F5FA7F7EF6ED
:103E000042AF754B01221A7014447C4B1C60FEF7C4
:103E10003ABF714B1B78A3B9704B1B78032B40D072
:103E20000123019300930022754B6D496D48FEF705
:103E30009FFB6A4B18706C4B1A686C4B1A60FEF74C
:103E400022BF6B4D0DF116030393002402940194DD
:103E500000950DAB224621462846FEF741F8D5E9EC
:103E60000001604BC3E9000151A7D7E90067C3E92E
:103E700002675B4BC3E900014FA1D1E90001C3E92F
:103E800002012346072B05DC5A4A1A4406215170C9
:103E90000133F7E70023504A1370504A1370FEF7BE
:103EA000F2BE554A537843F0040353704E4B1B68DF
:103EB0004E4A12689B1AB3F5FA7F7EF6E4AE464B83
:103EC00001221A7014444D4B1C60FEF7DCBE4D4BB2
:103ED0001B78A3B1404B1B78FBB9404B1B78032BDD
:103EE0004BD001230193009335A3D3E900233C4930
:103EF0003C48FEF73DFB394B1870FEF7C4BE00226C
:103F000001920092134601210220FDF76BF901286E
:103F1000E0D13C4B01221A70DCE7354D0DF1160360
:103F2000039300240294019400950DAB2246214690
:103F30002846FDF7D5FF2B4B23A1D1E90001C3E9AA
:103F40000001D5E90201C3E90201254B20A7D7E909
:103F50000067C3E90067C3E902012346072B05DCBC
:103F6000244A1A44042151700133F7E700231A4A06
:103F700013701A4A1370FEF786BE224B1B78002B73
:103F80003EF481AE144B01221A701C4A13680133AF
:103F900013601C4B00221A70FEF775BEAFF3008051
:103FA000000000000070A740000000000078AE4054
:103FB0000000000000F8B140000000000004B04024
:103FC0000000000000C8A9400000000000589BC08D
:103FD000000000000024A3C0020000200400002014
:103FE000B0040020A0040020100C00201C030020BE
:103FF000D8030020300000202C000020C403002043
:1040000000409F40A30300209B4B1B78ABB99B4B08
:104010001B78032B40D00123019300938CA3D3E999
:10402000002397499748FEF7A3FA944B1870964BD4
:104030001A68964B1A60FEF726BE954D0DF11603D1
:10404000039300240294019400950DAB224621466F
:104050002846FDF745FFD5E900018A4EC6E9000173
:10406000D5E90223C6E90223854BC3E900017AA101
:10407000D1E90001C3E902012346072B05DC854A8B
:104080001A44052151700133F7E700237A4A13706F
:104090007A4A1370FEF7F7BD7F4A537843F0300336
:1040A0005370794B1B68794A12689B1AB3F5FA7FF3
:1040B0007EF6E9AD704B01221A701444774B1C60F8
:1040C000FEF7E1BD6C4B1B78A3B96C4B1B78032B3F
:1040D00040D00123019300930022714B6849694845
:1040E000FEF746FA654B1870674B1A68674B1A6003
:1040F000FEF7C9BD664D0DF116030393002402942B
:10410000019400950DAB224621462846FDF7E8FEB6
:10411000D5E900015B4BC3E900014FA7D7E9006770
:10412000C3E90267564BC3E900014DA1D1E9000183
:10413000C3E902012346072B05DC564A1A4406212F
:1041400051700133F7E700234B4A13704B4A137049
:10415000FEF799BD504A537843F0040353704A4B1D
:104160001B684A4A12689B1AB3F5FA7F7EF68BAD3C
:10417000414B01221A701444484B1C60FEF783BD6A
:10418000484B1B789BB13C4B1B78F3B93B4B1B78DE
:10419000032B4AD00123019300930022424B38495C
:1041A0003848FEF7E5F9354B1870FEF76CBD002274
:1041B00001920092134601210220FDF713F8012815
:1041C000E1D1384B01221A70DDE7314D0DF11603B4
:1041D000039300240294019400950DAB22462146DE
:1041E0002846FDF77DFE274B1FA1D1E90001C3E959
:1041F0000001D5E90201C3E90201214B1CA7D7E95F
:104200000067C3E90067C3E902012346072B05DC09
:10421000204A1A44042151700133F7E70023164A5B
:104220001370164A1370FEF72EBD1E4B1B78002B21
:104230003EF429AD104B01221A70184A136801335D
:104240001360184B00221A70FEF71DBDAFF30080FB
:10425000000000000070A7400000000000F8B1401E
:10426000000000000004B0400000000000ECA3C00B
:1042700000000000009CA8C00200002004000020F4
:10428000B0040020A0040020100C00201C0300201B
:10429000D8030020300000202C000020C4030020A0
:1042A00000409F40A30300200040AF40A04B1B787C
:1042B000ABB9A04B1B78032B40D001230193009393
:1042C00093A3D3E900239C499C48FEF751F9994BED
:1042D00018709B4B1A689B4B1A60FEF7D4BC9A4D22
:1042E0000DF11603039300240294019400950DAB85
:1042F000224621462846FDF7F3FDD5E900018F4E01
:10430000C6E90001D5E90223C6E902238A4BC3E9C5
:10431000000181A1D1E90001C3E902012346072B75
:1043200005DC8A4A1A44052151700133F7E700235E
:104330007F4A13707F4A1370FEF7A5BC844A5378F6
:1043400043F0300353707E4B1B687E4A12689B1A01
:10435000B3F5FA7F7EF697AC754B01221A701444C0
:104360007C4B1C60FEF78FBC714B1B78A3B9714B63
:104370001B78032B40D00123019300930022764B3E
:104380006D496E48FEF7F4F86A4B18706C4B1A686A
:104390006C4B1A60FEF777BC6B4D0DF1160303935F
:1043A00000240294019400950DAB22462146284634
:1043B000FDF796FDD5E90001604BC3E9000156A762
:1043C000D7E90067C3E902675B4BC3E9000154A169
:1043D000D1E90001C3E902012346072B05DC5B4A52
:1043E0001A44062151700133F7E70023504A137035
:1043F000504A1370FEF747BC554A537843F0040304
:1044000053704F4B1B684F4A12689B1AB3F5FA7FE3
:104410007EF639AC464B01221A7014444D4B1C6099
:10442000FEF731BC424B1B78002B35D04B4A13684A
:1044300001331360632B7EF726AC434D0DF1160359
:10444000039300240294019400950DAB224621466B
:104450002846FDF745FD394B33A1D1E90001C3E9F9
:104460000001D5E90201C3E90201334B0026002710
:10447000C3E90067C3E90201234604E0334A1A4452
:104480000F2151700133072BF8DD0023334A1360ED
:10449000274A1370FEF7F7BB012301930093002214
:1044A0002F4B25492548FEF763F8224B1870032847
:1044B0007EF4E9AB1E4B01221A70264A13680133C1
:1044C0001360FEF7E0BB1A4B1B78002B56D01E4D35
:1044D0000DF11603039300240294019400950DAB93
:1044E000224621462846FDF7FBFCD5E90001134B87
:1044F000C3E900010AA7D7E90067C3E902670E4BC9
:10450000C3E9000100200021C3E9020123462EE097
:10451000000000000070A7400000000000F8B1405B
:10452000000000000004B0400000000000C8A9C066
:104530000200002004000020B0040020A00400209D
:10454000100C00201C030020D803002030000020A5
:104550002C000020C403002000409F40C80300201E
:104560000040AF40B44A1A440E2151700133072B6A
:10457000F8DDB24B00221A70FEF785BB01230193D0
:1045800000930022AE4BAF49AF48FDF7F1FFAF4BB0
:10459000187003287EF477ABA84B01221A70AC4A3E
:1045A000136801331360FEF76EBBAA4B1B78002B18
:1045B0003EF469AB0DF11703002201211046FCF710
:1045C000ABFE0DF11703002201210846FCF7A4FE03
:1045D0000DF11703002201210220FCF79DFE0DF1D1
:1045E0001703002201210320FCF796FE9A480DF1E3
:1045F0001603039300240294019400900DAB22460D
:104600000121FDF76DFC954B1C60954B1C6001254D
:104610008A4B1D70934B1C70934B1C70FCF7AAFBCC
:104620008B4B1C60019500942346224621460220B4
:10463000FCF7D8FD804BDD7102221A72FEF723BB16
:10464000844B1B78002B3EF41EAB0DF117030022A8
:1046500001211046FCF760FE0DF117030022012135
:104660000846FCF759FE0DF1170300220121022034
:10467000FCF752FE0DF11703002201210320FCF785
:104680004BFE75480DF11603039300240294019428
:1046900000900DAB22460121FDF722FC6F4B1C6000
:1046A0006F4B1C600125654B1D706E4B1C706E4B73
:1046B0001C70FCF75FFB664B1C6001950094234661
:1046C000224621460220FCF78DFD5B4BDD71052261
:1046D0001A72FEF7D8BA5F4B1B78002B3EF4D3AAB0
:1046E0000DF11703002201211046FCF715FE0DF114
:1046F0001703002201210846FCF70EFE0DF11703F7
:10470000002201210220FCF707FE0DF11703002211
:1047100001210320FCF700FE4F480DF1160303931F
:1047200000240294019400900DAB22460121FDF774
:10473000D7FB4A4B1C604A4B1C6001253F4B1D7048
:10474000484B1C70484B1C70FCF714FB404B1C6022
:10475000019500942346224621460220FCF742FDA3
:10476000354BDD7104221A72FEF78DBA394B1B7876
:10477000DBB93E4B1B78002B3EF485AA344B1C68FA
:104780000F2C3EF680AADFE814F07500CB009F01E5
:104790002F024602A50204034D039503B103DC0377
:1047A00034045004DC04EC047E050DF117030022F0
:1047B00001211046FCF7B0FD0DF117030022012185
:1047C0000846FCF7A9FD0DF1170300220121022084
:1047D000FCF7A2FD0DF11703002201210320FCF7D5
:1047E0009BFD1D480DF116030393002402940194D0
:1047F00000900DAB22460121FDF772FB174B1C60A8
:10480000174B1C6001250D4B1D70164B1C70164B71
:104810001C70174B1C70FCF7ADFA0D4B1C6001951A
:1048200000942346224621460220FCF7DBFC024B83
:104830000C22DA711A729CE730000020020000207E
:104840000040AF40B0040020A0040020040000207D
:10485000C403002001000020D8030020C80300206A
:104860008C03002020030020A3030020A5030020C8
:10487000CD040020A84B1B78002B3BD0A7480DF19E
:104880001603039300210291019100900DAB0A469B
:10489000FDF726FBA24900220023C1E90023C1E95C
:1048A0000223A049C1E9002397A3D3E90023C1E96A
:1048B0000223072C05DC9C4B234403225A7001344D
:1048C000F7E7954B00221A70984B1B78002B7EF46B
:1048D000DAA900220192009213464FF0FF31042022
:1048E000FCF780FC01287EF4CEA9904B01221A70BF
:1048F000FEF7C9B901230193009385A3D3E90023EF
:1049000088498748FDF734FE894B18700328DBD1AE
:10491000814B01221A70874A136801331360D3E771
:104920007D4B1B7843BB844B1B68844A12689B1ADF
:1049300040F6FB018B424ED97F4B1B689B1A40F619
:10494000E3418B4271D97C4B1B689B1A41F2CB022D
:1049500093424BD80121F020FDF7F6F80221EB201D
:10496000FDF7F2F8764B02221A7401229A7540F68E
:10497000AC52DA819A8239E0684D0DF11603039347
:1049800000240294019400950DAB2246214628464E
:10499000FDF7A6FA624B00200021C3E90001D5E92A
:1049A0000201C3E902015F4B0026664FC3E90067BD
:1049B000C3E90201234604E05B4A1A440221517014
:1049C0000133072BF8DD544B00221A705A4B1A683A
:1049D0005A4B1A6013E00123019300930022594BB4
:1049E00050494F48FDF7C4FD514B1870524B1B689E
:1049F000524A12689B1A41F2CB0293422ED84B4B7B
:104A00001B78002B7EF43FA90022019200921346EE
:104A10004FF0FF310420FCF7E5FB01287EF433A9B9
:104A2000424B01221A70FEF72EB9474A537843F0E1
:104A30000803537001214FF49670FDF785F80221A9
:104A400040F22710FDF780F83D4B02221A74012234
:104A50009A7540F6AC52DA819A82C7E7384B032246
:104A60001A749A750024DC819C82314B04221A70DE
:104A7000324B1C60FCF790F901258DF834508DF80D
:104A800035508DF836500022304BCDE906231EA359
:104A9000D3E90023CDE9082300220023CDE90A232E
:104AA0000DF1160303930294019406AB00930DAB32
:104AB0002A4621461948FDF713FA174B1D701D4A67
:104AC00013682B4413609AE7184B1B78002B3FD0D8
:104AD000114B1B78002B4AD1154B1B78032B75D13A
:104AE000124B1B78002B3EF4CEA80B4B01221A7000
:104AF000104A1368013313600C4B00221A70FEF742
:104B0000C2B800BFAFF3008000000000000CB74047
:104B1000000000000094B14002000020D8030020F3
:104B2000A0040020B004002030000020A3030020D7
:104B300004000020C4030020100C00208C0300207F
:104B40003C00002000409F402C00002000006940F5
:104B500000220192009213464FF0FF310420FCF72F
:104B600041FB0128B4D1A24B01221A70B0E7A14D3C
:104B70000DF11603039300240294019400950DABEC
:104B8000224621462846FDF7ABF99B4B00209B4966
:104B9000C3E90001D5E90201C3E90201984B8CA7E2
:104BA000D7E90067C3E90067C3E90201234604E0CF
:104BB000944A1A44042151700133072BF8DD002375
:104BC000914A1370914A1370FEF75DB80123019367
:104BD000009381A3D3E9002389498748FDF7C8FCE6
:104BE0008A4B1870FEF74FB8894B1B78012B0AD1FE
:104BF000854B01221A701444864B1C60844B0022A2
:104C00001A70FEF740B800210220FCF767F9804BCC
:104C10001870FEF738B87C4B1B78CBB97B4B1B78F0
:104C2000032B45D17C4A537843F0300353707B4BC0
:104C30001B687B4A12689B1AB3F5FA7F7EF623A89D
:104C4000714B01221A701444724B1C60FEF71BB8A2
:104C5000684D0DF11603039300240294019400950E
:104C60000DAB224621462846FDF73AF9D5E9000169
:104C7000614BC3E900015AA7D7E90067C3E902679E
:104C80005F4BC3E9000158A1D1E90001C3E902016A
:104C9000234604E05B4A1A44052151700133072B77
:104CA000F8DD0023584A1370584A1370FDF7EBBF24
:104CB00001230193009348A3D3E9002350494E48B0
:104CC000FDF756FC514B1870544B1A68544B1A6040
:104CD000FDF7D9BF4C4B1B78CBB94C4B1B78032B42
:104CE00045D14D4A537843F0040353704B4B1B6836
:104CF0004B4A12689B1AB3F5FA7F7DF6C4AF424B5C
:104D000001221A701444434B1C60FDF7BCBF394D9F
:104D10000DF11603039300240294019400950DAB4A
:104D2000224621462846FDF7DBF8D5E90001324B43
:104D3000C3E900012CA7D7E90067C3E90267304B3C
:104D4000C3E9000126A1D1E90001C3E9020123461C
:104D500004E02C4A1A44062151700133072BF8DD78
:104D60000023294A1370294A1370FDF78CBF0123D1
:104D70000193009318A3D3E9002321491E48FDF7AE
:104D8000F7FB224B1870254B1A68254B1A60FDF76C
:104D90007ABF174B1B78002B7DF475AF019301226E
:104DA000009213464FF0FF310220FCF71BFA012856
:104DB0007DF469AF0E4B00221A70134B01221A705A
:104DC000144A136801331360FDF75DBFAFF3008031
:104DD0000000000000C899C0000000000070A7405B
:104DE00000000000000CB7400000000000C8B940FF
:104DF000A3030020D8030020A00400200080664008
:104E0000B004002030000020020000200400002038
:104E100020030020C40300202C000020100C0020E0
:104E20001C030020A84B1B78002B2BD0A74D0DF1A5
:104E30001603039300240294019400950DAB2246BF
:104E400021462846FDF74CF8D5E90001A04EC6E9F9
:104E50000001D5E90223C6E902239E4BC3E9000104
:104E600000209D49C3E902012346072B05DC9B4A2C
:104E70001A440E2151700133F7E7934B00221A7048
:104E8000FDF701BF01230193009387A3D3E900231A
:104E900090498F48FDF76CFB914B187003287DF407
:104EA000F2AE894B01221A708E4A136801331360E7
:104EB000FDF7E9BE8C4B1B78012B0FD18B4A537841
:104EC00043F020035370804B01221A701444854B29
:104ED0001C60854B00221A70FDF7D5BE002103200F
:104EE000FBF7FCFF804B1870FDF7CDBE764B1B78AF
:104EF00043B17F4B1A687F4B1A60734B00221A70C4
:104F0000FDF7C1BE7A4B1B687A4A12689B1AB3F54B
:104F1000967F0DD9784B032283F8222000221A8431
:104F2000694B01221A7014446E4B1C60FDF7ABBE36
:104F3000714B012283F8222040F6B8321A84FDF723
:104F4000A2BE614B1B78002B3AD06C4A1368013328
:104F50001360312B7DF797AE5C4D0DF11603039373
:104F600000240294019400950DAB22462146284668
:104F7000FCF7B6FF564E4EA3D3E90023C6E9002343
:104F800000225F4BD5E90201FBF7E8F8C6E9020110
:104F9000504B49A7D7E90067C3E90067C3E902019D
:104FA000234604E04D4A1A440F2151700133072B68
:104FB000F8DD0023514A1360434A1370FDF763BEC6
:104FC000012301930023009337A3D3E90023414930
:104FD0003F48FDF7CDFA424B187003287DF453AEDD
:104FE000394B01221A703F4A136801331360FDF7F1
:104FF0004ABE3E4A537843F0340353703A4B1B7811
:10500000012B0AD1304B01221A701444354B1C601D
:10501000354B00221A70FDF736BE00210220FBF747
:105020005DFF314B1870FDF72EBE274B1B78CBB9B7
:105030002B4B1B78032B73D12C4A537823F0080396
:1050400053702B4B1B682B4A12689B1AB3F5FA7FDF
:105050007DF619AE1C4B01221A701444214B1C60C2
:10506000FDF711BE194D0DF11603039300240294B0
:10507000019400950DAB224621462846FCF730FFEF
:10508000D5E90001124BC3E900010026124FC3E924
:105090000267104BC3E9000109A1D1E90001C3E98E
:1050A0000201234633E000BF000000000070A7406B
:1050B0000000000000C899C0000000000064A9C002
:1050C00000000000000CB74002000020D8030020C0
:1050D000A0040020B00400200000B94030000020EF
:1050E00004000020C4030020200300202C00002026
:1050F000100C00201C0300203C000020C8030020EE
:10510000000049408C4A1A44062151700133072B94
:10511000F8DD0023894A1370894A1370FDF7B3BD87
:105120000123019300930022864B87498748FDF7AE
:105130001FFA834B1870864B1A68864B1A60FDF76E
:10514000A2BD7E4B1B781BBB7D4B1B78032B4ED126
:105150007A4B01221A7014447F4B1C607F4B002253
:105160001A707F480DF116030393002102910191FB
:1051700000900DAB0A46FCF7B3FE7A4B1B78012B6F
:105180004BD07748FCF74CFE764B1870002340E07C
:10519000734D0DF1160303930024029401940095BE
:1051A0000DAB224621462846FCF79AFE674B5AA1D2
:1051B000D1E90001C3E90001D5E90201C3E9020117
:1051C000614B57A7D7E90067C3E90067C3E902014C
:1051D000234604E0584A1A44042151700133072B36
:1051E000F8DD0023554A1370554A1370B9E70123BF
:1051F000019300934CA3D3E9002353495348FDF78F
:10520000B7F94F4B1870ACE74B4A1A440E21517056
:105210000133072BF8DDFDF736BD0025514B1D701E
:1052200001248DF834408DF835408DF836404C4ED1
:10523000D6E9002338A1D1E90001FAF78DFFCDE9C5
:105240000601D6E902233AA1D1E90001FAF784FF69
:10525000CDE9080100220023CDE90A230DF1160350
:1052600003930295019506AB00930DAB22462946A8
:105270003046FCF735FE314B1C70374A1368234427
:105280001360FDF700BD2D4B1B78002B2BD0344D48
:105290000DF11603039300240294019400950DABC5
:1052A000224621462846FCF71BFED5E90001274B84
:1052B000C3E9000100260027C3E90267224BC3E9C6
:1052C000000100202849C3E902012346072B05DC21
:1052D000194A1A440F2151700133F7E7174B002286
:1052E0001A70FDF7D0BC01230193009300221F4BDD
:1052F00015491648FDF73CF9114B187003287DF449
:10530000C2AC0E4B01221A70134A136801331360AA
:10531000FDF7B9BCAFF30080000000000064A9C035
:1053200000000000009CA8C0000000000070A74022
:1053300000000000000CB7403000002002000020F8
:105340000400002000409F40B0040020A004002082
:10535000100C00201C030020C4030020A303002025
:10536000D8030020CD04002000E085400040AF407D
:10537000994B1B781BB1994B0822DA711A72984B22
:105380005B7813F0080F04D0954B5B7813F0020F95
:1053900060D1934B9B7813F0400F00F08480914BC9
:1053A0001B78002B7FD0904B01221A7000238F4A6C
:1053B00013708F4A13708F4A13708F4A13708F4A7D
:1053C0001370874B9B7813F0200F17D000238C4A63
:1053D00013608C4A13608C4A012111708B4A137040
:1053E0008B4A1370804A1370804A1370804A13707E
:1053F000804A1370804A1370804A13707A4B1B786E
:105400007BB97A4B1B7863B9794B1B784BB9794BD5
:105410001B7833B9784B1B781BB9784B1B78002B62
:1054200059D0754B1B78002B00F09180794B1C688C
:105430000C2C00F28C80DFE814F05D00F900C6014E
:105440005102AD0208039D03F8035304E904470524
:10545000A505F6050DF11703002201211046FBF703
:105460005BFF0DF11703002201210846FBF754FFF3
:105470000DF11703002201210220FBF74DFF0DF172
:105480001703002201210320FBF746FF62480DF1BC
:105490001603039300220292019200900DAB0121AA
:1054A000FCF71EFD75E74E4B9B7813F0100F88D06C
:1054B0005A4B1B78002B84D000234B4A13704B4A65
:1054C00013704B4A13704B4A13704B4A01211170F1
:1054D0004A4A137075E70024494B1C60494B1C6015
:1054E000414B1C70484B01221A70FBF743FC494B9F
:1054F0001C6096E7444B1B78002B3FD046480DF1CB
:105500001603039300210291019100900DAB0A460E
:10551000FCF7E6FC424900220023C1E90023C1E96F
:1055200002234049C1E9002327A3D3E90023C1E9AD
:10553000022304E0294B234403225A700134072C30
:10554000F8DD314B00221A70314B1B7863B3264BC8
:105550001B78002B3DF497AB2E4B1C680A2C3DF6B4
:1055600092ABDFE814F0D205280623078B07A207C9
:10557000FF078508A208EB080209590901230193D6
:10558000009313A3D3E9002326492548FCF7F0FF35
:10559000254B18700328D7D11B4B01221A701D4AC6
:1055A000136801331360CFE7002201920092134683
:1055B00001210220FBF716FE0128C8D1144B01225D
:1055C0001A70C4E7AFF300800000000000E8AC40B0
:1055D000000000000094B1400100002030000020D5
:1055E000140C00208803002091040020C80400202F
:1055F000C9040020CA040020CB040020920400202B
:10560000C80300208C03002002000020200300209B
:10561000A3030020C4030020D8030020CC040020F2
:10562000A0040020B0040020040000209C4B1B7844
:1056300043BB9C4B1B689C4A12689B1A40F6FB01BB
:105640008B424ED9974B1B689B1A40F6E3418B4225
:105650006FD9944B1B689B1A41F2CB0293424BD8F3
:105660000121F020FCF770FA0221EB20FCF76CFA24
:105670008E4B02221A7401229A7540F6AC52DA81DE
:105680009A8239E08A4D0DF11603039300240294A7
:10569000019400950DAB224621462846FCF720FCDC
:1056A000844B00200021C3E90001D5E90201C3E9D0
:1056B0000201814B0026814FC3E90067C3E9020163
:1056C0002346072B05DC7E4A1A4402215170013320
:1056D000F7E7734B00221A70724B1A68724B1A600C
:1056E00013E00123019300930022744B7249714827
:1056F000FCF73EFF734B18706A4B1B686A4A1268CE
:105700009B1A41F2CB02934227D86F4B1B78002B98
:105710007FF41DAF00220192009213460121022066
:10572000FBF760FD01287FF412AF674B01221A706E
:105730000DE701214FF49670FCF706FA022140F2C2
:105740002710FCF701FA594B02221A7401229A75AC
:1057500040F6AC52DA819A82CEE7544B03221A7497
:105760009A750024DC819C82564B04221A704E4BA1
:105770001C60FBF711FB01258DF834508DF8354086
:105780008DF836500022514BCDE9062340A3D3E9D2
:105790000023CDE9082300220023CDE90A230DF1DF
:1057A000160303930294019406AB00930DAB2A46B3
:1057B00021463F48FCF794FB394B1D70444A13685F
:1057C0002B441360A1E7404B1B7893B1344B1B78FB
:1057D000EBB93C4B1B78032B47D00123019300937B
:1057E00000223C4B34493348FCF7C2FE354B18705D
:1057F000ADE6002201920092134601210220FBF740
:10580000F1FC0128E2D1304B01221A70DEE7284D6D
:105810000DF11603039300240294019400950DAB3F
:10582000224621462846FCF75BFB224B00202A49F2
:10583000C3E90001D5E90201C3E902011E4B16A725
:10584000D7E90067C3E90067C3E902012346072BD4
:1058500005DC1B4A1A44042151700133F7E7002389
:105860000F4A1370174A137071E6174B1B78002B01
:105870003FF46DAE0A4B01221A70154A13680133CA
:105880001360114B00221A7061E600BFAFF3008075
:105890000000000000E8AC400000000000589BC081
:1058A00002000020100C00208C0300203C0000208F
:1058B000D8030020A0040020B004002000409F4036
:1058C0003000002004000020A303002000006940F5
:1058D000C40300200040AF4000806640984B1B7816
:1058E000A3B9984B1B78032B3FD00123019300935E
:1058F00087A3D3E9002394499448FCF739FE914BE0
:105900001870934B1A68934B1A6020E6924D0DF174
:105910001603039300240294019400950DAB2246D4
:1059200021462846FCF7DCFAD5E90001874BC3E99C
:10593000000179A7D7E90067C3E90267824BC3E991
:10594000000177A1D1E90001C3E902012346072B39
:1059500005DC824A1A44052151700133F7E7002320
:10596000774A1370774A1370F1E57D4A537843F014
:1059700030035370764B1B68764A12689B1AB3F556
:10598000FA7F7FF6E4AD6E4B01221A701444754B1A
:105990001C60DCE56A4B1B789BB96A4B1B78032BB8
:1059A0003ED001230193009300226F4B6649674864
:1059B000FCF7DEFD634B1870654B1A68654B1A6087
:1059C000C5E5654D0DF1160303930024029401947F
:1059D00000950DAB224621462846FCF781FAD5E911
:1059E00000015A4BC3E900014DA7D7E90067C3E99D
:1059F0000267554BC3E900014BA1D1E90001C3E99E
:105A000002012346072B05DC544A1A440621517033
:105A10000133F7E700234A4A13704A4A137096E5A8
:105A20004F4A537843F004035370494B1B68494A6B
:105A300012689B1AB3F5FA7F7FF689AD404B0122BD
:105A40001A701444474B1C6081E5484B1B7893B196
:105A50003B4B1B78EBB93B4B1B78032B48D0012306
:105A6000019300930022424B37493848FCF780FDF0
:105A7000344B18706BE5002201920092134601210D
:105A80000220FBF7AFFB0128E2D1384B01221A704C
:105A9000DEE7314D0DF116030393002402940194C7
:105AA00000950DAB224621462846FCF719FA274BF4
:105AB0001FA1D1E90001C3E90001D5E90201C3E951
:105AC0000201214B1CA7D7E90067C3E90067C3E9BE
:105AD00002012346072B05DC204A1A440421517099
