:020000040800F2
:10000000005000203988000871430008734300083D
:10001000754300087743000879430008000000009A
:100020000000000000000000000000007B4300080A
:100030007D430008000000007F4300088143000862
:10004000818800088188000881880008818800086C
:10005000818800088188000881880008818800085C
:10006000818800088188000881880008818800084C
:1000700081880008A9430008D9430008E943000823
:100080008188000899430008818800088188000859
:10009000818800088188000881880008818800081C
:1000A00081880008D97200088188000881880008CA
:1000B000E9720008818800088188000881880008AA
:1000C00081880008818800088188000881880008EC
:1000D0008188000881880008C9430008B9430008E6
:1000E00081880008818800088188000800000000DD
:1000F0000000000000000000000000000000000000
:0C01000000000000000000005FF808F1A3
:1001100010B5054C237833B9044B13B10448AFF341
:1001200000800123237010BDF002002000000000B9
:10013000B0AA000808B5034B1BB103490348AFF34D
:10014000008008BD00000000F4020020B0AA0008F2
:1001500081F0004102E000BF83F0004330B54FEA78
:1001600041044FEA430594EA050F08BF90EA020FE5
:100170001FBF54EA000C55EA020C7FEA645C7FEA78
:10018000655C00F0E2804FEA5454D4EB5555B8BF9B
:100190006D420CDD2C4480EA020281EA030382EA0C
:1001A000000083EA010180EA020281EA0303362D9E
:1001B00088BF30BD11F0004F4FEA01314FF4801C71
:1001C0004CEA113102D0404261EB410113F0004F83
:1001D0004FEA03334CEA133302D0524263EB43033A
:1001E00094EA050F00F0A780A4F10104D5F1200ED8
:1001F0000DDB02FA0EFC22FA05F2801841F1000133
:1002000003FA0EF2801843FA05F359410EE0A5F106
:1002100020050EF1200E012A03FA0EFC28BF4CF037
:10022000020C43FA05F3C01851EBE37101F00045ED
:1002300007D54FF0000EDCF1000C7EEB00006EEBFA
:100240000101B1F5801F1BD3B1F5001F0CD3490884
:100250005FEA30004FEA3C0C04F101044FEA4452DB
:1002600012F5800F80F09A80BCF1004F08BF5FEA62
:10027000500C50F1000041EB045141EA050130BD42
:100280005FEA4C0C404141EB010111F4801FA4F1E5
:100290000104E9D191F0000F04BF01460020B1FA3A
:1002A00081F308BF2033A3F10B03B3F120020CDA72
:1002B0000C3208DD02F1140CC2F10C0201FA0CF050
:1002C00021FA02F10CE002F11402D8BFC2F1200CB5
:1002D00001FA02F120FA0CFCDCBF41EA0C0190406B
:1002E000E41AA2BF01EB0451294330BD6FEA0404B4
:1002F0001F3C1CDA0C340EDC04F11404C4F120029F
:1003000020FA04F001FA02F340EA030021FA04F3B0
:1003100045EA030130BDC4F10C04C4F1200220FA07
:1003200002F001FA04F340EA0300294630BD21FA45
:1003300004F0294630BD94F0000F83F4801306BF0B
:1003400081F480110134013D4EE77FEA645C18BFFF
:100350007FEA655C29D094EA050F08BF90EA020F96
:1003600005D054EA000C04BF1946104630BD91EA8E
:10037000030F1EBF0021002030BD5FEA545C05D191
:100380004000494128BF41F0004130BD14F58004D0
:100390003CBF01F5801130BD01F0004545F0FE4144
:1003A00041F470014FF0000030BD7FEA645C1ABF79
:1003B000194610467FEA655C1CBF0B46024650EAB0
:1003C000013406BF52EA033591EA030F41F40021DC
:1003D00030BD00BF90F0000F04BF0021704730B562
:1003E0004FF4806404F132044FF000054FF0000137
:1003F00050E700BF90F0000F04BF0021704730B5F8
:100400004FF4806404F1320410F0004548BF4042CC
:100410004FF000013EE700BF42004FEAE2014FEA21
:1004200031014FEA02701FBF12F07F4393F07F4FFC
:1004300081F06051704732F07F4208BF704793F0FF
:100440007F4F04BF41F40021704730B54FF4607412
:1004500001F0004521F000411CE700BF50EA010215
:1004600008BF704730B54FF000050AE050EA0102BE
:1004700008BF704730B511F0004502D5404261EB2E
:1004800041014FF4806404F132045FEA915C3FF46F
:10049000D8AE4FF003025FEADC0C18BF03325FEA0C
:1004A000DC0C18BF033202EBDC02C2F1200300FABD
:1004B00003FC20FA02F001FA03FE40EA0E0021FAE2
:1004C00002F11444BDE600BF70B54FF0FF0C4CF4D0
:1004D000E06C1CEA11541DBF1CEA135594EA0C0F82
:1004E00095EA0C0F00F0DEF82C4481EA030621EABD
:1004F0004C5123EA4C5350EA013518BF52EA0335F8
:1005000041F4801143F4801338D0A0FB02CE4FF0A9
:100510000005E1FB02E506F00042E0FB03E54FF0D9
:100520000006E1FB03569CF0000F18BF4EF0010ED1
:10053000A4F1FF04B6F5007F64F5407404D25FEACD
:100540004E0E6D4146EB060642EAC62141EA555180
:100550004FEAC52040EA5E504FEACE2EB4F1FD0CC2
:1005600088BFBCF5E06F1ED8BEF1004F08BF5FEA40
:10057000500E50F1000041EB045170BD06F00046F2
:1005800046EA010140EA020081EA0301B4EB5C049F
:10059000C2BFD4EB0C0541EA045170BD41F4801197
:1005A0004FF0000E013C00F3AB8014F1360FDEBFBC
:1005B000002001F0004170BDC4F10004203C35DA98
:1005C0000C341BDC04F11404C4F1200500FA05F31B
:1005D00020FA04F001FA05F240EA020001F00042BC
:1005E00021F0004110EBD37021FA04F642EB060132
:1005F0005EEA430E08BF20EAD37070BDC4F10C045C
:10060000C4F1200500FA04F320FA05F001FA04F21F
:1006100040EA020001F0004110EBD37041F100010B
:100620005EEA430E08BF20EAD37070BDC4F1200516
:1006300000FA05F24EEA020E20FA04F301FA05F27E
:1006400043EA020321FA04F001F0004121FA04F226
:1006500020EA020000EBD3705EEA430E08BF20EAF6
:10066000D37070BD94F0000F0FD101F00046400030
:1006700041EB010111F4801F08BF013CF7D041EAB2
:10068000060195F0000F18BF704703F000465200B6
:1006900043EB030313F4801F08BF013DF7D043EA87
:1006A0000603704794EA0C0F0CEA135518BF95EA3D
:1006B0000C0F0CD050EA410618BF52EA4306D1D1C4
:1006C00081EA030101F000414FF0000070BD50EAE3
:1006D000410606BF1046194652EA430619D094EA6D
:1006E0000C0F02D150EA013613D195EA0C0F05D157
:1006F00052EA03361CBF104619460AD181EA0301AB
:1007000001F0004141F0FE4141F470014FF0000062
:1007100070BD41F0FE4141F4780170BD70B54FF0FD
:10072000FF0C4CF4E06C1CEA11541DBF1CEA13557D
:1007300094EA0C0F95EA0C0F00F0A7F8A4EB05045F
:1007400081EA030E52EA03354FEA013100F0888056
:100750004FEA03334FF0805545EA131343EA12631F
:100760004FEA022245EA111545EA10654FEA0026D4
:100770000EF000419D4208BF964244F1FD0404F58D
:10078000407402D25B084FEA3202B61A65EB0305E9
:100790005B084FEA32024FF480104FF4002CB6EBA6
:1007A000020E75EB030E22BFB61A754640EA0C0026
:1007B0005B084FEA3202B6EB020E75EB030E22BF66
:1007C000B61A754640EA5C005B084FEA3202B6EBA7
:1007D000020E75EB030E22BFB61A754640EA9C0066
:1007E0005B084FEA3202B6EB020E75EB030E22BF36
:1007F000B61A754640EADC0055EA060E18D04FEAF4
:10080000051545EA16754FEA06164FEAC30343EA93
:1008100052734FEAC2025FEA1C1CC0D111F4801F60
:100820000BD141EA00014FF000004FF0004CB6E759
:1008300011F4801F04BF01430020B4F1FD0C88BFF8
:10084000BCF5E06F3FF6AFAEB5EB030C04BFB6EB03
:10085000020C5FEA500C50F1000041EB045170BDF6
:100860000EF0004E4EEA113114EB5C04C2BFD4EB23
:100870000C0541EA045170BD41F480114FF0000EA7
:10088000013C90E645EA060E8DE60CEA135594EA23
:100890000C0F08BF95EA0C0F3FF43BAF94EA0C0F26
:1008A0000AD150EA01347FF434AF95EA0C0F7FF49B
:1008B00025AF104619462CE795EA0C0F06D152EAEF
:1008C00003353FF4FDAE1046194622E750EA4106D3
:1008D00018BF52EA43067FF4C5AE50EA41047FF4E4
:1008E0000DAF52EA43057FF4EBAE12E74FF0FF3C49
:1008F00006E000BF4FF0010C02E000BF4FF0010C1A
:100900004DF804CD4FEA410C7FEA6C5C4FEA430C92
:1009100018BF7FEA6C5C1BD001B050EA410C0CBFE1
:1009200052EA430C91EA030F02BF90EA020F002043
:10093000704710F1000F91EA030F58BF994208BFAA
:1009400090422CBFD8176FEAE37040F00100704767
:100950004FEA410C7FEA6C5C02D150EA013C07D1BE
:100960004FEA430C7FEA6C5CD6D152EA033CD3D009
:100970005DF8040B704700BF8446104662468C4603
:100980001946634600E000BF01B5FFF7B7FF002836
:1009900048BF10F1000F01BD4DF808EDFFF7F4FF5F
:1009A0000CBF012000205DF808FB00BF4DF808EDEA
:1009B000FFF7EAFF34BF012000205DF808FB00BF0D
:1009C0004DF808EDFFF7E0FF94BF012000205DF82F
:1009D00008FB00BF4DF808EDFFF7CEFF94BF0120E4
:1009E00000205DF808FB00BF4DF808EDFFF7C4FFDD
:1009F00034BF012000205DF808FB00BF4FEA410230
:100A000012F5001215D211D56FF47873B3EB625260
:100A100012D94FEAC12343F0004343EA505311F087
:100A2000004F23FA02F018BF404270474FF0000019
:100A3000704750EA013005D111F0004008BF6FF057
:100A4000004070474FF00000704700BF4FEA410C74
:100A50007FEA6C5C02D150EA013C0AD14FEA430CB8
:100A60007FEA6C5C02D152EA033C02D14FF00000F5
:100A700070474FF0010070472DE9F04F85B0814677
:100A80000D4614469B460E9F0F9E9DF840A09DF874
:100A90004480D1E90023CDE90223A149D1E9000135
:100AA000FFF77AFFB8B1D5E902239D49D1E90201E8
:100AB000FFF772FF78B1D4E900239A49D1E9000128
:100AC000FFF76AFF38B1D4E902239649D1E9020160
:100AD000FFF762FFA0B9944B01221A709049DDE93B
:100AE0000223C1E90023D5E90223C1E90223D4E9A5
:100AF00000238C49C1E90023D4E90223C1E9022380
:100B0000B8F1030F0BD8DFE808F002717A83DBE954
:100B10000023D4E90001FFF71FFBCDE90001824B60
:100B20001B783BB1814BDDE90012C3E900127E4B1B
:100B300000221A70BAF1000F00F0D880DDE900AB96
:100B400052465B467949D1E90001FFF705FB0446AF
:100B500021F000450022764B50465946FFF744FFEE
:100B6000002879D00022724B20462946FFF728FF43
:100B7000002856D000226E4B20462946FFF7CEFDB6
:100B800000226C4BFFF7E8FA04460D463A4633461E
:100B9000FFF79AFC02460B4620462946FFF794FCD5
:100BA00002460B465AA1D1E90001FFF7D5FA3A46B1
:100BB0003346FFF7D3FAC9E9000155A3D3E900236F
:100BC000FFF7FEFE20B152A3D3E90023C9E90023B9
:100BD0003A463346D9E90001FFF706FF002874D0F2
:100BE0003A463346C9E9002300241FE0D4E9002334
:100BF000DBE90001FFF7B0FACDE900018FE7DBE99F
:100C00000223D4E90201FFF7A7FACDE9000186E744
:100C1000D4E90223DBE90201FFF79EFACDE90001E6
:100C20007DE73A463346C9E9002301240022424BBE
:100C300038463146FFF7CEFE00284AD000223F4B0F
:100C4000DDE90001FFF7BCFE00285BD00022002395
:100C5000C9E90023032455E006F100480022344B83
:100C6000DDE90001FFF75AFD2BA3D3E90023FFF7CD
:100C700073FA04460D4602460B4638464146FFF7D6
:100C800023FC02460B4620462946FFF71DFC3A4648
:100C90003346FFF763FAC9E900011DA3D3E9002336
:100CA000FFF78EFE20B11AA3D3E90023C9E9002380
:100CB0003A463346D9E90001FFF796FE38B13A4685
:100CC0003346C9E900230224B0E70024AEE702243A
:100CD000ACE700221A4BDDE90001FFF771FE88B195
:100CE00000220023C9E9002303240BE00022154B56
:100CF000DDE90001FFF764FE30BB3A463346C9E93F
:100D000000230124204605B0BDE8F08FAFF300803A
:100D10000000000000CCA040666666666666F23F92
:100D20000008002020080020000000209003002080
:100D300000408F400000F03F0040AF4000005440B2
:100D4000000049400000244000220023C9E900239C
:100D50000324D7E710B402EBD2735B105C4221444A
:100D6000401A824203DC90FBF2F302FB13000028DE
:100D700002DB204410BC70470028B8BF4042101A64
:100D8000F7E7000001291FD0012A22D0431E022BC1
:100D900038D8244B012283F82820234B1860234A9B
:100DA000136801331360204A1168C82202FB01F264
:100DB000934230DB1B4A0023D384032182F828109E
:100DC0001A4A136001207047184B00221A60022053
:100DD0007047164A136801331360C72B08DC114BA8
:100DE000012283F8282040F6AC52DA8400207047B4
:100DF0000C4A032382F828300023D3840B4A136063
:100E000001207047074B022283F82820C0F106001A
:100E1000054B1860C3E7034B40F6AC52DA84002060
:100E2000704700BF380000204008002084030020E5
:100E3000254B5B7813F0040F3FD0234B5B7813F006
:100E4000020F3AD0204B9B7813F0100F04D01F4AAA
:100E5000537843F0080353701B4B9B7813F0400FFB
:100E600019D01A4A537843F020035370164B9B78DD
:100E700013F0200F15D0154A537843F00403537034
:100E8000114B5B7813F0010F11D0104A537843F0E7
:100E90001003537016E00D4A537823F0200353706B
:100EA000E4E70A4A537823F004035370E8E7074A5B
:100EB000537823F01003537004E0044A537803F08E
:100EC000C303537000207047D00F0020280000207B
:100ED000002309E0590019444800054A0244002152
:100EE0005180032111710133062BF3DD002070477F
:100EF00038000020034B0020D88103221A74988206
:100F00009A75704738000020F0B4002407E0E30031
:100F1000C5180B44D3E90067C5E900670134944262
:100F2000F5DBF0BC70470000F0B583B004460E4618
:100F300003287FD8DFE800F00221405F764A537B28
:100F4000917B03EB0123D17B03EB0143127C03EB89
:100F50000263724A15681D44002E6ED0012E03D024
:100F6000022E06D0002769E05B42136000273D4651
:100F700064E06B4B1F68EF1B60E0674A537C917C19
:100F800003EB0123D17C03EB0143127D03EB0263EE
:100F9000624A55681D44002E72D0012E03D0022EE5
:100FA00006D000274AE05B42536000273D4645E0FB
:100FB0005B4B9F68EF1B41E0574A9378D17803EB76
:100FC0000123117903EB0143527903EB0263534A86
:100FD00095681D44002E55D0012E03D0022E06D058
:100FE00000272BE05B42936000273D4626E04C4BF8
:100FF0001F69EF1B22E0484A9379D17903EB012363
:10100000117A03EB0143527A03EB0263434AD5683A
:101010001D44002E38D0012E03D0022E06D000270A
:101020000CE05B42D36000273D4607E03C4B9F69E4
:10103000EF1B03E000273D4600E00027022E25D0ED
:10104000384B1968384A42F82410354A42F834506F
:101050001A68364BA3FB02131B09962101FB1323CD
:10106000092B08D8012E06D0314B1B68022B30DC2F
:1010700001332F4A1360022E38D0284603B0F0BD4A
:101080000027DBE70027D9E70027D7E7002FD7D0D5
:1010900087EAE771A1EBE771224B1B68224A52F8FD
:1010A00024209A1A40F2DC5303FB02F399420CD934
:1010B000204B53F82470002304E01F4A1A440921EE
:1010C00051700133072BF8DDBAE71A4B43F824704F
:1010D000B6E7134803698268016880690090174881
:1010E00006F094F9124B00221A60C4E70D4B1A68FF
:1010F0000E4BA3FB02131B09962101FB1323092BA3
:1011000001D93D46B9E72B463A4621460C4806F040
:101110007DF93D46B1E700BF640000200C030020CC
:10112000D0070020CC0F0020C0070020B5814E1B47
:10113000A0030020B40500202C000020B4AB000860
:10114000E4AB000810B50446012819D018B10228F4
:101150002AD000202DE04FF48051012006F014F831
:1011600038B1144B01221A7741F288325A83204653
:101170001FE0104B03221A7700225A83022018E046
:101180000421012006F000F838B10A4B02221A7738
:1011900041F288325A8320460BE0064B03221A772D
:1011A00000225A83022004E0024B03221A77002215
:1011B0005A8310BD380000202DE9F04FE9B00646F3
:1011C00008900D9115460C921C460993142240A8D4
:1011D000FFF79AFE1422294618A8FFF795FE02226F
:1011E000214614A8FFF790FE0222729910A8FFF77B
:1011F0008BFE032E24D8DFE816F0040061008F0078
:10120000BD000C9BD3E900230999D1E90201FEF747
:10121000A3FF04460D4600220023FFF7C7FB00286A
:101220003CD10022002320462946FFF7DDFB0028A1
:101230003CD07E4B00221A7000237D4CCDE90E3449
:10124000089B023B5FFA83F9B9F1010F40F2C080BD
:10125000DDE91623DDE91201FEF77EFF054601F107
:101260000044DDE91423DDE91001FEF775FF0246B5
:101270000B4628462146FFF751FACDE90A014FF007
:10128000000AD046D34600230024CDE90634CDE938
:101290000434CDE90234CDE9003404E1634B01228A
:1012A0001A700023624CCDE90E34C9E75F4B02226D
:1012B0001A7000235E4CCDE90E34C1E70C9BD3E9D4
:1012C00000230999D1E90201FEF746FF04460D46C5
:1012D00000220023FFF76AFB70B90022002320469A
:1012E0002946FFF781FB78B1504B01221A70002389
:1012F0004F4CCDE90E34A3E74C4B00221A7000236B
:101300004B4CCDE90E349BE7484B02221A70002368
:10131000474CCDE90E3493E70D9BD3E9002309999F
:10132000D1E90001FEF718FF04460D460022002314
:10133000FFF73CFB70B90022002320462946FFF747
:1013400053FB78B1394B01221A700023394CCDE997
:101350000E3475E7354B00221A700023354CCDE969
:101360000E346DE7314B02221A700023314CCDE967
:101370000E3465E70D9BD3E900230999D1E90001FB
:10138000FEF7EAFE04460D4600220023FFF70EFB9F
:1013900070B90022002320462946FFF725FB78B1CB
:1013A000224B00221A700023224CCDE90E3447E76D
:1013B0001E4B01221A7000231E4CCDE90E343FE76C
:1013C0001A4B02221A7000231A4CCDE90E3437E76B
:1013D00014981599DDE91623CDE91423024601F18D
:1013E0000043CDE9162310981199DDE91223CDE9C8
:1013F0001023024601F10043CDE91223002212E03E
:10140000D30068A9CC1854F8A06C54F89C5C18A9B7
:101410000B44D3E9000144E92801304605F10041BD
:10142000C3E900010132132AEADD11E7B00500200B
:101430000000F03F0000F0BF4FEACA0668AB33443B
:1014400053E9284522462B46DDE90001FEF786FEDA
:10145000CDE9000118AB1E44C0CE32463B46DDE963
:101460000201FEF77BFECDE9020122462B46204613
:101470002946FFF729F802460B46DDE90401FEF78D
:101480006DFECDE9040132463B4620462946FFF772
:101490001BF802460B46DDE90601FEF75FFECDE9CB
:1014A00006010AF1010ABAF1130F23DCBAF1000FA9
:1014B000C2DD0AF1FF3468AB03EBC40353E9282310
:1014C00068A901EBCA0151E92801FFF765FA08B9DB
:1014D0004FF0010B18AB03EBCA0103EBC404D4E9D2
:1014E0000023D1E90001FFF757FA0028A4D14FF0FB
:1014F0000108A1E7B9F1010F40F2A3800C9BD3E9E9
:1015000000230999D1E90201FEF726FE099021F096
:10151000004ABBF1000F03D1B8F1000F00F0AA8020
:101520000022774BDDE90001FFF7F8F806460F4689
:101530000022734BDDE90201FFF7F0F8CDE900016D
:1015400000226F4BDDE90401FFF7E8F88046894689
:1015500000226B4BDDE90601FFF7E0F804460D467B
:10156000DDE9002330463946FEF7AEFF02460B4662
:1015700020462946FEF7F0FD054601F100443246BB
:101580003B4630463946FEF79FFF02460B46404633
:101590004946FEF7E1FD02460B4628462146FFF785
:1015A000BDF804460D4602460B46DDE90A89404671
:1015B0004946FEF789FF0022524BFEF7CFFD024657
:1015C0000B46FEF781FF06460F4642464B46404615
:1015D0004946FEF779FF00224A4BFEF7BFFD8046E1
:1015E000894622462B4620462946FEF76DFF0022FB
:1015F000444BFEF7B3FD02460B4640464946FEF714
:1016000063FF02460B4630463946FFF787F807F07E
:101610005DFC07F0A9FB06460F4637A3D3E900237C
:10162000DDE90E01FEF750FF32463B46FEF74CFF68
:1016300007460E46089B032B31D8DFE803F0292923
:101640004A4A099BD3E900670D9BD3E90045002274
:1016500000230C99D1E90001FEF736FF22462B4604
:10166000FEF77AFD32463B46FEF778FD099021F001
:10167000004A4EE70320244B187000220023739980
:10168000C1E90023099A53467499C1E9002312E085
:101690000022002320462946FFF788F970B93A4610
:1016A00033467399C1E90023099A53467499C1E9F5
:1016B0000023154B187869B0BDE8F08F0022002395
:1016C00038463146FFF768F90028E8D106F10046B0
:1016D000E5E70022002320462946FFF785F9002888
:1016E000DDD00022002338463146FFF755F90028A7
:1016F000D5D106F10046D2E7F8C1631ADCA54C400B
:10170000000034400000F03FB00500200000000061
:101710002DE9F04FDDB083468A46CDE90423689C6D
:101720009DF8A461002011E000EB4002D3002344A7
:10173000D3E90089C2005CA9114441E92C89D3E9AD
:10174000028908AB1344C3E9008901301328EBDD9B
:1017500058AB02935AAB0193679B0093669B08AA10
:1017600030A93046FFF728FD0746D4E904015AABFB
:10177000C3E90001AE4B1A68AE4BA3FB02431B0941
:10178000962404FB1323092B05D9032E31D8DFE857
:1017900006F01849617807F051FA04460D4658AB37
:1017A000D3E9000107F04AFAFFF728F980462046FE
:1017B0002946FFF723F9424601469F4805F026FED9
:1017C000E3E7DDE908236699D1E90201FEF7C4FCED
:1017D00004460D4600220023FFF7E8F8002867D1F1
:1017E0000022002320462946FFF7FEF8002861D09A
:1017F000002758ABD3E900450022904B20462946EC
:10180000FFF7F2F8002800F05F81012F00F0B880A8
:10181000002F5DD0022F00F01D8100242646A04637
:1018200025466CE1DDE908236699D1E90201FEF75E
:1018300093FC04460D4600220023FFF7B7F800286A
:101840003AD10022002320462946FFF7CDF8A8B35D
:101850000127CEE7DDE930236699D1E90001FEF7E3
:101860007BFC04460D4600220023FFF79FF838BB9F
:101870000022002320462946FFF7B6F810B30127BF
:10188000B7E7DDE930236699D1E90001FEF764FC92
:1018900004460D4600220023FFF788F8A0B9002275
:1018A000002320462946FFF79FF878B10027A0E7DC
:1018B00001279EE702279CE700279AE7022798E77F
:1018C000002796E7022794E7012792E7022790E78F
:1018D00022462B4620462946FEF740FC8046894694
:1018E0000022574BFFF76CF878B90022554B404661
:1018F0004946FFF76FF870BB0022534B204629463C
:10190000FEF7E2FD80460D4602E04FF000084F4D25
:101910005AAB18CB1846214600220023CDE9060118
:10192000FFF762F868B10022494BDDE90601FEF7D6
:10193000CBFD02460B4640462946FEF70FFC80468B
:101940000D4600220023DDE90601FFF72FF830B92C
:1019500000242646D3E04FF000083A4DD8E7002295
:101960003B4BDDE90601FEF7AFFD02460B46404664
:101970002946FEF7F1FB80460D4600242646BEE0D0
:1019800022462B4620462946FEF7E8FB804689463C
:1019900000222B4BFFF714F878B90022294B404660
:1019A0004946FFF717F880BB0022274B20462946FF
:1019B000FEF78AFD04460E4601E00024234E5AAB92
:1019C000D3E900890022002340464946FEF7EEFF96
:1019D000F0B90022002340464946FFF705F80028E9
:1019E00000F0F68000221A4B40464946FEF76CFD97
:1019F000024621F0004320463146FEF7ADFB044687
:101A00000E464FF00008454679E000240D4ED6E71B
:101A100000220F4B40464946FEF756FD024621F094
:101A2000004320463146FEF799FB04460E46D0E7B8
:101A3000CC0F0020B5814E1BBCAC00080000144048
:101A40000000594000C082400000084000C06240D1
:101A500000405F405AABD3E90045002200232046F6
:101A60002946FEF7C1FF80B16DA3D3E900232046CC
:101A70002946FEF729FD6CA3D3E90023FEF76EFB90
:101A800080460D460024264639E0002200232046E9
:101A90002946FEF78BFF20B900242646A04625469E
:101AA0002DE05FA3D3E9002320462946FEF70CFD75
:101AB0005DA3D3E90023FEF751FB044621F0004665
:101AC0004FF0000845461AE05AABD3E90045002222
:101AD000002320462946FEF787FF002859D050A34F
:101AE000D3E9002320462946FEF7EEFC4EA3D3E9B6
:101AF0000023FEF733FB80460D46002426460022D5
:101B00004B4B404625F00041FEF76EFF50B10022DE
:101B1000002340462946FEF767FF00285CD04FF0BF
:101B20000008434D0022424B204626F00041FEF7BC
:101B30005BFF48B10022002320463146FEF754FFE8
:101B400000284DD000243A4E00223A4BDDE9040132
:101B5000FEF7E4FDCDE9040142462B46FEF7B4FC56
:101B6000CBE9000122463346DDE90401FEF7ACFC77
:101B7000CAE90001304B1A68304BA3FB02131B0962
:101B8000962101FB1323092B2DD900205DB0BDE860
:101B9000F08F0022002320462946FEF707FF20B9D8
:101BA00000242646A0462546A9E71DA3D3E9002325
:101BB00020462946FEF788FC1BA3D3E90023FEF745
:101BC000CDFA044621F000464FF00008454696E75E
:101BD0004FF00008454692E74FF00008184DA1E786
:101BE0000024174EB0E75AABD3E9000107F026F8FE
:101BF0008046894658ABD3E9000107F01FF8FEF78D
:101C0000FDFE044640464946FEF7F8FE3B462246A6
:101C100001460C4805F0FAFBB7E700BFAFF30080C0
:101C20000000000000C062400000000000C0524000
:101C300000908A4000408F40CC0F0020B5814E1BA1
:101C400000908AC0DCAC000810B50221002005F02D
:101C50009BFA40B1084B00241C8103229A7205F0C4
:101C60009DFD204610BD044B4FF461721A81012284
:101C70009A724FF0FF30F5E73800002010B50121CF
:101C8000002005F081FA40B1084B00245C8003225B
:101C90001A7105F07DFD204610BD044B4FF46172B2
:101CA0005A8001221A714FF0FF30F5E7380000200A
:101CB0002DE9F04FB9B082460F46A94C4822214683
:101CC00026A808F0E9FE902204F1480102A808F0D5
:101CD000E3FE00240094019400E00134082C1EDC93
:101CE0009BA3D3E9002338A901EBC40555E93601CC
:101CF000FEF7EAFB45E93601022CEEDD00209949AA
:101D000038AB03EBC40343E9360104F1090338AAF5
:101D100002EBC3030020944943E93601DDE71FB914
:101D200002230193009CBDE0012F06D0022FF9D1C0
:101D30000123009302230193F4E701230193F1E7C8
:101D400005F01AFD0646B6E005F01CFD0646B2E0B9
:101D5000002DB8BF6D42C5F50065C2E004EBC403B9
:101D60001A440CEBC20252E9368900284EDD404687
:101D7000494606F063FFFEF741FE04EB44035A00B8
:101D80007A4B134458800022002340464946FEF710
:101D900003FE80B304EB44035A00744B1344032244
:101DA0001A71734B01221A55002F58D1704B1B78B2
:101DB000002B66D06E4B5B78002B40F099804FF083
:101DC000000B60E00132082ACFDC80EAE071A1EB71
:101DD000E07104EBC40313440DF1E00C0CEB83033E
:101DE00053F8483C9942B9DA082AEBD14FF0000881
:101DF0004FF00009E6E704EB44035A005B4B134441
:101E000001221A715A4B00221A55CDE74046494625
:101E100006F014FFFEF7F2FD04EB44035A00534BA7
:101E2000134458800022002340464946FEF7B4FD83
:101E300050B104EB44035A004C4B134403221A7173
:101E40004B4B01221A55AFE704EB44035A00474BB2
:101E5000134402221A71464B00221A55A4E7012F9F
:101E600008D0022F0FD1424B5B78002B46D04FF0A9
:101E7000010B08E03E4B1B78002B3CD04FF0010BD0
:101E800001E04FF0000B3B4B1A683B4BA3FB0213E6
:101E90001B09962101FB1323092B02D88CB3012CBB
:101EA00040D00134019BA3424DDD002C3FF448AFEC
:101EB000012C3FF449AF7342C6F30A05C3F30A038A
:101EC00058BF5D425046FEF795FA23A3D3E900239D
:101ED000FEF7FAFA06F0B2FEFEF790FD002DFFF6CF
:101EE00037AF4FF400622946FEF734FF00226AE75D
:101EF0004FF0010BC7E74FF0000BC4E74FF0000BAA
:101F0000C1E72846FEF776FA00221C4BFEF7DCFA02
:101F100006F094FEFEF772FD52460146184805F0A1
:101F200075FABEE72846FEF765FA0022134BFEF766
:101F3000CBFA06F083FEFEF761FD524601461148DA
:101F400005F064FAADE7584639B0BDE8F08F00BF40
:101F5000713D0AD7A370ED3F176CC1166CC11640D6
:101F6000C8AA000800B08D4000208C403800002036
:101F7000A8030020CC0F0020B5814E1B0080C63F77
:101F80004CAD000868AD00082DE970430024012C19
:101F90006FDC3D4D284605F0A0FE0646284605F0BC
:101FA0008BFE74B1012C67D1404203255EB9374ADC
:101FB0006B00581941001144002008714880013419
:101FC000E5E70225F2E7002E35DD1CB1012C2AD011
:101FD00001204FE005EB45035A002C4B134401222E
:101FE0001A71002EB8BF76429C2303FB06F603FB52
:101FF00000F0FEF7FFF922A3D3E90023FEF764FA0D
:10200000804689463046FEF7F5F942464B46FEF7D4
:10201000A5F8FEF7F3FC42F20F73984220DC00288B
:1020200020DA00201EE005EB45035A00174B13444D
:1020300002221A71D5E71CB1012C09D0012019E048
:1020400005EB45035A00114B134402221A71C8E7ED
:1020500005EB45035A000D4B134401221A71C0E7EA
:1020600042F20F7005EB45056A00084B1344588097
:10207000A5E70020BDE870830120FBE7AFF30080F7
:102080009A9999999999D93FD00F0020380000204A
:102090002DE9F04F9DB001294FD01E460446002A7D
:1020A00071D1B94B1B78002B34D1B84BA0A1D1E929
:1020B0000001C3E90001A0A1D1E90001C3E90201C7
:1020C0009FA1D1E90001C3E904019FA1D1E9000169
:1020D000C3E906010026AE4FC3E9086700200021CE
:1020E000C3E90A01C3E90C67C3E90E0198A1D1E96C
:1020F0000001C3E9100198A1D1E90001C3E912016F
:1021000097A7D7E90067C3E91467C3E916019E4B97
:1021100001221A70002542E0CA008318002400251D
:10212000C3E900459B4B1344C3E900450131022933
:10213000F2DD00201DB0BDE8F08F0021F7E7D7E900
:102140000001944B03EBC503C3E900010135022DE7
:10215000EFDC735D002BF9D0EB00269AD7182344EF
:10216000D7E90001C3E90001012DE8D87EA3D3E936
:102170000023D7E90001FEF7A7F9864B03EBC5035F
:10218000C3E90001E2E70025E1E702212846FEF766
:10219000CBFE1CAB03EB850343F8580C0135032D34
:1021A000F3DD002722E005EB8702784B03EBC20347
:1021B000D3E900891CAB03EB850353F8580CFEF7F9
:1021C00019F902460B4640464946FEF77DF902469C
:1021D0000B461CA901EBC70656E90601FDF7BEFF39
:1021E00046E906010135032DDDDD0137022F08DC4C
:1021F000002000211CAB03EBC70343E906010025C7
:10220000F1E7644BD3E90467DDE91A233046394628
:10221000FDF7A4FFCDE9140155A3D3E9002330460F
:102220003946FEF751F954A3D3E90023FEF74CF9E0
:1022300053A3D3E9002306F0E9FD814688464EA367
:10224000D3E90023484628F00041FEF7C3FB80B1E4
:102250000022002348464146FEF7BCFB00285CD024
:1022600047A3D3E9002348464146FDF775FF814661
:102270008846484DD5E90067DDE916AB484641463A
:1022800006F090FCCDE9000102460B465046594647
:10229000FEF71AF902460B4630463946FDF75EFF57
:1022A000CDE90401DDE918674846414606F014FD12
:1022B00002460B46CDE9022330463946FEF704F9C3
:1022C00002460B46DDE90401FDF748FFCDE91001A8
:1022D000D5E90289DDE9022350465946FEF7F4F8B4
:1022E00002460B4640464946FDF736FF8046894682
:1022F00032463B46DDE90001FEF7E6F802460B46B2
:1023000040464946FDF72AFFCDE91201032210A9F4
:102310002846FEF7F9FD00254BE019A3D3E9002379
:1023200048464146FDF71AFF81468846A1E700BFAF
:102330000A5D4647DB93ACBF7362E6D02773E1BF0B
:102340000A5D4647DB93AC3F1A3B335EB019DD3F75
:10235000CD7E4F03344AD33F4A1B3DA0F550CF3FBB
:10236000CD7E4F03344AD3BF04B6B7E795294B401F
:10237000682FA1BD84F6F23E182D4454FB2109407C
:10238000182D4454FB2119409E03002020030020F7
:102390000000E0BFA80700201CAB03EBC50638A374
:1023A000D3E9002356E90C01FEF78EF846E9120145
:1023B0000135012DF0DD34A3D3E90023DDE914015B
:1023C000FEF782F8CDE90E010022314B06F01EFD2A
:1023D00006460D4602460B46CDE90E2300222D4B44
:1023E000304625F00041FEF7F5FA78B100220023CF
:1023F00030462946FEF7EEFA002835D00022244B5D
:1024000030462946FDF7A8FECDE90E0103220AA9B0
:102410002046FEF779FD204B1A68204BA3FB0213E0
:102420001B09962101FB1323092B3FF682AED4E949
:102430000067D4E902890022194BD4E90401FEF7B0
:1024400043F8FEF7DBFA054640464946FEF7D6FA62
:10245000044630463946FEF7D1FA2B46224601465D
:10246000104804F0D3FF64E60022094B30462946A9
:10247000FDF774FECDE90E01C8E700BFAFF30080A1
:10248000D221337F7CD9923FABAAAAAAAAAA6A3FDB
:102490000080764000806640CC0F0020B5814E1B46
:1024A0000000594020AD000830B591B005460C46FB
:1024B00000220023CDE90A23CDE90C23CDE90E2328
:1024C000CDE90423CDE90623CDE9082304AB00932D
:1024D00003AB002211460AA8FFF7DAFD012C11D048
:1024E00000231EE002EB4201CB002B440020002120
:1024F000C3E90001C3E90201C3E904010132132A5F
:10250000F0DD15E00022FAE75C1C04EB4402D00089
:1025100003EB4303D900032229442844FEF7F4FCCB
:102520002346122BF0DD03220AA92846FEF7ECFC15
:10253000002011B030BD00002DE9F04F8DB0824673
:102540008B46CDE90423D0E9004522462B46744949
:10255000D1E90001FEF720FAB8B1DAE902237049A7
:10256000D1E90201FEF718FA78B1DBE900236D49E1
:10257000D1E90001FEF710FA38B1DBE9022369491D
:10258000D1E90201FEF708FA58BB674B01221A7025
:10259000634BC3E90045DAE90289C3E90289DBE953
:1025A0000001604BC3E90001DBE90267C3E9026790
:1025B00022462B46FDF7D0FD04460D46002200239F
:1025C000FEF7EAF9F0B142464B4630463946FDF790
:1025D000C3FD00220023FEF7FDF978B1534B022220
:1025E0001A70514B1B78002B00F091804F4B1B78D9
:1025F000032B28D8DFE803F0556C21404B4B032216
:102600001A70EEE742464B4630463946FDF7A4FDC8
:1026100000220023FEF7C0F90028E2D000220023A8
:1026200020462946FEF7D6F918B1404B00221A7011
:10263000D7E73E4B01221A70D3E73D4B1B786BB1B5
:102640003B4B5B788BB13A4B1B78012B40F03A81C6
:10265000374B5B78012B52D0042413E10121B420C5
:10266000FFF726FB324B1870EAE70221AF20FFF795
:102670001FFB2F4B5870E6E72D4B1B7853B12C4BAB
:102680005B78002BDFD10221AF20FFF711FB284B35
:102690005870D8E70121B420FFF70AFB244B1870CB
:1026A000EDE7234B1B785BB1214B5B78002BCAD144
:1026B000022140F20910FFF7FBFA1D4B5870C2E7E8
:1026C00001214FF48770FFF7F3FA194B1870EBE70D
:1026D000174B1B785BB1164B5B78002BB3D10221F3
:1026E00040F20910FFF7E4FA114B5870ABE70121F3
:1026F0004FF48770FFF7DCFA0D4B1870EBE70023FF
:10270000094A13700A4A137053700424BAE0074B45
:102710001B78032B16D8DFE803F0828D0D7900BFFC
:10272000F00700201008002098030020A4030020D8
:102730003C0800200121B320FFF7BAFA0221B020A3
:10274000FFF7B6FA624D00212846FFF7ADFE614E55
:10275000337803939DF858300293DDE90434CDE9D2
:1027600000342B465A4651460AA8FEF785F904461E
:10277000337803930295CDF804B0CDF800A0DDE9DD
:102780000A2306A908A8FEF7C3FFDDE90A89DDE9E7
:10279000082340464946FDF7E1FC06460F46DDE9C1
:1027A000062340464946FDF7D9FC8046894600226B
:1027B000002330463946FEF7F9F8002845D10022BB
:1027C000002340464946FEF7F1F8002840D13EA3D9
:1027D000D3E9002330463946FEF706F910B13AA78F
:1027E000D7E9006738A3D3E9002340464946FEF7FE
:1027F000FBF818B10FF2D009D9E90089354B1B78E5
:10280000032B3DD8DFE803F0422929420121B420FF
:10281000FFF74EFA0221AF20FFF74AFA92E70121B3
:102820004FF48770FFF744FA022140F20910FFF7D6
:102830003FFA87E701214FF48770FFF739FA022149
:1028400040F20910FFF734FA7CE700260027B6E7CC
:102850004FF000084FF00009B9E71F4D01232B741A
:102860000223AB753046394606F0E8F9FEF7C6F8A4
:10287000E8814046494606F0E1F9FEF7BFF8A88234
:10288000032C17D020460DB0BDE8F08F124D022367
:102890002B740123AB754046494606F0CFF9FEF78D
:1028A000ADF8E8813046394606F0C8F9FEF7A6F8DB
:1028B000A882E5E7084B0022DA819A8203221A7483
:1028C0009A75DFE70424DDE7000000008087C3403D
:1028D000D0030020A40300203800002008B501F038
:1028E000EDFA002008BD0000F0B58BB0824B9B785C
:1028F00013F0400F02D1814B01221A707E4B9A785F
:102900005A789B7813F0100F02D17D4B01221A7078
:10291000794B9B7803F00303032B01D0764B9B7814
:10292000754B9B7803F00303032B01D0724B9B780C
:10293000714B9B7803F00C030C2B04D06E4B9B78EF
:1029400013F0040F02D16F4B01221A706A4B9B786F
:1029500003F00C030C2B04D0674B9B7813F0080F8B
:1029600002D1694B01221A70634B5A785A785A780F
:102970005A789B7803F00C030C2B11D05E4B9B789C
:1029800013F0040F0CD05F4B1B784BB15F4B1B78DF
:102990000A2B2DD001335D4A13705A4B00221A7056
:1029A000554B9B7803F00C030C2B10D0524B9B78AB
:1029B00013F0080F0BD0544B1B7843B1534B1B78CB
:1029C000D3B9524B0A221A704F4B00221A704F4B48
:1029D0001B780A2B16D8DFE813F02608A70038006A
:1029E0001500150015001500150015001300350021
:1029F000464B00221A70D0E7013B444A1370E3E7CC
:102A0000FEF766FA414B1B78012B41F09B813A4B54
:102A10005B7813F0080F05D0374B5B7813F0020F8B
:102A200041F09D813A4B1A683A4BA3FB02131B09F4
:102A3000962101FB1323092B41F2AE810023184696
:102A40000BB0F0BDFEF744FADCE72B4B9B7813F09C
:102A5000400F20D0294B1B78EBB101232E4A137075
:102A60002E4A13702E4B00221A70234B9B7813F0C2
:102A7000200F06D00023284A1370284A1370284AD2
:102A80001370254B1B78C3B9234A1370234A137064
:102A9000234A1370B6E7184B9B7813F0100FE4D05D
:102AA000174B1B78002BE0D001231B4A13701B4AE5
:102AB000002111701A4A1370D7E7184B1B7873B9AD
:102AC000174B1B788BB9174B1B78022B9AD100231D
:102AD000114A1370114A1370114A137092E70020C3
:102AE000FEF730FB0F4B1870EDE70120FEF72AFBD5
:102AF0000C4B1870E7E700BFD00F002080030020C8
:102B000078080020300800209D03002002000020EB
:102B1000CC0F0020B5814E1B9A0300209C0300209F
:102B2000990300209B0300208F4B5B7813F0080F64
:102B300004D08D4B5B7813F0020F59D18A4B9B78F0
:102B400013F0400F70D0894B1B78002B6CD0884B52
:102B500001221A600023874A1360874A1360874A5C
:102B60001360874A1360874A13607F4B9B7813F08A
:102B7000200F13D00023844A1360844A1360844AD0
:102B8000012111707A4A13607A4A13607A4A1360FD
:102B90007A4A13607A4A13607A4A1360744B1B684E
:102BA0007BB9744B1B6863B9734B1B684BB9734B90
:102BB0001B6833B9724B1B681BB9724B1B68002B27
:102BC0004AD06F4B1B68002B66D0724B1D680C2DD2
:102BD00062D8DFE815F050009E006601AB01EC0101
:102BE0005B02A002E10221036603D40314045D0426
:102BF00001210020FEF798F901210846FEF794F91B
:102C000001210220FEF790F901210320FEF78CF943
:102C10006148009009AB00220121FFF739FA012138
:102C20005E48FFF741FC89E74F4B9B7813F0100F8C
:102C30009BD05B4B1B78002B97D000234C4A136032
:102C40004C4A13604C4A13604C4A13604C4A0121B1
:102C500011604C4A136088E700254B4B1D604B4BBD
:102C60001D60434B1D604A4B01221A70FEF730F97C
:102C7000484B1D60A5E7464B1B7803BB012301931E
:102C8000009335A3D3E9002346494748FFF754FC96
:102C9000464B1870032834D0354B1B68002B3FF48B
:102CA000B1AE3C4B1D68062D3FF6ACAEDFE815F02B
:102CB000300498042E057605B805270669063648BF
:102CC000009009AB00221146FFF7E2F936490022D5
:102CD0000023C1E90023C1E902233249C1E90023ED
:102CE0001FA3D3E90023C1E9022304E0304B2B44A6
:102CF00003225A700135072DF8DD254B00221A708A
:102D0000BCE7234B01221A70224A13680133136077
:102D1000C2E71F4B1B78002B4ED11C4A13680133AE
:102D20001360952B6DDDF92B40F3A780B3F5AF7FD2
:102D300072DA0121F020FEF7BBFF0221EB20FEF743
:102D4000B7FF1C4B02221A7401229A7540F6AC524E
:102D5000DA819A8260E000BF000000000094B14078
:102D60000000000000E8AC40D00F002080030020ED
:102D700034080020680800206C080020700800203B
:102D80007408002038080020B403002088030020C5
:102D900001000020AC030020B8030020C80500207B
:102DA0007808002058080020480800200300002070
:102DB0002C00002038000020A74D009509AB002210
:102DC00011462846FFF764F9A44B00200021C3E90F
:102DD0000001D5E90201C3E90201A14B0026A14F80
:102DE000C3E90067C3E90201002304E09E4A1A44D4
:102DF000022151700133072BF8DD9C4B00221A7021
:102E00008BE70123019300930022964B944993484A
:102E1000FFF792FB964B1870964B1B68B3F5AF7F8C
:102E2000FFF63AAF924B04221A700026914B1E60B7
:102E3000FEF760F801258DF824508DF825608DF897
:102E4000265000228C4BCDE9022379A3D3E900233D
:102E5000CDE9042300220023CDE9062302AB009331
:102E600009AB2A4631467C48FFF712F97F4B1D70AB
:102E7000824A13682B4413600EE701214FF49670C9
:102E8000FEF716FF022140F22710FEF711FF7C4BE0
:102E900002221A7401229A7540F6AC52DA819A82A3
:102EA000BAE7724B1B78ABB9012301930093002260
:102EB000744B6B496948FFF73FFB6D4B1870032853
:102EC0007FF4EAAE694B01221A706C4A1368013331
:102ED0001360E1E6604D009509AB002211462846DB
:102EE000FFF7D6F8684A537843F0080353705B4BFA
:102EF00051A1D1E90001C3E90001D5E90201C3E90B
:102F00000201574B4EA7D7E90067C3E90067C3E941
:102F10000201002304E0544A1A4404215170013391
:102F2000072BF8DD514B00221A70BDE74F4B1B7881
:102F3000B3B901230193009343A3D3E90023484984
:102F40004648FFF7F9FA4A4B187003287FF4A4AEFD
:102F5000464B01221A70494A1368013313609BE6FD
:102F60003D4D009509AB002211462846FFF790F829
:102F7000D5E90001394BC3E900012DA7D7E9006766
:102F8000C3E90267364BC3E9000131A1D1E9000171
:102F9000C3E90201002304E0334A1A4405215170B9
:102FA0000133072BF8DD314B00221A70C1E72F4B9C
:102FB0001B78ABB90123019300930022294B2849C8
:102FC0002648FFF7B9FA2A4B187003287FF464AE3D
:102FD000264B01221A70294A1368013313605BE6FD
:102FE0001D4D009509AB002211462846FFF750F809
:102FF000D5E90001194BC3E9000115A7D7E900671E
:10300000C3E90267164BC3E9000109A1D1E9000138
:10301000C3E90201002304E0134A1A440621517057
:103020000133072BF8DD114B00221A70C2E700BFF5
:103030000000000000E8AC400000000000C06C4050
:103040000000000000589BC0000000000070A74076
:10305000000000000030B140B80300204808002004
:103060005808002000409F402C0000200100002054
:10307000030000208803002000006940AC0300200A
:10308000380000200040AF40280000209E4B1B78F5
:10309000ABB901230193009300229C4B9C499D48AE
:1030A000FFF74AFA9C4B187003287FF4F5AD964B56
:1030B00001221A70994A136801331360ECE5984DA8
:1030C000009509AB002211462846FEF7E1FF954A1C
:1030D000537843F0080353708E4B7FA1D1E9000170
:1030E000C3E90001D5E90201C3E90201884B7CA7CD
:1030F000D7E90067C3E90067C3E90201002304E0E0
:10310000894A1A44042151700133072BF8DD7E4BA4
:1031100000221A70BDE77C4B1B78B3B901230193E1
:10312000009371A3D3E9002379497A48FFF704FAA1
:10313000794B187003287FF4AFAD734B01221A70DE
:10314000764A136801331360A6E5754D009509AB07
:10315000002211462846FEF79BFFD5E900016D4B82
:10316000C3E9000162A7D7E90067C3E90267684BBA
:10317000C3E9000160A1D1E90001C3E90201002314
:1031800004E0694A1A44052151700133072BF8DD28
:103190005D4B00221A70C1E75B4B1B78ABB9012372
:1031A000019300930022614B59495A48FFF7C4F933
:1031B000594B187003287FF46FAD534B01221A70DE
:1031C000564A13680133136066E5554D009509AB07
:1031D000002211462846FEF75BFFD5E900014D4B62
:1031E000C3E9000144A7D7E90067C3E90267484B78
:1031F000C3E900013EA1D1E90001C3E902010023B6
:1032000004E0494A1A44062151700133072BF8DDC6
:103210003D4B00221A70C2E73B4B1B78ABB9012330
:10322000019300930022394B39493A48FFF784F95A
:10323000394B187003287FF42FAD334B01221A70DD
:10324000364A13680133136026E5354D009509AB06
:10325000002211462846FEF71BFF324A537843F0FE
:10326000080353702B4B1EA1D1E90001C3E90001F3
:10327000D5E90201C3E90201254B21A7D7E900677F
:10328000C3E90067C3E90201002304E0264A1A44A7
:10329000042151700133072BF8DD1B4B00221A70FB
:1032A000BDE7194B1B78002B42D1012301930093FA
:1032B0000DA3D3E9002316491648FFF73DF9164B35
:1032C000187003287FF4E8AC0F4B01221A70134AE0
:1032D000136801331360DFE40000000000589BC056
:1032E0000000000000ECA3C0000000000070A74038
:1032F0000000000000E8AC40000000000030B140D9
:10330000000000000064A9C0010000200040AF40A0
:10331000580800204808002003000020AC030020CB
:10332000B8030020280000202C00002000409F400F
:10333000A14D009509AB002211462846FEF7A8FED4
:10334000D5E900019D4BC3E9000191A7D7E90067CA
:10335000C3E902679A4BC3E900018FA1D1E90001DB
:10336000C3E90201002304E0964A1A440521517082
:103370000133072BF8DD944B00221A7095E7924B2E
:103380001B78ABB901230193009300228F4B8C492A
:103390008A48FFF7D1F88E4B187003287FF47CAC75
:1033A000894B01221A708B4A13680133136073E44E
:1033B000814D009509AB002211462846FEF768FEB4
:1033C000D5E900017D4BC3E9000173A7D7E9006788
:1033D000C3E902677A4BC3E900016DA1D1E900019D
:1033E000C3E90201002304E0764A1A440621517021
:1033F0000133072BF8DD744B00221A70C2E7724BC1
:103400001B78002B2ED0744A136801331360632B92
:103410007FF742AC684D009509AB00221146284663
:10342000FEF736FE654B5EA1D1E90001C3E900015C
:10343000D5E90201C3E90201614B00260027C3E977
:103440000067C3E90201002304E05E4A1A440F2129
:1034500051700133072BF8DD00235F4A13605A4A8D
:10346000137019E401230193009300225B4B54492C
:103470005248FFF761F8564B187003287FF40CACE4
:10348000514B01221A70534A13680133136003E44D
:103490004D4B1B78B3B901230193009300224F4B8E
:1034A00047494648FFF748F8494B187003287FF40E
:1034B000F3AB454B01221A70464A1368013313607F
:1034C000FFF7EABB3C4D009509AB002211462846A8
:1034D000FEF7DEFDD5E90001384BC3E900012CA75A
:1034E000D7E90067C3E90267354BC3E90001002053
:1034F0000021C3E90201002304E0324A1A440E21EC
:1035000051700133072BF8DD2F4B00221A70C2E7F0
:103510002D4B1B78BBB901230193009322A3D3E960
:10352000002327492548FFF707F8294B187003287F
:103530007FF468AA244B01221A70264A13680133CB
:103540001360FFF75FBA1C48009009AB00221146D8
:10355000FEF79EFD194900220023C1E90023C1E9BD
:1035600002231749C1E9002311A3D3E90023C1E9CC
:10357000022304E0134B2B4403225A700135072D1C
:10358000F8DD114B00221A70C5E700BFAFF30080D1
:103590000000000000E8AC40000000000030B14036
:1035A000000000000064A9C0000000000094B140C9
:1035B000000000000044B640B80300204808002086
:1035C000580800202C0000200100002000409F40EF
:1035D00003000020AC030020B40300200040AF40F3
:1035E000A74B1B78E3B9A74A136801331360952BE7
:1035F0003BDDF92B76DDB3F5AF7F41DA0121F02019
:10360000FEF756FB0221EB20FEF752FB9E4B0222F7
:103610001A7401229A7540F6AC52DA819A822FE030
:103620009A4D009509AB002211462846FEF730FD61
:10363000974B00200021C3E90001D5E90201C3E94D
:103640000201944B0026944FC3E90067C3E90201CD
:10365000002304E0914A1A44022151700133072BE0
:10366000F8DD874B00221A70BDE701230193009318
:103670000022894B87498648FEF75EFF884B187009
:10368000804B1B68B3F5AF7FFFF6BCA9844B0422C7
:103690001A7000267B4B1E60FDF72CFC01258DF86F
:1036A00024508DF825508DF8265000227D4BCDE911
:1036B000022369A3D3E90023CDE9042300220023D8
:1036C000CDE9062302AB009309AB2A4631466F4889
:1036D000FEF7DEFC6A4B1D70734A13682B441360BF
:1036E000FFF790B901214FF49670FEF7E1FA02213D
:1036F00040F22710FEF7DCFA634B02221A74012213
:103700009A7540F6AC52DA819A82B9E75C4B1B7825
:10371000C3B9012301930023009351A3D3E90023EC
:103720005C495B48FEF708FF5D4B187003287FF487
:1037300069A9534B01221A705B4A13680133136065
:10374000FFF760B9514D009509AB0022114628469C
:10375000FEF79EFC554A537843F0080353704C4BD8
:1037600041A1D1E90001C3E90001D5E90201C3E9A2
:103770000201484B3EA7D7E90067C3E90067C3E9E8
:103780000201002304E0454A1A4404215170013328
:10379000072BF8DD3A4B00221A70BAE7384B1B783A
:1037A000BBB90123019300932DA3D3E90023394929
:1037B0003748FEF7C1FE3A4B187003287FF422A960
:1037C0002F4B01221A70384A136801331360FFF738
:1037D00019B92E4D009509AB002211462846FEF777
:1037E00057FCD5E900012A4BC3E900011AA7D7E924
:1037F0000067C3E90267274BC3E900011EA1D1E9B5
:103800000001C3E90201002304E0244A1A4405210F
:1038100051700133072BF8DD194B00221A70C0E7F5
:10382000174B1B78002B43D10123019300930CA36A
:10383000D3E9002317491648FEF77EFE184B18708F
:1038400003287FF4DFA80E4B01221A70164A136872
:1038500001331360FFF7D6B8000000000044B64003
:10386000000000000070A7400000000000C06C4095
:103870000000000000589BC0000000000038B84065
:10388000010000208803002038000020B803002039
:10389000480800205808002000409F402C000020CD
:1038A0000300002000006940AC0300202800002035
:1038B000A94D009509AB002211462846FEF7E8FB0A
:1038C000D5E90001A54BC3E9000195A7D7E9006739
:1038D000C3E90267A24BC3E9000193A1D1E900014A
:1038E000C3E90201002304E09E4A1A4406215170F4
:1038F0000133072BF8DD9C4B00221A7094E79A4B9A
:103900001B78BBB901230193009389A3D3E900235A
:1039100093499248FEF710FE944B187003287FF4E9
:1039200071A8914B01221A70914A136801331360F8
:10393000FFF768B8884D009509AB0022114628466C
:10394000FEF7A6FBD5E90001844BC3E9000176A789
:10395000D7E90067C3E90267814BC3E9000176A19B
:10396000D1E90001C3E90201002304E07D4A1A44C1
:103970000E2151700133072BF8DD7B4B00221A70AA
:10398000C0E7794B1B78002B34D07A4A1368013397
:103990001360632B7FF736A86F4D009509AB0022AB
:1039A00011462846FEF774FB6C4E65A3D3E900234D
:1039B000C6E900230022704BD5E90201FCF7CEFBDB
:1039C000C6E90201664B60A7D7E90067C3E9006753
:1039D000C3E90201002304E0624A1A440F21517036
:1039E0000133072BF8DD0023624A13605E4A13702F
:1039F000FFF708B801230193002300934CA3D3E9F8
:103A0000002357495548FEF797FD584B1870032877
:103A10007EF4F8AF544B01221A70554A13680133F3
:103A20001360FEF7EFBF554C204604F067F980EABB
:103A3000E075A5EBE075204604F060F90028B8BFFA
:103A4000404200FB05F5204604F069F980EAE07683
:103A5000A6EBE076204604F062F90028B8BF4042A9
:103A600000FB0650FCF7C6FC05F030FA0022444B80
:103A7000FCF79CFF00282ED0424B1C68414B1C6079
:103A8000414B1B78002B00F0B080404B1B78002B83
:103A900000F0B4803D4B1B7823B13B4B1B78002BCF
:103AA00040F0B580FEF770FA034600287EF4C7AFF9
:103AB000324B5B7813F0080F00F0B4802F4B5B782B
:103AC00013F0100F00F0AE80314B032283F8222058
:103AD00000221A84B2E0294804F010F9002859DBCA
:103AE000264C204604F01BF9FCF784FC06460F46E2
:103AF000204604F003F9FCF77DFC02460B463046F5
:103B00003946FCF70BFE04F0BFFE11A3D3E90023F6
:103B1000FCF7DAFCFCF772FFC0F58774AEE700BF74
:103B2000000000000038B840000000000044B6402B
:103B3000000000000070A7400000000000D4B74063
:103B40000000000000589BC00000000000F4AAC064
:103B500046DF617EDCA54C40B80300204808002009
:103B6000580800202C000020010000200300002045
:103B7000AC030020B403002000004940D00F002017
:103B800000804640B00300208D0300208C030020FD
:103B9000380000209E4C204604F0C1F8FCF72AFCB7
:103BA00006460F46204604F0A9F8FCF723FC02461F
:103BB0000B4630463946FCF7B1FD04F065FE92A392
:103BC000D3E90023FCF780FC02460B46104603F1C4
:103BD0000041FCF713FF041E04DBC4F58774C4F531
:103BE000B4744BE7C4F58774F9E7FEF72DF80028A5
:103BF0007FF44BAF874B01221A7046E7FEF73EF881
:103C000000287FF447AF844B01221A7042E701215C
:103C100004F1B400FEF74CF8022104F1AF00FEF706
:103C200047F83FE77A4B5B7813F0080F34D07B4BB3
:103C3000012283F8222040F6B8321A84744B5B7854
:103C400013F0020F04D0724B5B7813F0040F37D1DE
:103C50006F4B5B7813F0020F36D16D4B5B7813F02E
:103C6000040F35D00120FDF76DFA694B5B7813F036
:103C7000080F45D0664B5B7813F0100F40D0644BB3
:103C80009B7813F0400F27D0644B012283F8282043
:103C900040F6AC52DA8439E05D4B5B7813F0100FDC
:103CA00007D05E4B022283F8222040F6B8321A84F5
:103CB000C4E75A4B032283F8222000221A84BDE76E
:103CC0000220FDF73FFAD0E70020FDF73BFACCE7F2
:103CD0000220FDF737FAC8E74D4B9B7813F0200F11
:103CE00007D04E4B022283F8282040F6AC52DA84EB
:103CF0000CE04A4B032283F828200022DA8405E0F6
:103D0000464B032283F828200022DA84404B9B781C
:103D100013F0400F0BD0424B1B78012B0AD001222D
:103D200000210846FDF72EF83D4B187002E03C4B91
:103D300000221A70FDF77CF8034600283EF462AEBC
:103D4000FEF77DBE3748009009AB00221146FEF712
:103D50009FF9034600283EF45AAEFEF770BE0121DB
:103D60000020FDF7E1F801210846FDF7DDF801210B
:103D70000220FDF7D9F801210320FDF7D5F82948E5
:103D8000009009AB00220121FEF782F901212648AB
:103D9000FEF78AFBFEF746BE244B1968244803F061
:103DA00035FB244B1A78244B53F82210234803F098
:103DB0002DFB234B1A78234B53F82210224803F093
:103DC00025FB2146214803F021FB4FF480510120BF
:103DD00003F0DAF968B91E4803F018FB042101204A
:103DE00003F0D2F948B11B4803F010FB0023FEF7A3
:103DF00026BE194803F00AFBF0E7184803F006FB5B
:103E00000023FEF71CBE00BF46DF617EDCA54C40F0
:103E1000D00F00208D0300208C03002038000020EC
:103E200079080020B8030020C8050020CC0F00202E
:103E3000FCAB000802000020A0AE00080CAC00089B
:103E40000300002008AD00081CAC000834AC0008DA
:103E50004CAC0008A0AC000868AC000884AC0008BA
:103E6000FEE7000008B54FF4A2720249024806F0CE
:103E700013FE08BDCCAE00087C080020002209E03B
:103E8000930003F1006303F5FE331968094B43F80F
:103E9000221001320C2AF3DD002307E0064A52F813
:103EA0002320044951F8231011600133082BF5DD5C
:103EB000704700BFC00900200400002008B5FFF7CC
:103EC000D1FFFFF7DBFF08BD00B583B01C4B9A693B
:103ED00042F001029A619B6903F001030193019B87
:103EE000032000F0F1FA002211466FF00B0000F001
:103EF00009FB002211466FF00A0000F003FB0022CC
:103F000011466FF0090000F0FDFA002211466FF033
:103F1000040000F0F7FA002211466FF0030000F0F1
:103F2000F1FA002211466FF0010000F0EBFA0022D6
:103F300011464FF0FF3000F0E5FA03B05DF804FBE6
:103F400000100240F0B589B003685E4A934205D084
:103F500005465D4A934255D009B0F0BD5B4B9A6966
:103F600042F008029A619B6903F008030093009BEA
:103F7000544A1368C3F30E0313604FF44073049361
:103F80001123059302230793514C04A9204600F006
:103F900073FDE36843F44073E3604D4B9B6803F4A7
:103FA0004073B3F5407FF8D1494AD36823F4407396
:103FB000D360474B9B6813F4407FFAD14FF44073B2
:103FC0000493122305930323079304A9404800F0A8
:103FD00053FD404A536843F0020353603B4BDA6998
:103FE00042F40012DA61DB6903F400130193019BD0
:103FF000344B1A6842F400421A601A68C2F30E0287
:104000001A60A9E74FF44063049312230593032336
:10401000079304A92E4800F02FFD2C4BDA6942F4D7
:104020008002DA61DA6902F480020292029A5A6925
:1040300042F001025A615B6903F001030393039BA1
:10404000254E264B336000247460B4608027F760EF
:1040500034617461B461F461304600F0F9FA2E63A2
:1040600075621F4E1F4B336010237360B460F7609E
:1040700034617461B461F461304600F0E9FAEE62D3
:104080007562012221460E2000F03CFA0E2000F05D
:104090007FFA012221460F2000F034FA0F2000F0B1
:1040A00077FA22462146212000F02CFA212000F048
:1040B0006FFA22462146222000F024FA222000F046
:1040C00067FA49E7005400400058004000100240E1
:1040D000000C014000000140080A00205800024086
:1040E000400A00204400024000B587B003681B4A24
:1040F000934205D01A4A93421BD007B05DF804FBE7
:10410000184BDA6942F00202DA61DB6903F002035C
:104110000093009BC023029300230393049302A9FE
:10412000114800F0A9FC114A536843F440635360FE
:10413000E3E70C4BDA6942F00402DA61DB6903F071
:1041400004030193019BC023029300230393049370
:1041500002A9074800F090FCCFE700BF0004004030
:104160000008004000100240001001400000014023
:10417000000C0140F0B58DB00368724A934209D03B
:104180000446714A93422FD0704A934200F08680D1
:104190000DB0F0BD6E4B9A6942F480429A619A6903
:1041A00002F480420192019A9A6942F004029A61F3
:1041B0009B6903F004030293029B4FF4007308937E
:1041C0000223099303230B93624C08A9204600F0B5
:1041D00053FC4FF480630893002309930A9308A9C2
:1041E000204600F049FCD3E7594EF36943F400330D
:1041F000F361F36903F400330393039BB36943F062
:104200000403B361B36903F004030493049B042320
:1042100008930223099303230B934E4F08A93846B2
:1042200000F02AFC08230893002509950A9508A99F
:10423000384600F021FC736943F001037361736930
:1042400003F001030593059B434E444B3360102755
:104250007760B5608023F36035617561B561F561A4
:10426000304600F0F5F926637462012229461120D8
:1042700000F048F9112000F08BF92A46294638460B
:1042800000F040F9384600F083F901222946262043
:1042900000F038F9262000F07BF979E72C4BDA6939
:1042A00042F48022DA61DA6902F480220692069AE8
:1042B0009A6942F010029A619B6903F01003079318
:1042C000079B4FF4806308930223099303230B9306
:1042D000234D08A9284600F0CFFB4FF40063089354
:1042E000002609960A9608A9284600F0C5FB1D4A33
:1042F000536823F0300343F0100353601A4D1B4BF7
:104300002B606E60AE608023EB602E616E61AE61EB
:104310004FF40053EB61284600F09AF965636C6234
:10432000324631460D2000F0EDF80D2000F030F956
:1043300001223146272000F0E5F8272000F028F977
:1043400026E700BF0038014000440040004800401C
:104350000010024000080140B00A00208000024026
:104360000010014000000140780A002030000240A7
:104370007047FEE7FEE7FEE7FEE7704770477047CD
:1043800008B500F085F800F04EF9024A13680133D1
:10439000136008BDCC0F002008B5024B186B00F06D
:1043A00033FA08BD0002002008B5024B586B00F03C
:1043B0002BFA08BD4002002008B5024802F0D9FDE2
:1043C00008BD00BF4002002008B5024802F0D1FD40
:1043D00008BD00BF0002002008B5024BD86A00F0FB
:1043E00013FA08BD3801002008B5024B186B00F025
:1043F0000BFA08BD380100200F4B1A6842F0010289
:104400001A6059680D4A0A405A601A6822F084728C
:1044100022F480321A601A6822F480221A605A68E4
:1044200022F4FE025A604FF41F029A60044B4FF0D0
:1044300000629A60704700BF001002400000FFF861
:1044400000ED00E010B5044601F026FF064BA3FB8B
:104450000030800900F0B2F8002221464FF0FF3012
:1044600000F050F8002010BDD34D621008B5074A87
:10447000136843F010031360032000F025F80020B8
:10448000FFF7E0FFFFF720FD002008BD00200240FD
:10449000024A136801331360704700BFE80A002026
:1044A000014B1868704700BFE80A002010B582B0C1
:1044B0000190FFF7F5FF0446FFF7F2FF001B019B99
:1044C0009842F9D302B010BD10B50446C31E042BA8
:1044D0000FD80A4AD36823F4E0631B041B0C2402A0
:1044E00004F4E064234343F0BF6343F40033D36038
:1044F00010BDBA210248FFF7B3FCEAE700ED00E087
:1045000028B0000870B505460C4616460F2A25D877
:104510000F2C28D81B4BDB68C3F30223C3F107021F
:10452000042A28BF0422191D062921D9033B4FF074
:10453000FF3101FA02F224EA02049C4001FA03F37B
:1045400026EA03063443002D14DB2401E4B205F10E
:10455000604505F5614585F8004370BDD2210A48E4
:10456000FFF77EFCD4E7D3210748FFF779FCD1E7BA
:104570000023DCE705F00F052401E4B2034B5C5592
:10458000EBE700BF00ED00E028B0000814ED00E00C
:1045900010B5041E08DB04F01F02640901239340D8
:1045A000044A42F8243010BDE6210348FFF758FCC6
:1045B000F1E700BF00E100E028B000080138B0F1E9
:1045C000807F0AD2064B5860064AF02182F82310F9
:1045D0000020986007221A6070470120704700BFD2
:1045E00010E000E000ED00E010B50446042800D023
:1045F00038B9042C0BD0094A136823F00403136064
:1046000010BD4FF4DF710648FFF72AFCF1E7034ABB
:10461000136843F004031360F2E700BF10E000E00A
:1046200028B00008704708B5FFF7FCFF08BD10B4BC
:10463000046863604368102B05D0036899600368C1
:10464000DA6010BC704703689A600368D960F8E7C5
:10465000002800F0928010B504460368484A93424F
:1046600015D01432934212D0143293420FD0143228
:1046700093420CD01432934209D01432934206D0A4
:104680001432934203D0B5213E48FFF7E9FB63683B
:1046900023B1102B02D0B3F5804F4BD1A368402B30
:1046A00001D0002B4BD1E368802B01D0002B4BD1E4
:1046B00023692BB1B3F5807F02D0B3F5007F48D1D9
:1046C00063692BB1B3F5806F02D0B3F5006F45D1AC
:1046D000A3690BB1202B46D1E36943B1B3F5805FE9
:1046E00005D0B3F5005F02D0B3F5405F40D194F838
:1046F00021300BB984F82030022384F8213021685E
:104700000A6822F47F5222F030026368A0680343F3
:10471000E06803432069034360690343A0690343DE
:10472000E069034313430B6000206063012384F8B6
:10473000213010BDB6211348FFF792FBAEE7B72139
:104740001048FFF78DFBAEE7B8210E48FFF788FB56
:10475000AEE7B9210B48FFF783FBB1E7BA2109485F
:10476000FFF77EFBB4E7BB210648FFF779FBB3E711
:10477000BC210448FFF774FBB9E70120704700BF74
:104780000800024060B00008F8B590F82040012C05
:1047900035D01D4616460F460446012380F82030CA
:1047A000022380F821306A1E4FF6FE739A4220D809
:1047B0002068036823F0010303602B463246394624
:1047C0002046FFF734FF2268136843F002031360AA
:1047D0002268136843F0040313602268136843F0EF
:1047E000080313602268136843F00103136000207C
:1047F000F8BD40F261110348FFF732FBD8E7022011
:10480000F6E700BF60B0000810B50446984B1A6880
:10481000036898498B4214D014318B4232D0143142
:104820008B4231D014318B4231D014318B4231D094
:1048300014318B4202D04FF0006103E04FF40001CD
:1048400000E008210A423CD01A6812F0080F38D064
:104850001A6822F008021A602368864A93421FD021
:104860001432934245D01432934244D014329342CE
:1048700044D01432934244D0143293420DD04FF0BE
:1048800000620EE08021DDE74FF40061DAE74FF4CB
:104890000041D7E74FF40021D4E74FF4000200E0D5
:1048A0000822734B5A60636B43F001036363042374
:1048B00084F82130002384F82030236B0BB120468C
:1048C00098476B4B1A6823686A498B421FD0143192
:1048D0008B4241D014318B4240D014318B4240D0B6
:1048E00014318B4240D014318B420DD04FF0806197
:1048F0000EE08022D5E74FF40062D2E74FF4004289
:10490000CFE74FF40022CCE74FF4800100E0042110
:104910000A4239D01A6812F0040F35D01A6812F022
:10492000200F03D11A6822F004021A602368514A4A
:1049300093421FD0143293423ED0143293423DD062
:10494000143293423DD0143293423DD014329342FC
:104950000DD04FF080620EE04021D9E74FF4806126
:10496000D6E74FF48041D3E74FF48021D0E74FF4EE
:10497000800200E004223E4B5A60112384F821306B
:10498000E36A0BB120469847394B1A6823683949C6
:104990008B421FD014318B4241D014318B4240D016
:1049A00014318B4240D014318B4240D014318B42B1
:1049B0000DD04FF000710EE04022DCE74FF4806232
:1049C000D9E74FF48042D6E74FF48022D3E74FF483
:1049D000001100E002210A423ED01A6812F0020FD4
:1049E0003AD01A6812F0200F03D11A6822F002029E
:1049F0001A6023681F4A93421FD0143293422CD06E
:104A0000143293422BD0143293422BD0143293425F
:104A10002BD0143293420DD04FF000720EE02021C3
:104A2000D9E74FF40071D6E74FF40051D3E74FF4C4
:104A30000031D0E74FF4001200E002220C4B5A6024
:104A4000636B6363012384F82130002384F82030F2
:104A5000A36A0BB12046984710BD2022EEE74FF421
:104A60000072EBE74FF40052E8E74FF40032E5E75D
:104A700000000240080002402DE9F04383B0804668
:104A80000F46B54B984213D003F5806398420FD080
:104A900003F5806398420BD003F58063984207D0FA
:104AA00003F58063984203D0CF21AC48FFF7D8F9D3
:104AB0003B882BB37B68012B1ED9112B1CD0022BFA
:104AC0001AD0122B18D0A64A934215D002F58012A4
:104AD000934211D002F5801293420DD0A2F5F81244
:104AE000934209D002F58012934205D002F580125C
:104AF000934201D0032B08D14FF000094E46DDE070
:104B0000D0219648FFF7ACF9D4E7D1219348FFF7BD
:104B1000A7F9F1E7002B5ED0012B05D1FB68013B23
:104B2000022B65D8D7F80C90FF2C00F296804046F7
:104B3000FF2C00F29580B20003680F21914023EA18
:104B4000010309FA02F2134303607B6813F0805FEC
:104B500000F0B380834B9A6942F001029A619B692D
:104B600003F001030193019BB208911C7E4B53F8A3
:104B7000210006F0030399000F238B4020EA030075
:104B8000754B984572D003F58063984500F0CD8051
:104B900003F58063984500F0CA8003F5806398456B
:104BA00062D0042363E0714A934214D00BD9704A57
:104BB000934210D002F5803293420CD0A2F58012BD
:104BC0009342B1D107E0A2F58012934203D002F5DF
:104BD00080329342A8D1BB68022B2DD8BB68002B32
:104BE00038D0012B2ED0C8F814504FF008099BE79D
:104BF000E7215A48FFF734F994E7EE215748FFF7C9
:104C00002FF98EE0FB68013B022B03D8FB6803F110
:104C1000080989E7F5215148FFF722F9F6E7FB6813
:104C2000013B022B03D8FB6803F10C097CE7FC2154
:104C30004A48FFF715F9F6E740F209114748FFF730
:104C40000FF9CBE7C8F810504FF008096CE74FF0A8
:104C5000000969E74FF0040966E708F1040067E717
:104C6000A6F10802920067E7032300E000238B40CF
:104C7000034302323C4941F822307B6813F4803F01
:104C800057D03C4A1368234313607B6813F4003FFA
:104C900055D0384A5368234353607B6813F4801F10
:104CA00053D0344A9368234393607B6813F4001F06
:104CB00062D0304AD3681C43D46001360F2E61D8CD
:104CC0000125B5403C682C40A542F6D1224B9845C1
:104CD00013D003F5806398450FD003F580639845A2
:104CE0000BD003F58063984507D003F580639845A2
:104CF00003D0DF211948FFF7B3F87B68122B8ED061
:104D00003FF651AF022B3FF47DAF7FF603AF032B8D
:104D10009DD0112B7FF408AFFB68013B022B3FF6BF
:104D20006CAFFB6803F10409FEE601239FE7022351
:104D30009DE7104A136823EA04031360A5E70D4AB0
:104D4000536823EA04035360A7E70A4A936823EAF7
:104D500004039360A9E700BF0008014098B0000871
:104D6000000011100010024000000140000021105E
:104D70000000311000040140044AD36823EA04040F
:104D8000D4609AE703B0BDE8F08300BF000401409F
:104D900038B505460C4621B1AB681C4207D100204E
:104DA00038BD4FF4E2710348FFF75AF8F4E70120E9
:104DB000F6E700BF98B0000870B5064615460C46E9
:104DC00029B1012D09D875B92404346170BD4FF49F
:104DD000F2710648FFF744F8F3E740F2E5110348A3
:104DE000FFF73EF8EFE73461F0E700BF98B0000846
:104DF0004368124A934209D85800B1FBF0F0C0F35F
:104E00000B03032B00D970470420704782685AB9FE
:104E100003EB4300B1FBF0F040F40040C0F30B03A0
:104E2000002BF0D10120EEE703EB830000EB8000C4
:104E3000B1FBF0F040F44040F0E700BFA086010075
:104E400003685A6912F4806F0DD05A6922F48062A7
:104E50005A6104238363202380F83530002380F8CF
:104E6000343001207047002070472DE9F04106469C
:104E70000C4690461D46FFF713FB0746B8F1000F9E
:104E80001AD043E025B1FFF70BFBC01BA84213D992
:104E9000202386F83530002386F83430032019E0CB
:104EA00033685B6924EA03039BB2003318BF012314
:104EB0007BB1B5F1FF3FE5D1C4F30743012BEFD040
:104EC00033689B6924EA03039BB2003318BF0123B4
:104ED000EEE70020BDE8F08125B1FFF7E1FAC01B45
:104EE000A84213D9202386F83530002386F83430C1
:104EF0000320EFE733685B6924EA03039BB2B3FA4C
:104F000083F35B097BB1B5F1FF3FE5D1C4F3074300
:104F1000012BEFD033689B6924EA03039BB2B3FAF9
:104F200083F35B09EEE70020D4E7F8B504460D46AD
:104F30001646FFF7B5FA074631E01A6842F40072E8
:104F40001A602268536923F4806353610423A363C6
:104F5000202384F83530002384F8343001202CE0FD
:104F600026B1FFF79DFAC01BB04218D9202384F860
:104F70003530002384F8343003201EE023685B6959
:104F800025EA03039BB2003318BF0123A3B12368B2
:104F90005A6912F4806FD0D1B6F1FF3FE0D1C5F36A
:104FA0000743012BEAD023689B6925EA03039BB2E0
:104FB000003318BF0123E9E70020F8BD70B50446AF
:104FC0000D4616460268136843F480731360334637
:104FD00000224FF00111FFF748FF48BB2369B3F5EA
:104FE000804F0FD1236805F0FE051D61324614493C
:104FF0002046FFF79AFF0346D8B1A36B042B1CD1C0
:10500000012316E0EB11226803F0060343F0F003DE
:10501000136132460B492046FFF787FF20B1A36B8F
:10502000042B08D1012304E02368EDB21D61DDE704
:105030000323184670BD0323FBE70323F9E700BFF2
:105040000200010008000100F0B583B004460D46DF
:1050500016460268136843F480631360026813689D
:1050600043F480731360334600224FF00111FFF7C1
:10507000FCFE00284CD12369B3F5804F11D1236881
:1050800045F00105EDB21D61324627492046FFF784
:105090004CFF034600283CD0A36B042B42D10123D4
:1050A00037E0EF1107F00607236847F0F0021A61B6
:1050B00032461E492046FFF738FF20B1A36B042B70
:1050C0002AD1012325E02368EDB21D61324616493D
:1050D0002046FFF72AFF20B1A36B042B1ED101232A
:1050E00017E023685A6901929A690192019A1A6835
:1050F00042F480721A60334600224FF001112046BC
:10510000FFF7B3FE60B9236847F0F1071F61BBE703
:105110000323184603B0F0BD0323FAE70323F8E79F
:105120000323F6E70323F4E702000100080001006F
:1051300070B504460D46FFF7B3F9064623685B6970
:1051400013F0800F18D12046FFF77AFEB0B9B5F101
:10515000FF3FF3D025B1FFF7A3F9801BA842EDD99B
:10516000A36B43F02003A363202384F8353000238E
:1051700084F83430032000E0002070BD0120FCE7FB
:1051800070B504460D46FFF78BF9064623685B6948
:1051900013F0040F18D12046FFF752FEB0B9B5F155
:1051A000FF3FF3D025B1FFF77BF9801BA842EDD973
:1051B000A36B43F02003A363202384F8353000233E
:1051C00084F83430032000E0002070BD0120FCE7AB
:1051D000002800F0B38038B504460368584A93426B
:1051E00008D002F58062934204D04FF4A57155486F
:1051F000FEF736FE6368013B534A93425ED8A368CC
:1052000013B1B3F5804F5FD1E36823F47F7323F0CC
:105210000303002B5ED12369B3F5804F02D0B3F5B1
:10522000404F5DD16369012B60D8A36933F0FE0361
:1052300062D1E3690BB1402B64D1236A0BB1802B9F
:1052400066D194F83530002B68D0242384F83530AB
:105250002268136823F00103136001F023F801466C
:105260003A4BA3FB00239B0C226853606068384ACA
:10527000904259D801332268136225682046FFF70F
:10528000B7FDE861E369216A22680B431360236973
:10529000E16822680B4393606369A16922680B434C
:1052A000D3602268136843F0010313600020A063F9
:1052B000202384F8353084F8360038BD40F24B1195
:1052C0002048FEF7CDFD9AE74FF4A6711D48FEF782
:1052D000C7FD99E740F24D111A48FEF7C1FD9AE764
:1052E0004FF4A7711748FEF7BBFD9BE740F24F1143
:1052F0001448FEF7B5FD98E74FF4A8711148FEF782
:10530000AFFD96E740F251110E48FEF7A9FD94E774
:105310004FF4A9710B48FEF7A3FD92E784F83430EF
:105320002046FEF70FFE90E74FF4967202FB03F360
:10533000084AA2FB03239B0901339CE70120704725
:1053400000540040D0B000087F1A060083DE1B43E3
:10535000A0860100D34D6210F0B583B01E4690F8D0
:105360003530DBB2202B7FD104460F461546002A8C
:105370007ED00EB9012378E042F210730122414938
:10538000FFF773FD002875D194F83430012B73D0EA
:10539000012384F834302268136823F40063136017
:1053A000212384F83530102384F836300023A3639A
:1053B000089A39462046FFF701FE60B1A36B042B23
:1053C00004D1002384F8343001234EE0002384F814
:1053D0003430032349E023685A6901929B690193A1
:1053E000019B0BE0A36B042B48D12268136843F4A4
:1053F00000731360012338E01E461546C6B10899B4
:105400002046FFF795FE0028ECD16A1C2368297816
:105410001961731E9BB22168486910F0040FEBD02C
:10542000002BE9D0AA1C6B780B61023EB3B2E3E714
:1054300008992046FFF7A4FE034648B1A36B042B4E
:105440001ED12268136843F40073136001230CE03B
:1054500021680A6842F400720A60202284F835202C
:10546000002284F8342000E00223184603B0F0BD87
:105470000123FAE70223F8E70223F6E70323F4E720
:105480000323F2E702001000F0B583B090F8354036
:10549000E4B2202C57D1002A59D00BB9012353E094
:1054A0001E4615460F46044642F2107301222B4950
:1054B000FFF7DBFC00284CD194F83430012B4AD0A4
:1054C000012384F834302268136823F400631360E6
:1054D000212384F83530102384F836300023A36369
:1054E000656226856685E36A1D4A9A62E36A1D4AFB
:1054F0001A632268334610322946E06AFFF744F9FE
:10550000232239462046FFF759FD034660B1A36BBD
:10551000042B04D1002384F83430012314E0002349
:1055200084F8343003230FE021684A6842F40062B3
:105530004A6022685169019192690192019A0022A0
:1055400084F8342000E00223184603B0F0BD0123A4
:10555000FAE70223F8E70223F6E700BF0200100093
:105560008D56000863560008F0B583B090F83540BA
:10557000E4B2202C64D1002A66D00BB9012260E08D
:105580001E4615460F46044642F210730122314969
:10559000FFF76BFC002859D194F83430012B57D019
:1055A000012384F834302268136823F40063136005
:1055B000222384F83530102384F836300023A36387
:1055C000656226856685236B234A9A62236B234A8C
:1055D0001A63216833462A461031206BFFF7D4F84E
:1055E000232239462046FFF72FFD024660B1A36B08
:1055F000042B04D1002384F83430012221E000235D
:1056000084F8343003221CE0012E13D021684B684B
:1056100043F480534B6021684B6843F400634B6054
:105620002368596901919B690193019B002384F8C8
:10563000343006E021680B6823F480630B60EAE7EE
:105640000222104603B0F0BD0122FAE70222F8E779
:105650000222F6E702001000E15600086356000837
:10566000704708B5406A0268136823F480631360CA
:1056700000234385202280F8352080F83630836B64
:1056800043F010038363FFF7EBFF08BD10B5446AD6
:105690002323002211492046FFF7E7FB18B1A36B33
:1056A00043F02003A3632268136843F4007313607C
:1056B0002268536823F4006353600023638520222B
:1056C00084F8352084F83630A36B1BB9204603F0EC
:1056D000A7F810BD2046FFF7C3FFFAE7040001005A
:1056E00008B5406A0268136823F480631360026897
:1056F000136843F4007313600268536823F4805303
:1057000053600268536823F40063536000234385A9
:10571000202280F8352080F83630836B13B903F0EF
:1057200085F808BDFFF79CFFFBE77047002844D0D1
:1057300010B504460268234B9A4203D0A6212248A2
:10574000FEF78EFB6368062B28D8A368B3F5805F4D
:1057500029D22368DA6812F0010F03D0DB6813F056
:10576000020F2CD1637B1BB302236373236845F2C2
:1057700055521A602268536823F0070361680B438F
:1057800053602268936823F47F6323F00F03A168BA
:105790000B43936001236373002010BDA7210A48C7
:1057A000FEF75EFBD1E7A8210748FEF759FBD0E7DB
:1057B00023732046FFF7B9FFD6E701207047012089
:1057C000EBE700BF0030004008B10008037B012B6D
:1057D0000FD00223437303684CF6CC421A6003686F
:1057E0004AF6AA221A600123437300230373184662
:1057F00070470220704738B5037B012B1FD0044649
:105800000123037302234373FEF74AFE0546236810
:10581000DA6812F0020F0AD0FEF742FE401BB0F524
:105820007A7FF4D9032060730023237306E04AF6DD
:10583000AA221A60012363730020207338BD02205E
:10584000FCE7000030B583B0044688B3236813B189
:1058500013F00F0F32D0236813F0010F56D0636896
:105860002BB1B3F5803F02D0B3F5A02F2CD1C64B9E
:105870005B6803F00C03042B31D0C34B5B6803F06F
:105880000C03082B26D06368B3F5803F00F08380BB
:10589000002B40F0A58003F1804303F504331A6820
:1058A00022F480321A601A6822F480221A6077E0AB
:1058B0004FF48771B548FEF7D3FAC7E740F20F11EE
:1058C000B248FEF7CDFAC6E740F21511AF48FEF731
:1058D000C7FACCE7AC4B5B6813F4803FD3D04FF4EE
:1058E000003393FAA3F3A84B1A684FF4003393FAEA
:1058F000A3F3B3FA83F303F01F0322FA03F313F0C5
:10590000010F03D06368002B00F02083236813F09D
:10591000020F00F0D3802369012B00F299806369A4
:105920001F2B00F29B80984B5B6813F00C0F00F06C
:10593000A180954B5B6803F00C03082B00F094806A
:105940002369002B00F0F880012292FAA2F3B3FA47
:1059500083F39B0003F1844303F584031A60FEF78D
:105960009FFD0546022393FAA3F3874B1A6802238F
:1059700093FAA3F3B3FA83F303F01F0322FA03F3BA
:1059800013F0010F40F0C980FEF78AFD401B02288A
:10599000E8D90320E1E27C4A136843F480331360C2
:1059A0006368002B36D0FEF77BFD05464FF40033CD
:1059B00093FAA3F3744B1A684FF4003393FAA3F3EA
:1059C000B3FA83F303F01F0322FA03F313F0010F7A
:1059D0009CD1FEF765FD401B6428E7D90320BCE29B
:1059E000B3F5A02F09D0684B1A6822F480321A60F0
:1059F0001A6822F480221A60D2E703F18043A3F5EB
:105A00003C331A6842F480221A601A6842F48032E9
:105A10001A60C5E7FEF744FD05464FF4003393FADC
:105A2000A3F3594B1A684FF4003393FAA3F3B3FA74
:105A300083F303F01F0322FA03F313F0010F3FF483
:105A400065AFFEF72DFD401B6428E6D9032084E2F4
:105A500040F249114D48FEF703FA60E74FF4A57193
:105A60004A48FEF7FDF95EE7474B5B6813F4803F59
:105A70007FF466AF022393FAA3F3434B1A68022321
:105A800093FAA3F3B3FA83F303F01F0322FA03F3A9
:105A900013F0010F04D02369012B01D001205CE237
:105AA0003948036823F0F8036169F82292FAA2F2F8
:105AB000B2FA82F201FA02F213430360236813F090
:105AC000080F70D0A369012B64D8A369002B00F0E4
:105AD0009280012292FAA2F3B3FA83F32C4941F89F
