:020000040800F2
:10000000005000207D890008394500083B45000864
:100010003D4500083F45000841450008000000003C
:100020000000000000000000000000004345000840
:100030004545000800000000474500084945000804
:10004000C5890008C5890008C5890008C589000858
:10005000C5890008C5890008C5890008C589000848
:10006000C5890008C5890008C5890008C589000838
:10007000C589000871450008A1450008B145000880
:10008000C589000861450008C5890008C5890008C0
:10009000C5890008C5890008C5890008C589000808
:1000A000C5890008A1740008C5890008C589000831
:1000B000B1740008C5890008C5890008C589000811
:1000C000C5890008C5890008C5890008C5890008D8
:1000D000C5890008C58900089145000881450008C8
:1000E000C5890008C5890008C5890008000000000E
:1000F0000000000000000000000000000000000000
:0C01000000000000000000005FF808F1A3
:1001100010B5054C237833B9044B13B10448AFF341
:1001200000800123237010BDF802002000000000B1
:1001300098A6000808B5034B1BB103490348AFF369
:10014000008008BD00000000FC02002098A6000806
:1001500081F0004102E000BF83F0004330B54FEA78
:1001600041044FEA430594EA050F08BF90EA020FE5
:100170001FBF54EA000C55EA020C7FEA645C7FEA78
:10018000655C00F0E2804FEA5454D4EB5555B8BF9B
:100190006D420CDD2C4480EA020281EA030382EA0C
:1001A000000083EA010180EA020281EA0303362D9E
:1001B00088BF30BD11F0004F4FEA01314FF4801C71
:1001C0004CEA113102D0404261EB410113F0004F83
:1001D0004FEA03334CEA133302D0524263EB43033A
:1001E00094EA050F00F0A780A4F10104D5F1200ED8
:1001F0000DDB02FA0EFC22FA05F2801841F1000133
:1002000003FA0EF2801843FA05F359410EE0A5F106
:1002100020050EF1200E012A03FA0EFC28BF4CF037
:10022000020C43FA05F3C01851EBE37101F00045ED
:1002300007D54FF0000EDCF1000C7EEB00006EEBFA
:100240000101B1F5801F1BD3B1F5001F0CD3490884
:100250005FEA30004FEA3C0C04F101044FEA4452DB
:1002600012F5800F80F09A80BCF1004F08BF5FEA62
:10027000500C50F1000041EB045141EA050130BD42
:100280005FEA4C0C404141EB010111F4801FA4F1E5
:100290000104E9D191F0000F04BF01460020B1FA3A
:1002A00081F308BF2033A3F10B03B3F120020CDA72
:1002B0000C3208DD02F1140CC2F10C0201FA0CF050
:1002C00021FA02F10CE002F11402D8BFC2F1200CB5
:1002D00001FA02F120FA0CFCDCBF41EA0C0190406B
:1002E000E41AA2BF01EB0451294330BD6FEA0404B4
:1002F0001F3C1CDA0C340EDC04F11404C4F120029F
:1003000020FA04F001FA02F340EA030021FA04F3B0
:1003100045EA030130BDC4F10C04C4F1200220FA07
:1003200002F001FA04F340EA0300294630BD21FA45
:1003300004F0294630BD94F0000F83F4801306BF0B
:1003400081F480110134013D4EE77FEA645C18BFFF
:100350007FEA655C29D094EA050F08BF90EA020F96
:1003600005D054EA000C04BF1946104630BD91EA8E
:10037000030F1EBF0021002030BD5FEA545C05D191
:100380004000494128BF41F0004130BD14F58004D0
:100390003CBF01F5801130BD01F0004545F0FE4144
:1003A00041F470014FF0000030BD7FEA645C1ABF79
:1003B000194610467FEA655C1CBF0B46024650EAB0
:1003C000013406BF52EA033591EA030F41F40021DC
:1003D00030BD00BF90F0000F04BF0021704730B562
:1003E0004FF4806404F132044FF000054FF0000137
:1003F00050E700BF90F0000F04BF0021704730B5F8
:100400004FF4806404F1320410F0004548BF4042CC
:100410004FF000013EE700BF42004FEAE2014FEA21
:1004200031014FEA02701FBF12F07F4393F07F4FFC
:1004300081F06051704732F07F4208BF704793F0FF
:100440007F4F04BF41F40021704730B54FF4607412
:1004500001F0004521F000411CE700BF50EA010215
:1004600008BF704730B54FF000050AE050EA0102BE
:1004700008BF704730B511F0004502D5404261EB2E
:1004800041014FF4806404F132045FEA915C3FF46F
:10049000D8AE4FF003025FEADC0C18BF03325FEA0C
:1004A000DC0C18BF033202EBDC02C2F1200300FABD
:1004B00003FC20FA02F001FA03FE40EA0E0021FAE2
:1004C00002F11444BDE600BF70B54FF0FF0C4CF4D0
:1004D000E06C1CEA11541DBF1CEA135594EA0C0F82
:1004E00095EA0C0F00F0DEF82C4481EA030621EABD
:1004F0004C5123EA4C5350EA013518BF52EA0335F8
:1005000041F4801143F4801338D0A0FB02CE4FF0A9
:100510000005E1FB02E506F00042E0FB03E54FF0D9
:100520000006E1FB03569CF0000F18BF4EF0010ED1
:10053000A4F1FF04B6F5007F64F5407404D25FEACD
:100540004E0E6D4146EB060642EAC62141EA555180
:100550004FEAC52040EA5E504FEACE2EB4F1FD0CC2
:1005600088BFBCF5E06F1ED8BEF1004F08BF5FEA40
:10057000500E50F1000041EB045170BD06F00046F2
:1005800046EA010140EA020081EA0301B4EB5C049F
:10059000C2BFD4EB0C0541EA045170BD41F4801197
:1005A0004FF0000E013C00F3AB8014F1360FDEBFBC
:1005B000002001F0004170BDC4F10004203C35DA98
:1005C0000C341BDC04F11404C4F1200500FA05F31B
:1005D00020FA04F001FA05F240EA020001F00042BC
:1005E00021F0004110EBD37021FA04F642EB060132
:1005F0005EEA430E08BF20EAD37070BDC4F10C045C
:10060000C4F1200500FA04F320FA05F001FA04F21F
:1006100040EA020001F0004110EBD37041F100010B
:100620005EEA430E08BF20EAD37070BDC4F1200516
:1006300000FA05F24EEA020E20FA04F301FA05F27E
:1006400043EA020321FA04F001F0004121FA04F226
:1006500020EA020000EBD3705EEA430E08BF20EAF6
:10066000D37070BD94F0000F0FD101F00046400030
:1006700041EB010111F4801F08BF013CF7D041EAB2
:10068000060195F0000F18BF704703F000465200B6
:1006900043EB030313F4801F08BF013DF7D043EA87
:1006A0000603704794EA0C0F0CEA135518BF95EA3D
:1006B0000C0F0CD050EA410618BF52EA4306D1D1C4
:1006C00081EA030101F000414FF0000070BD50EAE3
:1006D000410606BF1046194652EA430619D094EA6D
:1006E0000C0F02D150EA013613D195EA0C0F05D157
:1006F00052EA03361CBF104619460AD181EA0301AB
:1007000001F0004141F0FE4141F470014FF0000062
:1007100070BD41F0FE4141F4780170BD70B54FF0FD
:10072000FF0C4CF4E06C1CEA11541DBF1CEA13557D
:1007300094EA0C0F95EA0C0F00F0A7F8A4EB05045F
:1007400081EA030E52EA03354FEA013100F0888056
:100750004FEA03334FF0805545EA131343EA12631F
:100760004FEA022245EA111545EA10654FEA0026D4
:100770000EF000419D4208BF964244F1FD0404F58D
:10078000407402D25B084FEA3202B61A65EB0305E9
:100790005B084FEA32024FF480104FF4002CB6EBA6
:1007A000020E75EB030E22BFB61A754640EA0C0026
:1007B0005B084FEA3202B6EB020E75EB030E22BF66
:1007C000B61A754640EA5C005B084FEA3202B6EBA7
:1007D000020E75EB030E22BFB61A754640EA9C0066
:1007E0005B084FEA3202B6EB020E75EB030E22BF36
:1007F000B61A754640EADC0055EA060E18D04FEAF4
:10080000051545EA16754FEA06164FEAC30343EA93
:1008100052734FEAC2025FEA1C1CC0D111F4801F60
:100820000BD141EA00014FF000004FF0004CB6E759
:1008300011F4801F04BF01430020B4F1FD0C88BFF8
:10084000BCF5E06F3FF6AFAEB5EB030C04BFB6EB03
:10085000020C5FEA500C50F1000041EB045170BDF6
:100860000EF0004E4EEA113114EB5C04C2BFD4EB23
:100870000C0541EA045170BD41F480114FF0000EA7
:10088000013C90E645EA060E8DE60CEA135594EA23
:100890000C0F08BF95EA0C0F3FF43BAF94EA0C0F26
:1008A0000AD150EA01347FF434AF95EA0C0F7FF49B
:1008B00025AF104619462CE795EA0C0F06D152EAEF
:1008C00003353FF4FDAE1046194622E750EA4106D3
:1008D00018BF52EA43067FF4C5AE50EA41047FF4E4
:1008E0000DAF52EA43057FF4EBAE12E74FF0FF3C49
:1008F00006E000BF4FF0010C02E000BF4FF0010C1A
:100900004DF804CD4FEA410C7FEA6C5C4FEA430C92
:1009100018BF7FEA6C5C1BD001B050EA410C0CBFE1
:1009200052EA430C91EA030F02BF90EA020F002043
:10093000704710F1000F91EA030F58BF994208BFAA
:1009400090422CBFD8176FEAE37040F00100704767
:100950004FEA410C7FEA6C5C02D150EA013C07D1BE
:100960004FEA430C7FEA6C5CD6D152EA033CD3D009
:100970005DF8040B704700BF8446104662468C4603
:100980001946634600E000BF01B5FFF7B7FF002836
:1009900048BF10F1000F01BD4DF808EDFFF7F4FF5F
:1009A0000CBF012000205DF808FB00BF4DF808EDEA
:1009B000FFF7EAFF34BF012000205DF808FB00BF0D
:1009C0004DF808EDFFF7E0FF94BF012000205DF82F
:1009D00008FB00BF4DF808EDFFF7CEFF94BF0120E4
:1009E00000205DF808FB00BF4DF808EDFFF7C4FFDD
:1009F00034BF012000205DF808FB00BF4FEA410230
:100A000012F5001215D211D56FF47873B3EB625260
:100A100012D94FEAC12343F0004343EA505311F087
:100A2000004F23FA02F018BF404270474FF0000019
:100A3000704750EA013005D111F0004008BF6FF057
:100A4000004070474FF00000704700BF4FEA410C74
:100A50007FEA6C5C02D150EA013C0AD14FEA430CB8
:100A60007FEA6C5C02D152EA033C02D14FF00000F5
:100A700070474FF0010070472DE9F04F85B0814677
:100A80000D4614469B460E9F0F9E9DF840A09DF874
:100A90004480D1E90023CDE90223A149D1E9000135
:100AA000FFF77AFFB8B1D5E902239D49D1E90201E8
:100AB000FFF772FF78B1D4E900239A49D1E9000128
:100AC000FFF76AFF38B1D4E902239649D1E9020160
:100AD000FFF762FFA0B9944B01221A709049DDE93B
:100AE0000223C1E90023D5E90223C1E90223D4E9A5
:100AF00000238C49C1E90023D4E90223C1E9022380
:100B0000B8F1030F0BD8DFE808F002717A83DBE954
:100B10000023D4E90001FFF71FFBCDE90001824B60
:100B20001B783BB1814BDDE90012C3E900127E4B1B
:100B300000221A70BAF1000F00F0D880DDE900AB96
:100B400052465B467949D1E90001FFF705FB0446AF
:100B500021F000450022764B50465946FFF744FFEE
:100B6000002879D00022724B20462946FFF728FF43
:100B7000002856D000226E4B20462946FFF7CEFDB6
:100B800000226C4BFFF7E8FA04460D463A4633461E
:100B9000FFF79AFC02460B4620462946FFF794FCD5
:100BA00002460B465AA1D1E90001FFF7D5FA3A46B1
:100BB0003346FFF7D3FAC9E9000155A3D3E900236F
:100BC000FFF7FEFE20B152A3D3E90023C9E90023B9
:100BD0003A463346D9E90001FFF706FF002874D0F2
:100BE0003A463346C9E9002300241FE0D4E9002334
:100BF000DBE90001FFF7B0FACDE900018FE7DBE99F
:100C00000223D4E90201FFF7A7FACDE9000186E744
:100C1000D4E90223DBE90201FFF79EFACDE90001E6
:100C20007DE73A463346C9E9002301240022424BBE
:100C300038463146FFF7CEFE00284AD000223F4B0F
:100C4000DDE90001FFF7BCFE00285BD00022002395
:100C5000C9E90023032455E006F100480022344B83
:100C6000DDE90001FFF75AFD2BA3D3E90023FFF7CD
:100C700073FA04460D4602460B4638464146FFF7D6
:100C800023FC02460B4620462946FFF71DFC3A4648
:100C90003346FFF763FAC9E900011DA3D3E9002336
:100CA000FFF78EFE20B11AA3D3E90023C9E9002380
:100CB0003A463346D9E90001FFF796FE38B13A4685
:100CC0003346C9E900230224B0E70024AEE702243A
:100CD000ACE700221A4BDDE90001FFF771FE88B195
:100CE00000220023C9E9002303240BE00022154B56
:100CF000DDE90001FFF764FE30BB3A463346C9E93F
:100D000000230124204605B0BDE8F08FAFF300803A
:100D10000000000000CCA040666666666666F23F92
:100D2000580400207804002000000020A0030020C8
:100D300000408F400000F03F0040AF4000005440B2
:100D4000000049400000244000220023C9E900239C
:100D50000324D7E710B402EBD2735B105C4221444A
:100D6000401A824203DC90FBF2F302FB13000028DE
:100D700002DB204410BC70470028B8BF4042101A64
:100D8000F7E70000254B5B7813F0040F3FD0234BAF
:100D90005B7813F0020F3AD0204B9B7813F0100FC2
:100DA00004D01F4A537843F0080353701B4B9B78C1
:100DB00013F0400F19D01A4A537843F020035370B0
:100DC000164B9B7813F0200F15D0154A537843F03B
:100DD00004035370114B5B7813F0010F11D0104ACC
:100DE000537843F01003537016E00D4A537823F004
:100DF00020035370E4E70A4A537823F00403537046
:100E0000E8E7074A537823F01003537004E0044ADC
:100E1000537803F0C303537000207047240C002064
:100E20002C000020002309E0590019444800054A1D
:100E3000024400215180032111710133062BF3DD9F
:100E4000002070473C000020034B0020D881032283
:100E50001A7498829A7570473C000020F0B4002400
:100E600007E0E300C5180B44D3E90067C5E9006754
:100E700001349442F5DBF0BC704700002DE9F043EB
:100E800083B004460E4603287FD8DFE800F0022135
:100E9000405F87494B7B887B03EB0023C87B03EBD8
:100EA0000043097C03EB016382490D681D44002E59
:100EB0006ED0012E03D0022E06D0002769E05B42DF
:100EC0000B6000273D4664E07B4B1F68EF1B60E032
:100ED00077494B7C887C03EB0023C87C03EB004301
:100EE000097D03EB016373494D681D44002E73D0E7
:100EF000012E03D0022E06D000274AE05B424B6051
:100F000000273D4645E06C4B5F68EF1B41E06849B8
:100F10008B78C87803EB0023087903EB0043497909
:100F200003EB016363498D681D44002E56D0012EEA
:100F300003D0022E06D000272BE05B428B600027F7
:100F40003D4626E05C4B9F68EF1B22E058498B79B9
:100F5000C87903EB0023087A03EB0043497A03EBDB
:100F600001635449CD681D44002E39D0012E03D0B1
:100F7000022E06D000270CE05B42CB6000273D46E6
:100F800007E04D4BDF68EF1B03E000273D4600E024
:100F90000027022E26D0484B43F82450474B1968AF
:100FA000474A42F824101A68464BA3FB02135B0918
:100FB000642101FB1323092B08D8012E06D0424BD4
:100FC0001B68022B50DC01333F4A1360022E5AD0BB
:100FD000284603B0BDE8F0830027DAE70027D8E70A
:100FE0000027D6E7B2F57A7F1EDB1046FFF702FA3C
:100FF0000022364BFFF792FB804689462F4B18683C
:101000002F4B53F82430C01AFFF7E4F902460B4681
:1010100040464946FFF758FAFFF7F0FC844677B997
:10102000254B43F82450B9E7244B1B68244A52F857
:1010300024209B1A4FF4967C0CFB03FCEFE787EA15
:10104000E773A3EBE77363450CDC1B4B43F82450B9
:10105000A4E71F4A1A44092151700133072BF8DD18
:1010600000279BE70023F9E713488368426801687B
:10107000CDF804C0C0680090164806F0ABFA124BD9
:1010800000221A60A2E70D4B1A680E4BA3FB021355
:101090005B09642101FB1323092B01D93D4697E726
:1010A0002B463A4621460C4806F094FA3D468FE717
:1010B000680000201403002038040020200C0020C9
:1010C000280400201F85EB51BC03002000001840BD
:1010D000300000209CA70008D4A7000810B50446E3
:1010E000012819D018B102282AD000202DE04FF491
:1010F0008051012006F02CF938B1144B01221A77E7
:1011000041F288325A8320461FE0104B03221A779F
:1011100000225A83022018E00421012006F018F969
:1011200038B10A4B02221A7741F288325A8320469C
:101130000BE0064B03221A7700225A83022004E0B8
:10114000024B03221A7700225A8310BD3C00002074
:10115000012920D010B504460221012006F0F8F83C
:1011600010B11F4B01221A701D4B1B78C3B984EAC2
:10117000E472A2EBE4721B4B1B689A421ED0002C57
:1011800028DD194B022283F82820174B41F28832C0
:10119000DA84002010BD134B00221A600220704731
:1011A0000221012006F0D4F80028E0D10D4A13688E
:1011B000013313600A4B00221A70D8E70A4A03234E
:1011C00082F828300023D384064A1360044A13703F
:1011D0000120DFE7044B012283F82820D5E700BF78
:1011E000D8030020880400203C00002008B5012915
:1011F0000AD09F4A1278042A10D8DFE812F01100B2
:10120000670092000D0145010223994A1370994A23
:101210001170002298490A6098490A70184608BD62
:10122000022821D00428F9D1924B1B7833B1944B7A
:101230001A68914B1A608F4B00221A70904B1B68F2
:101240008D4A12689B1A41F65832934235D98D4B1C
:10125000032283F8222000221A84854B04221A706C
:101260000123844A1370D9E7824B1B7833B1844B36
:101270001A68814B1A607F4B00221A70804B1B68E2
:101280007D4A12689B1A40F6AC5293420CD97D4BB2
:10129000032283F8222000221A84754B02221A703E
:1012A0000123744A1370B9E7764B012283F8222098
:1012B00040F6B8321A840023B0E7724B012283F85B
:1012C000222040F6B8321A840023A7E70228A5D1CD
:1012D000684B1B7833B16A4B1A68674B1A60654BD1
:1012E00000221A70664B1B68634A12689B1A41F20F
:1012F000040293420CD9634B032283F8222000227C
:101300001A845B4B02221A7001235A4A137085E734
:101310005C4B012283F8222040F6B8321A84002365
:101320007CE701281BD090B303287FF477AF10210E
:10133000022006F00DF840B1524B022283F8222021
:1013400040F6B8321A84002368E74E4A032382F835
:10135000223000211184464A137001235EE71021D8
:10136000012005F0F5FF40B1464B022283F8222010
:1013700040F6B8321A84002350E7424B032283F828
:10138000222000221A840123394A137046E73B4B7E
:101390001B78F3B1374B1B7833B1394B1A68364B96
:1013A0001A60344B00221A70354B1B68324A12689F
:1013B0009B1A502B27D9334B032283F8222000227B
:1013C0001A842B4B1A7001232A490B702B490A707F
:1013D00024E71021012005F0BBFF40B1294B022278
:1013E00083F8222040F6B8321A84002316E7234BF4
:1013F00001221A70234B022283F8222040F6B832D1
:101400001A8400230AE71F4B022283F8222040F6A9
:10141000B8321A84002301E702287FF4FFAE154B8F
:101420001B7833B1164B1A68134B1A60114B00220C
:101430001A70134B1B68104A12689B1A40F2DC5258
:1014400093420CD90F4B032283F8222000221A84E6
:10145000074B02221A700123064A1370DEE6094B7D
:10146000012283F8222040F6B8321A840023D5E600
:101470000400002005000020C4040020C004002057
:10148000200C00203C00002002287FF4C7AE144B43
:101490001B7833B1134B1A68134B1A60104B0022A0
:1014A0001A70104B1B68104A12689B1A40F6C4123F
:1014B000934208D80D4B022283F8222040F6B8321E
:1014C0001A840023AAE6094B032283F82220002273
:1014D0001A84074B02221A700123014A13709DE6F9
:1014E00005000020200C0020C40400203C00002047
:1014F0000400002038B5049C012C07D03B4C246824
:10150000032C0BD8DFE804F00C1646580023384AA9
:101510001370384A1370354A13600225284638BDC7
:10152000354A537843F03403537001342F4B1C6019
:101530000025F3E72E480078012810D039B10021AA
:101540000120FFF753FE2A4B18700025E6E7002123
:101550000846FFF74BFE264B18700025DEE761B109
:1015600022B125494A7822F020024A7053B1224A1A
:10157000537823F01003537004E01F4A537803F0AC
:10158000CB03537000251A4B1D70184A13680133A2
:101590001360C3E7164B1B78012B06D10025144BB3
:1015A0001D700134114B1C60B8E70021FFF71EFECF
:1015B0000F4B18700025B1E70E4B1B78012B0DD196
:1015C0000D4A537803F0CB0353700023094A13707C
:1015D000074A1370054A136001259FE70021012087
:1015E000FFF7B6FD034B1870002597E7C4030020F2
:1015F00025030020CF0400202C0000200000000064
:101600002DE9F04F89B006468A46CDE90423DDF87E
:101610004880149C9DF85450AB1EDBB2012B1DD9A1
:10162000D4E90223D8E90201FEF796FD029021F0E9
:101630000047D4E90423CDE90023A44B1A68A44B46
:10164000A3FB02135B09642101FB1323092B1FD9A0
:10165000032D4CD8DFE805F033647D94D8E90023EE
:10166000CDE90023D4E90012CDE9021200220023C3
:10167000D4E90201FEF728FFDDE90223FEF76CFD45
:10168000DDE90023FEF76AFD029021F00047D0E774
:10169000DDE9000107F072FBCDE906010298394649
:1016A00007F06CFBFFF7AAF98146DDE90601FFF7B9
:1016B000A5F94A460146874805F08CFFC8E7D4E9FA
:1016C0000223D8E90201FEF747FD04460D46002239
:1016D0000023FFF76BF9002869D100220023204680
:1016E0002946FFF781F9002864D04FF0000B002253
:1016F000794B02983946FFF777F9002800F06981A5
:10170000BBF1010F00F0C180BBF1000F67D0BBF14E
:10171000020F00F026810024A1462546A04672E172
:10172000D4E90223D8E90201FEF716FD04460D466E
:1017300000220023FFF73AF900283ED100220023BF
:1017400020462946FFF750F9002839D04FF0010B09
:10175000CDE7D4E90023D8E90001FEF7FDFC0446FB
:101760000D4600220023FFF721F960BB0022002371
:1017700020462946FFF738F940B34FF0010BB6E792
:10178000D4E90023D8E90001FEF7E6FC04460D4643
:1017900000220023FFF70AF9D8B9002200232046CF
:1017A0002946FFF721F9B8B14FF0000B9FE74FF042
:1017B000010B9CE74FF0020B99E74FF0000B96E707
:1017C0004FF0020B93E74FF0000B90E74FF0020B46
:1017D0008DE74FF0010B8AE74FF0020B87E7DDF84A
:1017E000088042463B4640463946FEF7B7FC044671
:1017F0000D460022394BFFF7E3F878B90022384B49
:1018000020462946FFF7E6F850BB0022354B4046FC
:101810003946FEF759FE0546884602E00025DFF806
:10182000CC8000220023DDE90001FFF7DDF868B17C
:1018300000222D4BDDE90001FEF746FE02460B4675
:1018400028464146FEF78AFC0546884600220023CA
:10185000DDE90001FFF7AAF830B90024A146D2E083
:101860000025DFF87C80DCE700221F4BDDE900016A
:10187000FEF72AFE02460B4628464146FEF76CFC60
:10188000054688460024A146BDE0DDF808804246B2
:101890003B4640463946FEF761FC04460D460022B1
:1018A0000E4BFFF78DF818BB00220D4B2046294642
:1018B000FFF790F8002840D100220A4B40463946F5
:1018C000FEF702FE0446894615E000BF200C00200A
:1018D0001F85EB5150A9000800001440000059403A
:1018E00000C082400000084000405F4000C06240ED
:1018F0000024DFF8549200220023DDE90001FFF705
:1019000055F8F0B900220023DDE90001FFF76CF87B
:10191000002800F0E1800022854BDDE90001FEF7A0
:10192000D3FD024621F0004320464946FEF714FC51
:10193000044689460025A84665E00024DFF80C929D
:10194000D9E700227A4BDDE90001FEF7BDFD024632
:1019500021F0004320464946FEF700FC0446894634
:10196000D0E700220023DDE9004520462946FFF7A5
:101970003BF880B16AA3D3E9002320462946FEF74D
:10198000A3FD69A3D3E90023FEF7E8FB05468846DB
:101990000024A14637E000220023DDE90001FFF723
:1019A00005F820B90024A1462546A0462BE05CA3FB
:1019B000D3E90023DDE90001FEF786FD5AA3D3E950
:1019C0000023FEF7CBFB044621F000490025A84682
:1019D00019E000220023DDE9004520462946FFF7F3
:1019E00003F800285AD04EA3D3E900232046294605
:1019F000FEF76AFD4CA3D3E90023FEF7AFFB0546D3
:101A000088460024A14600224A4B284628F000417F
:101A1000FEF7EAFF50B10022002328464146FEF7B8
:101A2000E3FF00285BD00025DFF808810022414B4E
:101A3000204629F00041FEF7D7FF50B100220023D5
:101A400020464946FEF7D0FF00284CD00024DFF89E
:101A5000E4900022384BDDE90401FEF75FFECDE99A
:101A600004012A464346FEF72FFDC6E9000122463F
:101A70004B46DDE90401FEF727FDCAE900012F4BC3
:101A80001A682F4BA3FB02135B09642101FB13238C
:101A9000092B2CD9002009B0BDE8F08F00220023CB
:101AA000DDE90001FEF782FF20B90024A1462546AA
:101AB000A046A8E71AA3D3E90023DDE90001FEF759
:101AC00003FD19A3D3E90023FEF748FB044621F0E8
:101AD00000490025A84696E70025A84693E700257B
:101AE000DFF86C80A2E70024DFF86490B1E7DDE95D
:101AF000000107F043F904460D460298394607F005
:101B00003DF9FEF77BFF064620462946FEF776FFA5
:101B10005B46324601460B4805F05CFDBAE700BF64
:101B20000000000000C062400000000000C0524001
:101B300000405F4000908A4000408F40200C002011
:101B40001F85EB5170A9000800C0624000C08240B0
:101B500000908AC010B50221002005F0F9FB40B1C9
:101B6000084B00241C8103229A7205F0FBFE2046DC
:101B700010BD044B4FF461721A8101229A724FF02A
:101B8000FF30F5E73C00002010B50121002005F0F2
:101B9000DFFB40B1084B00245C8003221A7105F082
:101BA000DBFE204610BD044B4FF461725A800122C7
:101BB0001A714FF0FF30F5E73C00002000000000F4
:101BC0002DE9F04FB9B082460F46A94C4822214674
:101BD00026A808F055FD902204F1480102A808F05B
:101BE0004FFD00240094019400E00134082C1EDC19
:101BF0009BA3D3E9002338A901EBC40555E93601BD
:101C0000FEF762FC45E93601022CEEDD0020994921
:101C100038AB03EBC40343E9360104F1090338AAE6
:101C200002EBC3030020944943E93601DDE71FB905
:101C300002230193009CBDE0012F06D0022FF9D1B1
:101C40000123009302230193F4E701230193F1E7B9
:101C500005F076FE0646B6E005F078FE0646B2E0F0
:101C6000002DB8BF6D42C5F50065C2E004EBC403AA
:101C70001A440CEBC20252E9368900284EDD404678
:101C8000494607F07BF8FEF7B9FE04EB44035A001F
:101C90007A4B134458800022002340464946FEF701
:101CA0007BFE80B304EB44035A00744B13440322BD
:101CB0001A71734B01221A55002F58D1704B1B78A3
:101CC000002B66D06E4B5B78002B40F099804FF074
:101CD000000B60E00132082ACFDC80EAE071A1EB62
:101CE000E07104EBC40313440DF1E00C0CEB83032F
:101CF00053F8483C9942B9DA082AEBD14FF0000872
:101D00004FF00009E6E704EB44035A005B4B134431
:101D100001221A715A4B00221A55CDE74046494616
:101D200007F02CF8FEF76AFE04EB44035A00534B0D
:101D3000134458800022002340464946FEF72CFEFB
:101D400050B104EB44035A004C4B134403221A7164
:101D50004B4B01221A55AFE704EB44035A00474BA3
:101D6000134402221A71464B00221A55A4E7012F90
:101D700008D0022F0FD1424B5B78002B46D04FF09A
:101D8000010B08E03E4B1B78002B3CD04FF0010BC1
:101D900001E04FF0000B3B4B1A683B4BA3FB0213D7
:101DA0005B09642101FB1323092B02D88CB3012C9E
:101DB00040D00134019BA3424DDD002C3FF448AFDD
:101DC000012C3FF449AF7342C6F30A05C3F30A037B
:101DD00058BF5D425046FEF70DFB23A3D3E9002315
:101DE000FEF772FB06F0CAFFFEF708FE002DFFF6B5
:101DF00037AF4FF400622946FEF7ACFF00226AE7D6
:101E00004FF0010BC7E74FF0000BC4E74FF0000B9A
:101E1000C1E72846FEF7EEFA00221C4BFEF754FB02
:101E200006F0ACFFFEF7EAFD52460146184805F001
:101E3000D1FBBEE72846FEF7DDFA0022134BFEF782
:101E400043FB06F09BFFFEF7D9FD524601461148C1
:101E500005F0C0FBADE7584639B0BDE8F08F00BFD4
:101E6000713D0AD7A370ED3F176CC1166CC11640C7
:101E7000B0A6000800B08D4000208C403C0000203F
:101E8000C8030020200C00201F85EB510080C63FB6
:101E9000E0A90008FCA900082DE970430024012CEA
:101EA0006FDC3D4D284605F0DAFF0646284605F072
:101EB000C5FF74B1012C67D1404203255EB9374A92
:101EC0006B0058194100114400200871488001340A
:101ED000E5E70225F2E7002E35DD1CB1012C2AD002
:101EE00001204FE005EB45035A002C4B134401221F
:101EF0001A71002EB8BF76429C2303FB06F603FB43
:101F000000F0FEF777FA22A3D3E90023FEF7DCFA0C
:101F1000804689463046FEF76DFA42464B46FEF74C
:101F20001DF9FEF76BFD42F20F73984220DC00288A
:101F300020DA00201EE005EB45035A00174B13443E
:101F400002221A71D5E71CB1012C09D0012019E039
:101F500005EB45035A00114B134402221A71C8E7DE
:101F600005EB45035A000D4B134401221A71C0E7DB
:101F700042F20F7005EB45056A00084B1344588088
:101F8000A5E70020BDE870830120FBE7AFF30080E8
:101F90009A9999999999D93F240C00203C000020E6
:101FA0002DE9F04F9DB09DF89C709DF8A05001293F
:101FB00075D01E460446002A40F09780904B1B784F
:101FC000002B37D18F4B7EA1D1E90001C3E900017D
:101FD0007DA1D1E90001C3E902017DA1D1E90001A0
:101FE000C3E904017CA1D1E90001C3E906014FF076
:101FF0000008DFF82092C3E9088900200021C3E926
:102000000A01C3E90C89C3E90E0175A1D1E90001F8
:10201000C3E9100174A1D1E90001C3E912010FF273
:10202000D019D9E90089C3E91489C3E91601744BB1
:1020300001221A70744B9B8A1BB9734AD289002AF9
:1020400055D0714AD0891844FEF7D4F900226F4B5D
:10205000FEF73AFAFEF7D2FC0646002F49D10025DA
:10206000032D64DC324602212846FEF707FF1CAB35
:1020700003EB850343F8580C0135F1E7CA008318D8
:1020800000240025C3E90045614B1344C3E9004522
:1020900001310229F2DD00201DB0BDE8F08F0021E2
:1020A000F7E7D7E900015A4B03EBC503C3E9000189
:1020B0000135022DEFDC735D002BF9D0EB00269A81
:1020C000D7182344D7E90001C3E90001012DE8D85E
:1020D00049A3D3E90023D7E90001FEF7F5F94C4BFA
:1020E00003EBC503C3E90001E2E70025E1E70026B1
:1020F000B3E7032D1BD8DFE805F01C1C02023246B3
:1021000002210020FEF7BAFE0690002202210120E3
:10211000FEF7B4FE0790324602210846FEF7AEFEF7
:102120000890002202210320FEF7A8FE0990002754
:102130003BE0002202211046FEF7A0FE0690324648
:1021400002210120FEF79AFE079000220221084694
:10215000FEF794FE0890324602210320FEF78EFE21
:102160000990E4E705EB8702264B03EBC203D3E9B2
:1021700000891CAB03EB850353F8580CFEF73AF9C2
:1021800002460B4640464946FEF79EF902460B467C
:102190001CA901EBC70656E90601FDF7DFFF46E97A
:1021A00006010135032DDDDD0137022F34DC00206F
:1021B00000211CAB03EBC70343E906010025F1E74F
:1021C0000A5D4647DB93ACBF7362E6D02773E1BF7D
:1021D0000A5D4647DB93AC3F1A3B335EB019DD3FE7
:1021E000CD7E4F03344AD33F4A1B3DA0F550CF3F2D
:1021F000CD7E4F03344AD3BF04B6B7E795294B4091
:10220000B9030020300300203C0000200000E03F24
:10221000100400200000E0BF8D4BD3E90467DDE926
:102220001A2330463946FDF799FFCDE914017EA304
:10223000D3E9002330463946FEF746F97CA3D3E9BB
:102240000023FEF741F97CA3D3E9002306F02CFE1E
:102250008146884676A3D3E90023484628F000410A
:10226000FEF7B8FB80B10022002348464146FEF746
:10227000B1FB00285CD070A3D3E900234846414657
:10228000FDF76AFF81468846714DD5E90067DDE9B3
:1022900016AB4846414606F025FDCDE90001024651
:1022A0000B4650465946FEF70FF902460B4630469C
:1022B0003946FDF753FFCDE90401DDE918674846CB
:1022C000414606F0A9FD02460B46CDE90223304601
:1022D0003946FEF7F9F802460B46DDE90401FDF741
:1022E0003DFFCDE91001D5E90289DDE90223504621
:1022F0005946FEF7E9F802460B4640464946FDF7C7
:102300002BFF8046894632463B46DDE90001FEF759
:10231000DBF802460B4640464946FDF71FFFCDE974
:102320001201032210A92846FEF798FD002516E0A9
:1023300041A3D3E9002348464146FDF70FFF8146FC
:102340008846A1E71CAB03EBC5063DA3D3E90023F8
:1023500056E90C01FEF7B8F846E912010135012DE6
:10236000F0DD39A3D3E90023DDE91401FEF7ACF871
:10237000CDE90E010022374B06F096FD06460D46CC
:1023800002460B46CDE90E230022334B304625F0A2
:102390000041FEF71FFB78B100220023304629469A
:1023A000FEF718FB002835D000222A4B304629467C
:1023B000FDF7D2FECDE90E0103220AA92046FEF761
:1023C0004DFD264B1A68264BA3FB02135B096421C3
:1023D00001FB1323092B3FF65EAED4E90067D4E975
:1023E000028900221F4BD4E90401FEF76DF8FEF7C5
:1023F00005FB054640464946FEF700FB04463046CD
:102400003946FEF7FBFA2B4622460146164805F0F0
:10241000E1F840E600220F4B30462946FDF79EFECC
:10242000CDE90E01C8E700BF682FA1BD84F6F23EDA
:10243000182D4454FB210940182D4454FB21194008
:10244000D221337F7CD9923FABAAAAAAAAAA6A3F1B
:10245000100400200080764000806640200C0020A0
:102460001F85EB5100005940B4A90008000000008E
:102470002DE9F04F8FB082468B46CDE90423D0E999
:10248000004522462B467849D1E90001FEF784FA3F
:10249000C0B1DAE902237449D1E90201FEF77CFAFE
:1024A00080B1DBE900237149D1E90001FEF774FA3C
:1024B00040B1DBE902236D49D1E90201FEF76CFA74
:1024C000002833D16A4B01221A70674BC3E90045DB
:1024D000DAE90289C3E90289DBE90001634BC3E958
:1024E0000001DBE90267C3E9026722462B46FDF7DC
:1024F00033FE04460D4600220023FEF74DFA30B3AA
:1025000042464B4630463946FDF726FE0022002360
:10251000FEF760FAB8B1574B02221A70002200236E
:102520005549C1E900235549C1E90023504B1B78A7
:10253000002B00F091804F4B1B78032B28D8DFE84D
:1025400003F0556C21404B4B03221A70E6E74246DC
:102550004B4630463946FDF7FFFD00220023FEF7CB
:102560001BFA0028DAD00022002320462946FEF775
:1025700031FA18B13F4B00221A70CFE73D4B0122D0
:102580001A70CBE73E4B1B786BB13D4B5B788BB140
:102590003B4B1B78012B40F05981394B5B78012B69
:1025A00052D0042530E10121B420FFF709FB344B60
:1025B0001870EAE70221AF20FFF702FB304B58709A
:1025C000E6E72F4B1B7853B12D4B5B78002BDFD107
:1025D0000221AF20FFF7F4FA294B5870D8E7012108
:1025E000B420FFF7EDFA264B1870EDE7244B1B786B
:1025F0005BB1234B5B78002BCAD1022140F209105A
:10260000FFF7DEFA1E4B5870C2E701214FF48770C6
:10261000FFF7D6FA1A4B1870EBE7194B1B785BB132
:10262000174B5B78002BB3D1022140F20910FFF762
:10263000C7FA134B5870ABE701214FF48770FFF7CF
:10264000BFFA0F4B1870EBE70023094A13700C4ACE
:10265000137053700425D7E0064B1B78032B19D851
:10266000DFE803F099A410904804002068040020DB
:10267000A8030020C003002090040020B003002025
:102680009C0400200121B320FFF79AFA0221B02018
:10269000FFF796FA704C714E337802930123019341
:1026A000009407AB002211462046FFF779FC3378EF
:1026B00003939DF860300293DDE90423CDE9002304
:1026C00023465A4651460CA8FEF7D6F905463378FC
:1026D00003930294CDF804B0CDF800A0DDE90C23FB
:1026E00008A90AA8FEF78CFFDDE90C67DDE90A23DB
:1026F00030463946FDF732FD80468946584BC3E9DE
:102700000089DDE9082330463946FDF727FD0646F6
:102710000F46544BC3E90067002200234046494658
:10272000FEF744F900284CD10022002330463946F8
:10273000FEF73CF900284AD145A3D3E900234849D4
:10274000D1E90001FEF750F928B1454B40A1D1E98C
:102750000001C3E900013EA3D3E900234149D1E9C7
:102760000001FEF741F928B13E4B39A1D1E9000142
:10277000C3E90001394B1B78032B43D8DFE803F092
:10278000482D2D480121B420FFF71AFA0221AF206D
:10279000FFF716FA7EE701214FF48770FFF710FA72
:1027A000022140F20910FFF70BFA73E701214FF401
:1027B0008770FFF705FA022140F20910FFF700FACF
:1027C00068E7274B00200021C3E90001ACE7254B57
:1027D00000200021C3E90001AEE7234C012323744C
:1027E0000223A3751E4BD3E9000106F0C7FAFEF7DA
:1027F00005F9E0811B4BD3E9000106F0BFFAFEF7B3
:10280000FDF8A082032D19D028460FB0BDE8F08F47
:10281000154C022323740123A375124BD3E9000145
:1028200006F0ACFAFEF7EAF8E0810D4BD3E90001BF
:1028300006F0A4FAFEF7E2F8A082E3E70A4B0022D2
:10284000DA819A8203221A749A75DDE70425DBE7A0
:10285000000000008087C340F8030020C003002070
:1028600090040020B00300203C00002008B501F0D7
:1028700009FC002008BD0000F0B58DB0924B9B789C
:1028800013F0400F02D1914B01221A708E4B9A78AF
:102890005A789B7813F0100F02D18D4B01221A70D9
:1028A000894B9B7803F00303032B04D0864B9B7862
:1028B00013F0010F02D1874B01221A70824B9B78D3
:1028C00003F00303032B01D07F4B9B787E4B9B7857
:1028D00003F00C030C2B04D07B4B9B7813F0040FFC
:1028E00002D17D4B01221A70774B9B7803F00C03C9
:1028F0000C2B04D0744B9B7813F0080F02D1774B4C
:1029000001221A70704B5A785A785A785A789B7804
:1029100003F00303032B13D06B4B9B7813F0010FD1
:102920000ED06C4B1B785BB16D4A1368013313609A
:10293000042B02DD134600221A60664B00221A7037
:10294000614B9B7803F00C030C2B11D05E4B9B78F2
:1029500013F0040F0CD0604B1B784BB1614B1B780C
:102960000A2B2DD001335F4A13705B4B00221A7083
:10297000554B9B7803F00C030C2B10D0524B9B78DB
:1029800013F0080F0BD0554B1B7843B1554B1B78F8
:10299000D3B9544B0A221A70504B00221A70514B73
:1029A0001B780A2B16D8DFE813F0CD08AB003800EF
:1029B0001500150015001500150015001300350051
:1029C000484B00221A70D0E7013B464A1370E3E7F8
:1029D000FEF728FA434B1B78012B41F053823A4B08
:1029E0005B7813F0080F05D0374B5B7813F0020FBC
:1029F00041F057823C4B1A683C4BA3FB02135B0926
:102A0000642101FB1323092B41F26A82002318463B
:102A10000DB0F0BDFEF706FADCE72B4B9B7813F008
:102A2000400F20D0294B1B78EBB10123304A1370A3
:102A3000304A1370304B00221A70234B9B7813F0EE
:102A4000200F06D000232A4A13702A4A13702A4AFC
:102A50001370274B1B78C3B9254A1370254A13708E
:102A6000254A1370B6E7184B9B7813F0100FE4D08B
:102A7000174B1B78002BE0D001231D4A13701D4A11
:102A8000002111701C4A1370D7E71A4B1B7873B9D9
:102A9000194B1B788BB9194B1B78022B9AD1002349
:102AA000134A1370134A1370134A137092E70020ED
:102AB000FEF714FB114B1870EDE70120FEF70EFB3B
:102AC0000E4B1870E7E700BF240C00209003002095
:102AD000CC040020CD04002098040020B80300207E
:102AE0002803002002000020200C00201F85EB514D
:102AF000AA030020AC030020A9030020AB030020A0
:102B0000974B5B7813F0080F04D0954B5B7813F06C
:102B1000020F59D1924B9B7813F0400F72D0914B1A
:102B20001B78002B6ED0904B01221A7000238F4A25
:102B300013708F4A13708F4A13708F4A13708F4A25
:102B40001370874B9B7813F0200F13D000238C4A0F
:102B500013608C4A13608C4A01211170824A1370F1
:102B6000824A1370824A1370824A1370824A137029
:102B7000824A13707C4B1B787BB97C4B1B7863B902
:102B80007B4B1B784BB97B4B1B7833B97A4B1B784B
:102B90001BB97A4B1B78002B4CD0774B1B78002B42
:102BA0007ED07A4B1D680C2D7AD8DFE815F05200E4
:102BB000A2008301CC0110028602CF021303560348
:102BC000CB030F045204A004002201211046FEF79B
:102BD00055F9002201210846FEF750F90022012193
:102BE0000220FEF74BF9002201210320FEF746F9EF
:102BF000674800220292019200900BAB0121FFF77F
:102C0000CFF987E7564B9B7813F0100F99D0614BA3
:102C10001B78002B95D00023534A1370534A13702E
:102C2000534A1370534A1370534A01211170534A87
:102C3000137086E70025524B1D60524B1D604A4BB6
:102C40001D70514B01221A70FEF7ECF84F4B1D60BE
:102C5000A3E74D4B1B78002B35D04D480021029146
:102C6000019100900BAB0A46FFF79AF94A490022FE
:102C70000023C1E90023C1E902234849C1E9002337
:102C800033A3D3E90023C1E9022304E0444B2B44DE
:102C900003225A700135072DF8DD3B4B00221A70D4
:102CA000314B1B78002B3FF495AE384B1D68062D39
:102CB0003FF690AEDFE815F08404C4047505F20514
:102CC00038067E06C40601230193009322A3D3E9AC
:102CD000002332493048FFF7CBFB324B18700328F2
:102CE000DED1294B01221A70284A13680133136080
:102CF000D6E7254B1B78002B5AD12B4B1B68214A5A
:102D000012689B1A40F2DB518B427DD9264B1B681F
:102D10009B1A40F6C3118B4240F2B880224B1B68CD
:102D20009A1A40F6AB539A4279D80121F020FEF767
:102D300047FF0221EB20FEF743FF1C4B02221A74CF
:102D400001229A7540F6AC52DA819A8267E000BFA0
:102D50000000000000E8AC40000000000094B1401A
:102D6000240C00209003002099040020C8040020B7
:102D7000C9040020CA040020CB0400209A040020CB
:102D8000D40300209403002001000020CC03002085
:102D9000E0030020CC040020A0040020B0040020A8
:102DA0003000002003000020200C00203C00002008
:102DB000A34E00250295019500960BAB2A462946A5
:102DC0003046FFF7EDF89F4B00200021C3E90001DA
:102DD000D6E90201C3E902019B4B00269B4FC3E9E0
:102DE0000067C3E902012B4604E0994A1A44022114
:102DF00051700133072BF8DD964B00221A70964B69
:102E00001A68964B1A604BE7012301930093002246
:102E10008E4B8D498B48FFF72BFB914B18708E4BD7
:102E20001B688E4A12689B1A40F6AB5293427FF69B
:102E300037AF8B4B04221A700025884B1D60FEF7BC
:102E400003F801268DF82C608DF82D508DF82E603A
:102E50000022844BCDE904236FA3D3E90023CDE9FD
:102E6000062300220023CDE908230295019504AB37
:102E700000930BAB324629467148FFF791F8754B2A
:102E80001E70794A13683344136009E701214FF437
:102E90009670FEF795FE022140F22710FEF790FE95
:102EA000724B02221A7401229A7540F6AC52DA81F2
:102EB0009A82B4E7674B1B78002B2ED0604E00251A
:102EC0000295019500960BAB2A4629463046FFF73E
:102ED00067F8674A537843F008035370594B50A181
:102EE000D1E90001C3E90001D6E90201C3E9020109
:102EF000554B4DA7D7E90067C3E90067C3E9020155
:102F00002B4604E0524A1A44042151700133072B26
:102F1000F8DD504B00221A70C2E6012301930093A2
:102F20000022544B48494748FFF7A2FA4C4B18700F
:102F300003287FF4B5AE474B01221A704A4A136842
:102F400001331360ACE6434B1B784BB33C4E00257A
:102F50000295019500960BAB2A4629463046FFF7AD
:102F60001FF8D6E90001374BC3E900012AA7D7E9CA
:102F70000067C3E90267344BC3E900012CA1D1E922
:102F80000001C3E902012B4604E0314A1A4405213D
:102F900051700133072BF8DD2E4B00221A707FE6AB
:102FA00001230193009324A3D3E900232649254854
:102FB000FFF75EFA2A4B187003287FF471AE254B99
:102FC00001221A70284A13680133136068E6214B06
:102FD0001B78002B5BD01A4E0025029501950096B8
:102FE0000BAB2A4629463046FEF7DAFFD6E9000148
:102FF000144BC3E900010EA7D7E90067C3E90267D4
:10300000114BC3E9000104A1D1E90001C3E90201A8
:103010002B4636E0AFF300800000000000E8AC4033
:103020000000000000C06C400000000000589BC081
:10303000000000000030B140000000000070A74018
:10304000E0030020A0040020B004002000409F40C6
:103050003000002001000020200C002094030020FC
:103060000300002000006940CC0300203C00002049
:103070002C0000200040AF409D4A1A4406215170A8
:103080000133072BF8DD9B4B00221A7008E6012361
:10309000019300930022984B98499948FFF7E8F96B
:1030A000984B187003287FF4FBAD924B01221A70E5
:1030B000954A136801331360F2E58E4B1B78002BA1
:1030C0002ED0924E00250295019500960BAB2A4614
:1030D00029463046FEF764FF8D4A537843F00803D3
:1030E0005370874B76A1D1E90001C3E90001D6E90D
:1030F0000201C3E90201814B73A7D7E90067C3E965
:103100000067C3E902012B4604E0794A1A4404210E
:1031100051700133072BF8DD764B00221A70BFE5A2
:1031200001230193009300227A4B74497448FFF7FE
:103130009FF9744B187003287FF4B2AD6D4B0122D8
:103140001A70714A136801331360A9E5694B1B7843
:103150004BB36E4E00250295019500960BAB2A46A7
:1031600029463046FEF71CFFD6E90001644BC3E94F
:10317000000157A7D7E90067C3E902675F4BC3E9BE
:10318000000155A1D1E90001C3E902012B4604E089
:10319000574A1A44052151700133072BF8DD554B6E
:1031A00000221A707CE50123019300934CA3D3E91C
:1031B000002352495248FFF75BF9524B187003281D
:1031C0007FF46EAD4B4B01221A704F4A13680133E6
:1031D000136065E5474B1B784BB34C4E00250295B9
:1031E000019500960BAB2A4629463046FEF7D8FEDD
:1031F000D6E90001424BC3E9000137A7D7E90067D0
:10320000C3E902673D4BC3E9000131A1D1E90001E7
:10321000C3E902012B4604E0354A1A4406215170E5
:103220000133072BF8DD334B00221A7038E50123F8
:10323000019300930022304B30493148FFF718F9D1
:10324000304B187003287FF42BAD2A4B01221A70E3
:103250002D4A13680133136022E5264B1B78002B9F
:103260005AD02A4E00250295019500960BAB2A46AE
:1032700029463046FEF794FE254A537843F008036A
:1032800053701F4B10A1D1E90001C3E90001D6E939
:103290000201C3E90201194B13A7D7E90067C3E98B
:1032A0000067C3E902012B4604E0114A1A440421D5
:1032B00051700133072BF8DD0E4B00221A70EFE43A
:1032C0000000000000589BC00000000000ECA3C0FC
:1032D0000000000000E8AC40000000000030B140F9
:1032E000000000000070A740000000000064A9C0BA
:1032F000300000200100002000409F40B00400206A
:10330000A004002003000020CC030020E0030020E4
:103310002C0000200040AF400123019300930022C5
:103320009D4B9E499E48FFF7A3F89E4B18700328BB
:103330007FF4B6AC9C4B01221A709C4A136801338F
:103340001360ADE4984B1B784BB3994E0025029562
:10335000019500960BAB2A4629463046FEF720FE23
:10336000D6E900018E4BC3E9000183A7D7E90067C6
:10337000C3E90267894BC3E9000181A1D1E90001DA
:10338000C3E902012B4604E08A4A1A440521517020
:103390000133072BF8DD844B00221A7080E40123EF
:1033A0000193009378A3D3E900237C497C48FFF77D
:1033B0005FF87C4B187003287FF472AC7A4B0122C3
:1033C0001A707A4A13680133136069E4764B1B78EC
:1033D0004BB3774E00250295019500960BAB2A461C
:1033E00029463046FEF7DCFDD6E900016C4BC3E907
:1033F000000163A7D7E90067C3E90267674BC3E928
:1034000000015DA1D1E90001C3E902012B4604E0FE
:10341000684A1A44062151700133072BF8DD624BCC
:1034200000221A703CE40123019300930022624BB6
:103430005A495B48FFF71CF85A4B187003287FF471
:103440002FAC594B01221A70584A1368013313608C
:1034500026E4554B1B78002B32D0584A13680133B1
:103460001360632B7FF71CAC514E0025029501952C
:1034700000960BAB2A4629463046FEF791FD484B95
:1034800043A1D1E90001C3E90001D6E90201C3E982
:103490000201424B00260027C3E90067C3E902018D
:1034A0002B4604E0434A1A440F2151700133072B85
:1034B000F8DD0023414A13603B4A1370FFF7F0BB6D
:1034C0000123019300930022334B34493448FEF723
:1034D000CFFF344B187003287FF4E2AB324B01224C
:1034E0001A70324A136801331360FFF7D9BB2E4BB1
:1034F0001B784BB32E4E00250295019500960BAB21
:103500002A4629463046FEF74BFDD6E90001244BFA
:10351000C3E9000118A7D7E90067C3E902671F4B99
:10352000C3E9000100200021C3E902012B4604E0A9
:10353000204A1A440E2151700133072BF8DD1A4B33
:1035400000221A70FFF7ACBB012301930093002205
:10355000114B12491248FEF78BFF124B18700328CB
:103560007FF49EAB104B01221A70104A136801338E
:103570001360FFF795BB00BF0000000000E8AC40FF
:10358000000000000030B140000000000070A740C3
:10359000000000000064A9C00040AF40B00400205B
:1035A000A00400200300002001000020CC03002024
:1035B000E00300203000002000409F40D4030020A2
:1035C000A94B1B7823B3A9480021029101910090D7
:1035D0000BAB0A46FEF7E4FCA54900220023C1E933
:1035E0000023C1E90223A349C1E9002394A3D3E93D
:1035F0000023C1E9022304E09F4B2B4403225A70AD
:103600000135072DF8DD984B00221A70FFF7E2B95B
:103610000123019300938CA3D3E900239549944897
:10362000FEF726FF954B187003287FF4D3A98E4B25
:1036300001221A70924A136801331360FFF7CAB966
:10364000894B1B784BBB8F4B1B688F4A12689B1AA8
:1036500040F2DB518B424DD98A4B1B689B1A40F6D6
:10366000C3118B4240F28980864B1B689A1A40F640
:10367000AB539A4249D80121F020FEF7A1FA02216A
:10368000EB20FEF79DFA814B02221A7401229A75F3
:1036900040F6AC52DA819A8237E0744E00250295EA
:1036A000019500960BAB2A4629463046FEF778FC7A
:1036B0006F4B00200021C3E90001D6E90201C3E9F4
:1036C00002016C4B0026724FC3E90067C3E9020197
:1036D0002B4604E0684A1A44022151700133072B3B
:1036E000F8DD614B00221A70664B1A68664B1A604F
:1036F000FFF770B90123019300930022644B5D49E9
:103700005B48FEF7B5FE5D4B18705E4B1B685E4A6A
:1037100012689B1A40F6AB5293427FF65BA9574B57
:1037200004221A700026584B1E60FDF78DFB012500
:103730008DF82C508DF82D508DF82E500022554BC1
:10374000CDE904233EA3D3E90023CDE906230022DB
:103750000023CDE908230296019604AB00930BAB3E
:103760002A4631464148FEF71BFC3F4B1D70444A38
:1037700013682B441360FFF72DB901214FF49670A5
:10378000FEF71EFA022140F22710FEF719FA3F4B0E
:1037900002221A7401229A7540F6AC52DA819A829A
:1037A000B3E7314B1B78002B2FD0304E002502950C
:1037B000019500960BAB2A4629463046FEF7F0FBF2
:1037C000354A537843F008035370294B20A1D1E9BF
:1037D0000001C3E90001D6E90201C3E90201254B5A
:1037E0001DA7D7E90067C3E90067C3E902012B46BB
:1037F00004E0214A1A44042151700133072BF8DDFB
:10380000194B00221A70FFF7E5B80123019300233A
:10381000009313A3D3E9002316491548FEF728FEA9
:10382000164B187003287FF4D5A80F4B01221A708D
:10383000134A136801331360FFF7CCB8AFF300806D
:10384000000000000044B640000000000094B140B9
:103850000000000000C06C400000000000589BC049
:10386000000000000070A74001000020E0030020DD
:10387000A0040020B004002030000020030000203D
:10388000CC030020200C0020940300203C000020EA
:1038900000409F40000069402C000020A04B1B7896
:1038A00053B3A04E00250295019500960BAB2A4616
:1038B00029463046FEF774FBD6E900019A4BC3E96E
:1038C00000018BA7D7E90067C3E90267974BC3E9FB
:1038D000000189A1D1E90001C3E902012B4604E0FE
:1038E000934A1A44052151700133072BF8DD8C4BA4
:1038F00000221A70FFF76EB801230193009380A392
:10390000D3E9002389498848FEF7B2FD894B187036
:1039100003287FF45FA8824B01221A70864A13683D
:1039200001331360FFF756B87D4B1B7853B37D4EC0
:1039300000250295019500960BAB2A462946304694
:10394000FEF72EFBD6E90001774BC3E900016AA719
:10395000D7E90067C3E90267744BC3E9000164A1BA
:10396000D1E90001C3E902012B4604E0704A1A4480
:10397000062151700133072BF8DD694B00221A70C4
:10398000FFF728B80123019300935DA3D3E9002337
:1039900066496548FEF76CFD664B187003287FF496
:1039A00019A85F4B01221A70634A13680133136030
:1039B000FFF710B85A4B1B7853B35A4E00250295A7
:1039C000019500960BAB2A4629463046FEF7E8FAE9
:1039D000D6E90001544BC3E9000145A7D7E90067C8
:1039E000C3E90267514BC3E9000147A1D1E90001D6
:1039F000C3E902012B4604E04D4A1A440E215170DE
:103A00000133072BF8DD464B00221A70FEF7E2BFA8
:103A10000123019300933AA3D3E900234349424889
:103A2000FEF726FD434B187003287EF4D3AF3C4BC2
:103A300001221A70404A136801331360FEF7CABFAF
:103A4000374B1B78002B37D03C4A13680133136087
:103A5000632B7EF7BFAF334E00250295019500968C
:103A60000BAB2A4629463046FEF79AFA2E4F28A37A
:103A7000D3E90023C7E900230022314BD6E9020134
:103A8000FCF76CFBC7E90201284B23A7D7E90067C5
:103A9000C3E90067C3E902012B4604E0244A1A4443
:103AA0000F2151700133072BF8DD0023234A1360E7
:103AB0001B4A1370FEF78EBF01230193002300936E
:103AC0000FA3D3E9002319491748FEF7D1FC194B7E
:103AD000187003287EF47EAF114B01221A70164A2B
:103AE000136801331360FEF775BF00BFAFF30080AA
:103AF000000000000044B640000000000038B8405C
:103B0000000000000070A7400000000000D4B74093
:103B10000000000000589BC00000000000F4AAC094
:103B200001000020E0030020A0040020B0040020D9
:103B30003000002003000020CC030020D40300202C
:103B400000004940AC4C204604F09AF980EAE07548
:103B5000A5EBE075204604F093F90028B8BF404279
:103B600000FB05F5204604F09CF980EAE076A6EB20
:103B7000E076204604F095F90028B8BF404200FBEB
:103B80000650FCF737FC05F0EFF900229B4BFCF7E1
:103B90000DFF002829D09A4B1C68994B1C60994B4B
:103BA0001B78002B70D0984B1B78002B74D0964B51
:103BB0001B781BB1934B1B78002B75D1FEF76CF96A
:103BC000034600287EF423AF8B4B5B7813F0080F7D
:103BD00075D0894B5B7813F0100F70D08B4B03229C
:103BE00083F8222000221A8475E0834804F048F903
:103BF00000281EDB804C204604F053F9FCF7FAFB4A
:103C000006460F46204604F03BF9FCF7F3FB02465C
:103C10000B4630463946FCF781FD04F0D5FE74A30F
:103C2000D3E90023FCF750FCFCF7E8FEC0F58774ED
:103C3000B3E7714C204604F034F9FCF7DBFB064691
:103C40000F46204604F01CF9FCF7D4FB02460B4655
:103C500030463946FCF762FD04F0B6FE64A3D3E9B2
:103C60000023FCF731FC02460B46104603F10041ED
:103C7000FCF7C4FE041E04DBC4F58774C4F5B474F9
:103C80008BE7C4F58774F9E7FDF764FF00288AD154
:103C90005C4B01221A7086E7FDF776FF002886D17B
:103CA000594B01221A7082E7012104F1B400FDF79B
:103CB00087FF022104F1AF00FDF782FF7EE74E4B44
:103CC0005B7813F0080F34D0504B012283F8222088
:103CD00040F6B8321A84484B5B7813F0020F04D0D8
:103CE000454B5B7813F0040F37D1434B5B7813F0EF
:103CF000020F36D1404B5B7813F0040F35D0012012
:103D0000FDF7ECF93C4B5B7813F0080F45D03A4BCC
:103D10005B7813F0100F40D0374B9B7813F0400FB7
:103D200027D03A4B012283F8282041F28832DA84E6
:103D300039E0314B5B7813F0100F07D0334B022280
:103D400083F8222040F6B8321A84C4E72F4B0322AE
:103D500083F8222000221A84BDE70220FDF7BEF975
:103D6000D0E70020FDF7BAF9CCE70220FDF7B6F95D
:103D7000C8E7214B9B7813F0200F07D0234B02227A
:103D800083F8282041F28832DA840CE01F4B0322AA
:103D900083F828200022DA8405E01C4B032283F8F4
:103DA00028200022DA84144B9B7813F0400F0AD0AD
:103DB000174B1B78012B09D000210120FDF7C8F912
:103DC000134B187002E0124B00221A700A4B5B78FA
:103DD00013F0010F22D00F4B1B78012B21D00021B3
:103DE0000D4B1878FDF702FA0A4B187019E000BF66
:103DF00046DF617EDCA54C40240C0020008046405C
:103E0000D003002099030020980300203C000020EC
:103E1000CE0400202403002028030020674B00224A
:103E20001A70674B9B7813F0200F20D0654B1B78DE
:103E3000012B12D1624B9B7813F0200F05D0604B01
:103E40005B7813F0020F3EF4C5ADFCF79BFF034611
:103E500000283EF4BFADFEF7DABD002100910B460D
:103E60000A460220FDF746FB564B1870E2E7002198
:103E7000544B1970012300930B460A460220FDF7AC
:103E800039FBD7E7504800210291019100900BAB1C
:103E90000A46FEF785F8034600283EF4A0ADFEF77B
:103EA000B6BD002201211046FCF7E8FF00220121E7
:103EB0000846FCF7E3FF002201210220FCF7DEFFA9
:103EC000002201210320FCF7D9FF3F480022029283
:103ED000019200900BAB0121FEF762F8FEF78ABD5C
:103EE0003A4B19683A4803F075FB3A4B1A783A4B4B
:103EF00053F82210394803F06DFB394B1A78394BCF
:103F000053F82210384803F065FB384B19683848DD
:103F100003F060FB2146374803F05CFB4FF480510F
:103F2000012003F015FA70BB334803F053FB042162
:103F3000012003F00DFA50BB304803F04BFB022187
:103F4000012003F005FA30BB2D4803F043FB10219C
:103F5000012003F0FDF910BB2A4803F03BFB1021C0
:103F6000022003F0F5F9F0B9274803F033FB4FF4D2
:103F70000061002003F0ECF9C8B1244803F02AFBEB
:103F80000023FEF744BD224803F024FBCFE721487D
:103F900003F020FBD3E7204803F01CFBD7E71F48C2
:103FA00003F018FBDBE71E4803F014FBDFE71D48B6
:103FB00003F010FB0023FEF72ABD00BF24030020FE
:103FC000240C0020AD030020E0030020200C002082
:103FD000ECA700080200002034AB0008FCA7000892
:103FE000030000209CA900080CA80008280300205A
:103FF00024A8000840A8000858A8000890A80008B5
:10400000C8A80008E8A8000810A9000840A90008EE
:1040100074A80008ACA80008D8A80008FCA80008EC
:1040200020A9000830A90008FEE7000008B54FF4F9
:10403000A2720249024806F023FB08BD60AB0008EB
:10404000D0040020002209E0930003F1006303F58F
:10405000FE331968094B43F8221001320C2AF3DDB4
:10406000002307E0064A52F82320044951F82310A0
:1040700011600133082BF5DD704700BF14060020E6
:104080000800002008B5FFF7D1FFFFF7DBFF08BDF0
:1040900000B583B01C4B9A6942F001029A619B699A
:1040A00003F001030193019B032000F0F1FA0022C9
:1040B00011466FF00B0000F009FB002211466FF073
:1040C0000A0000F003FB002211466FF0090000F027
:1040D000FDFA002211466FF0040000F0F7FA00220A
:1040E00011466FF0030000F0F1FA002211466FF064
:1040F000010000F0EBFA002211464FF0FF3000F013
:10410000E5FA03B05DF804FB00100240F0B589B099
:1041100003685E4A934205D005465D4A934255D0F6
:1041200009B0F0BD5B4B9A6942F008029A619B6945
:1041300003F008030093009B544A1368C3F30E0373
:1041400013604FF4407304931123059302230793E4
:10415000514C04A9204600F073FDE36843F440731A
:10416000E3604D4B9B6803F44073B3F5407FF8D197
:10417000494AD36823F44073D360474B9B6813F4D8
:10418000407FFAD14FF44073049312230593032325
:10419000079304A9404800F053FD404A536843F098
:1041A000020353603B4BDA6942F40012DA61DB69C7
:1041B00003F400130193019B344B1A6842F400424C
:1041C0001A601A68C2F30E021A60A9E74FF440633E
:1041D0000493122305930323079304A92E4800F0A8
:1041E0002FFD2C4BDA6942F48002DA61DA6902F4BD
:1041F00080020292029A5A6942F001025A615B6996
:1042000003F001030393039B254E264B33600024E8
:104210007460B4608027F76034617461B461F461E4
:10422000304600F0F9FA2E6375621F4E1F4B336063
:1042300010237360B460F76034617461B461F46139
:10424000304600F0E9FAEE627562012221460E2046
:1042500000F03CFA0E2000F07FFA012221460F20E8
:1042600000F034FA0F2000F077FA22462146212090
:1042700000F02CFA212000F06FFA2246214622207D
:1042800000F024FA222000F067FA49E700540040C9
:104290000058004000100240000C014000000140A6
:1042A0005C060020580002409406002044000240B2
:1042B00000B587B003681B4A934205D01A4A93425F
:1042C0001BD007B05DF804FB184BDA6942F002021C
:1042D000DA61DB6903F002030093009BC0230293C1
:1042E00000230393049302A9114800F0A9FC114A8A
:1042F000536843F440635360E3E70C4BDA6942F0E0
:104300000402DA61DB6903F004030193019BC0231B
:10431000029300230393049302A9074800F090FC42
:10432000CFE700BF0004004000080040001002403A
:104330000010014000000140000C0140F0B58DB0BC
:104340000368724A934209D00446714A93422FD0BF
:10435000704A934200F086800DB0F0BD6E4B9A69B2
:1043600042F480429A619A6902F480420192019A71
:104370009A6942F004029A619B6903F00403029374
:10438000029B4FF4007308930223099303230B93BA
:10439000624C08A9204600F053FC4FF48063089358
:1043A000002309930A9308A9204600F049FCD3E7AB
:1043B000594EF36943F40033F361F36903F40033B6
:1043C0000393039BB36943F00403B361B36903F040
:1043D00004030493049B04230893022309930323F7
:1043E0000B934E4F08A9384600F02AFC0823089387
:1043F000002509950A9508A9384600F021FC736943
:1044000043F001037361736903F001030593059B96
:10441000434E444B336010277760B5608023F360D0
:1044200035617561B561F561304600F0F5F92663D7
:10443000746201222946112000F048F9112000F091
:104440008BF92A462946384600F040F9384600F0F4
:1044500083F901222946262000F038F9262000F0B1
:104460007BF979E72C4BDA6942F48022DA61DA6968
:1044700002F480220692069A9A6942F010029A612A
:104480009B6903F010030793079B4FF48063089325
:104490000223099303230B93234D08A9284600F018
:1044A000CFFB4FF400630893002609960A9608A9EB
:1044B000284600F0C5FB1D4A536823F0300343F043
:1044C000100353601A4D1B4B2B606E60AE6080234F
:1044D000EB602E616E61AE614FF40053EB612846D4
:1044E00000F09AF965636C62324631460D2000F0A7
:1044F000EDF80D2000F030F901223146272000F0C0
:10450000E5F8272000F028F926E700BF0038014031
:1045100000440040004800400010024000080140F4
:10452000040700208000024000100140000001400C
:10453000CC060020300002407047FEE7FEE7FEE7B1
:10454000FEE770477047704708B500F085F800F047
:104550004EF9024A13680133136008BD200C002095
:1045600008B5024B186B00F033FA08BD04020020B6
:1045700008B5024B586B00F02BFA08BD440200202E
:1045800008B5024802F0D9FD08BD00BF4402002072
:1045900008B5024802F0D1FD08BD00BF04020020AA
:1045A00008B5024BD86A00F013FA08BD3C010020A0
:1045B00008B5024B186B00F00BFA08BD3C01002057
:1045C0000F4B1A6842F001021A6059680D4A0A40FE
:1045D0005A601A6822F0847222F480321A601A68D3
:1045E00022F480221A605A6822F4FE025A604FF4C4
:1045F0001F029A60044B4FF000629A60704700BF40
:10460000001002400000FFF800ED00E010B5044685
:1046100001F026FF064BA3FB0030800900F0B2F842
:10462000002221464FF0FF3000F050F8002010BD6E
:10463000D34D621008B5074A136843F010031360A6
:10464000032000F025F80020FFF7E0FFFFF720FD32
:10465000002008BD00200240024A136801331360A5
:10466000704700BF3C070020014B1868704700BF2F
:104670003C07002010B582B00190FFF7F5FF04461B
:10468000FFF7F2FF001B019B9842F9D302B010BD67
:1046900010B50446C31E042B0FD80A4AD36823F46E
:1046A000E0631B041B0C240204F4E064234343F086
:1046B000BF6343F40033D36010BDBA210248FFF753
:1046C000B3FCEAE700ED00E0BCAC000870B50546BD
:1046D0000C4616460F2A25D80F2C28D81B4BDB6812
:1046E000C3F30223C3F10702042A28BF0422191DC1
:1046F000062921D9033B4FF0FF3101FA02F224EAE7
:1047000002049C4001FA03F326EA03063443002D19
:1047100014DB2401E4B205F1604505F5614585F837
:10472000004370BDD2210A48FFF77EFCD4E7D321B5
:104730000748FFF779FCD1E70023DCE705F00F0518
:104740002401E4B2034B5C55EBE700BF00ED00E051
:10475000BCAC000814ED00E010B5041E08DB04F04A
:104760001F02640901239340044A42F8243010BD1B
:10477000E6210348FFF758FCF1E700BF00E100E045
:10478000BCAC00080138B0F1807F0AD2064B5860FB
:10479000064AF02182F823100020986007221A6050
:1047A00070470120704700BF10E000E000ED00E01E
:1047B00010B50446042800D038B9042C0BD0094A9F
:1047C000136823F00403136010BD4FF4DF71064833
:1047D000FFF72AFCF1E7034A136843F00403136070
:1047E000F2E700BF10E000E0BCAC0008704708B57D
:1047F000FFF7FCFF08BD10B4046863604368102B2A
:1048000005D0036899600368DA6010BC70470368DC
:104810009A600368D960F8E7002800F0928010B52C
:1048200004460368484A934215D01432934212D08A
:10483000143293420FD0143293420CD0143293426C
:1048400009D01432934206D01432934203D0B521DA
:104850003E48FFF7E9FB636823B1102B02D0B3F5A4
:10486000804F4BD1A368402B01D0002B4BD1E36884
:10487000802B01D0002B4BD123692BB1B3F5807F66
:1048800002D0B3F5007F48D163692BB1B3F5806FD7
:1048900002D0B3F5006F45D1A3690BB1202B46D1EF
:1048A000E36943B1B3F5805F05D0B3F5005F02D093
:1048B000B3F5405F40D194F821300BB984F8203033
:1048C000022384F8213021680A6822F47F5222F002
:1048D00030026368A0680343E06803432069034330
:1048E00060690343A0690343E069034313430B601A
:1048F00000206063012384F8213010BDB6211348E5
:10490000FFF792FBAEE7B7211048FFF78DFBAEE74C
:10491000B8210E48FFF788FBAEE7B9210B48FFF737
:1049200083FBB1E7BA210948FFF77EFBB4E7BB215F
:104930000648FFF779FBB3E7BC210448FFF774FB97
:10494000B9E70120704700BF08000240F4AC00083E
:10495000F8B590F82040012C35D01D4616460F467C
:104960000446012380F82030022380F821306A1E9B
:104970004FF6FE739A4220D82068036823F00103A3
:1049800003602B46324639462046FFF734FF226843
:10499000136843F0020313602268136843F00403B2
:1049A00013602268136843F00803136022681368D9
:1049B00043F0010313600020F8BD40F26111034889
:1049C000FFF732FBD8E70220F6E700BFF4AC00089F
:1049D00010B50446984B1A68036898498B4214D066
:1049E00014318B4232D014318B4231D014318B428E
:1049F00031D014318B4231D014318B4202D04FF080
:104A0000006103E04FF4000100E008210A423CD0BD
:104A10001A6812F0080F38D01A6822F008021A60DB
:104A20002368864A93421FD01432934245D01432F1
:104A3000934244D01432934244D01432934244D02F
:104A4000143293420DD04FF000620EE08021DDE77A
:104A50004FF40061DAE74FF40041D7E74FF400214B
:104A6000D4E74FF4000200E00822734B5A60636BF6
:104A700043F001036363042384F82130002384F8A6
:104A80002030236B0BB1204698476B4B1A68236884
:104A90006A498B421FD014318B4241D014318B4272
:104AA00040D014318B4240D014318B4240D014316D
:104AB0008B420DD04FF080610EE08022D5E74FF49D
:104AC0000062D2E74FF40042CFE74FF40022CCE778
:104AD0004FF4800100E004210A4239D01A6812F034
:104AE000040F35D01A6812F0200F03D11A6822F093
:104AF00004021A602368514A93421FD01432934231
:104B00003ED0143293423DD0143293423DD0143201
:104B100093423DD0143293420DD04FF080620EE0AC
:104B20004021D9E74FF48061D6E74FF48041D3E7C5
:104B30004FF48021D0E74FF4800200E004223E4B86
:104B40005A60112384F82130E36A0BB1204698475C
:104B5000394B1A68236839498B421FD014318B4274
:104B600041D014318B4240D014318B4240D01431AB
:104B70008B4240D014318B420DD04FF000710EE0CB
:104B80004022DCE74FF48062D9E74FF48042D6E759
:104B90004FF48022D3E74FF4001100E002210A42D3
:104BA0003ED01A6812F0020F3AD01A6812F0200FA5
:104BB00003D11A6822F002021A6023681F4A934246
:104BC0001FD0143293422CD0143293422BD0143283
:104BD00093422BD0143293422BD0143293420DD0F7
:104BE0004FF000720EE02021D9E74FF40071D6E7B4
:104BF0004FF40051D3E74FF40031D0E74FF40012E7
:104C000000E002220C4B5A60636B6363012384F85B
:104C10002130002384F82030A36A0BB12046984746
:104C200010BD2022EEE74FF40072EBE74FF4005284
:104C3000E8E74FF40032E5E70000024008000240D8
:104C40002DE9F04383B080460F46B54B984213D010
:104C500003F5806398420FD003F5806398420BD030
:104C600003F58063984207D003F58063984203D030
:104C7000CF21AC48FFF7D8F93B882BB37B68012BD9
:104C80001ED9112B1CD0022B1AD0122B18D0A64AD9
:104C9000934215D002F58012934211D002F5801292
:104CA00093420DD0A2F5F812934209D002F580127A
:104CB000934205D002F58012934201D0032B08D114
:104CC0004FF000094E46DDE0D0219648FFF7ACF9E1
:104CD000D4E7D1219348FFF7A7F9F1E7002B5ED085
:104CE000012B05D1FB68013B022B65D8D7F80C904E
:104CF000FF2C00F296804046FF2C00F29580B20017
:104D000003680F21914023EA010309FA02F21343D9
:104D100003607B6813F0805F00F0B380834B9A6977
:104D200042F001029A619B6903F001030193019B28
:104D3000B208911C7E4B53F8210006F00303990042
:104D40000F238B4020EA0300754B984572D003F582
:104D50008063984500F0CD8003F58063984500F0AE
:104D6000CA8003F58063984562D0042363E0714AEA
:104D7000934214D00BD9704A934210D002F580327E
:104D800093420CD0A2F580129342B1D107E0A2F574
:104D90008012934203D002F580329342A8D1BB68BF
:104DA000022B2DD8BB68002B38D0012B2ED0C8F891
:104DB00014504FF008099BE7E7215A48FFF734F9F0
:104DC00094E7EE215748FFF72FF98EE0FB68013B8F
:104DD000022B03D8FB6803F1080989E7F521514844
:104DE000FFF722F9F6E7FB68013B022B03D8FB68CB
:104DF00003F10C097CE7FC214A48FFF715F9F6E7B7
:104E000040F209114748FFF70FF9CBE7C8F81050F7
:104E10004FF008096CE74FF0000969E74FF004090B
:104E200066E708F1040067E7A6F10802920067E769
:104E3000032300E000238B40034302323C4941F846
:104E400022307B6813F4803F57D03C4A13682343D9
:104E500013607B6813F4003F55D0384A53682343EE
:104E600053607B6813F4801F53D0344A9368234304
:104E700093607B6813F4001F62D0304AD3681C43F0
:104E8000D46001360F2E61D80125B5403C682C4016
:104E9000A542F6D1224B984513D003F5806398457F
:104EA0000FD003F5806398450BD003F580639845D8
:104EB00007D003F58063984503D0DF211948FFF739
:104EC000B3F87B68122B8ED03FF651AF022B3FF424
:104ED0007DAF7FF603AF032B9DD0112B7FF408AF7E
:104EE000FB68013B022B3FF66CAFFB6803F1040942
:104EF000FEE601239FE702239DE7104A136823EA99
:104F000004031360A5E70D4A536823EA04035360C2
:104F1000A7E70A4A936823EA04039360A9E700BF5E
:104F2000000801402CAD00080000111000100240E4
:104F30000000014000002110000031100004014079
:104F4000044AD36823EA0404D4609AE703B0BDE8B6
:104F5000F08300BF0004014038B505460C4621B17E
:104F6000AB681C4207D1002038BD4FF4E271034802
:104F7000FFF75AF8F4E70120F6E700BF2CAD000870
:104F800070B5064615460C4629B1012D09D875B9EC
:104F90002404346170BD4FF4F2710648FFF744F801
:104FA000F3E740F2E5110348FFF73EF8EFE734611D
:104FB000F0E700BF2CAD00084368124A934209D8BD
:104FC0005800B1FBF0F0C0F30B03032B00D970477E
:104FD0000420704782685AB903EB4300B1FBF0F03C
:104FE00040F40040C0F30B03002BF0D10120EEE7AA
:104FF00003EB830000EB8000B1FBF0F040F4404095
:10500000F0E700BFA086010003685A6912F4806FC0
:105010000DD05A6922F480625A61042383632023ED
:1050200080F83530002380F83430012070470020AC
:1050300070472DE9F04106460C4690461D46FFF7A5
:1050400013FB0746B8F1000F1AD043E025B1FFF774
:105050000BFBC01BA84213D9202386F83530002350
:1050600086F83430032019E033685B6924EA0303CF
:105070009BB2003318BF01237BB1B5F1FF3FE5D1EF
:10508000C4F30743012BEFD033689B6924EA030381
:105090009BB2003318BF0123EEE70020BDE8F0818A
:1050A00025B1FFF7E1FAC01BA84213D9202386F8E7
:1050B0003530002386F834300320EFE733685B692E
:1050C00024EA03039BB2B3FA83F35B097BB1B5F126
:1050D000FF3FE5D1C4F30743012BEFD033689B6951
:1050E00024EA03039BB2B3FA83F35B09EEE70020E3
:1050F000D4E7F8B504460D461646FFF7B5FA07465D
:1051000031E01A6842F400721A602268536923F48D
:10511000806353610423A363202384F83530002384
:1051200084F8343001202CE026B1FFF79DFAC01B33
:10513000B04218D9202384F83530002384F8343065
:1051400003201EE023685B6925EA03039BB200335A
:1051500018BF0123A3B123685A6912F4806FD0D11C
:10516000B6F1FF3FE0D1C5F30743012BEAD0236836
:105170009B6925EA03039BB2003318BF0123E9E7CB
:105180000020F8BD70B504460D4616460268136847
:1051900043F480731360334600224FF00111FFF790
:1051A00048FF48BB2369B3F5804F0FD1236805F052
:1051B000FE051D61324614492046FFF79AFF03465B
:1051C000D8B1A36B042B1CD1012316E0EB1122688C
:1051D00003F0060343F0F003136132460B49204607
:1051E000FFF787FF20B1A36B042B08D1012304E054
:1051F0002368EDB21D61DDE70323184670BD03236C
:10520000FBE70323F9E700BF0200010008000100EB
:10521000F0B583B004460D4616460268136843F4A1
:10522000806313600268136843F48073136033462D
:1052300000224FF00111FFF7FCFE00284CD123693A
:10524000B3F5804F11D1236845F00105EDB21D6122
:10525000324627492046FFF74CFF034600283CD042
:10526000A36B042B42D1012337E0EF1107F00607AF
:10527000236847F0F0021A6132461E492046FFF7C4
:1052800038FF20B1A36B042B2AD1012325E023682A
:10529000EDB21D61324616492046FFF72AFF20B1C4
:1052A000A36B042B1ED1012317E023685A690192D6
:1052B0009A690192019A1A6842F480721A60334620
:1052C00000224FF001112046FFF7B3FE60B92368BA
:1052D00047F0F1071F61BBE70323184603B0F0BD99
:1052E0000323FAE70323F8E70323F6E70323F4E7AE
:1052F000020001000800010070B504460D46FFF7EA
:10530000B3F9064623685B6913F0800F18D1204675
:10531000FFF77AFEB0B9B5F1FF3FF3D025B1FFF743
:10532000A3F9801BA842EDD9A36B43F02003A3632C
:10533000202384F83530002384F83430032000E043
:10534000002070BD0120FCE770B504460D46FFF754
:105350008BF9064623685B6913F0040F18D12046C9
:10536000FFF752FEB0B9B5F1FF3FF3D025B1FFF71B
:105370007BF9801BA842EDD9A36B43F02003A36304
:10538000202384F83530002384F83430032000E0F3
:10539000002070BD0120FCE7002800F0B38038B584
:1053A00004460368584A934208D002F5806293424B
:1053B00004D04FF4A5715548FEF736FE6368013BF3
:1053C000534A93425ED8A36813B1B3F5804F5FD1BF
:1053D000E36823F47F7323F00303002B5ED123697A
:1053E000B3F5804F02D0B3F5404F5DD16369012B17
:1053F00060D8A36933F0FE0362D1E3690BB1402B9F
:1054000064D1236A0BB1802B66D194F83530002B20
:1054100068D0242384F835302268136823F0010310
:10542000136001F023F801463A4BA3FB00239B0CC9
:10543000226853606068384A904259D80133226824
:10544000136225682046FFF7B7FDE861E369216A2A
:1054500022680B4313602369E16822680B43936061
:105460006369A16922680B43D3602268136843F023
:10547000010313600020A063202384F8353084F8F2
:10548000360038BD40F24B112048FEF7CDFD9AE7BB
:105490004FF4A6711D48FEF7C7FD99E740F24D1184
:1054A0001A48FEF7C1FD9AE74FF4A7711748FEF7B7
:1054B000BBFD9BE740F24F111448FEF7B5FD98E79E
:1054C0004FF4A8711148FEF7AFFD96E740F2511175
:1054D0000E48FEF7A9FD94E74FF4A9710B48FEF7BB
:1054E000A3FD92E784F834302046FEF70FFE90E7E4
:1054F0004FF4967202FB03F3084AA2FB03239B09B5
:1055000001339CE7012070470054004064AD00085F
:105510007F1A060083DE1B43A0860100D34D621074
:10552000F0B583B01E4690F83530DBB2202B7FD12A
:1055300004460F461546002A7ED00EB9012378E0B6
:1055400042F2107301224149FFF773FD002875D123
:1055500094F83430012B73D0012384F8343022685E
:10556000136823F400631360212384F8353010237B
:1055700084F836300023A363089A39462046FFF7A3
:1055800001FE60B1A36B042B04D1002384F83430F6
:1055900001234EE0002384F83430032349E02368DC
:1055A0005A6901929B690193019B0BE0A36B042B49
:1055B00048D12268136843F400731360012338E074
:1055C0001E461546C6B108992046FFF795FE0028ED
:1055D000ECD16A1C236829781961731E9BB221687B
:1055E000486910F0040FEBD0002BE9D0AA1C6B78AF
:1055F0000B61023EB3B2E3E708992046FFF7A4FE31
:10560000034648B1A36B042B1ED12268136843F4F0
:105610000073136001230CE021680A6842F40072F1
:105620000A60202284F83520002284F8342000E02B
:105630000223184603B0F0BD0123FAE70223F8E77E
:105640000223F6E70323F4E70323F2E70200100046
:10565000F0B583B090F83540E4B2202C57D1002A41
:1056600059D00BB9012353E01E4615460F46044698
:1056700042F2107301222B49FFF7DBFC00284CD1CA
:1056800094F83430012B4AD0012384F83430226856
:10569000136823F400631360212384F8353010234A
:1056A00084F836300023A363656226856685E36A45
:1056B0001D4A9A62E36A1D4A1A6322683346103211
:1056C0002946E06AFFF744F9232239462046FFF7CE
:1056D00059FD034660B1A36B042B04D1002384F869
:1056E0003430012314E0002384F8343003230FE026
:1056F00021684A6842F400624A6022685169019157
:1057000092690192019A002284F8342000E0022379
:10571000184603B0F0BD0123FAE70223F8E702239D
:10572000F6E700BF02001000555800082B5800088B
:10573000F0B583B090F83540E4B2202C64D1002A53
:1057400066D00BB9012260E01E4615460F4604469E
:1057500042F2107301223149FFF76BFC002859D146
:1057600094F83430012B57D0012384F83430226868
:10577000136823F400631360222384F83530102368
:1057800084F836300023A363656226856685236B23
:10579000234A9A62236B234A1A63216833462A46B6
:1057A0001031206BFFF7D4F8232239462046FFF74B
:1057B0002FFD024660B1A36B042B04D1002384F8B3
:1057C0003430012221E0002384F8343003221CE02D
:1057D000012E13D021684B6843F480534B6021683D
:1057E0004B6843F400634B602368596901919B69DE
:1057F0000193019B002384F8343006E021680B6894
:1058000023F480630B60EAE70222104603B0F0BD88
:105810000122FAE70222F8E70222F6E7020010006E
:10582000A95800082B580008704708B5406A02685C
:10583000136823F48063136000234385202280F8DB
:10584000352080F83630836B43F010038363FFF715
:10585000EBFF08BD10B5446A2323002211492046FE
:10586000FFF7E7FB18B1A36B43F02003A3632268A3
:10587000136843F4007313602268536823F40063D1
:10588000536000236385202284F8352084F8363065
:10589000A36B1BB9204603F065F810BD2046FFF747
:1058A000C3FFFAE70400010008B5406A0268136804
:1058B00023F4806313600268136843F40073136079
:1058C0000268536823F4805353600268536823F4DA
:1058D0000063536000234385202280F8352080F840
:1058E0003630836B13B903F043F808BDFFF79CFF14
:1058F000FBE77047002844D010B504460268234BEC
:105900009A4203D0A6212248FEF78EFB6368062B3D
:1059100028D8A368B3F5805F29D22368DA6812F02B
:10592000010F03D0DB6813F0020F2CD1637B1BB394
:1059300002236373236845F255521A602268536844
:1059400023F0070361680B4353602268936823F4D4
:105950007F6323F00F03A1680B43936001236373FC
:10596000002010BDA7210A48FEF75EFBD1E7A82161
:105970000748FEF759FBD0E723732046FFF7B9FF2E
:10598000D6E7012070470120EBE700BF0030004060
:105990009CAD0008037B012B0FD0022343730368E7
:1059A0004CF6CC421A6003684AF6AA221A60012318
:1059B000437300230373184670470220704738B5BD
:1059C000037B012B1FD0044601230373022343737F
:1059D000FEF74AFE05462368DA6812F0020F0AD085
:1059E000FEF742FE401BB0F57A7FF4D903206073C6
:1059F0000023237306E04AF6AA221A600123637388
:105A00000020207338BD0220FCE7000030B583B0D1
:105A1000044688B3236813B113F00F0F32D0236804
:105A200013F0010F56D063682BB1B3F5803F02D05D
:105A3000B3F5A02F2CD1C64B5B6803F00C03042BED
:105A400031D0C34B5B6803F00C03082B26D063688E
:105A5000B3F5803F00F08380002B40F0A58003F178
:105A6000804303F504331A6822F480321A601A68FE
:105A700022F480221A6077E04FF48771B548FEF770
:105A8000D3FAC7E740F20F11B248FEF7CDFAC6E7E6
:105A900040F21511AF48FEF7C7FACCE7AC4B5B6894
:105AA00013F4803FD3D04FF4003393FAA3F3A84B01
:105AB0001A684FF4003393FAA3F3B3FA83F303F0B5
:105AC0001F0322FA03F313F0010F03D06368002BC6
:105AD00000F02083236813F0020F00F0D3802369C5
