:020000040800F2
:1000000000500020D9BF00086D7F00086F7F0008F6
:10001000717F0008737F0008757F000800000000F2
:10002000000000000000000000000000777F0008D2
:10003000797F0008000000007B7F00087D7F0008BA
:1000400021C0000821C0000821C0000821C000080C
:1000500021C0000821C0000821C0000821C00008FC
:1000600021C0000821C0000821C0000821C00008EC
:1000700021C00008A57F0008D57F0008E57F0008A3
:1000800021C00008957F000821C0000821C0000899
:1000900021C0000821C0000821C0000821C00008BC
:1000A00021C00008F5AD000821C0000821C00008EB
:1000B00005AE000821C0000821C0000821C00008CA
:1000C00021C0000821C0000821C0000821C000088C
:1000D00021C0000821C00008C57F0008B57F0008C6
:1000E00021C0000821C0000821C000080000000055
:1000F0000000000000000000000000000000000000
:0C01000000000000000000005FF808F1A3
:1001100010B5054C237833B9044B13B10448AFF341
:1001200000800123237010BDF002002000000000B9
:10013000A0D7000808B5034B1BB103490348AFF330
:10014000008008BD00000000F4020020A0D70008D5
:1001500081F0004102E000BF83F0004330B54FEA78
:1001600041044FEA430594EA050F08BF90EA020FE5
:100170001FBF54EA000C55EA020C7FEA645C7FEA78
:10018000655C00F0E2804FEA5454D4EB5555B8BF9B
:100190006D420CDD2C4480EA020281EA030382EA0C
:1001A000000083EA010180EA020281EA0303362D9E
:1001B00088BF30BD11F0004F4FEA01314FF4801C71
:1001C0004CEA113102D0404261EB410113F0004F83
:1001D0004FEA03334CEA133302D0524263EB43033A
:1001E00094EA050F00F0A780A4F10104D5F1200ED8
:1001F0000DDB02FA0EFC22FA05F2801841F1000133
:1002000003FA0EF2801843FA05F359410EE0A5F106
:1002100020050EF1200E012A03FA0EFC28BF4CF037
:10022000020C43FA05F3C01851EBE37101F00045ED
:1002300007D54FF0000EDCF1000C7EEB00006EEBFA
:100240000101B1F5801F1BD3B1F5001F0CD3490884
:100250005FEA30004FEA3C0C04F101044FEA4452DB
:1002600012F5800F80F09A80BCF1004F08BF5FEA62
:10027000500C50F1000041EB045141EA050130BD42
:100280005FEA4C0C404141EB010111F4801FA4F1E5
:100290000104E9D191F0000F04BF01460020B1FA3A
:1002A00081F308BF2033A3F10B03B3F120020CDA72
:1002B0000C3208DD02F1140CC2F10C0201FA0CF050
:1002C00021FA02F10CE002F11402D8BFC2F1200CB5
:1002D00001FA02F120FA0CFCDCBF41EA0C0190406B
:1002E000E41AA2BF01EB0451294330BD6FEA0404B4
:1002F0001F3C1CDA0C340EDC04F11404C4F120029F
:1003000020FA04F001FA02F340EA030021FA04F3B0
:1003100045EA030130BDC4F10C04C4F1200220FA07
:1003200002F001FA04F340EA0300294630BD21FA45
:1003300004F0294630BD94F0000F83F4801306BF0B
:1003400081F480110134013D4EE77FEA645C18BFFF
:100350007FEA655C29D094EA050F08BF90EA020F96
:1003600005D054EA000C04BF1946104630BD91EA8E
:10037000030F1EBF0021002030BD5FEA545C05D191
:100380004000494128BF41F0004130BD14F58004D0
:100390003CBF01F5801130BD01F0004545F0FE4144
:1003A00041F470014FF0000030BD7FEA645C1ABF79
:1003B000194610467FEA655C1CBF0B46024650EAB0
:1003C000013406BF52EA033591EA030F41F40021DC
:1003D00030BD00BF90F0000F04BF0021704730B562
:1003E0004FF4806404F132044FF000054FF0000137
:1003F00050E700BF90F0000F04BF0021704730B5F8
:100400004FF4806404F1320410F0004548BF4042CC
:100410004FF000013EE700BF42004FEAE2014FEA21
:1004200031014FEA02701FBF12F07F4393F07F4FFC
:1004300081F06051704732F07F4208BF704793F0FF
:100440007F4F04BF41F40021704730B54FF4607412
:1004500001F0004521F000411CE700BF50EA010215
:1004600008BF704730B54FF000050AE050EA0102BE
:1004700008BF704730B511F0004502D5404261EB2E
:1004800041014FF4806404F132045FEA915C3FF46F
:10049000D8AE4FF003025FEADC0C18BF03325FEA0C
:1004A000DC0C18BF033202EBDC02C2F1200300FABD
:1004B00003FC20FA02F001FA03FE40EA0E0021FAE2
:1004C00002F11444BDE600BF70B54FF0FF0C4CF4D0
:1004D000E06C1CEA11541DBF1CEA135594EA0C0F82
:1004E00095EA0C0F00F0DEF82C4481EA030621EABD
:1004F0004C5123EA4C5350EA013518BF52EA0335F8
:1005000041F4801143F4801338D0A0FB02CE4FF0A9
:100510000005E1FB02E506F00042E0FB03E54FF0D9
:100520000006E1FB03569CF0000F18BF4EF0010ED1
:10053000A4F1FF04B6F5007F64F5407404D25FEACD
:100540004E0E6D4146EB060642EAC62141EA555180
:100550004FEAC52040EA5E504FEACE2EB4F1FD0CC2
:1005600088BFBCF5E06F1ED8BEF1004F08BF5FEA40
:10057000500E50F1000041EB045170BD06F00046F2
:1005800046EA010140EA020081EA0301B4EB5C049F
:10059000C2BFD4EB0C0541EA045170BD41F4801197
:1005A0004FF0000E013C00F3AB8014F1360FDEBFBC
:1005B000002001F0004170BDC4F10004203C35DA98
:1005C0000C341BDC04F11404C4F1200500FA05F31B
:1005D00020FA04F001FA05F240EA020001F00042BC
:1005E00021F0004110EBD37021FA04F642EB060132
:1005F0005EEA430E08BF20EAD37070BDC4F10C045C
:10060000C4F1200500FA04F320FA05F001FA04F21F
:1006100040EA020001F0004110EBD37041F100010B
:100620005EEA430E08BF20EAD37070BDC4F1200516
:1006300000FA05F24EEA020E20FA04F301FA05F27E
:1006400043EA020321FA04F001F0004121FA04F226
:1006500020EA020000EBD3705EEA430E08BF20EAF6
:10066000D37070BD94F0000F0FD101F00046400030
:1006700041EB010111F4801F08BF013CF7D041EAB2
:10068000060195F0000F18BF704703F000465200B6
:1006900043EB030313F4801F08BF013DF7D043EA87
:1006A0000603704794EA0C0F0CEA135518BF95EA3D
:1006B0000C0F0CD050EA410618BF52EA4306D1D1C4
:1006C00081EA030101F000414FF0000070BD50EAE3
:1006D000410606BF1046194652EA430619D094EA6D
:1006E0000C0F02D150EA013613D195EA0C0F05D157
:1006F00052EA03361CBF104619460AD181EA0301AB
:1007000001F0004141F0FE4141F470014FF0000062
:1007100070BD41F0FE4141F4780170BD70B54FF0FD
:10072000FF0C4CF4E06C1CEA11541DBF1CEA13557D
:1007300094EA0C0F95EA0C0F00F0A7F8A4EB05045F
:1007400081EA030E52EA03354FEA013100F0888056
:100750004FEA03334FF0805545EA131343EA12631F
:100760004FEA022245EA111545EA10654FEA0026D4
:100770000EF000419D4208BF964244F1FD0404F58D
:10078000407402D25B084FEA3202B61A65EB0305E9
:100790005B084FEA32024FF480104FF4002CB6EBA6
:1007A000020E75EB030E22BFB61A754640EA0C0026
:1007B0005B084FEA3202B6EB020E75EB030E22BF66
:1007C000B61A754640EA5C005B084FEA3202B6EBA7
:1007D000020E75EB030E22BFB61A754640EA9C0066
:1007E0005B084FEA3202B6EB020E75EB030E22BF36
:1007F000B61A754640EADC0055EA060E18D04FEAF4
:10080000051545EA16754FEA06164FEAC30343EA93
:1008100052734FEAC2025FEA1C1CC0D111F4801F60
:100820000BD141EA00014FF000004FF0004CB6E759
:1008300011F4801F04BF01430020B4F1FD0C88BFF8
:10084000BCF5E06F3FF6AFAEB5EB030C04BFB6EB03
:10085000020C5FEA500C50F1000041EB045170BDF6
:100860000EF0004E4EEA113114EB5C04C2BFD4EB23
:100870000C0541EA045170BD41F480114FF0000EA7
:10088000013C90E645EA060E8DE60CEA135594EA23
:100890000C0F08BF95EA0C0F3FF43BAF94EA0C0F26
:1008A0000AD150EA01347FF434AF95EA0C0F7FF49B
:1008B00025AF104619462CE795EA0C0F06D152EAEF
:1008C00003353FF4FDAE1046194622E750EA4106D3
:1008D00018BF52EA43067FF4C5AE50EA41047FF4E4
:1008E0000DAF52EA43057FF4EBAE12E74FF0FF3C49
:1008F00006E000BF4FF0010C02E000BF4FF0010C1A
:100900004DF804CD4FEA410C7FEA6C5C4FEA430C92
:1009100018BF7FEA6C5C1BD001B050EA410C0CBFE1
:1009200052EA430C91EA030F02BF90EA020F002043
:10093000704710F1000F91EA030F58BF994208BFAA
:1009400090422CBFD8176FEAE37040F00100704767
:100950004FEA410C7FEA6C5C02D150EA013C07D1BE
:100960004FEA430C7FEA6C5CD6D152EA033CD3D009
:100970005DF8040B704700BF8446104662468C4603
:100980001946634600E000BF01B5FFF7B7FF002836
:1009900048BF10F1000F01BD4DF808EDFFF7F4FF5F
:1009A0000CBF012000205DF808FB00BF4DF808EDEA
:1009B000FFF7EAFF34BF012000205DF808FB00BF0D
:1009C0004DF808EDFFF7E0FF94BF012000205DF82F
:1009D00008FB00BF4DF808EDFFF7CEFF94BF0120E4
:1009E00000205DF808FB00BF4DF808EDFFF7C4FFDD
:1009F00034BF012000205DF808FB00BF4FEA410230
:100A000012F5001215D211D56FF47873B3EB625260
:100A100012D94FEAC12343F0004343EA505311F087
:100A2000004F23FA02F018BF404270474FF0000019
:100A3000704750EA013005D111F0004008BF6FF057
:100A4000004070474FF00000704700BF4FEA410C74
:100A50007FEA6C5C02D150EA013C0AD14FEA430CB8
:100A60007FEA6C5C02D152EA033C02D14FF00000F5
:100A700070474FF0010070472DE9F04F85B0814677
:100A80000D4614469B460E9F0F9E9DF840A09DF874
:100A90004480D1E90023CDE902239F49D1E9000137
:100AA000FFF77AFFB8B1D5E902239B49D1E90201EA
:100AB000FFF772FF78B1D4E900239849D1E900012A
:100AC000FFF76AFF38B1D4E902239449D1E9020162
:100AD000FFF762FFA0B9924B01221A708E49DDE93F
:100AE0000223C1E90023D5E90223C1E90223D4E9A5
:100AF00000238A49C1E90023D4E90223C1E9022382
:100B0000B8F1030F0BD8DFE808F0026E7780DBE95D
:100B10000023D4E90001FFF71FFBCDE90001804B62
:100B20001B783BB17F4BDDE90012C3E900127C4B1F
:100B300000221A70BAF1000F00F0D380DDE900AB9B
:100B400052465B467749D1E90001FFF705FB0446B1
:100B500021F000450022744B50465946FFF744FFF0
:100B6000002876D00022704B20462946FFF728FF48
:100B7000002853D000226C4B20462946FFF7CEFDBB
:100B800000226A4BFFF7E8FA04460D463A46334620
:100B9000FFF79AFC02460B4620462946FFF794FCD5
:100BA00002460B4600206249FFF7D6FA3A46334622
:100BB000FFF7D4FAC9E9000100225D4BFFF700FFFF
:100BC00018B100225A4BC9E900233A463346D9E905
:100BD0000001FFF709FF002872D03A463346C9E901
:100BE000002300241FE0D4E90023DBE90001FFF724
:100BF000B3FACDE9000192E7DBE90223D4E902016F
:100C0000FFF7AAFACDE9000189E7D4E90223DBE97D
:100C10000201FFF7A1FACDE9000180E73A46334629
:100C2000C9E9002301240022424B38463146FFF730
:100C3000D1FE002848D000223F4BDDE90001FFF73C
:100C4000BFFE002859D000220023C9E90023032455
:100C500053E006F100480022334BDDE90001FFF7C5
:100C60005DFD2BA3D3E90023FFF776FA04460D467A
:100C700002460B4638464146FFF726FC02460B4625
:100C800020462946FFF720FC3A463346FFF766FA2E
:100C9000C9E900010022264BFFF792FE18B100229D
:100CA000234BC9E900233A463346D9E90001FFF74F
:100CB0009BFE38B13A463346C9E900230224B2E725
:100CC0000024B0E70224AEE700221C4BDDE900015E
:100CD000FFF776FE88B100220023C9E90023032430
:100CE0000BE00022164BDDE90001FFF769FE40B979
:100CF0003A463346C9E900230124204605B0BDE841
:100D0000F08F00220023C9E900230324F5E700BF88
:100D1000666666666666F23F500400207004002036
:100D2000000000209803002000408F400000F03FAA
:100D300000409F400040AF40000054400000494048
:100D40000000244010B402EBD2735B105C422144DB
:100D5000401A824203DC90FBF2F302FB13000028EE
:100D600002DB204410BC70470028B8BF4042101A74
:100D7000F7E70000002309E0590019444800054A3C
:100D8000024400215180032111710133062BF3DD50
:100D9000002070473C000020034B0020D881032234
:100DA0001A7498829A7570473C000020F0B40024B1
:100DB00007E0E300C5180B44D3E90067C5E9006705
:100DC00001349442F5DBF0BC7047000010B50446D6
:100DD000012819D018B102282AD000202DE04FF4A4
:100DE0008051012009F05EFF38B1144B01221A77BF
:100DF00041F288325A8320461FE0104B03221A77B3
:100E000000225A83022018E00421012009F04AFF41
:100E100038B10A4B02221A7741F288325A832046AF
:100E20000BE0064B03221A7700225A83022004E0CB
:100E3000024B03221A7700225A8310BD3C00002087
:100E4000012920D010B504460221012009F02AFF13
:100E500010B11F4B01221A701D4B1B78C3B984EAD5
:100E6000E472A2EBE4721B4B1B689A421ED0002C6A
:100E700028DD194B022283F82820174B41F28832D3
:100E8000DA84002010BD134B00221A600220704744
:100E90000221012009F006FF0028E0D10D4A136865
:100EA000013313600A4B00221A70D8E70A4A032361
:100EB00082F828300023D384064A1360044A137052
:100EC0000120DFE7044B012283F82820D5E700BF8B
:100ED000CC030020800400203C00002008B501293C
:100EE0000AD09F4A1278042A10D8DFE812F01100C5
:100EF000670092000D0145010223994A1370994A37
:100F00001170002298490A6098490A70184608BD75
:100F1000022821D00428F9D1924B1B7833B1944B8D
:100F20001A68914B1A608F4B00221A70904B1B6805
:100F30008D4A12689B1A41F65832934235D98D4B2F
:100F4000032283F8222000221A84854B04221A707F
:100F50000123844A1370D9E7824B1B7833B1844B49
:100F60001A68814B1A607F4B00221A70804B1B68F5
:100F70007D4A12689B1A40F6AC5293420CD97D4BC5
:100F8000032283F8222000221A84754B02221A7051
:100F90000123744A1370B9E7764B012283F82220AB
:100FA00040F6B8321A840023B0E7724B012283F86E
:100FB000222040F6B8321A840023A7E70228A5D1E0
:100FC000684B1B7833B16A4B1A68674B1A60654BE4
:100FD00000221A70664B1B68634A12689B1A41F222
:100FE000040293420CD9634B032283F8222000228F
:100FF0001A845B4B02221A7001235A4A137085E748
:101000005C4B012283F8222040F6B8321A84002378
:101010007CE701281BD090B303287FF477AF102121
:10102000022009F03FFE40B1524B022283F82220F9
:1010300040F6B8321A84002368E74E4A032382F848
:10104000223000211184464A137001235EE71021EB
:10105000012009F027FE40B1464B022283F82220EE
:1010600040F6B8321A84002350E7424B032283F83B
:10107000222000221A840123394A137046E73B4B91
:101080001B78F3B1374B1B7833B1394B1A68364BA9
:101090001A60344B00221A70354B1B68324A1268B2
:1010A0009B1A502B27D9334B032283F8222000228E
:1010B0001A842B4B1A7001232A490B702B490A7092
:1010C00024E71021012009F0EDFD40B1294B022257
:1010D00083F8222040F6B8321A84002316E7234B07
:1010E00001221A70234B022283F8222040F6B832E4
:1010F0001A8400230AE71F4B022283F8222040F6BD
:10110000B8321A84002301E702287FF4FFAE154BA2
:101110001B7833B1164B1A68134B1A60114B00221F
:101120001A70134B1B68104A12689B1A40F2DC526B
:1011300093420CD90F4B032283F8222000221A84F9
:10114000074B02221A700123064A1370DEE6094B90
:10115000012283F8222040F6B8321A840023D5E613
:101160000500002006000020C4040020C004002068
:10117000100C00203C00002002287FF4C7AE144B66
:101180001B7833B1134B1A68134B1A60104B0022B3
:101190001A70104B1B68104A12689B1A40F6C41252
:1011A000934208D80D4B022283F8222040F6B83231
:1011B0001A840023AAE6094B032283F82220002286
:1011C0001A84074B02221A700123014A13709DE60C
:1011D00006000020100C0020C40400203C00002069
:1011E0000500002070B50D469DF810600599012995
:1011F00007D045490968032918D8DFE801F00E191E
:10120000495B0024414B1C70414B1C700846FFF7A2
:1012100065FE3D4B1C60032408E03E4A537843F0D2
:10122000340353700131384B19600024204670BDDF
:1012300036490978012910D03AB100210120FFF781
:101240004DFE324B18700024F0E700210846FFF7EE
:1012500045FE2E4B18700024E8E762B123B12D4AF9
:10126000537823F02003537056B12A4A537823F061
:101270001003537004E0274A537803F0CB035370F4
:101280000024224B1C70204A136801331360CDE701
:101290001E4B1B78012B06D100241C4B1C70013106
:1012A000194B1960C2E70021FFF718FE174B1870A1
:1012B0000024BBE716490978012908D03DB1002177
:1012C0002846FFF7BDFD124B18700124AEE762B14E
:1012D00023B1104A537823F02003537056B10D4ABE
:1012E000537823F01003537004E00A4A537803F054
:1012F000CB0353700023064A1370044A1370024A4A
:101300001360022492E700BFBC03002021030020E9
:10131000CF0400202C0000202DE9F04782B00446C5
:101320000E469A4603287FD8DFE800F00221405F8E
:101330008A494B7B887B03EB0023C87B03EB00438C
:10134000097C03EB016386490D681D44002E6ED0B5
:10135000012E03D0022E06D0002769E05B420B600D
:1013600000273D4664E07F4B1F68EF1B60E07B4930
:101370004B7C887C03EB0023C87C03EB0043097D96
:1013800003EB016376494D681D44002E73D0012E96
:1013900003D0022E06D000274AE05B424B600027B4
:1013A0003D4645E06F4B5F68EF1B41E06B498B7832
:1013B000C87803EB0023087903EB0043497903EB7A
:1013C000016367498D681D44002E56D0012E03D05D
:1013D000022E06D000272BE05B428B6000273D46A3
:1013E00026E0604B9F68EF1B22E05C498B79C8794F
:1013F00003EB0023087A03EB0043497A03EB016314
:101400005749CD681D44002E39D0012E03D0022E3D
:1014100006D000270CE05B42CB6000273D4607E08A
:10142000504BDF68EF1B03E000273D4600E000273C
:10143000022E26D04B4B43F824504B4B19684B4A95
:1014400042F824101A684A4BA3FB02135B0964217B
:1014500001FB1323092B08D8012E06D0454B1B682E
:10146000022B57DC0133434A1360022E61D0284619
:1014700002B0BDE8F0870027DAE70027D8E70027A9
:10148000D6E740F2DB539A421EDD1046FEF7B2FF6C
:101490000022394BFFF742F980468946324B1868E3
:1014A000324B53F82430C01AFEF794FF02460B4625
:1014B00040464946FFF708F8FFF7A0FA844677B997
:1014C000284B43F82450B8E7274B1B68274A52F8AB
:1014D00024209B1A4FF0320C0CFB03FCEFE787EA49
:1014E000E773A3EBE773634510DD00231D4A42F861
:1014F000243004E0214A1A44092151700133072B9A
:10150000F8DD01238AF80030002796E7154B43F8F1
:10151000245092E71348836842680168CDF804C0FC
:10152000C0680090164809F0DDFC124B00221A60DA
:101530009BE70D4B1A680E4BA3FB02135B0964215A
:1015400001FB1323092B01D93D4690E72B463A4670
:1015500021460C4809F0C6FC3D4688E7680000209B
:101560000C03002030040020100C00202004002078
:101570001F85EB51B40300200000344030000020F0
:10158000A4D80008DCD800082DE9F04F89B0064641
:101590008A46CDE90423DDF84880149C9DF8545018
:1015A000AB1EDBB2012B1DD9D4E90223D8E902011D
:1015B000FEF7D2FD029021F00047D4E90423CDE9E3
:1015C0000023A44B1A68A44BA3FB02135B096421FC
:1015D00001FB1323092B1FD9032D4CD8DFE805F09D
:1015E00033647D94D8E90023CDE90023D4E90012C7
:1015F000CDE9021200220023D4E90201FEF764FFC4
:10160000DDE90223FEF7A8FDDDE90023FEF7A6FDD4
:10161000029021F00047D0E7DDE900010AF04AFD21
:10162000CDE90601029839460AF044FDFFF7E6F9D4
:101630008146DDE90601FFF7E1F94A4601468748A0
:1016400009F050FCC8E7D4E90223D8E90201FEF70B
:1016500083FD04460D4600220023FFF7A7F900286A
:1016600069D10022002320462946FFF7BDF9002852
:1016700064D04FF0000B0022794B02983946FFF7F7
:10168000B3F9002800F06981BBF1010F00F0C180BF
:10169000BBF1000F67D0BBF1020F00F026810024E0
:1016A000A1462546A04672E1D4E90223D8E9020109
:1016B000FEF752FD04460D4600220023FFF776F99F
:1016C00000283ED10022002320462946FFF78CF94E
:1016D000002839D04FF0010BCDE7D4E90023D8E939
:1016E0000001FEF739FD04460D4600220023FFF7F6
:1016F0005DF960BB0022002320462946FFF774F9FC
:1017000040B34FF0010BB6E7D4E90023D8E900015C
:10171000FEF722FD04460D4600220023FFF746F99E
:10172000D8B90022002320462946FFF75DF9B8B159
:101730004FF0000B9FE74FF0010B9CE74FF0020BBF
:1017400099E74FF0000B96E74FF0020B93E74FF04D
:10175000000B90E74FF0020B8DE74FF0010B8AE78B
:101760004FF0020B87E7DDF8088042463B464046D3
:101770003946FEF7F3FC04460D460022394BFFF7CD
:101780001FF978B90022384B20462946FFF722F985
:1017900050BB0022354B40463946FEF795FE0546C4
:1017A000884602E00025DFF8CC8000220023DDE936
:1017B0000001FFF719F968B100222D4BDDE90001A6
:1017C000FEF782FE02460B4628464146FEF7C6FC5F
:1017D0000546884600220023DDE90001FFF7E6F810
:1017E00030B90024A146D2E00025DFF87C80DCE798
:1017F00000221F4BDDE90001FEF766FE02460B46A4
:1018000028464146FEF7A8FC054688460024A14626
:10181000BDE0DDF8088042463B4640463946FEF7CB
:101820009DFC04460D4600220E4BFFF7C9F818BB7D
:1018300000220D4B20462946FFF7CCF8002840D166
:1018400000220A4B40463946FEF73EFE04468946D2
:1018500015E000BF100C00201F85EB513CDA00089A
:10186000000014400000594000C0824000000840C1
:1018700000405F4000C062400024DFF85492002224
:101880000023DDE90001FFF791F8F0B90022002301
:10189000DDE90001FFF7A8F8002800F0E180002250
:1018A000854BDDE90001FEF70FFE024621F0004303
:1018B00020464946FEF750FC044689460025A846C6
:1018C00065E00024DFF80C92D9E700227A4BDDE9CD
:1018D0000001FEF7F9FD024621F00043204649468B
:1018E000FEF73CFC04468946D0E700220023DDE9F0
:1018F000004520462946FFF777F880B16AA3D3E96F
:10190000002320462946FEF7DFFD69A3D3E9002323
:10191000FEF724FC054688460024A14637E0002255
:101920000023DDE90001FFF741F820B90024A146BA
:101930002546A0462BE05CA3D3E90023DDE90001A6
:10194000FEF7C2FD5AA3D3E90023FEF707FC0446C5
:1019500021F000490025A84619E000220023DDE916
:10196000004520462946FFF73FF800285AD04EA3ED
:10197000D3E9002320462946FEF7A6FD4CA3D3E970
:101980000023FEF7EBFB054688460024A146002213
:101990004A4B284628F00041FFF726F850B10022B4
:1019A000002328464146FFF71FF800285BD000259A
:1019B000DFF808810022414B204629F00041FFF763
:1019C00013F850B10022002320464946FFF70CF8D7
:1019D00000284CD00024DFF8E4900022384BDDE9E9
:1019E0000401FEF79BFECDE904012A464346FEF7BB
:1019F0006BFDC6E9000122464B46DDE90401FEF716
:101A000063FDCAE900012F4B1A682F4BA3FB021399
:101A10005B09642101FB1323092B2CD9002009B099
:101A2000BDE8F08F00220023DDE90001FEF7BEFFD4
:101A300020B90024A1462546A046A8E71AA3D3E969
:101A40000023DDE90001FEF73FFD19A3D3E90023E0
:101A5000FEF784FB044621F000490025A84696E7DE
:101A60000025A84693E70025DFF86C80A2E7002454
:101A7000DFF86490B1E7DDE900010AF01BFB0446E2
:101A80000D46029839460AF015FBFEF7B7FF0646E9
:101A900020462946FEF7B2FF5B46324601460B4818
:101AA00009F020FABAE700BF0000000000C0624061
:101AB0000000000000C0524000405F4000908A409B
:101AC00000408F40100C00201F85EB515CDA0008AD
:101AD00000C0624000C0824000908AC010B5022160
:101AE000002009F0DFF840B1084B00241C810322DC
:101AF0009A7209F0BFFB204610BD044B4FF461728F
:101B00001A8101229A724FF0FF30F5E73C00002065
:101B100010B50121002009F0C5F840B1084B0024A0
:101B20005C8003221A7109F09FFB204610BD044B14
:101B30004FF461725A8001221A714FF0FF30F5E7BD
:101B40003C000020000000002DE9F04FB9B08246B3
:101B50000F46A94C4822214626A80BF015FE9022DC
:101B600004F1480102A80BF00FFE00240094019438
:101B700000E00134082C1EDC9BA3D3E9002338A924
:101B800001EBC40555E93601FEF79EFC45E9360137
:101B9000022CEEDD0020994938AB03EBC40343E986
:101BA000360104F1090338AA02EBC303002094496B
:101BB00043E93601DDE71FB902230193009CBDE034
:101BC000012F06D0022FF9D10123009302230193A4
:101BD000F4E701230193F1E709F03AFB0646B6E08A
:101BE00009F03CFB0646B2E0002DB8BF6D42C5F5DA
:101BF0000065C2E004EBC4031A440CEBC20252E9D4
:101C0000368900284EDD404649460AF053FAFEF771
:101C1000F5FE04EB44035A007A4B1344588000222B
:101C2000002340464946FEF7B7FE80B304EB440369
:101C30005A00744B134403221A71734B01221A5534
:101C4000002F58D1704B1B78002B66D06E4B5B7801
:101C5000002B40F099804FF0000B60E00132082A21
:101C6000CFDC80EAE071A1EBE07104EBC403134424
:101C70000DF1E00C0CEB830353F8483C9942B9DAC0
:101C8000082AEBD14FF000084FF00009E6E704EB1B
:101C900044035A005B4B134401221A715A4B002231
:101CA0001A55CDE7404649460AF004FAFEF7A6FE6B
:101CB00004EB44035A00534B134458800022002382
:101CC00040464946FEF768FE50B104EB44035A0013
:101CD0004C4B134403221A714B4B01221A55AFE7A8
:101CE00004EB44035A00474B134402221A71464B3B
:101CF00000221A55A4E7012F08D0022F0FD1424B22
:101D00005B78002B46D04FF0010B08E03E4B1B7870
:101D1000002B3CD04FF0010B01E04FF0000B3B4B90
:101D20001A683B4BA3FB02135B09642101FB1323DD
:101D3000092B02D88CB3012C40D00134019BA34263
:101D40004DDD002C3FF448AF012C3FF449AF734206
:101D5000C6F30A05C3F30A0358BF5D425046FEF7B7
:101D600049FB23A3D3E90023FEF7AEFB0AF0A2F957
:101D7000FEF744FE002DFFF637AF4FF40062294610
:101D8000FEF7E0FF00226AE74FF0010BC7E74FF0D4
:101D9000000BC4E74FF0000BC1E72846FEF72AFB13
:101DA00000221C4BFEF790FB0AF084F9FEF726FE9A
:101DB00052460146184809F095F8BEE72846FEF756
:101DC00019FB0022134BFEF77FFB0AF073F9FEF7B5
:101DD00015FE52460146114809F084F8ADE7584611
:101DE00039B0BDE8F08F00BF713D0AD7A370ED3F59
:101DF000176CC1166CC11640B8D7000800B08D40F2
:101E000000208C403C000020C0030020100C00206B
:101E10001F85EB510080C63F14DB000830DB000853
:101E200038B5294B1B780BBB284B1B782BB90121EC
:101E3000E120FFF789FE254B1870244B5B782BB906
:101E40000221DC20FFF780FE204B58701F4B1B78CF
:101E5000012B34D11D4B5B78012B32D11A4B01225F
:101E60001A701A4B00201870587038BD04460121B2
:101E7000E120FFF769FE0221DC20FFF765FE6569BE
:101E80000022134B206925F00041FEF799FD58B15F
:101E9000104B01221A749A754FF4FA62DA8140F6F7
:101EA00098029A820020E0E70A4B03221A749A757E
:101EB0000022DA819A82044B1A700120D5E70020B3
:101EC000D3E70020D1E700BFA5030020980400203D
:101ED000004066403C0000202DE9F04F9FB00446D2
:101EE0001E469DF8A4709DF8A85000238DF81F3061
:101EF0008DF81E308DF81D308DF81C308DF81B309C
:101F0000012900F08D80002A40F0B080B64B1B788C
:101F1000002B37D1B54BA4A1D1E90001C3E90001E1
:101F2000A3A1D1E90001C3E90201A3A1D1E9000104
:101F3000C3E90401A2A1D1E90001C3E906014FF000
:101F40000008DFF8B892C3E9088900200021C3E93E
:101F50000A01C3E90C89C3E90E019BA1D1E9000183
:101F6000C3E910019AA1D1E90001C3E912010FF2FE
:101F70006829D9E90089C3E91489C3E916019A4B94
:101F800001221A709A4B988ADB891844FEF732FABC
:101F90000022984BFEF798FAFEF730FD0646002F18
:101FA00040F097800025032D7FDC0DF11B033246A6
:101FB00002212846FFF7B0F91EAB03EB850343F877
:101FC000580C0135EFE7CA00A31800260027C3E923
:101FD0000067894B1344C3E9006701310229F2DD30
:101FE0000DF11A03002201210846FFF795F90DF1C2
:101FF0001A03002201210320FFF78EF90DF11A03C5
:10200000002201211046FFF787F90DF11A03002283
:1020100001210220FFF780F900201FB0BDE8F08FFA
:102020000021DBE7D7E90001734B03EBC503C3E9EC
:1020300000010135022D1BDC735D002BF9D0EB0094
:10204000289AD7182344D7E90001C3E90001012DDC
:10205000E8D863A3D3E90023D7E90001FEF734FAF7
:10206000654B03EBC503C3E90001E2E70025E1E7A7
:102070000DF11A03002201210846FFF74DF90DF179
:102080001A03002201210320FFF746F90DF11A037C
:10209000002201211046FFF73FF90DF11A0300223B
:1020A00001210220FFF738F9B6E79DF81B3073B91C
:1020B00000275DE11EAA02EB8302002142F8581CB2
:1020C0000133032BF6DD00238DF81B30F0E70023EE
:1020D000F7E7032DECD8DFE805F0ABAB02020DF11A
:1020E0001F03024602210020FFF716F9054608905B
:1020F0000DF11E03002202210120FFF70DF90990C6
:102100000DF11D03324602210846FFF705F9064688
:102110000A9007AB002202210320FFF7FDF80B9085
:102120009DF81E3043BB9DF81C306BBB9DF81F30E3
:1021300093BB9DF81D30002B62D19DF81E2012B973
:102140009DF81C3013B1002309930B939DF81F30A9
:10215000002B5DD09DF81D10002959D108963BB980
:102160009DF81D3023B99DF81C300BB9002A9FD073
:1021700001232B9A13709BE70DF11A030022012112
:102180000846FFF7C9F8CEE70DF11A030022012136
:102190000320FFF7C1F8C9E70DF11A03002201215E
:1021A0001046FFF7B9F8C4E70A5D4647DB93ACBFBA
:1021B0007362E6D02773E1BF0A5D4647DB93AC3F0D
:1021C0001A3B335EB019DD3FCD7E4F03344AD33F17
:1021D0004A1B3DA0F550CF3FCD7E4F03344AD3BFBD
:1021E00004B6B7E795294B40B1030020280300202F
:1021F0003C0000200000E03F080400200000E0BF99
:102200000DF11A03002201210220FFF785F894E75F
:1022100023B99DF81D1009B10A95A0E7002B9ED0A7
:102220009DF81D1000299AD0002108910A9196E787
:102230000DF11F03002202211046FFF76DF80890F0
:102240000DF11E03324602210120FFF765F8074613
:1022500009900DF11D03002202210846FFF75CF8EA
:102260000A9007AB324602210320FFF755F80546D6
:102270000B909DF81E303BBB9DF81C3063BB9DF856
:102280001F308BBB9DF81D30B3BB9DF81D2012B9CC
:102290009DF81F3013B1002308930A939DF81C305A
:1022A00093B39DF81E1079BB7F420B979DF81F10CA
:1022B00031B92AB923B99DF81E30002B3FF4F8AE8E
:1022C00001232B9A1370F3E60DF11A03002201216A
:1022D0000846FFF721F8CFE70DF11A03002201218C
:1022E0000320FFF719F8CAE70DF11A0300220121B4
:1022F0001046FFF711F8C5E70DF11A03002201217E
:102300000220FFF709F8C0E72BB99DF81E1011B1A4
:102310006D420995CAE7002BC8D09DF81E10002910
:10232000C4D0002109910B91C0E705EB8702A44BB3
:1023300003EBC203D3E900891EAB03EB850353F81B
:10234000580CFEF757F802460B4640464946FEF742
:10235000BBF802460B461EA901EBC70656E906016B
:10236000FDF7FCFE46E906010135032DDDDD0137F1
:10237000022F08DC002000211EAB03EBC70343E95A
:1023800006010025F1E78F4BD3E90467DDE91C2343
:1023900030463946FDF7E2FECDE916017EA3D3E9CA
:1023A000002330463946FEF78FF87DA3D3E900239A
:1023B000FEF78AF87CA3D3E9002309F011FF8146D8
:1023C000884677A3D3E90023484628F00041FEF76A
:1023D00001FB80B10022002348464146FEF7FAFA8D
:1023E00000285CD070A3D3E9002348464146FDF79E
:1023F000B3FE81468846734DD5E90067DDE918AB29
:102400004846414609F00EFECDE9000102460B4662
:1024100050465946FEF758F802460B4630463946B4
:10242000FDF79CFECDE90401DDE91A674846414607
:1024300009F08EFE02460B46CDE9022330463946AE
:10244000FEF742F802460B46DDE90401FDF786FE81
:10245000CDE91201D5E90289DDE90223504659464A
:10246000FEF732F802460B4640464946FDF774FE39
:102470008046894632463B46DDE90001FEF724F8F6
:1024800002460B4640464946FDF768FECDE9140179
:10249000032212A92846FEF789FC002516E042A374
:1024A000D3E9002348464146FDF758FE8146884659
:1024B000A1E71EAB03EBC5063DA3D3E9002356E914
:1024C0000C01FEF701F846E912010135012DF0DD9E
:1024D00039A3D3E90023DDE91601FDF7F5FFCDE9C6
:1024E00010010022384B09F07BFE06460D460246DD
:1024F0000B46CDE910230022344B304625F0004135
:10250000FEF768FA78B10022002330462946FEF72C
:1025100061FA002835D000222B4B30462946FDF7C2
:102520001BFECDE9100103220CA92046FEF73EFC5C
:10253000274B1A68274BA3FB02135B09642101FB9D
:102540001323092B3FF668ADD4E90067D4E902896B
:102550000022214BD4E90401FDF7B6FFFEF74EFA45
:10256000054640464946FEF749FA04463046394694
:10257000FEF744FA2B4622460146184808F0B2FC02
:102580004AE50022104B30462946FDF7E7FDCDE92C
:102590001001C8E7AFF30080682FA1BD84F6F23EBA
:1025A000182D4454FB210940182D4454FB21194097
:1025B000D221337F7CD9923FABAAAAAAAAAA6A3FAA
:1025C0002803002008040020008076400080664038
:1025D000100C00201F85EB5100005940E8DA00087C
:1025E0002DE9F04F8FB082468B46CDE904230023BE
:1025F0008DF81B30D0E9004522462B467849D1E9B9
:102600000001FEF7C9F9C0B1DAE902237449D1E942
:102610000201FEF7C1F980B1DBE900237149D1E97C
:102620000001FEF7B9F940B1DBE902236D49D1E9B8
:102630000201FEF7B1F9002833D16B4B01221A7069
:10264000674BC3E90045DAE90289C3E90289DBE99E
:102650000001644BC3E90001DBE90267C3E90267DB
:1026600022462B46FDF778FD04460D460022002346
:10267000FEF792F930B342464B4630463946FDF7F5
:102680006BFD00220023FEF7A5F9B8B1574B0222DB
:102690001A70002200235649C1E900235549C1E9B7
:1026A0000023514B1B78002B00F091804F4B1B787F
:1026B000032B28D8DFE803F0556C21404B4B032255
:1026C0001A70E6E742464B4630463946FDF744FD70
:1026D00000220023FEF760F90028DAD00022002350
:1026E00020462946FEF776F918B1404B00221A70B1
:1026F000CFE73E4B01221A70CBE73F4B1B786BB103
:102700003D4B5B788BB13C4B1B78012B40F07D81BE
:10271000394B5B78012B52D004243DE10121B420D8
:10272000FFF712FA344B1870EAE70221AF20FFF7E7
:102730000BFA314B5870E6E72F4B1B7853B12E4BF9
:102740005B78002BDFD10221AF20FFF7FDF92A4B88
:102750005870D8E70121B420FFF7F6F9264B18701E
:10276000EDE7254B1B785BB1234B5B78002BCAD17F
:10277000022140F20910FFF7E7F91F4B5870C2E73A
:1027800001214FF48770FFF7DFF91B4B1870EBE75F
:10279000194B1B785BB1184B5B78002BB3D102212E
:1027A00040F20910FFF7D0F9134B5870ABE7012145
:1027B0004FF48770FFF7C8F90F4B1870EBE7002351
:1027C000094A13700C4A137053700424E4E0074B59
:1027D0001B78032B1AD8DFE803F0A6B1119D00BFC8
:1027E0004004002060040020A0030020B803002063
:1027F00088040020A8030020940400200121B320B5
:10280000FFF7A2F90221B020FFF79EF986480DF1EB
:102810001B030393854B1B780293012301930090C4
:1028200007AB00221146FFF757FB9DF81B3023B181
:102830007F4B01221A707F4B1B687C4E33787A4D98
:1028400003939DF860300293DDE90434CDE9003450
:102850002B465A4651460CA8FEF70EF9044633782B
:1028600003930295CDF804B0CDF800A0DDE90C2368
:1028700008A90AA8FEF788FEDDE90C67DDE90A234E
:1028800030463946FDF76AFC804689466A4BC3E903
:102890000089DDE9082330463946FDF75FFC06462E
:1028A0000F46664BC3E900670022002340464946B5
:1028B000FEF77CF800284CD1002200233046394630
:1028C000FEF774F800284AD155A3D3E900235A49EA
:1028D000D1E90001FEF788F828B1574B50A1D1E9A2
:1028E0000001C3E900014EA3D3E900235349D1E914
:1028F0000001FEF779F828B1504B49A1D1E9000158
:10290000C3E90001494B1B78032B43D8DFE803F0F0
:102910005F2D2D5F0121B420FFF716F90221AF20B2
:10292000FFF712F972E701214FF48770FFF70CF9F6
:10293000022140F20910FFF707F967E701214FF480
:102940008770FFF701F9022140F20910FFF7FCF848
:102950005CE7394B00200021C3E90001ACE7374BAD
:1029600000200021C3E90001AEE7354D01232B749F
:102970000223AB75304BD3E9000109F09BFBFEF756
:102980003DF8E8812D4BD3E9000109F093FBFEF7F8
:1029900035F8A882032C30D0264B1A68294BA3FBAC
:1029A00002135B09642101FB1323092B0BD8204B75
:1029B0001B7863B3244808F095FA9DF81B3053BB8D
:1029C000224808F08FFA20460FB0BDE8F08F1C4D6A
:1029D00002232B740123AB75184BD3E9000109F0D6
:1029E00069FBFEF70BF8E881134BD3E9000109F00E
:1029F00061FBFEF703F8A882CCE7114B0022DA81D5
:102A00009A8203221A749A75C6E70424C4E7104810
:102A100008F068FAD1E70F4808F064FAD3E700BF7E
:102A2000000000008087C340F0030020B8030020AE
:102A300092030020100C002088040020A80300202E
:102A40003C0000201F85EB5188DA0008D4DA00082A
:102A5000A4DA0008C0DA000808B505F02DF8002057
:102A600008BD000000000000F0B58FB0964B9B78C9
:102A700013F0400F02D1954B01221A70924B9A78B5
:102A80005A789B7813F0100F02D1914B01221A70E3
:102A90008D4B9B7803F00303032B04D08A4B9B7868
:102AA00013F0010F02D18B4B01221A70864B9B78D9
:102AB00003F00303032B01D0834B9B78824B9B785D
:102AC00003F00C030C2B04D07F4B9B7813F0040F06
:102AD00002D1814B01221A707B4B9B7803F00C03CF
:102AE0000C2B04D0784B9B7813F0080F02D17B4B52
:102AF00001221A70744B5A785A785A785B784FF4DE
:102B00000061002008F0CEF810B1754B01221A7058
:102B10002021022008F0C6F810B1724B01221A7071
:102B20004FF48051002008F0BDF810B16E4B012227
:102B30001A704FF48071022008F0B4F810B16B4B9A
:102B400001221A704FF40061002008F0ABF850B970
:102B5000634B1B783BB1664B01221A700023654A18
:102B600013705F4A13704FF48071022008F09AF8D6
:102B700050B95E4B1B783BB100235D4A13705D4A30
:102B800001211170594A13705A4B1B78002B79D1CF
:102B90004D4B9B7803F00303032B13D04A4B9B78D8
:102BA00013F0010F0ED04B4B1B785BB1524A1368E8
:102BB00001331360042B02DD134600221A60454BDB
:102BC00000221A70404B9B7803F00C030C2B07D0AB
:102BD0003D4B9B7813F0040F02D03F4B1B783BB961
:102BE0002021022008F05EF898B93E4B1B7883B193
:102BF000424B1B780B2B52D00133404A13700023F9
:102C00003B4A13703B4A01211170334A1370354A15
:102C100013702D4B9B7803F00C030C2B07D02A4B21
:102C20009B7813F0080F02D02C4B1B7843B94FF45C
:102C30008051002008F036F890B92B4B1B787BB1FF
:102C40002E4B1B787BBB2D4B0B221A700023284A7E
:102C50001370284A01211170204A1370224A137000
:102C6000264B1B780B2B55D8DFE813F0DC25B5007D
:102C7000E1000E019906F70E9E0E450E500F291B1E
:102C80002100A1000121022008F00CF818B91C4B0A
:102C900001221A707CE71A4B00221A7078E7174B52
:102CA00000221A70ABE7013B144A1370CEE7114BB8
:102CB0001B786BB3124B1B78012B25D043BB114BF8
:102CC0000422DA711A7223E0140C00208803002019
:102CD000CC040020CE04002090040020B00300208B
:102CE000D0030020CF030020CD030020CE0300201E
:102CF000A603002001000020240300200300002080
:102D0000A2030020300000209B4B0222DA711A72CD
:102D1000FEF730F8994B1B78002B04F0B485984BE4
:102D20005B7813F0080F04D0954B5B7813F0020F1B
:102D300005D14FF48071022007F0B4FF38BB0DF1CC
:102D40001703002201211046FEF7E6FA0DF11703E2
:102D5000002201210846FEF7DFFA0DF117030022D9
:102D600001210220FEF7D8FA0DF1170300220121FC
:102D70000320FEF7D1FA83480DF1160303930022D6
:102D80000292019200900DAB0121FFF7A5F87E4B56
:102D90001A687E4BA3FB02135B09642101FB13231A
:102DA000092B44F28285002318460FB0F0BD784B02
:102DB0001B786BB1774B1B78012B05D043B96E4B59
:102DC0000422DA711A7203E06B4B0222DA711A7272
:102DD000FDF7D0FF9EE76E4B1B78ABB16D4B1B78B8
:102DE000012B06D053B9644B0C22DA710A221A72F5
:102DF00004E0614B0C221A720A22DA710220FDF7FC
:102E0000E5FF654B01221A70644B1B78002B81D0C3
:102E1000614B1B78002B3FF47DAF0020FDF7D6FF00
:102E200002287FF477AF5C4B00221A7072E7584B90
:102E30001B78ABB1574B1B78012B06D053B94E4BC7
:102E40000C22DA7108221A7204E04B4B0C221A721F
:102E50000822DA710220FDF7B9FF4F4B01221A70E8
:102E60004E4B1B78002B3FF455AF4B4B1B78002B80
:102E70003FF450AF0120FDF7A9FF02287FF44AAFCD
:102E8000454B00221A7045E7414B1B78D3B9434BA1
:102E90001B78002B3FF43EAF414B1C680E2C3FF6D5
:102EA00039AFDFE814F08B00E000B30142025702B3
:102EB000B3020F0357039F03BB03E6033904550412
:102EC000E3043405374A537803F0C30353700DF11C
:102ED0001703002201211046FEF71EFA0DF1170319
:102EE000002201210846FEF717FA0DF11703002210
:102EF00001210220FEF710FA0DF117030022012133
:102F00000320FEF709FA1F480DF11603039300246E
:102F10000294019400900DAB22460121FEF7DCFFE4
:102F2000214B1C60214B1C600125214B1D70214B46
:102F30001C70214B1C70FDF71DFF194B1C602946AE
:102F40002846FDF7CBFF01950094234622462146F3
:102F50000220FEF747F90F4B1B78AB4207D0002B3E
:102F600095D1054B0122DA710C221A728FE7024BC0
:102F70001D720C22DA718AE7300000200300002065
:102F8000140C0020D8030020100C00201F85EB51EA
:102F900001000020A2030020A1030020A6030020BE
:102FA000C40300202C000020C80300208C03002054
:102FB0000200002020030020A3030020A64B1B7862
:102FC000002B3AD0A5480DF116030393002102917E
:102FD000019100900DAB0A46FEF77EFFA04900224A
:102FE0000023C1E90023C1E902239E49C1E900236E
:102FF00093A3D3E90023C1E9022304E09A4B2344BD
:1030000003225A700134072CF8DD934B00221A700A
:10301000964B1B78002B7FF47DAE0022019200922C
:1030200013464FF0FF310420FEF7DCF802287FF44E
:1030300071AE8E4B01221A706CE60123019300934E
:1030400081A3D3E9002387498548FFF7C9FA884B54
:1030500018700328DCD1804B01221A70854A13684E
:1030600001331360D4E77C4B1B7843BB824B1B6856
:10307000824A12689B1A40F6C3118B424ED97E4B8E
:103080001B689B1A40F6AB518B4270D97A4B1B6878
:103090009B1A41F2931293424BD80121F020FEF784
:1030A00053FD0221EB20FEF74FFD754B02221A74EF
:1030B00001229A7540F6AC52DA819A8239E0674D66
:1030C0000DF11603039300240294019400950DABB7
:1030D000224621462846FEF7FFFE614B00200021D4
:1030E000C3E90001D5E90201C3E902015D4B0026F5
:1030F000644FC3E90067C3E90201234604E05A4A6A
:103100001A44022151700133072BF8DD524B002283
:103110001A70594B1A68594B1A6013E00123019336
:1031200000930022574B4F494D48FFF759FA504B37
:103130001870514B1B68514A12689B1A41F2931246
:1031400093422DD8494B1B78002B7FF4E3AD00222E
:103150000192009213464FF0FF310420FEF742F82F
:1031600002287FF4D7AD414B01221A70D2E5464ABE
:10317000537843F00803537001214FF49670FEF723
:10318000E3FC022140F22710FEF7DEFC3C4B02225A
:103190001A7401229A7540F6AC52DA819A82C8E715
:1031A000374B03221A749A750024DC819C82304BC1
:1031B00004221A70314B1C60FDF7EEFD01258DF8DD
:1031C00034508DF835508DF8365000222F4BCDE914
:1031D00006231BA3D3E90023CDE908230022002303
:1031E000CDE90A230DF1160303930294019406AB73
:1031F00000930DAB2A4621461848FEF76DFE164B8C
:103200001D701C4A13682B4413609BE7174B1B78F7
:10321000002B3DD0104B1B78002B48D1144B1B7852
:10322000032B72D001230193009309A3D3E9002358
:103230000C490B48FFF7D4F90D4B18706AE500BF35
:1032400000000000000CB740000000000094B140F6
:10325000000000000070A74002000020D8030020FA
:10326000A0040020B004002030000020A3030020B0
:1032700004000020C4030020100C00208C03002058
:103280003C00002000409F402C00002000006940CE
:1032900000220192009213464FF0FF310420FDF707
:1032A000A1FF0228B6D19E4B01221A70B2E79D4DB4
:1032B0000DF11603039300240294019400950DABC5
:1032C000224621462846FEF707FE974B00209749E5
:1032D000C3E90001D5E90201C3E90201944B88A7C3
:1032E000D7E90067C3E90067C3E90201234604E0A8
:1032F000904A1A44042151700133072BF8DD002352
:103300008D4A13708D4A137004E5854B1B78002B92
:103310003FF400AD884B01221A70894A13680133CB
:1033200013607F4B00221A70F4E4864B1B78012B4C
:1033300006D000210220FDF7D1FD824B1870E9E490
:103340007D4B01221A7014447D4B1C607D4B002282
:103350001A70DFE4784B1B78A3B9784B1B78032BEA
:103360003FD001230193009367A3D3E90023704961
:103370006D48FFF735F9714B1870734B1A68734B32
:103380001A60C7E4674D0DF11603039300240294FD
:10339000019400950DAB224621462846FEF79CFD80
:1033A000D5E90001604BC3E9000159A7D7E90067DF
:1033B000C3E902675E4BC3E9000157A1D1E90001EF
:1033C000C3E90201234604E05A4A1A440521517018
:1033D0000133072BF8DD0023574A1370574A137047
:1033E00098E45B4A537843F030035370564B1B68A4
:1033F000564A12689B1AB3F5FA7F7FF68BAC4E4B98
:1034000001221A7014444E4B1C6083E44A4B1B7813
:10341000A3B94A4B1B78032B3FD0012301930093A0
:1034200039A3D3E9002342493F48FFF7D9F8434B7A
:103430001870454B1A68454B1A606BE4394D0DF115
:103440001603039300240294019400950DAB2246C9
:1034500021462846FEF740FDD5E90001324BC3E97D
:1034600000012DA7D7E90067C3E90267304BC3E924
:10347000000127A1D1E90001C3E90201234604E0CC
:103480002C4A1A44062151700133072BF8DD002322
:10349000294A1370294A13703CE42D4A537843F0AB
:1034A00004035370284B1B68284A12689B1AB3F513
:1034B000FA7F7FF62FAC204B01221A701444204B68
:1034C0001C6027E4164B1B78002B7FF423AC019380
:1034D0000122009213464FF0FF310220FDF782FED9
:1034E00002287FF417AC0E4B00221A70124B0122F7
:1034F0001A70134A1368013313600BE4AFF30080B2
:103500000000000000C899C0000000000070A74043
:1035100000000000000CB7400000000000C8B940E7
:10352000A3030020D8030020A004002000806640F0
:10353000B004002030000020020000200400002021
:10354000C403002020030020100C00201C030020D6
:103550002C000020A44B1B78002B2BD0A34D0DF189
:103560001603039300240294019400950DAB2246A8
:1035700021462846FEF7B0FCD5E900019C4EC6E97D
:103580000001D5E90223C6E902239A4BC3E90001F1
:1035900000209949C3E90201234604E0974A1A44EE
:1035A0000E2151700133072BF8DD8F4B00221A706A
:1035B000FFF7B0BB01230193009383A3D3E900235A
:1035C0008C498B48FFF70CF88D4B187003287FF45B
:1035D000A1AB854B01221A708A4A1368013313602C
:1035E000FFF798BB884B1B78012B07D000210320E5
:1035F000FDF774FC844B1870FFF78CBB834A53783B
:1036000043F020035370784B01221A7014447D4B11
:103610001C607D4B00221A70FFF77CBB724B1B783D
:1036200043B17B4B1A687B4B1A606F4B00221A70B8
:10363000FFF770BB764B1B68764A12689B1AB3F58E
:10364000967F0DD9744B032283F8222000221A841E
:10365000654B01221A7014446A4B1C60FFF75ABB79
:103660006D4B012283F8222040F6B8321A84FFF70E
:1036700051BB5D4B1B78002B36D0684A1368013371
:103680001360312B7FF746AB584D0DF116030393B2
:1036900000240294019400950DAB22462146284651
:1036A000FEF71AFC524B4AA1D1E90001C3E900011F
:1036B000D5E90201C3E902014E4B47A7D7E90067EC
:1036C000C3E90067C3E90201234604E04B4A1A44F8
:1036D0000F2151700133072BF8DD00234F4A13608F
:1036E000414A1370FFF716BB012301930023009397
:1036F00000224B4B3F493E48FEF772FF404B18708B
:1037000003287FF407AB384B01221A703D4A136837
:1037100001331360FFF7FEBA3C4A537843F0340399
:103720005370394B1B78012B07D000210220FDF785
:10373000D5FB354B1870FFF7EDBA2B4B01221A70F1
:103740001444304B1C60304B00221A70FFF7E2BA71
:10375000254B1B78A3B92A4B1B78032B70D0012370
:103760000193009300222E4B22492148FEF738FF97
:10377000234B1870264B1A68264B1A60FFF7CABAFB
:103780001A4D0DF116030393002402940194009541
:103790000DAB224621462846FEF79EFBD5E90001E7
:1037A000134BC3E900010026134FC3E90267114B15
:1037B000C3E900010AA1D1E90001C3E902012346DE
:1037C00035E000BFAFF30080000000000070A740AC
:1037D0000000000000C899C0000000000064A9C0FB
:1037E00000000000000CB74002000020D8030020B9
:1037F000A0040020B00400200000B94030000020E8
:1038000004000020C4030020200300202C0000201E
:10381000100C00201C0300203C000020C8030020E6
:1038200000409F40A84A1A44062151700133072BDB
:10383000F8DD0023A54A1370A54A1370FFF76ABA92
:10384000A44A537823F008035370A34B1B68A34A80
:1038500012689B1AB3F5FA7F7FF65CAA9B4B012294
:103860001A7014449E4B1C60FFF754BA974B1B7898
:10387000002B35D09B4A136801331360632B7FF70D
:1038800049AA994D0DF11603039300240294019463
:1038900000950DAB224621462846FEF71DFB934BB3
:1038A00083A1D1E90001C3E90001D5E90201C3E91F
:1038B00002018F4B00260027C3E90067C3E902011C
:1038C000234604E0804A1A440F2151700133072B2C
:1038D000F8DD0023834A13607C4A1370FFF71ABA9D
:1038E0000123019300930022824B81497F48FEF718
:1038F00077FE774B187003287FF40CAA734B0122D4
:103900001A70774A136801331360FFF703BA6F4BDD
:103910001B78002B2CD0744D0DF11603039300245B
:103920000294019400950DAB224621462846FEF7ED
:10393000D3FAD5E900016D4BC3E900015EA7D7E9D1
:103940000067C3E902676A4BC3E900010020002158
:10395000C3E90201234604E05B4A1A440E21517078
:103960000133072BF8DD594B00221A70FFF7D2B94B
:1039700001230193009300225E4B5D495B48FEF7F3
:103980002FFE534B187003287FF4C4A94F4B01221C
:103990001A70534A136801331360FFF7BBB9564BD3
:1039A0001B78C3B9554B1B78002B3FF4B3A94C4B84
:1039B0001C680C2C3FF6AEA9DFE814F05700DF00BE
:1039C00018029502F30280031604C4042005B6050C
:1039D0006306BF0628070DF11703002201211046D8
:1039E000FDF79AFC0DF11703002201210846FDF7AF
:1039F00093FC0DF11703002201210220FDF78CFC3E
:103A00000DF11703002201210320FDF785FC364844
:103A10000DF11603039300240294019400900DAB62
:103A200022460121FEF758FA2E4B1C60344B1C60D5
:103A30000125264B1D70334B1C70334B1C70334BD0
:103A40001C70FDF797F9264B1C6029462846FDF7A8
:103A500045FA019500942346224621460220FDF7AF
:103A6000C1FB194BDD711D729CE7184B1B78002BB5
:103A70006DD01D480DF116030393002102910191B1
:103A800000900DAB0A46FEF727FA184900220023E2
:103A9000C1E90023C1E902231549C1E9002308A3B4
:103AA000D3E90023C1E9022337E000BFAFF3008070
:103AB000000000000064A9C000000000000CB74036
:103AC000000000000078AE4030000020020000201E
:103AD000040000202C000020100C00201C030020FB
:103AE000C4030020C8030020D8030020A004002045
:103AF000B00400200040AF4001000020A6030020D9
:103B00008C03002020030020A3030020A403002036
:103B1000A74B234403225A700134072CF8DDA54B30
:103B200000221A70A44B1B78002B7FF4F3A800220C
:103B300001920092134601210220FDF753FB022857
:103B40007FF4E8A89C4B01221A70FFF7E3B8012329
:103B50000193009390A3D3E9002398499848FEF776
:103B60003FFD984B18700328DCD1924B01221A704C
:103B7000954A136801331360D4E78E4B1B786BBBF7
:103B8000924B1B68924A12689B1A40F6C3118B42F3
:103B90006AD98E4B1B689B1A40F6AB518B4240F2A0
:103BA0008C808A4B1B689B1A41F29312934266D811
:103BB0000121F020FDF7C8FF0221EB20FDF7C4FF33
:103BC000844B1B78012B00F09880002B40F09A80EA
:103BD000814B02221A7401229A7593E07F480DF1FD
:103BE0001603039300210291019100900DAB0A4648
:103BF000FEF772F9774B1B78012B12D01BBB704B71
:103C000000200021C3E90001744AD2E90201C3E99E
:103C100002016A4B0024724DC3E90045C3E9020169
:103C200011E0674B00200021C3E900016B4AD2E993
:103C30000201C3E90201614B59A5D5E90045C3E979
:103C40000045C3E902010023072B05DC584A1A444A
:103C5000022151700133F7E7564B00221A705B4B7B
:103C60001A685B4B1A6013E0012301930093002252
:103C70005B4B52495248FEF7B3FC524B1870534B02
:103C80001B68534A12689B1A41F2931293423FD821
:103C9000494B1B78002B7FF43DA800220192009233
:103CA000134601210220FDF79DFA02287FF432A875
:103CB000414B01221A70FFF72DB801214FF4967085
:103CC000FDF742FF022140F22710FDF73DFF414B77
:103CD0001B78012B06D053B93F4B02221A740122E4
:103CE0009A7504E03C4B01221A7402229A753A4BF1
:103CF00040F6AC52DA819A82C1E7374B01221A743E
:103D000002229A75344B40F6AC52DA819A82B6E7B9
:103D1000314B03221A749A750022DA819A82294B58
:103D2000042119702A4B1A60FDF736F801238DF82B
:103D300034308DF835308DF83630264B1B78012B1A
:103D400005D043B90022274BCDE9062303E000222A
:103D5000254BCDE9062314A3D3E90023CDE908239D
:103D600000220023CDE90A230DF11603039300215D
:103D70000291019106AB00930DAB01221748FEF7AB
:103D8000ABF80C4B01221A700F4A13680133136011
:103D90007EE700BFAFF30080000000000094B14058
:103DA0000000000000409FC0000000000078AE400E
:103DB0003000002002000020A3030020B0040020F7
:103DC000A004002004000020C4030020100C0020E8
:103DD0008C030020A20300203C000020D803002018
:103DE00000409F4000006940000069C0984B1B786C
:103DF0009BB1984B1B78F3B9974B1B78032B61D081
:103E00000123019300930022944B95499548FEF7B6
:103E1000E7FB914B1870FEF77DBF002201920092E4
:103E2000134601210220FDF7DDF90228E1D1884B7C
:103E300001221A70DDE78C480DF11603039300216F
:103E40000291019100900DAB0A46FEF745F8874BB1
:103E50001B78012B14D0002B24D1824B00208449E5
:103E6000C3E90001804AD2E90201C3E902017C4BA7
:103E70006FA5D5E90045C3E90045C3E9020111E09A
:103E8000784B00207B49C3E90001774AD2E902015F
:103E9000C3E90201724B68A5D5E90045C3E90045B5
:103EA000C3E902010023072B05DC734A1A440421ED
:103EB00051700133F7E70023664A1370664A1370A6
:103EC000FEF728BF624B1B78002B3EF423AF614BFB
:103ED00001221A70694A1368013313605C4B002297
:103EE0001A70FEF717BF5B4B1B78ABB95A4B1B78A8
:103EF000032B40D001230193009351A3D3E9002366
:103F000057495848FEF76CFB534B18705C4B1A68C6
:103F10005C4B1A60FEF7FEBE534D0DF11603039382
:103F200000240294019400950DAB224621462846B8
:103F3000FDF7D2FFD5E900014A4EC6E90001D5E9F7
:103F40000223C6E90223464BC3E900013EA1D1E9A1
:103F50000001C3E902012346072B05DC464A1A4447
:103F6000052151700133F7E700233A4A13703A4AAA
:103F70001370FEF7CFBE444A537843F030035370BA
:103F80003F4B1B683F4A12689B1AB3F5FA7F7EF6D7
:103F9000C1AE304B01221A701444384A1460FEF747
:103FA000B9BE2C4B1B78A3B92B4B1B78032B6FD0BE
:103FB0000123019300930022344B29492948FEF73D
:103FC0000FFB254B18702E4B1A682E4B1A60FEF70C
:103FD000A1BE254D0DF11603039300240294019414
:103FE00000950DAB224621462846FDF775FFD5E921
:103FF00000011C4EC6E90001D5E90223C6E90223EF
:10400000174BC3E9000100201449C3E9020123460C
:10401000072B05DC184A1A44062151700133F7E7D3
:1040200000230C4A13700C4A1370FEF773BE00BFD6
:104030000000000000589BC00000000000589B409A
:10404000000000000070A7400000000000F8B14030
:10405000A303002002000020040000200040AF4025
:10406000B0040020A0040020D8030020A2030020F8
:1040700000006940000069C030000020C403002037
:10408000100C00201C0300202C00002000409F404A
:104090009F4A537843F0040353709E4B1B689E4A1B
:1040A00012689B1AB3F5FA7F7EF634AE9B4B012261
:1040B0001A7014449A4A1460FEF72CBE994B1B7870
:1040C000A3B1964B1B782BBB974B1B78032B6AD065
:1040D00001230193009380A3D3E9002393499448DB
:1040E000FEF77EFA904B1870FEF714BE0022019284
:1040F0000092134601210220FDF774F8012805D033
:104100000228DED1874B01221A70DAE7894B01229F
:104110001A70F5E788480DF1160303930021029108
:10412000019100900DAB0A46FDF7D6FE834B1B783C
:10413000012B15D0002B26D17D4B69A1D1E90001BF
:10414000C3E900017C4AD2E90201C3E90201774BCD
:1041500065A5D5E90045C3E90045C3E9020112E0C0
:10416000734B63A1D1E90001C3E90001724AD2E9AE
:104170000201C3E902016D4B5FA5D5E90045C3E922
:104180000045C3E902010023072B05DC6C4A1A44F1
:10419000042151700133F7E70023604A1370624A2B
:1041A0001370FEF7B7BD5F4B1B786BB15B4B012201
:1041B0001A705B4A1368013313600023594A137065
:1041C0005C4A1370FEF7A6BD5A4B1B78002B3EF4D9
:1041D000A1AD0122514B1A7051490B6813440B6079
:1041E000544B1A70FEF796BD4E4B1B7813B9514BCA
:1041F0001B78C3B9494B1B781BBB4B4B1B78032B5C
:104200004ED00123019300933DA3D3E900234749F6
:104210004748FEF7E5F9444B18703E4B1A683E4B91
:104220001A60FEF777BD0022019200921346012129
:104230000220FCF7D7FF0228DCD13A4B01221A708A
:10424000D8E73D4D0DF11603039300240294019429
:1042500000950DAB224621462846FDF73DFED5E9E7
:104260000001334EC6E90001D5E90223C6E9022365
:104270002E4BC3E9000124A1D1E90001C3E90201E9
:104280002346072B05DC2E4A1A44052151700133C1
:10429000F7E70023214A1370234A1370FEF73ABD53
:1042A0001B4A537843F0300353701A4B1B681A4A69
:1042B00012689B1AB3F5FA7F7EF62CAD174B0122DC
:1042C0001A70174A1368013313600023194A1370D8
:1042D000144A1370FEF71EBD0000000000C8A9407C
:1042E0000000000000589BC00000000000ECA3C0CC
:1042F0000000000000589B400000000000ECA340BC
:10430000000000000070A7400000000000F8B1406D
:104310002C000020100C00201C03002002000020B4
:10432000C4030020A303002004000020B0040020E8
:10433000A0040020A4030020D8030020A203002032
:10434000300000209A4B1B78A3B99A4B1B78032BA3
:104350003ED00123019300930022974B9749984840
:10436000FEF73EF9934B1870964B1A68964B1A60FD
:10437000FEF7D0BC954D0DF1160303930024029473
:10438000019400950DAB224621462846FDF7A4FD79
:10439000D5E900018A4EC6E90001D5E90223C6E944
:1043A0000223864BC3E9000100208949C3E90201C9
:1043B0002346072B05DC874A1A4406215170013336
:1043C000F7E700237A4A13707A4A1370FEF7A2BC0B
:1043D000814A537843F0040353707A4B1B687A4A3E
:1043E00012689B1AB3F5FA7F7EF694AC704B0122EB
:1043F0001A701444794A1460FEF78CBC784B1B7811
:104400009BB16B4B1B7823BB6A4B1B78032B6AD089
:1044100001230193009300226D4B68496848FEF721
:10442000DFF8644B1870FEF775BC00220192009211
:10443000134601210220FCF7D5FE012805D00228F1
:10444000DFD1674B01221A70DBE7664B01221A703D
:10445000F5E75E480DF116030393002102910191E7
:1044600000900DAB0A46FDF737FD5F4B1B78012B23
:1044700012D013BB524B44A1D1E90001C3E90001A2
:10448000524AD2E90201C3E902014C4B40A1D1E9F1
:104490000001C3E9000110E0494B3FA1D1E900014F
:1044A000C3E90001494AD2E90201C3E90201434BD1
:1044B0003BA1D1E90001C3E90001444BD3E902016A
:1044C0003E4BC3E902010023072B05DC414A1A4495
:1044D000042151700133F7E70023354A1370354A40
:1044E0001370FEF717BC3E4B1B786BB1304B0122AB
:1044F0001A703A4A1368013313600023384A137064
:10450000384A1370FEF706BC364B1B78002B3EF47E
:1045100001AC0122264B1A7030490B6813440B6022
:10452000304B1A70FEF7F6BB2D4B1B7813B92D4B91
:104530001B78D3B91E4B1B78002B57D11D4B1B7812
:10454000032B00F0828001230193009316A3D3E98B
:1045500000231A491A48FEF743F8164B1870194BF6
:104560001A68194B1A60FEF7D5BB0022019200921F
:10457000134601210220FCF735FE0228DAD1184B40
:1045800001221A70D6E700BF0000000000ECA3C0B3
:10459000000000000064A9C00000000000ECA3407F
:1045A000000000000064A940000000000070A74067
:1045B000020000200400002000409F40B0040020C2
:1045C000A0040020100C00201C030020D8030020B1
:1045D0000040AF40300000202C000020C403002029
:1045E000A3030020A4030020A2030020A04D0DF18E
:1045F0001603039300240294019400950DAB224608
:1046000021462846FDF768FCD5E90001994EC6E928
:104610000001D5E90223C6E90223974BC3E9000153
:104620008DA1D1E90001C3E902012346072B05DC76
:10463000924A1A44052151700133F7E70023904A4A
:104640001370904A1370FEF765BB8F4A537843F09E
:10465000300353708D4B1B688D4A12689B1AB3F55B
:10466000FA7F7EF657AB00238A4A13708A4A13708A
:10467000834B01221A70894A136801331360FEF7D5
:1046800049BB7F4B1B78A3B97E4B1B78032B3ED0D5
:104690000123019300930022814B77497548FDF770
:1046A0009FFF784B1870794B1A68794B1A60FEF7A8
:1046B00031BB6F4D0DF11603039300240294019456
:1046C00000950DAB224621462846FDF705FCD5E9AD
:1046D0000001684EC6E90001D5E90223C6E90223BC
:1046E000654BC3E9000100206E49C3E9020123467E
:1046F000072B05DC614A1A44062151700133F7E7A4
:1047000000235F4A13705F4A1370FEF703BB5E4AD3
:10471000537843F0040353705C4B1B685C4A126887
:104720009B1AB3F5FA7F7EF6F5AA554B01221A7053
:1047300014445A4A1460FEF7EDBA514B1B78002B13
:104740004DD0594A136801331360312B7EF7E2AA2A
:1047500047480DF116030393002102910191009047
:104760000DAB0A46FDF7B8FB504B1B78012B14D05C
:10477000002B24D13F4B3AA1D1E90001C3E900014C
:104780003B4AD2E90201C3E902013B4B0024002568
:10479000C3E90045C3E9020111E0364B32A1D1E97A
:1047A0000001C3E90001324AD2E90201C3E9020172
:1047B000314B00240025C3E90045C3E90201002371
:1047C00004E02E4A1A440F2151700133072BF8DD03
:1047D0000023354A13602A4A1370FEF79BBA01235F
:1047E0000193009300222F4B23492248FDF7F8FE46
:1047F000244B187003287EF48DAA214B01221A70D5
:10480000264A136801331360FEF784BA1C4B1B78E9
:10481000002B59D0164D0DF116030393002402947A
:10482000019400950DAB224621462846FDF754FB26
:10483000D5E900010F4BC3E900010026194FC3E978
:1048400002670D4BC3E9000100200021C3E902010A
:10485000234632E0AFF300800000000000F8B140D2
:104860000000000000C8A9C00000000000C8A94066
:10487000D8030020A0040020B00400203000002055
:1048800002000020040000202C000020100C00205A
:104890001C030020A4030020A3030020C403002065
:1048A00000409F400040AF40C8030020A20300200A
:1048B000AB4A1A440E2151700133072BF8DDA94B86
:1048C00000221A70FEF726BA0123019300930022FA
:1048D000A54BA649A648FDF783FEA64B18700328F2
:1048E0007EF418AA9F4B01221A70A34A1368013361
:1048F0001360FEF70FBAA14B1B78002B3EF40AAAF7
:104900000DF11703002201211046FCF705FD0DF102
:104910001703002201210846FCF7FEFC0DF11703E6
:10492000002201210220FCF7F7FC0DF11703002201
:1049300001210320FCF7F0FC91480DF116030393CD
:1049400000240294019400900DAB22460121FDF752
:10495000C3FA8C4B1C608C4B1C600125814B1D7075
:104960008A4B1C708A4B1C70FCF704FA824B1C604B
:10497000019500942346224621460220FCF732FC92
:10498000844B1B78AB4209D0002B7EF4C3A9744B37
:104990000122DA7102221A72FEF7BCB9704B1D7245
:1049A0000222DA71FEF7B6B9744B1B78002B3EF485
:1049B000B1A90DF11703002201211046FCF7ACFC50
:1049C0000DF11703002201210846FCF7A5FC0DF1AB
:1049D0001703002201210220FCF79EFC0DF11703B2
:1049E000002201210320FCF797FC65480DF1160316
:1049F000039300240294019400900DAB2246012100
:104A0000FDF76AFA5F4B1C605F4B1C600125554B3C
:104A10001D705E4B1C705E4B1C70FCF7ABF9564B67
:104A20001C60019500942346224621460220FCF793
:104A3000D9FB584B1B78AB4209D0002B7EF46AA9F6
:104A4000474B0122DA7105221A72FEF763B9444B13
:104A50001D720522DA71FEF75DB9484B1B78002BF9
:104A60003EF458A90DF11703002201211046FCF76E
:104A700053FC0DF11703002201210846FCF74CFC02
:104A80000DF11703002201210220FCF745FC0DF176
:104A90001703002201210320FCF73EFC38480DF1EA
:104AA0001603039300240294019400900DAB224658
:104AB0000121FDF711FA334B1C60334B1C600125BB
:104AC000284B1D70314B1C70314B1C70FCF752F998
:104AD000294B1C6001950094234622462146022062
:104AE000FCF780FB2B4B1B78AB4209D0002B7EF4EC
:104AF00011A91B4B0122DA7104221A72FEF70AB9BE
:104B0000174B1D720422DA71FEF704B91B4B1B7898
:104B1000002B43D1204B1B78002B3EF4FBA8164BF7
:104B20001C68182C3EF6F6A8DFE814F08600DC00BE
:104B3000060285029C0230038F03A903040440048B
:104B4000950402051E057B053506BA064E07AA0721
:104B50003E08E40840090A0A820ADE0A810B00BF07
:104B600030000020020000200040AF40B0040020D0
:104B7000A004002004000020C40300200100002045
:104B8000D8030020C80300208C030020200300204D
:104B9000A3030020A2030020A6030020AE4A5378FE
:104BA00003F0C30353700DF11703002201211046D7
:104BB000FCF7B2FB0DF11703002201210846FCF7B8
:104BC000ABFB0DF11703002201210220FCF7A4FB2F
:104BD0000DF11703002201210320FCF79DFB9F48E4
:104BE0000DF11603039300240294019400900DAB81
:104BF00022460121FDF770F9994B1C60994B1C600E
:104C00000125994B1D70994B1C70994B1C70994B49
:104C10001C70994B1C70FCF7ADF8984B1C6001950B
:104C200000942346224621460220FCF7DBFA944BEF
:104C30000C22DA711A726DE78B4B1B78002B3BD07C
:104C400086480DF116030393002102910191009013
:104C50000DAB0A46FDF740F98A4900220023C1E95D
:104C60000023C1E902238849C1E9002376A3D3E9DF
:104C70000023C1E90223072C05DC814B23440322D6
:104C80005A700134F7E7784B00221A70784B1B7882
:104C9000002B7EF43FA800220192009213464FF0B1
:104CA000FF310420FCF79EFA02287EF433A8704BF3
:104CB00001221A70FEF72EB801230193009364A31A
:104CC000D3E9002370496F48FDF78AFC6F4B1870D9
:104CD0000328DBD1644B01221A70684A1368013340
:104CE0001360D3E7604B1B7863BB694B1B685D4A5D
:104CF00012689B1A40F6C3118B4252D9644B1B6851
:104D00009B1A40F6AB518B4275D9614B1B689B1ABD
:104D100041F2931293424FD80121F020FCF714FF87
:104D20000221EB20FCF710FF5A4B1B78012B00F0FF
:104D3000B780002B40F0B980574B02221A74012231
:104D40009A75B2E0454D0DF11603039300240294C9
:104D5000019400950DAB224621462846FDF7BCF88C
:104D6000484B00200021C3E90001D5E90201C3E955
:104D70000201454B0026494FC3E90067C3E9020120
:104D8000234604E03E4A1A44022151700133072BA6
:104D9000F8DD354B00221A703D4B1A68314B1A6012
:104DA00013E001230193009300223C4B3649354820
:104DB000FDF716FC354B1870354B1B68294A1268F5
:104DC0009B1A41F29312934275D8294B1B78002B02
:104DD0007DF4A0AF00220192009213464FF0FF3104
:104DE0000420FCF7FFF902287DF494AF204B012248
:104DF0001A70FDF78FBF184A537843F008035370B9
:104E000001214FF49670FCF79FFE022140F227101B
:104E1000FCF79AFE1F4B1B78012B0AD11E4B012277
:104E20001A7402229A751C4B40F6AC52DA819A82AF
:104E3000C2E7002BF7D1184B02221A7401229A758F
:104E4000F1E700BFAFF3008000000000000CB740A6
:104E5000000000000094B1402C000020D803002086
:104E6000C80300208C030020020000202003002043
:104E7000A3030020A4030020CD040020C4030020CD
:104E800030000020A0040020B00400200400002016
:104E9000100C0020A20300203C00002000409F4096
:104EA0009F4B01221A7402229A759D4B40F6AC5218
:104EB000DA819A8280E79A4B03221A749A7500224B
:104EC000DA819A82974B04211970974B1A60FBF78D
:104ED00063FF01238DF834308DF835308DF836308E
:104EE000924B1B78012B05D043B90022904BCDE9A2
:104EF000062303E000228F4BCDE906237EA3D3E9EE
:104F00000023CDE9082300220023CDE90A230DF177
:104F10001603039300210291019106AB00930DABA0
:104F200001228548FCF7D8FF844B01221A70844A7D
:104F300013680133136048E7824B1B78A3B17F4BA2
:104F40001B7803BB774B1B78032B63D001230193A2
:104F500000936BA3D3E900237B497C48FDF740FB1A
:104F6000704B1870FDF7D6BE0022019200921346D6
:104F70004FF0FF310420FCF735F90228DFD1714BE7
:104F800001221A70DBE76C480DF116030393002130
:104F90000291019100900DAB0A46FCF79DFF634B17
:104FA0001B78012B14D0002B24D1684B00206049C2
:104FB000C3E90001604AD2E90201C3E90201624B80
:104FC00051A5D5E90045C3E90045C3E9020111E057
:104FD0005E4B00205749C3E90001574AD2E902015C
:104FE000C3E90201584B4AA5D5E90045C3E900458C
:104FF000C3E90201002304E0554A1A440421517018
:105000000133072BF8DD00234C4A1370454A137017
:10501000FDF780BE4B4B1B78002B3DF47BAE474B1E
:1050200001221A70464A136801331360454B00226F
:105030001A70FDF76FBE474B1B78012B0AD13F4B0F
:1050400001221A7014443E4B1C60424B00221A701D
:10505000FDF760BE00210220FBF740FF3D4B1870BA
:10506000FDF758BE354B1B78ABB92E4B1B78032B85
:1050700076D001230193009321A3D3E90023324981
:105080003248FDF7ADFA274B1870334B1A68334B93
:105090001A60FDF73FBE284D0DF11603039300245F
:1050A0000294019400950DAB224621462846FCF758
:1050B00013FFD5E90001254EC6E90001D5E9022319
:1050C000C6E90223204BC3E9000113A1D1E9000185
:1050D000C3E90201234604E01D4A1A440521517028
:1050E0000133072BF8DD0023144A13700D4A1370A7
:1050F000FDF710BEAFF3008000000000000CB740C9
:10510000000000000070A7400000000000589BC095
:105110000000000000589B400000000000C8B9409B
:105120003C000020040000208C030020A20300208B
:1051300000006940000069C0D80300200200002080
:10514000C4030020A3030020B0040020A00400201A
:105150003000002020030020100C00201C03002041
:105160009F4A537843F0300353709E4B1B689E4A0E
:1051700012689B1AB3F5FA7F7DF6CCAD9B4B0122EA
:105180001A7014449A4B1C60FDF7C4BD974B1B78F2
:10519000ABB9984B1B78032B41D0012301930093AB
:1051A00089A3D3E9002394499448FDF719FA914B58
:1051B00018708C4B1A688C4B1A60FDF7ABBD904D84
:1051C0000DF11603039300240294019400950DAB96
:1051D000224621462846FCF77FFED5E90001874B91
:1051E000C3E900017AA7D7E90067C3E90267824BE8
:1051F000C3E9000178A1D1E90001C3E90201234616
:1052000004E0804A1A44062151700133072BF8DD6F
:105210000023764A1370774A1370FDF77BBD704AFE
:10522000537843F0040353706E4B1B686E4A126848
:105230009B1AB3F5FA7F7DF66DAD6C4B01221A70A7
:1052400014446B4B1C60FDF765BD6F4B1B78002B46
:105250007DF460AD01930122009213464FF0FF31BF
:105260000220FBF7BFFF01287DF454AD5F4B012204
:105270001A705F4A136801331360FDF74BBD624B30
:105280001B78002B2AD0594B1B78002B3AD05C4D51
:105290000DF11603039300240294019400950DABC5
:1052A000224621462846FCF717FED5E90001534E59
:1052B000C6E90001D5E90223C6E902234E4BC3E942
:1052C000000100205149C3E902012346072B14DCE9
:1052D0004C4A1A440E2151700133F7E70022019223
:1052E000009213464FF0FF310420FBF77BFF0228AA
:1052F000C9D1454B01221A70C5E73C4B00221A70F8
:10530000FDF708BD0123019300932FA3D3E90023E8
:1053100039493A48FDF764F9364B187003287DF493
:10532000F9AC324B01221A70314A13680133136011
:10533000FDF7F0BC344B1B7873B1354B1B78012B58
:1053400019D1344B1B78012B1DD00BBB244A537849
:1053500043F0200353701BE0002201920092134699
:105360004FF0FF310420FBF73DFF0228E5D1264B2B
:1053700001221A70E1E700210320FBF7AFFD244B67
:105380001870FDF7C7BC164A537843F010035370EA
:10539000164B01221A70164A13680133136000235A
:1053A0001B4A1370184A1370FDF7B4BC0F4B1B78DF
:1053B00093B30C4B1A680C4B1A600C4B00221A70FA
:1053C000FDF7A8BCAFF30080000000000070A7400C
:1053D0000000000000C8B94000000000000CB74009
:1053E0002C000020100C00201C03002002000020D4
:1053F000C403002004000020B0040020A00400200A
:10540000D803002030000020A30300200000B94092
:1054100020030020A2030020A34B1B68A34A1268AC
:105420009B1AB3F5967F0DD9A14B032283F8222056
:1054300000221A849F4B01221A7014449E4B1C6058
:10544000FDF768BC9A4B012283F8222040F6B8325F
:105450001A84FDF75FBC974B1B78002B4FD0974AFF
:10546000136801331360312B7DF754AC94480DF170
:105470001603039300210291019100900DAB0A469F
:10548000FCF72AFD8F4B1B78012B15D0002B26D162
:105490008D4B79A1D1E90001C3E90001884AD2E925
:1054A0000201C3E90201894B75A5D5E90045C3E9AD
:1054B0000045C3E9020112E0834B73A1D1E9000169
:1054C000C3E900017E4AD2E90201C3E902017F4B30
:1054D0006FA5D5E90045C3E90045C3E902010023F2
:1054E00004E07B4A1A440F2151700133072BF8DD89
:1054F0000023724A13606F4A1370FDF70BBC01233F
:1055000001930023009364A3D3E900236F496E48FD
:10551000FDF766F86F4B187003287DF4FBAB654B05
:1055200001221A70644A136801331360FDF7F2BB5D
:10553000694A537843F034035370684B1B78012B4E
:105540000AD15C4B01221A7014445B4B1C60634B04
:1055500000221A70FDF7DEBB00210220FBF7BEFC23
:105560005E4B1870FDF7D6BB524B1B78A3B9594B55
:105570001B78032B3FD00123019300930022584B4B
:1055800052495148FDF72CF8524B1870464B1A6897
:10559000464B1A60FDF7BEBB494D0DF11603039350
:1055A00000240294019400950DAB22462146284622
:1055B000FCF792FCD5E90001434BC3E9000100264A
:1055C000484FC3E90267414BC3E9000134A1D1E967
:1055D0000001C3E90201234604E03D4A1A440621C2
:1055E00051700133072BF8DD0023324A1370394A1A
:1055F0001370FDF78FBB384A537823F008035370BC
:10560000294B1B68294A12689B1AB3F5FA7F7DF66D
:1056100081AB284B01221A701444274B1C60FDF704
:1056200079BB314B1B78B3B1224B1B78002B5DD17A
:10563000284B1B78032B00F0A280012301930093D9
:1056400015A3D3E9002321491F48FCF7C9FF214BCB
:105650001870FDF75FBB00220192009213464FF0D5
:10566000FF310220FBF7BEFD0228DDD11E4B0122D7
:105670001A70D9E7AFF300800000000000589BC00B
:10568000000000000064A9C00000000000589B401A
:10569000000000000064A940000000000070A74066
:1056A00000000000000CB740100C00201C0300207C
:1056B0003C00002002000020C4030020C80300209A
:1056C000D8030020A2030020A0040020B004002082
:1056D00030000020040000202C00002020030020C7
:1056E00000409F400000B940A3030020A8480DF1EE
:1056F0001603039300210291019100900DAB0A461D
:10570000FCF7EAFBA34B1B78012B15D0002B26D10D
:10571000A14B93A1D1E90001C3E900019C4AD2E960
:105720000201C3E902019D4B8FA5D5E90045C3E9FC
:105730000045C3E9020112E0974B8DA1D1E90001B8
:10574000C3E90001924AD2E90201C3E90201934B85
:1057500089A5D5E90045C3E90045C3E90201002355
:1057600004E08F4A1A44042151700133072BF8DDFD
:1057700000238C4A13708C4A1370FDF7CBBA894B07
:1057800001221A70894A136801331360884B002282
:105790001A70FDF7BFBA864B1B781BB3854B1B787D
:1057A000012B2ED1824B1B78002B3DF4B3AA814BE9
:1057B00000221A7001238DF834308DF835308DF8C1
:1057C0003630744B1B78012B39D0002B41D1704BF4
:1057D000D3E9002364A1D1E90001FAF7BDFCCDE9CA
:1057E000060136E000220192009213464FF0FF318D
:1057F0000220FBF7F7FC0228D0D16D4B01221A7072
:10580000CCE7634D0DF11603039300240294019439
:1058100000950DAB224621462846FCF75DFB284645
:10582000FCF7FEFA634B1870234604E05C4A1A4406
:105830000E2151700133072BF8DDFDF76BBA544B85
:10584000D3E900234CA1D1E90001FAF785FCCDE9A9
:1058500006014F4DD5E9022349A1D1E90001FAF72C
:105860007BFCCDE9080100220023CDE90A230DF1DC
:105870001603039300240294019406AB00930DAB2E
:10588000012221462846FCF727FB464B01221A70CD
:10589000464A136801331360454B1C70FDF73ABA52
:1058A000404B1B78ABB9404B1B78032B3FD00123F7
:1058B0000193009334A3D3E9002338493648FCF719
:1058C0008FFE394B18703C4B1A683C4B1A60FDF741
:1058D00021BA2F4D0DF11603039300240294019475
:1058E00000950DAB224621462846FCF7F5FAD5E98E
:1058F0000001294EC6E90001D5E90223C6E90223C9
:10590000264BC3E9000100202D49C3E902012346CB
:1059100004E0234A1A440F2151700133072BF8DDAC
:105920000023204A1370204A1370FDF7F3B9254A6B
:10593000537843F0300353701F4B1B681F4A1268A3
:105940009B1AB3F5FA7F7DF6E5A9164B01221A7072
:105950001444164B1C60FDF7DDB900BFAFF30080A7
:10596000000000000064A9C000000000009CA8C066
:10597000000000000064A94000000000009CA84056
:1059800000000000000CB740000000000070A740BD
:10599000D8030020A2030020A0040020B0040020AF
:1059A000300000200200002004000020C40300207A
:1059B000A3030020CD040020100C00201C030020B5
:1059C00000E085402C000020954B1B78A3B9954B37
:1059D0001B78032B3ED00123019300930022924BAE
:1059E00092499348FCF7FCFD8E4B1870914B1A6856
:1059F000914B1A60FDF78EB9904D0DF1160303938C
:105A000000240294019400950DAB224621462846BD
:105A1000FCF762FAD5E90001854EC6E90001D5E937
:105A20000223C6E90223814BC3E900010020844917
:105A3000C3E90201234604E0824A1A440621517058
:105A40000133072BF8DD0023754A1370754A137074
:105A5000FDF760B97C4A537843F004035370754BEB
:105A60001B68754A12689B1AB3F5FA7F7DF652A936
:105A70006B4B01221A701444744B1C60FDF74AB939
:105A8000734B1B78A3B1664B1B7833BB654B1B78FC
:105A9000032B68D00123019300935BA3D3E9002378
:105AA00062496348FCF79CFD5E4B1870FDF732B904
:105AB00000220192009213464FF0FF310220FBF7C3
:105AC00091FB012805D00228DDD1614B01221A701B
:105AD000D9E7604B01221A70F5E758480DF116031B
