:020000040800F2
:1000000000500020258F0008E14A0008E34A00085C
:10001000E54A0008E74A0008E94A00080000000035
:10002000000000000000000000000000EB4A000893
:10003000ED4A000800000000EF4A0008F14A0008FD
:100040006D8F00086D8F00086D8F00086D8F0008A0
:100050006D8F00086D8F00086D8F00086D8F000890
:100060006D8F00086D8F00086D8F00086D8F000880
:100070006D8F0008194B0008494B0008594B0008C8
:100080006D8F0008094B00086D8F00086D8F000808
:100090006D8F00086D8F00086D8F00086D8F000850
:1000A0006D8F0008497A00086D8F00086D8F000879
:1000B000597A00086D8F00086D8F00086D8F000859
:1000C0006D8F00086D8F00086D8F00086D8F000820
:1000D0006D8F00086D8F0008394B0008294B000810
:1000E0006D8F00086D8F00086D8F00080000000004
:1000F0000000000000000000000000000000000000
:0C01000000000000000000005FF808F1A3
:1001100010B5054C237833B9044B13B10448AFF341
:1001200000800123237010BDF802002000000000B1
:1001300040AC000808B5034B1BB103490348AFF3BB
:10014000008008BD00000000FC02002040AC000858
:1001500081F0004102E000BF83F0004330B54FEA78
:1001600041044FEA430594EA050F08BF90EA020FE5
:100170001FBF54EA000C55EA020C7FEA645C7FEA78
:10018000655C00F0E2804FEA5454D4EB5555B8BF9B
:100190006D420CDD2C4480EA020281EA030382EA0C
:1001A000000083EA010180EA020281EA0303362D9E
:1001B00088BF30BD11F0004F4FEA01314FF4801C71
:1001C0004CEA113102D0404261EB410113F0004F83
:1001D0004FEA03334CEA133302D0524263EB43033A
:1001E00094EA050F00F0A780A4F10104D5F1200ED8
:1001F0000DDB02FA0EFC22FA05F2801841F1000133
:1002000003FA0EF2801843FA05F359410EE0A5F106
:1002100020050EF1200E012A03FA0EFC28BF4CF037
:10022000020C43FA05F3C01851EBE37101F00045ED
:1002300007D54FF0000EDCF1000C7EEB00006EEBFA
:100240000101B1F5801F1BD3B1F5001F0CD3490884
:100250005FEA30004FEA3C0C04F101044FEA4452DB
:1002600012F5800F80F09A80BCF1004F08BF5FEA62
:10027000500C50F1000041EB045141EA050130BD42
:100280005FEA4C0C404141EB010111F4801FA4F1E5
:100290000104E9D191F0000F04BF01460020B1FA3A
:1002A00081F308BF2033A3F10B03B3F120020CDA72
:1002B0000C3208DD02F1140CC2F10C0201FA0CF050
:1002C00021FA02F10CE002F11402D8BFC2F1200CB5
:1002D00001FA02F120FA0CFCDCBF41EA0C0190406B
:1002E000E41AA2BF01EB0451294330BD6FEA0404B4
:1002F0001F3C1CDA0C340EDC04F11404C4F120029F
:1003000020FA04F001FA02F340EA030021FA04F3B0
:1003100045EA030130BDC4F10C04C4F1200220FA07
:1003200002F001FA04F340EA0300294630BD21FA45
:1003300004F0294630BD94F0000F83F4801306BF0B
:1003400081F480110134013D4EE77FEA645C18BFFF
:100350007FEA655C29D094EA050F08BF90EA020F96
:1003600005D054EA000C04BF1946104630BD91EA8E
:10037000030F1EBF0021002030BD5FEA545C05D191
:100380004000494128BF41F0004130BD14F58004D0
:100390003CBF01F5801130BD01F0004545F0FE4144
:1003A00041F470014FF0000030BD7FEA645C1ABF79
:1003B000194610467FEA655C1CBF0B46024650EAB0
:1003C000013406BF52EA033591EA030F41F40021DC
:1003D00030BD00BF90F0000F04BF0021704730B562
:1003E0004FF4806404F132044FF000054FF0000137
:1003F00050E700BF90F0000F04BF0021704730B5F8
:100400004FF4806404F1320410F0004548BF4042CC
:100410004FF000013EE700BF42004FEAE2014FEA21
:1004200031014FEA02701FBF12F07F4393F07F4FFC
:1004300081F06051704732F07F4208BF704793F0FF
:100440007F4F04BF41F40021704730B54FF4607412
:1004500001F0004521F000411CE700BF50EA010215
:1004600008BF704730B54FF000050AE050EA0102BE
:1004700008BF704730B511F0004502D5404261EB2E
:1004800041014FF4806404F132045FEA915C3FF46F
:10049000D8AE4FF003025FEADC0C18BF03325FEA0C
:1004A000DC0C18BF033202EBDC02C2F1200300FABD
:1004B00003FC20FA02F001FA03FE40EA0E0021FAE2
:1004C00002F11444BDE600BF70B54FF0FF0C4CF4D0
:1004D000E06C1CEA11541DBF1CEA135594EA0C0F82
:1004E00095EA0C0F00F0DEF82C4481EA030621EABD
:1004F0004C5123EA4C5350EA013518BF52EA0335F8
:1005000041F4801143F4801338D0A0FB02CE4FF0A9
:100510000005E1FB02E506F00042E0FB03E54FF0D9
:100520000006E1FB03569CF0000F18BF4EF0010ED1
:10053000A4F1FF04B6F5007F64F5407404D25FEACD
:100540004E0E6D4146EB060642EAC62141EA555180
:100550004FEAC52040EA5E504FEACE2EB4F1FD0CC2
:1005600088BFBCF5E06F1ED8BEF1004F08BF5FEA40
:10057000500E50F1000041EB045170BD06F00046F2
:1005800046EA010140EA020081EA0301B4EB5C049F
:10059000C2BFD4EB0C0541EA045170BD41F4801197
:1005A0004FF0000E013C00F3AB8014F1360FDEBFBC
:1005B000002001F0004170BDC4F10004203C35DA98
:1005C0000C341BDC04F11404C4F1200500FA05F31B
:1005D00020FA04F001FA05F240EA020001F00042BC
:1005E00021F0004110EBD37021FA04F642EB060132
:1005F0005EEA430E08BF20EAD37070BDC4F10C045C
:10060000C4F1200500FA04F320FA05F001FA04F21F
:1006100040EA020001F0004110EBD37041F100010B
:100620005EEA430E08BF20EAD37070BDC4F1200516
:1006300000FA05F24EEA020E20FA04F301FA05F27E
:1006400043EA020321FA04F001F0004121FA04F226
:1006500020EA020000EBD3705EEA430E08BF20EAF6
:10066000D37070BD94F0000F0FD101F00046400030
:1006700041EB010111F4801F08BF013CF7D041EAB2
:10068000060195F0000F18BF704703F000465200B6
:1006900043EB030313F4801F08BF013DF7D043EA87
:1006A0000603704794EA0C0F0CEA135518BF95EA3D
:1006B0000C0F0CD050EA410618BF52EA4306D1D1C4
:1006C00081EA030101F000414FF0000070BD50EAE3
:1006D000410606BF1046194652EA430619D094EA6D
:1006E0000C0F02D150EA013613D195EA0C0F05D157
:1006F00052EA03361CBF104619460AD181EA0301AB
:1007000001F0004141F0FE4141F470014FF0000062
:1007100070BD41F0FE4141F4780170BD70B54FF0FD
:10072000FF0C4CF4E06C1CEA11541DBF1CEA13557D
:1007300094EA0C0F95EA0C0F00F0A7F8A4EB05045F
:1007400081EA030E52EA03354FEA013100F0888056
:100750004FEA03334FF0805545EA131343EA12631F
:100760004FEA022245EA111545EA10654FEA0026D4
:100770000EF000419D4208BF964244F1FD0404F58D
:10078000407402D25B084FEA3202B61A65EB0305E9
:100790005B084FEA32024FF480104FF4002CB6EBA6
:1007A000020E75EB030E22BFB61A754640EA0C0026
:1007B0005B084FEA3202B6EB020E75EB030E22BF66
:1007C000B61A754640EA5C005B084FEA3202B6EBA7
:1007D000020E75EB030E22BFB61A754640EA9C0066
:1007E0005B084FEA3202B6EB020E75EB030E22BF36
:1007F000B61A754640EADC0055EA060E18D04FEAF4
:10080000051545EA16754FEA06164FEAC30343EA93
:1008100052734FEAC2025FEA1C1CC0D111F4801F60
:100820000BD141EA00014FF000004FF0004CB6E759
:1008300011F4801F04BF01430020B4F1FD0C88BFF8
:10084000BCF5E06F3FF6AFAEB5EB030C04BFB6EB03
:10085000020C5FEA500C50F1000041EB045170BDF6
:100860000EF0004E4EEA113114EB5C04C2BFD4EB23
:100870000C0541EA045170BD41F480114FF0000EA7
:10088000013C90E645EA060E8DE60CEA135594EA23
:100890000C0F08BF95EA0C0F3FF43BAF94EA0C0F26
:1008A0000AD150EA01347FF434AF95EA0C0F7FF49B
:1008B00025AF104619462CE795EA0C0F06D152EAEF
:1008C00003353FF4FDAE1046194622E750EA4106D3
:1008D00018BF52EA43067FF4C5AE50EA41047FF4E4
:1008E0000DAF52EA43057FF4EBAE12E74FF0FF3C49
:1008F00006E000BF4FF0010C02E000BF4FF0010C1A
:100900004DF804CD4FEA410C7FEA6C5C4FEA430C92
:1009100018BF7FEA6C5C1BD001B050EA410C0CBFE1
:1009200052EA430C91EA030F02BF90EA020F002043
:10093000704710F1000F91EA030F58BF994208BFAA
:1009400090422CBFD8176FEAE37040F00100704767
:100950004FEA410C7FEA6C5C02D150EA013C07D1BE
:100960004FEA430C7FEA6C5CD6D152EA033CD3D009
:100970005DF8040B704700BF8446104662468C4603
:100980001946634600E000BF01B5FFF7B7FF002836
:1009900048BF10F1000F01BD4DF808EDFFF7F4FF5F
:1009A0000CBF012000205DF808FB00BF4DF808EDEA
:1009B000FFF7EAFF34BF012000205DF808FB00BF0D
:1009C0004DF808EDFFF7E0FF94BF012000205DF82F
:1009D00008FB00BF4DF808EDFFF7CEFF94BF0120E4
:1009E00000205DF808FB00BF4DF808EDFFF7C4FFDD
:1009F00034BF012000205DF808FB00BF4FEA410230
:100A000012F5001215D211D56FF47873B3EB625260
:100A100012D94FEAC12343F0004343EA505311F087
:100A2000004F23FA02F018BF404270474FF0000019
:100A3000704750EA013005D111F0004008BF6FF057
:100A4000004070474FF00000704700BF4FEA410C74
:100A50007FEA6C5C02D150EA013C0AD14FEA430CB8
:100A60007FEA6C5C02D152EA033C02D14FF00000F5
:100A700070474FF0010070472DE9F04F85B0814677
:100A80000D4614469B460E9F0F9E9DF840A09DF874
:100A90004480D1E90023CDE90223A149D1E9000135
:100AA000FFF77AFFB8B1D5E902239D49D1E90201E8
:100AB000FFF772FF78B1D4E900239A49D1E9000128
:100AC000FFF76AFF38B1D4E902239649D1E9020160
:100AD000FFF762FFA0B9944B01221A709049DDE93B
:100AE0000223C1E90023D5E90223C1E90223D4E9A5
:100AF00000238C49C1E90023D4E90223C1E9022380
:100B0000B8F1030F0BD8DFE808F002717A83DBE954
:100B10000023D4E90001FFF71FFBCDE90001824B60
:100B20001B783BB1814BDDE90012C3E900127E4B1B
:100B300000221A70BAF1000F00F0D880DDE900AB96
:100B400052465B467949D1E90001FFF705FB0446AF
:100B500021F000450022764B50465946FFF744FFEE
:100B6000002879D00022724B20462946FFF728FF43
:100B7000002856D000226E4B20462946FFF7CEFDB6
:100B800000226C4BFFF7E8FA04460D463A4633461E
:100B9000FFF79AFC02460B4620462946FFF794FCD5
:100BA00002460B465AA1D1E90001FFF7D5FA3A46B1
:100BB0003346FFF7D3FAC9E9000155A3D3E900236F
:100BC000FFF7FEFE20B152A3D3E90023C9E90023B9
:100BD0003A463346D9E90001FFF706FF002874D0F2
:100BE0003A463346C9E9002300241FE0D4E9002334
:100BF000DBE90001FFF7B0FACDE900018FE7DBE99F
:100C00000223D4E90201FFF7A7FACDE9000186E744
:100C1000D4E90223DBE90201FFF79EFACDE90001E6
:100C20007DE73A463346C9E9002301240022424BBE
:100C300038463146FFF7CEFE00284AD000223F4B0F
:100C4000DDE90001FFF7BCFE00285BD00022002395
:100C5000C9E90023032455E006F100480022344B83
:100C6000DDE90001FFF75AFD2BA3D3E90023FFF7CD
:100C700073FA04460D4602460B4638464146FFF7D6
:100C800023FC02460B4620462946FFF71DFC3A4648
:100C90003346FFF763FAC9E900011DA3D3E9002336
:100CA000FFF78EFE20B11AA3D3E90023C9E9002380
:100CB0003A463346D9E90001FFF796FE38B13A4685
:100CC0003346C9E900230224B0E70024AEE702243A
:100CD000ACE700221A4BDDE90001FFF771FE88B195
:100CE00000220023C9E9002303240BE00022154B56
:100CF000DDE90001FFF764FE30BB3A463346C9E93F
:100D000000230124204605B0BDE8F08FAFF300803A
:100D10000000000000CCA040666666666666F23F92
:100D2000600400208004002000000020A0030020B8
:100D300000408F400000F03F0040AF4000005440B2
:100D4000000049400000244000220023C9E900239C
:100D50000324D7E710B402EBD2735B105C4221444A
:100D6000401A824203DC90FBF2F302FB13000028DE
:100D700002DB204410BC70470028B8BF4042101A64
:100D8000F7E70000254B5B7813F0040F3FD0234BAF
:100D90005B7813F0020F3AD0204B9B7813F0100FC2
:100DA00004D01F4A537843F0080353701B4B9B78C1
:100DB00013F0400F19D01A4A537843F020035370B0
:100DC000164B9B7813F0200F15D0154A537843F03B
:100DD00004035370114B5B7813F0010F11D0104ACC
:100DE000537843F01003537016E00D4A537823F004
:100DF00020035370E4E70A4A537823F00403537046
:100E0000E8E7074A537823F01003537004E0044ADC
:100E1000537803F0C303537000207047380C002050
:100E20002C000020002309E0590019444800054A1D
:100E3000024400215180032111710133062BF3DD9F
:100E4000002070473C000020034B0020D881032283
:100E50001A7498829A7570473C000020F0B4002400
:100E600007E0E300C5180B44D3E90067C5E9006754
:100E700001349442F5DBF0BC7047000010B5044625
:100E8000012819D018B102282AD000202DE04FF4F3
:100E90008051012006F030FD38B1144B01221A7741
:100EA00041F288325A8320461FE0104B03221A7702
:100EB00000225A83022018E00421012006F01CFDC4
:100EC00038B10A4B02221A7741F288325A832046FF
:100ED0000BE0064B03221A7700225A83022004E01B
:100EE000024B03221A7700225A8310BD3C000020D7
:100EF000012920D010B504460221012006F0FCFC97
:100F000010B11F4B01221A701D4B1B78C3B984EA24
:100F1000E472A2EBE4721B4B1B689A421ED0002CB9
:100F200028DD194B022283F82820174B41F2883222
:100F3000DA84002010BD134B00221A600220704793
:100F40000221012006F0D8FC0028E0D10D4A1368E8
:100F5000013313600A4B00221A70D8E70A4A0323B0
:100F600082F828300023D384064A1360044A1370A1
:100F70000120DFE7044B012283F82820D5E700BFDA
:100F8000E0030020900400203C00002008B5012967
:100F90000AD09F4A1278042A10D8DFE812F0110014
:100FA000670092000D0145010223994A1370994A86
:100FB0001170002298490A6098490A70184608BDC5
:100FC000022821D00428F9D1924B1B7833B1944BDD
:100FD0001A68914B1A608F4B00221A70904B1B6855
:100FE0008D4A12689B1A41F65832934235D98D4B7F
:100FF000032283F8222000221A84854B04221A70CF
:101000000123844A1370D9E7824B1B7833B1844B98
:101010001A68814B1A607F4B00221A70804B1B6844
:101020007D4A12689B1A40F6AC5293420CD97D4B14
:10103000032283F8222000221A84754B02221A70A0
:101040000123744A1370B9E7764B012283F82220FA
:1010500040F6B8321A840023B0E7724B012283F8BD
:10106000222040F6B8321A840023A7E70228A5D12F
:10107000684B1B7833B16A4B1A68674B1A60654B33
:1010800000221A70664B1B68634A12689B1A41F271
:10109000040293420CD9634B032283F822200022DE
:1010A0001A845B4B02221A7001235A4A137085E797
:1010B0005C4B012283F8222040F6B8321A840023C8
:1010C0007CE701281BD090B303287FF477AF102171
:1010D000022006F011FC40B1524B022283F822207C
:1010E00040F6B8321A84002368E74E4A032382F898
:1010F000223000211184464A137001235EE710213B
:10110000012006F0F9FB40B1464B022283F8222071
:1011100040F6B8321A84002350E7424B032283F88A
:10112000222000221A840123394A137046E73B4BE0
:101130001B78F3B1374B1B7833B1394B1A68364BF8
:101140001A60344B00221A70354B1B68324A126801
:101150009B1A502B27D9334B032283F822200022DD
:101160001A842B4B1A7001232A490B702B490A70E1
:1011700024E71021012006F0BFFB40B1294B0222D9
:1011800083F8222040F6B8321A84002316E7234B56
:1011900001221A70234B022283F8222040F6B83233
:1011A0001A8400230AE71F4B022283F8222040F60C
:1011B000B8321A84002301E702287FF4FFAE154BF2
:1011C0001B7833B1164B1A68134B1A60114B00226F
:1011D0001A70134B1B68104A12689B1A40F2DC52BB
:1011E00093420CD90F4B032283F8222000221A8449
:1011F000074B02221A700123064A1370DEE6094BE0
:10120000012283F8222040F6B8321A840023D5E662
:101210000500002006000020D4040020D004002097
:10122000340C00203C00002002287FF4C7AE144B91
:101230001B7833B1134B1A68134B1A60104B002202
:101240001A70104B1B68104A12689B1A40F6C412A1
:10125000934208D80D4B022283F8222040F6B83280
:101260001A840023AAE6094B032283F822200022D5
:101270001A84074B02221A700123014A13709DE65B
:1012800006000020340C0020D40400203C00002084
:101290000500002070B50D469DF8106005990129E4
:1012A00007D03E490968032918D8DFE801F00E1974
:1012B000495B00243A4B1C703A4B1C700846FFF700
:1012C00065FE364B1C60022408E0374A537843F031
:1012D000340353700131314B19600024204670BD36
:1012E0002F490978012910D03AB100210120FFF7D8
:1012F0004DFE2B4B18700024F0E700210846FFF745
:1013000045FE274B18700024E8E762B123B1264A56
:10131000537823F02003537056B1234A537823F0B7
:101320001003537004E0204A537803F0CB0353704A
:1013300000241B4B1C70194A136801331360CDE75E
:10134000174B1B78012B06D10024154B1C70013163
:10135000124B1960C2E70021FFF718FE104B1870FE
:101360000024BBE70F4B1B78012B00D06DB90E4A50
:10137000537803F0CB03537000230A4A1370084AD2
:101380001370064A13600124A8E700212846FFF7DE
:10139000AFFD044B18700024A0E700BFCC03002071
:1013A00028030020E00400202C0000202DE9F04359
:1013B00083B004460E4603287FD8DFE800F0022100
:1013C000405F87494B7B887B03EB0023C87B03EBA3
:1013D0000043097C03EB016382490D681D44002E24
:1013E0006ED0012E03D0022E06D0002769E05B42AA
:1013F0000B6000273D4664E07B4B1F68EF1B60E0FD
:1014000077494B7C887C03EB0023C87C03EB0043CB
:10141000097D03EB016373494D681D44002E73D0B1
:10142000012E03D0022E06D000274AE05B424B601B
:1014300000273D4645E06C4B5F68EF1B41E0684983
:101440008B78C87803EB0023087903EB00434979D4
:1014500003EB016363498D681D44002E56D0012EB5
:1014600003D0022E06D000272BE05B428B600027C2
:101470003D4626E05C4B9F68EF1B22E058498B7984
:10148000C87903EB0023087A03EB0043497A03EBA6
:1014900001635449CD681D44002E39D0012E03D07C
:1014A000022E06D000270CE05B42CB6000273D46B1
:1014B00007E04D4BDF68EF1B03E000273D4600E0EF
:1014C0000027022E26D0484B43F82450474B19687A
:1014D000474A42F824101A68464BA3FB02135B09E3
:1014E000642101FB1323092B08D8012E06D0424B9F
:1014F0001B68022B50DC01333F4A1360022E5AD086
:10150000284603B0BDE8F0830027DAE70027D8E7D4
:101510000027D6E7B2F57A7F1EDB1046FEF76AFF9A
:101520000022364BFFF7FAF8804689462F4B1868A1
:101530002F4B53F82430C01AFEF74CFF02460B46DF
:1015400040464946FEF7C0FFFFF758FA844677B990
:10155000254B43F82450B9E7244B1B68244A52F822
:1015600024209B1A4FF4967C0CFB03FCEFE787EAE0
:10157000E773A3EBE77363450CDC1B4B43F8245084
:10158000A4E71F4A1A44092151700133072BF8DDE3
:1015900000279BE70023F9E7134883684268016846
:1015A000CDF804C0C0680090164806F0E7FA124B68
:1015B00000221A60A2E70D4B1A680E4BA3FB021320
:1015C0005B09642101FB1323092B01D93D4697E7F1
:1015D0002B463A4621460C4806F0D0FA3D468FE7A6
:1015E000680000201403002040040020340C002078
:1015F000300400201F85EB51C40300200000184078
:101600003000002044AD00087CAD00080000000060
:101610002DE9F04F89B006468A46CDE90423DDF86E
:101620004880149C9DF85450AB1EDBB2012B1DD991
:10163000D4E90223D8E90201FEF78EFD029021F0E1
:101640000047D4E90423CDE90023A44B1A68A44B36
:10165000A3FB02135B09642101FB1323092B1FD990
:10166000032D4CD8DFE805F033647D94D8E90023DE
:10167000CDE90023D4E90012CDE9021200220023B3
:10168000D4E90201FEF720FFDDE90223FEF764FD45
:10169000DDE90023FEF762FD029021F00047D0E76C
:1016A000DDE9000107F03EFECDE90601029839466A
:1016B00007F038FEFFF7A2F98146DDE90601FFF7E2
:1016C0009DF94A460146874806F058FAC8E7D4E92A
:1016D0000223D8E90201FEF73FFD04460D46002231
:1016E0000023FFF763F9002869D100220023204678
:1016F0002946FFF779F9002864D04FF0000B00224B
:10170000794B02983946FFF76FF9002800F069819C
:10171000BBF1010F00F0C180BBF1000F67D0BBF13E
:10172000020F00F026810024A1462546A04672E162
:10173000D4E90223D8E90201FEF70EFD04460D4666
:1017400000220023FFF732F900283ED100220023B7
:1017500020462946FFF748F9002839D04FF0010B01
:10176000CDE7D4E90023D8E90001FEF7F5FC0446F3
:101770000D4600220023FFF719F960BB0022002369
:1017800020462946FFF730F940B34FF0010BB6E78A
:10179000D4E90023D8E90001FEF7DEFC04460D463B
:1017A00000220023FFF702F9D8B9002200232046C7
:1017B0002946FFF719F9B8B14FF0000B9FE74FF03A
:1017C000010B9CE74FF0020B99E74FF0000B96E7F7
:1017D0004FF0020B93E74FF0000B90E74FF0020B36
:1017E0008DE74FF0010B8AE74FF0020B87E7DDF83A
:1017F000088042463B4640463946FEF7AFFC044669
:101800000D460022394BFFF7DBF878B90022384B40
:1018100020462946FFF7DEF850BB0022354B4046F4
:101820003946FEF751FE0546884602E00025DFF8FE
:10183000CC8000220023DDE90001FFF7D5F868B174
:1018400000222D4BDDE90001FEF73EFE02460B466D
:1018500028464146FEF782FC0546884600220023C2
:10186000DDE90001FFF7A2F830B90024A146D2E07B
:101870000025DFF87C80DCE700221F4BDDE900015A
:10188000FEF722FE02460B4628464146FEF764FC60
:10189000054688460024A146BDE0DDF808804246A2
:1018A0003B4640463946FEF759FC04460D460022A9
:1018B0000E4BFFF785F818BB00220D4B204629463A
:1018C000FFF788F8002840D100220A4B40463946ED
:1018D000FEF7FAFD0446894615E000BF340C0020EF
:1018E0001F85EB51DCAE0008000014400000594099
:1018F00000C082400000084000405F4000C06240DD
:101900000024DFF8549200220023DDE90001FFF7F4
:101910004DF8F0B900220023DDE90001FFF764F87B
:10192000002800F0E1800022854BDDE90001FEF790
:10193000CBFD024621F0004320464946FEF70CFC51
:10194000044689460025A84665E00024DFF80C928D
:10195000D9E700227A4BDDE90001FEF7B5FD02462A
:1019600021F0004320464946FEF7F8FB044689462D
:10197000D0E700220023DDE9004520462946FFF795
:1019800033F880B16AA3D3E9002320462946FEF745
:101990009BFD69A3D3E90023FEF7E0FB05468846DB
:1019A0000024A14637E000220023DDE90001FEF714
:1019B000FDFF20B90024A1462546A0462BE05CA3EC
:1019C000D3E90023DDE90001FEF77EFD5AA3D3E948
:1019D0000023FEF7C3FB044621F000490025A8467A
:1019E00019E000220023DDE9004520462946FEF7E4
:1019F000FBFF00285AD04EA3D3E9002320462946F6
:101A0000FEF762FD4CA3D3E90023FEF7A7FB0546D2
:101A100088460024A14600224A4B284628F000416F
:101A2000FEF7E2FF50B10022002328464146FEF7B0
:101A3000DBFF00285BD00025DFF808810022414B46
:101A4000204629F00041FEF7CFFF50B100220023CD
:101A500020464946FEF7C8FF00284CD00024DFF896
:101A6000E4900022384BDDE90401FEF757FECDE992
:101A700004012A464346FEF727FDC6E90001224637
:101A80004B46DDE90401FEF71FFDCAE900012F4BBB
:101A90001A682F4BA3FB02135B09642101FB13237C
:101AA000092B2CD9002009B0BDE8F08F00220023BB
:101AB000DDE90001FEF77AFF20B90024A1462546A2
:101AC000A046A8E71AA3D3E90023DDE90001FEF749
:101AD000FBFC19A3D3E90023FEF740FB044621F0E9
:101AE00000490025A84696E70025A84693E700256B
:101AF000DFF86C80A2E70024DFF86490B1E7DDE94D
:101B0000000107F00FFC04460D460298394607F025
:101B100009FCFEF773FF064620462946FEF76EFFD6
:101B20005B46324601460B4806F028F8BAE700BF8C
:101B30000000000000C062400000000000C05240F1
:101B400000405F4000908A4000408F40340C0020ED
:101B50001F85EB51FCAE000800C0624000C082400F
:101B600000908AC010B50221002005F0C5FE40B1EA
:101B7000084B00241C8103229A7206F0C7F9204604
:101B800010BD044B4FF461721A8101229A724FF01A
:101B9000FF30F5E73C00002010B50121002005F0E2
:101BA000ABFE40B1084B00245C8003221A7106F0A2
:101BB000A7F9204610BD044B4FF461725A800122F0
:101BC0001A714FF0FF30F5E73C00002000000000E4
:101BD0002DE9F04FB9B082460F46A94C4822214664
:101BE00026A809F021F8902204F1480102A809F082
:101BF0001BF800240094019400E00134082C1EDC42
:101C00009BA3D3E9002338A901EBC40555E93601AC
:101C1000FEF75AFC45E93601022CEEDD0020994919
:101C200038AB03EBC40343E9360104F1090338AAD6
:101C300002EBC3030020944943E93601DDE71FB9F5
:101C400002230193009CBDE0012F06D0022FF9D1A1
:101C50000123009302230193F4E701230193F1E7A9
:101C600006F042F90646B6E006F044F90646B2E050
:101C7000002DB8BF6D42C5F50065C2E004EBC4039A
:101C80001A440CEBC20252E9368900284EDD404668
:101C9000494607F047FBFEF7B1FE04EB44035A0048
:101CA0007A4B134458800022002340464946FEF7F1
:101CB00073FE80B304EB44035A00744B13440322B5
:101CC0001A71734B01221A55002F58D1704B1B7893
:101CD000002B66D06E4B5B78002B40F099804FF064
:101CE000000B60E00132082ACFDC80EAE071A1EB52
:101CF000E07104EBC40313440DF1E00C0CEB83031F
:101D000053F8483C9942B9DA082AEBD14FF0000861
:101D10004FF00009E6E704EB44035A005B4B134421
:101D200001221A715A4B00221A55CDE74046494606
:101D300007F0F8FAFEF762FE04EB44035A00534B37
:101D4000134458800022002340464946FEF724FEF3
:101D500050B104EB44035A004C4B134403221A7154
:101D60004B4B01221A55AFE704EB44035A00474B93
:101D7000134402221A71464B00221A55A4E7012F80
:101D800008D0022F0FD1424B5B78002B46D04FF08A
:101D9000010B08E03E4B1B78002B3CD04FF0010BB1
:101DA00001E04FF0000B3B4B1A683B4BA3FB0213C7
:101DB0005B09642101FB1323092B02D88CB3012C8E
:101DC00040D00134019BA3424DDD002C3FF448AFCD
:101DD000012C3FF449AF7342C6F30A05C3F30A036B
:101DE00058BF5D425046FEF705FB23A3D3E900230D
:101DF000FEF76AFB07F096FAFEF700FE002DFFF6ED
:101E000037AF4FF400622946FEF7A4FF00226AE7CD
:101E10004FF0010BC7E74FF0000BC4E74FF0000B8A
:101E2000C1E72846FEF7E6FA00221C4BFEF74CFB02
:101E300007F078FAFEF7E2FD52460146184805F031
:101E40009DFEBEE72846FEF7D5FA0022134BFEF7AB
:101E50003BFB07F067FAFEF7D1FD524601461148F9
:101E600005F08CFEADE7584639B0BDE8F08F00BFF5
:101E7000713D0AD7A370ED3F176CC1166CC11640B7
:101E800058AC000800B08D4000208C403C00002081
:101E9000D0030020340C00201F85EB510080C63F8A
:101EA00054AF000870AF000838B5294B1B783BBB16
:101EB000284B1B7843B1274B5B7863B1254B1B78CC
:101EC000012B0FD0002038BD0121E120FFF780FE5B
:101ED000204B1870EFE70221DC20FFF779FE1D4B45
:101EE0005870EBE71B4B5B78012B01D00020EAE731
:101EF000174B01221A70174B002018705870E2E738
:101F000004460121E120FFF763FE0221DC20FFF7F8
:101F10005FFE65690022104B206925F00041FEF745
:101F20004FFD50B90D4B03221A749A750022DA81C5
:101F30009A82074B1A700120C5E7084B01221A74D8
:101F400002229A7540F66602DA819A820020BAE788
:101F5000B0030020A8040020004066403C000020A0
:101F60002DE970430024012C6FDC3D4D284606F01E
:101F70004AFA0646284606F035FA74B1012C67D1B4
:101F8000404203255EB9374A6B005819410011449D
:101F90000020087148800134E5E70225F2E7002EB1
:101FA00035DD1CB1012C2AD001204FE005EB4503A3
:101FB0005A002C4B134401221A71002EB8BF7642EE
:101FC0009C2303FB06F603FB00F0FEF713FA22A3A3
:101FD000D3E90023FEF778FA804689463046FEF7BB
:101FE00009FA42464B46FEF7B9F8FEF707FD42F202
:101FF0000F73984220DC002820DA00201EE005EB59
:1020000045035A00174B134402221A71D5E71CB13D
:10201000012C09D0012019E005EB45035A00114BB2
:10202000134402221A71C8E705EB45035A000D4B11
:10203000134401221A71C0E742F20F7005EB450507
:102040006A00084B13445880A5E70020BDE8708360
:102050000120FBE7AFF300809A9999999999D93FAC
:10206000380C00203C0000202DE9F04F9FB09DF877
:10207000A4709DF8A85000248DF81F40012977D046
:102080001E460446002A40F09980A34B1B78002B83
:1020900037D1A24B90A1D1E90001C3E9000190A181
:1020A000D1E90001C3E902018FA1D1E90001C3E92F
:1020B00004018FA1D1E90001C3E906014FF0000836
:1020C000DFF86892C3E9088900200021C3E90A010A
:1020D000C3E90C89C3E90E0187A1D1E90001C3E975
:1020E000100187A1D1E90001C3E912010FF21829FB
:1020F000D9E90089C3E91489C3E91601864B012295
:102100001A70874B9B8A1BB9854AD289002A57D0FF
:10211000834AD0891844FEF76DF90022814BFEF7FF
:10212000D3F9FEF76BFC0646002F4BD10025032D9B
:102130006EDC0DF11F03324602212846FFF736F907
:102140001EAB03EB850343F8580C0135EFE7CA00DB
:10215000831800240025C3E90045734B1344C3E9E9
:10216000004501310229F2DD00201FB0BDE8F08FEB
:102170000021F7E7D7E900016B4B03EBC503C3E987
:1021800000010135022DEFDC735D002BF9D0EB006F
:10219000289AD7182344D7E90001C3E90001012D8B
:1021A000E8D85BA3D3E90023D7E90001FEF78CF957
:1021B0005D4B03EBC503C3E90001E2E70025E1E75E
:1021C0000026B1E7032D23D8DFE805F02727020218
:1021D0000DF11F03324602210020FFF7E7F80890B7
:1021E0000DF11F03002202210120FFF7DFF8099003
:1021F0000DF11F03324602210846FFF7D7F80A9077
:102200000DF11F03002202210320FFF7CFF80B90EE
:102210009DF81F3013BB002752E00DF11F03002271
:1022200002211046FFF7C2F808900DF11F03324655
:1022300002210120FFF7BAF809900DF11F030022D7
:1022400002210846FFF7B2F80A900DF11F0332464B
:1022500002210320FFF7AAF80B90D9E70023032BF4
:1022600007DC1EAA02EB8302002142F8581C01334E
:10227000F5E700238DF81F30CDE705EB8702274BEC
:1022800003EBC203D3E900891EAB03EB850353F8CC
:10229000580CFEF7AFF802460B4640464946FEF79B
:1022A00013F902460B461EA901EBC70656E90601C3
:1022B000FDF754FF46E906010135032DDDDD013749
:1022C000022F35DC002000211EAB03EBC70343E9DE
:1022D00006010025F1E700BF0A5D4647DB93ACBF6E
:1022E0007362E6D02773E1BF0A5D4647DB93AC3FDC
:1022F0001A3B335EB019DD3FCD7E4F03344AD33FE6
:102300004A1B3DA0F550CF3FCD7E4F03344AD3BF8B
:1023100004B6B7E795294B40C103002030030020E5
:102320003C0000200000E03F180400200000E0BF57
:102330008D4BD3E90467DDE91C2330463946FDF7B0
:102340000DFFCDE916017EA3D3E9002330463946BF
:10235000FEF7BAF87CA3D3E90023FEF7B5F87CA317
:10236000D3E9002307F074F88146884676A3D3E9C1
:102370000023484628F00041FEF72CFB80B10022E4
:10238000002348464146FEF725FB00285CD070A399
:10239000D3E9002348464146FDF7DEFE81468846E4
:1023A000714DD5E90067DDE918AB4846414606F0B6
:1023B0006DFFCDE9000102460B4650465946FEF737
:1023C00083F802460B4630463946FDF7C7FECDE995
:1023D0000401DDE91A674846414606F0F1FF02466E
:1023E0000B46CDE9022330463946FEF76DF802462A
:1023F0000B46DDE90401FDF7B1FECDE91201D5E997
:102400000289DDE9022350465946FEF75DF802468F
:102410000B4640464946FDF79FFE804689463246B8
:102420003B46DDE90001FEF74FF802460B46404609
:102430004946FDF793FECDE91401032212A928466F
:10244000FEF70CFD002516E041A3D3E90023484622
:102450004146FDF783FE81468846A1E71EAB03EBAC
:10246000C5063DA3D3E9002356E90C01FEF72CF87D
:1024700046E912010135012DF0DD39A3D3E900232E
:10248000DDE91601FEF720F8CDE910010022374BF7
:1024900006F0DEFF06460D4602460B46CDE9102348
:1024A0000022334B304625F00041FEF793FA78B115
:1024B0000022002330462946FEF78CFA002835D04A
:1024C00000222A4B30462946FDF746FECDE9100191
:1024D00003220CA92046FEF7C1FC264B1A68264BA6
:1024E000A3FB02135B09642101FB1323092B3FF6B5
:1024F0003BAED4E90067D4E9028900221F4BD4E93E
:102500000401FDF7E1FFFEF779FA0546404649462A
:10251000FEF774FA044630463946FEF76FFA2B464A
:1025200022460146164805F029FB1DE600220F4B06
:1025300030462946FDF712FECDE91001C8E700BF7D
:10254000682FA1BD84F6F23E182D4454FB210940AA
:10255000182D4454FB211940D221337F7CD9923F5E
:10256000ABAAAAAAAAAA6A3F180400200080764053
:1025700000806640340C00201F85EB51000059405C
:1025800028AF0008000000002DE9F04F8FB0824610
:102590008B46CDE90423D0E9004522462B467849F5
:1025A000D1E90001FEF7F8F9C0B1DAE90223744974
:1025B000D1E90201FEF7F0F980B1DBE900237149AE
:1025C000D1E90001FEF7E8F940B1DBE902236D49EA
:1025D000D1E90201FEF7E0F9002833D16A4B01226C
:1025E0001A70674BC3E90045DAE90289C3E9028939
:1025F000DBE90001634BC3E90001DBE90267C3E9E2
:10260000026722462B46FDF7A7FD04460D46002231
:102610000023FEF7C1F930B342464B4630463946F7
:10262000FDF79AFD00220023FEF7D4F9B8B1574B0D
:1026300002221A70002200235549C1E9002355499E
:10264000C1E90023504B1B78002B00F091804F4BC9
:102650001B78032B28D8DFE803F0556C21404B4B47
:1026600003221A70E6E742464B4630463946FDF7EC
:1026700073FD00220023FEF78FF90028DAD0002234
:10268000002320462946FEF7A5F918B13F4B00224A
:102690001A70CFE73D4B01221A70CBE73E4B1B78F7
:1026A0006BB13D4B5B788BB13B4B1B78012B40F002
:1026B0005981394B5B78012B52D0042530E101213F
:1026C000B420FFF785FA344B1870EAE70221AF20F7
:1026D000FFF77EFA304B5870E6E72F4B1B7853B16B
:1026E0002D4B5B78002BDFD10221AF20FFF770FA72
:1026F000294B5870D8E70121B420FFF769FA264B1F
:102700001870EDE7244B1B785BB1234B5B78002BF3
:10271000CAD1022140F20910FFF75AFA1E4B587035
:10272000C2E701214FF48770FFF752FA1A4B187075
:10273000EBE7194B1B785BB1174B5B78002BB3D1E0
:10274000022140F20910FFF743FA134B5870ABE730
:1027500001214FF48770FFF73BFA0F4B1870EBE73E
:102760000023094A13700C4A137053700425D7E0F4
:10277000064B1B78032B19D8DFE803F099A41090BF
:102780005004002070040020A8030020C80300208B
:1027900098040020B8030020A40400200121B320E5
:1027A000FFF716FA0221B020FFF712FA704C714EB3
:1027B0003378029301230193009407AB0022114662
:1027C0002046FFF751FC337803939DF86030029365
:1027D000DDE90423CDE9002323465A4651460CA8DF
:1027E000FEF74AF90546337803930294CDF804B016
:1027F000CDF800A0DDE90C2308A90AA8FEF708FF20
:10280000DDE90C67DDE90A2330463946FDF7A6FC11
:1028100080468946584BC3E90089DDE908233046E4
:102820003946FDF79BFC06460F46544BC3E900674B
:102830000022002340464946FEF7B8F800284CD154
:102840000022002330463946FEF7B0F800284AD16E
:1028500045A3D3E900234849D1E90001FEF7C4F8B4
:1028600028B1454B40A1D1E90001C3E900013EA3D5
:10287000D3E900234149D1E90001FEF7B5F828B1B9
:102880003E4B39A1D1E90001C3E90001394B1B7866
:10289000032B43D8DFE803F0482D2D480121B42055
:1028A000FFF796F90221AF20FFF792F97EE70121A9
:1028B0004FF48770FFF78CF9022140F20910FFF7FF
:1028C00087F973E701214FF48770FFF781F902213F
:1028D00040F20910FFF77CF968E7274B0020002140
:1028E000C3E90001ACE7254B00200021C3E900014A
:1028F000AEE7234C012323740223A3751E4BD3E9B7
:10290000000106F00FFDFEF779F8E0811B4BD3E9DB
:10291000000106F007FDFEF771F8A082032D19D023
:1029200028460FB0BDE8F08F154C02232374012315
:10293000A375124BD3E9000106F0F4FCFEF75EF834
:10294000E0810D4BD3E9000106F0ECFCFEF756F8F0
:10295000A082E3E70A4B0022DA819A8203221A74EA
:102960009A75DDE70425DBE7000000008087C3409F
:1029700000040020C803002098040020B8030020B1
:102980003C00002008B501F051FE002008BD000009
:10299000F0B58FB0894B9B7813F0400F02D1884B74
:1029A00001221A70854B9A785A789B7813F0100F91
:1029B00002D1844B01221A70804B9B7803F00303F1
:1029C000032B04D07D4B9B7813F0010F02D17E4B7B
:1029D00001221A70794B9B7803F00303032B01D07B
:1029E000764B9B78754B9B7803F00C030C2B04D033
:1029F000724B9B7813F0040F02D1744B01221A70B2
:102A00006E4B9B7803F00C030C2B04D06B4B9B7824
:102A100013F0080F02D16E4B01221A70674B5A78DF
:102A20005A785A785B784FF40061002004F064FF14
:102A300010B1684B01221A702021022004F05CFFC3
:102A400010B1654B01221A704FF48051002004F040
:102A500053FF10B1614B01221A704FF480710220B4
:102A600004F04AFF10B15E4B01221A704FF400616E
:102A7000002004F041FF50B9564B1B783BB1594B35
:102A800001221A700023584A1370524A13704FF4EF
:102A90008071022004F030FF50B9514B1B783BB1DC
:102AA0000023504A1370504A012111704C4A137090
:102AB0000121022004F020FF002873D14B4B01229A
:102AC0001A703E4B9B7803F00303032B13D03B4B50
:102AD0009B7813F0010F0ED03B4B1B785BB1444A3F
:102AE000136801331360042B02DD134600221A60C1
:102AF000354B00221A70314B9B7803F00C030C2BE2
:102B000007D02E4B9B7813F0040F02D02F4B1B786D
:102B10003BB92021022004F0EFFE70B92E4B1B7848
:102B20005BB1344B1B780C2B40D00133314A13700E
:102B30000023264A1370284A1370204B9B7803F019
:102B40000C030C2B07D01D4B9B7813F0080F02D001
:102B50001F4B1B7843B94FF48051002004F0CCFE8A
:102B600068B91E4B1B7853B1224B1B7813BB214B0A
:102B70000C221A700023164A1370184A13701D4B4A
:102B80001B780C2B3AD8DFE813F0A90A8600AB00BB
:102B9000390039003900390039003900D0004301CB
:102BA00037008300114B00221A708AE7114B002274
:102BB0001A70BDE7013B0F4A1370DBE7380C0020A9
:102BC00090030020DC040020DE040020A00400208C
:102BD000C0030020E4030020E3030020E103002001
:102BE000E2030020B103002001000020AD0300201B
:102BF0002C03002003000020FEF714F9764B1B780D
:102C0000002B01F01084754B5B7813F0080F04D093
:102C1000724B5B7813F0020F05D14FF480710220E4
:102C200004F06AFE20BB0DF11703002201211046BB
:102C3000FEF7BCFB0DF11703002201210846FEF749
:102C4000B5FB0DF11703002201210220FEF7AEFBB8
:102C50000DF11703002201210320FEF7A7FB6048B6
:102C600000220292019200900DAB0121FFF7FCF9C6
:102C70005C4B1A685C4BA3FB02135B09642101FBEC
:102C80001323092B41F2DE83002318460FB0F0BD59
:102C9000FEF7C8F8B2E7554B1B7893B9544B1B7835
:102CA000002BABD0534B1B78002BA7D00020FEF796
:102CB000E5F8514B18700228A0D14E4B00221A7033
:102CC0009CE74E4B0C22DA710A221A720220FEF7A0
:102CD000D5F8494B00221A70464B01221A70DDE7E5
:102CE000424B1B789BB9424B1B78002B86D0414B43
:102CF0001B78002B82D00120FEF7C0F83E4B1870E5
:102D000002287FF47BAF3B4B00221A7076E73B4BE7
:102D10000C22DA7108221A720220FEF7AFF80123A2
:102D2000354A1370334A1370DDE72C4B9B7813F050
:102D3000400F20D0324B1B78EBB101232D4A13708A
:102D4000304A1370304B00221A70244B9B7813F0DA
:102D5000200F06D00023274A13702A4A13702A4AEC
:102D60001370244B1B78C3B9224A1370254A137081
:102D7000254A137042E7194B9B7813F0100FE4D0EB
:102D8000224B1B78002BE0D001231A4A13701D4AF6
:102D9000002111701C4A1370D7E71A4B1B787BB9BE
:102DA000194B1B7893B9144B1B78022B7FF426AF79
:102DB0000023104A1370134A1370134A13701DE74F
:102DC0000020FEF75BF80C4B1870ECE70120FEF7D3
:102DD00055F8094B1870E6E703000020380C002076
:102DE000E8030020340C00201F85EB510100002077
:102DF000B1030020AA030020AB0300203000002014
:102E000090030020AC030020A9030020DC04002074
:102E10008F4B5B7813F0080F04D08D4B5B7813F069
:102E2000020F5BD18A4B9B7813F0400F7CD0894B0B
:102E30001B78002B78D0884B01221A700023874A18
:102E40001370874A1370874A1370874A1370874A32
:102E500013707F4B9B7813F0200F13D00023844A0C
:102E60001360844A1360844A012111707A4A1370F6
:102E70007A4A13707A4A13707A4A13707A4A137036
:102E80007A4A1370744B1B787BB9744B1B7863B907
:102E9000734B1B784BB9734B1B7833B9724B1B7850
:102EA0001BB9724B1B78002B56D06F4B1B78002B35
:102EB00000F08B80714B1C680C2C00F28680DFE8E0
:102EC00014F05A00EF00AF0111029B02F302550308
:102ED000DF0337049B0429058405D2050DF1170390
:102EE000002201211046FEF761FA0DF117030022BE
:102EF00001210846FEF75AFA0DF1170300220121BD
:102F00000220FEF753FA0DF11703002201210320DE
:102F1000FEF74CFA5A4800220292019200900DAB43
:102F20000121FFF7A1F87DE7494B9B7813F0100FC3
:102F30008FD0544B1B78002B8BD00023464A137044
:102F4000464A1370464A1370464A1370464A012196
:102F50001170464A13707CE70024454B1C60454BBA
:102F60001C603D4B1C70444B01221A70FDF75AFF48
:102F7000424B1C6099E7404B1B78002B38D04048EF
:102F800000210291019100900DAB0A46FFF76CF809
:102F90003D4900220023C1E90023C1E902233B4946
:102FA000C1E9002326A3D3E90023C1E9022304E0F9
:102FB000374B234403225A700134072CF8DD2E4B83
:102FC00000221A70334B1B7843B3234B1B78002B22
:102FD0003FF414AE294B1C68062C3FF60FAEDFE819
:102FE00014F0AD050106AF062A077007B607FC0707
:102FF00001230193009314A3D3E90023234922481A
:10300000FFF7C2FA244B18700328DBD11A4B0122B8
:103010001A701A4A136801331360D3E70022019231
:103020000092134601210220FEF734F91B4B187061
:103030000128CAD1174B01221A70C6E7AFF30080EE
:103040000000000000E8AC40000000000094B14027
:10305000380C002090030020A1040020D804002098
:10306000D9040020DA040020DB040020A2040020A0
:10307000DC0300209403002002000020D403002081
:10308000E8030020DC040020B0040020C00400207D
:1030900030000020AE03002004000020AF03002019
:1030A000A54B1B7833BBA54B1B68A54A12689B1A1E
:1030B000B3F5FA6F4AD3A14B1B689B1A40F6B731A0
:1030C0008B426CD99D4B1B689A1AB2F57A6F48D225
:1030D0000121F020FEF77CFD0221EB20FEF778FDB8
:1030E000984B02221A7401229A7540F6AC52DA818A
:1030F0009A8236E0944D00240294019400950DAB21
:10310000224621462846FEF7AFFF904B00200021C3
:10311000C3E90001D5E90201C3E902018C4B002695
:103120008C4FC3E90067C3E90201234604E08A4AE1
:103130001A44022151700133072BF8DD7E4B002227
:103140001A707E4B1A687E4B1A6012E001230193BD
:10315000009300227F4B7E497C48FFF715FA7F4B96
:103160001870764B1B68764A12689B1AB3F57A6F13
:1031700029D27B4B1B78002B7FF427AF00220192D2
:103180000092134601210220FEF784F8754B187057
:1031900001287FF41AAF724B01221A7015E7012142
:1031A0004FF49670FEF714FD022140F22710FEF74F
:1031B0000FFD644B02221A7401229A7540F6AC523C
:1031C000DA819A82CDE7654B04221A7000245C4BA9
:1031D0001C60FDF739FE01258DF834508DF835401F
:1031E0008DF836500022604BCDE906234AA3D3E97F
:1031F0000023CDE9082300220023CDE90A2302940D
:10320000019406AB00930DAB2A4621464E48FEF7CB
:103210002BFF494B1D70554A13682B441360A8E7D8
:103220004F4B1B7893B1444B1B78FBB94B4B1B782E
:10323000032B47D001230193009300224C4B4449B8
:103240004248FFF7A1F9454B1870BEE600220192F3
:103250000092134601210220FEF71CF8414B187022
:103260000128E0D13E4B01221A70DCE7364D0024E4
:103270000294019400950DAB224621462846FEF7A4
:10328000F3FE324B26A1D1E90001C3E90001D5E9E3
:103290000201C3E902012E4B23A7D7E90067C3E966
:1032A0000067C3E90201234604E02B4A1A440421C3
:1032B00051700133072BF8DD00231F4A1370274A92
:1032C000137082E6264B1B78002B3FF47EAE1A4B20
:1032D00001221A70254A136801331360204B002223
:1032E0001A7072E6144B1B78002B45D11B4B1B78D0
:1032F000032B6CD00123019300930DA3D3E900238A
:1033000013491248FFF740F9144B18700B4B1A6819
:10331000184B1A6059E600BF0000000000E8AC40FE
:103320000000000000C067400000000000589BC083
:10333000000000000070A74002000020340C0020B4
:10334000940300203C000020E8030020B00400208B
:10335000C004002000409F403000002004000020F6
:10336000AE030020AF03002000006940D40300201A
:103370000040AF4024030020934D002402940194A8
:1033800000950DAB224621462846FEF76DFED5E995
:1033900000018E4EC6E90001D5E90223C6E90223E9
:1033A0008B4BC3E900017EA1D1E90001C3E9020111
:1033B000234604E0874A1A44052151700133072B44
:1033C000F8DD0023844A1370844A1370FDE5844AB3
:1033D000537843F030035370824B1B68824A126863
:1033E0009B1AB3F5FA7F7FF6F0AD7B4B01221A7082
:1033F00014447E4B1C60E8E5774B1B789BB9774BF8
:103400001B78032B3BD00123019300930022784BC0
:103410006F496E48FFF7B8F8704B1870714B1A6817
:10342000714B1A60D1E5684D002402940194009517
:103430000DAB224621462846FEF716FED5E90001CF
:10344000624BC3E9000156A7D7E90067C3E90267E9
:103450005F4BC3E9000154A1D1E90001C3E90201B6
:10346000234604E05B4A1A44062151700133072BBE
:10347000F8DD0023584A1370584A1370A5E5584ADE
:10348000537843F004035370564B1B68564A126836
:103490009B1AB3F5FA7F7FF698AD4F4B01221A7055
:1034A0001444524B1C6090E5524B1B7893B14A4B2D
:1034B0001B78FBB9494B1B78032B47D001230193A1
:1034C000009300224C4B42494048FFF75DF8434BC4
:1034D00018707AE500220192009213460121022021
:1034E000FDF7D8FE454B18700128E0D1414B012271
:1034F0001A70DCE7344D00240294019400950DAB62
:10350000224621462846FEF7AFFD304B28A1D1E9DF
:103510000001C3E90001D5E90201C3E902012C4B16
:1035200025A7D7E90067C3E90067C3E9020123467D
:1035300004E0284A1A44042151700133072BF8DDB6
:103540000023254A1370254A13703EE5294B1B784A
:10355000002B3FF43AAD204B01221A70234A136826
:1035600001331360234B00221A702EE51A4B1B788F
:10357000002B45D1194B1B78032B6CD001230193F1
:1035800000930FA3D3E9002311491048FEF7FCFF75
:10359000124B1870134B1A68134B1A6015E500BFD5
:1035A000000000000030B140000000000078AE4094
:1035B0000000000000589BC0000000000088A3C06D
:1035C000000000000070A740E8030020B0040020C5
:1035D000C004002030000020020000200400002071
:1035E0002C000020340C002024030020D4030020F1
:1035F00000409F40AE0300200040AF40AF030020DA
:10360000954D00240294019400950DAB224621466D
:103610002846FEF729FDD5E90001904EC6E90001D4
:10362000D5E90223C6E902238D4BC3E9000180A13D
:10363000D1E90001C3E90201234604E0894A1A44A2
:10364000052151700133072BF8DD0023864A1370E2
:10365000864A1370B9E4864A537843F030035370B6
:10366000844B1B68844A12689B1AB3F5FA7F7FF675
:10367000ACAC7D4B01221A701444804B1C60A4E456
:10368000794B1B789BB9794B1B78032B3BD00123DB
:103690000193009300227A4B71497048FEF774FF42
:1036A000724B1870734B1A68734B1A608DE46A4D35
:1036B00000240294019400950DAB22462146284631
:1036C000FEF7D2FCD5E90001644BC3E9000158A71D
:1036D000D7E90067C3E90267614BC3E9000156A15E
:1036E000D1E90001C3E90201234604E05D4A1A441E
:1036F000062151700133072BF8DD00235A4A13705D
:103700005A4A137061E45A4A537843F004035370E1
:10371000584B1B68584A12689B1AB3F5FA7F7FF61C
:1037200054AC514B01221A701444544B1C604CE4AD
:10373000544B1B7893B14C4B1B78FBB94B4B1B780C
:10374000032B48D001230193009300224E4B4449A0
:103750004248FEF719FF454B187036E400220192EB
:103760000092134601210220FDF794FD474B18708B
:103770000128E0D1434B01221A70DCE7364D0024CA
:103780000294019400950DAB224621462846FEF78F
:103790006BFC324B2AA1D1E90001C3E90001D5E954
:1037A0000201C3E902012E4B27A7D7E90067C3E94D
:1037B0000067C3E90201234604E02A4A1A440421AF
:1037C00051700133072BF8DD0023274A1370274A75
:1037D0001370FFF7FABB2B4B1B78002B3FF4F5ABB4
:1037E000214B01221A70254A136801331360254BBF
:1037F00000221A70FFF7E9BB1B4B1B78002B47D147
:103800001A4B1B78032B6FD001230193009310A355
:10381000D3E9002312491148FEF7B6FE134B187086
:10382000144B1A68144B1A60FFF7CFBBAFF300803C
:10383000000000000030B140000000000078AE4001
:103840000000000000ECA3C0000000000064A9C05C
:10385000000000000070A740E8030020B004002032
:10386000C0040020300000200200002004000020DE
:103870002C000020340C002024030020D40300205E
:1038800000409F40AE0300200040AF40AF03002047
:103890009D4D00240294019400950DAB22462146D3
:1038A0002846FEF7E1FBD5E90001984EC6E9000184
:1038B000D5E90223C6E90223954BC3E900018CA197
:1038C000D1E90001C3E90201234604E0914A1A4408
:1038D000052151700133072BF8DD00238E4A137048
:1038E0008E4A1370FFF771BB8D4A537843F0300353
:1038F00053708C4B1B688C4A12689B1AB3F5FA7F85
:103900007FF663AB844B01221A701444874B1C6012
:10391000FFF75BBB804B1B78A3B9804B1B78032B55
:103920003DD00123019300930022814B78497748D1
:10393000FEF72AFE794B18707A4B1A687A4B1A6098
:10394000FFF743BB704D00240294019400950DAB2A
:10395000224621462846FEF787FBD5E900016B4B3E
:10396000C3E9000162A7D7E90067C3E90267684BB2
:10397000C3E9000160A1D1E90001C3E902012346C6
:1039800004E0644A1A44062151700133072BF8DD24
:103990000023614A1370614A1370FFF716BB604A37
:1039A000537843F0040353705E4B1B685E4A126801
:1039B0009B1AB3F5FA7F7FF608AB574B01221A70BA
:1039C00014445A4B1C60FFF700BB534B1B78002B71
:1039D00032D0584A136801331360632B7FF7F5AA7E
:1039E000494D00240294019400950DAB22462146D6
:1039F0002846FEF739FB454B41A1D1E90001C3E957
:103A00000001D5E90201C3E90201414B002600276C
:103A1000C3E90067C3E90201234604E03D4A1A44B2
:103A20000F2151700133072BF8DD0023414A136049
:103A3000394A1370FFF7C9BA01230193009300229A
:103A40003D4B33493148FEF79FFD344B1870032836
:103A50007FF4BBAA304B01221A70344A1368013339
:103A60001360FFF7B2BA2C4B1B784BB3264D0024E2
:103A70000294019400950DAB224621462846FEF79C
:103A8000F3FAD5E90001214BC3E900011AA7D7E9F0
:103A90000067C3E902671E4BC3E900010020002153
:103AA000C3E90201234604E01A4A1A440E21517068
:103AB0000133072BF8DD184B00221A70FFF785BA87
:103AC00001230193009300221B4B11490F48FEF77D
:103AD0005BFD124B187003287FF477AA0E4B01226E
:103AE0001A70124A136801331360FFF76EBA00BFF1
:103AF000000000000030B140000000000078AE403F
:103B00000000000000C8A9C0E8030020B0040020A5
:103B1000C00400203000002002000020040000202B
:103B20002C000020340C002024030020D4030020AB
:103B300000409F40DC0300200040AF40A24B1B78B8
:103B4000002B39D0A14800210291019100900DABCA
:103B50000A46FEF789FA9E4900220023C1E90023A4
:103B6000C1E902239B49C1E900238FA3D3E90023C4
:103B7000C1E90223072C05DC974B234403225A702A
:103B80000134F7E7904B00221A70944B1B78002BFE
:103B90007FF434A8002201920092134601210420F0
:103BA000FDF778FB8E4B187001287FF427A88B4B0C
:103BB00001221A70FFF722B80123019300937CA31E
:103BC000D3E9002383498248FEF7DEFC854B187059
:103BD0000328DAD17C4B01221A70834A136801331F
:103BE0001360D2E7784B1B783BBB804B1B68804A45
:103BF00012689B1AB3F5FA6F4CD37C4B1B689B1A67
:103C000040F6B7318B4240F28780784B1B689A1A96
:103C1000B2F57A6F49D20121F020FDF7D9FF0221D8
:103C2000EB20FDF7D5FF734B02221A7401229A751F
:103C300040F6AC52DA819A8237E0644D0024029457
:103C4000019400950DAB224621462846FEF70CFA5A
:103C50005F4B00200021C3E90001D5E90201C3E95F
:103C600002015C4B0026644FC3E90067C3E902010F
:103C7000234604E0584A1A44022151700133072BAD
:103C8000F8DD514B00221A70584B1A68584B1A60D5
:103C9000FEF7B4BF0123019300930022564B4D4918
:103CA0004B48FEF771FC4F4B1870504B1B68504A45
:103CB00012689B1AB3F57A6FFEF4A0AF494B042249
:103CC0001A7000254A4B1D60FDF7BEF801248DF8DF
:103CD00034408DF835408DF836400022474BCDE911
:103CE000062331A3D3E90023CDE9082300220023D2
:103CF000CDE90A230295019506AB00930DAB224650
:103D000029463248FEF7B0F92F4B1C70364A13682B
:103D100023441360FEF772BF01214FF49670FDF744
:103D200057FF022140F22710FDF752FF314B0222CC
:103D30001A7401229A7540F6AC52DA819A82B4E77D
:103D4000214B1B78002B5DD0204D00240294019460
:103D500000950DAB224621462846FEF785F9284AF4
:103D6000537843F008035370194B13A1D1E90001B4
:103D7000C3E90001D5E90201C3E90201154B10A70F
:103D8000D7E90067C3E90067C3E902012346072BAF
:103D900005DC114A1A44042151700133F7E70A4B3C
:103DA00000221A70FEF72ABF000000000044B6404F
:103DB000000000000094B1400000000000C06C4012
:103DC0000000000000589BC002000020E803002013
:103DD000B0040020C004002030000020AE0300200A
:103DE000AF03002004000020D4030020340C002086
:103DF000940300203C00002000409F4000006940E8
:103E00002C00002001230193002300939EA3D3E9FB
:103E10000023A949A948FEF7B7FBA94B187003284E
:103E20007EF4ECAEA74B01221A70A74A1368013347
:103E30001360FEF7E3BEA34B1B7853B3A34D0024DE
:103E40000294019400950DAB224621462846FEF7C8
:103E50000BF9D5E90001994BC3E900018CA7D7E91B
:103E60000067C3E90267944BC3E900018AA1D1E965
:103E70000001C3E902012346072B05DC944A1A44DA
:103E8000052151700133F7E78E4B00221A70FEF7BF
:103E9000B5BE0123019300937BA3D3E90023864998
:103EA0008648FEF771FB864B187003287EF4A6AE99
:103EB000844B01221A70844A136801331360FEF7A1
:103EC0009DBE804B1B7853B3804D00240294019417
:103ED00000950DAB224621462846FEF7C5F8D5E9E8
:103EE0000001764BC3E900016BA7D7E90067C3E97E
:103EF0000267714BC3E9000165A1D1E90001C3E983
:103F000002012346072B05DC714A1A440621517031
:103F10000133F7E76B4B00221A70FEF76FBE0123E7
:103F20000193009358A3D3E9002363496348FEF744
:103F30002BFB634B187003287EF460AE614B0122AB
:103F40001A70614A136801331360FEF757BE5D4B68
:103F50001B7853B35D4D00240294019400950DAB82
:103F6000224621462846FEF77FF8D5E90001534B4B
:103F7000C3E9000146A7D7E90067C3E902674E4BD2
:103F8000C3E9000146A1D1E90001C3E902012346CA
:103F9000072B05DC4E4A1A440E2151700133F7E716
:103FA000484B00221A70FEF729BE012301930093AB
:103FB00035A3D3E9002340494048FEF7E5FA404BDA
:103FC000187003287EF41AAE3E4B01221A703E4A46
:103FD000136801331360FEF711BE3A4B1B78002BB8
:103FE00037D03C4A136801331360632B7EF706AE6B
:103FF000364D00240294019400950DAB22462146D3
:104000002846FEF731F82D4E27A3D3E90023C6E951
:1040100000230022304BD5E90201FCF79FF8C6E9E6
:104020000201254B22A7D7E90067C3E90067C3E96E
:104030000201234604E0264A1A440F21517001333D
:10404000072BF8DD0023234A13601E4A1370FEF786
:10405000D5BD01230193002300930BA3D3E90023D3
:1040600015491648FEF790FA154B187003287EF490
:10407000C5AD144B01221A70134A13680133136043
:10408000FEF7BCBDAFF30080000000000070A74049
:10409000000000000044B640000000000038B840B6
:1040A0000000000000D4B7400000000000589BC092
:1040B0000000000000F4AAC0C0040020B0040020EA
:1040C0000400002002000020D4030020E8030020A8
:1040D00030000020DC03002000004940AE4C2046A8
:1040E00004F0A2F980EAE075A5EBE075204604F043
:1040F0009BF90028B8BF404200FB05F5204604F0BC
:10410000A4F980EAE076A6EBE076204604F09DF97B
:104110000028B8BF404200FB0650FCF76BF905F0E1
:10412000F7F900229D4BFCF741FC002829D09C4B5D
:104130001C689B4B1C609B4B1B78002B70D09A4BD0
:104140001B78002B74D0984B1B781BB1954B1B78B8
:10415000002B75D1FDF704FF034600287EF495ADD2
:104160008D4B5B7813F0080F75D08B4B5B7813F099
:10417000100F70D08D4B032283F8222000221A8466
:1041800075E0854804F050F900281EDB824C20467B
:1041900004F05BF9FCF72EF906460F46204604F0C2
:1041A00043F9FCF727F902460B4630463946FCF73F
:1041B000B5FA04F0DDFE76A3D3E90023FCF784F919
:1041C000FCF71CFCC0F58774B3E7734C204604F081
:1041D0003CF9FCF70FF906460F46204604F024F997
:1041E000FCF708F902460B4630463946FCF796FACA
:1041F00004F0BEFE66A3D3E90023FCF765F902468E
:104200000B46104603F10041FCF7F8FB041E04DBEB
:10421000C4F58774C4F5B4748BE7C4F58774F9E703
:10422000FDF7A0FC00288AD15E4B01221A7086E7B8
:10423000FDF7B2FC002886D15B4B01221A7082E7A1
:10424000012104F1B400FDF7C3FC022104F1AF0029
:10425000FDF7BEFC7EE7504B5B7813F0080F34D0BF
:10426000524B012283F8222040F6B8321A844A4B7E
:104270005B7813F0020F04D0474B5B7813F0040F08
:1042800037D1454B5B7813F0020F36D1424B5B7848
:1042900013F0040F35D00120FCF7F0FD3E4B5B78A6
:1042A00013F0080F45D03C4B5B7813F0100F40D053
:1042B000394B5B7813F0010F27D03C4B012283F878
:1042C000282041F28832DA8439E0334B5B7813F0EE
:1042D000100F07D0354B022283F8222040F6B83267
:1042E0001A84C4E7314B032283F8222000221A8467
:1042F000BDE70220FCF7C2FDD0E70020FCF7BEFDC1
:10430000CCE70220FCF7BAFDC8E7234B9B7813F0FB
:10431000200F07D0254B022283F8282041F2883253
:10432000DA840CE0214B032283F828200022DA846F
:1043300005E01E4B032283F828200022DA84164B66
:104340009B7813F0400F0AD0194B1B78012B09D032
:1043500000210120FCF7CCFD154B187002E0144B36
:1043600000221A700C4B5B7813F0010F26D00A4B19
:104370005B7813F0080F21D10E4B1B78012B20D056
:104380000D48FDF791FD0B4B18701AE0AFF300805C
:1043900046DF617EDCA54C40380C002000804640A2
:1043A000D803002099030020980300203C0000203F
:1043B000DF040020DD040020E8030020684B002219
:1043C0001A70684B9B7813F0200F21D0664B1B7836
:1043D000012B12D1634B9B7813F0200F05D0614B5A
:1043E0005B7813F0020F3EF409ACFCF7CBFC0346FC
:1043F00000283EF403ACFEF748BC00220192009274
:10440000134601210220FCF745FF574B1870E1E7E6
:104410000022554B1A70012101910092134602208F
:10442000FCF738FFD6E75148002102910191009036
:104430000DAB0A46FDF718FE034600283EF4E3AB39
:10444000FEF723BC4A4B1A784A4B53F822104A48CD
:1044500003F094FB494B1B78002B57D1484803F0DD
:104460008DFB4FF48051012003F046FA002851D112
:10447000444803F083FB0421012003F03DFA0028A7
:104480004CD1414803F07AFB0221012003F034FAB9
:10449000002847D13D4803F071FB1021012003F0B3
:1044A0002BFA002842D13A4803F068FB1021022081
:1044B00003F022FA00283DD1364803F05FFB4FF4A9
:1044C0000061002003F018FA002837D1324803F0C9
:1044D00055FB2021022003F00FFA98BB2F4803F070
:1044E0004DFB4FF48051002003F006FA70BB2C48BE
:1044F00003F044FB4FF48071022003F0FDF948B350
:10450000284803F03BFB0023FEF7BFBB264803F01F
:1045100035FBA6E7254803F031FBACE7244803F060
:104520002DFBB1E7234803F029FBB6E7224803F04F
:1045300025FBBBE7214803F021FBC0E7204803F03F
:104540001DFBC6E71F4803F019FBCAE71E4803F02E
:1045500015FBCFE71D4803F011FB0023FEF795BBC9
:10456000DD040020380C0020AF030020E803002009
:104570000300002070B0000894AD0008AD030020D7
:10458000A4AD0008BCAD0008E4AD000814AE0008FE
:1045900034AE00085CAE00087CAE000894AE0008A3
:1045A000ACAE0008D0AE0008B0AD0008D0AD000839
:1045B000FCAD000824AE000848AE00086CAE000850
:1045C00088AE0008A0AE0008B8AE0008C4AE00086F
:1045D000FEE7000008B54FF4A2720249024806F057
:1045E00023FB08BDA4B00008E4040020002209E079
:1045F000930003F1006303F5FE331968094B43F898
:10460000221001320C2AF3DD002307E0064A52F89B
:104610002320044951F8231011600133082BF5DDE4
:10462000704700BF280600200800002008B5FFF7EB
:10463000D1FFFFF7DBFF08BD00B583B01C4B9A69C3
:1046400042F001029A619B6903F001030193019B0F
:10465000032000F0F1FA002211466FF00B0000F089
:1046600009FB002211466FF00A0000F003FB002254
:1046700011466FF0090000F0FDFA002211466FF0BC
:10468000040000F0F7FA002211466FF0030000F07A
:10469000F1FA002211466FF0010000F0EBFA00225F
:1046A00011464FF0FF3000F0E5FA03B05DF804FB6F
:1046B00000100240F0B589B003685E4A934205D00D
:1046C00005465D4A934255D009B0F0BD5B4B9A69EF
:1046D00042F008029A619B6903F008030093009B73
:1046E000544A1368C3F30E0313604FF440730493EA
:1046F0001123059302230793514C04A9204600F08F
:1047000073FDE36843F44073E3604D4B9B6803F42F
:104710004073B3F5407FF8D1494AD36823F440731E
:10472000D360474B9B6813F4407FFAD14FF440733A
:104730000493122305930323079304A9404800F030
:1047400053FD404A536843F0020353603B4BDA6920
:1047500042F40012DA61DB6903F400130193019B58
:10476000344B1A6842F400421A601A68C2F30E020F
:104770001A60A9E74FF440630493122305930323BF
:10478000079304A92E4800F02FFD2C4BDA6942F460
:104790008002DA61DA6902F480020292029A5A69AE
:1047A00042F001025A615B6903F001030393039B2A
:1047B000254E264B336000247460B4608027F76078
:1047C00034617461B461F461304600F0F9FA2E632B
:1047D00075621F4E1F4B336010237360B460F76027
:1047E00034617461B461F461304600F0E9FAEE625C
:1047F0007562012221460E2000F03CFA0E2000F0E6
:104800007FFA012221460F2000F034FA0F2000F039
:1048100077FA22462146212000F02CFA212000F0D0
:104820006FFA22462146222000F024FA222000F0CE
:1048300067FA49E700540040005800400010024069
:10484000000C0140000001407006002058000240AA
:10485000A80600204400024000B587B003681B4A48
:10486000934205D01A4A93421BD007B05DF804FB6F
:10487000184BDA6942F00202DA61DB6903F00203E5
:104880000093009BC023029300230393049302A987
:10489000114800F0A9FC114A536843F44063536087
:1048A000E3E70C4BDA6942F00402DA61DB6903F0FA
:1048B00004030193019BC0230293002303930493F9
:1048C00002A9074800F090FCCFE700BF00040040B9
:1048D00000080040001002400010014000000140AC
:1048E000000C0140F0B58DB00368724A934209D0C4
:1048F0000446714A93422FD0704A934200F086805A
:104900000DB0F0BD6E4B9A6942F480429A619A698B
:1049100002F480420192019A9A6942F004029A617B
:104920009B6903F004030293029B4FF40073089306
:104930000223099303230B93624C08A9204600F03D
:1049400053FC4FF480630893002309930A9308A94A
:10495000204600F049FCD3E7594EF36943F4003395
:10496000F361F36903F400330393039BB36943F0EA
:104970000403B361B36903F004030493049B0423A9
:1049800008930223099303230B934E4F08A938463B
:1049900000F02AFC08230893002509950A9508A928
:1049A000384600F021FC736943F0010373617369B9
:1049B00003F001030593059B434E444B33601027DE
:1049C0007760B5608023F36035617561B561F5612D
:1049D000304600F0F5F92663746201222946112061
:1049E00000F048F9112000F08BF92A462946384694
:1049F00000F040F9384600F083F9012229462620CC
:104A000000F038F9262000F07BF979E72C4BDA69C1
:104A100042F48022DA61DA6902F480220692069A70
:104A20009A6942F010029A619B6903F010030793A0
:104A3000079B4FF4806308930223099303230B938E
:104A4000234D08A9284600F0CFFB4FF400630893DC
:104A5000002609960A9608A9284600F0C5FB1D4ABB
:104A6000536823F0300343F0100353601A4D1B4B7F
:104A70002B606E60AE608023EB602E616E61AE6174
:104A80004FF40053EB61284600F09AF965636C62BD
:104A9000324631460D2000F0EDF80D2000F030F9DF
:104AA00001223146272000F0E5F8272000F028F900
:104AB00026E700BF003801400044004000480040A5
:104AC000001002400008014018070020800002404A
:104AD0000010014000000140E006002030000240CC
:104AE0007047FEE7FEE7FEE7FEE770477047704756
:104AF00008B500F085F800F04EF9024A136801335A
:104B0000136008BD340C002008B5024B186B00F090
:104B100033FA08BD0402002008B5024B586B00F0C0
:104B20002BFA08BD4402002008B5024802F0D9FD66
:104B300008BD00BF4402002008B5024802F0D1FDC4
:104B400008BD00BF0402002008B5024BD86A00F07F
:104B500013FA08BD3C01002008B5024B186B00F0A9
:104B60000BFA08BD3C0100200F4B1A6842F001020D
:104B70001A6059680D4A0A405A601A6822F0847215
:104B800022F480321A601A6822F480221A605A686D
:104B900022F4FE025A604FF41F029A60044B4FF059
:104BA00000629A60704700BF001002400000FFF8EA
:104BB00000ED00E010B5044601F026FF064BA3FB14
:104BC0000030800900F0B2F8002221464FF0FF309B
:104BD00000F050F8002010BDD34D621008B5074A10
:104BE000136843F010031360032000F025F8002041
:104BF000FFF7E0FFFFF720FD002008BD0020024086
:104C0000024A136801331360704700BF5007002049
:104C1000014B1868704700BF5007002010B582B0E4
:104C20000190FFF7F5FF0446FFF7F2FF001B019B21
:104C30009842F9D302B010BD10B50446C31E042B30
:104C40000FD80A4AD36823F4E0631B041B0C240228
:104C500004F4E064234343F0BF6343F40033D360C0
:104C600010BDBA210248FFF7B3FCEAE700ED00E00F
:104C700000B2000870B505460C4616460F2A25D826
:104C80000F2C28D81B4BDB68C3F30223C3F10702A8
:104C9000042A28BF0422191D062921D9033B4FF0FD
:104CA000FF3101FA02F224EA02049C4001FA03F304
:104CB00026EA03063443002D14DB2401E4B205F197
:104CC000604505F5614585F8004370BDD2210A486D
:104CD000FFF77EFCD4E7D3210748FFF779FCD1E743
:104CE0000023DCE705F00F052401E4B2034B5C551B
:104CF000EBE700BF00ED00E000B2000814ED00E0BB
:104D000010B5041E08DB04F01F0264090123934060
:104D1000044A42F8243010BDE6210348FFF758FC4E
:104D2000F1E700BF00E100E000B200080138B0F197
:104D3000807F0AD2064B5860064AF02182F8231081
:104D40000020986007221A6070470120704700BF5A
:104D500010E000E000ED00E010B50446042800D0AB
:104D600038B9042C0BD0094A136823F004031360EC
:104D700010BD4FF4DF710648FFF72AFCF1E7034A44
:104D8000136843F004031360F2E700BF10E000E093
:104D900000B20008704708B5FFF7FCFF08BD10B46B
:104DA000046863604368102B05D00368996003684A
:104DB000DA6010BC704703689A600368D960F8E74E
:104DC000002800F0928010B504460368484A9342D8
:104DD00015D01432934212D0143293420FD01432B1
:104DE00093420CD01432934209D01432934206D02D
:104DF0001432934203D0B5213E48FFF7E9FB6368C4
:104E000023B1102B02D0B3F5804F4BD1A368402BB8
:104E100001D0002B4BD1E368802B01D0002B4BD16C
:104E200023692BB1B3F5807F02D0B3F5007F48D161
:104E300063692BB1B3F5806F02D0B3F5006F45D134
:104E4000A3690BB1202B46D1E36943B1B3F5805F71
:104E500005D0B3F5005F02D0B3F5405F40D194F8C0
:104E600021300BB984F82030022384F821302168E6
:104E70000A6822F47F5222F030026368A06803437C
:104E8000E06803432069034360690343A069034367
:104E9000E069034313430B6000206063012384F83F
:104EA000213010BDB6211348FFF792FBAEE7B721C2
:104EB0001048FFF78DFBAEE7B8210E48FFF788FBDF
:104EC000AEE7B9210B48FFF783FBB1E7BA210948E8
:104ED000FFF77EFBB4E7BB210648FFF779FBB3E79A
:104EE000BC210448FFF774FBB9E70120704700BFFD
:104EF0000800024038B20008F8B590F82040012CB4
:104F000035D01D4616460F460446012380F8203052
:104F1000022380F821306A1E4FF6FE739A4220D891
:104F20002068036823F0010303602B4632463946AC
:104F30002046FFF734FF2268136843F00203136032
:104F40002268136843F0040313602268136843F077
:104F5000080313602268136843F001031360002004
:104F6000F8BD40F261110348FFF732FBD8E7022099
:104F7000F6E700BF38B2000810B50446984B1A682F
:104F8000036898498B4214D014318B4232D01431CB
:104F90008B4231D014318B4231D014318B4231D01D
:104FA00014318B4202D04FF0006103E04FF4000156
:104FB00000E008210A423CD01A6812F0080F38D0ED
:104FC0001A6822F008021A602368864A93421FD0AA
:104FD0001432934245D01432934244D01432934257
:104FE00044D01432934244D0143293420DD04FF047
:104FF00000620EE08021DDE74FF40061DAE74FF454
:105000000041D7E74FF40021D4E74FF4000200E05D
:105010000822734B5A60636B43F0010363630423FC
:1050200084F82130002384F82030236B0BB1204614
:1050300098476B4B1A6823686A498B421FD014311A
:105040008B4241D014318B4240D014318B4240D03E
:1050500014318B4240D014318B420DD04FF080611F
:105060000EE08022D5E74FF40062D2E74FF4004211
:10507000CFE74FF40022CCE74FF4800100E0042199
:105080000A4239D01A6812F0040F35D01A6812F0AB
:10509000200F03D11A6822F004021A602368514AD3
:1050A00093421FD0143293423ED0143293423DD0EB
:1050B000143293423DD0143293423DD01432934285
:1050C0000DD04FF080620EE04021D9E74FF48061AF
:1050D000D6E74FF48041D3E74FF48021D0E74FF477
:1050E000800200E004223E4B5A60112384F82130F4
:1050F000E36A0BB120469847394B1A68236839494F
:105100008B421FD014318B4241D014318B4240D09E
:1051100014318B4240D014318B4240D014318B4239
:105120000DD04FF000710EE04022DCE74FF48062BA
:10513000D9E74FF48042D6E74FF48022D3E74FF40B
:10514000001100E002210A423ED01A6812F0020F5C
:105150003AD01A6812F0200F03D11A6822F0020226
:105160001A6023681F4A93421FD0143293422CD0F6
:10517000143293422BD0143293422BD014329342E8
:105180002BD0143293420DD04FF000720EE020214C
:10519000D9E74FF40071D6E74FF40051D3E74FF44D
:1051A0000031D0E74FF4001200E002220C4B5A60AD
:1051B000636B6363012384F82130002384F820307B
:1051C000A36A0BB12046984710BD2022EEE74FF4AA
:1051D0000072EBE74FF40052E8E74FF40032E5E7E6
:1051E00000000240080002402DE9F04383B08046F1
:1051F0000F46B54B984213D003F5806398420FD009
:1052000003F5806398420BD003F58063984207D082
:1052100003F58063984203D0CF21AC48FFF7D8F95B
:105220003B882BB37B68012B1ED9112B1CD0022B82
:105230001AD0122B18D0A64A934215D002F580122C
:10524000934211D002F5801293420DD0A2F5F812CC
:10525000934209D002F58012934205D002F58012E4
:10526000934201D0032B08D14FF000094E46DDE0F8
:10527000D0219648FFF7ACF9D4E7D1219348FFF746
:10528000A7F9F1E7002B5ED0012B05D1FB68013BAC
:10529000022B65D8D7F80C90FF2C00F29680404680
:1052A000FF2C00F29580B20003680F21914023EAA1
:1052B000010309FA02F2134303607B6813F0805F75
:1052C00000F0B380834B9A6942F001029A619B69B6
:1052D00003F001030193019BB208911C7E4B53F82C
:1052E000210006F0030399000F238B4020EA0300FE
:1052F000754B984572D003F58063984500F0CD80DA
:1053000003F58063984500F0CA8003F580639845F3
:1053100062D0042363E0714A934214D00BD9704ADF
:10532000934210D002F5803293420CD0A2F5801245
:105330009342B1D107E0A2F58012934203D002F567
:1053400080329342A8D1BB68022B2DD8BB68002BBA
:1053500038D0012B2ED0C8F814504FF008099BE725
:10536000E7215A48FFF734F994E7EE215748FFF751
:105370002FF98EE0FB68013B022B03D8FB6803F199
:10538000080989E7F5215148FFF722F9F6E7FB689C
:10539000013B022B03D8FB6803F10C097CE7FC21DD
:1053A0004A48FFF715F9F6E740F209114748FFF7B9
:1053B0000FF9CBE7C8F810504FF008096CE74FF031
:1053C000000969E74FF0040966E708F1040067E7A0
:1053D000A6F10802920067E7032300E000238B4058
:1053E000034302323C4941F822307B6813F4803F8A
:1053F00057D03C4A1368234313607B6813F4003F83
:1054000055D0384A5368234353607B6813F4801F98
:1054100053D0344A9368234393607B6813F4001F8E
:1054200062D0304AD3681C43D46001360F2E61D855
:105430000125B5403C682C40A542F6D1224B984549
:1054400013D003F5806398450FD003F5806398452A
:105450000BD003F58063984507D003F5806398452A
:1054600003D0DF211948FFF7B3F87B68122B8ED0E9
:105470003FF651AF022B3FF47DAF7FF603AF032B16
:105480009DD0112B7FF408AFFB68013B022B3FF648
:105490006CAFFB6803F10409FEE601239FE70223DA
:1054A0009DE7104A136823EA04031360A5E70D4A39
:1054B000536823EA04035360A7E70A4A936823EA80
:1054C00004039360A9E700BF0008014070B2000820
:1054D00000001110001002400000014000002110E7
:1054E0000000311000040140044AD36823EA040498
:1054F000D4609AE703B0BDE8F08300BF0004014028
:1055000038B505460C4621B1AB681C4207D10020D6
:1055100038BD4FF4E2710348FFF75AF8F4E7012071
:10552000F6E700BF70B2000870B5064615460C4697
:1055300029B1012D09D875B92404346170BD4FF427
:10554000F2710648FFF744F8F3E740F2E51103482B
:10555000FFF73EF8EFE73461F0E700BF70B20008F4
:105560004368124A934209D85800B1FBF0F0C0F3E7
:105570000B03032B00D970470420704782685AB987
:1055800003EB4300B1FBF0F040F40040C0F30B0329
:10559000002BF0D10120EEE703EB830000EB80004D
:1055A000B1FBF0F040F44040F0E700BFA0860100FE
:1055B00003685A6912F4806F0DD05A6922F4806230
:1055C0005A6104238363202380F83530002380F858
:1055D000343001207047002070472DE9F041064625
:1055E0000C4690461D46FFF713FB0746B8F1000F27
:1055F0001AD043E025B1FFF70BFBC01BA84213D91B
:10560000202386F83530002386F83430032019E053
:1056100033685B6924EA03039BB2003318BF01239C
:105620007BB1B5F1FF3FE5D1C4F30743012BEFD0C8
:1056300033689B6924EA03039BB2003318BF01233C
:10564000EEE70020BDE8F08125B1FFF7E1FAC01BCD
:10565000A84213D9202386F83530002386F8343049
:105660000320EFE733685B6924EA03039BB2B3FAD4
:1056700083F35B097BB1B5F1FF3FE5D1C4F3074389
:10568000012BEFD033689B6924EA03039BB2B3FA82
:1056900083F35B09EEE70020D4E7F8B504460D4636
:1056A0001646FFF7B5FA074631E01A6842F4007271
:1056B0001A602268536923F4806353610423A3634F
:1056C000202384F83530002384F8343001202CE086
:1056D00026B1FFF79DFAC01BB04218D9202384F8E9
:1056E0003530002384F8343003201EE023685B69E2
:1056F00025EA03039BB2003318BF0123A3B123683B
:105700005A6912F4806FD0D1B6F1FF3FE0D1C5F3F2
:105710000743012BEAD023689B6925EA03039BB268
:10572000003318BF0123E9E70020F8BD70B5044637
:105730000D4616460268136843F4807313603346BF
:1057400000224FF00111FFF748FF48BB2369B3F572
:10575000804F0FD1236805F0FE051D6132461449C4
:105760002046FFF79AFF0346D8B1A36B042B1CD148
:10577000012316E0EB11226803F0060343F0F00367
:10578000136132460B492046FFF787FF20B1A36B18
:10579000042B08D1012304E02368EDB21D61DDE78D
:1057A0000323184670BD0323FBE70323F9E700BF7B
:1057B0000200010008000100F0B583B004460D4668
:1057C00016460268136843F4806313600268136826
:1057D00043F480731360334600224FF00111FFF74A
:1057E000FCFE00284CD12369B3F5804F11D123680A
:1057F00045F00105EDB21D61324627492046FFF70D
:105800004CFF034600283CD0A36B042B42D101235C
:1058100037E0EF1107F00607236847F0F0021A613E
:1058200032461E492046FFF738FF20B1A36B042BF8
:105830002AD1012325E02368EDB21D6132461649C5
:105840002046FFF72AFF20B1A36B042B1ED10123B2
:1058500017E023685A6901929A690192019A1A68BD
:1058600042F480721A60334600224FF00111204644
:10587000FFF7B3FE60B9236847F0F1071F61BBE78C
:105880000323184603B0F0BD0323FAE70323F8E728
:105890000323F6E70323F4E70200010008000100F8
:1058A00070B504460D46FFF7B3F9064623685B69F9
:1058B00013F0800F18D12046FFF77AFEB0B9B5F18A
:1058C000FF3FF3D025B1FFF7A3F9801BA842EDD924
:1058D000A36B43F02003A363202384F83530002317
:1058E00084F83430032000E0002070BD0120FCE784
:1058F00070B504460D46FFF78BF9064623685B69D1
:1059000013F0040F18D12046FFF752FEB0B9B5F1DD
:10591000FF3FF3D025B1FFF77BF9801BA842EDD9FB
:10592000A36B43F02003A363202384F835300023C6
:1059300084F83430032000E0002070BD0120FCE733
:10594000002800F0B38038B504460368584A9342F3
:1059500008D002F58062934204D04FF4A5715548F7
:10596000FEF736FE6368013B534A93425ED8A36854
:1059700013B1B3F5804F5FD1E36823F47F7323F055
:105980000303002B5ED12369B3F5804F02D0B3F53A
:10599000404F5DD16369012B60D8A36933F0FE03EA
:1059A00062D1E3690BB1402B64D1236A0BB1802B28
:1059B00066D194F83530002B68D0242384F8353034
:1059C0002268136823F00103136001F023F80146F5
:1059D0003A4BA3FB00239B0C226853606068384A53
:1059E000904259D801332268136225682046FFF798
:1059F000B7FDE861E369216A22680B4313602369FC
:105A0000E16822680B4393606369A16922680B43D4
:105A1000D3602268136843F0010313600020A06381
:105A2000202384F8353084F8360038BD40F24B111D
:105A30002048FEF7CDFD9AE74FF4A6711D48FEF70A
:105A4000C7FD99E740F24D111A48FEF7C1FD9AE7EC
:105A50004FF4A7711748FEF7BBFD9BE740F24F11CB
:105A60001448FEF7B5FD98E74FF4A8711148FEF70A
:105A7000AFFD96E740F251110E48FEF7A9FD94E7FD
:105A80004FF4A9710B48FEF7A3FD92E784F8343078
:105A90002046FEF70FFE90E74FF4967202FB03F3E9
:105AA000084AA2FB03239B0901339CE701207047AE
:105AB00000540040A8B200087F1A060083DE1B4392
:105AC000A0860100D34D6210F0B583B01E4690F859
:105AD0003530DBB2202B7FD104460F461546002A15
